{
	"JudgeReg.sol": {
		"JudgeReg": {
			"abi": [
				{
					"inputs": [],
					"stateMutability": "nonpayable",
					"type": "constructor"
				},
				{
					"inputs": [
						{
							"internalType": "address",
							"name": "owner",
							"type": "address"
						}
					],
					"name": "OwnableInvalidOwner",
					"type": "error"
				},
				{
					"inputs": [
						{
							"internalType": "address",
							"name": "account",
							"type": "address"
						}
					],
					"name": "OwnableUnauthorizedAccount",
					"type": "error"
				},
				{
					"anonymous": false,
					"inputs": [
						{
							"indexed": false,
							"internalType": "uint256",
							"name": "judgeId",
							"type": "uint256"
						},
						{
							"indexed": false,
							"internalType": "string",
							"name": "judgeName",
							"type": "string"
						}
					],
					"name": "NewJudge",
					"type": "event"
				},
				{
					"anonymous": false,
					"inputs": [
						{
							"indexed": true,
							"internalType": "address",
							"name": "previousOwner",
							"type": "address"
						},
						{
							"indexed": true,
							"internalType": "address",
							"name": "newOwner",
							"type": "address"
						}
					],
					"name": "OwnershipTransferred",
					"type": "event"
				},
				{
					"inputs": [
						{
							"internalType": "string",
							"name": "_name",
							"type": "string"
						}
					],
					"name": "_registerJudge",
					"outputs": [],
					"stateMutability": "nonpayable",
					"type": "function"
				},
				{
					"inputs": [
						{
							"internalType": "uint256",
							"name": "",
							"type": "uint256"
						}
					],
					"name": "judgeToOwner",
					"outputs": [
						{
							"internalType": "address",
							"name": "",
							"type": "address"
						}
					],
					"stateMutability": "view",
					"type": "function"
				},
				{
					"inputs": [
						{
							"internalType": "uint256",
							"name": "",
							"type": "uint256"
						}
					],
					"name": "judges",
					"outputs": [
						{
							"internalType": "string",
							"name": "name",
							"type": "string"
						},
						{
							"internalType": "uint16",
							"name": "rank",
							"type": "uint16"
						},
						{
							"internalType": "uint32",
							"name": "rightDecision",
							"type": "uint32"
						},
						{
							"internalType": "uint16",
							"name": "wrongDecision",
							"type": "uint16"
						}
					],
					"stateMutability": "view",
					"type": "function"
				},
				{
					"inputs": [],
					"name": "owner",
					"outputs": [
						{
							"internalType": "address",
							"name": "",
							"type": "address"
						}
					],
					"stateMutability": "view",
					"type": "function"
				},
				{
					"inputs": [],
					"name": "renounceOwnership",
					"outputs": [],
					"stateMutability": "nonpayable",
					"type": "function"
				},
				{
					"inputs": [
						{
							"internalType": "address",
							"name": "newOwner",
							"type": "address"
						}
					],
					"name": "transferOwnership",
					"outputs": [],
					"stateMutability": "nonpayable",
					"type": "function"
				}
			],
			"devdoc": {
				"errors": {
					"OwnableInvalidOwner(address)": [
						{
							"details": "The owner is not a valid owner account. (eg. `address(0)`)"
						}
					],
					"OwnableUnauthorizedAccount(address)": [
						{
							"details": "The caller account is not authorized to perform an operation."
						}
					]
				},
				"kind": "dev",
				"methods": {
					"owner()": {
						"details": "Returns the address of the current owner."
					},
					"renounceOwnership()": {
						"details": "Leaves the contract without owner. It will not be possible to call `onlyOwner` functions. Can only be called by the current owner. NOTE: Renouncing ownership will leave the contract without an owner, thereby disabling any functionality that is only available to the owner."
					},
					"transferOwnership(address)": {
						"details": "Transfers ownership of the contract to a new account (`newOwner`). Can only be called by the current owner."
					}
				},
				"version": 1
			},
			"evm": {
				"assembly": "    /* \"JudgeReg.sol\":120:1332  contract JudgeReg is Ownable {... */\n  mstore(0x40, 0x80)\n    /* \"JudgeReg.sol\":223:259  constructor() Ownable(msg.sender) {} */\n  callvalue\n  dup1\n  iszero\n  tag_1\n  jumpi\n  revert(0x00, 0x00)\ntag_1:\n  pop\n    /* \"JudgeReg.sol\":245:255  msg.sender */\n  caller\n    /* \"@openzeppelin/contracts/access/Ownable.sol\":1297:1298  0 */\n  0x00\n    /* \"@openzeppelin/contracts/access/Ownable.sol\":1273:1299  initialOwner == address(0) */\n  0xffffffffffffffffffffffffffffffffffffffff\n  and\n    /* \"@openzeppelin/contracts/access/Ownable.sol\":1273:1285  initialOwner */\n  dup2\n    /* \"@openzeppelin/contracts/access/Ownable.sol\":1273:1299  initialOwner == address(0) */\n  0xffffffffffffffffffffffffffffffffffffffff\n  and\n  sub\n    /* \"@openzeppelin/contracts/access/Ownable.sol\":1269:1364  if (initialOwner == address(0)) {... */\n  tag_5\n  jumpi\n    /* \"@openzeppelin/contracts/access/Ownable.sol\":1350:1351  0 */\n  0x00\n    /* \"@openzeppelin/contracts/access/Ownable.sol\":1322:1353  OwnableInvalidOwner(address(0)) */\n  mload(0x40)\n  0x1e4fbdf700000000000000000000000000000000000000000000000000000000\n  dup2\n  mstore\n  0x04\n  add\n  tag_6\n  swap2\n  swap1\n  tag_7\n  jump\t// in\ntag_6:\n  mload(0x40)\n  dup1\n  swap2\n  sub\n  swap1\n  revert\n    /* \"@openzeppelin/contracts/access/Ownable.sol\":1269:1364  if (initialOwner == address(0)) {... */\ntag_5:\n    /* \"@openzeppelin/contracts/access/Ownable.sol\":1373:1405  _transferOwnership(initialOwner) */\n  tag_8\n    /* \"@openzeppelin/contracts/access/Ownable.sol\":1392:1404  initialOwner */\n  dup2\n    /* \"@openzeppelin/contracts/access/Ownable.sol\":1373:1391  _transferOwnership */\n  shl(0x20, tag_9)\n    /* \"@openzeppelin/contracts/access/Ownable.sol\":1373:1405  _transferOwnership(initialOwner) */\n  0x20\n  shr\n  jump\t// in\ntag_8:\n    /* \"@openzeppelin/contracts/access/Ownable.sol\":1225:1412  constructor(address initialOwner) {... */\n  pop\n    /* \"JudgeReg.sol\":120:1332  contract JudgeReg is Ownable {... */\n  jump(tag_11)\n    /* \"@openzeppelin/contracts/access/Ownable.sol\":2912:3099  function _transferOwnership(address newOwner) internal virtual {... */\ntag_9:\n    /* \"@openzeppelin/contracts/access/Ownable.sol\":2985:3001  address oldOwner */\n  0x00\n    /* \"@openzeppelin/contracts/access/Ownable.sol\":3004:3010  _owner */\n  0x00\n  0x00\n  swap1\n  sload\n  swap1\n  0x0100\n  exp\n  swap1\n  div\n  0xffffffffffffffffffffffffffffffffffffffff\n  and\n    /* \"@openzeppelin/contracts/access/Ownable.sol\":2985:3010  address oldOwner = _owner */\n  swap1\n  pop\n    /* \"@openzeppelin/contracts/access/Ownable.sol\":3029:3037  newOwner */\n  dup2\n    /* \"@openzeppelin/contracts/access/Ownable.sol\":3020:3026  _owner */\n  0x00\n  0x00\n    /* \"@openzeppelin/contracts/access/Ownable.sol\":3020:3037  _owner = newOwner */\n  0x0100\n  exp\n  dup2\n  sload\n  dup2\n  0xffffffffffffffffffffffffffffffffffffffff\n  mul\n  not\n  and\n  swap1\n  dup4\n  0xffffffffffffffffffffffffffffffffffffffff\n  and\n  mul\n  or\n  swap1\n  sstore\n  pop\n    /* \"@openzeppelin/contracts/access/Ownable.sol\":3083:3091  newOwner */\n  dup2\n    /* \"@openzeppelin/contracts/access/Ownable.sol\":3052:3092  OwnershipTransferred(oldOwner, newOwner) */\n  0xffffffffffffffffffffffffffffffffffffffff\n  and\n    /* \"@openzeppelin/contracts/access/Ownable.sol\":3073:3081  oldOwner */\n  dup2\n    /* \"@openzeppelin/contracts/access/Ownable.sol\":3052:3092  OwnershipTransferred(oldOwner, newOwner) */\n  0xffffffffffffffffffffffffffffffffffffffff\n  and\n  0x8be0079c531659141344cd1fd0a4f28419497f9722a3daafe3b4186f6b6457e0\n  mload(0x40)\n  mload(0x40)\n  dup1\n  swap2\n  sub\n  swap1\n  log3\n    /* \"@openzeppelin/contracts/access/Ownable.sol\":2975:3099  {... */\n  pop\n    /* \"@openzeppelin/contracts/access/Ownable.sol\":2912:3099  function _transferOwnership(address newOwner) internal virtual {... */\n  pop\n  jump\t// out\n    /* \"#utility.yul\":7:133   */\ntag_13:\n    /* \"#utility.yul\":44:51   */\n  0x00\n    /* \"#utility.yul\":84:126   */\n  0xffffffffffffffffffffffffffffffffffffffff\n    /* \"#utility.yul\":77:82   */\n  dup3\n    /* \"#utility.yul\":73:127   */\n  and\n    /* \"#utility.yul\":62:127   */\n  swap1\n  pop\n    /* \"#utility.yul\":7:133   */\n  swap2\n  swap1\n  pop\n  jump\t// out\n    /* \"#utility.yul\":139:235   */\ntag_14:\n    /* \"#utility.yul\":176:183   */\n  0x00\n    /* \"#utility.yul\":205:229   */\n  tag_19\n    /* \"#utility.yul\":223:228   */\n  dup3\n    /* \"#utility.yul\":205:229   */\n  tag_13\n  jump\t// in\ntag_19:\n    /* \"#utility.yul\":194:229   */\n  swap1\n  pop\n    /* \"#utility.yul\":139:235   */\n  swap2\n  swap1\n  pop\n  jump\t// out\n    /* \"#utility.yul\":241:359   */\ntag_15:\n    /* \"#utility.yul\":328:352   */\n  tag_21\n    /* \"#utility.yul\":346:351   */\n  dup2\n    /* \"#utility.yul\":328:352   */\n  tag_14\n  jump\t// in\ntag_21:\n    /* \"#utility.yul\":323:326   */\n  dup3\n    /* \"#utility.yul\":316:353   */\n  mstore\n    /* \"#utility.yul\":241:359   */\n  pop\n  pop\n  jump\t// out\n    /* \"#utility.yul\":365:587   */\ntag_7:\n    /* \"#utility.yul\":458:462   */\n  0x00\n    /* \"#utility.yul\":496:498   */\n  0x20\n    /* \"#utility.yul\":485:494   */\n  dup3\n    /* \"#utility.yul\":481:499   */\n  add\n    /* \"#utility.yul\":473:499   */\n  swap1\n  pop\n    /* \"#utility.yul\":509:580   */\n  tag_23\n    /* \"#utility.yul\":577:578   */\n  0x00\n    /* \"#utility.yul\":566:575   */\n  dup4\n    /* \"#utility.yul\":562:579   */\n  add\n    /* \"#utility.yul\":553:559   */\n  dup5\n    /* \"#utility.yul\":509:580   */\n  tag_15\n  jump\t// in\ntag_23:\n    /* \"#utility.yul\":365:587   */\n  swap3\n  swap2\n  pop\n  pop\n  jump\t// out\n    /* \"JudgeReg.sol\":120:1332  contract JudgeReg is Ownable {... */\ntag_11:\n  dataSize(sub_0)\n  dup1\n  dataOffset(sub_0)\n  0x00\n  codecopy\n  0x00\n  return\nstop\n\nsub_0: assembly {\n        /* \"JudgeReg.sol\":120:1332  contract JudgeReg is Ownable {... */\n      mstore(0x40, 0x80)\n      callvalue\n      dup1\n      iszero\n      tag_1\n      jumpi\n      revert(0x00, 0x00)\n    tag_1:\n      pop\n      jumpi(tag_2, lt(calldatasize, 0x04))\n      shr(0xe0, calldataload(0x00))\n      dup1\n      0x0d292732\n      eq\n      tag_3\n      jumpi\n      dup1\n      0x5f6fdddf\n      eq\n      tag_4\n      jumpi\n      dup1\n      0x715018a6\n      eq\n      tag_5\n      jumpi\n      dup1\n      0x8da5cb5b\n      eq\n      tag_6\n      jumpi\n      dup1\n      0xb06b0368\n      eq\n      tag_7\n      jumpi\n      dup1\n      0xf2fde38b\n      eq\n      tag_8\n      jumpi\n    tag_2:\n      revert(0x00, 0x00)\n        /* \"JudgeReg.sol\":738:783  mapping (uint => address) public judgeToOwner */\n    tag_3:\n      tag_9\n      0x04\n      dup1\n      calldatasize\n      sub\n      dup2\n      add\n      swap1\n      tag_10\n      swap2\n      swap1\n      tag_11\n      jump\t// in\n    tag_10:\n      tag_12\n      jump\t// in\n    tag_9:\n      mload(0x40)\n      tag_13\n      swap2\n      swap1\n      tag_14\n      jump\t// in\n    tag_13:\n      mload(0x40)\n      dup1\n      swap2\n      sub\n      swap1\n      return\n        /* \"JudgeReg.sol\":1107:1329  function _registerJudge(string memory _name) public  {... */\n    tag_4:\n      tag_15\n      0x04\n      dup1\n      calldatasize\n      sub\n      dup2\n      add\n      swap1\n      tag_16\n      swap2\n      swap1\n      tag_17\n      jump\t// in\n    tag_16:\n      tag_18\n      jump\t// in\n    tag_15:\n      stop\n        /* \"@openzeppelin/contracts/access/Ownable.sol\":2293:2394  function renounceOwnership() public virtual onlyOwner {... */\n    tag_5:\n      tag_19\n      tag_20\n      jump\t// in\n    tag_19:\n      stop\n        /* \"@openzeppelin/contracts/access/Ownable.sol\":1638:1723  function owner() public view virtual returns (address) {... */\n    tag_6:\n      tag_21\n      tag_22\n      jump\t// in\n    tag_21:\n      mload(0x40)\n      tag_23\n      swap2\n      swap1\n      tag_14\n      jump\t// in\n    tag_23:\n      mload(0x40)\n      dup1\n      swap2\n      sub\n      swap1\n      return\n        /* \"JudgeReg.sol\":644:665  Judge[] public judges */\n    tag_7:\n      tag_24\n      0x04\n      dup1\n      calldatasize\n      sub\n      dup2\n      add\n      swap1\n      tag_25\n      swap2\n      swap1\n      tag_11\n      jump\t// in\n    tag_25:\n      tag_26\n      jump\t// in\n    tag_24:\n      mload(0x40)\n      tag_27\n      swap5\n      swap4\n      swap3\n      swap2\n      swap1\n      tag_28\n      jump\t// in\n    tag_27:\n      mload(0x40)\n      dup1\n      swap2\n      sub\n      swap1\n      return\n        /* \"@openzeppelin/contracts/access/Ownable.sol\":2543:2758  function transferOwnership(address newOwner) public virtual onlyOwner {... */\n    tag_8:\n      tag_29\n      0x04\n      dup1\n      calldatasize\n      sub\n      dup2\n      add\n      swap1\n      tag_30\n      swap2\n      swap1\n      tag_31\n      jump\t// in\n    tag_30:\n      tag_32\n      jump\t// in\n    tag_29:\n      stop\n        /* \"JudgeReg.sol\":738:783  mapping (uint => address) public judgeToOwner */\n    tag_12:\n      mstore(0x20, 0x02)\n      dup1\n      0x00\n      mstore\n      keccak256(0x00, 0x40)\n      0x00\n      swap2\n      pop\n      sload\n      swap1\n      0x0100\n      exp\n      swap1\n      div\n      0xffffffffffffffffffffffffffffffffffffffff\n      and\n      dup2\n      jump\t// out\n        /* \"JudgeReg.sol\":1107:1329  function _registerJudge(string memory _name) public  {... */\n    tag_18:\n        /* \"JudgeReg.sol\":1171:1177  judges */\n      0x01\n        /* \"JudgeReg.sol\":1183:1204  Judge(_name, 1, 0, 0) */\n      mload(0x40)\n      dup1\n      0x80\n      add\n      0x40\n      mstore\n      dup1\n        /* \"JudgeReg.sol\":1189:1194  _name */\n      dup4\n        /* \"JudgeReg.sol\":1183:1204  Judge(_name, 1, 0, 0) */\n      dup2\n      mstore\n      0x20\n      add\n        /* \"JudgeReg.sol\":1196:1197  1 */\n      0x01\n        /* \"JudgeReg.sol\":1183:1204  Judge(_name, 1, 0, 0) */\n      0xffff\n      and\n      dup2\n      mstore\n      0x20\n      add\n        /* \"JudgeReg.sol\":1199:1200  0 */\n      0x00\n        /* \"JudgeReg.sol\":1183:1204  Judge(_name, 1, 0, 0) */\n      0xffffffff\n      and\n      dup2\n      mstore\n      0x20\n      add\n        /* \"JudgeReg.sol\":1202:1203  0 */\n      0x00\n        /* \"JudgeReg.sol\":1183:1204  Judge(_name, 1, 0, 0) */\n      0xffff\n      and\n      dup2\n      mstore\n      pop\n        /* \"JudgeReg.sol\":1171:1205  judges.push(Judge(_name, 1, 0, 0)) */\n      swap1\n      dup1\n      0x01\n      dup2\n      sload\n      add\n      dup1\n      dup3\n      sstore\n      dup1\n      swap2\n      pop\n      pop\n      0x01\n      swap1\n      sub\n      swap1\n      0x00\n      mstore\n      keccak256(0x00, 0x20)\n      swap1\n      0x02\n      mul\n      add\n      0x00\n      swap1\n      swap2\n      swap1\n      swap2\n      swap1\n      swap2\n      pop\n      0x00\n      dup3\n      add\n      mload\n      dup2\n      0x00\n      add\n      swap1\n      dup2\n      tag_35\n      swap2\n      swap1\n      tag_36\n      jump\t// in\n    tag_35:\n      pop\n      0x20\n      dup3\n      add\n      mload\n      dup2\n      0x01\n      add\n      exp(0x0100, 0x00)\n      dup2\n      sload\n      dup2\n      0xffff\n      mul\n      not\n      and\n      swap1\n      dup4\n      0xffff\n      and\n      mul\n      or\n      swap1\n      sstore\n      pop\n      0x40\n      dup3\n      add\n      mload\n      dup2\n      0x01\n      add\n      exp(0x0100, 0x02)\n      dup2\n      sload\n      dup2\n      0xffffffff\n      mul\n      not\n      and\n      swap1\n      dup4\n      0xffffffff\n      and\n      mul\n      or\n      swap1\n      sstore\n      pop\n      0x60\n      dup3\n      add\n      mload\n      dup2\n      0x01\n      add\n      exp(0x0100, 0x06)\n      dup2\n      sload\n      dup2\n      0xffff\n      mul\n      not\n      and\n      swap1\n      dup4\n      0xffff\n      and\n      mul\n      or\n      swap1\n      sstore\n      pop\n      pop\n      pop\n        /* \"JudgeReg.sol\":1216:1226  uint256 id */\n      0x00\n        /* \"JudgeReg.sol\":1245:1246  1 */\n      0x01\n        /* \"JudgeReg.sol\":1229:1235  judges */\n      dup1\n        /* \"JudgeReg.sol\":1229:1242  judges.length */\n      dup1\n      sload\n      swap1\n      pop\n        /* \"JudgeReg.sol\":1229:1246  judges.length - 1 */\n      tag_37\n      swap2\n      swap1\n      tag_38\n      jump\t// in\n    tag_37:\n        /* \"JudgeReg.sol\":1216:1246  uint256 id = judges.length - 1 */\n      swap1\n      pop\n        /* \"JudgeReg.sol\":1276:1286  msg.sender */\n      caller\n        /* \"JudgeReg.sol\":1257:1269  judgeToOwner */\n      0x02\n        /* \"JudgeReg.sol\":1257:1273  judgeToOwner[id] */\n      0x00\n        /* \"JudgeReg.sol\":1270:1272  id */\n      dup4\n        /* \"JudgeReg.sol\":1257:1273  judgeToOwner[id] */\n      dup2\n      mstore\n      0x20\n      add\n      swap1\n      dup2\n      mstore\n      0x20\n      add\n      0x00\n      keccak256\n      0x00\n        /* \"JudgeReg.sol\":1257:1286  judgeToOwner[id] = msg.sender */\n      0x0100\n      exp\n      dup2\n      sload\n      dup2\n      0xffffffffffffffffffffffffffffffffffffffff\n      mul\n      not\n      and\n      swap1\n      dup4\n      0xffffffffffffffffffffffffffffffffffffffff\n      and\n      mul\n      or\n      swap1\n      sstore\n      pop\n        /* \"JudgeReg.sol\":1302:1321  NewJudge(id, _name) */\n      0x41b82268d4cfcb7bde62bae060583c745a4821f267e1fe541b5f624e00d43c7d\n        /* \"JudgeReg.sol\":1311:1313  id */\n      dup2\n        /* \"JudgeReg.sol\":1315:1320  _name */\n      dup4\n        /* \"JudgeReg.sol\":1302:1321  NewJudge(id, _name) */\n      mload(0x40)\n      tag_39\n      swap3\n      swap2\n      swap1\n      tag_40\n      jump\t// in\n    tag_39:\n      mload(0x40)\n      dup1\n      swap2\n      sub\n      swap1\n      log1\n        /* \"JudgeReg.sol\":1160:1329  {... */\n      pop\n        /* \"JudgeReg.sol\":1107:1329  function _registerJudge(string memory _name) public  {... */\n      pop\n      jump\t// out\n        /* \"@openzeppelin/contracts/access/Ownable.sol\":2293:2394  function renounceOwnership() public virtual onlyOwner {... */\n    tag_20:\n        /* \"@openzeppelin/contracts/access/Ownable.sol\":1531:1544  _checkOwner() */\n      tag_42\n        /* \"@openzeppelin/contracts/access/Ownable.sol\":1531:1542  _checkOwner */\n      tag_43\n        /* \"@openzeppelin/contracts/access/Ownable.sol\":1531:1544  _checkOwner() */\n      jump\t// in\n    tag_42:\n        /* \"@openzeppelin/contracts/access/Ownable.sol\":2357:2387  _transferOwnership(address(0)) */\n      tag_45\n        /* \"@openzeppelin/contracts/access/Ownable.sol\":2384:2385  0 */\n      0x00\n        /* \"@openzeppelin/contracts/access/Ownable.sol\":2357:2375  _transferOwnership */\n      tag_46\n        /* \"@openzeppelin/contracts/access/Ownable.sol\":2357:2387  _transferOwnership(address(0)) */\n      jump\t// in\n    tag_45:\n        /* \"@openzeppelin/contracts/access/Ownable.sol\":2293:2394  function renounceOwnership() public virtual onlyOwner {... */\n      jump\t// out\n        /* \"@openzeppelin/contracts/access/Ownable.sol\":1638:1723  function owner() public view virtual returns (address) {... */\n    tag_22:\n        /* \"@openzeppelin/contracts/access/Ownable.sol\":1684:1691  address */\n      0x00\n        /* \"@openzeppelin/contracts/access/Ownable.sol\":1710:1716  _owner */\n      0x00\n      0x00\n      swap1\n      sload\n      swap1\n      0x0100\n      exp\n      swap1\n      div\n      0xffffffffffffffffffffffffffffffffffffffff\n      and\n        /* \"@openzeppelin/contracts/access/Ownable.sol\":1703:1716  return _owner */\n      swap1\n      pop\n        /* \"@openzeppelin/contracts/access/Ownable.sol\":1638:1723  function owner() public view virtual returns (address) {... */\n      swap1\n      jump\t// out\n        /* \"JudgeReg.sol\":644:665  Judge[] public judges */\n    tag_26:\n      0x01\n      dup2\n      dup2\n      sload\n      dup2\n      lt\n      tag_48\n      jumpi\n      0x00\n      dup1\n      revert\n    tag_48:\n      swap1\n      0x00\n      mstore\n      keccak256(0x00, 0x20)\n      swap1\n      0x02\n      mul\n      add\n      0x00\n      swap2\n      pop\n      swap1\n      pop\n      dup1\n      0x00\n      add\n      dup1\n      sload\n      tag_50\n      swap1\n      tag_51\n      jump\t// in\n    tag_50:\n      dup1\n      0x1f\n      add\n      0x20\n      dup1\n      swap2\n      div\n      mul\n      0x20\n      add\n      mload(0x40)\n      swap1\n      dup2\n      add\n      0x40\n      mstore\n      dup1\n      swap3\n      swap2\n      swap1\n      dup2\n      dup2\n      mstore\n      0x20\n      add\n      dup3\n      dup1\n      sload\n      tag_52\n      swap1\n      tag_51\n      jump\t// in\n    tag_52:\n      dup1\n      iszero\n      tag_53\n      jumpi\n      dup1\n      0x1f\n      lt\n      tag_54\n      jumpi\n      0x0100\n      dup1\n      dup4\n      sload\n      div\n      mul\n      dup4\n      mstore\n      swap2\n      0x20\n      add\n      swap2\n      jump(tag_53)\n    tag_54:\n      dup3\n      add\n      swap2\n      swap1\n      0x00\n      mstore\n      keccak256(0x00, 0x20)\n      swap1\n    tag_55:\n      dup2\n      sload\n      dup2\n      mstore\n      swap1\n      0x01\n      add\n      swap1\n      0x20\n      add\n      dup1\n      dup4\n      gt\n      tag_55\n      jumpi\n      dup3\n      swap1\n      sub\n      0x1f\n      and\n      dup3\n      add\n      swap2\n    tag_53:\n      pop\n      pop\n      pop\n      pop\n      pop\n      swap1\n      dup1\n      0x01\n      add\n      0x00\n      swap1\n      sload\n      swap1\n      0x0100\n      exp\n      swap1\n      div\n      0xffff\n      and\n      swap1\n      dup1\n      0x01\n      add\n      0x02\n      swap1\n      sload\n      swap1\n      0x0100\n      exp\n      swap1\n      div\n      0xffffffff\n      and\n      swap1\n      dup1\n      0x01\n      add\n      0x06\n      swap1\n      sload\n      swap1\n      0x0100\n      exp\n      swap1\n      div\n      0xffff\n      and\n      swap1\n      pop\n      dup5\n      jump\t// out\n        /* \"@openzeppelin/contracts/access/Ownable.sol\":2543:2758  function transferOwnership(address newOwner) public virtual onlyOwner {... */\n    tag_32:\n        /* \"@openzeppelin/contracts/access/Ownable.sol\":1531:1544  _checkOwner() */\n      tag_57\n        /* \"@openzeppelin/contracts/access/Ownable.sol\":1531:1542  _checkOwner */\n      tag_43\n        /* \"@openzeppelin/contracts/access/Ownable.sol\":1531:1544  _checkOwner() */\n      jump\t// in\n    tag_57:\n        /* \"@openzeppelin/contracts/access/Ownable.sol\":2647:2648  0 */\n      0x00\n        /* \"@openzeppelin/contracts/access/Ownable.sol\":2627:2649  newOwner == address(0) */\n      0xffffffffffffffffffffffffffffffffffffffff\n      and\n        /* \"@openzeppelin/contracts/access/Ownable.sol\":2627:2635  newOwner */\n      dup2\n        /* \"@openzeppelin/contracts/access/Ownable.sol\":2627:2649  newOwner == address(0) */\n      0xffffffffffffffffffffffffffffffffffffffff\n      and\n      sub\n        /* \"@openzeppelin/contracts/access/Ownable.sol\":2623:2714  if (newOwner == address(0)) {... */\n      tag_59\n      jumpi\n        /* \"@openzeppelin/contracts/access/Ownable.sol\":2700:2701  0 */\n      0x00\n        /* \"@openzeppelin/contracts/access/Ownable.sol\":2672:2703  OwnableInvalidOwner(address(0)) */\n      mload(0x40)\n      0x1e4fbdf700000000000000000000000000000000000000000000000000000000\n      dup2\n      mstore\n      0x04\n      add\n      tag_60\n      swap2\n      swap1\n      tag_14\n      jump\t// in\n    tag_60:\n      mload(0x40)\n      dup1\n      swap2\n      sub\n      swap1\n      revert\n        /* \"@openzeppelin/contracts/access/Ownable.sol\":2623:2714  if (newOwner == address(0)) {... */\n    tag_59:\n        /* \"@openzeppelin/contracts/access/Ownable.sol\":2723:2751  _transferOwnership(newOwner) */\n      tag_61\n        /* \"@openzeppelin/contracts/access/Ownable.sol\":2742:2750  newOwner */\n      dup2\n        /* \"@openzeppelin/contracts/access/Ownable.sol\":2723:2741  _transferOwnership */\n      tag_46\n        /* \"@openzeppelin/contracts/access/Ownable.sol\":2723:2751  _transferOwnership(newOwner) */\n      jump\t// in\n    tag_61:\n        /* \"@openzeppelin/contracts/access/Ownable.sol\":2543:2758  function transferOwnership(address newOwner) public virtual onlyOwner {... */\n      pop\n      jump\t// out\n        /* \"@openzeppelin/contracts/access/Ownable.sol\":1796:1958  function _checkOwner() internal view virtual {... */\n    tag_43:\n        /* \"@openzeppelin/contracts/access/Ownable.sol\":1866:1878  _msgSender() */\n      tag_63\n        /* \"@openzeppelin/contracts/access/Ownable.sol\":1866:1876  _msgSender */\n      tag_64\n        /* \"@openzeppelin/contracts/access/Ownable.sol\":1866:1878  _msgSender() */\n      jump\t// in\n    tag_63:\n        /* \"@openzeppelin/contracts/access/Ownable.sol\":1855:1878  owner() != _msgSender() */\n      0xffffffffffffffffffffffffffffffffffffffff\n      and\n        /* \"@openzeppelin/contracts/access/Ownable.sol\":1855:1862  owner() */\n      tag_65\n        /* \"@openzeppelin/contracts/access/Ownable.sol\":1855:1860  owner */\n      tag_22\n        /* \"@openzeppelin/contracts/access/Ownable.sol\":1855:1862  owner() */\n      jump\t// in\n    tag_65:\n        /* \"@openzeppelin/contracts/access/Ownable.sol\":1855:1878  owner() != _msgSender() */\n      0xffffffffffffffffffffffffffffffffffffffff\n      and\n      eq\n        /* \"@openzeppelin/contracts/access/Ownable.sol\":1851:1952  if (owner() != _msgSender()) {... */\n      tag_66\n      jumpi\n        /* \"@openzeppelin/contracts/access/Ownable.sol\":1928:1940  _msgSender() */\n      tag_67\n        /* \"@openzeppelin/contracts/access/Ownable.sol\":1928:1938  _msgSender */\n      tag_64\n        /* \"@openzeppelin/contracts/access/Ownable.sol\":1928:1940  _msgSender() */\n      jump\t// in\n    tag_67:\n        /* \"@openzeppelin/contracts/access/Ownable.sol\":1901:1941  OwnableUnauthorizedAccount(_msgSender()) */\n      mload(0x40)\n      0x118cdaa700000000000000000000000000000000000000000000000000000000\n      dup2\n      mstore\n      0x04\n      add\n      tag_68\n      swap2\n      swap1\n      tag_14\n      jump\t// in\n    tag_68:\n      mload(0x40)\n      dup1\n      swap2\n      sub\n      swap1\n      revert\n        /* \"@openzeppelin/contracts/access/Ownable.sol\":1851:1952  if (owner() != _msgSender()) {... */\n    tag_66:\n        /* \"@openzeppelin/contracts/access/Ownable.sol\":1796:1958  function _checkOwner() internal view virtual {... */\n      jump\t// out\n        /* \"@openzeppelin/contracts/access/Ownable.sol\":2912:3099  function _transferOwnership(address newOwner) internal virtual {... */\n    tag_46:\n        /* \"@openzeppelin/contracts/access/Ownable.sol\":2985:3001  address oldOwner */\n      0x00\n        /* \"@openzeppelin/contracts/access/Ownable.sol\":3004:3010  _owner */\n      0x00\n      0x00\n      swap1\n      sload\n      swap1\n      0x0100\n      exp\n      swap1\n      div\n      0xffffffffffffffffffffffffffffffffffffffff\n      and\n        /* \"@openzeppelin/contracts/access/Ownable.sol\":2985:3010  address oldOwner = _owner */\n      swap1\n      pop\n        /* \"@openzeppelin/contracts/access/Ownable.sol\":3029:3037  newOwner */\n      dup2\n        /* \"@openzeppelin/contracts/access/Ownable.sol\":3020:3026  _owner */\n      0x00\n      0x00\n        /* \"@openzeppelin/contracts/access/Ownable.sol\":3020:3037  _owner = newOwner */\n      0x0100\n      exp\n      dup2\n      sload\n      dup2\n      0xffffffffffffffffffffffffffffffffffffffff\n      mul\n      not\n      and\n      swap1\n      dup4\n      0xffffffffffffffffffffffffffffffffffffffff\n      and\n      mul\n      or\n      swap1\n      sstore\n      pop\n        /* \"@openzeppelin/contracts/access/Ownable.sol\":3083:3091  newOwner */\n      dup2\n        /* \"@openzeppelin/contracts/access/Ownable.sol\":3052:3092  OwnershipTransferred(oldOwner, newOwner) */\n      0xffffffffffffffffffffffffffffffffffffffff\n      and\n        /* \"@openzeppelin/contracts/access/Ownable.sol\":3073:3081  oldOwner */\n      dup2\n        /* \"@openzeppelin/contracts/access/Ownable.sol\":3052:3092  OwnershipTransferred(oldOwner, newOwner) */\n      0xffffffffffffffffffffffffffffffffffffffff\n      and\n      0x8be0079c531659141344cd1fd0a4f28419497f9722a3daafe3b4186f6b6457e0\n      mload(0x40)\n      mload(0x40)\n      dup1\n      swap2\n      sub\n      swap1\n      log3\n        /* \"@openzeppelin/contracts/access/Ownable.sol\":2975:3099  {... */\n      pop\n        /* \"@openzeppelin/contracts/access/Ownable.sol\":2912:3099  function _transferOwnership(address newOwner) internal virtual {... */\n      pop\n      jump\t// out\n        /* \"@openzeppelin/contracts/utils/Context.sol\":656:752  function _msgSender() internal view virtual returns (address) {... */\n    tag_64:\n        /* \"@openzeppelin/contracts/utils/Context.sol\":709:716  address */\n      0x00\n        /* \"@openzeppelin/contracts/utils/Context.sol\":735:745  msg.sender */\n      caller\n        /* \"@openzeppelin/contracts/utils/Context.sol\":728:745  return msg.sender */\n      swap1\n      pop\n        /* \"@openzeppelin/contracts/utils/Context.sol\":656:752  function _msgSender() internal view virtual returns (address) {... */\n      swap1\n      jump\t// out\n        /* \"#utility.yul\":7:82   */\n    tag_71:\n        /* \"#utility.yul\":40:46   */\n      0x00\n        /* \"#utility.yul\":73:75   */\n      0x40\n        /* \"#utility.yul\":67:76   */\n      mload\n        /* \"#utility.yul\":57:76   */\n      swap1\n      pop\n        /* \"#utility.yul\":7:82   */\n      swap1\n      jump\t// out\n        /* \"#utility.yul\":88:205   */\n    tag_72:\n        /* \"#utility.yul\":197:198   */\n      0x00\n        /* \"#utility.yul\":194:195   */\n      0x00\n        /* \"#utility.yul\":187:199   */\n      revert\n        /* \"#utility.yul\":211:328   */\n    tag_73:\n        /* \"#utility.yul\":320:321   */\n      0x00\n        /* \"#utility.yul\":317:318   */\n      0x00\n        /* \"#utility.yul\":310:322   */\n      revert\n        /* \"#utility.yul\":334:411   */\n    tag_74:\n        /* \"#utility.yul\":371:378   */\n      0x00\n        /* \"#utility.yul\":400:405   */\n      dup2\n        /* \"#utility.yul\":389:405   */\n      swap1\n      pop\n        /* \"#utility.yul\":334:411   */\n      swap2\n      swap1\n      pop\n      jump\t// out\n        /* \"#utility.yul\":417:539   */\n    tag_75:\n        /* \"#utility.yul\":490:514   */\n      tag_124\n        /* \"#utility.yul\":508:513   */\n      dup2\n        /* \"#utility.yul\":490:514   */\n      tag_74\n      jump\t// in\n    tag_124:\n        /* \"#utility.yul\":483:488   */\n      dup2\n        /* \"#utility.yul\":480:515   */\n      eq\n        /* \"#utility.yul\":470:533   */\n      tag_125\n      jumpi\n        /* \"#utility.yul\":529:530   */\n      0x00\n        /* \"#utility.yul\":526:527   */\n      0x00\n        /* \"#utility.yul\":519:531   */\n      revert\n        /* \"#utility.yul\":470:533   */\n    tag_125:\n        /* \"#utility.yul\":417:539   */\n      pop\n      jump\t// out\n        /* \"#utility.yul\":545:684   */\n    tag_76:\n        /* \"#utility.yul\":591:596   */\n      0x00\n        /* \"#utility.yul\":629:635   */\n      dup2\n        /* \"#utility.yul\":616:636   */\n      calldataload\n        /* \"#utility.yul\":607:636   */\n      swap1\n      pop\n        /* \"#utility.yul\":645:678   */\n      tag_127\n        /* \"#utility.yul\":672:677   */\n      dup2\n        /* \"#utility.yul\":645:678   */\n      tag_75\n      jump\t// in\n    tag_127:\n        /* \"#utility.yul\":545:684   */\n      swap3\n      swap2\n      pop\n      pop\n      jump\t// out\n        /* \"#utility.yul\":690:1019   */\n    tag_11:\n        /* \"#utility.yul\":749:755   */\n      0x00\n        /* \"#utility.yul\":798:800   */\n      0x20\n        /* \"#utility.yul\":786:795   */\n      dup3\n        /* \"#utility.yul\":777:784   */\n      dup5\n        /* \"#utility.yul\":773:796   */\n      sub\n        /* \"#utility.yul\":769:801   */\n      slt\n        /* \"#utility.yul\":766:885   */\n      iszero\n      tag_129\n      jumpi\n        /* \"#utility.yul\":804:883   */\n      tag_130\n      tag_72\n      jump\t// in\n    tag_130:\n        /* \"#utility.yul\":766:885   */\n    tag_129:\n        /* \"#utility.yul\":924:925   */\n      0x00\n        /* \"#utility.yul\":949:1002   */\n      tag_131\n        /* \"#utility.yul\":994:1001   */\n      dup5\n        /* \"#utility.yul\":985:991   */\n      dup3\n        /* \"#utility.yul\":974:983   */\n      dup6\n        /* \"#utility.yul\":970:992   */\n      add\n        /* \"#utility.yul\":949:1002   */\n      tag_76\n      jump\t// in\n    tag_131:\n        /* \"#utility.yul\":939:1002   */\n      swap2\n      pop\n        /* \"#utility.yul\":895:1012   */\n      pop\n        /* \"#utility.yul\":690:1019   */\n      swap3\n      swap2\n      pop\n      pop\n      jump\t// out\n        /* \"#utility.yul\":1025:1151   */\n    tag_77:\n        /* \"#utility.yul\":1062:1069   */\n      0x00\n        /* \"#utility.yul\":1102:1144   */\n      0xffffffffffffffffffffffffffffffffffffffff\n        /* \"#utility.yul\":1095:1100   */\n      dup3\n        /* \"#utility.yul\":1091:1145   */\n      and\n        /* \"#utility.yul\":1080:1145   */\n      swap1\n      pop\n        /* \"#utility.yul\":1025:1151   */\n      swap2\n      swap1\n      pop\n      jump\t// out\n        /* \"#utility.yul\":1157:1253   */\n    tag_78:\n        /* \"#utility.yul\":1194:1201   */\n      0x00\n        /* \"#utility.yul\":1223:1247   */\n      tag_134\n        /* \"#utility.yul\":1241:1246   */\n      dup3\n        /* \"#utility.yul\":1223:1247   */\n      tag_77\n      jump\t// in\n    tag_134:\n        /* \"#utility.yul\":1212:1247   */\n      swap1\n      pop\n        /* \"#utility.yul\":1157:1253   */\n      swap2\n      swap1\n      pop\n      jump\t// out\n        /* \"#utility.yul\":1259:1377   */\n    tag_79:\n        /* \"#utility.yul\":1346:1370   */\n      tag_136\n        /* \"#utility.yul\":1364:1369   */\n      dup2\n        /* \"#utility.yul\":1346:1370   */\n      tag_78\n      jump\t// in\n    tag_136:\n        /* \"#utility.yul\":1341:1344   */\n      dup3\n        /* \"#utility.yul\":1334:1371   */\n      mstore\n        /* \"#utility.yul\":1259:1377   */\n      pop\n      pop\n      jump\t// out\n        /* \"#utility.yul\":1383:1605   */\n    tag_14:\n        /* \"#utility.yul\":1476:1480   */\n      0x00\n        /* \"#utility.yul\":1514:1516   */\n      0x20\n        /* \"#utility.yul\":1503:1512   */\n      dup3\n        /* \"#utility.yul\":1499:1517   */\n      add\n        /* \"#utility.yul\":1491:1517   */\n      swap1\n      pop\n        /* \"#utility.yul\":1527:1598   */\n      tag_138\n        /* \"#utility.yul\":1595:1596   */\n      0x00\n        /* \"#utility.yul\":1584:1593   */\n      dup4\n        /* \"#utility.yul\":1580:1597   */\n      add\n        /* \"#utility.yul\":1571:1577   */\n      dup5\n        /* \"#utility.yul\":1527:1598   */\n      tag_79\n      jump\t// in\n    tag_138:\n        /* \"#utility.yul\":1383:1605   */\n      swap3\n      swap2\n      pop\n      pop\n      jump\t// out\n        /* \"#utility.yul\":1611:1728   */\n    tag_80:\n        /* \"#utility.yul\":1720:1721   */\n      0x00\n        /* \"#utility.yul\":1717:1718   */\n      0x00\n        /* \"#utility.yul\":1710:1722   */\n      revert\n        /* \"#utility.yul\":1734:1851   */\n    tag_81:\n        /* \"#utility.yul\":1843:1844   */\n      0x00\n        /* \"#utility.yul\":1840:1841   */\n      0x00\n        /* \"#utility.yul\":1833:1845   */\n      revert\n        /* \"#utility.yul\":1857:1959   */\n    tag_82:\n        /* \"#utility.yul\":1898:1904   */\n      0x00\n        /* \"#utility.yul\":1949:1951   */\n      0x1f\n        /* \"#utility.yul\":1945:1952   */\n      not\n        /* \"#utility.yul\":1940:1942   */\n      0x1f\n        /* \"#utility.yul\":1933:1938   */\n      dup4\n        /* \"#utility.yul\":1929:1943   */\n      add\n        /* \"#utility.yul\":1925:1953   */\n      and\n        /* \"#utility.yul\":1915:1953   */\n      swap1\n      pop\n        /* \"#utility.yul\":1857:1959   */\n      swap2\n      swap1\n      pop\n      jump\t// out\n        /* \"#utility.yul\":1965:2145   */\n    tag_83:\n        /* \"#utility.yul\":2013:2090   */\n      0x4e487b7100000000000000000000000000000000000000000000000000000000\n        /* \"#utility.yul\":2010:2011   */\n      0x00\n        /* \"#utility.yul\":2003:2091   */\n      mstore\n        /* \"#utility.yul\":2110:2114   */\n      0x41\n        /* \"#utility.yul\":2107:2108   */\n      0x04\n        /* \"#utility.yul\":2100:2115   */\n      mstore\n        /* \"#utility.yul\":2134:2138   */\n      0x24\n        /* \"#utility.yul\":2131:2132   */\n      0x00\n        /* \"#utility.yul\":2124:2139   */\n      revert\n        /* \"#utility.yul\":2151:2432   */\n    tag_84:\n        /* \"#utility.yul\":2234:2261   */\n      tag_144\n        /* \"#utility.yul\":2256:2260   */\n      dup3\n        /* \"#utility.yul\":2234:2261   */\n      tag_82\n      jump\t// in\n    tag_144:\n        /* \"#utility.yul\":2226:2232   */\n      dup2\n        /* \"#utility.yul\":2222:2262   */\n      add\n        /* \"#utility.yul\":2364:2370   */\n      dup2\n        /* \"#utility.yul\":2352:2362   */\n      dup2\n        /* \"#utility.yul\":2349:2371   */\n      lt\n        /* \"#utility.yul\":2328:2346   */\n      0xffffffffffffffff\n        /* \"#utility.yul\":2316:2326   */\n      dup3\n        /* \"#utility.yul\":2313:2347   */\n      gt\n        /* \"#utility.yul\":2310:2372   */\n      or\n        /* \"#utility.yul\":2307:2395   */\n      iszero\n      tag_145\n      jumpi\n        /* \"#utility.yul\":2375:2393   */\n      tag_146\n      tag_83\n      jump\t// in\n    tag_146:\n        /* \"#utility.yul\":2307:2395   */\n    tag_145:\n        /* \"#utility.yul\":2415:2425   */\n      dup1\n        /* \"#utility.yul\":2411:2413   */\n      0x40\n        /* \"#utility.yul\":2404:2426   */\n      mstore\n        /* \"#utility.yul\":2194:2432   */\n      pop\n        /* \"#utility.yul\":2151:2432   */\n      pop\n      pop\n      jump\t// out\n        /* \"#utility.yul\":2438:2567   */\n    tag_85:\n        /* \"#utility.yul\":2472:2478   */\n      0x00\n        /* \"#utility.yul\":2499:2519   */\n      tag_148\n      tag_71\n      jump\t// in\n    tag_148:\n        /* \"#utility.yul\":2489:2519   */\n      swap1\n      pop\n        /* \"#utility.yul\":2528:2561   */\n      tag_149\n        /* \"#utility.yul\":2556:2560   */\n      dup3\n        /* \"#utility.yul\":2548:2554   */\n      dup3\n        /* \"#utility.yul\":2528:2561   */\n      tag_84\n      jump\t// in\n    tag_149:\n        /* \"#utility.yul\":2438:2567   */\n      swap2\n      swap1\n      pop\n      jump\t// out\n        /* \"#utility.yul\":2573:2881   */\n    tag_86:\n        /* \"#utility.yul\":2635:2639   */\n      0x00\n        /* \"#utility.yul\":2725:2743   */\n      0xffffffffffffffff\n        /* \"#utility.yul\":2717:2723   */\n      dup3\n        /* \"#utility.yul\":2714:2744   */\n      gt\n        /* \"#utility.yul\":2711:2767   */\n      iszero\n      tag_151\n      jumpi\n        /* \"#utility.yul\":2747:2765   */\n      tag_152\n      tag_83\n      jump\t// in\n    tag_152:\n        /* \"#utility.yul\":2711:2767   */\n    tag_151:\n        /* \"#utility.yul\":2785:2814   */\n      tag_153\n        /* \"#utility.yul\":2807:2813   */\n      dup3\n        /* \"#utility.yul\":2785:2814   */\n      tag_82\n      jump\t// in\n    tag_153:\n        /* \"#utility.yul\":2777:2814   */\n      swap1\n      pop\n        /* \"#utility.yul\":2869:2873   */\n      0x20\n        /* \"#utility.yul\":2863:2867   */\n      dup2\n        /* \"#utility.yul\":2859:2874   */\n      add\n        /* \"#utility.yul\":2851:2874   */\n      swap1\n      pop\n        /* \"#utility.yul\":2573:2881   */\n      swap2\n      swap1\n      pop\n      jump\t// out\n        /* \"#utility.yul\":2887:3035   */\n    tag_87:\n        /* \"#utility.yul\":2985:2991   */\n      dup3\n        /* \"#utility.yul\":2980:2983   */\n      dup2\n        /* \"#utility.yul\":2975:2978   */\n      dup4\n        /* \"#utility.yul\":2962:2992   */\n      calldatacopy\n        /* \"#utility.yul\":3026:3027   */\n      0x00\n        /* \"#utility.yul\":3017:3023   */\n      dup4\n        /* \"#utility.yul\":3012:3015   */\n      dup4\n        /* \"#utility.yul\":3008:3024   */\n      add\n        /* \"#utility.yul\":3001:3028   */\n      mstore\n        /* \"#utility.yul\":2887:3035   */\n      pop\n      pop\n      pop\n      jump\t// out\n        /* \"#utility.yul\":3041:3466   */\n    tag_88:\n        /* \"#utility.yul\":3119:3124   */\n      0x00\n        /* \"#utility.yul\":3144:3210   */\n      tag_156\n        /* \"#utility.yul\":3160:3209   */\n      tag_157\n        /* \"#utility.yul\":3202:3208   */\n      dup5\n        /* \"#utility.yul\":3160:3209   */\n      tag_86\n      jump\t// in\n    tag_157:\n        /* \"#utility.yul\":3144:3210   */\n      tag_85\n      jump\t// in\n    tag_156:\n        /* \"#utility.yul\":3135:3210   */\n      swap1\n      pop\n        /* \"#utility.yul\":3233:3239   */\n      dup3\n        /* \"#utility.yul\":3226:3231   */\n      dup2\n        /* \"#utility.yul\":3219:3240   */\n      mstore\n        /* \"#utility.yul\":3271:3275   */\n      0x20\n        /* \"#utility.yul\":3264:3269   */\n      dup2\n        /* \"#utility.yul\":3260:3276   */\n      add\n        /* \"#utility.yul\":3309:3312   */\n      dup5\n        /* \"#utility.yul\":3300:3306   */\n      dup5\n        /* \"#utility.yul\":3295:3298   */\n      dup5\n        /* \"#utility.yul\":3291:3307   */\n      add\n        /* \"#utility.yul\":3288:3313   */\n      gt\n        /* \"#utility.yul\":3285:3397   */\n      iszero\n      tag_158\n      jumpi\n        /* \"#utility.yul\":3316:3395   */\n      tag_159\n      tag_81\n      jump\t// in\n    tag_159:\n        /* \"#utility.yul\":3285:3397   */\n    tag_158:\n        /* \"#utility.yul\":3406:3460   */\n      tag_160\n        /* \"#utility.yul\":3453:3459   */\n      dup5\n        /* \"#utility.yul\":3448:3451   */\n      dup3\n        /* \"#utility.yul\":3443:3446   */\n      dup6\n        /* \"#utility.yul\":3406:3460   */\n      tag_87\n      jump\t// in\n    tag_160:\n        /* \"#utility.yul\":3125:3466   */\n      pop\n        /* \"#utility.yul\":3041:3466   */\n      swap4\n      swap3\n      pop\n      pop\n      pop\n      jump\t// out\n        /* \"#utility.yul\":3486:3826   */\n    tag_89:\n        /* \"#utility.yul\":3542:3547   */\n      0x00\n        /* \"#utility.yul\":3591:3594   */\n      dup3\n        /* \"#utility.yul\":3584:3588   */\n      0x1f\n        /* \"#utility.yul\":3576:3582   */\n      dup4\n        /* \"#utility.yul\":3572:3589   */\n      add\n        /* \"#utility.yul\":3568:3595   */\n      slt\n        /* \"#utility.yul\":3558:3680   */\n      tag_162\n      jumpi\n        /* \"#utility.yul\":3599:3678   */\n      tag_163\n      tag_80\n      jump\t// in\n    tag_163:\n        /* \"#utility.yul\":3558:3680   */\n    tag_162:\n        /* \"#utility.yul\":3716:3722   */\n      dup2\n        /* \"#utility.yul\":3703:3723   */\n      calldataload\n        /* \"#utility.yul\":3741:3820   */\n      tag_164\n        /* \"#utility.yul\":3816:3819   */\n      dup5\n        /* \"#utility.yul\":3808:3814   */\n      dup3\n        /* \"#utility.yul\":3801:3805   */\n      0x20\n        /* \"#utility.yul\":3793:3799   */\n      dup7\n        /* \"#utility.yul\":3789:3806   */\n      add\n        /* \"#utility.yul\":3741:3820   */\n      tag_88\n      jump\t// in\n    tag_164:\n        /* \"#utility.yul\":3732:3820   */\n      swap2\n      pop\n        /* \"#utility.yul\":3548:3826   */\n      pop\n        /* \"#utility.yul\":3486:3826   */\n      swap3\n      swap2\n      pop\n      pop\n      jump\t// out\n        /* \"#utility.yul\":3832:4341   */\n    tag_17:\n        /* \"#utility.yul\":3901:3907   */\n      0x00\n        /* \"#utility.yul\":3950:3952   */\n      0x20\n        /* \"#utility.yul\":3938:3947   */\n      dup3\n        /* \"#utility.yul\":3929:3936   */\n      dup5\n        /* \"#utility.yul\":3925:3948   */\n      sub\n        /* \"#utility.yul\":3921:3953   */\n      slt\n        /* \"#utility.yul\":3918:4037   */\n      iszero\n      tag_166\n      jumpi\n        /* \"#utility.yul\":3956:4035   */\n      tag_167\n      tag_72\n      jump\t// in\n    tag_167:\n        /* \"#utility.yul\":3918:4037   */\n    tag_166:\n        /* \"#utility.yul\":4104:4105   */\n      0x00\n        /* \"#utility.yul\":4093:4102   */\n      dup3\n        /* \"#utility.yul\":4089:4106   */\n      add\n        /* \"#utility.yul\":4076:4107   */\n      calldataload\n        /* \"#utility.yul\":4134:4152   */\n      0xffffffffffffffff\n        /* \"#utility.yul\":4126:4132   */\n      dup2\n        /* \"#utility.yul\":4123:4153   */\n      gt\n        /* \"#utility.yul\":4120:4237   */\n      iszero\n      tag_168\n      jumpi\n        /* \"#utility.yul\":4156:4235   */\n      tag_169\n      tag_73\n      jump\t// in\n    tag_169:\n        /* \"#utility.yul\":4120:4237   */\n    tag_168:\n        /* \"#utility.yul\":4261:4324   */\n      tag_170\n        /* \"#utility.yul\":4316:4323   */\n      dup5\n        /* \"#utility.yul\":4307:4313   */\n      dup3\n        /* \"#utility.yul\":4296:4305   */\n      dup6\n        /* \"#utility.yul\":4292:4314   */\n      add\n        /* \"#utility.yul\":4261:4324   */\n      tag_89\n      jump\t// in\n    tag_170:\n        /* \"#utility.yul\":4251:4324   */\n      swap2\n      pop\n        /* \"#utility.yul\":4047:4334   */\n      pop\n        /* \"#utility.yul\":3832:4341   */\n      swap3\n      swap2\n      pop\n      pop\n      jump\t// out\n        /* \"#utility.yul\":4347:4446   */\n    tag_90:\n        /* \"#utility.yul\":4399:4405   */\n      0x00\n        /* \"#utility.yul\":4433:4438   */\n      dup2\n        /* \"#utility.yul\":4427:4439   */\n      mload\n        /* \"#utility.yul\":4417:4439   */\n      swap1\n      pop\n        /* \"#utility.yul\":4347:4446   */\n      swap2\n      swap1\n      pop\n      jump\t// out\n        /* \"#utility.yul\":4452:4621   */\n    tag_91:\n        /* \"#utility.yul\":4536:4547   */\n      0x00\n        /* \"#utility.yul\":4570:4576   */\n      dup3\n        /* \"#utility.yul\":4565:4568   */\n      dup3\n        /* \"#utility.yul\":4558:4577   */\n      mstore\n        /* \"#utility.yul\":4610:4614   */\n      0x20\n        /* \"#utility.yul\":4605:4608   */\n      dup3\n        /* \"#utility.yul\":4601:4615   */\n      add\n        /* \"#utility.yul\":4586:4615   */\n      swap1\n      pop\n        /* \"#utility.yul\":4452:4621   */\n      swap3\n      swap2\n      pop\n      pop\n      jump\t// out\n        /* \"#utility.yul\":4627:4766   */\n    tag_92:\n        /* \"#utility.yul\":4716:4722   */\n      dup3\n        /* \"#utility.yul\":4711:4714   */\n      dup2\n        /* \"#utility.yul\":4706:4709   */\n      dup4\n        /* \"#utility.yul\":4700:4723   */\n      mcopy\n        /* \"#utility.yul\":4757:4758   */\n      0x00\n        /* \"#utility.yul\":4748:4754   */\n      dup4\n        /* \"#utility.yul\":4743:4746   */\n      dup4\n        /* \"#utility.yul\":4739:4755   */\n      add\n        /* \"#utility.yul\":4732:4759   */\n      mstore\n        /* \"#utility.yul\":4627:4766   */\n      pop\n      pop\n      pop\n      jump\t// out\n        /* \"#utility.yul\":4772:5149   */\n    tag_93:\n        /* \"#utility.yul\":4860:4863   */\n      0x00\n        /* \"#utility.yul\":4888:4927   */\n      tag_175\n        /* \"#utility.yul\":4921:4926   */\n      dup3\n        /* \"#utility.yul\":4888:4927   */\n      tag_90\n      jump\t// in\n    tag_175:\n        /* \"#utility.yul\":4943:5014   */\n      tag_176\n        /* \"#utility.yul\":5007:5013   */\n      dup2\n        /* \"#utility.yul\":5002:5005   */\n      dup6\n        /* \"#utility.yul\":4943:5014   */\n      tag_91\n      jump\t// in\n    tag_176:\n        /* \"#utility.yul\":4936:5014   */\n      swap4\n      pop\n        /* \"#utility.yul\":5023:5088   */\n      tag_177\n        /* \"#utility.yul\":5081:5087   */\n      dup2\n        /* \"#utility.yul\":5076:5079   */\n      dup6\n        /* \"#utility.yul\":5069:5073   */\n      0x20\n        /* \"#utility.yul\":5062:5067   */\n      dup7\n        /* \"#utility.yul\":5058:5074   */\n      add\n        /* \"#utility.yul\":5023:5088   */\n      tag_92\n      jump\t// in\n    tag_177:\n        /* \"#utility.yul\":5113:5142   */\n      tag_178\n        /* \"#utility.yul\":5135:5141   */\n      dup2\n        /* \"#utility.yul\":5113:5142   */\n      tag_82\n      jump\t// in\n    tag_178:\n        /* \"#utility.yul\":5108:5111   */\n      dup5\n        /* \"#utility.yul\":5104:5143   */\n      add\n        /* \"#utility.yul\":5097:5143   */\n      swap2\n      pop\n        /* \"#utility.yul\":4864:5149   */\n      pop\n        /* \"#utility.yul\":4772:5149   */\n      swap3\n      swap2\n      pop\n      pop\n      jump\t// out\n        /* \"#utility.yul\":5155:5244   */\n    tag_94:\n        /* \"#utility.yul\":5191:5198   */\n      0x00\n        /* \"#utility.yul\":5231:5237   */\n      0xffff\n        /* \"#utility.yul\":5224:5229   */\n      dup3\n        /* \"#utility.yul\":5220:5238   */\n      and\n        /* \"#utility.yul\":5209:5238   */\n      swap1\n      pop\n        /* \"#utility.yul\":5155:5244   */\n      swap2\n      swap1\n      pop\n      jump\t// out\n        /* \"#utility.yul\":5250:5365   */\n    tag_95:\n        /* \"#utility.yul\":5335:5358   */\n      tag_181\n        /* \"#utility.yul\":5352:5357   */\n      dup2\n        /* \"#utility.yul\":5335:5358   */\n      tag_94\n      jump\t// in\n    tag_181:\n        /* \"#utility.yul\":5330:5333   */\n      dup3\n        /* \"#utility.yul\":5323:5359   */\n      mstore\n        /* \"#utility.yul\":5250:5365   */\n      pop\n      pop\n      jump\t// out\n        /* \"#utility.yul\":5371:5464   */\n    tag_96:\n        /* \"#utility.yul\":5407:5414   */\n      0x00\n        /* \"#utility.yul\":5447:5457   */\n      0xffffffff\n        /* \"#utility.yul\":5440:5445   */\n      dup3\n        /* \"#utility.yul\":5436:5458   */\n      and\n        /* \"#utility.yul\":5425:5458   */\n      swap1\n      pop\n        /* \"#utility.yul\":5371:5464   */\n      swap2\n      swap1\n      pop\n      jump\t// out\n        /* \"#utility.yul\":5470:5585   */\n    tag_97:\n        /* \"#utility.yul\":5555:5578   */\n      tag_184\n        /* \"#utility.yul\":5572:5577   */\n      dup2\n        /* \"#utility.yul\":5555:5578   */\n      tag_96\n      jump\t// in\n    tag_184:\n        /* \"#utility.yul\":5550:5553   */\n      dup3\n        /* \"#utility.yul\":5543:5579   */\n      mstore\n        /* \"#utility.yul\":5470:5585   */\n      pop\n      pop\n      jump\t// out\n        /* \"#utility.yul\":5591:6223   */\n    tag_28:\n        /* \"#utility.yul\":5782:5786   */\n      0x00\n        /* \"#utility.yul\":5820:5823   */\n      0x80\n        /* \"#utility.yul\":5809:5818   */\n      dup3\n        /* \"#utility.yul\":5805:5824   */\n      add\n        /* \"#utility.yul\":5797:5824   */\n      swap1\n      pop\n        /* \"#utility.yul\":5870:5879   */\n      dup2\n        /* \"#utility.yul\":5864:5868   */\n      dup2\n        /* \"#utility.yul\":5860:5880   */\n      sub\n        /* \"#utility.yul\":5856:5857   */\n      0x00\n        /* \"#utility.yul\":5845:5854   */\n      dup4\n        /* \"#utility.yul\":5841:5858   */\n      add\n        /* \"#utility.yul\":5834:5881   */\n      mstore\n        /* \"#utility.yul\":5898:5976   */\n      tag_186\n        /* \"#utility.yul\":5971:5975   */\n      dup2\n        /* \"#utility.yul\":5962:5968   */\n      dup8\n        /* \"#utility.yul\":5898:5976   */\n      tag_93\n      jump\t// in\n    tag_186:\n        /* \"#utility.yul\":5890:5976   */\n      swap1\n      pop\n        /* \"#utility.yul\":5986:6056   */\n      tag_187\n        /* \"#utility.yul\":6052:6054   */\n      0x20\n        /* \"#utility.yul\":6041:6050   */\n      dup4\n        /* \"#utility.yul\":6037:6055   */\n      add\n        /* \"#utility.yul\":6028:6034   */\n      dup7\n        /* \"#utility.yul\":5986:6056   */\n      tag_95\n      jump\t// in\n    tag_187:\n        /* \"#utility.yul\":6066:6136   */\n      tag_188\n        /* \"#utility.yul\":6132:6134   */\n      0x40\n        /* \"#utility.yul\":6121:6130   */\n      dup4\n        /* \"#utility.yul\":6117:6135   */\n      add\n        /* \"#utility.yul\":6108:6114   */\n      dup6\n        /* \"#utility.yul\":6066:6136   */\n      tag_97\n      jump\t// in\n    tag_188:\n        /* \"#utility.yul\":6146:6216   */\n      tag_189\n        /* \"#utility.yul\":6212:6214   */\n      0x60\n        /* \"#utility.yul\":6201:6210   */\n      dup4\n        /* \"#utility.yul\":6197:6215   */\n      add\n        /* \"#utility.yul\":6188:6194   */\n      dup5\n        /* \"#utility.yul\":6146:6216   */\n      tag_95\n      jump\t// in\n    tag_189:\n        /* \"#utility.yul\":5591:6223   */\n      swap6\n      swap5\n      pop\n      pop\n      pop\n      pop\n      pop\n      jump\t// out\n        /* \"#utility.yul\":6229:6351   */\n    tag_98:\n        /* \"#utility.yul\":6302:6326   */\n      tag_191\n        /* \"#utility.yul\":6320:6325   */\n      dup2\n        /* \"#utility.yul\":6302:6326   */\n      tag_78\n      jump\t// in\n    tag_191:\n        /* \"#utility.yul\":6295:6300   */\n      dup2\n        /* \"#utility.yul\":6292:6327   */\n      eq\n        /* \"#utility.yul\":6282:6345   */\n      tag_192\n      jumpi\n        /* \"#utility.yul\":6341:6342   */\n      0x00\n        /* \"#utility.yul\":6338:6339   */\n      0x00\n        /* \"#utility.yul\":6331:6343   */\n      revert\n        /* \"#utility.yul\":6282:6345   */\n    tag_192:\n        /* \"#utility.yul\":6229:6351   */\n      pop\n      jump\t// out\n        /* \"#utility.yul\":6357:6496   */\n    tag_99:\n        /* \"#utility.yul\":6403:6408   */\n      0x00\n        /* \"#utility.yul\":6441:6447   */\n      dup2\n        /* \"#utility.yul\":6428:6448   */\n      calldataload\n        /* \"#utility.yul\":6419:6448   */\n      swap1\n      pop\n        /* \"#utility.yul\":6457:6490   */\n      tag_194\n        /* \"#utility.yul\":6484:6489   */\n      dup2\n        /* \"#utility.yul\":6457:6490   */\n      tag_98\n      jump\t// in\n    tag_194:\n        /* \"#utility.yul\":6357:6496   */\n      swap3\n      swap2\n      pop\n      pop\n      jump\t// out\n        /* \"#utility.yul\":6502:6831   */\n    tag_31:\n        /* \"#utility.yul\":6561:6567   */\n      0x00\n        /* \"#utility.yul\":6610:6612   */\n      0x20\n        /* \"#utility.yul\":6598:6607   */\n      dup3\n        /* \"#utility.yul\":6589:6596   */\n      dup5\n        /* \"#utility.yul\":6585:6608   */\n      sub\n        /* \"#utility.yul\":6581:6613   */\n      slt\n        /* \"#utility.yul\":6578:6697   */\n      iszero\n      tag_196\n      jumpi\n        /* \"#utility.yul\":6616:6695   */\n      tag_197\n      tag_72\n      jump\t// in\n    tag_197:\n        /* \"#utility.yul\":6578:6697   */\n    tag_196:\n        /* \"#utility.yul\":6736:6737   */\n      0x00\n        /* \"#utility.yul\":6761:6814   */\n      tag_198\n        /* \"#utility.yul\":6806:6813   */\n      dup5\n        /* \"#utility.yul\":6797:6803   */\n      dup3\n        /* \"#utility.yul\":6786:6795   */\n      dup6\n        /* \"#utility.yul\":6782:6804   */\n      add\n        /* \"#utility.yul\":6761:6814   */\n      tag_99\n      jump\t// in\n    tag_198:\n        /* \"#utility.yul\":6751:6814   */\n      swap2\n      pop\n        /* \"#utility.yul\":6707:6824   */\n      pop\n        /* \"#utility.yul\":6502:6831   */\n      swap3\n      swap2\n      pop\n      pop\n      jump\t// out\n        /* \"#utility.yul\":6837:7017   */\n    tag_100:\n        /* \"#utility.yul\":6885:6962   */\n      0x4e487b7100000000000000000000000000000000000000000000000000000000\n        /* \"#utility.yul\":6882:6883   */\n      0x00\n        /* \"#utility.yul\":6875:6963   */\n      mstore\n        /* \"#utility.yul\":6982:6986   */\n      0x22\n        /* \"#utility.yul\":6979:6980   */\n      0x04\n        /* \"#utility.yul\":6972:6987   */\n      mstore\n        /* \"#utility.yul\":7006:7010   */\n      0x24\n        /* \"#utility.yul\":7003:7004   */\n      0x00\n        /* \"#utility.yul\":6996:7011   */\n      revert\n        /* \"#utility.yul\":7023:7343   */\n    tag_51:\n        /* \"#utility.yul\":7067:7073   */\n      0x00\n        /* \"#utility.yul\":7104:7105   */\n      0x02\n        /* \"#utility.yul\":7098:7102   */\n      dup3\n        /* \"#utility.yul\":7094:7106   */\n      div\n        /* \"#utility.yul\":7084:7106   */\n      swap1\n      pop\n        /* \"#utility.yul\":7151:7152   */\n      0x01\n        /* \"#utility.yul\":7145:7149   */\n      dup3\n        /* \"#utility.yul\":7141:7153   */\n      and\n        /* \"#utility.yul\":7172:7190   */\n      dup1\n        /* \"#utility.yul\":7162:7243   */\n      tag_201\n      jumpi\n        /* \"#utility.yul\":7228:7232   */\n      0x7f\n        /* \"#utility.yul\":7220:7226   */\n      dup3\n        /* \"#utility.yul\":7216:7233   */\n      and\n        /* \"#utility.yul\":7206:7233   */\n      swap2\n      pop\n        /* \"#utility.yul\":7162:7243   */\n    tag_201:\n        /* \"#utility.yul\":7290:7292   */\n      0x20\n        /* \"#utility.yul\":7282:7288   */\n      dup3\n        /* \"#utility.yul\":7279:7293   */\n      lt\n        /* \"#utility.yul\":7259:7277   */\n      dup2\n        /* \"#utility.yul\":7256:7294   */\n      sub\n        /* \"#utility.yul\":7253:7337   */\n      tag_202\n      jumpi\n        /* \"#utility.yul\":7309:7327   */\n      tag_203\n      tag_100\n      jump\t// in\n    tag_203:\n        /* \"#utility.yul\":7253:7337   */\n    tag_202:\n        /* \"#utility.yul\":7074:7343   */\n      pop\n        /* \"#utility.yul\":7023:7343   */\n      swap2\n      swap1\n      pop\n      jump\t// out\n        /* \"#utility.yul\":7349:7490   */\n    tag_101:\n        /* \"#utility.yul\":7398:7402   */\n      0x00\n        /* \"#utility.yul\":7421:7424   */\n      dup2\n        /* \"#utility.yul\":7413:7424   */\n      swap1\n      pop\n        /* \"#utility.yul\":7444:7447   */\n      dup2\n        /* \"#utility.yul\":7441:7442   */\n      0x00\n        /* \"#utility.yul\":7434:7448   */\n      mstore\n        /* \"#utility.yul\":7478:7482   */\n      0x20\n        /* \"#utility.yul\":7475:7476   */\n      0x00\n        /* \"#utility.yul\":7465:7483   */\n      keccak256\n        /* \"#utility.yul\":7457:7483   */\n      swap1\n      pop\n        /* \"#utility.yul\":7349:7490   */\n      swap2\n      swap1\n      pop\n      jump\t// out\n        /* \"#utility.yul\":7496:7589   */\n    tag_102:\n        /* \"#utility.yul\":7533:7539   */\n      0x00\n        /* \"#utility.yul\":7580:7582   */\n      0x20\n        /* \"#utility.yul\":7575:7577   */\n      0x1f\n        /* \"#utility.yul\":7568:7573   */\n      dup4\n        /* \"#utility.yul\":7564:7578   */\n      add\n        /* \"#utility.yul\":7560:7583   */\n      div\n        /* \"#utility.yul\":7550:7583   */\n      swap1\n      pop\n        /* \"#utility.yul\":7496:7589   */\n      swap2\n      swap1\n      pop\n      jump\t// out\n        /* \"#utility.yul\":7595:7702   */\n    tag_103:\n        /* \"#utility.yul\":7639:7647   */\n      0x00\n        /* \"#utility.yul\":7689:7694   */\n      dup3\n        /* \"#utility.yul\":7683:7687   */\n      dup3\n        /* \"#utility.yul\":7679:7695   */\n      shl\n        /* \"#utility.yul\":7658:7695   */\n      swap1\n      pop\n        /* \"#utility.yul\":7595:7702   */\n      swap3\n      swap2\n      pop\n      pop\n      jump\t// out\n        /* \"#utility.yul\":7708:8101   */\n    tag_104:\n        /* \"#utility.yul\":7777:7783   */\n      0x00\n        /* \"#utility.yul\":7827:7828   */\n      0x08\n        /* \"#utility.yul\":7815:7825   */\n      dup4\n        /* \"#utility.yul\":7811:7829   */\n      mul\n        /* \"#utility.yul\":7850:7947   */\n      tag_208\n        /* \"#utility.yul\":7880:7946   */\n      0xffffffffffffffffffffffffffffffffffffffffffffffffffffffffffffffff\n        /* \"#utility.yul\":7869:7878   */\n      dup3\n        /* \"#utility.yul\":7850:7947   */\n      tag_103\n      jump\t// in\n    tag_208:\n        /* \"#utility.yul\":7968:8007   */\n      tag_209\n        /* \"#utility.yul\":7998:8006   */\n      dup7\n        /* \"#utility.yul\":7987:7996   */\n      dup4\n        /* \"#utility.yul\":7968:8007   */\n      tag_103\n      jump\t// in\n    tag_209:\n        /* \"#utility.yul\":7956:8007   */\n      swap6\n      pop\n        /* \"#utility.yul\":8040:8044   */\n      dup1\n        /* \"#utility.yul\":8036:8045   */\n      not\n        /* \"#utility.yul\":8029:8034   */\n      dup5\n        /* \"#utility.yul\":8025:8046   */\n      and\n        /* \"#utility.yul\":8016:8046   */\n      swap4\n      pop\n        /* \"#utility.yul\":8089:8093   */\n      dup1\n        /* \"#utility.yul\":8079:8087   */\n      dup7\n        /* \"#utility.yul\":8075:8094   */\n      and\n        /* \"#utility.yul\":8068:8073   */\n      dup5\n        /* \"#utility.yul\":8065:8095   */\n      or\n        /* \"#utility.yul\":8055:8095   */\n      swap3\n      pop\n        /* \"#utility.yul\":7784:8101   */\n      pop\n      pop\n        /* \"#utility.yul\":7708:8101   */\n      swap4\n      swap3\n      pop\n      pop\n      pop\n      jump\t// out\n        /* \"#utility.yul\":8107:8167   */\n    tag_105:\n        /* \"#utility.yul\":8135:8138   */\n      0x00\n        /* \"#utility.yul\":8156:8161   */\n      dup2\n        /* \"#utility.yul\":8149:8161   */\n      swap1\n      pop\n        /* \"#utility.yul\":8107:8167   */\n      swap2\n      swap1\n      pop\n      jump\t// out\n        /* \"#utility.yul\":8173:8315   */\n    tag_106:\n        /* \"#utility.yul\":8223:8232   */\n      0x00\n        /* \"#utility.yul\":8256:8309   */\n      tag_212\n        /* \"#utility.yul\":8274:8308   */\n      tag_213\n        /* \"#utility.yul\":8283:8307   */\n      tag_214\n        /* \"#utility.yul\":8301:8306   */\n      dup5\n        /* \"#utility.yul\":8283:8307   */\n      tag_74\n      jump\t// in\n    tag_214:\n        /* \"#utility.yul\":8274:8308   */\n      tag_105\n      jump\t// in\n    tag_213:\n        /* \"#utility.yul\":8256:8309   */\n      tag_74\n      jump\t// in\n    tag_212:\n        /* \"#utility.yul\":8243:8309   */\n      swap1\n      pop\n        /* \"#utility.yul\":8173:8315   */\n      swap2\n      swap1\n      pop\n      jump\t// out\n        /* \"#utility.yul\":8321:8396   */\n    tag_107:\n        /* \"#utility.yul\":8364:8367   */\n      0x00\n        /* \"#utility.yul\":8385:8390   */\n      dup2\n        /* \"#utility.yul\":8378:8390   */\n      swap1\n      pop\n        /* \"#utility.yul\":8321:8396   */\n      swap2\n      swap1\n      pop\n      jump\t// out\n        /* \"#utility.yul\":8402:8671   */\n    tag_108:\n        /* \"#utility.yul\":8512:8551   */\n      tag_217\n        /* \"#utility.yul\":8543:8550   */\n      dup4\n        /* \"#utility.yul\":8512:8551   */\n      tag_106\n      jump\t// in\n    tag_217:\n        /* \"#utility.yul\":8573:8664   */\n      tag_218\n        /* \"#utility.yul\":8622:8663   */\n      tag_219\n        /* \"#utility.yul\":8646:8662   */\n      dup3\n        /* \"#utility.yul\":8622:8663   */\n      tag_107\n      jump\t// in\n    tag_219:\n        /* \"#utility.yul\":8614:8620   */\n      dup5\n        /* \"#utility.yul\":8607:8611   */\n      dup5\n        /* \"#utility.yul\":8601:8612   */\n      sload\n        /* \"#utility.yul\":8573:8664   */\n      tag_104\n      jump\t// in\n    tag_218:\n        /* \"#utility.yul\":8567:8571   */\n      dup3\n        /* \"#utility.yul\":8560:8665   */\n      sstore\n        /* \"#utility.yul\":8478:8671   */\n      pop\n        /* \"#utility.yul\":8402:8671   */\n      pop\n      pop\n      pop\n      jump\t// out\n        /* \"#utility.yul\":8677:8750   */\n    tag_109:\n        /* \"#utility.yul\":8722:8725   */\n      0x00\n        /* \"#utility.yul\":8743:8744   */\n      0x00\n        /* \"#utility.yul\":8736:8744   */\n      swap1\n      pop\n        /* \"#utility.yul\":8677:8750   */\n      swap1\n      jump\t// out\n        /* \"#utility.yul\":8756:8945   */\n    tag_110:\n        /* \"#utility.yul\":8833:8865   */\n      tag_222\n      tag_109\n      jump\t// in\n    tag_222:\n        /* \"#utility.yul\":8874:8939   */\n      tag_223\n        /* \"#utility.yul\":8932:8938   */\n      dup2\n        /* \"#utility.yul\":8924:8930   */\n      dup5\n        /* \"#utility.yul\":8918:8922   */\n      dup5\n        /* \"#utility.yul\":8874:8939   */\n      tag_108\n      jump\t// in\n    tag_223:\n        /* \"#utility.yul\":8809:8945   */\n      pop\n        /* \"#utility.yul\":8756:8945   */\n      pop\n      pop\n      jump\t// out\n        /* \"#utility.yul\":8951:9137   */\n    tag_111:\n        /* \"#utility.yul\":9011:9131   */\n    tag_225:\n        /* \"#utility.yul\":9028:9031   */\n      dup2\n        /* \"#utility.yul\":9021:9026   */\n      dup2\n        /* \"#utility.yul\":9018:9032   */\n      lt\n        /* \"#utility.yul\":9011:9131   */\n      iszero\n      tag_227\n      jumpi\n        /* \"#utility.yul\":9082:9121   */\n      tag_228\n        /* \"#utility.yul\":9119:9120   */\n      0x00\n        /* \"#utility.yul\":9112:9117   */\n      dup3\n        /* \"#utility.yul\":9082:9121   */\n      tag_110\n      jump\t// in\n    tag_228:\n        /* \"#utility.yul\":9055:9056   */\n      0x01\n        /* \"#utility.yul\":9048:9053   */\n      dup2\n        /* \"#utility.yul\":9044:9057   */\n      add\n        /* \"#utility.yul\":9035:9057   */\n      swap1\n      pop\n        /* \"#utility.yul\":9011:9131   */\n      jump(tag_225)\n    tag_227:\n        /* \"#utility.yul\":8951:9137   */\n      pop\n      pop\n      jump\t// out\n        /* \"#utility.yul\":9143:9686   */\n    tag_112:\n        /* \"#utility.yul\":9244:9246   */\n      0x1f\n        /* \"#utility.yul\":9239:9242   */\n      dup3\n        /* \"#utility.yul\":9236:9247   */\n      gt\n        /* \"#utility.yul\":9233:9679   */\n      iszero\n      tag_230\n      jumpi\n        /* \"#utility.yul\":9278:9316   */\n      tag_231\n        /* \"#utility.yul\":9310:9315   */\n      dup2\n        /* \"#utility.yul\":9278:9316   */\n      tag_101\n      jump\t// in\n    tag_231:\n        /* \"#utility.yul\":9362:9391   */\n      tag_232\n        /* \"#utility.yul\":9380:9390   */\n      dup5\n        /* \"#utility.yul\":9362:9391   */\n      tag_102\n      jump\t// in\n    tag_232:\n        /* \"#utility.yul\":9352:9360   */\n      dup2\n        /* \"#utility.yul\":9348:9392   */\n      add\n        /* \"#utility.yul\":9545:9547   */\n      0x20\n        /* \"#utility.yul\":9533:9543   */\n      dup6\n        /* \"#utility.yul\":9530:9548   */\n      lt\n        /* \"#utility.yul\":9527:9576   */\n      iszero\n      tag_233\n      jumpi\n        /* \"#utility.yul\":9566:9574   */\n      dup2\n        /* \"#utility.yul\":9551:9574   */\n      swap1\n      pop\n        /* \"#utility.yul\":9527:9576   */\n    tag_233:\n        /* \"#utility.yul\":9589:9669   */\n      tag_234\n        /* \"#utility.yul\":9645:9667   */\n      tag_235\n        /* \"#utility.yul\":9663:9666   */\n      dup6\n        /* \"#utility.yul\":9645:9667   */\n      tag_102\n      jump\t// in\n    tag_235:\n        /* \"#utility.yul\":9635:9643   */\n      dup4\n        /* \"#utility.yul\":9631:9668   */\n      add\n        /* \"#utility.yul\":9618:9629   */\n      dup3\n        /* \"#utility.yul\":9589:9669   */\n      tag_111\n      jump\t// in\n    tag_234:\n        /* \"#utility.yul\":9248:9679   */\n      pop\n      pop\n        /* \"#utility.yul\":9233:9679   */\n    tag_230:\n        /* \"#utility.yul\":9143:9686   */\n      pop\n      pop\n      pop\n      jump\t// out\n        /* \"#utility.yul\":9692:9809   */\n    tag_113:\n        /* \"#utility.yul\":9746:9754   */\n      0x00\n        /* \"#utility.yul\":9796:9801   */\n      dup3\n        /* \"#utility.yul\":9790:9794   */\n      dup3\n        /* \"#utility.yul\":9786:9802   */\n      shr\n        /* \"#utility.yul\":9765:9802   */\n      swap1\n      pop\n        /* \"#utility.yul\":9692:9809   */\n      swap3\n      swap2\n      pop\n      pop\n      jump\t// out\n        /* \"#utility.yul\":9815:9984   */\n    tag_114:\n        /* \"#utility.yul\":9859:9865   */\n      0x00\n        /* \"#utility.yul\":9892:9943   */\n      tag_238\n        /* \"#utility.yul\":9940:9941   */\n      0x00\n        /* \"#utility.yul\":9936:9942   */\n      not\n        /* \"#utility.yul\":9928:9933   */\n      dup5\n        /* \"#utility.yul\":9925:9926   */\n      0x08\n        /* \"#utility.yul\":9921:9934   */\n      mul\n        /* \"#utility.yul\":9892:9943   */\n      tag_113\n      jump\t// in\n    tag_238:\n        /* \"#utility.yul\":9888:9944   */\n      not\n        /* \"#utility.yul\":9973:9977   */\n      dup1\n        /* \"#utility.yul\":9967:9971   */\n      dup4\n        /* \"#utility.yul\":9963:9978   */\n      and\n        /* \"#utility.yul\":9953:9978   */\n      swap2\n      pop\n        /* \"#utility.yul\":9866:9984   */\n      pop\n        /* \"#utility.yul\":9815:9984   */\n      swap3\n      swap2\n      pop\n      pop\n      jump\t// out\n        /* \"#utility.yul\":9989:10284   */\n    tag_115:\n        /* \"#utility.yul\":10065:10069   */\n      0x00\n        /* \"#utility.yul\":10211:10240   */\n      tag_240\n        /* \"#utility.yul\":10236:10239   */\n      dup4\n        /* \"#utility.yul\":10230:10234   */\n      dup4\n        /* \"#utility.yul\":10211:10240   */\n      tag_114\n      jump\t// in\n    tag_240:\n        /* \"#utility.yul\":10203:10240   */\n      swap2\n      pop\n        /* \"#utility.yul\":10273:10276   */\n      dup3\n        /* \"#utility.yul\":10270:10271   */\n      0x02\n        /* \"#utility.yul\":10266:10277   */\n      mul\n        /* \"#utility.yul\":10260:10264   */\n      dup3\n        /* \"#utility.yul\":10257:10278   */\n      or\n        /* \"#utility.yul\":10249:10278   */\n      swap1\n      pop\n        /* \"#utility.yul\":9989:10284   */\n      swap3\n      swap2\n      pop\n      pop\n      jump\t// out\n        /* \"#utility.yul\":10289:11684   */\n    tag_36:\n        /* \"#utility.yul\":10406:10443   */\n      tag_242\n        /* \"#utility.yul\":10439:10442   */\n      dup3\n        /* \"#utility.yul\":10406:10443   */\n      tag_90\n      jump\t// in\n    tag_242:\n        /* \"#utility.yul\":10508:10526   */\n      0xffffffffffffffff\n        /* \"#utility.yul\":10500:10506   */\n      dup2\n        /* \"#utility.yul\":10497:10527   */\n      gt\n        /* \"#utility.yul\":10494:10550   */\n      iszero\n      tag_243\n      jumpi\n        /* \"#utility.yul\":10530:10548   */\n      tag_244\n      tag_83\n      jump\t// in\n    tag_244:\n        /* \"#utility.yul\":10494:10550   */\n    tag_243:\n        /* \"#utility.yul\":10574:10612   */\n      tag_245\n        /* \"#utility.yul\":10606:10610   */\n      dup3\n        /* \"#utility.yul\":10600:10611   */\n      sload\n        /* \"#utility.yul\":10574:10612   */\n      tag_51\n      jump\t// in\n    tag_245:\n        /* \"#utility.yul\":10659:10726   */\n      tag_246\n        /* \"#utility.yul\":10719:10725   */\n      dup3\n        /* \"#utility.yul\":10711:10717   */\n      dup3\n        /* \"#utility.yul\":10705:10709   */\n      dup6\n        /* \"#utility.yul\":10659:10726   */\n      tag_112\n      jump\t// in\n    tag_246:\n        /* \"#utility.yul\":10753:10754   */\n      0x00\n        /* \"#utility.yul\":10777:10781   */\n      0x20\n        /* \"#utility.yul\":10764:10781   */\n      swap1\n      pop\n        /* \"#utility.yul\":10809:10811   */\n      0x1f\n        /* \"#utility.yul\":10801:10807   */\n      dup4\n        /* \"#utility.yul\":10798:10812   */\n      gt\n        /* \"#utility.yul\":10826:10827   */\n      0x01\n        /* \"#utility.yul\":10821:11439   */\n      dup2\n      eq\n      tag_248\n      jumpi\n        /* \"#utility.yul\":11483:11484   */\n      0x00\n        /* \"#utility.yul\":11500:11506   */\n      dup5\n        /* \"#utility.yul\":11497:11574   */\n      iszero\n      tag_249\n      jumpi\n        /* \"#utility.yul\":11549:11558   */\n      dup3\n        /* \"#utility.yul\":11544:11547   */\n      dup8\n        /* \"#utility.yul\":11540:11559   */\n      add\n        /* \"#utility.yul\":11534:11560   */\n      mload\n        /* \"#utility.yul\":11525:11560   */\n      swap1\n      pop\n        /* \"#utility.yul\":11497:11574   */\n    tag_249:\n        /* \"#utility.yul\":11600:11667   */\n      tag_250\n        /* \"#utility.yul\":11660:11666   */\n      dup6\n        /* \"#utility.yul\":11653:11658   */\n      dup3\n        /* \"#utility.yul\":11600:11667   */\n      tag_115\n      jump\t// in\n    tag_250:\n        /* \"#utility.yul\":11594:11598   */\n      dup7\n        /* \"#utility.yul\":11587:11668   */\n      sstore\n        /* \"#utility.yul\":11456:11678   */\n      pop\n        /* \"#utility.yul\":10791:11678   */\n      jump(tag_247)\n        /* \"#utility.yul\":10821:11439   */\n    tag_248:\n        /* \"#utility.yul\":10873:10877   */\n      0x1f\n        /* \"#utility.yul\":10869:10878   */\n      not\n        /* \"#utility.yul\":10861:10867   */\n      dup5\n        /* \"#utility.yul\":10857:10879   */\n      and\n        /* \"#utility.yul\":10907:10944   */\n      tag_251\n        /* \"#utility.yul\":10939:10943   */\n      dup7\n        /* \"#utility.yul\":10907:10944   */\n      tag_101\n      jump\t// in\n    tag_251:\n        /* \"#utility.yul\":10966:10967   */\n      0x00\n        /* \"#utility.yul\":10980:11188   */\n    tag_252:\n        /* \"#utility.yul\":10994:11001   */\n      dup3\n        /* \"#utility.yul\":10991:10992   */\n      dup2\n        /* \"#utility.yul\":10988:11002   */\n      lt\n        /* \"#utility.yul\":10980:11188   */\n      iszero\n      tag_254\n      jumpi\n        /* \"#utility.yul\":11073:11082   */\n      dup5\n        /* \"#utility.yul\":11068:11071   */\n      dup10\n        /* \"#utility.yul\":11064:11083   */\n      add\n        /* \"#utility.yul\":11058:11084   */\n      mload\n        /* \"#utility.yul\":11050:11056   */\n      dup3\n        /* \"#utility.yul\":11043:11085   */\n      sstore\n        /* \"#utility.yul\":11124:11125   */\n      0x01\n        /* \"#utility.yul\":11116:11122   */\n      dup3\n        /* \"#utility.yul\":11112:11126   */\n      add\n        /* \"#utility.yul\":11102:11126   */\n      swap2\n      pop\n        /* \"#utility.yul\":11171:11173   */\n      0x20\n        /* \"#utility.yul\":11160:11169   */\n      dup6\n        /* \"#utility.yul\":11156:11174   */\n      add\n        /* \"#utility.yul\":11143:11174   */\n      swap5\n      pop\n        /* \"#utility.yul\":11017:11021   */\n      0x20\n        /* \"#utility.yul\":11014:11015   */\n      dup2\n        /* \"#utility.yul\":11010:11022   */\n      add\n        /* \"#utility.yul\":11005:11022   */\n      swap1\n      pop\n        /* \"#utility.yul\":10980:11188   */\n      jump(tag_252)\n    tag_254:\n        /* \"#utility.yul\":11216:11222   */\n      dup7\n        /* \"#utility.yul\":11207:11214   */\n      dup4\n        /* \"#utility.yul\":11204:11223   */\n      lt\n        /* \"#utility.yul\":11201:11380   */\n      iszero\n      tag_255\n      jumpi\n        /* \"#utility.yul\":11274:11283   */\n      dup5\n        /* \"#utility.yul\":11269:11272   */\n      dup10\n        /* \"#utility.yul\":11265:11284   */\n      add\n        /* \"#utility.yul\":11259:11285   */\n      mload\n        /* \"#utility.yul\":11317:11365   */\n      tag_256\n        /* \"#utility.yul\":11359:11363   */\n      0x1f\n        /* \"#utility.yul\":11351:11357   */\n      dup10\n        /* \"#utility.yul\":11347:11364   */\n      and\n        /* \"#utility.yul\":11336:11345   */\n      dup3\n        /* \"#utility.yul\":11317:11365   */\n      tag_114\n      jump\t// in\n    tag_256:\n        /* \"#utility.yul\":11309:11315   */\n      dup4\n        /* \"#utility.yul\":11302:11366   */\n      sstore\n        /* \"#utility.yul\":11224:11380   */\n      pop\n        /* \"#utility.yul\":11201:11380   */\n    tag_255:\n        /* \"#utility.yul\":11426:11427   */\n      0x01\n        /* \"#utility.yul\":11422:11423   */\n      0x02\n        /* \"#utility.yul\":11414:11420   */\n      dup9\n        /* \"#utility.yul\":11410:11424   */\n      mul\n        /* \"#utility.yul\":11406:11428   */\n      add\n        /* \"#utility.yul\":11400:11404   */\n      dup9\n        /* \"#utility.yul\":11393:11429   */\n      sstore\n        /* \"#utility.yul\":10828:11439   */\n      pop\n      pop\n      pop\n        /* \"#utility.yul\":10791:11678   */\n    tag_247:\n      pop\n        /* \"#utility.yul\":10381:11684   */\n      pop\n      pop\n      pop\n        /* \"#utility.yul\":10289:11684   */\n      pop\n      pop\n      jump\t// out\n        /* \"#utility.yul\":11690:11870   */\n    tag_116:\n        /* \"#utility.yul\":11738:11815   */\n      0x4e487b7100000000000000000000000000000000000000000000000000000000\n        /* \"#utility.yul\":11735:11736   */\n      0x00\n        /* \"#utility.yul\":11728:11816   */\n      mstore\n        /* \"#utility.yul\":11835:11839   */\n      0x11\n        /* \"#utility.yul\":11832:11833   */\n      0x04\n        /* \"#utility.yul\":11825:11840   */\n      mstore\n        /* \"#utility.yul\":11859:11863   */\n      0x24\n        /* \"#utility.yul\":11856:11857   */\n      0x00\n        /* \"#utility.yul\":11849:11864   */\n      revert\n        /* \"#utility.yul\":11876:12070   */\n    tag_38:\n        /* \"#utility.yul\":11916:11920   */\n      0x00\n        /* \"#utility.yul\":11936:11956   */\n      tag_259\n        /* \"#utility.yul\":11954:11955   */\n      dup3\n        /* \"#utility.yul\":11936:11956   */\n      tag_74\n      jump\t// in\n    tag_259:\n        /* \"#utility.yul\":11931:11956   */\n      swap2\n      pop\n        /* \"#utility.yul\":11970:11990   */\n      tag_260\n        /* \"#utility.yul\":11988:11989   */\n      dup4\n        /* \"#utility.yul\":11970:11990   */\n      tag_74\n      jump\t// in\n    tag_260:\n        /* \"#utility.yul\":11965:11990   */\n      swap3\n      pop\n        /* \"#utility.yul\":12014:12015   */\n      dup3\n        /* \"#utility.yul\":12011:12012   */\n      dup3\n        /* \"#utility.yul\":12007:12016   */\n      sub\n        /* \"#utility.yul\":11999:12016   */\n      swap1\n      pop\n        /* \"#utility.yul\":12038:12039   */\n      dup2\n        /* \"#utility.yul\":12032:12036   */\n      dup2\n        /* \"#utility.yul\":12029:12040   */\n      gt\n        /* \"#utility.yul\":12026:12063   */\n      iszero\n      tag_261\n      jumpi\n        /* \"#utility.yul\":12043:12061   */\n      tag_262\n      tag_116\n      jump\t// in\n    tag_262:\n        /* \"#utility.yul\":12026:12063   */\n    tag_261:\n        /* \"#utility.yul\":11876:12070   */\n      swap3\n      swap2\n      pop\n      pop\n      jump\t// out\n        /* \"#utility.yul\":12076:12194   */\n    tag_117:\n        /* \"#utility.yul\":12163:12187   */\n      tag_264\n        /* \"#utility.yul\":12181:12186   */\n      dup2\n        /* \"#utility.yul\":12163:12187   */\n      tag_74\n      jump\t// in\n    tag_264:\n        /* \"#utility.yul\":12158:12161   */\n      dup3\n        /* \"#utility.yul\":12151:12188   */\n      mstore\n        /* \"#utility.yul\":12076:12194   */\n      pop\n      pop\n      jump\t// out\n        /* \"#utility.yul\":12200:12623   */\n    tag_40:\n        /* \"#utility.yul\":12341:12345   */\n      0x00\n        /* \"#utility.yul\":12379:12381   */\n      0x40\n        /* \"#utility.yul\":12368:12377   */\n      dup3\n        /* \"#utility.yul\":12364:12382   */\n      add\n        /* \"#utility.yul\":12356:12382   */\n      swap1\n      pop\n        /* \"#utility.yul\":12392:12463   */\n      tag_266\n        /* \"#utility.yul\":12460:12461   */\n      0x00\n        /* \"#utility.yul\":12449:12458   */\n      dup4\n        /* \"#utility.yul\":12445:12462   */\n      add\n        /* \"#utility.yul\":12436:12442   */\n      dup6\n        /* \"#utility.yul\":12392:12463   */\n      tag_117\n      jump\t// in\n    tag_266:\n        /* \"#utility.yul\":12510:12519   */\n      dup2\n        /* \"#utility.yul\":12504:12508   */\n      dup2\n        /* \"#utility.yul\":12500:12520   */\n      sub\n        /* \"#utility.yul\":12495:12497   */\n      0x20\n        /* \"#utility.yul\":12484:12493   */\n      dup4\n        /* \"#utility.yul\":12480:12498   */\n      add\n        /* \"#utility.yul\":12473:12521   */\n      mstore\n        /* \"#utility.yul\":12538:12616   */\n      tag_267\n        /* \"#utility.yul\":12611:12615   */\n      dup2\n        /* \"#utility.yul\":12602:12608   */\n      dup5\n        /* \"#utility.yul\":12538:12616   */\n      tag_93\n      jump\t// in\n    tag_267:\n        /* \"#utility.yul\":12530:12616   */\n      swap1\n      pop\n        /* \"#utility.yul\":12200:12623   */\n      swap4\n      swap3\n      pop\n      pop\n      pop\n      jump\t// out\n\n    auxdata: 0xa2646970667358221220366cfd23e9eb971b9597d4acea4487a17dd550a70909d49f5ddd2b5a6720e66864736f6c634300081e0033\n}\n",
				"bytecode": {
					"linkReferences": {},
					"object": "608060405234801561000f575f5ffd5b50335f73ffffffffffffffffffffffffffffffffffffffff168173ffffffffffffffffffffffffffffffffffffffff1603610081575f6040517f1e4fbdf70000000000000000000000000000000000000000000000000000000081526004016100789190610196565b60405180910390fd5b6100908161009660201b60201c565b506101af565b5f5f5f9054906101000a900473ffffffffffffffffffffffffffffffffffffffff169050815f5f6101000a81548173ffffffffffffffffffffffffffffffffffffffff021916908373ffffffffffffffffffffffffffffffffffffffff1602179055508173ffffffffffffffffffffffffffffffffffffffff168173ffffffffffffffffffffffffffffffffffffffff167f8be0079c531659141344cd1fd0a4f28419497f9722a3daafe3b4186f6b6457e060405160405180910390a35050565b5f73ffffffffffffffffffffffffffffffffffffffff82169050919050565b5f61018082610157565b9050919050565b61019081610176565b82525050565b5f6020820190506101a95f830184610187565b92915050565b610cec806101bc5f395ff3fe608060405234801561000f575f5ffd5b5060043610610060575f3560e01c80630d292732146100645780635f6fdddf14610094578063715018a6146100b05780638da5cb5b146100ba578063b06b0368146100d8578063f2fde38b1461010b575b5f5ffd5b61007e6004803603810190610079919061060e565b610127565b60405161008b9190610678565b60405180910390f35b6100ae60048036038101906100a991906107cd565b610157565b005b6100b86102d1565b005b6100c26102e4565b6040516100cf9190610678565b60405180910390f35b6100f260048036038101906100ed919061060e565b61030b565b60405161010294939291906108ae565b60405180910390f35b61012560048036038101906101209190610922565b6103f7565b005b6002602052805f5260405f205f915054906101000a900473ffffffffffffffffffffffffffffffffffffffff1681565b60016040518060800160405280838152602001600161ffff1681526020015f63ffffffff1681526020015f61ffff16815250908060018154018082558091505060019003905f5260205f2090600202015f909190919091505f820151815f0190816101c29190610b4a565b506020820151816001015f6101000a81548161ffff021916908361ffff16021790555060408201518160010160026101000a81548163ffffffff021916908363ffffffff16021790555060608201518160010160066101000a81548161ffff021916908361ffff16021790555050505f600180805490506102439190610c46565b90503360025f8381526020019081526020015f205f6101000a81548173ffffffffffffffffffffffffffffffffffffffff021916908373ffffffffffffffffffffffffffffffffffffffff1602179055507f41b82268d4cfcb7bde62bae060583c745a4821f267e1fe541b5f624e00d43c7d81836040516102c5929190610c88565b60405180910390a15050565b6102d961047b565b6102e25f610502565b565b5f5f5f9054906101000a900473ffffffffffffffffffffffffffffffffffffffff16905090565b6001818154811061031a575f80fd5b905f5260205f2090600202015f91509050805f0180546103399061097a565b80601f01602080910402602001604051908101604052809291908181526020018280546103659061097a565b80156103b05780601f10610387576101008083540402835291602001916103b0565b820191905f5260205f20905b81548152906001019060200180831161039357829003601f168201915b505050505090806001015f9054906101000a900461ffff16908060010160029054906101000a900463ffffffff16908060010160069054906101000a900461ffff16905084565b6103ff61047b565b5f73ffffffffffffffffffffffffffffffffffffffff168173ffffffffffffffffffffffffffffffffffffffff160361046f575f6040517f1e4fbdf70000000000000000000000000000000000000000000000000000000081526004016104669190610678565b60405180910390fd5b61047881610502565b50565b6104836105c3565b73ffffffffffffffffffffffffffffffffffffffff166104a16102e4565b73ffffffffffffffffffffffffffffffffffffffff1614610500576104c46105c3565b6040517f118cdaa70000000000000000000000000000000000000000000000000000000081526004016104f79190610678565b60405180910390fd5b565b5f5f5f9054906101000a900473ffffffffffffffffffffffffffffffffffffffff169050815f5f6101000a81548173ffffffffffffffffffffffffffffffffffffffff021916908373ffffffffffffffffffffffffffffffffffffffff1602179055508173ffffffffffffffffffffffffffffffffffffffff168173ffffffffffffffffffffffffffffffffffffffff167f8be0079c531659141344cd1fd0a4f28419497f9722a3daafe3b4186f6b6457e060405160405180910390a35050565b5f33905090565b5f604051905090565b5f5ffd5b5f5ffd5b5f819050919050565b6105ed816105db565b81146105f7575f5ffd5b50565b5f81359050610608816105e4565b92915050565b5f60208284031215610623576106226105d3565b5b5f610630848285016105fa565b91505092915050565b5f73ffffffffffffffffffffffffffffffffffffffff82169050919050565b5f61066282610639565b9050919050565b61067281610658565b82525050565b5f60208201905061068b5f830184610669565b92915050565b5f5ffd5b5f5ffd5b5f601f19601f8301169050919050565b7f4e487b71000000000000000000000000000000000000000000000000000000005f52604160045260245ffd5b6106df82610699565b810181811067ffffffffffffffff821117156106fe576106fd6106a9565b5b80604052505050565b5f6107106105ca565b905061071c82826106d6565b919050565b5f67ffffffffffffffff82111561073b5761073a6106a9565b5b61074482610699565b9050602081019050919050565b828183375f83830152505050565b5f61077161076c84610721565b610707565b90508281526020810184848401111561078d5761078c610695565b5b610798848285610751565b509392505050565b5f82601f8301126107b4576107b3610691565b5b81356107c484826020860161075f565b91505092915050565b5f602082840312156107e2576107e16105d3565b5b5f82013567ffffffffffffffff8111156107ff576107fe6105d7565b5b61080b848285016107a0565b91505092915050565b5f81519050919050565b5f82825260208201905092915050565b8281835e5f83830152505050565b5f61084682610814565b610850818561081e565b935061086081856020860161082e565b61086981610699565b840191505092915050565b5f61ffff82169050919050565b61088a81610874565b82525050565b5f63ffffffff82169050919050565b6108a881610890565b82525050565b5f6080820190508181035f8301526108c6818761083c565b90506108d56020830186610881565b6108e2604083018561089f565b6108ef6060830184610881565b95945050505050565b61090181610658565b811461090b575f5ffd5b50565b5f8135905061091c816108f8565b92915050565b5f60208284031215610937576109366105d3565b5b5f6109448482850161090e565b91505092915050565b7f4e487b71000000000000000000000000000000000000000000000000000000005f52602260045260245ffd5b5f600282049050600182168061099157607f821691505b6020821081036109a4576109a361094d565b5b50919050565b5f819050815f5260205f209050919050565b5f6020601f8301049050919050565b5f82821b905092915050565b5f60088302610a067fffffffffffffffffffffffffffffffffffffffffffffffffffffffffffffffff826109cb565b610a1086836109cb565b95508019841693508086168417925050509392505050565b5f819050919050565b5f610a4b610a46610a41846105db565b610a28565b6105db565b9050919050565b5f819050919050565b610a6483610a31565b610a78610a7082610a52565b8484546109d7565b825550505050565b5f5f905090565b610a8f610a80565b610a9a818484610a5b565b505050565b5b81811015610abd57610ab25f82610a87565b600181019050610aa0565b5050565b601f821115610b0257610ad3816109aa565b610adc846109bc565b81016020851015610aeb578190505b610aff610af7856109bc565b830182610a9f565b50505b505050565b5f82821c905092915050565b5f610b225f1984600802610b07565b1980831691505092915050565b5f610b3a8383610b13565b9150826002028217905092915050565b610b5382610814565b67ffffffffffffffff811115610b6c57610b6b6106a9565b5b610b76825461097a565b610b81828285610ac1565b5f60209050601f831160018114610bb2575f8415610ba0578287015190505b610baa8582610b2f565b865550610c11565b601f198416610bc0866109aa565b5f5b82811015610be757848901518255600182019150602085019450602081019050610bc2565b86831015610c045784890151610c00601f891682610b13565b8355505b6001600288020188555050505b505050505050565b7f4e487b71000000000000000000000000000000000000000000000000000000005f52601160045260245ffd5b5f610c50826105db565b9150610c5b836105db565b9250828203905081811115610c7357610c72610c19565b5b92915050565b610c82816105db565b82525050565b5f604082019050610c9b5f830185610c79565b8181036020830152610cad818461083c565b9050939250505056fea2646970667358221220366cfd23e9eb971b9597d4acea4487a17dd550a70909d49f5ddd2b5a6720e66864736f6c634300081e0033",
					"opcodes": "PUSH1 0x80 PUSH1 0x40 MSTORE CALLVALUE DUP1 ISZERO PUSH2 0xF JUMPI PUSH0 PUSH0 REVERT JUMPDEST POP CALLER PUSH0 PUSH20 0xFFFFFFFFFFFFFFFFFFFFFFFFFFFFFFFFFFFFFFFF AND DUP2 PUSH20 0xFFFFFFFFFFFFFFFFFFFFFFFFFFFFFFFFFFFFFFFF AND SUB PUSH2 0x81 JUMPI PUSH0 PUSH1 0x40 MLOAD PUSH32 0x1E4FBDF700000000000000000000000000000000000000000000000000000000 DUP2 MSTORE PUSH1 0x4 ADD PUSH2 0x78 SWAP2 SWAP1 PUSH2 0x196 JUMP JUMPDEST PUSH1 0x40 MLOAD DUP1 SWAP2 SUB SWAP1 REVERT JUMPDEST PUSH2 0x90 DUP2 PUSH2 0x96 PUSH1 0x20 SHL PUSH1 0x20 SHR JUMP JUMPDEST POP PUSH2 0x1AF JUMP JUMPDEST PUSH0 PUSH0 PUSH0 SWAP1 SLOAD SWAP1 PUSH2 0x100 EXP SWAP1 DIV PUSH20 0xFFFFFFFFFFFFFFFFFFFFFFFFFFFFFFFFFFFFFFFF AND SWAP1 POP DUP2 PUSH0 PUSH0 PUSH2 0x100 EXP DUP2 SLOAD DUP2 PUSH20 0xFFFFFFFFFFFFFFFFFFFFFFFFFFFFFFFFFFFFFFFF MUL NOT AND SWAP1 DUP4 PUSH20 0xFFFFFFFFFFFFFFFFFFFFFFFFFFFFFFFFFFFFFFFF AND MUL OR SWAP1 SSTORE POP DUP2 PUSH20 0xFFFFFFFFFFFFFFFFFFFFFFFFFFFFFFFFFFFFFFFF AND DUP2 PUSH20 0xFFFFFFFFFFFFFFFFFFFFFFFFFFFFFFFFFFFFFFFF AND PUSH32 0x8BE0079C531659141344CD1FD0A4F28419497F9722A3DAAFE3B4186F6B6457E0 PUSH1 0x40 MLOAD PUSH1 0x40 MLOAD DUP1 SWAP2 SUB SWAP1 LOG3 POP POP JUMP JUMPDEST PUSH0 PUSH20 0xFFFFFFFFFFFFFFFFFFFFFFFFFFFFFFFFFFFFFFFF DUP3 AND SWAP1 POP SWAP2 SWAP1 POP JUMP JUMPDEST PUSH0 PUSH2 0x180 DUP3 PUSH2 0x157 JUMP JUMPDEST SWAP1 POP SWAP2 SWAP1 POP JUMP JUMPDEST PUSH2 0x190 DUP2 PUSH2 0x176 JUMP JUMPDEST DUP3 MSTORE POP POP JUMP JUMPDEST PUSH0 PUSH1 0x20 DUP3 ADD SWAP1 POP PUSH2 0x1A9 PUSH0 DUP4 ADD DUP5 PUSH2 0x187 JUMP JUMPDEST SWAP3 SWAP2 POP POP JUMP JUMPDEST PUSH2 0xCEC DUP1 PUSH2 0x1BC PUSH0 CODECOPY PUSH0 RETURN INVALID PUSH1 0x80 PUSH1 0x40 MSTORE CALLVALUE DUP1 ISZERO PUSH2 0xF JUMPI PUSH0 PUSH0 REVERT JUMPDEST POP PUSH1 0x4 CALLDATASIZE LT PUSH2 0x60 JUMPI PUSH0 CALLDATALOAD PUSH1 0xE0 SHR DUP1 PUSH4 0xD292732 EQ PUSH2 0x64 JUMPI DUP1 PUSH4 0x5F6FDDDF EQ PUSH2 0x94 JUMPI DUP1 PUSH4 0x715018A6 EQ PUSH2 0xB0 JUMPI DUP1 PUSH4 0x8DA5CB5B EQ PUSH2 0xBA JUMPI DUP1 PUSH4 0xB06B0368 EQ PUSH2 0xD8 JUMPI DUP1 PUSH4 0xF2FDE38B EQ PUSH2 0x10B JUMPI JUMPDEST PUSH0 PUSH0 REVERT JUMPDEST PUSH2 0x7E PUSH1 0x4 DUP1 CALLDATASIZE SUB DUP2 ADD SWAP1 PUSH2 0x79 SWAP2 SWAP1 PUSH2 0x60E JUMP JUMPDEST PUSH2 0x127 JUMP JUMPDEST PUSH1 0x40 MLOAD PUSH2 0x8B SWAP2 SWAP1 PUSH2 0x678 JUMP JUMPDEST PUSH1 0x40 MLOAD DUP1 SWAP2 SUB SWAP1 RETURN JUMPDEST PUSH2 0xAE PUSH1 0x4 DUP1 CALLDATASIZE SUB DUP2 ADD SWAP1 PUSH2 0xA9 SWAP2 SWAP1 PUSH2 0x7CD JUMP JUMPDEST PUSH2 0x157 JUMP JUMPDEST STOP JUMPDEST PUSH2 0xB8 PUSH2 0x2D1 JUMP JUMPDEST STOP JUMPDEST PUSH2 0xC2 PUSH2 0x2E4 JUMP JUMPDEST PUSH1 0x40 MLOAD PUSH2 0xCF SWAP2 SWAP1 PUSH2 0x678 JUMP JUMPDEST PUSH1 0x40 MLOAD DUP1 SWAP2 SUB SWAP1 RETURN JUMPDEST PUSH2 0xF2 PUSH1 0x4 DUP1 CALLDATASIZE SUB DUP2 ADD SWAP1 PUSH2 0xED SWAP2 SWAP1 PUSH2 0x60E JUMP JUMPDEST PUSH2 0x30B JUMP JUMPDEST PUSH1 0x40 MLOAD PUSH2 0x102 SWAP5 SWAP4 SWAP3 SWAP2 SWAP1 PUSH2 0x8AE JUMP JUMPDEST PUSH1 0x40 MLOAD DUP1 SWAP2 SUB SWAP1 RETURN JUMPDEST PUSH2 0x125 PUSH1 0x4 DUP1 CALLDATASIZE SUB DUP2 ADD SWAP1 PUSH2 0x120 SWAP2 SWAP1 PUSH2 0x922 JUMP JUMPDEST PUSH2 0x3F7 JUMP JUMPDEST STOP JUMPDEST PUSH1 0x2 PUSH1 0x20 MSTORE DUP1 PUSH0 MSTORE PUSH1 0x40 PUSH0 KECCAK256 PUSH0 SWAP2 POP SLOAD SWAP1 PUSH2 0x100 EXP SWAP1 DIV PUSH20 0xFFFFFFFFFFFFFFFFFFFFFFFFFFFFFFFFFFFFFFFF AND DUP2 JUMP JUMPDEST PUSH1 0x1 PUSH1 0x40 MLOAD DUP1 PUSH1 0x80 ADD PUSH1 0x40 MSTORE DUP1 DUP4 DUP2 MSTORE PUSH1 0x20 ADD PUSH1 0x1 PUSH2 0xFFFF AND DUP2 MSTORE PUSH1 0x20 ADD PUSH0 PUSH4 0xFFFFFFFF AND DUP2 MSTORE PUSH1 0x20 ADD PUSH0 PUSH2 0xFFFF AND DUP2 MSTORE POP SWAP1 DUP1 PUSH1 0x1 DUP2 SLOAD ADD DUP1 DUP3 SSTORE DUP1 SWAP2 POP POP PUSH1 0x1 SWAP1 SUB SWAP1 PUSH0 MSTORE PUSH1 0x20 PUSH0 KECCAK256 SWAP1 PUSH1 0x2 MUL ADD PUSH0 SWAP1 SWAP2 SWAP1 SWAP2 SWAP1 SWAP2 POP PUSH0 DUP3 ADD MLOAD DUP2 PUSH0 ADD SWAP1 DUP2 PUSH2 0x1C2 SWAP2 SWAP1 PUSH2 0xB4A JUMP JUMPDEST POP PUSH1 0x20 DUP3 ADD MLOAD DUP2 PUSH1 0x1 ADD PUSH0 PUSH2 0x100 EXP DUP2 SLOAD DUP2 PUSH2 0xFFFF MUL NOT AND SWAP1 DUP4 PUSH2 0xFFFF AND MUL OR SWAP1 SSTORE POP PUSH1 0x40 DUP3 ADD MLOAD DUP2 PUSH1 0x1 ADD PUSH1 0x2 PUSH2 0x100 EXP DUP2 SLOAD DUP2 PUSH4 0xFFFFFFFF MUL NOT AND SWAP1 DUP4 PUSH4 0xFFFFFFFF AND MUL OR SWAP1 SSTORE POP PUSH1 0x60 DUP3 ADD MLOAD DUP2 PUSH1 0x1 ADD PUSH1 0x6 PUSH2 0x100 EXP DUP2 SLOAD DUP2 PUSH2 0xFFFF MUL NOT AND SWAP1 DUP4 PUSH2 0xFFFF AND MUL OR SWAP1 SSTORE POP POP POP PUSH0 PUSH1 0x1 DUP1 DUP1 SLOAD SWAP1 POP PUSH2 0x243 SWAP2 SWAP1 PUSH2 0xC46 JUMP JUMPDEST SWAP1 POP CALLER PUSH1 0x2 PUSH0 DUP4 DUP2 MSTORE PUSH1 0x20 ADD SWAP1 DUP2 MSTORE PUSH1 0x20 ADD PUSH0 KECCAK256 PUSH0 PUSH2 0x100 EXP DUP2 SLOAD DUP2 PUSH20 0xFFFFFFFFFFFFFFFFFFFFFFFFFFFFFFFFFFFFFFFF MUL NOT AND SWAP1 DUP4 PUSH20 0xFFFFFFFFFFFFFFFFFFFFFFFFFFFFFFFFFFFFFFFF AND MUL OR SWAP1 SSTORE POP PUSH32 0x41B82268D4CFCB7BDE62BAE060583C745A4821F267E1FE541B5F624E00D43C7D DUP2 DUP4 PUSH1 0x40 MLOAD PUSH2 0x2C5 SWAP3 SWAP2 SWAP1 PUSH2 0xC88 JUMP JUMPDEST PUSH1 0x40 MLOAD DUP1 SWAP2 SUB SWAP1 LOG1 POP POP JUMP JUMPDEST PUSH2 0x2D9 PUSH2 0x47B JUMP JUMPDEST PUSH2 0x2E2 PUSH0 PUSH2 0x502 JUMP JUMPDEST JUMP JUMPDEST PUSH0 PUSH0 PUSH0 SWAP1 SLOAD SWAP1 PUSH2 0x100 EXP SWAP1 DIV PUSH20 0xFFFFFFFFFFFFFFFFFFFFFFFFFFFFFFFFFFFFFFFF AND SWAP1 POP SWAP1 JUMP JUMPDEST PUSH1 0x1 DUP2 DUP2 SLOAD DUP2 LT PUSH2 0x31A JUMPI PUSH0 DUP1 REVERT JUMPDEST SWAP1 PUSH0 MSTORE PUSH1 0x20 PUSH0 KECCAK256 SWAP1 PUSH1 0x2 MUL ADD PUSH0 SWAP2 POP SWAP1 POP DUP1 PUSH0 ADD DUP1 SLOAD PUSH2 0x339 SWAP1 PUSH2 0x97A JUMP JUMPDEST DUP1 PUSH1 0x1F ADD PUSH1 0x20 DUP1 SWAP2 DIV MUL PUSH1 0x20 ADD PUSH1 0x40 MLOAD SWAP1 DUP2 ADD PUSH1 0x40 MSTORE DUP1 SWAP3 SWAP2 SWAP1 DUP2 DUP2 MSTORE PUSH1 0x20 ADD DUP3 DUP1 SLOAD PUSH2 0x365 SWAP1 PUSH2 0x97A JUMP JUMPDEST DUP1 ISZERO PUSH2 0x3B0 JUMPI DUP1 PUSH1 0x1F LT PUSH2 0x387 JUMPI PUSH2 0x100 DUP1 DUP4 SLOAD DIV MUL DUP4 MSTORE SWAP2 PUSH1 0x20 ADD SWAP2 PUSH2 0x3B0 JUMP JUMPDEST DUP3 ADD SWAP2 SWAP1 PUSH0 MSTORE PUSH1 0x20 PUSH0 KECCAK256 SWAP1 JUMPDEST DUP2 SLOAD DUP2 MSTORE SWAP1 PUSH1 0x1 ADD SWAP1 PUSH1 0x20 ADD DUP1 DUP4 GT PUSH2 0x393 JUMPI DUP3 SWAP1 SUB PUSH1 0x1F AND DUP3 ADD SWAP2 JUMPDEST POP POP POP POP POP SWAP1 DUP1 PUSH1 0x1 ADD PUSH0 SWAP1 SLOAD SWAP1 PUSH2 0x100 EXP SWAP1 DIV PUSH2 0xFFFF AND SWAP1 DUP1 PUSH1 0x1 ADD PUSH1 0x2 SWAP1 SLOAD SWAP1 PUSH2 0x100 EXP SWAP1 DIV PUSH4 0xFFFFFFFF AND SWAP1 DUP1 PUSH1 0x1 ADD PUSH1 0x6 SWAP1 SLOAD SWAP1 PUSH2 0x100 EXP SWAP1 DIV PUSH2 0xFFFF AND SWAP1 POP DUP5 JUMP JUMPDEST PUSH2 0x3FF PUSH2 0x47B JUMP JUMPDEST PUSH0 PUSH20 0xFFFFFFFFFFFFFFFFFFFFFFFFFFFFFFFFFFFFFFFF AND DUP2 PUSH20 0xFFFFFFFFFFFFFFFFFFFFFFFFFFFFFFFFFFFFFFFF AND SUB PUSH2 0x46F JUMPI PUSH0 PUSH1 0x40 MLOAD PUSH32 0x1E4FBDF700000000000000000000000000000000000000000000000000000000 DUP2 MSTORE PUSH1 0x4 ADD PUSH2 0x466 SWAP2 SWAP1 PUSH2 0x678 JUMP JUMPDEST PUSH1 0x40 MLOAD DUP1 SWAP2 SUB SWAP1 REVERT JUMPDEST PUSH2 0x478 DUP2 PUSH2 0x502 JUMP JUMPDEST POP JUMP JUMPDEST PUSH2 0x483 PUSH2 0x5C3 JUMP JUMPDEST PUSH20 0xFFFFFFFFFFFFFFFFFFFFFFFFFFFFFFFFFFFFFFFF AND PUSH2 0x4A1 PUSH2 0x2E4 JUMP JUMPDEST PUSH20 0xFFFFFFFFFFFFFFFFFFFFFFFFFFFFFFFFFFFFFFFF AND EQ PUSH2 0x500 JUMPI PUSH2 0x4C4 PUSH2 0x5C3 JUMP JUMPDEST PUSH1 0x40 MLOAD PUSH32 0x118CDAA700000000000000000000000000000000000000000000000000000000 DUP2 MSTORE PUSH1 0x4 ADD PUSH2 0x4F7 SWAP2 SWAP1 PUSH2 0x678 JUMP JUMPDEST PUSH1 0x40 MLOAD DUP1 SWAP2 SUB SWAP1 REVERT JUMPDEST JUMP JUMPDEST PUSH0 PUSH0 PUSH0 SWAP1 SLOAD SWAP1 PUSH2 0x100 EXP SWAP1 DIV PUSH20 0xFFFFFFFFFFFFFFFFFFFFFFFFFFFFFFFFFFFFFFFF AND SWAP1 POP DUP2 PUSH0 PUSH0 PUSH2 0x100 EXP DUP2 SLOAD DUP2 PUSH20 0xFFFFFFFFFFFFFFFFFFFFFFFFFFFFFFFFFFFFFFFF MUL NOT AND SWAP1 DUP4 PUSH20 0xFFFFFFFFFFFFFFFFFFFFFFFFFFFFFFFFFFFFFFFF AND MUL OR SWAP1 SSTORE POP DUP2 PUSH20 0xFFFFFFFFFFFFFFFFFFFFFFFFFFFFFFFFFFFFFFFF AND DUP2 PUSH20 0xFFFFFFFFFFFFFFFFFFFFFFFFFFFFFFFFFFFFFFFF AND PUSH32 0x8BE0079C531659141344CD1FD0A4F28419497F9722A3DAAFE3B4186F6B6457E0 PUSH1 0x40 MLOAD PUSH1 0x40 MLOAD DUP1 SWAP2 SUB SWAP1 LOG3 POP POP JUMP JUMPDEST PUSH0 CALLER SWAP1 POP SWAP1 JUMP JUMPDEST PUSH0 PUSH1 0x40 MLOAD SWAP1 POP SWAP1 JUMP JUMPDEST PUSH0 PUSH0 REVERT JUMPDEST PUSH0 PUSH0 REVERT JUMPDEST PUSH0 DUP2 SWAP1 POP SWAP2 SWAP1 POP JUMP JUMPDEST PUSH2 0x5ED DUP2 PUSH2 0x5DB JUMP JUMPDEST DUP2 EQ PUSH2 0x5F7 JUMPI PUSH0 PUSH0 REVERT JUMPDEST POP JUMP JUMPDEST PUSH0 DUP2 CALLDATALOAD SWAP1 POP PUSH2 0x608 DUP2 PUSH2 0x5E4 JUMP JUMPDEST SWAP3 SWAP2 POP POP JUMP JUMPDEST PUSH0 PUSH1 0x20 DUP3 DUP5 SUB SLT ISZERO PUSH2 0x623 JUMPI PUSH2 0x622 PUSH2 0x5D3 JUMP JUMPDEST JUMPDEST PUSH0 PUSH2 0x630 DUP5 DUP3 DUP6 ADD PUSH2 0x5FA JUMP JUMPDEST SWAP2 POP POP SWAP3 SWAP2 POP POP JUMP JUMPDEST PUSH0 PUSH20 0xFFFFFFFFFFFFFFFFFFFFFFFFFFFFFFFFFFFFFFFF DUP3 AND SWAP1 POP SWAP2 SWAP1 POP JUMP JUMPDEST PUSH0 PUSH2 0x662 DUP3 PUSH2 0x639 JUMP JUMPDEST SWAP1 POP SWAP2 SWAP1 POP JUMP JUMPDEST PUSH2 0x672 DUP2 PUSH2 0x658 JUMP JUMPDEST DUP3 MSTORE POP POP JUMP JUMPDEST PUSH0 PUSH1 0x20 DUP3 ADD SWAP1 POP PUSH2 0x68B PUSH0 DUP4 ADD DUP5 PUSH2 0x669 JUMP JUMPDEST SWAP3 SWAP2 POP POP JUMP JUMPDEST PUSH0 PUSH0 REVERT JUMPDEST PUSH0 PUSH0 REVERT JUMPDEST PUSH0 PUSH1 0x1F NOT PUSH1 0x1F DUP4 ADD AND SWAP1 POP SWAP2 SWAP1 POP JUMP JUMPDEST PUSH32 0x4E487B7100000000000000000000000000000000000000000000000000000000 PUSH0 MSTORE PUSH1 0x41 PUSH1 0x4 MSTORE PUSH1 0x24 PUSH0 REVERT JUMPDEST PUSH2 0x6DF DUP3 PUSH2 0x699 JUMP JUMPDEST DUP2 ADD DUP2 DUP2 LT PUSH8 0xFFFFFFFFFFFFFFFF DUP3 GT OR ISZERO PUSH2 0x6FE JUMPI PUSH2 0x6FD PUSH2 0x6A9 JUMP JUMPDEST JUMPDEST DUP1 PUSH1 0x40 MSTORE POP POP POP JUMP JUMPDEST PUSH0 PUSH2 0x710 PUSH2 0x5CA JUMP JUMPDEST SWAP1 POP PUSH2 0x71C DUP3 DUP3 PUSH2 0x6D6 JUMP JUMPDEST SWAP2 SWAP1 POP JUMP JUMPDEST PUSH0 PUSH8 0xFFFFFFFFFFFFFFFF DUP3 GT ISZERO PUSH2 0x73B JUMPI PUSH2 0x73A PUSH2 0x6A9 JUMP JUMPDEST JUMPDEST PUSH2 0x744 DUP3 PUSH2 0x699 JUMP JUMPDEST SWAP1 POP PUSH1 0x20 DUP2 ADD SWAP1 POP SWAP2 SWAP1 POP JUMP JUMPDEST DUP3 DUP2 DUP4 CALLDATACOPY PUSH0 DUP4 DUP4 ADD MSTORE POP POP POP JUMP JUMPDEST PUSH0 PUSH2 0x771 PUSH2 0x76C DUP5 PUSH2 0x721 JUMP JUMPDEST PUSH2 0x707 JUMP JUMPDEST SWAP1 POP DUP3 DUP2 MSTORE PUSH1 0x20 DUP2 ADD DUP5 DUP5 DUP5 ADD GT ISZERO PUSH2 0x78D JUMPI PUSH2 0x78C PUSH2 0x695 JUMP JUMPDEST JUMPDEST PUSH2 0x798 DUP5 DUP3 DUP6 PUSH2 0x751 JUMP JUMPDEST POP SWAP4 SWAP3 POP POP POP JUMP JUMPDEST PUSH0 DUP3 PUSH1 0x1F DUP4 ADD SLT PUSH2 0x7B4 JUMPI PUSH2 0x7B3 PUSH2 0x691 JUMP JUMPDEST JUMPDEST DUP2 CALLDATALOAD PUSH2 0x7C4 DUP5 DUP3 PUSH1 0x20 DUP7 ADD PUSH2 0x75F JUMP JUMPDEST SWAP2 POP POP SWAP3 SWAP2 POP POP JUMP JUMPDEST PUSH0 PUSH1 0x20 DUP3 DUP5 SUB SLT ISZERO PUSH2 0x7E2 JUMPI PUSH2 0x7E1 PUSH2 0x5D3 JUMP JUMPDEST JUMPDEST PUSH0 DUP3 ADD CALLDATALOAD PUSH8 0xFFFFFFFFFFFFFFFF DUP2 GT ISZERO PUSH2 0x7FF JUMPI PUSH2 0x7FE PUSH2 0x5D7 JUMP JUMPDEST JUMPDEST PUSH2 0x80B DUP5 DUP3 DUP6 ADD PUSH2 0x7A0 JUMP JUMPDEST SWAP2 POP POP SWAP3 SWAP2 POP POP JUMP JUMPDEST PUSH0 DUP2 MLOAD SWAP1 POP SWAP2 SWAP1 POP JUMP JUMPDEST PUSH0 DUP3 DUP3 MSTORE PUSH1 0x20 DUP3 ADD SWAP1 POP SWAP3 SWAP2 POP POP JUMP JUMPDEST DUP3 DUP2 DUP4 MCOPY PUSH0 DUP4 DUP4 ADD MSTORE POP POP POP JUMP JUMPDEST PUSH0 PUSH2 0x846 DUP3 PUSH2 0x814 JUMP JUMPDEST PUSH2 0x850 DUP2 DUP6 PUSH2 0x81E JUMP JUMPDEST SWAP4 POP PUSH2 0x860 DUP2 DUP6 PUSH1 0x20 DUP7 ADD PUSH2 0x82E JUMP JUMPDEST PUSH2 0x869 DUP2 PUSH2 0x699 JUMP JUMPDEST DUP5 ADD SWAP2 POP POP SWAP3 SWAP2 POP POP JUMP JUMPDEST PUSH0 PUSH2 0xFFFF DUP3 AND SWAP1 POP SWAP2 SWAP1 POP JUMP JUMPDEST PUSH2 0x88A DUP2 PUSH2 0x874 JUMP JUMPDEST DUP3 MSTORE POP POP JUMP JUMPDEST PUSH0 PUSH4 0xFFFFFFFF DUP3 AND SWAP1 POP SWAP2 SWAP1 POP JUMP JUMPDEST PUSH2 0x8A8 DUP2 PUSH2 0x890 JUMP JUMPDEST DUP3 MSTORE POP POP JUMP JUMPDEST PUSH0 PUSH1 0x80 DUP3 ADD SWAP1 POP DUP2 DUP2 SUB PUSH0 DUP4 ADD MSTORE PUSH2 0x8C6 DUP2 DUP8 PUSH2 0x83C JUMP JUMPDEST SWAP1 POP PUSH2 0x8D5 PUSH1 0x20 DUP4 ADD DUP7 PUSH2 0x881 JUMP JUMPDEST PUSH2 0x8E2 PUSH1 0x40 DUP4 ADD DUP6 PUSH2 0x89F JUMP JUMPDEST PUSH2 0x8EF PUSH1 0x60 DUP4 ADD DUP5 PUSH2 0x881 JUMP JUMPDEST SWAP6 SWAP5 POP POP POP POP POP JUMP JUMPDEST PUSH2 0x901 DUP2 PUSH2 0x658 JUMP JUMPDEST DUP2 EQ PUSH2 0x90B JUMPI PUSH0 PUSH0 REVERT JUMPDEST POP JUMP JUMPDEST PUSH0 DUP2 CALLDATALOAD SWAP1 POP PUSH2 0x91C DUP2 PUSH2 0x8F8 JUMP JUMPDEST SWAP3 SWAP2 POP POP JUMP JUMPDEST PUSH0 PUSH1 0x20 DUP3 DUP5 SUB SLT ISZERO PUSH2 0x937 JUMPI PUSH2 0x936 PUSH2 0x5D3 JUMP JUMPDEST JUMPDEST PUSH0 PUSH2 0x944 DUP5 DUP3 DUP6 ADD PUSH2 0x90E JUMP JUMPDEST SWAP2 POP POP SWAP3 SWAP2 POP POP JUMP JUMPDEST PUSH32 0x4E487B7100000000000000000000000000000000000000000000000000000000 PUSH0 MSTORE PUSH1 0x22 PUSH1 0x4 MSTORE PUSH1 0x24 PUSH0 REVERT JUMPDEST PUSH0 PUSH1 0x2 DUP3 DIV SWAP1 POP PUSH1 0x1 DUP3 AND DUP1 PUSH2 0x991 JUMPI PUSH1 0x7F DUP3 AND SWAP2 POP JUMPDEST PUSH1 0x20 DUP3 LT DUP2 SUB PUSH2 0x9A4 JUMPI PUSH2 0x9A3 PUSH2 0x94D JUMP JUMPDEST JUMPDEST POP SWAP2 SWAP1 POP JUMP JUMPDEST PUSH0 DUP2 SWAP1 POP DUP2 PUSH0 MSTORE PUSH1 0x20 PUSH0 KECCAK256 SWAP1 POP SWAP2 SWAP1 POP JUMP JUMPDEST PUSH0 PUSH1 0x20 PUSH1 0x1F DUP4 ADD DIV SWAP1 POP SWAP2 SWAP1 POP JUMP JUMPDEST PUSH0 DUP3 DUP3 SHL SWAP1 POP SWAP3 SWAP2 POP POP JUMP JUMPDEST PUSH0 PUSH1 0x8 DUP4 MUL PUSH2 0xA06 PUSH32 0xFFFFFFFFFFFFFFFFFFFFFFFFFFFFFFFFFFFFFFFFFFFFFFFFFFFFFFFFFFFFFFFF DUP3 PUSH2 0x9CB JUMP JUMPDEST PUSH2 0xA10 DUP7 DUP4 PUSH2 0x9CB JUMP JUMPDEST SWAP6 POP DUP1 NOT DUP5 AND SWAP4 POP DUP1 DUP7 AND DUP5 OR SWAP3 POP POP POP SWAP4 SWAP3 POP POP POP JUMP JUMPDEST PUSH0 DUP2 SWAP1 POP SWAP2 SWAP1 POP JUMP JUMPDEST PUSH0 PUSH2 0xA4B PUSH2 0xA46 PUSH2 0xA41 DUP5 PUSH2 0x5DB JUMP JUMPDEST PUSH2 0xA28 JUMP JUMPDEST PUSH2 0x5DB JUMP JUMPDEST SWAP1 POP SWAP2 SWAP1 POP JUMP JUMPDEST PUSH0 DUP2 SWAP1 POP SWAP2 SWAP1 POP JUMP JUMPDEST PUSH2 0xA64 DUP4 PUSH2 0xA31 JUMP JUMPDEST PUSH2 0xA78 PUSH2 0xA70 DUP3 PUSH2 0xA52 JUMP JUMPDEST DUP5 DUP5 SLOAD PUSH2 0x9D7 JUMP JUMPDEST DUP3 SSTORE POP POP POP POP JUMP JUMPDEST PUSH0 PUSH0 SWAP1 POP SWAP1 JUMP JUMPDEST PUSH2 0xA8F PUSH2 0xA80 JUMP JUMPDEST PUSH2 0xA9A DUP2 DUP5 DUP5 PUSH2 0xA5B JUMP JUMPDEST POP POP POP JUMP JUMPDEST JUMPDEST DUP2 DUP2 LT ISZERO PUSH2 0xABD JUMPI PUSH2 0xAB2 PUSH0 DUP3 PUSH2 0xA87 JUMP JUMPDEST PUSH1 0x1 DUP2 ADD SWAP1 POP PUSH2 0xAA0 JUMP JUMPDEST POP POP JUMP JUMPDEST PUSH1 0x1F DUP3 GT ISZERO PUSH2 0xB02 JUMPI PUSH2 0xAD3 DUP2 PUSH2 0x9AA JUMP JUMPDEST PUSH2 0xADC DUP5 PUSH2 0x9BC JUMP JUMPDEST DUP2 ADD PUSH1 0x20 DUP6 LT ISZERO PUSH2 0xAEB JUMPI DUP2 SWAP1 POP JUMPDEST PUSH2 0xAFF PUSH2 0xAF7 DUP6 PUSH2 0x9BC JUMP JUMPDEST DUP4 ADD DUP3 PUSH2 0xA9F JUMP JUMPDEST POP POP JUMPDEST POP POP POP JUMP JUMPDEST PUSH0 DUP3 DUP3 SHR SWAP1 POP SWAP3 SWAP2 POP POP JUMP JUMPDEST PUSH0 PUSH2 0xB22 PUSH0 NOT DUP5 PUSH1 0x8 MUL PUSH2 0xB07 JUMP JUMPDEST NOT DUP1 DUP4 AND SWAP2 POP POP SWAP3 SWAP2 POP POP JUMP JUMPDEST PUSH0 PUSH2 0xB3A DUP4 DUP4 PUSH2 0xB13 JUMP JUMPDEST SWAP2 POP DUP3 PUSH1 0x2 MUL DUP3 OR SWAP1 POP SWAP3 SWAP2 POP POP JUMP JUMPDEST PUSH2 0xB53 DUP3 PUSH2 0x814 JUMP JUMPDEST PUSH8 0xFFFFFFFFFFFFFFFF DUP2 GT ISZERO PUSH2 0xB6C JUMPI PUSH2 0xB6B PUSH2 0x6A9 JUMP JUMPDEST JUMPDEST PUSH2 0xB76 DUP3 SLOAD PUSH2 0x97A JUMP JUMPDEST PUSH2 0xB81 DUP3 DUP3 DUP6 PUSH2 0xAC1 JUMP JUMPDEST PUSH0 PUSH1 0x20 SWAP1 POP PUSH1 0x1F DUP4 GT PUSH1 0x1 DUP2 EQ PUSH2 0xBB2 JUMPI PUSH0 DUP5 ISZERO PUSH2 0xBA0 JUMPI DUP3 DUP8 ADD MLOAD SWAP1 POP JUMPDEST PUSH2 0xBAA DUP6 DUP3 PUSH2 0xB2F JUMP JUMPDEST DUP7 SSTORE POP PUSH2 0xC11 JUMP JUMPDEST PUSH1 0x1F NOT DUP5 AND PUSH2 0xBC0 DUP7 PUSH2 0x9AA JUMP JUMPDEST PUSH0 JUMPDEST DUP3 DUP2 LT ISZERO PUSH2 0xBE7 JUMPI DUP5 DUP10 ADD MLOAD DUP3 SSTORE PUSH1 0x1 DUP3 ADD SWAP2 POP PUSH1 0x20 DUP6 ADD SWAP5 POP PUSH1 0x20 DUP2 ADD SWAP1 POP PUSH2 0xBC2 JUMP JUMPDEST DUP7 DUP4 LT ISZERO PUSH2 0xC04 JUMPI DUP5 DUP10 ADD MLOAD PUSH2 0xC00 PUSH1 0x1F DUP10 AND DUP3 PUSH2 0xB13 JUMP JUMPDEST DUP4 SSTORE POP JUMPDEST PUSH1 0x1 PUSH1 0x2 DUP9 MUL ADD DUP9 SSTORE POP POP POP JUMPDEST POP POP POP POP POP POP JUMP JUMPDEST PUSH32 0x4E487B7100000000000000000000000000000000000000000000000000000000 PUSH0 MSTORE PUSH1 0x11 PUSH1 0x4 MSTORE PUSH1 0x24 PUSH0 REVERT JUMPDEST PUSH0 PUSH2 0xC50 DUP3 PUSH2 0x5DB JUMP JUMPDEST SWAP2 POP PUSH2 0xC5B DUP4 PUSH2 0x5DB JUMP JUMPDEST SWAP3 POP DUP3 DUP3 SUB SWAP1 POP DUP2 DUP2 GT ISZERO PUSH2 0xC73 JUMPI PUSH2 0xC72 PUSH2 0xC19 JUMP JUMPDEST JUMPDEST SWAP3 SWAP2 POP POP JUMP JUMPDEST PUSH2 0xC82 DUP2 PUSH2 0x5DB JUMP JUMPDEST DUP3 MSTORE POP POP JUMP JUMPDEST PUSH0 PUSH1 0x40 DUP3 ADD SWAP1 POP PUSH2 0xC9B PUSH0 DUP4 ADD DUP6 PUSH2 0xC79 JUMP JUMPDEST DUP2 DUP2 SUB PUSH1 0x20 DUP4 ADD MSTORE PUSH2 0xCAD DUP2 DUP5 PUSH2 0x83C JUMP JUMPDEST SWAP1 POP SWAP4 SWAP3 POP POP POP JUMP INVALID LOG2 PUSH5 0x6970667358 0x22 SLT KECCAK256 CALLDATASIZE PUSH13 0xFD23E9EB971B9597D4ACEA4487 LOG1 PUSH30 0xD550A70909D49F5DDD2B5A6720E66864736F6C634300081E003300000000 "
				},
				"gasEstimates": {
					"creation": {
						"codeDepositCost": "661600",
						"executionCost": "infinite",
						"totalCost": "infinite"
					},
					"external": {
						"_registerJudge(string)": "infinite",
						"judgeToOwner(uint256)": "2805",
						"judges(uint256)": "infinite",
						"owner()": "2558",
						"renounceOwnership()": "infinite",
						"transferOwnership(address)": "infinite"
					}
				},
				"methodIdentifiers": {
					"_registerJudge(string)": "5f6fdddf",
					"judgeToOwner(uint256)": "0d292732",
					"judges(uint256)": "b06b0368",
					"owner()": "8da5cb5b",
					"renounceOwnership()": "715018a6",
					"transferOwnership(address)": "f2fde38b"
				}
			},
			"storageLayout": {
				"storage": [
					{
						"astId": 8,
						"contract": "JudgeReg.sol:JudgeReg",
						"label": "_owner",
						"offset": 0,
						"slot": "0",
						"type": "t_address"
					},
					{
						"astId": 209,
						"contract": "JudgeReg.sol:JudgeReg",
						"label": "judges",
						"offset": 0,
						"slot": "1",
						"type": "t_array(t_struct(Judge)205_storage)dyn_storage"
					},
					{
						"astId": 213,
						"contract": "JudgeReg.sol:JudgeReg",
						"label": "judgeToOwner",
						"offset": 0,
						"slot": "2",
						"type": "t_mapping(t_uint256,t_address)"
					},
					{
						"astId": 217,
						"contract": "JudgeReg.sol:JudgeReg",
						"label": "judgeBalance",
						"offset": 0,
						"slot": "3",
						"type": "t_mapping(t_address,t_uint256)"
					}
				],
				"types": {
					"t_address": {
						"encoding": "inplace",
						"label": "address",
						"numberOfBytes": "20"
					},
					"t_array(t_struct(Judge)205_storage)dyn_storage": {
						"base": "t_struct(Judge)205_storage",
						"encoding": "dynamic_array",
						"label": "struct JudgeReg.Judge[]",
						"numberOfBytes": "32"
					},
					"t_mapping(t_address,t_uint256)": {
						"encoding": "mapping",
						"key": "t_address",
						"label": "mapping(address => uint256)",
						"numberOfBytes": "32",
						"value": "t_uint256"
					},
					"t_mapping(t_uint256,t_address)": {
						"encoding": "mapping",
						"key": "t_uint256",
						"label": "mapping(uint256 => address)",
						"numberOfBytes": "32",
						"value": "t_address"
					},
					"t_string_storage": {
						"encoding": "bytes",
						"label": "string",
						"numberOfBytes": "32"
					},
					"t_struct(Judge)205_storage": {
						"encoding": "inplace",
						"label": "struct JudgeReg.Judge",
						"members": [
							{
								"astId": 198,
								"contract": "JudgeReg.sol:JudgeReg",
								"label": "name",
								"offset": 0,
								"slot": "0",
								"type": "t_string_storage"
							},
							{
								"astId": 200,
								"contract": "JudgeReg.sol:JudgeReg",
								"label": "rank",
								"offset": 0,
								"slot": "1",
								"type": "t_uint16"
							},
							{
								"astId": 202,
								"contract": "JudgeReg.sol:JudgeReg",
								"label": "rightDecision",
								"offset": 2,
								"slot": "1",
								"type": "t_uint32"
							},
							{
								"astId": 204,
								"contract": "JudgeReg.sol:JudgeReg",
								"label": "wrongDecision",
								"offset": 6,
								"slot": "1",
								"type": "t_uint16"
							}
						],
						"numberOfBytes": "64"
					},
					"t_uint16": {
						"encoding": "inplace",
						"label": "uint16",
						"numberOfBytes": "2"
					},
					"t_uint256": {
						"encoding": "inplace",
						"label": "uint256",
						"numberOfBytes": "32"
					},
					"t_uint32": {
						"encoding": "inplace",
						"label": "uint32",
						"numberOfBytes": "4"
					}
				}
			},
			"userdoc": {
				"kind": "user",
				"methods": {},
				"version": 1
			}
		}
	}
}