{
	"FighterReg.sol": {
		"FighterReg": {
			"abi": [
				{
					"inputs": [
						{
							"internalType": "address",
							"name": "owner",
							"type": "address"
						}
					],
					"name": "OwnableInvalidOwner",
					"type": "error"
				},
				{
					"inputs": [
						{
							"internalType": "address",
							"name": "account",
							"type": "address"
						}
					],
					"name": "OwnableUnauthorizedAccount",
					"type": "error"
				},
				{
					"anonymous": false,
					"inputs": [
						{
							"indexed": false,
							"internalType": "uint256",
							"name": "fighterId",
							"type": "uint256"
						},
						{
							"indexed": false,
							"internalType": "string",
							"name": "fighterName",
							"type": "string"
						}
					],
					"name": "NewFighter",
					"type": "event"
				},
				{
					"anonymous": false,
					"inputs": [
						{
							"indexed": false,
							"internalType": "uint256",
							"name": "judgeId",
							"type": "uint256"
						},
						{
							"indexed": false,
							"internalType": "string",
							"name": "judgeName",
							"type": "string"
						}
					],
					"name": "NewJudge",
					"type": "event"
				},
				{
					"anonymous": false,
					"inputs": [
						{
							"indexed": true,
							"internalType": "address",
							"name": "previousOwner",
							"type": "address"
						},
						{
							"indexed": true,
							"internalType": "address",
							"name": "newOwner",
							"type": "address"
						}
					],
					"name": "OwnershipTransferred",
					"type": "event"
				},
				{
					"inputs": [
						{
							"internalType": "string",
							"name": "_name",
							"type": "string"
						}
					],
					"name": "_registerJudge",
					"outputs": [],
					"stateMutability": "nonpayable",
					"type": "function"
				},
				{
					"inputs": [
						{
							"internalType": "uint256",
							"name": "",
							"type": "uint256"
						}
					],
					"name": "fighterToOwner",
					"outputs": [
						{
							"internalType": "address",
							"name": "",
							"type": "address"
						}
					],
					"stateMutability": "view",
					"type": "function"
				},
				{
					"inputs": [
						{
							"internalType": "uint256",
							"name": "",
							"type": "uint256"
						}
					],
					"name": "fighters",
					"outputs": [
						{
							"internalType": "string",
							"name": "name",
							"type": "string"
						},
						{
							"internalType": "uint32",
							"name": "win",
							"type": "uint32"
						},
						{
							"internalType": "uint32",
							"name": "loss",
							"type": "uint32"
						},
						{
							"internalType": "uint32",
							"name": "draw",
							"type": "uint32"
						},
						{
							"internalType": "uint16",
							"name": "noContest",
							"type": "uint16"
						},
						{
							"internalType": "uint8",
							"name": "weightCategoryLbs",
							"type": "uint8"
						}
					],
					"stateMutability": "view",
					"type": "function"
				},
				{
					"inputs": [
						{
							"internalType": "uint256",
							"name": "",
							"type": "uint256"
						}
					],
					"name": "judgeToOwner",
					"outputs": [
						{
							"internalType": "address",
							"name": "",
							"type": "address"
						}
					],
					"stateMutability": "view",
					"type": "function"
				},
				{
					"inputs": [
						{
							"internalType": "uint256",
							"name": "",
							"type": "uint256"
						}
					],
					"name": "judges",
					"outputs": [
						{
							"internalType": "string",
							"name": "name",
							"type": "string"
						},
						{
							"internalType": "uint16",
							"name": "rank",
							"type": "uint16"
						},
						{
							"internalType": "uint32",
							"name": "rightDecision",
							"type": "uint32"
						},
						{
							"internalType": "uint16",
							"name": "wrongDecision",
							"type": "uint16"
						}
					],
					"stateMutability": "view",
					"type": "function"
				},
				{
					"inputs": [],
					"name": "owner",
					"outputs": [
						{
							"internalType": "address",
							"name": "",
							"type": "address"
						}
					],
					"stateMutability": "view",
					"type": "function"
				},
				{
					"inputs": [],
					"name": "renounceOwnership",
					"outputs": [],
					"stateMutability": "nonpayable",
					"type": "function"
				},
				{
					"inputs": [
						{
							"internalType": "address",
							"name": "newOwner",
							"type": "address"
						}
					],
					"name": "transferOwnership",
					"outputs": [],
					"stateMutability": "nonpayable",
					"type": "function"
				}
			],
			"devdoc": {
				"errors": {
					"OwnableInvalidOwner(address)": [
						{
							"details": "The owner is not a valid owner account. (eg. `address(0)`)"
						}
					],
					"OwnableUnauthorizedAccount(address)": [
						{
							"details": "The caller account is not authorized to perform an operation."
						}
					]
				},
				"kind": "dev",
				"methods": {
					"owner()": {
						"details": "Returns the address of the current owner."
					},
					"renounceOwnership()": {
						"details": "Leaves the contract without owner. It will not be possible to call `onlyOwner` functions. Can only be called by the current owner. NOTE: Renouncing ownership will leave the contract without an owner, thereby disabling any functionality that is only available to the owner."
					},
					"transferOwnership(address)": {
						"details": "Transfers ownership of the contract to a new account (`newOwner`). Can only be called by the current owner."
					}
				},
				"version": 1
			},
			"evm": {
				"assembly": "    /* \"FighterReg.sol\":92:1471  contract FighterReg is JudgeReg {... */\n  mstore(0x40, 0x80)\n  callvalue\n  dup1\n  iszero\n  tag_1\n  jumpi\n  revert(0x00, 0x00)\ntag_1:\n  pop\n    /* \"JudgeReg.sol\":245:255  msg.sender */\n  caller\n    /* \"@openzeppelin/contracts/access/Ownable.sol\":1297:1298  0 */\n  0x00\n    /* \"@openzeppelin/contracts/access/Ownable.sol\":1273:1299  initialOwner == address(0) */\n  0xffffffffffffffffffffffffffffffffffffffff\n  and\n    /* \"@openzeppelin/contracts/access/Ownable.sol\":1273:1285  initialOwner */\n  dup2\n    /* \"@openzeppelin/contracts/access/Ownable.sol\":1273:1299  initialOwner == address(0) */\n  0xffffffffffffffffffffffffffffffffffffffff\n  and\n  sub\n    /* \"@openzeppelin/contracts/access/Ownable.sol\":1269:1364  if (initialOwner == address(0)) {... */\n  tag_5\n  jumpi\n    /* \"@openzeppelin/contracts/access/Ownable.sol\":1350:1351  0 */\n  0x00\n    /* \"@openzeppelin/contracts/access/Ownable.sol\":1322:1353  OwnableInvalidOwner(address(0)) */\n  mload(0x40)\n  0x1e4fbdf700000000000000000000000000000000000000000000000000000000\n  dup2\n  mstore\n  0x04\n  add\n  tag_6\n  swap2\n  swap1\n  tag_7\n  jump\t// in\ntag_6:\n  mload(0x40)\n  dup1\n  swap2\n  sub\n  swap1\n  revert\n    /* \"@openzeppelin/contracts/access/Ownable.sol\":1269:1364  if (initialOwner == address(0)) {... */\ntag_5:\n    /* \"@openzeppelin/contracts/access/Ownable.sol\":1373:1405  _transferOwnership(initialOwner) */\n  tag_8\n    /* \"@openzeppelin/contracts/access/Ownable.sol\":1392:1404  initialOwner */\n  dup2\n    /* \"@openzeppelin/contracts/access/Ownable.sol\":1373:1391  _transferOwnership */\n  shl(0x20, tag_9)\n    /* \"@openzeppelin/contracts/access/Ownable.sol\":1373:1405  _transferOwnership(initialOwner) */\n  0x20\n  shr\n  jump\t// in\ntag_8:\n    /* \"@openzeppelin/contracts/access/Ownable.sol\":1225:1412  constructor(address initialOwner) {... */\n  pop\n    /* \"FighterReg.sol\":92:1471  contract FighterReg is JudgeReg {... */\n  jump(tag_11)\n    /* \"@openzeppelin/contracts/access/Ownable.sol\":2912:3099  function _transferOwnership(address newOwner) internal virtual {... */\ntag_9:\n    /* \"@openzeppelin/contracts/access/Ownable.sol\":2985:3001  address oldOwner */\n  0x00\n    /* \"@openzeppelin/contracts/access/Ownable.sol\":3004:3010  _owner */\n  0x00\n  0x00\n  swap1\n  sload\n  swap1\n  0x0100\n  exp\n  swap1\n  div\n  0xffffffffffffffffffffffffffffffffffffffff\n  and\n    /* \"@openzeppelin/contracts/access/Ownable.sol\":2985:3010  address oldOwner = _owner */\n  swap1\n  pop\n    /* \"@openzeppelin/contracts/access/Ownable.sol\":3029:3037  newOwner */\n  dup2\n    /* \"@openzeppelin/contracts/access/Ownable.sol\":3020:3026  _owner */\n  0x00\n  0x00\n    /* \"@openzeppelin/contracts/access/Ownable.sol\":3020:3037  _owner = newOwner */\n  0x0100\n  exp\n  dup2\n  sload\n  dup2\n  0xffffffffffffffffffffffffffffffffffffffff\n  mul\n  not\n  and\n  swap1\n  dup4\n  0xffffffffffffffffffffffffffffffffffffffff\n  and\n  mul\n  or\n  swap1\n  sstore\n  pop\n    /* \"@openzeppelin/contracts/access/Ownable.sol\":3083:3091  newOwner */\n  dup2\n    /* \"@openzeppelin/contracts/access/Ownable.sol\":3052:3092  OwnershipTransferred(oldOwner, newOwner) */\n  0xffffffffffffffffffffffffffffffffffffffff\n  and\n    /* \"@openzeppelin/contracts/access/Ownable.sol\":3073:3081  oldOwner */\n  dup2\n    /* \"@openzeppelin/contracts/access/Ownable.sol\":3052:3092  OwnershipTransferred(oldOwner, newOwner) */\n  0xffffffffffffffffffffffffffffffffffffffff\n  and\n  0x8be0079c531659141344cd1fd0a4f28419497f9722a3daafe3b4186f6b6457e0\n  mload(0x40)\n  mload(0x40)\n  dup1\n  swap2\n  sub\n  swap1\n  log3\n    /* \"@openzeppelin/contracts/access/Ownable.sol\":2975:3099  {... */\n  pop\n    /* \"@openzeppelin/contracts/access/Ownable.sol\":2912:3099  function _transferOwnership(address newOwner) internal virtual {... */\n  pop\n  jump\t// out\n    /* \"#utility.yul\":7:133   */\ntag_13:\n    /* \"#utility.yul\":44:51   */\n  0x00\n    /* \"#utility.yul\":84:126   */\n  0xffffffffffffffffffffffffffffffffffffffff\n    /* \"#utility.yul\":77:82   */\n  dup3\n    /* \"#utility.yul\":73:127   */\n  and\n    /* \"#utility.yul\":62:127   */\n  swap1\n  pop\n    /* \"#utility.yul\":7:133   */\n  swap2\n  swap1\n  pop\n  jump\t// out\n    /* \"#utility.yul\":139:235   */\ntag_14:\n    /* \"#utility.yul\":176:183   */\n  0x00\n    /* \"#utility.yul\":205:229   */\n  tag_19\n    /* \"#utility.yul\":223:228   */\n  dup3\n    /* \"#utility.yul\":205:229   */\n  tag_13\n  jump\t// in\ntag_19:\n    /* \"#utility.yul\":194:229   */\n  swap1\n  pop\n    /* \"#utility.yul\":139:235   */\n  swap2\n  swap1\n  pop\n  jump\t// out\n    /* \"#utility.yul\":241:359   */\ntag_15:\n    /* \"#utility.yul\":328:352   */\n  tag_21\n    /* \"#utility.yul\":346:351   */\n  dup2\n    /* \"#utility.yul\":328:352   */\n  tag_14\n  jump\t// in\ntag_21:\n    /* \"#utility.yul\":323:326   */\n  dup3\n    /* \"#utility.yul\":316:353   */\n  mstore\n    /* \"#utility.yul\":241:359   */\n  pop\n  pop\n  jump\t// out\n    /* \"#utility.yul\":365:587   */\ntag_7:\n    /* \"#utility.yul\":458:462   */\n  0x00\n    /* \"#utility.yul\":496:498   */\n  0x20\n    /* \"#utility.yul\":485:494   */\n  dup3\n    /* \"#utility.yul\":481:499   */\n  add\n    /* \"#utility.yul\":473:499   */\n  swap1\n  pop\n    /* \"#utility.yul\":509:580   */\n  tag_23\n    /* \"#utility.yul\":577:578   */\n  0x00\n    /* \"#utility.yul\":566:575   */\n  dup4\n    /* \"#utility.yul\":562:579   */\n  add\n    /* \"#utility.yul\":553:559   */\n  dup5\n    /* \"#utility.yul\":509:580   */\n  tag_15\n  jump\t// in\ntag_23:\n    /* \"#utility.yul\":365:587   */\n  swap3\n  swap2\n  pop\n  pop\n  jump\t// out\n    /* \"FighterReg.sol\":92:1471  contract FighterReg is JudgeReg {... */\ntag_11:\n  dataSize(sub_0)\n  dup1\n  dataOffset(sub_0)\n  0x00\n  codecopy\n  0x00\n  return\nstop\n\nsub_0: assembly {\n        /* \"FighterReg.sol\":92:1471  contract FighterReg is JudgeReg {... */\n      mstore(0x40, 0x80)\n      callvalue\n      dup1\n      iszero\n      tag_1\n      jumpi\n      revert(0x00, 0x00)\n    tag_1:\n      pop\n      jumpi(tag_2, lt(calldatasize, 0x04))\n      shr(0xe0, calldataload(0x00))\n      dup1\n      0x715018a6\n      gt\n      tag_11\n      jumpi\n      dup1\n      0x715018a6\n      eq\n      tag_7\n      jumpi\n      dup1\n      0x8da5cb5b\n      eq\n      tag_8\n      jumpi\n      dup1\n      0xb06b0368\n      eq\n      tag_9\n      jumpi\n      dup1\n      0xf2fde38b\n      eq\n      tag_10\n      jumpi\n      jump(tag_2)\n    tag_11:\n      dup1\n      0x0d292732\n      eq\n      tag_3\n      jumpi\n      dup1\n      0x2e6b221d\n      eq\n      tag_4\n      jumpi\n      dup1\n      0x3824fbec\n      eq\n      tag_5\n      jumpi\n      dup1\n      0x5f6fdddf\n      eq\n      tag_6\n      jumpi\n    tag_2:\n      revert(0x00, 0x00)\n        /* \"JudgeReg.sol\":738:783  mapping (uint => address) public judgeToOwner */\n    tag_3:\n      tag_12\n      0x04\n      dup1\n      calldatasize\n      sub\n      dup2\n      add\n      swap1\n      tag_13\n      swap2\n      swap1\n      tag_14\n      jump\t// in\n    tag_13:\n      tag_15\n      jump\t// in\n    tag_12:\n      mload(0x40)\n      tag_16\n      swap2\n      swap1\n      tag_17\n      jump\t// in\n    tag_16:\n      mload(0x40)\n      dup1\n      swap2\n      sub\n      swap1\n      return\n        /* \"FighterReg.sol\":644:672  MMAfighter[] public fighters */\n    tag_4:\n      tag_18\n      0x04\n      dup1\n      calldatasize\n      sub\n      dup2\n      add\n      swap1\n      tag_19\n      swap2\n      swap1\n      tag_14\n      jump\t// in\n    tag_19:\n      tag_20\n      jump\t// in\n    tag_18:\n      mload(0x40)\n      tag_21\n      swap7\n      swap6\n      swap5\n      swap4\n      swap3\n      swap2\n      swap1\n      tag_22\n      jump\t// in\n    tag_21:\n      mload(0x40)\n      dup1\n      swap2\n      sub\n      swap1\n      return\n        /* \"FighterReg.sol\":745:792  mapping (uint => address) public fighterToOwner */\n    tag_5:\n      tag_23\n      0x04\n      dup1\n      calldatasize\n      sub\n      dup2\n      add\n      swap1\n      tag_24\n      swap2\n      swap1\n      tag_14\n      jump\t// in\n    tag_24:\n      tag_25\n      jump\t// in\n    tag_23:\n      mload(0x40)\n      tag_26\n      swap2\n      swap1\n      tag_17\n      jump\t// in\n    tag_26:\n      mload(0x40)\n      dup1\n      swap2\n      sub\n      swap1\n      return\n        /* \"JudgeReg.sol\":1107:1329  function _registerJudge(string memory _name) public  {... */\n    tag_6:\n      tag_27\n      0x04\n      dup1\n      calldatasize\n      sub\n      dup2\n      add\n      swap1\n      tag_28\n      swap2\n      swap1\n      tag_29\n      jump\t// in\n    tag_28:\n      tag_30\n      jump\t// in\n    tag_27:\n      stop\n        /* \"@openzeppelin/contracts/access/Ownable.sol\":2293:2394  function renounceOwnership() public virtual onlyOwner {... */\n    tag_7:\n      tag_31\n      tag_32\n      jump\t// in\n    tag_31:\n      stop\n        /* \"@openzeppelin/contracts/access/Ownable.sol\":1638:1723  function owner() public view virtual returns (address) {... */\n    tag_8:\n      tag_33\n      tag_34\n      jump\t// in\n    tag_33:\n      mload(0x40)\n      tag_35\n      swap2\n      swap1\n      tag_17\n      jump\t// in\n    tag_35:\n      mload(0x40)\n      dup1\n      swap2\n      sub\n      swap1\n      return\n        /* \"JudgeReg.sol\":644:665  Judge[] public judges */\n    tag_9:\n      tag_36\n      0x04\n      dup1\n      calldatasize\n      sub\n      dup2\n      add\n      swap1\n      tag_37\n      swap2\n      swap1\n      tag_14\n      jump\t// in\n    tag_37:\n      tag_38\n      jump\t// in\n    tag_36:\n      mload(0x40)\n      tag_39\n      swap5\n      swap4\n      swap3\n      swap2\n      swap1\n      tag_40\n      jump\t// in\n    tag_39:\n      mload(0x40)\n      dup1\n      swap2\n      sub\n      swap1\n      return\n        /* \"@openzeppelin/contracts/access/Ownable.sol\":2543:2758  function transferOwnership(address newOwner) public virtual onlyOwner {... */\n    tag_10:\n      tag_41\n      0x04\n      dup1\n      calldatasize\n      sub\n      dup2\n      add\n      swap1\n      tag_42\n      swap2\n      swap1\n      tag_43\n      jump\t// in\n    tag_42:\n      tag_44\n      jump\t// in\n    tag_41:\n      stop\n        /* \"JudgeReg.sol\":738:783  mapping (uint => address) public judgeToOwner */\n    tag_15:\n      mstore(0x20, 0x02)\n      dup1\n      0x00\n      mstore\n      keccak256(0x00, 0x40)\n      0x00\n      swap2\n      pop\n      sload\n      swap1\n      0x0100\n      exp\n      swap1\n      div\n      0xffffffffffffffffffffffffffffffffffffffff\n      and\n      dup2\n      jump\t// out\n        /* \"FighterReg.sol\":644:672  MMAfighter[] public fighters */\n    tag_20:\n      0x04\n      dup2\n      dup2\n      sload\n      dup2\n      lt\n      tag_45\n      jumpi\n      0x00\n      dup1\n      revert\n    tag_45:\n      swap1\n      0x00\n      mstore\n      keccak256(0x00, 0x20)\n      swap1\n      0x02\n      mul\n      add\n      0x00\n      swap2\n      pop\n      swap1\n      pop\n      dup1\n      0x00\n      add\n      dup1\n      sload\n      tag_47\n      swap1\n      tag_48\n      jump\t// in\n    tag_47:\n      dup1\n      0x1f\n      add\n      0x20\n      dup1\n      swap2\n      div\n      mul\n      0x20\n      add\n      mload(0x40)\n      swap1\n      dup2\n      add\n      0x40\n      mstore\n      dup1\n      swap3\n      swap2\n      swap1\n      dup2\n      dup2\n      mstore\n      0x20\n      add\n      dup3\n      dup1\n      sload\n      tag_49\n      swap1\n      tag_48\n      jump\t// in\n    tag_49:\n      dup1\n      iszero\n      tag_50\n      jumpi\n      dup1\n      0x1f\n      lt\n      tag_51\n      jumpi\n      0x0100\n      dup1\n      dup4\n      sload\n      div\n      mul\n      dup4\n      mstore\n      swap2\n      0x20\n      add\n      swap2\n      jump(tag_50)\n    tag_51:\n      dup3\n      add\n      swap2\n      swap1\n      0x00\n      mstore\n      keccak256(0x00, 0x20)\n      swap1\n    tag_52:\n      dup2\n      sload\n      dup2\n      mstore\n      swap1\n      0x01\n      add\n      swap1\n      0x20\n      add\n      dup1\n      dup4\n      gt\n      tag_52\n      jumpi\n      dup3\n      swap1\n      sub\n      0x1f\n      and\n      dup3\n      add\n      swap2\n    tag_50:\n      pop\n      pop\n      pop\n      pop\n      pop\n      swap1\n      dup1\n      0x01\n      add\n      0x00\n      swap1\n      sload\n      swap1\n      0x0100\n      exp\n      swap1\n      div\n      0xffffffff\n      and\n      swap1\n      dup1\n      0x01\n      add\n      0x04\n      swap1\n      sload\n      swap1\n      0x0100\n      exp\n      swap1\n      div\n      0xffffffff\n      and\n      swap1\n      dup1\n      0x01\n      add\n      0x08\n      swap1\n      sload\n      swap1\n      0x0100\n      exp\n      swap1\n      div\n      0xffffffff\n      and\n      swap1\n      dup1\n      0x01\n      add\n      0x0c\n      swap1\n      sload\n      swap1\n      0x0100\n      exp\n      swap1\n      div\n      0xffff\n      and\n      swap1\n      dup1\n      0x01\n      add\n      0x0e\n      swap1\n      sload\n      swap1\n      0x0100\n      exp\n      swap1\n      div\n      0xff\n      and\n      swap1\n      pop\n      dup7\n      jump\t// out\n        /* \"FighterReg.sol\":745:792  mapping (uint => address) public fighterToOwner */\n    tag_25:\n      mstore(0x20, 0x05)\n      dup1\n      0x00\n      mstore\n      keccak256(0x00, 0x40)\n      0x00\n      swap2\n      pop\n      sload\n      swap1\n      0x0100\n      exp\n      swap1\n      div\n      0xffffffffffffffffffffffffffffffffffffffff\n      and\n      dup2\n      jump\t// out\n        /* \"JudgeReg.sol\":1107:1329  function _registerJudge(string memory _name) public  {... */\n    tag_30:\n        /* \"JudgeReg.sol\":1171:1177  judges */\n      0x01\n        /* \"JudgeReg.sol\":1183:1204  Judge(_name, 1, 0, 0) */\n      mload(0x40)\n      dup1\n      0x80\n      add\n      0x40\n      mstore\n      dup1\n        /* \"JudgeReg.sol\":1189:1194  _name */\n      dup4\n        /* \"JudgeReg.sol\":1183:1204  Judge(_name, 1, 0, 0) */\n      dup2\n      mstore\n      0x20\n      add\n        /* \"JudgeReg.sol\":1196:1197  1 */\n      0x01\n        /* \"JudgeReg.sol\":1183:1204  Judge(_name, 1, 0, 0) */\n      0xffff\n      and\n      dup2\n      mstore\n      0x20\n      add\n        /* \"JudgeReg.sol\":1199:1200  0 */\n      0x00\n        /* \"JudgeReg.sol\":1183:1204  Judge(_name, 1, 0, 0) */\n      0xffffffff\n      and\n      dup2\n      mstore\n      0x20\n      add\n        /* \"JudgeReg.sol\":1202:1203  0 */\n      0x00\n        /* \"JudgeReg.sol\":1183:1204  Judge(_name, 1, 0, 0) */\n      0xffff\n      and\n      dup2\n      mstore\n      pop\n        /* \"JudgeReg.sol\":1171:1205  judges.push(Judge(_name, 1, 0, 0)) */\n      swap1\n      dup1\n      0x01\n      dup2\n      sload\n      add\n      dup1\n      dup3\n      sstore\n      dup1\n      swap2\n      pop\n      pop\n      0x01\n      swap1\n      sub\n      swap1\n      0x00\n      mstore\n      keccak256(0x00, 0x20)\n      swap1\n      0x02\n      mul\n      add\n      0x00\n      swap1\n      swap2\n      swap1\n      swap2\n      swap1\n      swap2\n      pop\n      0x00\n      dup3\n      add\n      mload\n      dup2\n      0x00\n      add\n      swap1\n      dup2\n      tag_55\n      swap2\n      swap1\n      tag_56\n      jump\t// in\n    tag_55:\n      pop\n      0x20\n      dup3\n      add\n      mload\n      dup2\n      0x01\n      add\n      exp(0x0100, 0x00)\n      dup2\n      sload\n      dup2\n      0xffff\n      mul\n      not\n      and\n      swap1\n      dup4\n      0xffff\n      and\n      mul\n      or\n      swap1\n      sstore\n      pop\n      0x40\n      dup3\n      add\n      mload\n      dup2\n      0x01\n      add\n      exp(0x0100, 0x02)\n      dup2\n      sload\n      dup2\n      0xffffffff\n      mul\n      not\n      and\n      swap1\n      dup4\n      0xffffffff\n      and\n      mul\n      or\n      swap1\n      sstore\n      pop\n      0x60\n      dup3\n      add\n      mload\n      dup2\n      0x01\n      add\n      exp(0x0100, 0x06)\n      dup2\n      sload\n      dup2\n      0xffff\n      mul\n      not\n      and\n      swap1\n      dup4\n      0xffff\n      and\n      mul\n      or\n      swap1\n      sstore\n      pop\n      pop\n      pop\n        /* \"JudgeReg.sol\":1216:1226  uint256 id */\n      0x00\n        /* \"JudgeReg.sol\":1245:1246  1 */\n      0x01\n        /* \"JudgeReg.sol\":1229:1235  judges */\n      dup1\n        /* \"JudgeReg.sol\":1229:1242  judges.length */\n      dup1\n      sload\n      swap1\n      pop\n        /* \"JudgeReg.sol\":1229:1246  judges.length - 1 */\n      tag_57\n      swap2\n      swap1\n      tag_58\n      jump\t// in\n    tag_57:\n        /* \"JudgeReg.sol\":1216:1246  uint256 id = judges.length - 1 */\n      swap1\n      pop\n        /* \"JudgeReg.sol\":1276:1286  msg.sender */\n      caller\n        /* \"JudgeReg.sol\":1257:1269  judgeToOwner */\n      0x02\n        /* \"JudgeReg.sol\":1257:1273  judgeToOwner[id] */\n      0x00\n        /* \"JudgeReg.sol\":1270:1272  id */\n      dup4\n        /* \"JudgeReg.sol\":1257:1273  judgeToOwner[id] */\n      dup2\n      mstore\n      0x20\n      add\n      swap1\n      dup2\n      mstore\n      0x20\n      add\n      0x00\n      keccak256\n      0x00\n        /* \"JudgeReg.sol\":1257:1286  judgeToOwner[id] = msg.sender */\n      0x0100\n      exp\n      dup2\n      sload\n      dup2\n      0xffffffffffffffffffffffffffffffffffffffff\n      mul\n      not\n      and\n      swap1\n      dup4\n      0xffffffffffffffffffffffffffffffffffffffff\n      and\n      mul\n      or\n      swap1\n      sstore\n      pop\n        /* \"JudgeReg.sol\":1302:1321  NewJudge(id, _name) */\n      0x41b82268d4cfcb7bde62bae060583c745a4821f267e1fe541b5f624e00d43c7d\n        /* \"JudgeReg.sol\":1311:1313  id */\n      dup2\n        /* \"JudgeReg.sol\":1315:1320  _name */\n      dup4\n        /* \"JudgeReg.sol\":1302:1321  NewJudge(id, _name) */\n      mload(0x40)\n      tag_59\n      swap3\n      swap2\n      swap1\n      tag_60\n      jump\t// in\n    tag_59:\n      mload(0x40)\n      dup1\n      swap2\n      sub\n      swap1\n      log1\n        /* \"JudgeReg.sol\":1160:1329  {... */\n      pop\n        /* \"JudgeReg.sol\":1107:1329  function _registerJudge(string memory _name) public  {... */\n      pop\n      jump\t// out\n        /* \"@openzeppelin/contracts/access/Ownable.sol\":2293:2394  function renounceOwnership() public virtual onlyOwner {... */\n    tag_32:\n        /* \"@openzeppelin/contracts/access/Ownable.sol\":1531:1544  _checkOwner() */\n      tag_62\n        /* \"@openzeppelin/contracts/access/Ownable.sol\":1531:1542  _checkOwner */\n      tag_63\n        /* \"@openzeppelin/contracts/access/Ownable.sol\":1531:1544  _checkOwner() */\n      jump\t// in\n    tag_62:\n        /* \"@openzeppelin/contracts/access/Ownable.sol\":2357:2387  _transferOwnership(address(0)) */\n      tag_65\n        /* \"@openzeppelin/contracts/access/Ownable.sol\":2384:2385  0 */\n      0x00\n        /* \"@openzeppelin/contracts/access/Ownable.sol\":2357:2375  _transferOwnership */\n      tag_66\n        /* \"@openzeppelin/contracts/access/Ownable.sol\":2357:2387  _transferOwnership(address(0)) */\n      jump\t// in\n    tag_65:\n        /* \"@openzeppelin/contracts/access/Ownable.sol\":2293:2394  function renounceOwnership() public virtual onlyOwner {... */\n      jump\t// out\n        /* \"@openzeppelin/contracts/access/Ownable.sol\":1638:1723  function owner() public view virtual returns (address) {... */\n    tag_34:\n        /* \"@openzeppelin/contracts/access/Ownable.sol\":1684:1691  address */\n      0x00\n        /* \"@openzeppelin/contracts/access/Ownable.sol\":1710:1716  _owner */\n      0x00\n      0x00\n      swap1\n      sload\n      swap1\n      0x0100\n      exp\n      swap1\n      div\n      0xffffffffffffffffffffffffffffffffffffffff\n      and\n        /* \"@openzeppelin/contracts/access/Ownable.sol\":1703:1716  return _owner */\n      swap1\n      pop\n        /* \"@openzeppelin/contracts/access/Ownable.sol\":1638:1723  function owner() public view virtual returns (address) {... */\n      swap1\n      jump\t// out\n        /* \"JudgeReg.sol\":644:665  Judge[] public judges */\n    tag_38:\n      0x01\n      dup2\n      dup2\n      sload\n      dup2\n      lt\n      tag_68\n      jumpi\n      0x00\n      dup1\n      revert\n    tag_68:\n      swap1\n      0x00\n      mstore\n      keccak256(0x00, 0x20)\n      swap1\n      0x02\n      mul\n      add\n      0x00\n      swap2\n      pop\n      swap1\n      pop\n      dup1\n      0x00\n      add\n      dup1\n      sload\n      tag_70\n      swap1\n      tag_48\n      jump\t// in\n    tag_70:\n      dup1\n      0x1f\n      add\n      0x20\n      dup1\n      swap2\n      div\n      mul\n      0x20\n      add\n      mload(0x40)\n      swap1\n      dup2\n      add\n      0x40\n      mstore\n      dup1\n      swap3\n      swap2\n      swap1\n      dup2\n      dup2\n      mstore\n      0x20\n      add\n      dup3\n      dup1\n      sload\n      tag_71\n      swap1\n      tag_48\n      jump\t// in\n    tag_71:\n      dup1\n      iszero\n      tag_72\n      jumpi\n      dup1\n      0x1f\n      lt\n      tag_73\n      jumpi\n      0x0100\n      dup1\n      dup4\n      sload\n      div\n      mul\n      dup4\n      mstore\n      swap2\n      0x20\n      add\n      swap2\n      jump(tag_72)\n    tag_73:\n      dup3\n      add\n      swap2\n      swap1\n      0x00\n      mstore\n      keccak256(0x00, 0x20)\n      swap1\n    tag_74:\n      dup2\n      sload\n      dup2\n      mstore\n      swap1\n      0x01\n      add\n      swap1\n      0x20\n      add\n      dup1\n      dup4\n      gt\n      tag_74\n      jumpi\n      dup3\n      swap1\n      sub\n      0x1f\n      and\n      dup3\n      add\n      swap2\n    tag_72:\n      pop\n      pop\n      pop\n      pop\n      pop\n      swap1\n      dup1\n      0x01\n      add\n      0x00\n      swap1\n      sload\n      swap1\n      0x0100\n      exp\n      swap1\n      div\n      0xffff\n      and\n      swap1\n      dup1\n      0x01\n      add\n      0x02\n      swap1\n      sload\n      swap1\n      0x0100\n      exp\n      swap1\n      div\n      0xffffffff\n      and\n      swap1\n      dup1\n      0x01\n      add\n      0x06\n      swap1\n      sload\n      swap1\n      0x0100\n      exp\n      swap1\n      div\n      0xffff\n      and\n      swap1\n      pop\n      dup5\n      jump\t// out\n        /* \"@openzeppelin/contracts/access/Ownable.sol\":2543:2758  function transferOwnership(address newOwner) public virtual onlyOwner {... */\n    tag_44:\n        /* \"@openzeppelin/contracts/access/Ownable.sol\":1531:1544  _checkOwner() */\n      tag_76\n        /* \"@openzeppelin/contracts/access/Ownable.sol\":1531:1542  _checkOwner */\n      tag_63\n        /* \"@openzeppelin/contracts/access/Ownable.sol\":1531:1544  _checkOwner() */\n      jump\t// in\n    tag_76:\n        /* \"@openzeppelin/contracts/access/Ownable.sol\":2647:2648  0 */\n      0x00\n        /* \"@openzeppelin/contracts/access/Ownable.sol\":2627:2649  newOwner == address(0) */\n      0xffffffffffffffffffffffffffffffffffffffff\n      and\n        /* \"@openzeppelin/contracts/access/Ownable.sol\":2627:2635  newOwner */\n      dup2\n        /* \"@openzeppelin/contracts/access/Ownable.sol\":2627:2649  newOwner == address(0) */\n      0xffffffffffffffffffffffffffffffffffffffff\n      and\n      sub\n        /* \"@openzeppelin/contracts/access/Ownable.sol\":2623:2714  if (newOwner == address(0)) {... */\n      tag_78\n      jumpi\n        /* \"@openzeppelin/contracts/access/Ownable.sol\":2700:2701  0 */\n      0x00\n        /* \"@openzeppelin/contracts/access/Ownable.sol\":2672:2703  OwnableInvalidOwner(address(0)) */\n      mload(0x40)\n      0x1e4fbdf700000000000000000000000000000000000000000000000000000000\n      dup2\n      mstore\n      0x04\n      add\n      tag_79\n      swap2\n      swap1\n      tag_17\n      jump\t// in\n    tag_79:\n      mload(0x40)\n      dup1\n      swap2\n      sub\n      swap1\n      revert\n        /* \"@openzeppelin/contracts/access/Ownable.sol\":2623:2714  if (newOwner == address(0)) {... */\n    tag_78:\n        /* \"@openzeppelin/contracts/access/Ownable.sol\":2723:2751  _transferOwnership(newOwner) */\n      tag_80\n        /* \"@openzeppelin/contracts/access/Ownable.sol\":2742:2750  newOwner */\n      dup2\n        /* \"@openzeppelin/contracts/access/Ownable.sol\":2723:2741  _transferOwnership */\n      tag_66\n        /* \"@openzeppelin/contracts/access/Ownable.sol\":2723:2751  _transferOwnership(newOwner) */\n      jump\t// in\n    tag_80:\n        /* \"@openzeppelin/contracts/access/Ownable.sol\":2543:2758  function transferOwnership(address newOwner) public virtual onlyOwner {... */\n      pop\n      jump\t// out\n        /* \"@openzeppelin/contracts/access/Ownable.sol\":1796:1958  function _checkOwner() internal view virtual {... */\n    tag_63:\n        /* \"@openzeppelin/contracts/access/Ownable.sol\":1866:1878  _msgSender() */\n      tag_82\n        /* \"@openzeppelin/contracts/access/Ownable.sol\":1866:1876  _msgSender */\n      tag_83\n        /* \"@openzeppelin/contracts/access/Ownable.sol\":1866:1878  _msgSender() */\n      jump\t// in\n    tag_82:\n        /* \"@openzeppelin/contracts/access/Ownable.sol\":1855:1878  owner() != _msgSender() */\n      0xffffffffffffffffffffffffffffffffffffffff\n      and\n        /* \"@openzeppelin/contracts/access/Ownable.sol\":1855:1862  owner() */\n      tag_84\n        /* \"@openzeppelin/contracts/access/Ownable.sol\":1855:1860  owner */\n      tag_34\n        /* \"@openzeppelin/contracts/access/Ownable.sol\":1855:1862  owner() */\n      jump\t// in\n    tag_84:\n        /* \"@openzeppelin/contracts/access/Ownable.sol\":1855:1878  owner() != _msgSender() */\n      0xffffffffffffffffffffffffffffffffffffffff\n      and\n      eq\n        /* \"@openzeppelin/contracts/access/Ownable.sol\":1851:1952  if (owner() != _msgSender()) {... */\n      tag_85\n      jumpi\n        /* \"@openzeppelin/contracts/access/Ownable.sol\":1928:1940  _msgSender() */\n      tag_86\n        /* \"@openzeppelin/contracts/access/Ownable.sol\":1928:1938  _msgSender */\n      tag_83\n        /* \"@openzeppelin/contracts/access/Ownable.sol\":1928:1940  _msgSender() */\n      jump\t// in\n    tag_86:\n        /* \"@openzeppelin/contracts/access/Ownable.sol\":1901:1941  OwnableUnauthorizedAccount(_msgSender()) */\n      mload(0x40)\n      0x118cdaa700000000000000000000000000000000000000000000000000000000\n      dup2\n      mstore\n      0x04\n      add\n      tag_87\n      swap2\n      swap1\n      tag_17\n      jump\t// in\n    tag_87:\n      mload(0x40)\n      dup1\n      swap2\n      sub\n      swap1\n      revert\n        /* \"@openzeppelin/contracts/access/Ownable.sol\":1851:1952  if (owner() != _msgSender()) {... */\n    tag_85:\n        /* \"@openzeppelin/contracts/access/Ownable.sol\":1796:1958  function _checkOwner() internal view virtual {... */\n      jump\t// out\n        /* \"@openzeppelin/contracts/access/Ownable.sol\":2912:3099  function _transferOwnership(address newOwner) internal virtual {... */\n    tag_66:\n        /* \"@openzeppelin/contracts/access/Ownable.sol\":2985:3001  address oldOwner */\n      0x00\n        /* \"@openzeppelin/contracts/access/Ownable.sol\":3004:3010  _owner */\n      0x00\n      0x00\n      swap1\n      sload\n      swap1\n      0x0100\n      exp\n      swap1\n      div\n      0xffffffffffffffffffffffffffffffffffffffff\n      and\n        /* \"@openzeppelin/contracts/access/Ownable.sol\":2985:3010  address oldOwner = _owner */\n      swap1\n      pop\n        /* \"@openzeppelin/contracts/access/Ownable.sol\":3029:3037  newOwner */\n      dup2\n        /* \"@openzeppelin/contracts/access/Ownable.sol\":3020:3026  _owner */\n      0x00\n      0x00\n        /* \"@openzeppelin/contracts/access/Ownable.sol\":3020:3037  _owner = newOwner */\n      0x0100\n      exp\n      dup2\n      sload\n      dup2\n      0xffffffffffffffffffffffffffffffffffffffff\n      mul\n      not\n      and\n      swap1\n      dup4\n      0xffffffffffffffffffffffffffffffffffffffff\n      and\n      mul\n      or\n      swap1\n      sstore\n      pop\n        /* \"@openzeppelin/contracts/access/Ownable.sol\":3083:3091  newOwner */\n      dup2\n        /* \"@openzeppelin/contracts/access/Ownable.sol\":3052:3092  OwnershipTransferred(oldOwner, newOwner) */\n      0xffffffffffffffffffffffffffffffffffffffff\n      and\n        /* \"@openzeppelin/contracts/access/Ownable.sol\":3073:3081  oldOwner */\n      dup2\n        /* \"@openzeppelin/contracts/access/Ownable.sol\":3052:3092  OwnershipTransferred(oldOwner, newOwner) */\n      0xffffffffffffffffffffffffffffffffffffffff\n      and\n      0x8be0079c531659141344cd1fd0a4f28419497f9722a3daafe3b4186f6b6457e0\n      mload(0x40)\n      mload(0x40)\n      dup1\n      swap2\n      sub\n      swap1\n      log3\n        /* \"@openzeppelin/contracts/access/Ownable.sol\":2975:3099  {... */\n      pop\n        /* \"@openzeppelin/contracts/access/Ownable.sol\":2912:3099  function _transferOwnership(address newOwner) internal virtual {... */\n      pop\n      jump\t// out\n        /* \"@openzeppelin/contracts/utils/Context.sol\":656:752  function _msgSender() internal view virtual returns (address) {... */\n    tag_83:\n        /* \"@openzeppelin/contracts/utils/Context.sol\":709:716  address */\n      0x00\n        /* \"@openzeppelin/contracts/utils/Context.sol\":735:745  msg.sender */\n      caller\n        /* \"@openzeppelin/contracts/utils/Context.sol\":728:745  return msg.sender */\n      swap1\n      pop\n        /* \"@openzeppelin/contracts/utils/Context.sol\":656:752  function _msgSender() internal view virtual returns (address) {... */\n      swap1\n      jump\t// out\n        /* \"#utility.yul\":7:82   */\n    tag_90:\n        /* \"#utility.yul\":40:46   */\n      0x00\n        /* \"#utility.yul\":73:75   */\n      0x40\n        /* \"#utility.yul\":67:76   */\n      mload\n        /* \"#utility.yul\":57:76   */\n      swap1\n      pop\n        /* \"#utility.yul\":7:82   */\n      swap1\n      jump\t// out\n        /* \"#utility.yul\":88:205   */\n    tag_91:\n        /* \"#utility.yul\":197:198   */\n      0x00\n        /* \"#utility.yul\":194:195   */\n      0x00\n        /* \"#utility.yul\":187:199   */\n      revert\n        /* \"#utility.yul\":211:328   */\n    tag_92:\n        /* \"#utility.yul\":320:321   */\n      0x00\n        /* \"#utility.yul\":317:318   */\n      0x00\n        /* \"#utility.yul\":310:322   */\n      revert\n        /* \"#utility.yul\":334:411   */\n    tag_93:\n        /* \"#utility.yul\":371:378   */\n      0x00\n        /* \"#utility.yul\":400:405   */\n      dup2\n        /* \"#utility.yul\":389:405   */\n      swap1\n      pop\n        /* \"#utility.yul\":334:411   */\n      swap2\n      swap1\n      pop\n      jump\t// out\n        /* \"#utility.yul\":417:539   */\n    tag_94:\n        /* \"#utility.yul\":490:514   */\n      tag_145\n        /* \"#utility.yul\":508:513   */\n      dup2\n        /* \"#utility.yul\":490:514   */\n      tag_93\n      jump\t// in\n    tag_145:\n        /* \"#utility.yul\":483:488   */\n      dup2\n        /* \"#utility.yul\":480:515   */\n      eq\n        /* \"#utility.yul\":470:533   */\n      tag_146\n      jumpi\n        /* \"#utility.yul\":529:530   */\n      0x00\n        /* \"#utility.yul\":526:527   */\n      0x00\n        /* \"#utility.yul\":519:531   */\n      revert\n        /* \"#utility.yul\":470:533   */\n    tag_146:\n        /* \"#utility.yul\":417:539   */\n      pop\n      jump\t// out\n        /* \"#utility.yul\":545:684   */\n    tag_95:\n        /* \"#utility.yul\":591:596   */\n      0x00\n        /* \"#utility.yul\":629:635   */\n      dup2\n        /* \"#utility.yul\":616:636   */\n      calldataload\n        /* \"#utility.yul\":607:636   */\n      swap1\n      pop\n        /* \"#utility.yul\":645:678   */\n      tag_148\n        /* \"#utility.yul\":672:677   */\n      dup2\n        /* \"#utility.yul\":645:678   */\n      tag_94\n      jump\t// in\n    tag_148:\n        /* \"#utility.yul\":545:684   */\n      swap3\n      swap2\n      pop\n      pop\n      jump\t// out\n        /* \"#utility.yul\":690:1019   */\n    tag_14:\n        /* \"#utility.yul\":749:755   */\n      0x00\n        /* \"#utility.yul\":798:800   */\n      0x20\n        /* \"#utility.yul\":786:795   */\n      dup3\n        /* \"#utility.yul\":777:784   */\n      dup5\n        /* \"#utility.yul\":773:796   */\n      sub\n        /* \"#utility.yul\":769:801   */\n      slt\n        /* \"#utility.yul\":766:885   */\n      iszero\n      tag_150\n      jumpi\n        /* \"#utility.yul\":804:883   */\n      tag_151\n      tag_91\n      jump\t// in\n    tag_151:\n        /* \"#utility.yul\":766:885   */\n    tag_150:\n        /* \"#utility.yul\":924:925   */\n      0x00\n        /* \"#utility.yul\":949:1002   */\n      tag_152\n        /* \"#utility.yul\":994:1001   */\n      dup5\n        /* \"#utility.yul\":985:991   */\n      dup3\n        /* \"#utility.yul\":974:983   */\n      dup6\n        /* \"#utility.yul\":970:992   */\n      add\n        /* \"#utility.yul\":949:1002   */\n      tag_95\n      jump\t// in\n    tag_152:\n        /* \"#utility.yul\":939:1002   */\n      swap2\n      pop\n        /* \"#utility.yul\":895:1012   */\n      pop\n        /* \"#utility.yul\":690:1019   */\n      swap3\n      swap2\n      pop\n      pop\n      jump\t// out\n        /* \"#utility.yul\":1025:1151   */\n    tag_96:\n        /* \"#utility.yul\":1062:1069   */\n      0x00\n        /* \"#utility.yul\":1102:1144   */\n      0xffffffffffffffffffffffffffffffffffffffff\n        /* \"#utility.yul\":1095:1100   */\n      dup3\n        /* \"#utility.yul\":1091:1145   */\n      and\n        /* \"#utility.yul\":1080:1145   */\n      swap1\n      pop\n        /* \"#utility.yul\":1025:1151   */\n      swap2\n      swap1\n      pop\n      jump\t// out\n        /* \"#utility.yul\":1157:1253   */\n    tag_97:\n        /* \"#utility.yul\":1194:1201   */\n      0x00\n        /* \"#utility.yul\":1223:1247   */\n      tag_155\n        /* \"#utility.yul\":1241:1246   */\n      dup3\n        /* \"#utility.yul\":1223:1247   */\n      tag_96\n      jump\t// in\n    tag_155:\n        /* \"#utility.yul\":1212:1247   */\n      swap1\n      pop\n        /* \"#utility.yul\":1157:1253   */\n      swap2\n      swap1\n      pop\n      jump\t// out\n        /* \"#utility.yul\":1259:1377   */\n    tag_98:\n        /* \"#utility.yul\":1346:1370   */\n      tag_157\n        /* \"#utility.yul\":1364:1369   */\n      dup2\n        /* \"#utility.yul\":1346:1370   */\n      tag_97\n      jump\t// in\n    tag_157:\n        /* \"#utility.yul\":1341:1344   */\n      dup3\n        /* \"#utility.yul\":1334:1371   */\n      mstore\n        /* \"#utility.yul\":1259:1377   */\n      pop\n      pop\n      jump\t// out\n        /* \"#utility.yul\":1383:1605   */\n    tag_17:\n        /* \"#utility.yul\":1476:1480   */\n      0x00\n        /* \"#utility.yul\":1514:1516   */\n      0x20\n        /* \"#utility.yul\":1503:1512   */\n      dup3\n        /* \"#utility.yul\":1499:1517   */\n      add\n        /* \"#utility.yul\":1491:1517   */\n      swap1\n      pop\n        /* \"#utility.yul\":1527:1598   */\n      tag_159\n        /* \"#utility.yul\":1595:1596   */\n      0x00\n        /* \"#utility.yul\":1584:1593   */\n      dup4\n        /* \"#utility.yul\":1580:1597   */\n      add\n        /* \"#utility.yul\":1571:1577   */\n      dup5\n        /* \"#utility.yul\":1527:1598   */\n      tag_98\n      jump\t// in\n    tag_159:\n        /* \"#utility.yul\":1383:1605   */\n      swap3\n      swap2\n      pop\n      pop\n      jump\t// out\n        /* \"#utility.yul\":1611:1710   */\n    tag_99:\n        /* \"#utility.yul\":1663:1669   */\n      0x00\n        /* \"#utility.yul\":1697:1702   */\n      dup2\n        /* \"#utility.yul\":1691:1703   */\n      mload\n        /* \"#utility.yul\":1681:1703   */\n      swap1\n      pop\n        /* \"#utility.yul\":1611:1710   */\n      swap2\n      swap1\n      pop\n      jump\t// out\n        /* \"#utility.yul\":1716:1885   */\n    tag_100:\n        /* \"#utility.yul\":1800:1811   */\n      0x00\n        /* \"#utility.yul\":1834:1840   */\n      dup3\n        /* \"#utility.yul\":1829:1832   */\n      dup3\n        /* \"#utility.yul\":1822:1841   */\n      mstore\n        /* \"#utility.yul\":1874:1878   */\n      0x20\n        /* \"#utility.yul\":1869:1872   */\n      dup3\n        /* \"#utility.yul\":1865:1879   */\n      add\n        /* \"#utility.yul\":1850:1879   */\n      swap1\n      pop\n        /* \"#utility.yul\":1716:1885   */\n      swap3\n      swap2\n      pop\n      pop\n      jump\t// out\n        /* \"#utility.yul\":1891:2030   */\n    tag_101:\n        /* \"#utility.yul\":1980:1986   */\n      dup3\n        /* \"#utility.yul\":1975:1978   */\n      dup2\n        /* \"#utility.yul\":1970:1973   */\n      dup4\n        /* \"#utility.yul\":1964:1987   */\n      mcopy\n        /* \"#utility.yul\":2021:2022   */\n      0x00\n        /* \"#utility.yul\":2012:2018   */\n      dup4\n        /* \"#utility.yul\":2007:2010   */\n      dup4\n        /* \"#utility.yul\":2003:2019   */\n      add\n        /* \"#utility.yul\":1996:2023   */\n      mstore\n        /* \"#utility.yul\":1891:2030   */\n      pop\n      pop\n      pop\n      jump\t// out\n        /* \"#utility.yul\":2036:2138   */\n    tag_102:\n        /* \"#utility.yul\":2077:2083   */\n      0x00\n        /* \"#utility.yul\":2128:2130   */\n      0x1f\n        /* \"#utility.yul\":2124:2131   */\n      not\n        /* \"#utility.yul\":2119:2121   */\n      0x1f\n        /* \"#utility.yul\":2112:2117   */\n      dup4\n        /* \"#utility.yul\":2108:2122   */\n      add\n        /* \"#utility.yul\":2104:2132   */\n      and\n        /* \"#utility.yul\":2094:2132   */\n      swap1\n      pop\n        /* \"#utility.yul\":2036:2138   */\n      swap2\n      swap1\n      pop\n      jump\t// out\n        /* \"#utility.yul\":2144:2521   */\n    tag_103:\n        /* \"#utility.yul\":2232:2235   */\n      0x00\n        /* \"#utility.yul\":2260:2299   */\n      tag_165\n        /* \"#utility.yul\":2293:2298   */\n      dup3\n        /* \"#utility.yul\":2260:2299   */\n      tag_99\n      jump\t// in\n    tag_165:\n        /* \"#utility.yul\":2315:2386   */\n      tag_166\n        /* \"#utility.yul\":2379:2385   */\n      dup2\n        /* \"#utility.yul\":2374:2377   */\n      dup6\n        /* \"#utility.yul\":2315:2386   */\n      tag_100\n      jump\t// in\n    tag_166:\n        /* \"#utility.yul\":2308:2386   */\n      swap4\n      pop\n        /* \"#utility.yul\":2395:2460   */\n      tag_167\n        /* \"#utility.yul\":2453:2459   */\n      dup2\n        /* \"#utility.yul\":2448:2451   */\n      dup6\n        /* \"#utility.yul\":2441:2445   */\n      0x20\n        /* \"#utility.yul\":2434:2439   */\n      dup7\n        /* \"#utility.yul\":2430:2446   */\n      add\n        /* \"#utility.yul\":2395:2460   */\n      tag_101\n      jump\t// in\n    tag_167:\n        /* \"#utility.yul\":2485:2514   */\n      tag_168\n        /* \"#utility.yul\":2507:2513   */\n      dup2\n        /* \"#utility.yul\":2485:2514   */\n      tag_102\n      jump\t// in\n    tag_168:\n        /* \"#utility.yul\":2480:2483   */\n      dup5\n        /* \"#utility.yul\":2476:2515   */\n      add\n        /* \"#utility.yul\":2469:2515   */\n      swap2\n      pop\n        /* \"#utility.yul\":2236:2521   */\n      pop\n        /* \"#utility.yul\":2144:2521   */\n      swap3\n      swap2\n      pop\n      pop\n      jump\t// out\n        /* \"#utility.yul\":2527:2620   */\n    tag_104:\n        /* \"#utility.yul\":2563:2570   */\n      0x00\n        /* \"#utility.yul\":2603:2613   */\n      0xffffffff\n        /* \"#utility.yul\":2596:2601   */\n      dup3\n        /* \"#utility.yul\":2592:2614   */\n      and\n        /* \"#utility.yul\":2581:2614   */\n      swap1\n      pop\n        /* \"#utility.yul\":2527:2620   */\n      swap2\n      swap1\n      pop\n      jump\t// out\n        /* \"#utility.yul\":2626:2741   */\n    tag_105:\n        /* \"#utility.yul\":2711:2734   */\n      tag_171\n        /* \"#utility.yul\":2728:2733   */\n      dup2\n        /* \"#utility.yul\":2711:2734   */\n      tag_104\n      jump\t// in\n    tag_171:\n        /* \"#utility.yul\":2706:2709   */\n      dup3\n        /* \"#utility.yul\":2699:2735   */\n      mstore\n        /* \"#utility.yul\":2626:2741   */\n      pop\n      pop\n      jump\t// out\n        /* \"#utility.yul\":2747:2836   */\n    tag_106:\n        /* \"#utility.yul\":2783:2790   */\n      0x00\n        /* \"#utility.yul\":2823:2829   */\n      0xffff\n        /* \"#utility.yul\":2816:2821   */\n      dup3\n        /* \"#utility.yul\":2812:2830   */\n      and\n        /* \"#utility.yul\":2801:2830   */\n      swap1\n      pop\n        /* \"#utility.yul\":2747:2836   */\n      swap2\n      swap1\n      pop\n      jump\t// out\n        /* \"#utility.yul\":2842:2957   */\n    tag_107:\n        /* \"#utility.yul\":2927:2950   */\n      tag_174\n        /* \"#utility.yul\":2944:2949   */\n      dup2\n        /* \"#utility.yul\":2927:2950   */\n      tag_106\n      jump\t// in\n    tag_174:\n        /* \"#utility.yul\":2922:2925   */\n      dup3\n        /* \"#utility.yul\":2915:2951   */\n      mstore\n        /* \"#utility.yul\":2842:2957   */\n      pop\n      pop\n      jump\t// out\n        /* \"#utility.yul\":2963:3049   */\n    tag_108:\n        /* \"#utility.yul\":2998:3005   */\n      0x00\n        /* \"#utility.yul\":3038:3042   */\n      0xff\n        /* \"#utility.yul\":3031:3036   */\n      dup3\n        /* \"#utility.yul\":3027:3043   */\n      and\n        /* \"#utility.yul\":3016:3043   */\n      swap1\n      pop\n        /* \"#utility.yul\":2963:3049   */\n      swap2\n      swap1\n      pop\n      jump\t// out\n        /* \"#utility.yul\":3055:3167   */\n    tag_109:\n        /* \"#utility.yul\":3138:3160   */\n      tag_177\n        /* \"#utility.yul\":3154:3159   */\n      dup2\n        /* \"#utility.yul\":3138:3160   */\n      tag_108\n      jump\t// in\n    tag_177:\n        /* \"#utility.yul\":3133:3136   */\n      dup3\n        /* \"#utility.yul\":3126:3161   */\n      mstore\n        /* \"#utility.yul\":3055:3167   */\n      pop\n      pop\n      jump\t// out\n        /* \"#utility.yul\":3173:4015   */\n    tag_22:\n        /* \"#utility.yul\":3414:3418   */\n      0x00\n        /* \"#utility.yul\":3452:3455   */\n      0xc0\n        /* \"#utility.yul\":3441:3450   */\n      dup3\n        /* \"#utility.yul\":3437:3456   */\n      add\n        /* \"#utility.yul\":3429:3456   */\n      swap1\n      pop\n        /* \"#utility.yul\":3502:3511   */\n      dup2\n        /* \"#utility.yul\":3496:3500   */\n      dup2\n        /* \"#utility.yul\":3492:3512   */\n      sub\n        /* \"#utility.yul\":3488:3489   */\n      0x00\n        /* \"#utility.yul\":3477:3486   */\n      dup4\n        /* \"#utility.yul\":3473:3490   */\n      add\n        /* \"#utility.yul\":3466:3513   */\n      mstore\n        /* \"#utility.yul\":3530:3608   */\n      tag_179\n        /* \"#utility.yul\":3603:3607   */\n      dup2\n        /* \"#utility.yul\":3594:3600   */\n      dup10\n        /* \"#utility.yul\":3530:3608   */\n      tag_103\n      jump\t// in\n    tag_179:\n        /* \"#utility.yul\":3522:3608   */\n      swap1\n      pop\n        /* \"#utility.yul\":3618:3688   */\n      tag_180\n        /* \"#utility.yul\":3684:3686   */\n      0x20\n        /* \"#utility.yul\":3673:3682   */\n      dup4\n        /* \"#utility.yul\":3669:3687   */\n      add\n        /* \"#utility.yul\":3660:3666   */\n      dup9\n        /* \"#utility.yul\":3618:3688   */\n      tag_105\n      jump\t// in\n    tag_180:\n        /* \"#utility.yul\":3698:3768   */\n      tag_181\n        /* \"#utility.yul\":3764:3766   */\n      0x40\n        /* \"#utility.yul\":3753:3762   */\n      dup4\n        /* \"#utility.yul\":3749:3767   */\n      add\n        /* \"#utility.yul\":3740:3746   */\n      dup8\n        /* \"#utility.yul\":3698:3768   */\n      tag_105\n      jump\t// in\n    tag_181:\n        /* \"#utility.yul\":3778:3848   */\n      tag_182\n        /* \"#utility.yul\":3844:3846   */\n      0x60\n        /* \"#utility.yul\":3833:3842   */\n      dup4\n        /* \"#utility.yul\":3829:3847   */\n      add\n        /* \"#utility.yul\":3820:3826   */\n      dup7\n        /* \"#utility.yul\":3778:3848   */\n      tag_105\n      jump\t// in\n    tag_182:\n        /* \"#utility.yul\":3858:3929   */\n      tag_183\n        /* \"#utility.yul\":3924:3927   */\n      0x80\n        /* \"#utility.yul\":3913:3922   */\n      dup4\n        /* \"#utility.yul\":3909:3928   */\n      add\n        /* \"#utility.yul\":3900:3906   */\n      dup6\n        /* \"#utility.yul\":3858:3929   */\n      tag_107\n      jump\t// in\n    tag_183:\n        /* \"#utility.yul\":3939:4008   */\n      tag_184\n        /* \"#utility.yul\":4003:4006   */\n      0xa0\n        /* \"#utility.yul\":3992:4001   */\n      dup4\n        /* \"#utility.yul\":3988:4007   */\n      add\n        /* \"#utility.yul\":3979:3985   */\n      dup5\n        /* \"#utility.yul\":3939:4008   */\n      tag_109\n      jump\t// in\n    tag_184:\n        /* \"#utility.yul\":3173:4015   */\n      swap8\n      swap7\n      pop\n      pop\n      pop\n      pop\n      pop\n      pop\n      pop\n      jump\t// out\n        /* \"#utility.yul\":4021:4138   */\n    tag_110:\n        /* \"#utility.yul\":4130:4131   */\n      0x00\n        /* \"#utility.yul\":4127:4128   */\n      0x00\n        /* \"#utility.yul\":4120:4132   */\n      revert\n        /* \"#utility.yul\":4144:4261   */\n    tag_111:\n        /* \"#utility.yul\":4253:4254   */\n      0x00\n        /* \"#utility.yul\":4250:4251   */\n      0x00\n        /* \"#utility.yul\":4243:4255   */\n      revert\n        /* \"#utility.yul\":4267:4447   */\n    tag_112:\n        /* \"#utility.yul\":4315:4392   */\n      0x4e487b7100000000000000000000000000000000000000000000000000000000\n        /* \"#utility.yul\":4312:4313   */\n      0x00\n        /* \"#utility.yul\":4305:4393   */\n      mstore\n        /* \"#utility.yul\":4412:4416   */\n      0x41\n        /* \"#utility.yul\":4409:4410   */\n      0x04\n        /* \"#utility.yul\":4402:4417   */\n      mstore\n        /* \"#utility.yul\":4436:4440   */\n      0x24\n        /* \"#utility.yul\":4433:4434   */\n      0x00\n        /* \"#utility.yul\":4426:4441   */\n      revert\n        /* \"#utility.yul\":4453:4734   */\n    tag_113:\n        /* \"#utility.yul\":4536:4563   */\n      tag_189\n        /* \"#utility.yul\":4558:4562   */\n      dup3\n        /* \"#utility.yul\":4536:4563   */\n      tag_102\n      jump\t// in\n    tag_189:\n        /* \"#utility.yul\":4528:4534   */\n      dup2\n        /* \"#utility.yul\":4524:4564   */\n      add\n        /* \"#utility.yul\":4666:4672   */\n      dup2\n        /* \"#utility.yul\":4654:4664   */\n      dup2\n        /* \"#utility.yul\":4651:4673   */\n      lt\n        /* \"#utility.yul\":4630:4648   */\n      0xffffffffffffffff\n        /* \"#utility.yul\":4618:4628   */\n      dup3\n        /* \"#utility.yul\":4615:4649   */\n      gt\n        /* \"#utility.yul\":4612:4674   */\n      or\n        /* \"#utility.yul\":4609:4697   */\n      iszero\n      tag_190\n      jumpi\n        /* \"#utility.yul\":4677:4695   */\n      tag_191\n      tag_112\n      jump\t// in\n    tag_191:\n        /* \"#utility.yul\":4609:4697   */\n    tag_190:\n        /* \"#utility.yul\":4717:4727   */\n      dup1\n        /* \"#utility.yul\":4713:4715   */\n      0x40\n        /* \"#utility.yul\":4706:4728   */\n      mstore\n        /* \"#utility.yul\":4496:4734   */\n      pop\n        /* \"#utility.yul\":4453:4734   */\n      pop\n      pop\n      jump\t// out\n        /* \"#utility.yul\":4740:4869   */\n    tag_114:\n        /* \"#utility.yul\":4774:4780   */\n      0x00\n        /* \"#utility.yul\":4801:4821   */\n      tag_193\n      tag_90\n      jump\t// in\n    tag_193:\n        /* \"#utility.yul\":4791:4821   */\n      swap1\n      pop\n        /* \"#utility.yul\":4830:4863   */\n      tag_194\n        /* \"#utility.yul\":4858:4862   */\n      dup3\n        /* \"#utility.yul\":4850:4856   */\n      dup3\n        /* \"#utility.yul\":4830:4863   */\n      tag_113\n      jump\t// in\n    tag_194:\n        /* \"#utility.yul\":4740:4869   */\n      swap2\n      swap1\n      pop\n      jump\t// out\n        /* \"#utility.yul\":4875:5183   */\n    tag_115:\n        /* \"#utility.yul\":4937:4941   */\n      0x00\n        /* \"#utility.yul\":5027:5045   */\n      0xffffffffffffffff\n        /* \"#utility.yul\":5019:5025   */\n      dup3\n        /* \"#utility.yul\":5016:5046   */\n      gt\n        /* \"#utility.yul\":5013:5069   */\n      iszero\n      tag_196\n      jumpi\n        /* \"#utility.yul\":5049:5067   */\n      tag_197\n      tag_112\n      jump\t// in\n    tag_197:\n        /* \"#utility.yul\":5013:5069   */\n    tag_196:\n        /* \"#utility.yul\":5087:5116   */\n      tag_198\n        /* \"#utility.yul\":5109:5115   */\n      dup3\n        /* \"#utility.yul\":5087:5116   */\n      tag_102\n      jump\t// in\n    tag_198:\n        /* \"#utility.yul\":5079:5116   */\n      swap1\n      pop\n        /* \"#utility.yul\":5171:5175   */\n      0x20\n        /* \"#utility.yul\":5165:5169   */\n      dup2\n        /* \"#utility.yul\":5161:5176   */\n      add\n        /* \"#utility.yul\":5153:5176   */\n      swap1\n      pop\n        /* \"#utility.yul\":4875:5183   */\n      swap2\n      swap1\n      pop\n      jump\t// out\n        /* \"#utility.yul\":5189:5337   */\n    tag_116:\n        /* \"#utility.yul\":5287:5293   */\n      dup3\n        /* \"#utility.yul\":5282:5285   */\n      dup2\n        /* \"#utility.yul\":5277:5280   */\n      dup4\n        /* \"#utility.yul\":5264:5294   */\n      calldatacopy\n        /* \"#utility.yul\":5328:5329   */\n      0x00\n        /* \"#utility.yul\":5319:5325   */\n      dup4\n        /* \"#utility.yul\":5314:5317   */\n      dup4\n        /* \"#utility.yul\":5310:5326   */\n      add\n        /* \"#utility.yul\":5303:5330   */\n      mstore\n        /* \"#utility.yul\":5189:5337   */\n      pop\n      pop\n      pop\n      jump\t// out\n        /* \"#utility.yul\":5343:5768   */\n    tag_117:\n        /* \"#utility.yul\":5421:5426   */\n      0x00\n        /* \"#utility.yul\":5446:5512   */\n      tag_201\n        /* \"#utility.yul\":5462:5511   */\n      tag_202\n        /* \"#utility.yul\":5504:5510   */\n      dup5\n        /* \"#utility.yul\":5462:5511   */\n      tag_115\n      jump\t// in\n    tag_202:\n        /* \"#utility.yul\":5446:5512   */\n      tag_114\n      jump\t// in\n    tag_201:\n        /* \"#utility.yul\":5437:5512   */\n      swap1\n      pop\n        /* \"#utility.yul\":5535:5541   */\n      dup3\n        /* \"#utility.yul\":5528:5533   */\n      dup2\n        /* \"#utility.yul\":5521:5542   */\n      mstore\n        /* \"#utility.yul\":5573:5577   */\n      0x20\n        /* \"#utility.yul\":5566:5571   */\n      dup2\n        /* \"#utility.yul\":5562:5578   */\n      add\n        /* \"#utility.yul\":5611:5614   */\n      dup5\n        /* \"#utility.yul\":5602:5608   */\n      dup5\n        /* \"#utility.yul\":5597:5600   */\n      dup5\n        /* \"#utility.yul\":5593:5609   */\n      add\n        /* \"#utility.yul\":5590:5615   */\n      gt\n        /* \"#utility.yul\":5587:5699   */\n      iszero\n      tag_203\n      jumpi\n        /* \"#utility.yul\":5618:5697   */\n      tag_204\n      tag_111\n      jump\t// in\n    tag_204:\n        /* \"#utility.yul\":5587:5699   */\n    tag_203:\n        /* \"#utility.yul\":5708:5762   */\n      tag_205\n        /* \"#utility.yul\":5755:5761   */\n      dup5\n        /* \"#utility.yul\":5750:5753   */\n      dup3\n        /* \"#utility.yul\":5745:5748   */\n      dup6\n        /* \"#utility.yul\":5708:5762   */\n      tag_116\n      jump\t// in\n    tag_205:\n        /* \"#utility.yul\":5427:5768   */\n      pop\n        /* \"#utility.yul\":5343:5768   */\n      swap4\n      swap3\n      pop\n      pop\n      pop\n      jump\t// out\n        /* \"#utility.yul\":5788:6128   */\n    tag_118:\n        /* \"#utility.yul\":5844:5849   */\n      0x00\n        /* \"#utility.yul\":5893:5896   */\n      dup3\n        /* \"#utility.yul\":5886:5890   */\n      0x1f\n        /* \"#utility.yul\":5878:5884   */\n      dup4\n        /* \"#utility.yul\":5874:5891   */\n      add\n        /* \"#utility.yul\":5870:5897   */\n      slt\n        /* \"#utility.yul\":5860:5982   */\n      tag_207\n      jumpi\n        /* \"#utility.yul\":5901:5980   */\n      tag_208\n      tag_110\n      jump\t// in\n    tag_208:\n        /* \"#utility.yul\":5860:5982   */\n    tag_207:\n        /* \"#utility.yul\":6018:6024   */\n      dup2\n        /* \"#utility.yul\":6005:6025   */\n      calldataload\n        /* \"#utility.yul\":6043:6122   */\n      tag_209\n        /* \"#utility.yul\":6118:6121   */\n      dup5\n        /* \"#utility.yul\":6110:6116   */\n      dup3\n        /* \"#utility.yul\":6103:6107   */\n      0x20\n        /* \"#utility.yul\":6095:6101   */\n      dup7\n        /* \"#utility.yul\":6091:6108   */\n      add\n        /* \"#utility.yul\":6043:6122   */\n      tag_117\n      jump\t// in\n    tag_209:\n        /* \"#utility.yul\":6034:6122   */\n      swap2\n      pop\n        /* \"#utility.yul\":5850:6128   */\n      pop\n        /* \"#utility.yul\":5788:6128   */\n      swap3\n      swap2\n      pop\n      pop\n      jump\t// out\n        /* \"#utility.yul\":6134:6643   */\n    tag_29:\n        /* \"#utility.yul\":6203:6209   */\n      0x00\n        /* \"#utility.yul\":6252:6254   */\n      0x20\n        /* \"#utility.yul\":6240:6249   */\n      dup3\n        /* \"#utility.yul\":6231:6238   */\n      dup5\n        /* \"#utility.yul\":6227:6250   */\n      sub\n        /* \"#utility.yul\":6223:6255   */\n      slt\n        /* \"#utility.yul\":6220:6339   */\n      iszero\n      tag_211\n      jumpi\n        /* \"#utility.yul\":6258:6337   */\n      tag_212\n      tag_91\n      jump\t// in\n    tag_212:\n        /* \"#utility.yul\":6220:6339   */\n    tag_211:\n        /* \"#utility.yul\":6406:6407   */\n      0x00\n        /* \"#utility.yul\":6395:6404   */\n      dup3\n        /* \"#utility.yul\":6391:6408   */\n      add\n        /* \"#utility.yul\":6378:6409   */\n      calldataload\n        /* \"#utility.yul\":6436:6454   */\n      0xffffffffffffffff\n        /* \"#utility.yul\":6428:6434   */\n      dup2\n        /* \"#utility.yul\":6425:6455   */\n      gt\n        /* \"#utility.yul\":6422:6539   */\n      iszero\n      tag_213\n      jumpi\n        /* \"#utility.yul\":6458:6537   */\n      tag_214\n      tag_92\n      jump\t// in\n    tag_214:\n        /* \"#utility.yul\":6422:6539   */\n    tag_213:\n        /* \"#utility.yul\":6563:6626   */\n      tag_215\n        /* \"#utility.yul\":6618:6625   */\n      dup5\n        /* \"#utility.yul\":6609:6615   */\n      dup3\n        /* \"#utility.yul\":6598:6607   */\n      dup6\n        /* \"#utility.yul\":6594:6616   */\n      add\n        /* \"#utility.yul\":6563:6626   */\n      tag_118\n      jump\t// in\n    tag_215:\n        /* \"#utility.yul\":6553:6626   */\n      swap2\n      pop\n        /* \"#utility.yul\":6349:6636   */\n      pop\n        /* \"#utility.yul\":6134:6643   */\n      swap3\n      swap2\n      pop\n      pop\n      jump\t// out\n        /* \"#utility.yul\":6649:7281   */\n    tag_40:\n        /* \"#utility.yul\":6840:6844   */\n      0x00\n        /* \"#utility.yul\":6878:6881   */\n      0x80\n        /* \"#utility.yul\":6867:6876   */\n      dup3\n        /* \"#utility.yul\":6863:6882   */\n      add\n        /* \"#utility.yul\":6855:6882   */\n      swap1\n      pop\n        /* \"#utility.yul\":6928:6937   */\n      dup2\n        /* \"#utility.yul\":6922:6926   */\n      dup2\n        /* \"#utility.yul\":6918:6938   */\n      sub\n        /* \"#utility.yul\":6914:6915   */\n      0x00\n        /* \"#utility.yul\":6903:6912   */\n      dup4\n        /* \"#utility.yul\":6899:6916   */\n      add\n        /* \"#utility.yul\":6892:6939   */\n      mstore\n        /* \"#utility.yul\":6956:7034   */\n      tag_217\n        /* \"#utility.yul\":7029:7033   */\n      dup2\n        /* \"#utility.yul\":7020:7026   */\n      dup8\n        /* \"#utility.yul\":6956:7034   */\n      tag_103\n      jump\t// in\n    tag_217:\n        /* \"#utility.yul\":6948:7034   */\n      swap1\n      pop\n        /* \"#utility.yul\":7044:7114   */\n      tag_218\n        /* \"#utility.yul\":7110:7112   */\n      0x20\n        /* \"#utility.yul\":7099:7108   */\n      dup4\n        /* \"#utility.yul\":7095:7113   */\n      add\n        /* \"#utility.yul\":7086:7092   */\n      dup7\n        /* \"#utility.yul\":7044:7114   */\n      tag_107\n      jump\t// in\n    tag_218:\n        /* \"#utility.yul\":7124:7194   */\n      tag_219\n        /* \"#utility.yul\":7190:7192   */\n      0x40\n        /* \"#utility.yul\":7179:7188   */\n      dup4\n        /* \"#utility.yul\":7175:7193   */\n      add\n        /* \"#utility.yul\":7166:7172   */\n      dup6\n        /* \"#utility.yul\":7124:7194   */\n      tag_105\n      jump\t// in\n    tag_219:\n        /* \"#utility.yul\":7204:7274   */\n      tag_220\n        /* \"#utility.yul\":7270:7272   */\n      0x60\n        /* \"#utility.yul\":7259:7268   */\n      dup4\n        /* \"#utility.yul\":7255:7273   */\n      add\n        /* \"#utility.yul\":7246:7252   */\n      dup5\n        /* \"#utility.yul\":7204:7274   */\n      tag_107\n      jump\t// in\n    tag_220:\n        /* \"#utility.yul\":6649:7281   */\n      swap6\n      swap5\n      pop\n      pop\n      pop\n      pop\n      pop\n      jump\t// out\n        /* \"#utility.yul\":7287:7409   */\n    tag_119:\n        /* \"#utility.yul\":7360:7384   */\n      tag_222\n        /* \"#utility.yul\":7378:7383   */\n      dup2\n        /* \"#utility.yul\":7360:7384   */\n      tag_97\n      jump\t// in\n    tag_222:\n        /* \"#utility.yul\":7353:7358   */\n      dup2\n        /* \"#utility.yul\":7350:7385   */\n      eq\n        /* \"#utility.yul\":7340:7403   */\n      tag_223\n      jumpi\n        /* \"#utility.yul\":7399:7400   */\n      0x00\n        /* \"#utility.yul\":7396:7397   */\n      0x00\n        /* \"#utility.yul\":7389:7401   */\n      revert\n        /* \"#utility.yul\":7340:7403   */\n    tag_223:\n        /* \"#utility.yul\":7287:7409   */\n      pop\n      jump\t// out\n        /* \"#utility.yul\":7415:7554   */\n    tag_120:\n        /* \"#utility.yul\":7461:7466   */\n      0x00\n        /* \"#utility.yul\":7499:7505   */\n      dup2\n        /* \"#utility.yul\":7486:7506   */\n      calldataload\n        /* \"#utility.yul\":7477:7506   */\n      swap1\n      pop\n        /* \"#utility.yul\":7515:7548   */\n      tag_225\n        /* \"#utility.yul\":7542:7547   */\n      dup2\n        /* \"#utility.yul\":7515:7548   */\n      tag_119\n      jump\t// in\n    tag_225:\n        /* \"#utility.yul\":7415:7554   */\n      swap3\n      swap2\n      pop\n      pop\n      jump\t// out\n        /* \"#utility.yul\":7560:7889   */\n    tag_43:\n        /* \"#utility.yul\":7619:7625   */\n      0x00\n        /* \"#utility.yul\":7668:7670   */\n      0x20\n        /* \"#utility.yul\":7656:7665   */\n      dup3\n        /* \"#utility.yul\":7647:7654   */\n      dup5\n        /* \"#utility.yul\":7643:7666   */\n      sub\n        /* \"#utility.yul\":7639:7671   */\n      slt\n        /* \"#utility.yul\":7636:7755   */\n      iszero\n      tag_227\n      jumpi\n        /* \"#utility.yul\":7674:7753   */\n      tag_228\n      tag_91\n      jump\t// in\n    tag_228:\n        /* \"#utility.yul\":7636:7755   */\n    tag_227:\n        /* \"#utility.yul\":7794:7795   */\n      0x00\n        /* \"#utility.yul\":7819:7872   */\n      tag_229\n        /* \"#utility.yul\":7864:7871   */\n      dup5\n        /* \"#utility.yul\":7855:7861   */\n      dup3\n        /* \"#utility.yul\":7844:7853   */\n      dup6\n        /* \"#utility.yul\":7840:7862   */\n      add\n        /* \"#utility.yul\":7819:7872   */\n      tag_120\n      jump\t// in\n    tag_229:\n        /* \"#utility.yul\":7809:7872   */\n      swap2\n      pop\n        /* \"#utility.yul\":7765:7882   */\n      pop\n        /* \"#utility.yul\":7560:7889   */\n      swap3\n      swap2\n      pop\n      pop\n      jump\t// out\n        /* \"#utility.yul\":7895:8075   */\n    tag_121:\n        /* \"#utility.yul\":7943:8020   */\n      0x4e487b7100000000000000000000000000000000000000000000000000000000\n        /* \"#utility.yul\":7940:7941   */\n      0x00\n        /* \"#utility.yul\":7933:8021   */\n      mstore\n        /* \"#utility.yul\":8040:8044   */\n      0x22\n        /* \"#utility.yul\":8037:8038   */\n      0x04\n        /* \"#utility.yul\":8030:8045   */\n      mstore\n        /* \"#utility.yul\":8064:8068   */\n      0x24\n        /* \"#utility.yul\":8061:8062   */\n      0x00\n        /* \"#utility.yul\":8054:8069   */\n      revert\n        /* \"#utility.yul\":8081:8401   */\n    tag_48:\n        /* \"#utility.yul\":8125:8131   */\n      0x00\n        /* \"#utility.yul\":8162:8163   */\n      0x02\n        /* \"#utility.yul\":8156:8160   */\n      dup3\n        /* \"#utility.yul\":8152:8164   */\n      div\n        /* \"#utility.yul\":8142:8164   */\n      swap1\n      pop\n        /* \"#utility.yul\":8209:8210   */\n      0x01\n        /* \"#utility.yul\":8203:8207   */\n      dup3\n        /* \"#utility.yul\":8199:8211   */\n      and\n        /* \"#utility.yul\":8230:8248   */\n      dup1\n        /* \"#utility.yul\":8220:8301   */\n      tag_232\n      jumpi\n        /* \"#utility.yul\":8286:8290   */\n      0x7f\n        /* \"#utility.yul\":8278:8284   */\n      dup3\n        /* \"#utility.yul\":8274:8291   */\n      and\n        /* \"#utility.yul\":8264:8291   */\n      swap2\n      pop\n        /* \"#utility.yul\":8220:8301   */\n    tag_232:\n        /* \"#utility.yul\":8348:8350   */\n      0x20\n        /* \"#utility.yul\":8340:8346   */\n      dup3\n        /* \"#utility.yul\":8337:8351   */\n      lt\n        /* \"#utility.yul\":8317:8335   */\n      dup2\n        /* \"#utility.yul\":8314:8352   */\n      sub\n        /* \"#utility.yul\":8311:8395   */\n      tag_233\n      jumpi\n        /* \"#utility.yul\":8367:8385   */\n      tag_234\n      tag_121\n      jump\t// in\n    tag_234:\n        /* \"#utility.yul\":8311:8395   */\n    tag_233:\n        /* \"#utility.yul\":8132:8401   */\n      pop\n        /* \"#utility.yul\":8081:8401   */\n      swap2\n      swap1\n      pop\n      jump\t// out\n        /* \"#utility.yul\":8407:8548   */\n    tag_122:\n        /* \"#utility.yul\":8456:8460   */\n      0x00\n        /* \"#utility.yul\":8479:8482   */\n      dup2\n        /* \"#utility.yul\":8471:8482   */\n      swap1\n      pop\n        /* \"#utility.yul\":8502:8505   */\n      dup2\n        /* \"#utility.yul\":8499:8500   */\n      0x00\n        /* \"#utility.yul\":8492:8506   */\n      mstore\n        /* \"#utility.yul\":8536:8540   */\n      0x20\n        /* \"#utility.yul\":8533:8534   */\n      0x00\n        /* \"#utility.yul\":8523:8541   */\n      keccak256\n        /* \"#utility.yul\":8515:8541   */\n      swap1\n      pop\n        /* \"#utility.yul\":8407:8548   */\n      swap2\n      swap1\n      pop\n      jump\t// out\n        /* \"#utility.yul\":8554:8647   */\n    tag_123:\n        /* \"#utility.yul\":8591:8597   */\n      0x00\n        /* \"#utility.yul\":8638:8640   */\n      0x20\n        /* \"#utility.yul\":8633:8635   */\n      0x1f\n        /* \"#utility.yul\":8626:8631   */\n      dup4\n        /* \"#utility.yul\":8622:8636   */\n      add\n        /* \"#utility.yul\":8618:8641   */\n      div\n        /* \"#utility.yul\":8608:8641   */\n      swap1\n      pop\n        /* \"#utility.yul\":8554:8647   */\n      swap2\n      swap1\n      pop\n      jump\t// out\n        /* \"#utility.yul\":8653:8760   */\n    tag_124:\n        /* \"#utility.yul\":8697:8705   */\n      0x00\n        /* \"#utility.yul\":8747:8752   */\n      dup3\n        /* \"#utility.yul\":8741:8745   */\n      dup3\n        /* \"#utility.yul\":8737:8753   */\n      shl\n        /* \"#utility.yul\":8716:8753   */\n      swap1\n      pop\n        /* \"#utility.yul\":8653:8760   */\n      swap3\n      swap2\n      pop\n      pop\n      jump\t// out\n        /* \"#utility.yul\":8766:9159   */\n    tag_125:\n        /* \"#utility.yul\":8835:8841   */\n      0x00\n        /* \"#utility.yul\":8885:8886   */\n      0x08\n        /* \"#utility.yul\":8873:8883   */\n      dup4\n        /* \"#utility.yul\":8869:8887   */\n      mul\n        /* \"#utility.yul\":8908:9005   */\n      tag_239\n        /* \"#utility.yul\":8938:9004   */\n      0xffffffffffffffffffffffffffffffffffffffffffffffffffffffffffffffff\n        /* \"#utility.yul\":8927:8936   */\n      dup3\n        /* \"#utility.yul\":8908:9005   */\n      tag_124\n      jump\t// in\n    tag_239:\n        /* \"#utility.yul\":9026:9065   */\n      tag_240\n        /* \"#utility.yul\":9056:9064   */\n      dup7\n        /* \"#utility.yul\":9045:9054   */\n      dup4\n        /* \"#utility.yul\":9026:9065   */\n      tag_124\n      jump\t// in\n    tag_240:\n        /* \"#utility.yul\":9014:9065   */\n      swap6\n      pop\n        /* \"#utility.yul\":9098:9102   */\n      dup1\n        /* \"#utility.yul\":9094:9103   */\n      not\n        /* \"#utility.yul\":9087:9092   */\n      dup5\n        /* \"#utility.yul\":9083:9104   */\n      and\n        /* \"#utility.yul\":9074:9104   */\n      swap4\n      pop\n        /* \"#utility.yul\":9147:9151   */\n      dup1\n        /* \"#utility.yul\":9137:9145   */\n      dup7\n        /* \"#utility.yul\":9133:9152   */\n      and\n        /* \"#utility.yul\":9126:9131   */\n      dup5\n        /* \"#utility.yul\":9123:9153   */\n      or\n        /* \"#utility.yul\":9113:9153   */\n      swap3\n      pop\n        /* \"#utility.yul\":8842:9159   */\n      pop\n      pop\n        /* \"#utility.yul\":8766:9159   */\n      swap4\n      swap3\n      pop\n      pop\n      pop\n      jump\t// out\n        /* \"#utility.yul\":9165:9225   */\n    tag_126:\n        /* \"#utility.yul\":9193:9196   */\n      0x00\n        /* \"#utility.yul\":9214:9219   */\n      dup2\n        /* \"#utility.yul\":9207:9219   */\n      swap1\n      pop\n        /* \"#utility.yul\":9165:9225   */\n      swap2\n      swap1\n      pop\n      jump\t// out\n        /* \"#utility.yul\":9231:9373   */\n    tag_127:\n        /* \"#utility.yul\":9281:9290   */\n      0x00\n        /* \"#utility.yul\":9314:9367   */\n      tag_243\n        /* \"#utility.yul\":9332:9366   */\n      tag_244\n        /* \"#utility.yul\":9341:9365   */\n      tag_245\n        /* \"#utility.yul\":9359:9364   */\n      dup5\n        /* \"#utility.yul\":9341:9365   */\n      tag_93\n      jump\t// in\n    tag_245:\n        /* \"#utility.yul\":9332:9366   */\n      tag_126\n      jump\t// in\n    tag_244:\n        /* \"#utility.yul\":9314:9367   */\n      tag_93\n      jump\t// in\n    tag_243:\n        /* \"#utility.yul\":9301:9367   */\n      swap1\n      pop\n        /* \"#utility.yul\":9231:9373   */\n      swap2\n      swap1\n      pop\n      jump\t// out\n        /* \"#utility.yul\":9379:9454   */\n    tag_128:\n        /* \"#utility.yul\":9422:9425   */\n      0x00\n        /* \"#utility.yul\":9443:9448   */\n      dup2\n        /* \"#utility.yul\":9436:9448   */\n      swap1\n      pop\n        /* \"#utility.yul\":9379:9454   */\n      swap2\n      swap1\n      pop\n      jump\t// out\n        /* \"#utility.yul\":9460:9729   */\n    tag_129:\n        /* \"#utility.yul\":9570:9609   */\n      tag_248\n        /* \"#utility.yul\":9601:9608   */\n      dup4\n        /* \"#utility.yul\":9570:9609   */\n      tag_127\n      jump\t// in\n    tag_248:\n        /* \"#utility.yul\":9631:9722   */\n      tag_249\n        /* \"#utility.yul\":9680:9721   */\n      tag_250\n        /* \"#utility.yul\":9704:9720   */\n      dup3\n        /* \"#utility.yul\":9680:9721   */\n      tag_128\n      jump\t// in\n    tag_250:\n        /* \"#utility.yul\":9672:9678   */\n      dup5\n        /* \"#utility.yul\":9665:9669   */\n      dup5\n        /* \"#utility.yul\":9659:9670   */\n      sload\n        /* \"#utility.yul\":9631:9722   */\n      tag_125\n      jump\t// in\n    tag_249:\n        /* \"#utility.yul\":9625:9629   */\n      dup3\n        /* \"#utility.yul\":9618:9723   */\n      sstore\n        /* \"#utility.yul\":9536:9729   */\n      pop\n        /* \"#utility.yul\":9460:9729   */\n      pop\n      pop\n      pop\n      jump\t// out\n        /* \"#utility.yul\":9735:9808   */\n    tag_130:\n        /* \"#utility.yul\":9780:9783   */\n      0x00\n        /* \"#utility.yul\":9801:9802   */\n      0x00\n        /* \"#utility.yul\":9794:9802   */\n      swap1\n      pop\n        /* \"#utility.yul\":9735:9808   */\n      swap1\n      jump\t// out\n        /* \"#utility.yul\":9814:10003   */\n    tag_131:\n        /* \"#utility.yul\":9891:9923   */\n      tag_253\n      tag_130\n      jump\t// in\n    tag_253:\n        /* \"#utility.yul\":9932:9997   */\n      tag_254\n        /* \"#utility.yul\":9990:9996   */\n      dup2\n        /* \"#utility.yul\":9982:9988   */\n      dup5\n        /* \"#utility.yul\":9976:9980   */\n      dup5\n        /* \"#utility.yul\":9932:9997   */\n      tag_129\n      jump\t// in\n    tag_254:\n        /* \"#utility.yul\":9867:10003   */\n      pop\n        /* \"#utility.yul\":9814:10003   */\n      pop\n      pop\n      jump\t// out\n        /* \"#utility.yul\":10009:10195   */\n    tag_132:\n        /* \"#utility.yul\":10069:10189   */\n    tag_256:\n        /* \"#utility.yul\":10086:10089   */\n      dup2\n        /* \"#utility.yul\":10079:10084   */\n      dup2\n        /* \"#utility.yul\":10076:10090   */\n      lt\n        /* \"#utility.yul\":10069:10189   */\n      iszero\n      tag_258\n      jumpi\n        /* \"#utility.yul\":10140:10179   */\n      tag_259\n        /* \"#utility.yul\":10177:10178   */\n      0x00\n        /* \"#utility.yul\":10170:10175   */\n      dup3\n        /* \"#utility.yul\":10140:10179   */\n      tag_131\n      jump\t// in\n    tag_259:\n        /* \"#utility.yul\":10113:10114   */\n      0x01\n        /* \"#utility.yul\":10106:10111   */\n      dup2\n        /* \"#utility.yul\":10102:10115   */\n      add\n        /* \"#utility.yul\":10093:10115   */\n      swap1\n      pop\n        /* \"#utility.yul\":10069:10189   */\n      jump(tag_256)\n    tag_258:\n        /* \"#utility.yul\":10009:10195   */\n      pop\n      pop\n      jump\t// out\n        /* \"#utility.yul\":10201:10744   */\n    tag_133:\n        /* \"#utility.yul\":10302:10304   */\n      0x1f\n        /* \"#utility.yul\":10297:10300   */\n      dup3\n        /* \"#utility.yul\":10294:10305   */\n      gt\n        /* \"#utility.yul\":10291:10737   */\n      iszero\n      tag_261\n      jumpi\n        /* \"#utility.yul\":10336:10374   */\n      tag_262\n        /* \"#utility.yul\":10368:10373   */\n      dup2\n        /* \"#utility.yul\":10336:10374   */\n      tag_122\n      jump\t// in\n    tag_262:\n        /* \"#utility.yul\":10420:10449   */\n      tag_263\n        /* \"#utility.yul\":10438:10448   */\n      dup5\n        /* \"#utility.yul\":10420:10449   */\n      tag_123\n      jump\t// in\n    tag_263:\n        /* \"#utility.yul\":10410:10418   */\n      dup2\n        /* \"#utility.yul\":10406:10450   */\n      add\n        /* \"#utility.yul\":10603:10605   */\n      0x20\n        /* \"#utility.yul\":10591:10601   */\n      dup6\n        /* \"#utility.yul\":10588:10606   */\n      lt\n        /* \"#utility.yul\":10585:10634   */\n      iszero\n      tag_264\n      jumpi\n        /* \"#utility.yul\":10624:10632   */\n      dup2\n        /* \"#utility.yul\":10609:10632   */\n      swap1\n      pop\n        /* \"#utility.yul\":10585:10634   */\n    tag_264:\n        /* \"#utility.yul\":10647:10727   */\n      tag_265\n        /* \"#utility.yul\":10703:10725   */\n      tag_266\n        /* \"#utility.yul\":10721:10724   */\n      dup6\n        /* \"#utility.yul\":10703:10725   */\n      tag_123\n      jump\t// in\n    tag_266:\n        /* \"#utility.yul\":10693:10701   */\n      dup4\n        /* \"#utility.yul\":10689:10726   */\n      add\n        /* \"#utility.yul\":10676:10687   */\n      dup3\n        /* \"#utility.yul\":10647:10727   */\n      tag_132\n      jump\t// in\n    tag_265:\n        /* \"#utility.yul\":10306:10737   */\n      pop\n      pop\n        /* \"#utility.yul\":10291:10737   */\n    tag_261:\n        /* \"#utility.yul\":10201:10744   */\n      pop\n      pop\n      pop\n      jump\t// out\n        /* \"#utility.yul\":10750:10867   */\n    tag_134:\n        /* \"#utility.yul\":10804:10812   */\n      0x00\n        /* \"#utility.yul\":10854:10859   */\n      dup3\n        /* \"#utility.yul\":10848:10852   */\n      dup3\n        /* \"#utility.yul\":10844:10860   */\n      shr\n        /* \"#utility.yul\":10823:10860   */\n      swap1\n      pop\n        /* \"#utility.yul\":10750:10867   */\n      swap3\n      swap2\n      pop\n      pop\n      jump\t// out\n        /* \"#utility.yul\":10873:11042   */\n    tag_135:\n        /* \"#utility.yul\":10917:10923   */\n      0x00\n        /* \"#utility.yul\":10950:11001   */\n      tag_269\n        /* \"#utility.yul\":10998:10999   */\n      0x00\n        /* \"#utility.yul\":10994:11000   */\n      not\n        /* \"#utility.yul\":10986:10991   */\n      dup5\n        /* \"#utility.yul\":10983:10984   */\n      0x08\n        /* \"#utility.yul\":10979:10992   */\n      mul\n        /* \"#utility.yul\":10950:11001   */\n      tag_134\n      jump\t// in\n    tag_269:\n        /* \"#utility.yul\":10946:11002   */\n      not\n        /* \"#utility.yul\":11031:11035   */\n      dup1\n        /* \"#utility.yul\":11025:11029   */\n      dup4\n        /* \"#utility.yul\":11021:11036   */\n      and\n        /* \"#utility.yul\":11011:11036   */\n      swap2\n      pop\n        /* \"#utility.yul\":10924:11042   */\n      pop\n        /* \"#utility.yul\":10873:11042   */\n      swap3\n      swap2\n      pop\n      pop\n      jump\t// out\n        /* \"#utility.yul\":11047:11342   */\n    tag_136:\n        /* \"#utility.yul\":11123:11127   */\n      0x00\n        /* \"#utility.yul\":11269:11298   */\n      tag_271\n        /* \"#utility.yul\":11294:11297   */\n      dup4\n        /* \"#utility.yul\":11288:11292   */\n      dup4\n        /* \"#utility.yul\":11269:11298   */\n      tag_135\n      jump\t// in\n    tag_271:\n        /* \"#utility.yul\":11261:11298   */\n      swap2\n      pop\n        /* \"#utility.yul\":11331:11334   */\n      dup3\n        /* \"#utility.yul\":11328:11329   */\n      0x02\n        /* \"#utility.yul\":11324:11335   */\n      mul\n        /* \"#utility.yul\":11318:11322   */\n      dup3\n        /* \"#utility.yul\":11315:11336   */\n      or\n        /* \"#utility.yul\":11307:11336   */\n      swap1\n      pop\n        /* \"#utility.yul\":11047:11342   */\n      swap3\n      swap2\n      pop\n      pop\n      jump\t// out\n        /* \"#utility.yul\":11347:12742   */\n    tag_56:\n        /* \"#utility.yul\":11464:11501   */\n      tag_273\n        /* \"#utility.yul\":11497:11500   */\n      dup3\n        /* \"#utility.yul\":11464:11501   */\n      tag_99\n      jump\t// in\n    tag_273:\n        /* \"#utility.yul\":11566:11584   */\n      0xffffffffffffffff\n        /* \"#utility.yul\":11558:11564   */\n      dup2\n        /* \"#utility.yul\":11555:11585   */\n      gt\n        /* \"#utility.yul\":11552:11608   */\n      iszero\n      tag_274\n      jumpi\n        /* \"#utility.yul\":11588:11606   */\n      tag_275\n      tag_112\n      jump\t// in\n    tag_275:\n        /* \"#utility.yul\":11552:11608   */\n    tag_274:\n        /* \"#utility.yul\":11632:11670   */\n      tag_276\n        /* \"#utility.yul\":11664:11668   */\n      dup3\n        /* \"#utility.yul\":11658:11669   */\n      sload\n        /* \"#utility.yul\":11632:11670   */\n      tag_48\n      jump\t// in\n    tag_276:\n        /* \"#utility.yul\":11717:11784   */\n      tag_277\n        /* \"#utility.yul\":11777:11783   */\n      dup3\n        /* \"#utility.yul\":11769:11775   */\n      dup3\n        /* \"#utility.yul\":11763:11767   */\n      dup6\n        /* \"#utility.yul\":11717:11784   */\n      tag_133\n      jump\t// in\n    tag_277:\n        /* \"#utility.yul\":11811:11812   */\n      0x00\n        /* \"#utility.yul\":11835:11839   */\n      0x20\n        /* \"#utility.yul\":11822:11839   */\n      swap1\n      pop\n        /* \"#utility.yul\":11867:11869   */\n      0x1f\n        /* \"#utility.yul\":11859:11865   */\n      dup4\n        /* \"#utility.yul\":11856:11870   */\n      gt\n        /* \"#utility.yul\":11884:11885   */\n      0x01\n        /* \"#utility.yul\":11879:12497   */\n      dup2\n      eq\n      tag_279\n      jumpi\n        /* \"#utility.yul\":12541:12542   */\n      0x00\n        /* \"#utility.yul\":12558:12564   */\n      dup5\n        /* \"#utility.yul\":12555:12632   */\n      iszero\n      tag_280\n      jumpi\n        /* \"#utility.yul\":12607:12616   */\n      dup3\n        /* \"#utility.yul\":12602:12605   */\n      dup8\n        /* \"#utility.yul\":12598:12617   */\n      add\n        /* \"#utility.yul\":12592:12618   */\n      mload\n        /* \"#utility.yul\":12583:12618   */\n      swap1\n      pop\n        /* \"#utility.yul\":12555:12632   */\n    tag_280:\n        /* \"#utility.yul\":12658:12725   */\n      tag_281\n        /* \"#utility.yul\":12718:12724   */\n      dup6\n        /* \"#utility.yul\":12711:12716   */\n      dup3\n        /* \"#utility.yul\":12658:12725   */\n      tag_136\n      jump\t// in\n    tag_281:\n        /* \"#utility.yul\":12652:12656   */\n      dup7\n        /* \"#utility.yul\":12645:12726   */\n      sstore\n        /* \"#utility.yul\":12514:12736   */\n      pop\n        /* \"#utility.yul\":11849:12736   */\n      jump(tag_278)\n        /* \"#utility.yul\":11879:12497   */\n    tag_279:\n        /* \"#utility.yul\":11931:11935   */\n      0x1f\n        /* \"#utility.yul\":11927:11936   */\n      not\n        /* \"#utility.yul\":11919:11925   */\n      dup5\n        /* \"#utility.yul\":11915:11937   */\n      and\n        /* \"#utility.yul\":11965:12002   */\n      tag_282\n        /* \"#utility.yul\":11997:12001   */\n      dup7\n        /* \"#utility.yul\":11965:12002   */\n      tag_122\n      jump\t// in\n    tag_282:\n        /* \"#utility.yul\":12024:12025   */\n      0x00\n        /* \"#utility.yul\":12038:12246   */\n    tag_283:\n        /* \"#utility.yul\":12052:12059   */\n      dup3\n        /* \"#utility.yul\":12049:12050   */\n      dup2\n        /* \"#utility.yul\":12046:12060   */\n      lt\n        /* \"#utility.yul\":12038:12246   */\n      iszero\n      tag_285\n      jumpi\n        /* \"#utility.yul\":12131:12140   */\n      dup5\n        /* \"#utility.yul\":12126:12129   */\n      dup10\n        /* \"#utility.yul\":12122:12141   */\n      add\n        /* \"#utility.yul\":12116:12142   */\n      mload\n        /* \"#utility.yul\":12108:12114   */\n      dup3\n        /* \"#utility.yul\":12101:12143   */\n      sstore\n        /* \"#utility.yul\":12182:12183   */\n      0x01\n        /* \"#utility.yul\":12174:12180   */\n      dup3\n        /* \"#utility.yul\":12170:12184   */\n      add\n        /* \"#utility.yul\":12160:12184   */\n      swap2\n      pop\n        /* \"#utility.yul\":12229:12231   */\n      0x20\n        /* \"#utility.yul\":12218:12227   */\n      dup6\n        /* \"#utility.yul\":12214:12232   */\n      add\n        /* \"#utility.yul\":12201:12232   */\n      swap5\n      pop\n        /* \"#utility.yul\":12075:12079   */\n      0x20\n        /* \"#utility.yul\":12072:12073   */\n      dup2\n        /* \"#utility.yul\":12068:12080   */\n      add\n        /* \"#utility.yul\":12063:12080   */\n      swap1\n      pop\n        /* \"#utility.yul\":12038:12246   */\n      jump(tag_283)\n    tag_285:\n        /* \"#utility.yul\":12274:12280   */\n      dup7\n        /* \"#utility.yul\":12265:12272   */\n      dup4\n        /* \"#utility.yul\":12262:12281   */\n      lt\n        /* \"#utility.yul\":12259:12438   */\n      iszero\n      tag_286\n      jumpi\n        /* \"#utility.yul\":12332:12341   */\n      dup5\n        /* \"#utility.yul\":12327:12330   */\n      dup10\n        /* \"#utility.yul\":12323:12342   */\n      add\n        /* \"#utility.yul\":12317:12343   */\n      mload\n        /* \"#utility.yul\":12375:12423   */\n      tag_287\n        /* \"#utility.yul\":12417:12421   */\n      0x1f\n        /* \"#utility.yul\":12409:12415   */\n      dup10\n        /* \"#utility.yul\":12405:12422   */\n      and\n        /* \"#utility.yul\":12394:12403   */\n      dup3\n        /* \"#utility.yul\":12375:12423   */\n      tag_135\n      jump\t// in\n    tag_287:\n        /* \"#utility.yul\":12367:12373   */\n      dup4\n        /* \"#utility.yul\":12360:12424   */\n      sstore\n        /* \"#utility.yul\":12282:12438   */\n      pop\n        /* \"#utility.yul\":12259:12438   */\n    tag_286:\n        /* \"#utility.yul\":12484:12485   */\n      0x01\n        /* \"#utility.yul\":12480:12481   */\n      0x02\n        /* \"#utility.yul\":12472:12478   */\n      dup9\n        /* \"#utility.yul\":12468:12482   */\n      mul\n        /* \"#utility.yul\":12464:12486   */\n      add\n        /* \"#utility.yul\":12458:12462   */\n      dup9\n        /* \"#utility.yul\":12451:12487   */\n      sstore\n        /* \"#utility.yul\":11886:12497   */\n      pop\n      pop\n      pop\n        /* \"#utility.yul\":11849:12736   */\n    tag_278:\n      pop\n        /* \"#utility.yul\":11439:12742   */\n      pop\n      pop\n      pop\n        /* \"#utility.yul\":11347:12742   */\n      pop\n      pop\n      jump\t// out\n        /* \"#utility.yul\":12748:12928   */\n    tag_137:\n        /* \"#utility.yul\":12796:12873   */\n      0x4e487b7100000000000000000000000000000000000000000000000000000000\n        /* \"#utility.yul\":12793:12794   */\n      0x00\n        /* \"#utility.yul\":12786:12874   */\n      mstore\n        /* \"#utility.yul\":12893:12897   */\n      0x11\n        /* \"#utility.yul\":12890:12891   */\n      0x04\n        /* \"#utility.yul\":12883:12898   */\n      mstore\n        /* \"#utility.yul\":12917:12921   */\n      0x24\n        /* \"#utility.yul\":12914:12915   */\n      0x00\n        /* \"#utility.yul\":12907:12922   */\n      revert\n        /* \"#utility.yul\":12934:13128   */\n    tag_58:\n        /* \"#utility.yul\":12974:12978   */\n      0x00\n        /* \"#utility.yul\":12994:13014   */\n      tag_290\n        /* \"#utility.yul\":13012:13013   */\n      dup3\n        /* \"#utility.yul\":12994:13014   */\n      tag_93\n      jump\t// in\n    tag_290:\n        /* \"#utility.yul\":12989:13014   */\n      swap2\n      pop\n        /* \"#utility.yul\":13028:13048   */\n      tag_291\n        /* \"#utility.yul\":13046:13047   */\n      dup4\n        /* \"#utility.yul\":13028:13048   */\n      tag_93\n      jump\t// in\n    tag_291:\n        /* \"#utility.yul\":13023:13048   */\n      swap3\n      pop\n        /* \"#utility.yul\":13072:13073   */\n      dup3\n        /* \"#utility.yul\":13069:13070   */\n      dup3\n        /* \"#utility.yul\":13065:13074   */\n      sub\n        /* \"#utility.yul\":13057:13074   */\n      swap1\n      pop\n        /* \"#utility.yul\":13096:13097   */\n      dup2\n        /* \"#utility.yul\":13090:13094   */\n      dup2\n        /* \"#utility.yul\":13087:13098   */\n      gt\n        /* \"#utility.yul\":13084:13121   */\n      iszero\n      tag_292\n      jumpi\n        /* \"#utility.yul\":13101:13119   */\n      tag_293\n      tag_137\n      jump\t// in\n    tag_293:\n        /* \"#utility.yul\":13084:13121   */\n    tag_292:\n        /* \"#utility.yul\":12934:13128   */\n      swap3\n      swap2\n      pop\n      pop\n      jump\t// out\n        /* \"#utility.yul\":13134:13252   */\n    tag_138:\n        /* \"#utility.yul\":13221:13245   */\n      tag_295\n        /* \"#utility.yul\":13239:13244   */\n      dup2\n        /* \"#utility.yul\":13221:13245   */\n      tag_93\n      jump\t// in\n    tag_295:\n        /* \"#utility.yul\":13216:13219   */\n      dup3\n        /* \"#utility.yul\":13209:13246   */\n      mstore\n        /* \"#utility.yul\":13134:13252   */\n      pop\n      pop\n      jump\t// out\n        /* \"#utility.yul\":13258:13681   */\n    tag_60:\n        /* \"#utility.yul\":13399:13403   */\n      0x00\n        /* \"#utility.yul\":13437:13439   */\n      0x40\n        /* \"#utility.yul\":13426:13435   */\n      dup3\n        /* \"#utility.yul\":13422:13440   */\n      add\n        /* \"#utility.yul\":13414:13440   */\n      swap1\n      pop\n        /* \"#utility.yul\":13450:13521   */\n      tag_297\n        /* \"#utility.yul\":13518:13519   */\n      0x00\n        /* \"#utility.yul\":13507:13516   */\n      dup4\n        /* \"#utility.yul\":13503:13520   */\n      add\n        /* \"#utility.yul\":13494:13500   */\n      dup6\n        /* \"#utility.yul\":13450:13521   */\n      tag_138\n      jump\t// in\n    tag_297:\n        /* \"#utility.yul\":13568:13577   */\n      dup2\n        /* \"#utility.yul\":13562:13566   */\n      dup2\n        /* \"#utility.yul\":13558:13578   */\n      sub\n        /* \"#utility.yul\":13553:13555   */\n      0x20\n        /* \"#utility.yul\":13542:13551   */\n      dup4\n        /* \"#utility.yul\":13538:13556   */\n      add\n        /* \"#utility.yul\":13531:13579   */\n      mstore\n        /* \"#utility.yul\":13596:13674   */\n      tag_298\n        /* \"#utility.yul\":13669:13673   */\n      dup2\n        /* \"#utility.yul\":13660:13666   */\n      dup5\n        /* \"#utility.yul\":13596:13674   */\n      tag_103\n      jump\t// in\n    tag_298:\n        /* \"#utility.yul\":13588:13674   */\n      swap1\n      pop\n        /* \"#utility.yul\":13258:13681   */\n      swap4\n      swap3\n      pop\n      pop\n      pop\n      jump\t// out\n\n    auxdata: 0xa26469706673582212203caeec7b45e6ab73e0b8e54827299f727466610acba6c93a3b5ea1b55f0e630064736f6c634300081e0033\n}\n",
				"bytecode": {
					"linkReferences": {},
					"object": "608060405234801561000f575f5ffd5b50335f73ffffffffffffffffffffffffffffffffffffffff168173ffffffffffffffffffffffffffffffffffffffff1603610081575f6040517f1e4fbdf70000000000000000000000000000000000000000000000000000000081526004016100789190610196565b60405180910390fd5b6100908161009660201b60201c565b506101af565b5f5f5f9054906101000a900473ffffffffffffffffffffffffffffffffffffffff169050815f5f6101000a81548173ffffffffffffffffffffffffffffffffffffffff021916908373ffffffffffffffffffffffffffffffffffffffff1602179055508173ffffffffffffffffffffffffffffffffffffffff168173ffffffffffffffffffffffffffffffffffffffff167f8be0079c531659141344cd1fd0a4f28419497f9722a3daafe3b4186f6b6457e060405160405180910390a35050565b5f73ffffffffffffffffffffffffffffffffffffffff82169050919050565b5f61018082610157565b9050919050565b61019081610176565b82525050565b5f6020820190506101a95f830184610187565b92915050565b610f3f806101bc5f395ff3fe608060405234801561000f575f5ffd5b5060043610610086575f3560e01c8063715018a611610059578063715018a61461013b5780638da5cb5b14610145578063b06b036814610163578063f2fde38b1461019657610086565b80630d2927321461008a5780632e6b221d146100ba5780633824fbec146100ef5780635f6fdddf1461011f575b5f5ffd5b6100a4600480360381019061009f91906107e0565b6101b2565b6040516100b1919061084a565b60405180910390f35b6100d460048036038101906100cf91906107e0565b6101e2565b6040516100e696959493929190610928565b60405180910390f35b610109600480360381019061010491906107e0565b6102f9565b604051610116919061084a565b60405180910390f35b61013960048036038101906101349190610aba565b610329565b005b6101436104a3565b005b61014d6104b6565b60405161015a919061084a565b60405180910390f35b61017d600480360381019061017891906107e0565b6104dd565b60405161018d9493929190610b01565b60405180910390f35b6101b060048036038101906101ab9190610b75565b6105c9565b005b6002602052805f5260405f205f915054906101000a900473ffffffffffffffffffffffffffffffffffffffff1681565b600481815481106101f1575f80fd5b905f5260205f2090600202015f91509050805f01805461021090610bcd565b80601f016020809104026020016040519081016040528092919081815260200182805461023c90610bcd565b80156102875780601f1061025e57610100808354040283529160200191610287565b820191905f5260205f20905b81548152906001019060200180831161026a57829003601f168201915b505050505090806001015f9054906101000a900463ffffffff16908060010160049054906101000a900463ffffffff16908060010160089054906101000a900463ffffffff169080600101600c9054906101000a900461ffff169080600101600e9054906101000a900460ff16905086565b6005602052805f5260405f205f915054906101000a900473ffffffffffffffffffffffffffffffffffffffff1681565b60016040518060800160405280838152602001600161ffff1681526020015f63ffffffff1681526020015f61ffff16815250908060018154018082558091505060019003905f5260205f2090600202015f909190919091505f820151815f0190816103949190610d9d565b506020820151816001015f6101000a81548161ffff021916908361ffff16021790555060408201518160010160026101000a81548163ffffffff021916908363ffffffff16021790555060608201518160010160066101000a81548161ffff021916908361ffff16021790555050505f600180805490506104159190610e99565b90503360025f8381526020019081526020015f205f6101000a81548173ffffffffffffffffffffffffffffffffffffffff021916908373ffffffffffffffffffffffffffffffffffffffff1602179055507f41b82268d4cfcb7bde62bae060583c745a4821f267e1fe541b5f624e00d43c7d8183604051610497929190610edb565b60405180910390a15050565b6104ab61064d565b6104b45f6106d4565b565b5f5f5f9054906101000a900473ffffffffffffffffffffffffffffffffffffffff16905090565b600181815481106104ec575f80fd5b905f5260205f2090600202015f91509050805f01805461050b90610bcd565b80601f016020809104026020016040519081016040528092919081815260200182805461053790610bcd565b80156105825780601f1061055957610100808354040283529160200191610582565b820191905f5260205f20905b81548152906001019060200180831161056557829003601f168201915b505050505090806001015f9054906101000a900461ffff16908060010160029054906101000a900463ffffffff16908060010160069054906101000a900461ffff16905084565b6105d161064d565b5f73ffffffffffffffffffffffffffffffffffffffff168173ffffffffffffffffffffffffffffffffffffffff1603610641575f6040517f1e4fbdf7000000000000000000000000000000000000000000000000000000008152600401610638919061084a565b60405180910390fd5b61064a816106d4565b50565b610655610795565b73ffffffffffffffffffffffffffffffffffffffff166106736104b6565b73ffffffffffffffffffffffffffffffffffffffff16146106d257610696610795565b6040517f118cdaa70000000000000000000000000000000000000000000000000000000081526004016106c9919061084a565b60405180910390fd5b565b5f5f5f9054906101000a900473ffffffffffffffffffffffffffffffffffffffff169050815f5f6101000a81548173ffffffffffffffffffffffffffffffffffffffff021916908373ffffffffffffffffffffffffffffffffffffffff1602179055508173ffffffffffffffffffffffffffffffffffffffff168173ffffffffffffffffffffffffffffffffffffffff167f8be0079c531659141344cd1fd0a4f28419497f9722a3daafe3b4186f6b6457e060405160405180910390a35050565b5f33905090565b5f604051905090565b5f5ffd5b5f5ffd5b5f819050919050565b6107bf816107ad565b81146107c9575f5ffd5b50565b5f813590506107da816107b6565b92915050565b5f602082840312156107f5576107f46107a5565b5b5f610802848285016107cc565b91505092915050565b5f73ffffffffffffffffffffffffffffffffffffffff82169050919050565b5f6108348261080b565b9050919050565b6108448161082a565b82525050565b5f60208201905061085d5f83018461083b565b92915050565b5f81519050919050565b5f82825260208201905092915050565b8281835e5f83830152505050565b5f601f19601f8301169050919050565b5f6108a582610863565b6108af818561086d565b93506108bf81856020860161087d565b6108c88161088b565b840191505092915050565b5f63ffffffff82169050919050565b6108eb816108d3565b82525050565b5f61ffff82169050919050565b610907816108f1565b82525050565b5f60ff82169050919050565b6109228161090d565b82525050565b5f60c0820190508181035f830152610940818961089b565b905061094f60208301886108e2565b61095c60408301876108e2565b61096960608301866108e2565b61097660808301856108fe565b61098360a0830184610919565b979650505050505050565b5f5ffd5b5f5ffd5b7f4e487b71000000000000000000000000000000000000000000000000000000005f52604160045260245ffd5b6109cc8261088b565b810181811067ffffffffffffffff821117156109eb576109ea610996565b5b80604052505050565b5f6109fd61079c565b9050610a0982826109c3565b919050565b5f67ffffffffffffffff821115610a2857610a27610996565b5b610a318261088b565b9050602081019050919050565b828183375f83830152505050565b5f610a5e610a5984610a0e565b6109f4565b905082815260208101848484011115610a7a57610a79610992565b5b610a85848285610a3e565b509392505050565b5f82601f830112610aa157610aa061098e565b5b8135610ab1848260208601610a4c565b91505092915050565b5f60208284031215610acf57610ace6107a5565b5b5f82013567ffffffffffffffff811115610aec57610aeb6107a9565b5b610af884828501610a8d565b91505092915050565b5f6080820190508181035f830152610b19818761089b565b9050610b2860208301866108fe565b610b3560408301856108e2565b610b4260608301846108fe565b95945050505050565b610b548161082a565b8114610b5e575f5ffd5b50565b5f81359050610b6f81610b4b565b92915050565b5f60208284031215610b8a57610b896107a5565b5b5f610b9784828501610b61565b91505092915050565b7f4e487b71000000000000000000000000000000000000000000000000000000005f52602260045260245ffd5b5f6002820490506001821680610be457607f821691505b602082108103610bf757610bf6610ba0565b5b50919050565b5f819050815f5260205f209050919050565b5f6020601f8301049050919050565b5f82821b905092915050565b5f60088302610c597fffffffffffffffffffffffffffffffffffffffffffffffffffffffffffffffff82610c1e565b610c638683610c1e565b95508019841693508086168417925050509392505050565b5f819050919050565b5f610c9e610c99610c94846107ad565b610c7b565b6107ad565b9050919050565b5f819050919050565b610cb783610c84565b610ccb610cc382610ca5565b848454610c2a565b825550505050565b5f5f905090565b610ce2610cd3565b610ced818484610cae565b505050565b5b81811015610d1057610d055f82610cda565b600181019050610cf3565b5050565b601f821115610d5557610d2681610bfd565b610d2f84610c0f565b81016020851015610d3e578190505b610d52610d4a85610c0f565b830182610cf2565b50505b505050565b5f82821c905092915050565b5f610d755f1984600802610d5a565b1980831691505092915050565b5f610d8d8383610d66565b9150826002028217905092915050565b610da682610863565b67ffffffffffffffff811115610dbf57610dbe610996565b5b610dc98254610bcd565b610dd4828285610d14565b5f60209050601f831160018114610e05575f8415610df3578287015190505b610dfd8582610d82565b865550610e64565b601f198416610e1386610bfd565b5f5b82811015610e3a57848901518255600182019150602085019450602081019050610e15565b86831015610e575784890151610e53601f891682610d66565b8355505b6001600288020188555050505b505050505050565b7f4e487b71000000000000000000000000000000000000000000000000000000005f52601160045260245ffd5b5f610ea3826107ad565b9150610eae836107ad565b9250828203905081811115610ec657610ec5610e6c565b5b92915050565b610ed5816107ad565b82525050565b5f604082019050610eee5f830185610ecc565b8181036020830152610f00818461089b565b9050939250505056fea26469706673582212203caeec7b45e6ab73e0b8e54827299f727466610acba6c93a3b5ea1b55f0e630064736f6c634300081e0033",
					"opcodes": "PUSH1 0x80 PUSH1 0x40 MSTORE CALLVALUE DUP1 ISZERO PUSH2 0xF JUMPI PUSH0 PUSH0 REVERT JUMPDEST POP CALLER PUSH0 PUSH20 0xFFFFFFFFFFFFFFFFFFFFFFFFFFFFFFFFFFFFFFFF AND DUP2 PUSH20 0xFFFFFFFFFFFFFFFFFFFFFFFFFFFFFFFFFFFFFFFF AND SUB PUSH2 0x81 JUMPI PUSH0 PUSH1 0x40 MLOAD PUSH32 0x1E4FBDF700000000000000000000000000000000000000000000000000000000 DUP2 MSTORE PUSH1 0x4 ADD PUSH2 0x78 SWAP2 SWAP1 PUSH2 0x196 JUMP JUMPDEST PUSH1 0x40 MLOAD DUP1 SWAP2 SUB SWAP1 REVERT JUMPDEST PUSH2 0x90 DUP2 PUSH2 0x96 PUSH1 0x20 SHL PUSH1 0x20 SHR JUMP JUMPDEST POP PUSH2 0x1AF JUMP JUMPDEST PUSH0 PUSH0 PUSH0 SWAP1 SLOAD SWAP1 PUSH2 0x100 EXP SWAP1 DIV PUSH20 0xFFFFFFFFFFFFFFFFFFFFFFFFFFFFFFFFFFFFFFFF AND SWAP1 POP DUP2 PUSH0 PUSH0 PUSH2 0x100 EXP DUP2 SLOAD DUP2 PUSH20 0xFFFFFFFFFFFFFFFFFFFFFFFFFFFFFFFFFFFFFFFF MUL NOT AND SWAP1 DUP4 PUSH20 0xFFFFFFFFFFFFFFFFFFFFFFFFFFFFFFFFFFFFFFFF AND MUL OR SWAP1 SSTORE POP DUP2 PUSH20 0xFFFFFFFFFFFFFFFFFFFFFFFFFFFFFFFFFFFFFFFF AND DUP2 PUSH20 0xFFFFFFFFFFFFFFFFFFFFFFFFFFFFFFFFFFFFFFFF AND PUSH32 0x8BE0079C531659141344CD1FD0A4F28419497F9722A3DAAFE3B4186F6B6457E0 PUSH1 0x40 MLOAD PUSH1 0x40 MLOAD DUP1 SWAP2 SUB SWAP1 LOG3 POP POP JUMP JUMPDEST PUSH0 PUSH20 0xFFFFFFFFFFFFFFFFFFFFFFFFFFFFFFFFFFFFFFFF DUP3 AND SWAP1 POP SWAP2 SWAP1 POP JUMP JUMPDEST PUSH0 PUSH2 0x180 DUP3 PUSH2 0x157 JUMP JUMPDEST SWAP1 POP SWAP2 SWAP1 POP JUMP JUMPDEST PUSH2 0x190 DUP2 PUSH2 0x176 JUMP JUMPDEST DUP3 MSTORE POP POP JUMP JUMPDEST PUSH0 PUSH1 0x20 DUP3 ADD SWAP1 POP PUSH2 0x1A9 PUSH0 DUP4 ADD DUP5 PUSH2 0x187 JUMP JUMPDEST SWAP3 SWAP2 POP POP JUMP JUMPDEST PUSH2 0xF3F DUP1 PUSH2 0x1BC PUSH0 CODECOPY PUSH0 RETURN INVALID PUSH1 0x80 PUSH1 0x40 MSTORE CALLVALUE DUP1 ISZERO PUSH2 0xF JUMPI PUSH0 PUSH0 REVERT JUMPDEST POP PUSH1 0x4 CALLDATASIZE LT PUSH2 0x86 JUMPI PUSH0 CALLDATALOAD PUSH1 0xE0 SHR DUP1 PUSH4 0x715018A6 GT PUSH2 0x59 JUMPI DUP1 PUSH4 0x715018A6 EQ PUSH2 0x13B JUMPI DUP1 PUSH4 0x8DA5CB5B EQ PUSH2 0x145 JUMPI DUP1 PUSH4 0xB06B0368 EQ PUSH2 0x163 JUMPI DUP1 PUSH4 0xF2FDE38B EQ PUSH2 0x196 JUMPI PUSH2 0x86 JUMP JUMPDEST DUP1 PUSH4 0xD292732 EQ PUSH2 0x8A JUMPI DUP1 PUSH4 0x2E6B221D EQ PUSH2 0xBA JUMPI DUP1 PUSH4 0x3824FBEC EQ PUSH2 0xEF JUMPI DUP1 PUSH4 0x5F6FDDDF EQ PUSH2 0x11F JUMPI JUMPDEST PUSH0 PUSH0 REVERT JUMPDEST PUSH2 0xA4 PUSH1 0x4 DUP1 CALLDATASIZE SUB DUP2 ADD SWAP1 PUSH2 0x9F SWAP2 SWAP1 PUSH2 0x7E0 JUMP JUMPDEST PUSH2 0x1B2 JUMP JUMPDEST PUSH1 0x40 MLOAD PUSH2 0xB1 SWAP2 SWAP1 PUSH2 0x84A JUMP JUMPDEST PUSH1 0x40 MLOAD DUP1 SWAP2 SUB SWAP1 RETURN JUMPDEST PUSH2 0xD4 PUSH1 0x4 DUP1 CALLDATASIZE SUB DUP2 ADD SWAP1 PUSH2 0xCF SWAP2 SWAP1 PUSH2 0x7E0 JUMP JUMPDEST PUSH2 0x1E2 JUMP JUMPDEST PUSH1 0x40 MLOAD PUSH2 0xE6 SWAP7 SWAP6 SWAP5 SWAP4 SWAP3 SWAP2 SWAP1 PUSH2 0x928 JUMP JUMPDEST PUSH1 0x40 MLOAD DUP1 SWAP2 SUB SWAP1 RETURN JUMPDEST PUSH2 0x109 PUSH1 0x4 DUP1 CALLDATASIZE SUB DUP2 ADD SWAP1 PUSH2 0x104 SWAP2 SWAP1 PUSH2 0x7E0 JUMP JUMPDEST PUSH2 0x2F9 JUMP JUMPDEST PUSH1 0x40 MLOAD PUSH2 0x116 SWAP2 SWAP1 PUSH2 0x84A JUMP JUMPDEST PUSH1 0x40 MLOAD DUP1 SWAP2 SUB SWAP1 RETURN JUMPDEST PUSH2 0x139 PUSH1 0x4 DUP1 CALLDATASIZE SUB DUP2 ADD SWAP1 PUSH2 0x134 SWAP2 SWAP1 PUSH2 0xABA JUMP JUMPDEST PUSH2 0x329 JUMP JUMPDEST STOP JUMPDEST PUSH2 0x143 PUSH2 0x4A3 JUMP JUMPDEST STOP JUMPDEST PUSH2 0x14D PUSH2 0x4B6 JUMP JUMPDEST PUSH1 0x40 MLOAD PUSH2 0x15A SWAP2 SWAP1 PUSH2 0x84A JUMP JUMPDEST PUSH1 0x40 MLOAD DUP1 SWAP2 SUB SWAP1 RETURN JUMPDEST PUSH2 0x17D PUSH1 0x4 DUP1 CALLDATASIZE SUB DUP2 ADD SWAP1 PUSH2 0x178 SWAP2 SWAP1 PUSH2 0x7E0 JUMP JUMPDEST PUSH2 0x4DD JUMP JUMPDEST PUSH1 0x40 MLOAD PUSH2 0x18D SWAP5 SWAP4 SWAP3 SWAP2 SWAP1 PUSH2 0xB01 JUMP JUMPDEST PUSH1 0x40 MLOAD DUP1 SWAP2 SUB SWAP1 RETURN JUMPDEST PUSH2 0x1B0 PUSH1 0x4 DUP1 CALLDATASIZE SUB DUP2 ADD SWAP1 PUSH2 0x1AB SWAP2 SWAP1 PUSH2 0xB75 JUMP JUMPDEST PUSH2 0x5C9 JUMP JUMPDEST STOP JUMPDEST PUSH1 0x2 PUSH1 0x20 MSTORE DUP1 PUSH0 MSTORE PUSH1 0x40 PUSH0 KECCAK256 PUSH0 SWAP2 POP SLOAD SWAP1 PUSH2 0x100 EXP SWAP1 DIV PUSH20 0xFFFFFFFFFFFFFFFFFFFFFFFFFFFFFFFFFFFFFFFF AND DUP2 JUMP JUMPDEST PUSH1 0x4 DUP2 DUP2 SLOAD DUP2 LT PUSH2 0x1F1 JUMPI PUSH0 DUP1 REVERT JUMPDEST SWAP1 PUSH0 MSTORE PUSH1 0x20 PUSH0 KECCAK256 SWAP1 PUSH1 0x2 MUL ADD PUSH0 SWAP2 POP SWAP1 POP DUP1 PUSH0 ADD DUP1 SLOAD PUSH2 0x210 SWAP1 PUSH2 0xBCD JUMP JUMPDEST DUP1 PUSH1 0x1F ADD PUSH1 0x20 DUP1 SWAP2 DIV MUL PUSH1 0x20 ADD PUSH1 0x40 MLOAD SWAP1 DUP2 ADD PUSH1 0x40 MSTORE DUP1 SWAP3 SWAP2 SWAP1 DUP2 DUP2 MSTORE PUSH1 0x20 ADD DUP3 DUP1 SLOAD PUSH2 0x23C SWAP1 PUSH2 0xBCD JUMP JUMPDEST DUP1 ISZERO PUSH2 0x287 JUMPI DUP1 PUSH1 0x1F LT PUSH2 0x25E JUMPI PUSH2 0x100 DUP1 DUP4 SLOAD DIV MUL DUP4 MSTORE SWAP2 PUSH1 0x20 ADD SWAP2 PUSH2 0x287 JUMP JUMPDEST DUP3 ADD SWAP2 SWAP1 PUSH0 MSTORE PUSH1 0x20 PUSH0 KECCAK256 SWAP1 JUMPDEST DUP2 SLOAD DUP2 MSTORE SWAP1 PUSH1 0x1 ADD SWAP1 PUSH1 0x20 ADD DUP1 DUP4 GT PUSH2 0x26A JUMPI DUP3 SWAP1 SUB PUSH1 0x1F AND DUP3 ADD SWAP2 JUMPDEST POP POP POP POP POP SWAP1 DUP1 PUSH1 0x1 ADD PUSH0 SWAP1 SLOAD SWAP1 PUSH2 0x100 EXP SWAP1 DIV PUSH4 0xFFFFFFFF AND SWAP1 DUP1 PUSH1 0x1 ADD PUSH1 0x4 SWAP1 SLOAD SWAP1 PUSH2 0x100 EXP SWAP1 DIV PUSH4 0xFFFFFFFF AND SWAP1 DUP1 PUSH1 0x1 ADD PUSH1 0x8 SWAP1 SLOAD SWAP1 PUSH2 0x100 EXP SWAP1 DIV PUSH4 0xFFFFFFFF AND SWAP1 DUP1 PUSH1 0x1 ADD PUSH1 0xC SWAP1 SLOAD SWAP1 PUSH2 0x100 EXP SWAP1 DIV PUSH2 0xFFFF AND SWAP1 DUP1 PUSH1 0x1 ADD PUSH1 0xE SWAP1 SLOAD SWAP1 PUSH2 0x100 EXP SWAP1 DIV PUSH1 0xFF AND SWAP1 POP DUP7 JUMP JUMPDEST PUSH1 0x5 PUSH1 0x20 MSTORE DUP1 PUSH0 MSTORE PUSH1 0x40 PUSH0 KECCAK256 PUSH0 SWAP2 POP SLOAD SWAP1 PUSH2 0x100 EXP SWAP1 DIV PUSH20 0xFFFFFFFFFFFFFFFFFFFFFFFFFFFFFFFFFFFFFFFF AND DUP2 JUMP JUMPDEST PUSH1 0x1 PUSH1 0x40 MLOAD DUP1 PUSH1 0x80 ADD PUSH1 0x40 MSTORE DUP1 DUP4 DUP2 MSTORE PUSH1 0x20 ADD PUSH1 0x1 PUSH2 0xFFFF AND DUP2 MSTORE PUSH1 0x20 ADD PUSH0 PUSH4 0xFFFFFFFF AND DUP2 MSTORE PUSH1 0x20 ADD PUSH0 PUSH2 0xFFFF AND DUP2 MSTORE POP SWAP1 DUP1 PUSH1 0x1 DUP2 SLOAD ADD DUP1 DUP3 SSTORE DUP1 SWAP2 POP POP PUSH1 0x1 SWAP1 SUB SWAP1 PUSH0 MSTORE PUSH1 0x20 PUSH0 KECCAK256 SWAP1 PUSH1 0x2 MUL ADD PUSH0 SWAP1 SWAP2 SWAP1 SWAP2 SWAP1 SWAP2 POP PUSH0 DUP3 ADD MLOAD DUP2 PUSH0 ADD SWAP1 DUP2 PUSH2 0x394 SWAP2 SWAP1 PUSH2 0xD9D JUMP JUMPDEST POP PUSH1 0x20 DUP3 ADD MLOAD DUP2 PUSH1 0x1 ADD PUSH0 PUSH2 0x100 EXP DUP2 SLOAD DUP2 PUSH2 0xFFFF MUL NOT AND SWAP1 DUP4 PUSH2 0xFFFF AND MUL OR SWAP1 SSTORE POP PUSH1 0x40 DUP3 ADD MLOAD DUP2 PUSH1 0x1 ADD PUSH1 0x2 PUSH2 0x100 EXP DUP2 SLOAD DUP2 PUSH4 0xFFFFFFFF MUL NOT AND SWAP1 DUP4 PUSH4 0xFFFFFFFF AND MUL OR SWAP1 SSTORE POP PUSH1 0x60 DUP3 ADD MLOAD DUP2 PUSH1 0x1 ADD PUSH1 0x6 PUSH2 0x100 EXP DUP2 SLOAD DUP2 PUSH2 0xFFFF MUL NOT AND SWAP1 DUP4 PUSH2 0xFFFF AND MUL OR SWAP1 SSTORE POP POP POP PUSH0 PUSH1 0x1 DUP1 DUP1 SLOAD SWAP1 POP PUSH2 0x415 SWAP2 SWAP1 PUSH2 0xE99 JUMP JUMPDEST SWAP1 POP CALLER PUSH1 0x2 PUSH0 DUP4 DUP2 MSTORE PUSH1 0x20 ADD SWAP1 DUP2 MSTORE PUSH1 0x20 ADD PUSH0 KECCAK256 PUSH0 PUSH2 0x100 EXP DUP2 SLOAD DUP2 PUSH20 0xFFFFFFFFFFFFFFFFFFFFFFFFFFFFFFFFFFFFFFFF MUL NOT AND SWAP1 DUP4 PUSH20 0xFFFFFFFFFFFFFFFFFFFFFFFFFFFFFFFFFFFFFFFF AND MUL OR SWAP1 SSTORE POP PUSH32 0x41B82268D4CFCB7BDE62BAE060583C745A4821F267E1FE541B5F624E00D43C7D DUP2 DUP4 PUSH1 0x40 MLOAD PUSH2 0x497 SWAP3 SWAP2 SWAP1 PUSH2 0xEDB JUMP JUMPDEST PUSH1 0x40 MLOAD DUP1 SWAP2 SUB SWAP1 LOG1 POP POP JUMP JUMPDEST PUSH2 0x4AB PUSH2 0x64D JUMP JUMPDEST PUSH2 0x4B4 PUSH0 PUSH2 0x6D4 JUMP JUMPDEST JUMP JUMPDEST PUSH0 PUSH0 PUSH0 SWAP1 SLOAD SWAP1 PUSH2 0x100 EXP SWAP1 DIV PUSH20 0xFFFFFFFFFFFFFFFFFFFFFFFFFFFFFFFFFFFFFFFF AND SWAP1 POP SWAP1 JUMP JUMPDEST PUSH1 0x1 DUP2 DUP2 SLOAD DUP2 LT PUSH2 0x4EC JUMPI PUSH0 DUP1 REVERT JUMPDEST SWAP1 PUSH0 MSTORE PUSH1 0x20 PUSH0 KECCAK256 SWAP1 PUSH1 0x2 MUL ADD PUSH0 SWAP2 POP SWAP1 POP DUP1 PUSH0 ADD DUP1 SLOAD PUSH2 0x50B SWAP1 PUSH2 0xBCD JUMP JUMPDEST DUP1 PUSH1 0x1F ADD PUSH1 0x20 DUP1 SWAP2 DIV MUL PUSH1 0x20 ADD PUSH1 0x40 MLOAD SWAP1 DUP2 ADD PUSH1 0x40 MSTORE DUP1 SWAP3 SWAP2 SWAP1 DUP2 DUP2 MSTORE PUSH1 0x20 ADD DUP3 DUP1 SLOAD PUSH2 0x537 SWAP1 PUSH2 0xBCD JUMP JUMPDEST DUP1 ISZERO PUSH2 0x582 JUMPI DUP1 PUSH1 0x1F LT PUSH2 0x559 JUMPI PUSH2 0x100 DUP1 DUP4 SLOAD DIV MUL DUP4 MSTORE SWAP2 PUSH1 0x20 ADD SWAP2 PUSH2 0x582 JUMP JUMPDEST DUP3 ADD SWAP2 SWAP1 PUSH0 MSTORE PUSH1 0x20 PUSH0 KECCAK256 SWAP1 JUMPDEST DUP2 SLOAD DUP2 MSTORE SWAP1 PUSH1 0x1 ADD SWAP1 PUSH1 0x20 ADD DUP1 DUP4 GT PUSH2 0x565 JUMPI DUP3 SWAP1 SUB PUSH1 0x1F AND DUP3 ADD SWAP2 JUMPDEST POP POP POP POP POP SWAP1 DUP1 PUSH1 0x1 ADD PUSH0 SWAP1 SLOAD SWAP1 PUSH2 0x100 EXP SWAP1 DIV PUSH2 0xFFFF AND SWAP1 DUP1 PUSH1 0x1 ADD PUSH1 0x2 SWAP1 SLOAD SWAP1 PUSH2 0x100 EXP SWAP1 DIV PUSH4 0xFFFFFFFF AND SWAP1 DUP1 PUSH1 0x1 ADD PUSH1 0x6 SWAP1 SLOAD SWAP1 PUSH2 0x100 EXP SWAP1 DIV PUSH2 0xFFFF AND SWAP1 POP DUP5 JUMP JUMPDEST PUSH2 0x5D1 PUSH2 0x64D JUMP JUMPDEST PUSH0 PUSH20 0xFFFFFFFFFFFFFFFFFFFFFFFFFFFFFFFFFFFFFFFF AND DUP2 PUSH20 0xFFFFFFFFFFFFFFFFFFFFFFFFFFFFFFFFFFFFFFFF AND SUB PUSH2 0x641 JUMPI PUSH0 PUSH1 0x40 MLOAD PUSH32 0x1E4FBDF700000000000000000000000000000000000000000000000000000000 DUP2 MSTORE PUSH1 0x4 ADD PUSH2 0x638 SWAP2 SWAP1 PUSH2 0x84A JUMP JUMPDEST PUSH1 0x40 MLOAD DUP1 SWAP2 SUB SWAP1 REVERT JUMPDEST PUSH2 0x64A DUP2 PUSH2 0x6D4 JUMP JUMPDEST POP JUMP JUMPDEST PUSH2 0x655 PUSH2 0x795 JUMP JUMPDEST PUSH20 0xFFFFFFFFFFFFFFFFFFFFFFFFFFFFFFFFFFFFFFFF AND PUSH2 0x673 PUSH2 0x4B6 JUMP JUMPDEST PUSH20 0xFFFFFFFFFFFFFFFFFFFFFFFFFFFFFFFFFFFFFFFF AND EQ PUSH2 0x6D2 JUMPI PUSH2 0x696 PUSH2 0x795 JUMP JUMPDEST PUSH1 0x40 MLOAD PUSH32 0x118CDAA700000000000000000000000000000000000000000000000000000000 DUP2 MSTORE PUSH1 0x4 ADD PUSH2 0x6C9 SWAP2 SWAP1 PUSH2 0x84A JUMP JUMPDEST PUSH1 0x40 MLOAD DUP1 SWAP2 SUB SWAP1 REVERT JUMPDEST JUMP JUMPDEST PUSH0 PUSH0 PUSH0 SWAP1 SLOAD SWAP1 PUSH2 0x100 EXP SWAP1 DIV PUSH20 0xFFFFFFFFFFFFFFFFFFFFFFFFFFFFFFFFFFFFFFFF AND SWAP1 POP DUP2 PUSH0 PUSH0 PUSH2 0x100 EXP DUP2 SLOAD DUP2 PUSH20 0xFFFFFFFFFFFFFFFFFFFFFFFFFFFFFFFFFFFFFFFF MUL NOT AND SWAP1 DUP4 PUSH20 0xFFFFFFFFFFFFFFFFFFFFFFFFFFFFFFFFFFFFFFFF AND MUL OR SWAP1 SSTORE POP DUP2 PUSH20 0xFFFFFFFFFFFFFFFFFFFFFFFFFFFFFFFFFFFFFFFF AND DUP2 PUSH20 0xFFFFFFFFFFFFFFFFFFFFFFFFFFFFFFFFFFFFFFFF AND PUSH32 0x8BE0079C531659141344CD1FD0A4F28419497F9722A3DAAFE3B4186F6B6457E0 PUSH1 0x40 MLOAD PUSH1 0x40 MLOAD DUP1 SWAP2 SUB SWAP1 LOG3 POP POP JUMP JUMPDEST PUSH0 CALLER SWAP1 POP SWAP1 JUMP JUMPDEST PUSH0 PUSH1 0x40 MLOAD SWAP1 POP SWAP1 JUMP JUMPDEST PUSH0 PUSH0 REVERT JUMPDEST PUSH0 PUSH0 REVERT JUMPDEST PUSH0 DUP2 SWAP1 POP SWAP2 SWAP1 POP JUMP JUMPDEST PUSH2 0x7BF DUP2 PUSH2 0x7AD JUMP JUMPDEST DUP2 EQ PUSH2 0x7C9 JUMPI PUSH0 PUSH0 REVERT JUMPDEST POP JUMP JUMPDEST PUSH0 DUP2 CALLDATALOAD SWAP1 POP PUSH2 0x7DA DUP2 PUSH2 0x7B6 JUMP JUMPDEST SWAP3 SWAP2 POP POP JUMP JUMPDEST PUSH0 PUSH1 0x20 DUP3 DUP5 SUB SLT ISZERO PUSH2 0x7F5 JUMPI PUSH2 0x7F4 PUSH2 0x7A5 JUMP JUMPDEST JUMPDEST PUSH0 PUSH2 0x802 DUP5 DUP3 DUP6 ADD PUSH2 0x7CC JUMP JUMPDEST SWAP2 POP POP SWAP3 SWAP2 POP POP JUMP JUMPDEST PUSH0 PUSH20 0xFFFFFFFFFFFFFFFFFFFFFFFFFFFFFFFFFFFFFFFF DUP3 AND SWAP1 POP SWAP2 SWAP1 POP JUMP JUMPDEST PUSH0 PUSH2 0x834 DUP3 PUSH2 0x80B JUMP JUMPDEST SWAP1 POP SWAP2 SWAP1 POP JUMP JUMPDEST PUSH2 0x844 DUP2 PUSH2 0x82A JUMP JUMPDEST DUP3 MSTORE POP POP JUMP JUMPDEST PUSH0 PUSH1 0x20 DUP3 ADD SWAP1 POP PUSH2 0x85D PUSH0 DUP4 ADD DUP5 PUSH2 0x83B JUMP JUMPDEST SWAP3 SWAP2 POP POP JUMP JUMPDEST PUSH0 DUP2 MLOAD SWAP1 POP SWAP2 SWAP1 POP JUMP JUMPDEST PUSH0 DUP3 DUP3 MSTORE PUSH1 0x20 DUP3 ADD SWAP1 POP SWAP3 SWAP2 POP POP JUMP JUMPDEST DUP3 DUP2 DUP4 MCOPY PUSH0 DUP4 DUP4 ADD MSTORE POP POP POP JUMP JUMPDEST PUSH0 PUSH1 0x1F NOT PUSH1 0x1F DUP4 ADD AND SWAP1 POP SWAP2 SWAP1 POP JUMP JUMPDEST PUSH0 PUSH2 0x8A5 DUP3 PUSH2 0x863 JUMP JUMPDEST PUSH2 0x8AF DUP2 DUP6 PUSH2 0x86D JUMP JUMPDEST SWAP4 POP PUSH2 0x8BF DUP2 DUP6 PUSH1 0x20 DUP7 ADD PUSH2 0x87D JUMP JUMPDEST PUSH2 0x8C8 DUP2 PUSH2 0x88B JUMP JUMPDEST DUP5 ADD SWAP2 POP POP SWAP3 SWAP2 POP POP JUMP JUMPDEST PUSH0 PUSH4 0xFFFFFFFF DUP3 AND SWAP1 POP SWAP2 SWAP1 POP JUMP JUMPDEST PUSH2 0x8EB DUP2 PUSH2 0x8D3 JUMP JUMPDEST DUP3 MSTORE POP POP JUMP JUMPDEST PUSH0 PUSH2 0xFFFF DUP3 AND SWAP1 POP SWAP2 SWAP1 POP JUMP JUMPDEST PUSH2 0x907 DUP2 PUSH2 0x8F1 JUMP JUMPDEST DUP3 MSTORE POP POP JUMP JUMPDEST PUSH0 PUSH1 0xFF DUP3 AND SWAP1 POP SWAP2 SWAP1 POP JUMP JUMPDEST PUSH2 0x922 DUP2 PUSH2 0x90D JUMP JUMPDEST DUP3 MSTORE POP POP JUMP JUMPDEST PUSH0 PUSH1 0xC0 DUP3 ADD SWAP1 POP DUP2 DUP2 SUB PUSH0 DUP4 ADD MSTORE PUSH2 0x940 DUP2 DUP10 PUSH2 0x89B JUMP JUMPDEST SWAP1 POP PUSH2 0x94F PUSH1 0x20 DUP4 ADD DUP9 PUSH2 0x8E2 JUMP JUMPDEST PUSH2 0x95C PUSH1 0x40 DUP4 ADD DUP8 PUSH2 0x8E2 JUMP JUMPDEST PUSH2 0x969 PUSH1 0x60 DUP4 ADD DUP7 PUSH2 0x8E2 JUMP JUMPDEST PUSH2 0x976 PUSH1 0x80 DUP4 ADD DUP6 PUSH2 0x8FE JUMP JUMPDEST PUSH2 0x983 PUSH1 0xA0 DUP4 ADD DUP5 PUSH2 0x919 JUMP JUMPDEST SWAP8 SWAP7 POP POP POP POP POP POP POP JUMP JUMPDEST PUSH0 PUSH0 REVERT JUMPDEST PUSH0 PUSH0 REVERT JUMPDEST PUSH32 0x4E487B7100000000000000000000000000000000000000000000000000000000 PUSH0 MSTORE PUSH1 0x41 PUSH1 0x4 MSTORE PUSH1 0x24 PUSH0 REVERT JUMPDEST PUSH2 0x9CC DUP3 PUSH2 0x88B JUMP JUMPDEST DUP2 ADD DUP2 DUP2 LT PUSH8 0xFFFFFFFFFFFFFFFF DUP3 GT OR ISZERO PUSH2 0x9EB JUMPI PUSH2 0x9EA PUSH2 0x996 JUMP JUMPDEST JUMPDEST DUP1 PUSH1 0x40 MSTORE POP POP POP JUMP JUMPDEST PUSH0 PUSH2 0x9FD PUSH2 0x79C JUMP JUMPDEST SWAP1 POP PUSH2 0xA09 DUP3 DUP3 PUSH2 0x9C3 JUMP JUMPDEST SWAP2 SWAP1 POP JUMP JUMPDEST PUSH0 PUSH8 0xFFFFFFFFFFFFFFFF DUP3 GT ISZERO PUSH2 0xA28 JUMPI PUSH2 0xA27 PUSH2 0x996 JUMP JUMPDEST JUMPDEST PUSH2 0xA31 DUP3 PUSH2 0x88B JUMP JUMPDEST SWAP1 POP PUSH1 0x20 DUP2 ADD SWAP1 POP SWAP2 SWAP1 POP JUMP JUMPDEST DUP3 DUP2 DUP4 CALLDATACOPY PUSH0 DUP4 DUP4 ADD MSTORE POP POP POP JUMP JUMPDEST PUSH0 PUSH2 0xA5E PUSH2 0xA59 DUP5 PUSH2 0xA0E JUMP JUMPDEST PUSH2 0x9F4 JUMP JUMPDEST SWAP1 POP DUP3 DUP2 MSTORE PUSH1 0x20 DUP2 ADD DUP5 DUP5 DUP5 ADD GT ISZERO PUSH2 0xA7A JUMPI PUSH2 0xA79 PUSH2 0x992 JUMP JUMPDEST JUMPDEST PUSH2 0xA85 DUP5 DUP3 DUP6 PUSH2 0xA3E JUMP JUMPDEST POP SWAP4 SWAP3 POP POP POP JUMP JUMPDEST PUSH0 DUP3 PUSH1 0x1F DUP4 ADD SLT PUSH2 0xAA1 JUMPI PUSH2 0xAA0 PUSH2 0x98E JUMP JUMPDEST JUMPDEST DUP2 CALLDATALOAD PUSH2 0xAB1 DUP5 DUP3 PUSH1 0x20 DUP7 ADD PUSH2 0xA4C JUMP JUMPDEST SWAP2 POP POP SWAP3 SWAP2 POP POP JUMP JUMPDEST PUSH0 PUSH1 0x20 DUP3 DUP5 SUB SLT ISZERO PUSH2 0xACF JUMPI PUSH2 0xACE PUSH2 0x7A5 JUMP JUMPDEST JUMPDEST PUSH0 DUP3 ADD CALLDATALOAD PUSH8 0xFFFFFFFFFFFFFFFF DUP2 GT ISZERO PUSH2 0xAEC JUMPI PUSH2 0xAEB PUSH2 0x7A9 JUMP JUMPDEST JUMPDEST PUSH2 0xAF8 DUP5 DUP3 DUP6 ADD PUSH2 0xA8D JUMP JUMPDEST SWAP2 POP POP SWAP3 SWAP2 POP POP JUMP JUMPDEST PUSH0 PUSH1 0x80 DUP3 ADD SWAP1 POP DUP2 DUP2 SUB PUSH0 DUP4 ADD MSTORE PUSH2 0xB19 DUP2 DUP8 PUSH2 0x89B JUMP JUMPDEST SWAP1 POP PUSH2 0xB28 PUSH1 0x20 DUP4 ADD DUP7 PUSH2 0x8FE JUMP JUMPDEST PUSH2 0xB35 PUSH1 0x40 DUP4 ADD DUP6 PUSH2 0x8E2 JUMP JUMPDEST PUSH2 0xB42 PUSH1 0x60 DUP4 ADD DUP5 PUSH2 0x8FE JUMP JUMPDEST SWAP6 SWAP5 POP POP POP POP POP JUMP JUMPDEST PUSH2 0xB54 DUP2 PUSH2 0x82A JUMP JUMPDEST DUP2 EQ PUSH2 0xB5E JUMPI PUSH0 PUSH0 REVERT JUMPDEST POP JUMP JUMPDEST PUSH0 DUP2 CALLDATALOAD SWAP1 POP PUSH2 0xB6F DUP2 PUSH2 0xB4B JUMP JUMPDEST SWAP3 SWAP2 POP POP JUMP JUMPDEST PUSH0 PUSH1 0x20 DUP3 DUP5 SUB SLT ISZERO PUSH2 0xB8A JUMPI PUSH2 0xB89 PUSH2 0x7A5 JUMP JUMPDEST JUMPDEST PUSH0 PUSH2 0xB97 DUP5 DUP3 DUP6 ADD PUSH2 0xB61 JUMP JUMPDEST SWAP2 POP POP SWAP3 SWAP2 POP POP JUMP JUMPDEST PUSH32 0x4E487B7100000000000000000000000000000000000000000000000000000000 PUSH0 MSTORE PUSH1 0x22 PUSH1 0x4 MSTORE PUSH1 0x24 PUSH0 REVERT JUMPDEST PUSH0 PUSH1 0x2 DUP3 DIV SWAP1 POP PUSH1 0x1 DUP3 AND DUP1 PUSH2 0xBE4 JUMPI PUSH1 0x7F DUP3 AND SWAP2 POP JUMPDEST PUSH1 0x20 DUP3 LT DUP2 SUB PUSH2 0xBF7 JUMPI PUSH2 0xBF6 PUSH2 0xBA0 JUMP JUMPDEST JUMPDEST POP SWAP2 SWAP1 POP JUMP JUMPDEST PUSH0 DUP2 SWAP1 POP DUP2 PUSH0 MSTORE PUSH1 0x20 PUSH0 KECCAK256 SWAP1 POP SWAP2 SWAP1 POP JUMP JUMPDEST PUSH0 PUSH1 0x20 PUSH1 0x1F DUP4 ADD DIV SWAP1 POP SWAP2 SWAP1 POP JUMP JUMPDEST PUSH0 DUP3 DUP3 SHL SWAP1 POP SWAP3 SWAP2 POP POP JUMP JUMPDEST PUSH0 PUSH1 0x8 DUP4 MUL PUSH2 0xC59 PUSH32 0xFFFFFFFFFFFFFFFFFFFFFFFFFFFFFFFFFFFFFFFFFFFFFFFFFFFFFFFFFFFFFFFF DUP3 PUSH2 0xC1E JUMP JUMPDEST PUSH2 0xC63 DUP7 DUP4 PUSH2 0xC1E JUMP JUMPDEST SWAP6 POP DUP1 NOT DUP5 AND SWAP4 POP DUP1 DUP7 AND DUP5 OR SWAP3 POP POP POP SWAP4 SWAP3 POP POP POP JUMP JUMPDEST PUSH0 DUP2 SWAP1 POP SWAP2 SWAP1 POP JUMP JUMPDEST PUSH0 PUSH2 0xC9E PUSH2 0xC99 PUSH2 0xC94 DUP5 PUSH2 0x7AD JUMP JUMPDEST PUSH2 0xC7B JUMP JUMPDEST PUSH2 0x7AD JUMP JUMPDEST SWAP1 POP SWAP2 SWAP1 POP JUMP JUMPDEST PUSH0 DUP2 SWAP1 POP SWAP2 SWAP1 POP JUMP JUMPDEST PUSH2 0xCB7 DUP4 PUSH2 0xC84 JUMP JUMPDEST PUSH2 0xCCB PUSH2 0xCC3 DUP3 PUSH2 0xCA5 JUMP JUMPDEST DUP5 DUP5 SLOAD PUSH2 0xC2A JUMP JUMPDEST DUP3 SSTORE POP POP POP POP JUMP JUMPDEST PUSH0 PUSH0 SWAP1 POP SWAP1 JUMP JUMPDEST PUSH2 0xCE2 PUSH2 0xCD3 JUMP JUMPDEST PUSH2 0xCED DUP2 DUP5 DUP5 PUSH2 0xCAE JUMP JUMPDEST POP POP POP JUMP JUMPDEST JUMPDEST DUP2 DUP2 LT ISZERO PUSH2 0xD10 JUMPI PUSH2 0xD05 PUSH0 DUP3 PUSH2 0xCDA JUMP JUMPDEST PUSH1 0x1 DUP2 ADD SWAP1 POP PUSH2 0xCF3 JUMP JUMPDEST POP POP JUMP JUMPDEST PUSH1 0x1F DUP3 GT ISZERO PUSH2 0xD55 JUMPI PUSH2 0xD26 DUP2 PUSH2 0xBFD JUMP JUMPDEST PUSH2 0xD2F DUP5 PUSH2 0xC0F JUMP JUMPDEST DUP2 ADD PUSH1 0x20 DUP6 LT ISZERO PUSH2 0xD3E JUMPI DUP2 SWAP1 POP JUMPDEST PUSH2 0xD52 PUSH2 0xD4A DUP6 PUSH2 0xC0F JUMP JUMPDEST DUP4 ADD DUP3 PUSH2 0xCF2 JUMP JUMPDEST POP POP JUMPDEST POP POP POP JUMP JUMPDEST PUSH0 DUP3 DUP3 SHR SWAP1 POP SWAP3 SWAP2 POP POP JUMP JUMPDEST PUSH0 PUSH2 0xD75 PUSH0 NOT DUP5 PUSH1 0x8 MUL PUSH2 0xD5A JUMP JUMPDEST NOT DUP1 DUP4 AND SWAP2 POP POP SWAP3 SWAP2 POP POP JUMP JUMPDEST PUSH0 PUSH2 0xD8D DUP4 DUP4 PUSH2 0xD66 JUMP JUMPDEST SWAP2 POP DUP3 PUSH1 0x2 MUL DUP3 OR SWAP1 POP SWAP3 SWAP2 POP POP JUMP JUMPDEST PUSH2 0xDA6 DUP3 PUSH2 0x863 JUMP JUMPDEST PUSH8 0xFFFFFFFFFFFFFFFF DUP2 GT ISZERO PUSH2 0xDBF JUMPI PUSH2 0xDBE PUSH2 0x996 JUMP JUMPDEST JUMPDEST PUSH2 0xDC9 DUP3 SLOAD PUSH2 0xBCD JUMP JUMPDEST PUSH2 0xDD4 DUP3 DUP3 DUP6 PUSH2 0xD14 JUMP JUMPDEST PUSH0 PUSH1 0x20 SWAP1 POP PUSH1 0x1F DUP4 GT PUSH1 0x1 DUP2 EQ PUSH2 0xE05 JUMPI PUSH0 DUP5 ISZERO PUSH2 0xDF3 JUMPI DUP3 DUP8 ADD MLOAD SWAP1 POP JUMPDEST PUSH2 0xDFD DUP6 DUP3 PUSH2 0xD82 JUMP JUMPDEST DUP7 SSTORE POP PUSH2 0xE64 JUMP JUMPDEST PUSH1 0x1F NOT DUP5 AND PUSH2 0xE13 DUP7 PUSH2 0xBFD JUMP JUMPDEST PUSH0 JUMPDEST DUP3 DUP2 LT ISZERO PUSH2 0xE3A JUMPI DUP5 DUP10 ADD MLOAD DUP3 SSTORE PUSH1 0x1 DUP3 ADD SWAP2 POP PUSH1 0x20 DUP6 ADD SWAP5 POP PUSH1 0x20 DUP2 ADD SWAP1 POP PUSH2 0xE15 JUMP JUMPDEST DUP7 DUP4 LT ISZERO PUSH2 0xE57 JUMPI DUP5 DUP10 ADD MLOAD PUSH2 0xE53 PUSH1 0x1F DUP10 AND DUP3 PUSH2 0xD66 JUMP JUMPDEST DUP4 SSTORE POP JUMPDEST PUSH1 0x1 PUSH1 0x2 DUP9 MUL ADD DUP9 SSTORE POP POP POP JUMPDEST POP POP POP POP POP POP JUMP JUMPDEST PUSH32 0x4E487B7100000000000000000000000000000000000000000000000000000000 PUSH0 MSTORE PUSH1 0x11 PUSH1 0x4 MSTORE PUSH1 0x24 PUSH0 REVERT JUMPDEST PUSH0 PUSH2 0xEA3 DUP3 PUSH2 0x7AD JUMP JUMPDEST SWAP2 POP PUSH2 0xEAE DUP4 PUSH2 0x7AD JUMP JUMPDEST SWAP3 POP DUP3 DUP3 SUB SWAP1 POP DUP2 DUP2 GT ISZERO PUSH2 0xEC6 JUMPI PUSH2 0xEC5 PUSH2 0xE6C JUMP JUMPDEST JUMPDEST SWAP3 SWAP2 POP POP JUMP JUMPDEST PUSH2 0xED5 DUP2 PUSH2 0x7AD JUMP JUMPDEST DUP3 MSTORE POP POP JUMP JUMPDEST PUSH0 PUSH1 0x40 DUP3 ADD SWAP1 POP PUSH2 0xEEE PUSH0 DUP4 ADD DUP6 PUSH2 0xECC JUMP JUMPDEST DUP2 DUP2 SUB PUSH1 0x20 DUP4 ADD MSTORE PUSH2 0xF00 DUP2 DUP5 PUSH2 0x89B JUMP JUMPDEST SWAP1 POP SWAP4 SWAP3 POP POP POP JUMP INVALID LOG2 PUSH5 0x6970667358 0x22 SLT KECCAK256 EXTCODECOPY 0xAE EOFCREATE 0x7B GASLIMIT DUPN 0xAB PUSH20 0xE0B8E54827299F727466610ACBA6C93A3B5EA1B5 PUSH0 0xE PUSH4 0x64736F PUSH13 0x634300081E0033000000000000 "
				},
				"gasEstimates": {
					"creation": {
						"codeDepositCost": "780600",
						"executionCost": "infinite",
						"totalCost": "infinite"
					},
					"external": {
						"_registerJudge(string)": "infinite",
						"fighterToOwner(uint256)": "2872",
						"fighters(uint256)": "infinite",
						"judgeToOwner(uint256)": "2828",
						"judges(uint256)": "infinite",
						"owner()": "2536",
						"renounceOwnership()": "infinite",
						"transferOwnership(address)": "infinite"
					},
					"internal": {
						"_registerMMAFighter(string memory,uint32,uint32,uint32,uint16,uint8)": "infinite"
					}
				},
				"methodIdentifiers": {
					"_registerJudge(string)": "5f6fdddf",
					"fighterToOwner(uint256)": "3824fbec",
					"fighters(uint256)": "2e6b221d",
					"judgeToOwner(uint256)": "0d292732",
					"judges(uint256)": "b06b0368",
					"owner()": "8da5cb5b",
					"renounceOwnership()": "715018a6",
					"transferOwnership(address)": "f2fde38b"
				}
			},
			"storageLayout": {
				"storage": [
					{
						"astId": 8,
						"contract": "FighterReg.sol:FighterReg",
						"label": "_owner",
						"offset": 0,
						"slot": "0",
						"type": "t_address"
					},
					{
						"astId": 309,
						"contract": "FighterReg.sol:FighterReg",
						"label": "judges",
						"offset": 0,
						"slot": "1",
						"type": "t_array(t_struct(Judge)305_storage)dyn_storage"
					},
					{
						"astId": 313,
						"contract": "FighterReg.sol:FighterReg",
						"label": "judgeToOwner",
						"offset": 0,
						"slot": "2",
						"type": "t_mapping(t_uint256,t_address)"
					},
					{
						"astId": 317,
						"contract": "FighterReg.sol:FighterReg",
						"label": "judgeBalance",
						"offset": 0,
						"slot": "3",
						"type": "t_mapping(t_address,t_uint256)"
					},
					{
						"astId": 205,
						"contract": "FighterReg.sol:FighterReg",
						"label": "fighters",
						"offset": 0,
						"slot": "4",
						"type": "t_array(t_struct(MMAfighter)201_storage)dyn_storage"
					},
					{
						"astId": 209,
						"contract": "FighterReg.sol:FighterReg",
						"label": "fighterToOwner",
						"offset": 0,
						"slot": "5",
						"type": "t_mapping(t_uint256,t_address)"
					},
					{
						"astId": 213,
						"contract": "FighterReg.sol:FighterReg",
						"label": "fighterbalance",
						"offset": 0,
						"slot": "6",
						"type": "t_mapping(t_address,t_uint256)"
					}
				],
				"types": {
					"t_address": {
						"encoding": "inplace",
						"label": "address",
						"numberOfBytes": "20"
					},
					"t_array(t_struct(Judge)305_storage)dyn_storage": {
						"base": "t_struct(Judge)305_storage",
						"encoding": "dynamic_array",
						"label": "struct JudgeReg.Judge[]",
						"numberOfBytes": "32"
					},
					"t_array(t_struct(MMAfighter)201_storage)dyn_storage": {
						"base": "t_struct(MMAfighter)201_storage",
						"encoding": "dynamic_array",
						"label": "struct FighterReg.MMAfighter[]",
						"numberOfBytes": "32"
					},
					"t_mapping(t_address,t_uint256)": {
						"encoding": "mapping",
						"key": "t_address",
						"label": "mapping(address => uint256)",
						"numberOfBytes": "32",
						"value": "t_uint256"
					},
					"t_mapping(t_uint256,t_address)": {
						"encoding": "mapping",
						"key": "t_uint256",
						"label": "mapping(uint256 => address)",
						"numberOfBytes": "32",
						"value": "t_address"
					},
					"t_string_storage": {
						"encoding": "bytes",
						"label": "string",
						"numberOfBytes": "32"
					},
					"t_struct(Judge)305_storage": {
						"encoding": "inplace",
						"label": "struct JudgeReg.Judge",
						"members": [
							{
								"astId": 298,
								"contract": "FighterReg.sol:FighterReg",
								"label": "name",
								"offset": 0,
								"slot": "0",
								"type": "t_string_storage"
							},
							{
								"astId": 300,
								"contract": "FighterReg.sol:FighterReg",
								"label": "rank",
								"offset": 0,
								"slot": "1",
								"type": "t_uint16"
							},
							{
								"astId": 302,
								"contract": "FighterReg.sol:FighterReg",
								"label": "rightDecision",
								"offset": 2,
								"slot": "1",
								"type": "t_uint32"
							},
							{
								"astId": 304,
								"contract": "FighterReg.sol:FighterReg",
								"label": "wrongDecision",
								"offset": 6,
								"slot": "1",
								"type": "t_uint16"
							}
						],
						"numberOfBytes": "64"
					},
					"t_struct(MMAfighter)201_storage": {
						"encoding": "inplace",
						"label": "struct FighterReg.MMAfighter",
						"members": [
							{
								"astId": 190,
								"contract": "FighterReg.sol:FighterReg",
								"label": "name",
								"offset": 0,
								"slot": "0",
								"type": "t_string_storage"
							},
							{
								"astId": 192,
								"contract": "FighterReg.sol:FighterReg",
								"label": "win",
								"offset": 0,
								"slot": "1",
								"type": "t_uint32"
							},
							{
								"astId": 194,
								"contract": "FighterReg.sol:FighterReg",
								"label": "loss",
								"offset": 4,
								"slot": "1",
								"type": "t_uint32"
							},
							{
								"astId": 196,
								"contract": "FighterReg.sol:FighterReg",
								"label": "draw",
								"offset": 8,
								"slot": "1",
								"type": "t_uint32"
							},
							{
								"astId": 198,
								"contract": "FighterReg.sol:FighterReg",
								"label": "noContest",
								"offset": 12,
								"slot": "1",
								"type": "t_uint16"
							},
							{
								"astId": 200,
								"contract": "FighterReg.sol:FighterReg",
								"label": "weightCategoryLbs",
								"offset": 14,
								"slot": "1",
								"type": "t_uint8"
							}
						],
						"numberOfBytes": "64"
					},
					"t_uint16": {
						"encoding": "inplace",
						"label": "uint16",
						"numberOfBytes": "2"
					},
					"t_uint256": {
						"encoding": "inplace",
						"label": "uint256",
						"numberOfBytes": "32"
					},
					"t_uint32": {
						"encoding": "inplace",
						"label": "uint32",
						"numberOfBytes": "4"
					},
					"t_uint8": {
						"encoding": "inplace",
						"label": "uint8",
						"numberOfBytes": "1"
					}
				}
			},
			"userdoc": {
				"kind": "user",
				"methods": {},
				"version": 1
			}
		}
	}
}