{
	"FighterReg.sol": {
		"FighterReg": {
			"abi": [
				{
					"inputs": [],
					"stateMutability": "nonpayable",
					"type": "constructor"
				},
				{
					"inputs": [
						{
							"internalType": "address",
							"name": "owner",
							"type": "address"
						}
					],
					"name": "OwnableInvalidOwner",
					"type": "error"
				},
				{
					"inputs": [
						{
							"internalType": "address",
							"name": "account",
							"type": "address"
						}
					],
					"name": "OwnableUnauthorizedAccount",
					"type": "error"
				},
				{
					"anonymous": false,
					"inputs": [
						{
							"indexed": false,
							"internalType": "uint256",
							"name": "fighterId",
							"type": "uint256"
						},
						{
							"indexed": false,
							"internalType": "string",
							"name": "fighterName",
							"type": "string"
						}
					],
					"name": "NewFighter",
					"type": "event"
				},
				{
					"anonymous": false,
					"inputs": [
						{
							"indexed": false,
							"internalType": "uint256",
							"name": "judgeId",
							"type": "uint256"
						},
						{
							"indexed": false,
							"internalType": "string",
							"name": "judgeName",
							"type": "string"
						}
					],
					"name": "NewJudge",
					"type": "event"
				},
				{
					"anonymous": false,
					"inputs": [
						{
							"indexed": true,
							"internalType": "address",
							"name": "previousOwner",
							"type": "address"
						},
						{
							"indexed": true,
							"internalType": "address",
							"name": "newOwner",
							"type": "address"
						}
					],
					"name": "OwnershipTransferred",
					"type": "event"
				},
				{
					"inputs": [
						{
							"internalType": "string",
							"name": "_name",
							"type": "string"
						}
					],
					"name": "_registerJudge",
					"outputs": [],
					"stateMutability": "nonpayable",
					"type": "function"
				},
				{
					"inputs": [
						{
							"internalType": "string",
							"name": "_name",
							"type": "string"
						},
						{
							"internalType": "uint32",
							"name": "_wins",
							"type": "uint32"
						},
						{
							"internalType": "uint32",
							"name": "_losses",
							"type": "uint32"
						},
						{
							"internalType": "uint32",
							"name": "_draws",
							"type": "uint32"
						},
						{
							"internalType": "uint16",
							"name": "_nc",
							"type": "uint16"
						},
						{
							"internalType": "uint8",
							"name": "_weight",
							"type": "uint8"
						}
					],
					"name": "_registerMMAFighter",
					"outputs": [],
					"stateMutability": "nonpayable",
					"type": "function"
				},
				{
					"inputs": [
						{
							"internalType": "uint256",
							"name": "",
							"type": "uint256"
						}
					],
					"name": "fighterIdToFighter",
					"outputs": [
						{
							"internalType": "string",
							"name": "name",
							"type": "string"
						},
						{
							"internalType": "uint32",
							"name": "win",
							"type": "uint32"
						},
						{
							"internalType": "uint32",
							"name": "loss",
							"type": "uint32"
						},
						{
							"internalType": "uint32",
							"name": "draw",
							"type": "uint32"
						},
						{
							"internalType": "uint16",
							"name": "noContest",
							"type": "uint16"
						},
						{
							"internalType": "uint8",
							"name": "weightCategoryLbs",
							"type": "uint8"
						}
					],
					"stateMutability": "view",
					"type": "function"
				},
				{
					"inputs": [
						{
							"internalType": "uint256",
							"name": "",
							"type": "uint256"
						}
					],
					"name": "fighterToOwner",
					"outputs": [
						{
							"internalType": "address",
							"name": "",
							"type": "address"
						}
					],
					"stateMutability": "view",
					"type": "function"
				},
				{
					"inputs": [
						{
							"internalType": "uint256",
							"name": "",
							"type": "uint256"
						}
					],
					"name": "fighters",
					"outputs": [
						{
							"internalType": "string",
							"name": "name",
							"type": "string"
						},
						{
							"internalType": "uint32",
							"name": "win",
							"type": "uint32"
						},
						{
							"internalType": "uint32",
							"name": "loss",
							"type": "uint32"
						},
						{
							"internalType": "uint32",
							"name": "draw",
							"type": "uint32"
						},
						{
							"internalType": "uint16",
							"name": "noContest",
							"type": "uint16"
						},
						{
							"internalType": "uint8",
							"name": "weightCategoryLbs",
							"type": "uint8"
						}
					],
					"stateMutability": "view",
					"type": "function"
				},
				{
					"inputs": [
						{
							"internalType": "uint256",
							"name": "",
							"type": "uint256"
						}
					],
					"name": "judgeToOwner",
					"outputs": [
						{
							"internalType": "address",
							"name": "",
							"type": "address"
						}
					],
					"stateMutability": "view",
					"type": "function"
				},
				{
					"inputs": [
						{
							"internalType": "uint256",
							"name": "",
							"type": "uint256"
						}
					],
					"name": "judges",
					"outputs": [
						{
							"internalType": "string",
							"name": "name",
							"type": "string"
						},
						{
							"internalType": "uint16",
							"name": "rank",
							"type": "uint16"
						},
						{
							"internalType": "uint32",
							"name": "rightDecision",
							"type": "uint32"
						},
						{
							"internalType": "uint16",
							"name": "wrongDecision",
							"type": "uint16"
						}
					],
					"stateMutability": "view",
					"type": "function"
				},
				{
					"inputs": [],
					"name": "owner",
					"outputs": [
						{
							"internalType": "address",
							"name": "",
							"type": "address"
						}
					],
					"stateMutability": "view",
					"type": "function"
				},
				{
					"inputs": [
						{
							"internalType": "address",
							"name": "",
							"type": "address"
						}
					],
					"name": "ownerToJudge",
					"outputs": [
						{
							"internalType": "uint256",
							"name": "",
							"type": "uint256"
						}
					],
					"stateMutability": "view",
					"type": "function"
				},
				{
					"inputs": [],
					"name": "renounceOwnership",
					"outputs": [],
					"stateMutability": "nonpayable",
					"type": "function"
				},
				{
					"inputs": [
						{
							"internalType": "address",
							"name": "newOwner",
							"type": "address"
						}
					],
					"name": "transferOwnership",
					"outputs": [],
					"stateMutability": "nonpayable",
					"type": "function"
				}
			],
			"devdoc": {
				"errors": {
					"OwnableInvalidOwner(address)": [
						{
							"details": "The owner is not a valid owner account. (eg. `address(0)`)"
						}
					],
					"OwnableUnauthorizedAccount(address)": [
						{
							"details": "The caller account is not authorized to perform an operation."
						}
					]
				},
				"kind": "dev",
				"methods": {
					"owner()": {
						"details": "Returns the address of the current owner."
					},
					"renounceOwnership()": {
						"details": "Leaves the contract without owner. It will not be possible to call `onlyOwner` functions. Can only be called by the current owner. NOTE: Renouncing ownership will leave the contract without an owner, thereby disabling any functionality that is only available to the owner."
					},
					"transferOwnership(address)": {
						"details": "Transfers ownership of the contract to a new account (`newOwner`). Can only be called by the current owner."
					}
				},
				"version": 1
			},
			"evm": {
				"assembly": "    /* \"FighterReg.sol\":92:1723  contract FighterReg is JudgeReg {... */\n  mstore(0x40, 0x80)\n    /* \"FighterReg.sol\":755:864  constructor() {... */\n  callvalue\n  dup1\n  iszero\n  tag_1\n  jumpi\n  revert(0x00, 0x00)\ntag_1:\n  pop\n    /* \"JudgeReg.sol\":245:255  msg.sender */\n  caller\n    /* \"@openzeppelin/contracts/access/Ownable.sol\":1297:1298  0 */\n  0x00\n    /* \"@openzeppelin/contracts/access/Ownable.sol\":1273:1299  initialOwner == address(0) */\n  0xffffffffffffffffffffffffffffffffffffffff\n  and\n    /* \"@openzeppelin/contracts/access/Ownable.sol\":1273:1285  initialOwner */\n  dup2\n    /* \"@openzeppelin/contracts/access/Ownable.sol\":1273:1299  initialOwner == address(0) */\n  0xffffffffffffffffffffffffffffffffffffffff\n  and\n  sub\n    /* \"@openzeppelin/contracts/access/Ownable.sol\":1269:1364  if (initialOwner == address(0)) {... */\n  tag_6\n  jumpi\n    /* \"@openzeppelin/contracts/access/Ownable.sol\":1350:1351  0 */\n  0x00\n    /* \"@openzeppelin/contracts/access/Ownable.sol\":1322:1353  OwnableInvalidOwner(address(0)) */\n  mload(0x40)\n  0x1e4fbdf700000000000000000000000000000000000000000000000000000000\n  dup2\n  mstore\n  0x04\n  add\n  tag_7\n  swap2\n  swap1\n  tag_8\n  jump\t// in\ntag_7:\n  mload(0x40)\n  dup1\n  swap2\n  sub\n  swap1\n  revert\n    /* \"@openzeppelin/contracts/access/Ownable.sol\":1269:1364  if (initialOwner == address(0)) {... */\ntag_6:\n    /* \"@openzeppelin/contracts/access/Ownable.sol\":1373:1405  _transferOwnership(initialOwner) */\n  tag_9\n    /* \"@openzeppelin/contracts/access/Ownable.sol\":1392:1404  initialOwner */\n  dup2\n    /* \"@openzeppelin/contracts/access/Ownable.sol\":1373:1391  _transferOwnership */\n  shl(0x20, tag_10)\n    /* \"@openzeppelin/contracts/access/Ownable.sol\":1373:1405  _transferOwnership(initialOwner) */\n  0x20\n  shr\n  jump\t// in\ntag_9:\n    /* \"@openzeppelin/contracts/access/Ownable.sol\":1225:1412  constructor(address initialOwner) {... */\n  pop\n    /* \"FighterReg.sol\":816:824  fighters */\n  0x05\n    /* \"FighterReg.sol\":830:859  MMAfighter(\"\", 0, 0, 0, 0, 0) */\n  mload(0x40)\n  dup1\n  0xc0\n  add\n  0x40\n  mstore\n  dup1\n  mload(0x40)\n  dup1\n  0x20\n  add\n  0x40\n  mstore\n  dup1\n  0x00\n  dup2\n  mstore\n  pop\n  dup2\n  mstore\n  0x20\n  add\n    /* \"FighterReg.sol\":845:846  0 */\n  0x00\n    /* \"FighterReg.sol\":830:859  MMAfighter(\"\", 0, 0, 0, 0, 0) */\n  0xffffffff\n  and\n  dup2\n  mstore\n  0x20\n  add\n    /* \"FighterReg.sol\":848:849  0 */\n  0x00\n    /* \"FighterReg.sol\":830:859  MMAfighter(\"\", 0, 0, 0, 0, 0) */\n  0xffffffff\n  and\n  dup2\n  mstore\n  0x20\n  add\n    /* \"FighterReg.sol\":851:852  0 */\n  0x00\n    /* \"FighterReg.sol\":830:859  MMAfighter(\"\", 0, 0, 0, 0, 0) */\n  0xffffffff\n  and\n  dup2\n  mstore\n  0x20\n  add\n    /* \"FighterReg.sol\":854:855  0 */\n  0x00\n    /* \"FighterReg.sol\":830:859  MMAfighter(\"\", 0, 0, 0, 0, 0) */\n  0xffff\n  and\n  dup2\n  mstore\n  0x20\n  add\n    /* \"FighterReg.sol\":857:858  0 */\n  0x00\n    /* \"FighterReg.sol\":830:859  MMAfighter(\"\", 0, 0, 0, 0, 0) */\n  0xff\n  and\n  dup2\n  mstore\n  pop\n    /* \"FighterReg.sol\":816:860  fighters.push(MMAfighter(\"\", 0, 0, 0, 0, 0)) */\n  swap1\n  dup1\n  0x01\n  dup2\n  sload\n  add\n  dup1\n  dup3\n  sstore\n  dup1\n  swap2\n  pop\n  pop\n  0x01\n  swap1\n  sub\n  swap1\n  0x00\n  mstore\n  keccak256(0x00, 0x20)\n  swap1\n  0x02\n  mul\n  add\n  0x00\n  swap1\n  swap2\n  swap1\n  swap2\n  swap1\n  swap2\n  pop\n  0x00\n  dup3\n  add\n  mload\n  dup2\n  0x00\n  add\n  swap1\n  dup2\n  tag_14\n  swap2\n  swap1\n  tag_15\n  jump\t// in\ntag_14:\n  pop\n  0x20\n  dup3\n  add\n  mload\n  dup2\n  0x01\n  add\n  exp(0x0100, 0x00)\n  dup2\n  sload\n  dup2\n  0xffffffff\n  mul\n  not\n  and\n  swap1\n  dup4\n  0xffffffff\n  and\n  mul\n  or\n  swap1\n  sstore\n  pop\n  0x40\n  dup3\n  add\n  mload\n  dup2\n  0x01\n  add\n  exp(0x0100, 0x04)\n  dup2\n  sload\n  dup2\n  0xffffffff\n  mul\n  not\n  and\n  swap1\n  dup4\n  0xffffffff\n  and\n  mul\n  or\n  swap1\n  sstore\n  pop\n  0x60\n  dup3\n  add\n  mload\n  dup2\n  0x01\n  add\n  exp(0x0100, 0x08)\n  dup2\n  sload\n  dup2\n  0xffffffff\n  mul\n  not\n  and\n  swap1\n  dup4\n  0xffffffff\n  and\n  mul\n  or\n  swap1\n  sstore\n  pop\n  0x80\n  dup3\n  add\n  mload\n  dup2\n  0x01\n  add\n  exp(0x0100, 0x0c)\n  dup2\n  sload\n  dup2\n  0xffff\n  mul\n  not\n  and\n  swap1\n  dup4\n  0xffff\n  and\n  mul\n  or\n  swap1\n  sstore\n  pop\n  0xa0\n  dup3\n  add\n  mload\n  dup2\n  0x01\n  add\n  exp(0x0100, 0x0e)\n  dup2\n  sload\n  dup2\n  0xff\n  mul\n  not\n  and\n  swap1\n  dup4\n  0xff\n  and\n  mul\n  or\n  swap1\n  sstore\n  pop\n  pop\n  pop\n    /* \"FighterReg.sol\":92:1723  contract FighterReg is JudgeReg {... */\n  jump(tag_16)\n    /* \"@openzeppelin/contracts/access/Ownable.sol\":2912:3099  function _transferOwnership(address newOwner) internal virtual {... */\ntag_10:\n    /* \"@openzeppelin/contracts/access/Ownable.sol\":2985:3001  address oldOwner */\n  0x00\n    /* \"@openzeppelin/contracts/access/Ownable.sol\":3004:3010  _owner */\n  0x00\n  0x00\n  swap1\n  sload\n  swap1\n  0x0100\n  exp\n  swap1\n  div\n  0xffffffffffffffffffffffffffffffffffffffff\n  and\n    /* \"@openzeppelin/contracts/access/Ownable.sol\":2985:3010  address oldOwner = _owner */\n  swap1\n  pop\n    /* \"@openzeppelin/contracts/access/Ownable.sol\":3029:3037  newOwner */\n  dup2\n    /* \"@openzeppelin/contracts/access/Ownable.sol\":3020:3026  _owner */\n  0x00\n  0x00\n    /* \"@openzeppelin/contracts/access/Ownable.sol\":3020:3037  _owner = newOwner */\n  0x0100\n  exp\n  dup2\n  sload\n  dup2\n  0xffffffffffffffffffffffffffffffffffffffff\n  mul\n  not\n  and\n  swap1\n  dup4\n  0xffffffffffffffffffffffffffffffffffffffff\n  and\n  mul\n  or\n  swap1\n  sstore\n  pop\n    /* \"@openzeppelin/contracts/access/Ownable.sol\":3083:3091  newOwner */\n  dup2\n    /* \"@openzeppelin/contracts/access/Ownable.sol\":3052:3092  OwnershipTransferred(oldOwner, newOwner) */\n  0xffffffffffffffffffffffffffffffffffffffff\n  and\n    /* \"@openzeppelin/contracts/access/Ownable.sol\":3073:3081  oldOwner */\n  dup2\n    /* \"@openzeppelin/contracts/access/Ownable.sol\":3052:3092  OwnershipTransferred(oldOwner, newOwner) */\n  0xffffffffffffffffffffffffffffffffffffffff\n  and\n  0x8be0079c531659141344cd1fd0a4f28419497f9722a3daafe3b4186f6b6457e0\n  mload(0x40)\n  mload(0x40)\n  dup1\n  swap2\n  sub\n  swap1\n  log3\n    /* \"@openzeppelin/contracts/access/Ownable.sol\":2975:3099  {... */\n  pop\n    /* \"@openzeppelin/contracts/access/Ownable.sol\":2912:3099  function _transferOwnership(address newOwner) internal virtual {... */\n  pop\n  jump\t// out\n    /* \"#utility.yul\":7:133   */\ntag_18:\n    /* \"#utility.yul\":44:51   */\n  0x00\n    /* \"#utility.yul\":84:126   */\n  0xffffffffffffffffffffffffffffffffffffffff\n    /* \"#utility.yul\":77:82   */\n  dup3\n    /* \"#utility.yul\":73:127   */\n  and\n    /* \"#utility.yul\":62:127   */\n  swap1\n  pop\n    /* \"#utility.yul\":7:133   */\n  swap2\n  swap1\n  pop\n  jump\t// out\n    /* \"#utility.yul\":139:235   */\ntag_19:\n    /* \"#utility.yul\":176:183   */\n  0x00\n    /* \"#utility.yul\":205:229   */\n  tag_44\n    /* \"#utility.yul\":223:228   */\n  dup3\n    /* \"#utility.yul\":205:229   */\n  tag_18\n  jump\t// in\ntag_44:\n    /* \"#utility.yul\":194:229   */\n  swap1\n  pop\n    /* \"#utility.yul\":139:235   */\n  swap2\n  swap1\n  pop\n  jump\t// out\n    /* \"#utility.yul\":241:359   */\ntag_20:\n    /* \"#utility.yul\":328:352   */\n  tag_46\n    /* \"#utility.yul\":346:351   */\n  dup2\n    /* \"#utility.yul\":328:352   */\n  tag_19\n  jump\t// in\ntag_46:\n    /* \"#utility.yul\":323:326   */\n  dup3\n    /* \"#utility.yul\":316:353   */\n  mstore\n    /* \"#utility.yul\":241:359   */\n  pop\n  pop\n  jump\t// out\n    /* \"#utility.yul\":365:587   */\ntag_8:\n    /* \"#utility.yul\":458:462   */\n  0x00\n    /* \"#utility.yul\":496:498   */\n  0x20\n    /* \"#utility.yul\":485:494   */\n  dup3\n    /* \"#utility.yul\":481:499   */\n  add\n    /* \"#utility.yul\":473:499   */\n  swap1\n  pop\n    /* \"#utility.yul\":509:580   */\n  tag_48\n    /* \"#utility.yul\":577:578   */\n  0x00\n    /* \"#utility.yul\":566:575   */\n  dup4\n    /* \"#utility.yul\":562:579   */\n  add\n    /* \"#utility.yul\":553:559   */\n  dup5\n    /* \"#utility.yul\":509:580   */\n  tag_20\n  jump\t// in\ntag_48:\n    /* \"#utility.yul\":365:587   */\n  swap3\n  swap2\n  pop\n  pop\n  jump\t// out\n    /* \"#utility.yul\":593:692   */\ntag_21:\n    /* \"#utility.yul\":645:651   */\n  0x00\n    /* \"#utility.yul\":679:684   */\n  dup2\n    /* \"#utility.yul\":673:685   */\n  mload\n    /* \"#utility.yul\":663:685   */\n  swap1\n  pop\n    /* \"#utility.yul\":593:692   */\n  swap2\n  swap1\n  pop\n  jump\t// out\n    /* \"#utility.yul\":698:878   */\ntag_22:\n    /* \"#utility.yul\":746:823   */\n  0x4e487b7100000000000000000000000000000000000000000000000000000000\n    /* \"#utility.yul\":743:744   */\n  0x00\n    /* \"#utility.yul\":736:824   */\n  mstore\n    /* \"#utility.yul\":843:847   */\n  0x41\n    /* \"#utility.yul\":840:841   */\n  0x04\n    /* \"#utility.yul\":833:848   */\n  mstore\n    /* \"#utility.yul\":867:871   */\n  0x24\n    /* \"#utility.yul\":864:865   */\n  0x00\n    /* \"#utility.yul\":857:872   */\n  revert\n    /* \"#utility.yul\":884:1064   */\ntag_23:\n    /* \"#utility.yul\":932:1009   */\n  0x4e487b7100000000000000000000000000000000000000000000000000000000\n    /* \"#utility.yul\":929:930   */\n  0x00\n    /* \"#utility.yul\":922:1010   */\n  mstore\n    /* \"#utility.yul\":1029:1033   */\n  0x22\n    /* \"#utility.yul\":1026:1027   */\n  0x04\n    /* \"#utility.yul\":1019:1034   */\n  mstore\n    /* \"#utility.yul\":1053:1057   */\n  0x24\n    /* \"#utility.yul\":1050:1051   */\n  0x00\n    /* \"#utility.yul\":1043:1058   */\n  revert\n    /* \"#utility.yul\":1070:1390   */\ntag_24:\n    /* \"#utility.yul\":1114:1120   */\n  0x00\n    /* \"#utility.yul\":1151:1152   */\n  0x02\n    /* \"#utility.yul\":1145:1149   */\n  dup3\n    /* \"#utility.yul\":1141:1153   */\n  div\n    /* \"#utility.yul\":1131:1153   */\n  swap1\n  pop\n    /* \"#utility.yul\":1198:1199   */\n  0x01\n    /* \"#utility.yul\":1192:1196   */\n  dup3\n    /* \"#utility.yul\":1188:1200   */\n  and\n    /* \"#utility.yul\":1219:1237   */\n  dup1\n    /* \"#utility.yul\":1209:1290   */\n  tag_53\n  jumpi\n    /* \"#utility.yul\":1275:1279   */\n  0x7f\n    /* \"#utility.yul\":1267:1273   */\n  dup3\n    /* \"#utility.yul\":1263:1280   */\n  and\n    /* \"#utility.yul\":1253:1280   */\n  swap2\n  pop\n    /* \"#utility.yul\":1209:1290   */\ntag_53:\n    /* \"#utility.yul\":1337:1339   */\n  0x20\n    /* \"#utility.yul\":1329:1335   */\n  dup3\n    /* \"#utility.yul\":1326:1340   */\n  lt\n    /* \"#utility.yul\":1306:1324   */\n  dup2\n    /* \"#utility.yul\":1303:1341   */\n  sub\n    /* \"#utility.yul\":1300:1384   */\n  tag_54\n  jumpi\n    /* \"#utility.yul\":1356:1374   */\n  tag_55\n  tag_23\n  jump\t// in\ntag_55:\n    /* \"#utility.yul\":1300:1384   */\ntag_54:\n    /* \"#utility.yul\":1121:1390   */\n  pop\n    /* \"#utility.yul\":1070:1390   */\n  swap2\n  swap1\n  pop\n  jump\t// out\n    /* \"#utility.yul\":1396:1537   */\ntag_25:\n    /* \"#utility.yul\":1445:1449   */\n  0x00\n    /* \"#utility.yul\":1468:1471   */\n  dup2\n    /* \"#utility.yul\":1460:1471   */\n  swap1\n  pop\n    /* \"#utility.yul\":1491:1494   */\n  dup2\n    /* \"#utility.yul\":1488:1489   */\n  0x00\n    /* \"#utility.yul\":1481:1495   */\n  mstore\n    /* \"#utility.yul\":1525:1529   */\n  0x20\n    /* \"#utility.yul\":1522:1523   */\n  0x00\n    /* \"#utility.yul\":1512:1530   */\n  keccak256\n    /* \"#utility.yul\":1504:1530   */\n  swap1\n  pop\n    /* \"#utility.yul\":1396:1537   */\n  swap2\n  swap1\n  pop\n  jump\t// out\n    /* \"#utility.yul\":1543:1636   */\ntag_26:\n    /* \"#utility.yul\":1580:1586   */\n  0x00\n    /* \"#utility.yul\":1627:1629   */\n  0x20\n    /* \"#utility.yul\":1622:1624   */\n  0x1f\n    /* \"#utility.yul\":1615:1620   */\n  dup4\n    /* \"#utility.yul\":1611:1625   */\n  add\n    /* \"#utility.yul\":1607:1630   */\n  div\n    /* \"#utility.yul\":1597:1630   */\n  swap1\n  pop\n    /* \"#utility.yul\":1543:1636   */\n  swap2\n  swap1\n  pop\n  jump\t// out\n    /* \"#utility.yul\":1642:1749   */\ntag_27:\n    /* \"#utility.yul\":1686:1694   */\n  0x00\n    /* \"#utility.yul\":1736:1741   */\n  dup3\n    /* \"#utility.yul\":1730:1734   */\n  dup3\n    /* \"#utility.yul\":1726:1742   */\n  shl\n    /* \"#utility.yul\":1705:1742   */\n  swap1\n  pop\n    /* \"#utility.yul\":1642:1749   */\n  swap3\n  swap2\n  pop\n  pop\n  jump\t// out\n    /* \"#utility.yul\":1755:2148   */\ntag_28:\n    /* \"#utility.yul\":1824:1830   */\n  0x00\n    /* \"#utility.yul\":1874:1875   */\n  0x08\n    /* \"#utility.yul\":1862:1872   */\n  dup4\n    /* \"#utility.yul\":1858:1876   */\n  mul\n    /* \"#utility.yul\":1897:1994   */\n  tag_60\n    /* \"#utility.yul\":1927:1993   */\n  0xffffffffffffffffffffffffffffffffffffffffffffffffffffffffffffffff\n    /* \"#utility.yul\":1916:1925   */\n  dup3\n    /* \"#utility.yul\":1897:1994   */\n  tag_27\n  jump\t// in\ntag_60:\n    /* \"#utility.yul\":2015:2054   */\n  tag_61\n    /* \"#utility.yul\":2045:2053   */\n  dup7\n    /* \"#utility.yul\":2034:2043   */\n  dup4\n    /* \"#utility.yul\":2015:2054   */\n  tag_27\n  jump\t// in\ntag_61:\n    /* \"#utility.yul\":2003:2054   */\n  swap6\n  pop\n    /* \"#utility.yul\":2087:2091   */\n  dup1\n    /* \"#utility.yul\":2083:2092   */\n  not\n    /* \"#utility.yul\":2076:2081   */\n  dup5\n    /* \"#utility.yul\":2072:2093   */\n  and\n    /* \"#utility.yul\":2063:2093   */\n  swap4\n  pop\n    /* \"#utility.yul\":2136:2140   */\n  dup1\n    /* \"#utility.yul\":2126:2134   */\n  dup7\n    /* \"#utility.yul\":2122:2141   */\n  and\n    /* \"#utility.yul\":2115:2120   */\n  dup5\n    /* \"#utility.yul\":2112:2142   */\n  or\n    /* \"#utility.yul\":2102:2142   */\n  swap3\n  pop\n    /* \"#utility.yul\":1831:2148   */\n  pop\n  pop\n    /* \"#utility.yul\":1755:2148   */\n  swap4\n  swap3\n  pop\n  pop\n  pop\n  jump\t// out\n    /* \"#utility.yul\":2154:2231   */\ntag_29:\n    /* \"#utility.yul\":2191:2198   */\n  0x00\n    /* \"#utility.yul\":2220:2225   */\n  dup2\n    /* \"#utility.yul\":2209:2225   */\n  swap1\n  pop\n    /* \"#utility.yul\":2154:2231   */\n  swap2\n  swap1\n  pop\n  jump\t// out\n    /* \"#utility.yul\":2237:2297   */\ntag_30:\n    /* \"#utility.yul\":2265:2268   */\n  0x00\n    /* \"#utility.yul\":2286:2291   */\n  dup2\n    /* \"#utility.yul\":2279:2291   */\n  swap1\n  pop\n    /* \"#utility.yul\":2237:2297   */\n  swap2\n  swap1\n  pop\n  jump\t// out\n    /* \"#utility.yul\":2303:2445   */\ntag_31:\n    /* \"#utility.yul\":2353:2362   */\n  0x00\n    /* \"#utility.yul\":2386:2439   */\n  tag_65\n    /* \"#utility.yul\":2404:2438   */\n  tag_66\n    /* \"#utility.yul\":2413:2437   */\n  tag_67\n    /* \"#utility.yul\":2431:2436   */\n  dup5\n    /* \"#utility.yul\":2413:2437   */\n  tag_29\n  jump\t// in\ntag_67:\n    /* \"#utility.yul\":2404:2438   */\n  tag_30\n  jump\t// in\ntag_66:\n    /* \"#utility.yul\":2386:2439   */\n  tag_29\n  jump\t// in\ntag_65:\n    /* \"#utility.yul\":2373:2439   */\n  swap1\n  pop\n    /* \"#utility.yul\":2303:2445   */\n  swap2\n  swap1\n  pop\n  jump\t// out\n    /* \"#utility.yul\":2451:2526   */\ntag_32:\n    /* \"#utility.yul\":2494:2497   */\n  0x00\n    /* \"#utility.yul\":2515:2520   */\n  dup2\n    /* \"#utility.yul\":2508:2520   */\n  swap1\n  pop\n    /* \"#utility.yul\":2451:2526   */\n  swap2\n  swap1\n  pop\n  jump\t// out\n    /* \"#utility.yul\":2532:2801   */\ntag_33:\n    /* \"#utility.yul\":2642:2681   */\n  tag_70\n    /* \"#utility.yul\":2673:2680   */\n  dup4\n    /* \"#utility.yul\":2642:2681   */\n  tag_31\n  jump\t// in\ntag_70:\n    /* \"#utility.yul\":2703:2794   */\n  tag_71\n    /* \"#utility.yul\":2752:2793   */\n  tag_72\n    /* \"#utility.yul\":2776:2792   */\n  dup3\n    /* \"#utility.yul\":2752:2793   */\n  tag_32\n  jump\t// in\ntag_72:\n    /* \"#utility.yul\":2744:2750   */\n  dup5\n    /* \"#utility.yul\":2737:2741   */\n  dup5\n    /* \"#utility.yul\":2731:2742   */\n  sload\n    /* \"#utility.yul\":2703:2794   */\n  tag_28\n  jump\t// in\ntag_71:\n    /* \"#utility.yul\":2697:2701   */\n  dup3\n    /* \"#utility.yul\":2690:2795   */\n  sstore\n    /* \"#utility.yul\":2608:2801   */\n  pop\n    /* \"#utility.yul\":2532:2801   */\n  pop\n  pop\n  pop\n  jump\t// out\n    /* \"#utility.yul\":2807:2880   */\ntag_34:\n    /* \"#utility.yul\":2852:2855   */\n  0x00\n    /* \"#utility.yul\":2873:2874   */\n  0x00\n    /* \"#utility.yul\":2866:2874   */\n  swap1\n  pop\n    /* \"#utility.yul\":2807:2880   */\n  swap1\n  jump\t// out\n    /* \"#utility.yul\":2886:3075   */\ntag_35:\n    /* \"#utility.yul\":2963:2995   */\n  tag_75\n  tag_34\n  jump\t// in\ntag_75:\n    /* \"#utility.yul\":3004:3069   */\n  tag_76\n    /* \"#utility.yul\":3062:3068   */\n  dup2\n    /* \"#utility.yul\":3054:3060   */\n  dup5\n    /* \"#utility.yul\":3048:3052   */\n  dup5\n    /* \"#utility.yul\":3004:3069   */\n  tag_33\n  jump\t// in\ntag_76:\n    /* \"#utility.yul\":2939:3075   */\n  pop\n    /* \"#utility.yul\":2886:3075   */\n  pop\n  pop\n  jump\t// out\n    /* \"#utility.yul\":3081:3267   */\ntag_36:\n    /* \"#utility.yul\":3141:3261   */\ntag_78:\n    /* \"#utility.yul\":3158:3161   */\n  dup2\n    /* \"#utility.yul\":3151:3156   */\n  dup2\n    /* \"#utility.yul\":3148:3162   */\n  lt\n    /* \"#utility.yul\":3141:3261   */\n  iszero\n  tag_80\n  jumpi\n    /* \"#utility.yul\":3212:3251   */\n  tag_81\n    /* \"#utility.yul\":3249:3250   */\n  0x00\n    /* \"#utility.yul\":3242:3247   */\n  dup3\n    /* \"#utility.yul\":3212:3251   */\n  tag_35\n  jump\t// in\ntag_81:\n    /* \"#utility.yul\":3185:3186   */\n  0x01\n    /* \"#utility.yul\":3178:3183   */\n  dup2\n    /* \"#utility.yul\":3174:3187   */\n  add\n    /* \"#utility.yul\":3165:3187   */\n  swap1\n  pop\n    /* \"#utility.yul\":3141:3261   */\n  jump(tag_78)\ntag_80:\n    /* \"#utility.yul\":3081:3267   */\n  pop\n  pop\n  jump\t// out\n    /* \"#utility.yul\":3273:3816   */\ntag_37:\n    /* \"#utility.yul\":3374:3376   */\n  0x1f\n    /* \"#utility.yul\":3369:3372   */\n  dup3\n    /* \"#utility.yul\":3366:3377   */\n  gt\n    /* \"#utility.yul\":3363:3809   */\n  iszero\n  tag_83\n  jumpi\n    /* \"#utility.yul\":3408:3446   */\n  tag_84\n    /* \"#utility.yul\":3440:3445   */\n  dup2\n    /* \"#utility.yul\":3408:3446   */\n  tag_25\n  jump\t// in\ntag_84:\n    /* \"#utility.yul\":3492:3521   */\n  tag_85\n    /* \"#utility.yul\":3510:3520   */\n  dup5\n    /* \"#utility.yul\":3492:3521   */\n  tag_26\n  jump\t// in\ntag_85:\n    /* \"#utility.yul\":3482:3490   */\n  dup2\n    /* \"#utility.yul\":3478:3522   */\n  add\n    /* \"#utility.yul\":3675:3677   */\n  0x20\n    /* \"#utility.yul\":3663:3673   */\n  dup6\n    /* \"#utility.yul\":3660:3678   */\n  lt\n    /* \"#utility.yul\":3657:3706   */\n  iszero\n  tag_86\n  jumpi\n    /* \"#utility.yul\":3696:3704   */\n  dup2\n    /* \"#utility.yul\":3681:3704   */\n  swap1\n  pop\n    /* \"#utility.yul\":3657:3706   */\ntag_86:\n    /* \"#utility.yul\":3719:3799   */\n  tag_87\n    /* \"#utility.yul\":3775:3797   */\n  tag_88\n    /* \"#utility.yul\":3793:3796   */\n  dup6\n    /* \"#utility.yul\":3775:3797   */\n  tag_26\n  jump\t// in\ntag_88:\n    /* \"#utility.yul\":3765:3773   */\n  dup4\n    /* \"#utility.yul\":3761:3798   */\n  add\n    /* \"#utility.yul\":3748:3759   */\n  dup3\n    /* \"#utility.yul\":3719:3799   */\n  tag_36\n  jump\t// in\ntag_87:\n    /* \"#utility.yul\":3378:3809   */\n  pop\n  pop\n    /* \"#utility.yul\":3363:3809   */\ntag_83:\n    /* \"#utility.yul\":3273:3816   */\n  pop\n  pop\n  pop\n  jump\t// out\n    /* \"#utility.yul\":3822:3939   */\ntag_38:\n    /* \"#utility.yul\":3876:3884   */\n  0x00\n    /* \"#utility.yul\":3926:3931   */\n  dup3\n    /* \"#utility.yul\":3920:3924   */\n  dup3\n    /* \"#utility.yul\":3916:3932   */\n  shr\n    /* \"#utility.yul\":3895:3932   */\n  swap1\n  pop\n    /* \"#utility.yul\":3822:3939   */\n  swap3\n  swap2\n  pop\n  pop\n  jump\t// out\n    /* \"#utility.yul\":3945:4114   */\ntag_39:\n    /* \"#utility.yul\":3989:3995   */\n  0x00\n    /* \"#utility.yul\":4022:4073   */\n  tag_91\n    /* \"#utility.yul\":4070:4071   */\n  0x00\n    /* \"#utility.yul\":4066:4072   */\n  not\n    /* \"#utility.yul\":4058:4063   */\n  dup5\n    /* \"#utility.yul\":4055:4056   */\n  0x08\n    /* \"#utility.yul\":4051:4064   */\n  mul\n    /* \"#utility.yul\":4022:4073   */\n  tag_38\n  jump\t// in\ntag_91:\n    /* \"#utility.yul\":4018:4074   */\n  not\n    /* \"#utility.yul\":4103:4107   */\n  dup1\n    /* \"#utility.yul\":4097:4101   */\n  dup4\n    /* \"#utility.yul\":4093:4108   */\n  and\n    /* \"#utility.yul\":4083:4108   */\n  swap2\n  pop\n    /* \"#utility.yul\":3996:4114   */\n  pop\n    /* \"#utility.yul\":3945:4114   */\n  swap3\n  swap2\n  pop\n  pop\n  jump\t// out\n    /* \"#utility.yul\":4119:4414   */\ntag_40:\n    /* \"#utility.yul\":4195:4199   */\n  0x00\n    /* \"#utility.yul\":4341:4370   */\n  tag_93\n    /* \"#utility.yul\":4366:4369   */\n  dup4\n    /* \"#utility.yul\":4360:4364   */\n  dup4\n    /* \"#utility.yul\":4341:4370   */\n  tag_39\n  jump\t// in\ntag_93:\n    /* \"#utility.yul\":4333:4370   */\n  swap2\n  pop\n    /* \"#utility.yul\":4403:4406   */\n  dup3\n    /* \"#utility.yul\":4400:4401   */\n  0x02\n    /* \"#utility.yul\":4396:4407   */\n  mul\n    /* \"#utility.yul\":4390:4394   */\n  dup3\n    /* \"#utility.yul\":4387:4408   */\n  or\n    /* \"#utility.yul\":4379:4408   */\n  swap1\n  pop\n    /* \"#utility.yul\":4119:4414   */\n  swap3\n  swap2\n  pop\n  pop\n  jump\t// out\n    /* \"#utility.yul\":4419:5814   */\ntag_15:\n    /* \"#utility.yul\":4536:4573   */\n  tag_95\n    /* \"#utility.yul\":4569:4572   */\n  dup3\n    /* \"#utility.yul\":4536:4573   */\n  tag_21\n  jump\t// in\ntag_95:\n    /* \"#utility.yul\":4638:4656   */\n  0xffffffffffffffff\n    /* \"#utility.yul\":4630:4636   */\n  dup2\n    /* \"#utility.yul\":4627:4657   */\n  gt\n    /* \"#utility.yul\":4624:4680   */\n  iszero\n  tag_96\n  jumpi\n    /* \"#utility.yul\":4660:4678   */\n  tag_97\n  tag_22\n  jump\t// in\ntag_97:\n    /* \"#utility.yul\":4624:4680   */\ntag_96:\n    /* \"#utility.yul\":4704:4742   */\n  tag_98\n    /* \"#utility.yul\":4736:4740   */\n  dup3\n    /* \"#utility.yul\":4730:4741   */\n  sload\n    /* \"#utility.yul\":4704:4742   */\n  tag_24\n  jump\t// in\ntag_98:\n    /* \"#utility.yul\":4789:4856   */\n  tag_99\n    /* \"#utility.yul\":4849:4855   */\n  dup3\n    /* \"#utility.yul\":4841:4847   */\n  dup3\n    /* \"#utility.yul\":4835:4839   */\n  dup6\n    /* \"#utility.yul\":4789:4856   */\n  tag_37\n  jump\t// in\ntag_99:\n    /* \"#utility.yul\":4883:4884   */\n  0x00\n    /* \"#utility.yul\":4907:4911   */\n  0x20\n    /* \"#utility.yul\":4894:4911   */\n  swap1\n  pop\n    /* \"#utility.yul\":4939:4941   */\n  0x1f\n    /* \"#utility.yul\":4931:4937   */\n  dup4\n    /* \"#utility.yul\":4928:4942   */\n  gt\n    /* \"#utility.yul\":4956:4957   */\n  0x01\n    /* \"#utility.yul\":4951:5569   */\n  dup2\n  eq\n  tag_101\n  jumpi\n    /* \"#utility.yul\":5613:5614   */\n  0x00\n    /* \"#utility.yul\":5630:5636   */\n  dup5\n    /* \"#utility.yul\":5627:5704   */\n  iszero\n  tag_102\n  jumpi\n    /* \"#utility.yul\":5679:5688   */\n  dup3\n    /* \"#utility.yul\":5674:5677   */\n  dup8\n    /* \"#utility.yul\":5670:5689   */\n  add\n    /* \"#utility.yul\":5664:5690   */\n  mload\n    /* \"#utility.yul\":5655:5690   */\n  swap1\n  pop\n    /* \"#utility.yul\":5627:5704   */\ntag_102:\n    /* \"#utility.yul\":5730:5797   */\n  tag_103\n    /* \"#utility.yul\":5790:5796   */\n  dup6\n    /* \"#utility.yul\":5783:5788   */\n  dup3\n    /* \"#utility.yul\":5730:5797   */\n  tag_40\n  jump\t// in\ntag_103:\n    /* \"#utility.yul\":5724:5728   */\n  dup7\n    /* \"#utility.yul\":5717:5798   */\n  sstore\n    /* \"#utility.yul\":5586:5808   */\n  pop\n    /* \"#utility.yul\":4921:5808   */\n  jump(tag_100)\n    /* \"#utility.yul\":4951:5569   */\ntag_101:\n    /* \"#utility.yul\":5003:5007   */\n  0x1f\n    /* \"#utility.yul\":4999:5008   */\n  not\n    /* \"#utility.yul\":4991:4997   */\n  dup5\n    /* \"#utility.yul\":4987:5009   */\n  and\n    /* \"#utility.yul\":5037:5074   */\n  tag_104\n    /* \"#utility.yul\":5069:5073   */\n  dup7\n    /* \"#utility.yul\":5037:5074   */\n  tag_25\n  jump\t// in\ntag_104:\n    /* \"#utility.yul\":5096:5097   */\n  0x00\n    /* \"#utility.yul\":5110:5318   */\ntag_105:\n    /* \"#utility.yul\":5124:5131   */\n  dup3\n    /* \"#utility.yul\":5121:5122   */\n  dup2\n    /* \"#utility.yul\":5118:5132   */\n  lt\n    /* \"#utility.yul\":5110:5318   */\n  iszero\n  tag_107\n  jumpi\n    /* \"#utility.yul\":5203:5212   */\n  dup5\n    /* \"#utility.yul\":5198:5201   */\n  dup10\n    /* \"#utility.yul\":5194:5213   */\n  add\n    /* \"#utility.yul\":5188:5214   */\n  mload\n    /* \"#utility.yul\":5180:5186   */\n  dup3\n    /* \"#utility.yul\":5173:5215   */\n  sstore\n    /* \"#utility.yul\":5254:5255   */\n  0x01\n    /* \"#utility.yul\":5246:5252   */\n  dup3\n    /* \"#utility.yul\":5242:5256   */\n  add\n    /* \"#utility.yul\":5232:5256   */\n  swap2\n  pop\n    /* \"#utility.yul\":5301:5303   */\n  0x20\n    /* \"#utility.yul\":5290:5299   */\n  dup6\n    /* \"#utility.yul\":5286:5304   */\n  add\n    /* \"#utility.yul\":5273:5304   */\n  swap5\n  pop\n    /* \"#utility.yul\":5147:5151   */\n  0x20\n    /* \"#utility.yul\":5144:5145   */\n  dup2\n    /* \"#utility.yul\":5140:5152   */\n  add\n    /* \"#utility.yul\":5135:5152   */\n  swap1\n  pop\n    /* \"#utility.yul\":5110:5318   */\n  jump(tag_105)\ntag_107:\n    /* \"#utility.yul\":5346:5352   */\n  dup7\n    /* \"#utility.yul\":5337:5344   */\n  dup4\n    /* \"#utility.yul\":5334:5353   */\n  lt\n    /* \"#utility.yul\":5331:5510   */\n  iszero\n  tag_108\n  jumpi\n    /* \"#utility.yul\":5404:5413   */\n  dup5\n    /* \"#utility.yul\":5399:5402   */\n  dup10\n    /* \"#utility.yul\":5395:5414   */\n  add\n    /* \"#utility.yul\":5389:5415   */\n  mload\n    /* \"#utility.yul\":5447:5495   */\n  tag_109\n    /* \"#utility.yul\":5489:5493   */\n  0x1f\n    /* \"#utility.yul\":5481:5487   */\n  dup10\n    /* \"#utility.yul\":5477:5494   */\n  and\n    /* \"#utility.yul\":5466:5475   */\n  dup3\n    /* \"#utility.yul\":5447:5495   */\n  tag_39\n  jump\t// in\ntag_109:\n    /* \"#utility.yul\":5439:5445   */\n  dup4\n    /* \"#utility.yul\":5432:5496   */\n  sstore\n    /* \"#utility.yul\":5354:5510   */\n  pop\n    /* \"#utility.yul\":5331:5510   */\ntag_108:\n    /* \"#utility.yul\":5556:5557   */\n  0x01\n    /* \"#utility.yul\":5552:5553   */\n  0x02\n    /* \"#utility.yul\":5544:5550   */\n  dup9\n    /* \"#utility.yul\":5540:5554   */\n  mul\n    /* \"#utility.yul\":5536:5558   */\n  add\n    /* \"#utility.yul\":5530:5534   */\n  dup9\n    /* \"#utility.yul\":5523:5559   */\n  sstore\n    /* \"#utility.yul\":4958:5569   */\n  pop\n  pop\n  pop\n    /* \"#utility.yul\":4921:5808   */\ntag_100:\n  pop\n    /* \"#utility.yul\":4511:5814   */\n  pop\n  pop\n  pop\n    /* \"#utility.yul\":4419:5814   */\n  pop\n  pop\n  jump\t// out\n    /* \"FighterReg.sol\":92:1723  contract FighterReg is JudgeReg {... */\ntag_16:\n  dataSize(sub_0)\n  dup1\n  dataOffset(sub_0)\n  0x00\n  codecopy\n  0x00\n  return\nstop\n\nsub_0: assembly {\n        /* \"FighterReg.sol\":92:1723  contract FighterReg is JudgeReg {... */\n      mstore(0x40, 0x80)\n      callvalue\n      dup1\n      iszero\n      tag_1\n      jumpi\n      revert(0x00, 0x00)\n    tag_1:\n      pop\n      jumpi(tag_2, lt(calldatasize, 0x04))\n      shr(0xe0, calldataload(0x00))\n      dup1\n      0x8da5cb5b\n      gt\n      tag_14\n      jumpi\n      dup1\n      0x8da5cb5b\n      eq\n      tag_8\n      jumpi\n      dup1\n      0x9f8e1766\n      eq\n      tag_9\n      jumpi\n      dup1\n      0xa28da4a6\n      eq\n      tag_10\n      jumpi\n      dup1\n      0xb06b0368\n      eq\n      tag_11\n      jumpi\n      dup1\n      0xf089f7c3\n      eq\n      tag_12\n      jumpi\n      dup1\n      0xf2fde38b\n      eq\n      tag_13\n      jumpi\n      jump(tag_2)\n    tag_14:\n      dup1\n      0x0d292732\n      eq\n      tag_3\n      jumpi\n      dup1\n      0x2e6b221d\n      eq\n      tag_4\n      jumpi\n      dup1\n      0x3824fbec\n      eq\n      tag_5\n      jumpi\n      dup1\n      0x5f6fdddf\n      eq\n      tag_6\n      jumpi\n      dup1\n      0x715018a6\n      eq\n      tag_7\n      jumpi\n    tag_2:\n      revert(0x00, 0x00)\n        /* \"JudgeReg.sol\":738:783  mapping (uint => address) public judgeToOwner */\n    tag_3:\n      tag_15\n      0x04\n      dup1\n      calldatasize\n      sub\n      dup2\n      add\n      swap1\n      tag_16\n      swap2\n      swap1\n      tag_17\n      jump\t// in\n    tag_16:\n      tag_18\n      jump\t// in\n    tag_15:\n      mload(0x40)\n      tag_19\n      swap2\n      swap1\n      tag_20\n      jump\t// in\n    tag_19:\n      mload(0x40)\n      dup1\n      swap2\n      sub\n      swap1\n      return\n        /* \"FighterReg.sol\":644:672  MMAfighter[] public fighters */\n    tag_4:\n      tag_21\n      0x04\n      dup1\n      calldatasize\n      sub\n      dup2\n      add\n      swap1\n      tag_22\n      swap2\n      swap1\n      tag_17\n      jump\t// in\n    tag_22:\n      tag_23\n      jump\t// in\n    tag_21:\n      mload(0x40)\n      tag_24\n      swap7\n      swap6\n      swap5\n      swap4\n      swap3\n      swap2\n      swap1\n      tag_25\n      jump\t// in\n    tag_24:\n      mload(0x40)\n      dup1\n      swap2\n      sub\n      swap1\n      return\n        /* \"FighterReg.sol\":938:985  mapping (uint => address) public fighterToOwner */\n    tag_5:\n      tag_26\n      0x04\n      dup1\n      calldatasize\n      sub\n      dup2\n      add\n      swap1\n      tag_27\n      swap2\n      swap1\n      tag_17\n      jump\t// in\n    tag_27:\n      tag_28\n      jump\t// in\n    tag_26:\n      mload(0x40)\n      tag_29\n      swap2\n      swap1\n      tag_20\n      jump\t// in\n    tag_29:\n      mload(0x40)\n      dup1\n      swap2\n      sub\n      swap1\n      return\n        /* \"JudgeReg.sol\":1158:1536  function _registerJudge(string memory _name) public  { ... */\n    tag_6:\n      tag_30\n      0x04\n      dup1\n      calldatasize\n      sub\n      dup2\n      add\n      swap1\n      tag_31\n      swap2\n      swap1\n      tag_32\n      jump\t// in\n    tag_31:\n      tag_33\n      jump\t// in\n    tag_30:\n      stop\n        /* \"@openzeppelin/contracts/access/Ownable.sol\":2293:2394  function renounceOwnership() public virtual onlyOwner {... */\n    tag_7:\n      tag_34\n      tag_35\n      jump\t// in\n    tag_34:\n      stop\n        /* \"@openzeppelin/contracts/access/Ownable.sol\":1638:1723  function owner() public view virtual returns (address) {... */\n    tag_8:\n      tag_36\n      tag_37\n      jump\t// in\n    tag_36:\n      mload(0x40)\n      tag_38\n      swap2\n      swap1\n      tag_20\n      jump\t// in\n    tag_38:\n      mload(0x40)\n      dup1\n      swap2\n      sub\n      swap1\n      return\n        /* \"FighterReg.sol\":1380:1720  function _registerMMAFighter(string memory _name, uint32 _wins, uint32 _losses, uint32 _draws, uint16 _nc, uint8 _weight) public {... */\n    tag_9:\n      tag_39\n      0x04\n      dup1\n      calldatasize\n      sub\n      dup2\n      add\n      swap1\n      tag_40\n      swap2\n      swap1\n      tag_41\n      jump\t// in\n    tag_40:\n      tag_42\n      jump\t// in\n    tag_39:\n      stop\n        /* \"FighterReg.sol\":996:1050  mapping (uint => MMAfighter) public fighterIdToFighter */\n    tag_10:\n      tag_43\n      0x04\n      dup1\n      calldatasize\n      sub\n      dup2\n      add\n      swap1\n      tag_44\n      swap2\n      swap1\n      tag_17\n      jump\t// in\n    tag_44:\n      tag_45\n      jump\t// in\n    tag_43:\n      mload(0x40)\n      tag_46\n      swap7\n      swap6\n      swap5\n      swap4\n      swap3\n      swap2\n      swap1\n      tag_25\n      jump\t// in\n    tag_46:\n      mload(0x40)\n      dup1\n      swap2\n      sub\n      swap1\n      return\n        /* \"JudgeReg.sol\":644:665  Judge[] public judges */\n    tag_11:\n      tag_47\n      0x04\n      dup1\n      calldatasize\n      sub\n      dup2\n      add\n      swap1\n      tag_48\n      swap2\n      swap1\n      tag_17\n      jump\t// in\n    tag_48:\n      tag_49\n      jump\t// in\n    tag_47:\n      mload(0x40)\n      tag_50\n      swap5\n      swap4\n      swap3\n      swap2\n      swap1\n      tag_51\n      jump\t// in\n    tag_50:\n      mload(0x40)\n      dup1\n      swap2\n      sub\n      swap1\n      return\n        /* \"JudgeReg.sol\":790:835  mapping (address => uint) public ownerToJudge */\n    tag_12:\n      tag_52\n      0x04\n      dup1\n      calldatasize\n      sub\n      dup2\n      add\n      swap1\n      tag_53\n      swap2\n      swap1\n      tag_54\n      jump\t// in\n    tag_53:\n      tag_55\n      jump\t// in\n    tag_52:\n      mload(0x40)\n      tag_56\n      swap2\n      swap1\n      tag_57\n      jump\t// in\n    tag_56:\n      mload(0x40)\n      dup1\n      swap2\n      sub\n      swap1\n      return\n        /* \"@openzeppelin/contracts/access/Ownable.sol\":2543:2758  function transferOwnership(address newOwner) public virtual onlyOwner {... */\n    tag_13:\n      tag_58\n      0x04\n      dup1\n      calldatasize\n      sub\n      dup2\n      add\n      swap1\n      tag_59\n      swap2\n      swap1\n      tag_54\n      jump\t// in\n    tag_59:\n      tag_60\n      jump\t// in\n    tag_58:\n      stop\n        /* \"JudgeReg.sol\":738:783  mapping (uint => address) public judgeToOwner */\n    tag_18:\n      mstore(0x20, 0x02)\n      dup1\n      0x00\n      mstore\n      keccak256(0x00, 0x40)\n      0x00\n      swap2\n      pop\n      sload\n      swap1\n      0x0100\n      exp\n      swap1\n      div\n      0xffffffffffffffffffffffffffffffffffffffff\n      and\n      dup2\n      jump\t// out\n        /* \"FighterReg.sol\":644:672  MMAfighter[] public fighters */\n    tag_23:\n      0x05\n      dup2\n      dup2\n      sload\n      dup2\n      lt\n      tag_61\n      jumpi\n      0x00\n      dup1\n      revert\n    tag_61:\n      swap1\n      0x00\n      mstore\n      keccak256(0x00, 0x20)\n      swap1\n      0x02\n      mul\n      add\n      0x00\n      swap2\n      pop\n      swap1\n      pop\n      dup1\n      0x00\n      add\n      dup1\n      sload\n      tag_63\n      swap1\n      tag_64\n      jump\t// in\n    tag_63:\n      dup1\n      0x1f\n      add\n      0x20\n      dup1\n      swap2\n      div\n      mul\n      0x20\n      add\n      mload(0x40)\n      swap1\n      dup2\n      add\n      0x40\n      mstore\n      dup1\n      swap3\n      swap2\n      swap1\n      dup2\n      dup2\n      mstore\n      0x20\n      add\n      dup3\n      dup1\n      sload\n      tag_65\n      swap1\n      tag_64\n      jump\t// in\n    tag_65:\n      dup1\n      iszero\n      tag_66\n      jumpi\n      dup1\n      0x1f\n      lt\n      tag_67\n      jumpi\n      0x0100\n      dup1\n      dup4\n      sload\n      div\n      mul\n      dup4\n      mstore\n      swap2\n      0x20\n      add\n      swap2\n      jump(tag_66)\n    tag_67:\n      dup3\n      add\n      swap2\n      swap1\n      0x00\n      mstore\n      keccak256(0x00, 0x20)\n      swap1\n    tag_68:\n      dup2\n      sload\n      dup2\n      mstore\n      swap1\n      0x01\n      add\n      swap1\n      0x20\n      add\n      dup1\n      dup4\n      gt\n      tag_68\n      jumpi\n      dup3\n      swap1\n      sub\n      0x1f\n      and\n      dup3\n      add\n      swap2\n    tag_66:\n      pop\n      pop\n      pop\n      pop\n      pop\n      swap1\n      dup1\n      0x01\n      add\n      0x00\n      swap1\n      sload\n      swap1\n      0x0100\n      exp\n      swap1\n      div\n      0xffffffff\n      and\n      swap1\n      dup1\n      0x01\n      add\n      0x04\n      swap1\n      sload\n      swap1\n      0x0100\n      exp\n      swap1\n      div\n      0xffffffff\n      and\n      swap1\n      dup1\n      0x01\n      add\n      0x08\n      swap1\n      sload\n      swap1\n      0x0100\n      exp\n      swap1\n      div\n      0xffffffff\n      and\n      swap1\n      dup1\n      0x01\n      add\n      0x0c\n      swap1\n      sload\n      swap1\n      0x0100\n      exp\n      swap1\n      div\n      0xffff\n      and\n      swap1\n      dup1\n      0x01\n      add\n      0x0e\n      swap1\n      sload\n      swap1\n      0x0100\n      exp\n      swap1\n      div\n      0xff\n      and\n      swap1\n      pop\n      dup7\n      jump\t// out\n        /* \"FighterReg.sol\":938:985  mapping (uint => address) public fighterToOwner */\n    tag_28:\n      mstore(0x20, 0x06)\n      dup1\n      0x00\n      mstore\n      keccak256(0x00, 0x40)\n      0x00\n      swap2\n      pop\n      sload\n      swap1\n      0x0100\n      exp\n      swap1\n      div\n      0xffffffffffffffffffffffffffffffffffffffff\n      and\n      dup2\n      jump\t// out\n        /* \"JudgeReg.sol\":1158:1536  function _registerJudge(string memory _name) public  { ... */\n    tag_33:\n        /* \"JudgeReg.sol\":1259:1260  0 */\n      0x00\n        /* \"JudgeReg.sol\":1231:1243  ownerToJudge */\n      0x03\n        /* \"JudgeReg.sol\":1231:1255  ownerToJudge[msg.sender] */\n      0x00\n        /* \"JudgeReg.sol\":1244:1254  msg.sender */\n      caller\n        /* \"JudgeReg.sol\":1231:1255  ownerToJudge[msg.sender] */\n      0xffffffffffffffffffffffffffffffffffffffff\n      and\n      0xffffffffffffffffffffffffffffffffffffffff\n      and\n      dup2\n      mstore\n      0x20\n      add\n      swap1\n      dup2\n      mstore\n      0x20\n      add\n      0x00\n      keccak256\n      sload\n        /* \"JudgeReg.sol\":1231:1260  ownerToJudge[msg.sender] == 0 */\n      eq\n        /* \"JudgeReg.sol\":1223:1286  require(ownerToJudge[msg.sender] == 0, \"Judge already exsists\") */\n      tag_70\n      jumpi\n      mload(0x40)\n      0x08c379a000000000000000000000000000000000000000000000000000000000\n      dup2\n      mstore\n      0x04\n      add\n      tag_71\n      swap1\n      tag_72\n      jump\t// in\n    tag_71:\n      mload(0x40)\n      dup1\n      swap2\n      sub\n      swap1\n      revert\n    tag_70:\n        /* \"JudgeReg.sol\":1338:1344  judges */\n      0x01\n        /* \"JudgeReg.sol\":1350:1371  Judge(_name, 1, 0, 0) */\n      mload(0x40)\n      dup1\n      0x80\n      add\n      0x40\n      mstore\n      dup1\n        /* \"JudgeReg.sol\":1356:1361  _name */\n      dup4\n        /* \"JudgeReg.sol\":1350:1371  Judge(_name, 1, 0, 0) */\n      dup2\n      mstore\n      0x20\n      add\n        /* \"JudgeReg.sol\":1363:1364  1 */\n      0x01\n        /* \"JudgeReg.sol\":1350:1371  Judge(_name, 1, 0, 0) */\n      0xffff\n      and\n      dup2\n      mstore\n      0x20\n      add\n        /* \"JudgeReg.sol\":1366:1367  0 */\n      0x00\n        /* \"JudgeReg.sol\":1350:1371  Judge(_name, 1, 0, 0) */\n      0xffffffff\n      and\n      dup2\n      mstore\n      0x20\n      add\n        /* \"JudgeReg.sol\":1369:1370  0 */\n      0x00\n        /* \"JudgeReg.sol\":1350:1371  Judge(_name, 1, 0, 0) */\n      0xffff\n      and\n      dup2\n      mstore\n      pop\n        /* \"JudgeReg.sol\":1338:1372  judges.push(Judge(_name, 1, 0, 0)) */\n      swap1\n      dup1\n      0x01\n      dup2\n      sload\n      add\n      dup1\n      dup3\n      sstore\n      dup1\n      swap2\n      pop\n      pop\n      0x01\n      swap1\n      sub\n      swap1\n      0x00\n      mstore\n      keccak256(0x00, 0x20)\n      swap1\n      0x02\n      mul\n      add\n      0x00\n      swap1\n      swap2\n      swap1\n      swap2\n      swap1\n      swap2\n      pop\n      0x00\n      dup3\n      add\n      mload\n      dup2\n      0x00\n      add\n      swap1\n      dup2\n      tag_74\n      swap2\n      swap1\n      tag_75\n      jump\t// in\n    tag_74:\n      pop\n      0x20\n      dup3\n      add\n      mload\n      dup2\n      0x01\n      add\n      exp(0x0100, 0x00)\n      dup2\n      sload\n      dup2\n      0xffff\n      mul\n      not\n      and\n      swap1\n      dup4\n      0xffff\n      and\n      mul\n      or\n      swap1\n      sstore\n      pop\n      0x40\n      dup3\n      add\n      mload\n      dup2\n      0x01\n      add\n      exp(0x0100, 0x02)\n      dup2\n      sload\n      dup2\n      0xffffffff\n      mul\n      not\n      and\n      swap1\n      dup4\n      0xffffffff\n      and\n      mul\n      or\n      swap1\n      sstore\n      pop\n      0x60\n      dup3\n      add\n      mload\n      dup2\n      0x01\n      add\n      exp(0x0100, 0x06)\n      dup2\n      sload\n      dup2\n      0xffff\n      mul\n      not\n      and\n      swap1\n      dup4\n      0xffff\n      and\n      mul\n      or\n      swap1\n      sstore\n      pop\n      pop\n      pop\n        /* \"JudgeReg.sol\":1383:1393  uint256 id */\n      0x00\n        /* \"JudgeReg.sol\":1412:1413  1 */\n      0x01\n        /* \"JudgeReg.sol\":1396:1402  judges */\n      dup1\n        /* \"JudgeReg.sol\":1396:1409  judges.length */\n      dup1\n      sload\n      swap1\n      pop\n        /* \"JudgeReg.sol\":1396:1413  judges.length - 1 */\n      tag_76\n      swap2\n      swap1\n      tag_77\n      jump\t// in\n    tag_76:\n        /* \"JudgeReg.sol\":1383:1413  uint256 id = judges.length - 1 */\n      swap1\n      pop\n        /* \"JudgeReg.sol\":1443:1453  msg.sender */\n      caller\n        /* \"JudgeReg.sol\":1424:1436  judgeToOwner */\n      0x02\n        /* \"JudgeReg.sol\":1424:1440  judgeToOwner[id] */\n      0x00\n        /* \"JudgeReg.sol\":1437:1439  id */\n      dup4\n        /* \"JudgeReg.sol\":1424:1440  judgeToOwner[id] */\n      dup2\n      mstore\n      0x20\n      add\n      swap1\n      dup2\n      mstore\n      0x20\n      add\n      0x00\n      keccak256\n      0x00\n        /* \"JudgeReg.sol\":1424:1453  judgeToOwner[id] = msg.sender */\n      0x0100\n      exp\n      dup2\n      sload\n      dup2\n      0xffffffffffffffffffffffffffffffffffffffff\n      mul\n      not\n      and\n      swap1\n      dup4\n      0xffffffffffffffffffffffffffffffffffffffff\n      and\n      mul\n      or\n      swap1\n      sstore\n      pop\n        /* \"JudgeReg.sol\":1491:1493  id */\n      dup1\n        /* \"JudgeReg.sol\":1464:1476  ownerToJudge */\n      0x03\n        /* \"JudgeReg.sol\":1464:1488  ownerToJudge[msg.sender] */\n      0x00\n        /* \"JudgeReg.sol\":1477:1487  msg.sender */\n      caller\n        /* \"JudgeReg.sol\":1464:1488  ownerToJudge[msg.sender] */\n      0xffffffffffffffffffffffffffffffffffffffff\n      and\n      0xffffffffffffffffffffffffffffffffffffffff\n      and\n      dup2\n      mstore\n      0x20\n      add\n      swap1\n      dup2\n      mstore\n      0x20\n      add\n      0x00\n      keccak256\n        /* \"JudgeReg.sol\":1464:1493  ownerToJudge[msg.sender] = id */\n      dup2\n      swap1\n      sstore\n      pop\n        /* \"JudgeReg.sol\":1509:1528  NewJudge(id, _name) */\n      0x41b82268d4cfcb7bde62bae060583c745a4821f267e1fe541b5f624e00d43c7d\n        /* \"JudgeReg.sol\":1518:1520  id */\n      dup2\n        /* \"JudgeReg.sol\":1522:1527  _name */\n      dup4\n        /* \"JudgeReg.sol\":1509:1528  NewJudge(id, _name) */\n      mload(0x40)\n      tag_78\n      swap3\n      swap2\n      swap1\n      tag_79\n      jump\t// in\n    tag_78:\n      mload(0x40)\n      dup1\n      swap2\n      sub\n      swap1\n      log1\n        /* \"JudgeReg.sol\":1211:1536  { ... */\n      pop\n        /* \"JudgeReg.sol\":1158:1536  function _registerJudge(string memory _name) public  { ... */\n      pop\n      jump\t// out\n        /* \"@openzeppelin/contracts/access/Ownable.sol\":2293:2394  function renounceOwnership() public virtual onlyOwner {... */\n    tag_35:\n        /* \"@openzeppelin/contracts/access/Ownable.sol\":1531:1544  _checkOwner() */\n      tag_81\n        /* \"@openzeppelin/contracts/access/Ownable.sol\":1531:1542  _checkOwner */\n      tag_82\n        /* \"@openzeppelin/contracts/access/Ownable.sol\":1531:1544  _checkOwner() */\n      jump\t// in\n    tag_81:\n        /* \"@openzeppelin/contracts/access/Ownable.sol\":2357:2387  _transferOwnership(address(0)) */\n      tag_84\n        /* \"@openzeppelin/contracts/access/Ownable.sol\":2384:2385  0 */\n      0x00\n        /* \"@openzeppelin/contracts/access/Ownable.sol\":2357:2375  _transferOwnership */\n      tag_85\n        /* \"@openzeppelin/contracts/access/Ownable.sol\":2357:2387  _transferOwnership(address(0)) */\n      jump\t// in\n    tag_84:\n        /* \"@openzeppelin/contracts/access/Ownable.sol\":2293:2394  function renounceOwnership() public virtual onlyOwner {... */\n      jump\t// out\n        /* \"@openzeppelin/contracts/access/Ownable.sol\":1638:1723  function owner() public view virtual returns (address) {... */\n    tag_37:\n        /* \"@openzeppelin/contracts/access/Ownable.sol\":1684:1691  address */\n      0x00\n        /* \"@openzeppelin/contracts/access/Ownable.sol\":1710:1716  _owner */\n      0x00\n      0x00\n      swap1\n      sload\n      swap1\n      0x0100\n      exp\n      swap1\n      div\n      0xffffffffffffffffffffffffffffffffffffffff\n      and\n        /* \"@openzeppelin/contracts/access/Ownable.sol\":1703:1716  return _owner */\n      swap1\n      pop\n        /* \"@openzeppelin/contracts/access/Ownable.sol\":1638:1723  function owner() public view virtual returns (address) {... */\n      swap1\n      jump\t// out\n        /* \"FighterReg.sol\":1380:1720  function _registerMMAFighter(string memory _name, uint32 _wins, uint32 _losses, uint32 _draws, uint16 _nc, uint8 _weight) public {... */\n    tag_42:\n        /* \"FighterReg.sol\":1520:1528  fighters */\n      0x05\n        /* \"FighterReg.sol\":1534:1589  MMAfighter(_name, _wins, _losses, _draws, _nc, _weight) */\n      mload(0x40)\n      dup1\n      0xc0\n      add\n      0x40\n      mstore\n      dup1\n        /* \"FighterReg.sol\":1545:1550  _name */\n      dup9\n        /* \"FighterReg.sol\":1534:1589  MMAfighter(_name, _wins, _losses, _draws, _nc, _weight) */\n      dup2\n      mstore\n      0x20\n      add\n        /* \"FighterReg.sol\":1552:1557  _wins */\n      dup8\n        /* \"FighterReg.sol\":1534:1589  MMAfighter(_name, _wins, _losses, _draws, _nc, _weight) */\n      0xffffffff\n      and\n      dup2\n      mstore\n      0x20\n      add\n        /* \"FighterReg.sol\":1559:1566  _losses */\n      dup7\n        /* \"FighterReg.sol\":1534:1589  MMAfighter(_name, _wins, _losses, _draws, _nc, _weight) */\n      0xffffffff\n      and\n      dup2\n      mstore\n      0x20\n      add\n        /* \"FighterReg.sol\":1568:1574  _draws */\n      dup6\n        /* \"FighterReg.sol\":1534:1589  MMAfighter(_name, _wins, _losses, _draws, _nc, _weight) */\n      0xffffffff\n      and\n      dup2\n      mstore\n      0x20\n      add\n        /* \"FighterReg.sol\":1576:1579  _nc */\n      dup5\n        /* \"FighterReg.sol\":1534:1589  MMAfighter(_name, _wins, _losses, _draws, _nc, _weight) */\n      0xffff\n      and\n      dup2\n      mstore\n      0x20\n      add\n        /* \"FighterReg.sol\":1581:1588  _weight */\n      dup4\n        /* \"FighterReg.sol\":1534:1589  MMAfighter(_name, _wins, _losses, _draws, _nc, _weight) */\n      0xff\n      and\n      dup2\n      mstore\n      pop\n        /* \"FighterReg.sol\":1520:1590  fighters.push(MMAfighter(_name, _wins, _losses, _draws, _nc, _weight)) */\n      swap1\n      dup1\n      0x01\n      dup2\n      sload\n      add\n      dup1\n      dup3\n      sstore\n      dup1\n      swap2\n      pop\n      pop\n      0x01\n      swap1\n      sub\n      swap1\n      0x00\n      mstore\n      keccak256(0x00, 0x20)\n      swap1\n      0x02\n      mul\n      add\n      0x00\n      swap1\n      swap2\n      swap1\n      swap2\n      swap1\n      swap2\n      pop\n      0x00\n      dup3\n      add\n      mload\n      dup2\n      0x00\n      add\n      swap1\n      dup2\n      tag_89\n      swap2\n      swap1\n      tag_75\n      jump\t// in\n    tag_89:\n      pop\n      0x20\n      dup3\n      add\n      mload\n      dup2\n      0x01\n      add\n      exp(0x0100, 0x00)\n      dup2\n      sload\n      dup2\n      0xffffffff\n      mul\n      not\n      and\n      swap1\n      dup4\n      0xffffffff\n      and\n      mul\n      or\n      swap1\n      sstore\n      pop\n      0x40\n      dup3\n      add\n      mload\n      dup2\n      0x01\n      add\n      exp(0x0100, 0x04)\n      dup2\n      sload\n      dup2\n      0xffffffff\n      mul\n      not\n      and\n      swap1\n      dup4\n      0xffffffff\n      and\n      mul\n      or\n      swap1\n      sstore\n      pop\n      0x60\n      dup3\n      add\n      mload\n      dup2\n      0x01\n      add\n      exp(0x0100, 0x08)\n      dup2\n      sload\n      dup2\n      0xffffffff\n      mul\n      not\n      and\n      swap1\n      dup4\n      0xffffffff\n      and\n      mul\n      or\n      swap1\n      sstore\n      pop\n      0x80\n      dup3\n      add\n      mload\n      dup2\n      0x01\n      add\n      exp(0x0100, 0x0c)\n      dup2\n      sload\n      dup2\n      0xffff\n      mul\n      not\n      and\n      swap1\n      dup4\n      0xffff\n      and\n      mul\n      or\n      swap1\n      sstore\n      pop\n      0xa0\n      dup3\n      add\n      mload\n      dup2\n      0x01\n      add\n      exp(0x0100, 0x0e)\n      dup2\n      sload\n      dup2\n      0xff\n      mul\n      not\n      and\n      swap1\n      dup4\n      0xff\n      and\n      mul\n      or\n      swap1\n      sstore\n      pop\n      pop\n      pop\n        /* \"FighterReg.sol\":1601:1611  uint256 id */\n      0x00\n        /* \"FighterReg.sol\":1632:1633  1 */\n      0x01\n        /* \"FighterReg.sol\":1614:1622  fighters */\n      0x05\n        /* \"FighterReg.sol\":1614:1629  fighters.length */\n      dup1\n      sload\n      swap1\n      pop\n        /* \"FighterReg.sol\":1614:1633  fighters.length - 1 */\n      tag_90\n      swap2\n      swap1\n      tag_77\n      jump\t// in\n    tag_90:\n        /* \"FighterReg.sol\":1601:1633  uint256 id = fighters.length - 1 */\n      swap1\n      pop\n        /* \"FighterReg.sol\":1665:1675  msg.sender */\n      caller\n        /* \"FighterReg.sol\":1644:1658  fighterToOwner */\n      0x06\n        /* \"FighterReg.sol\":1644:1662  fighterToOwner[id] */\n      0x00\n        /* \"FighterReg.sol\":1659:1661  id */\n      dup4\n        /* \"FighterReg.sol\":1644:1662  fighterToOwner[id] */\n      dup2\n      mstore\n      0x20\n      add\n      swap1\n      dup2\n      mstore\n      0x20\n      add\n      0x00\n      keccak256\n      0x00\n        /* \"FighterReg.sol\":1644:1675  fighterToOwner[id] = msg.sender */\n      0x0100\n      exp\n      dup2\n      sload\n      dup2\n      0xffffffffffffffffffffffffffffffffffffffff\n      mul\n      not\n      and\n      swap1\n      dup4\n      0xffffffffffffffffffffffffffffffffffffffff\n      and\n      mul\n      or\n      swap1\n      sstore\n      pop\n        /* \"FighterReg.sol\":1691:1712  NewFighter(id, _name) */\n      0xcf0b1657bf9a3add4678d1909d3fdcdb613a214497eb0d3c6b946dee91975838\n        /* \"FighterReg.sol\":1702:1704  id */\n      dup2\n        /* \"FighterReg.sol\":1706:1711  _name */\n      dup9\n        /* \"FighterReg.sol\":1691:1712  NewFighter(id, _name) */\n      mload(0x40)\n      tag_91\n      swap3\n      swap2\n      swap1\n      tag_79\n      jump\t// in\n    tag_91:\n      mload(0x40)\n      dup1\n      swap2\n      sub\n      swap1\n      log1\n        /* \"FighterReg.sol\":1509:1720  {... */\n      pop\n        /* \"FighterReg.sol\":1380:1720  function _registerMMAFighter(string memory _name, uint32 _wins, uint32 _losses, uint32 _draws, uint16 _nc, uint8 _weight) public {... */\n      pop\n      pop\n      pop\n      pop\n      pop\n      pop\n      jump\t// out\n        /* \"FighterReg.sol\":996:1050  mapping (uint => MMAfighter) public fighterIdToFighter */\n    tag_45:\n      mstore(0x20, 0x07)\n      dup1\n      0x00\n      mstore\n      keccak256(0x00, 0x40)\n      0x00\n      swap2\n      pop\n      swap1\n      pop\n      dup1\n      0x00\n      add\n      dup1\n      sload\n      tag_92\n      swap1\n      tag_64\n      jump\t// in\n    tag_92:\n      dup1\n      0x1f\n      add\n      0x20\n      dup1\n      swap2\n      div\n      mul\n      0x20\n      add\n      mload(0x40)\n      swap1\n      dup2\n      add\n      0x40\n      mstore\n      dup1\n      swap3\n      swap2\n      swap1\n      dup2\n      dup2\n      mstore\n      0x20\n      add\n      dup3\n      dup1\n      sload\n      tag_93\n      swap1\n      tag_64\n      jump\t// in\n    tag_93:\n      dup1\n      iszero\n      tag_94\n      jumpi\n      dup1\n      0x1f\n      lt\n      tag_95\n      jumpi\n      0x0100\n      dup1\n      dup4\n      sload\n      div\n      mul\n      dup4\n      mstore\n      swap2\n      0x20\n      add\n      swap2\n      jump(tag_94)\n    tag_95:\n      dup3\n      add\n      swap2\n      swap1\n      0x00\n      mstore\n      keccak256(0x00, 0x20)\n      swap1\n    tag_96:\n      dup2\n      sload\n      dup2\n      mstore\n      swap1\n      0x01\n      add\n      swap1\n      0x20\n      add\n      dup1\n      dup4\n      gt\n      tag_96\n      jumpi\n      dup3\n      swap1\n      sub\n      0x1f\n      and\n      dup3\n      add\n      swap2\n    tag_94:\n      pop\n      pop\n      pop\n      pop\n      pop\n      swap1\n      dup1\n      0x01\n      add\n      0x00\n      swap1\n      sload\n      swap1\n      0x0100\n      exp\n      swap1\n      div\n      0xffffffff\n      and\n      swap1\n      dup1\n      0x01\n      add\n      0x04\n      swap1\n      sload\n      swap1\n      0x0100\n      exp\n      swap1\n      div\n      0xffffffff\n      and\n      swap1\n      dup1\n      0x01\n      add\n      0x08\n      swap1\n      sload\n      swap1\n      0x0100\n      exp\n      swap1\n      div\n      0xffffffff\n      and\n      swap1\n      dup1\n      0x01\n      add\n      0x0c\n      swap1\n      sload\n      swap1\n      0x0100\n      exp\n      swap1\n      div\n      0xffff\n      and\n      swap1\n      dup1\n      0x01\n      add\n      0x0e\n      swap1\n      sload\n      swap1\n      0x0100\n      exp\n      swap1\n      div\n      0xff\n      and\n      swap1\n      pop\n      dup7\n      jump\t// out\n        /* \"JudgeReg.sol\":644:665  Judge[] public judges */\n    tag_49:\n      0x01\n      dup2\n      dup2\n      sload\n      dup2\n      lt\n      tag_97\n      jumpi\n      0x00\n      dup1\n      revert\n    tag_97:\n      swap1\n      0x00\n      mstore\n      keccak256(0x00, 0x20)\n      swap1\n      0x02\n      mul\n      add\n      0x00\n      swap2\n      pop\n      swap1\n      pop\n      dup1\n      0x00\n      add\n      dup1\n      sload\n      tag_99\n      swap1\n      tag_64\n      jump\t// in\n    tag_99:\n      dup1\n      0x1f\n      add\n      0x20\n      dup1\n      swap2\n      div\n      mul\n      0x20\n      add\n      mload(0x40)\n      swap1\n      dup2\n      add\n      0x40\n      mstore\n      dup1\n      swap3\n      swap2\n      swap1\n      dup2\n      dup2\n      mstore\n      0x20\n      add\n      dup3\n      dup1\n      sload\n      tag_100\n      swap1\n      tag_64\n      jump\t// in\n    tag_100:\n      dup1\n      iszero\n      tag_101\n      jumpi\n      dup1\n      0x1f\n      lt\n      tag_102\n      jumpi\n      0x0100\n      dup1\n      dup4\n      sload\n      div\n      mul\n      dup4\n      mstore\n      swap2\n      0x20\n      add\n      swap2\n      jump(tag_101)\n    tag_102:\n      dup3\n      add\n      swap2\n      swap1\n      0x00\n      mstore\n      keccak256(0x00, 0x20)\n      swap1\n    tag_103:\n      dup2\n      sload\n      dup2\n      mstore\n      swap1\n      0x01\n      add\n      swap1\n      0x20\n      add\n      dup1\n      dup4\n      gt\n      tag_103\n      jumpi\n      dup3\n      swap1\n      sub\n      0x1f\n      and\n      dup3\n      add\n      swap2\n    tag_101:\n      pop\n      pop\n      pop\n      pop\n      pop\n      swap1\n      dup1\n      0x01\n      add\n      0x00\n      swap1\n      sload\n      swap1\n      0x0100\n      exp\n      swap1\n      div\n      0xffff\n      and\n      swap1\n      dup1\n      0x01\n      add\n      0x02\n      swap1\n      sload\n      swap1\n      0x0100\n      exp\n      swap1\n      div\n      0xffffffff\n      and\n      swap1\n      dup1\n      0x01\n      add\n      0x06\n      swap1\n      sload\n      swap1\n      0x0100\n      exp\n      swap1\n      div\n      0xffff\n      and\n      swap1\n      pop\n      dup5\n      jump\t// out\n        /* \"JudgeReg.sol\":790:835  mapping (address => uint) public ownerToJudge */\n    tag_55:\n      mstore(0x20, 0x03)\n      dup1\n      0x00\n      mstore\n      keccak256(0x00, 0x40)\n      0x00\n      swap2\n      pop\n      swap1\n      pop\n      sload\n      dup2\n      jump\t// out\n        /* \"@openzeppelin/contracts/access/Ownable.sol\":2543:2758  function transferOwnership(address newOwner) public virtual onlyOwner {... */\n    tag_60:\n        /* \"@openzeppelin/contracts/access/Ownable.sol\":1531:1544  _checkOwner() */\n      tag_105\n        /* \"@openzeppelin/contracts/access/Ownable.sol\":1531:1542  _checkOwner */\n      tag_82\n        /* \"@openzeppelin/contracts/access/Ownable.sol\":1531:1544  _checkOwner() */\n      jump\t// in\n    tag_105:\n        /* \"@openzeppelin/contracts/access/Ownable.sol\":2647:2648  0 */\n      0x00\n        /* \"@openzeppelin/contracts/access/Ownable.sol\":2627:2649  newOwner == address(0) */\n      0xffffffffffffffffffffffffffffffffffffffff\n      and\n        /* \"@openzeppelin/contracts/access/Ownable.sol\":2627:2635  newOwner */\n      dup2\n        /* \"@openzeppelin/contracts/access/Ownable.sol\":2627:2649  newOwner == address(0) */\n      0xffffffffffffffffffffffffffffffffffffffff\n      and\n      sub\n        /* \"@openzeppelin/contracts/access/Ownable.sol\":2623:2714  if (newOwner == address(0)) {... */\n      tag_107\n      jumpi\n        /* \"@openzeppelin/contracts/access/Ownable.sol\":2700:2701  0 */\n      0x00\n        /* \"@openzeppelin/contracts/access/Ownable.sol\":2672:2703  OwnableInvalidOwner(address(0)) */\n      mload(0x40)\n      0x1e4fbdf700000000000000000000000000000000000000000000000000000000\n      dup2\n      mstore\n      0x04\n      add\n      tag_108\n      swap2\n      swap1\n      tag_20\n      jump\t// in\n    tag_108:\n      mload(0x40)\n      dup1\n      swap2\n      sub\n      swap1\n      revert\n        /* \"@openzeppelin/contracts/access/Ownable.sol\":2623:2714  if (newOwner == address(0)) {... */\n    tag_107:\n        /* \"@openzeppelin/contracts/access/Ownable.sol\":2723:2751  _transferOwnership(newOwner) */\n      tag_109\n        /* \"@openzeppelin/contracts/access/Ownable.sol\":2742:2750  newOwner */\n      dup2\n        /* \"@openzeppelin/contracts/access/Ownable.sol\":2723:2741  _transferOwnership */\n      tag_85\n        /* \"@openzeppelin/contracts/access/Ownable.sol\":2723:2751  _transferOwnership(newOwner) */\n      jump\t// in\n    tag_109:\n        /* \"@openzeppelin/contracts/access/Ownable.sol\":2543:2758  function transferOwnership(address newOwner) public virtual onlyOwner {... */\n      pop\n      jump\t// out\n        /* \"@openzeppelin/contracts/access/Ownable.sol\":1796:1958  function _checkOwner() internal view virtual {... */\n    tag_82:\n        /* \"@openzeppelin/contracts/access/Ownable.sol\":1866:1878  _msgSender() */\n      tag_111\n        /* \"@openzeppelin/contracts/access/Ownable.sol\":1866:1876  _msgSender */\n      tag_112\n        /* \"@openzeppelin/contracts/access/Ownable.sol\":1866:1878  _msgSender() */\n      jump\t// in\n    tag_111:\n        /* \"@openzeppelin/contracts/access/Ownable.sol\":1855:1878  owner() != _msgSender() */\n      0xffffffffffffffffffffffffffffffffffffffff\n      and\n        /* \"@openzeppelin/contracts/access/Ownable.sol\":1855:1862  owner() */\n      tag_113\n        /* \"@openzeppelin/contracts/access/Ownable.sol\":1855:1860  owner */\n      tag_37\n        /* \"@openzeppelin/contracts/access/Ownable.sol\":1855:1862  owner() */\n      jump\t// in\n    tag_113:\n        /* \"@openzeppelin/contracts/access/Ownable.sol\":1855:1878  owner() != _msgSender() */\n      0xffffffffffffffffffffffffffffffffffffffff\n      and\n      eq\n        /* \"@openzeppelin/contracts/access/Ownable.sol\":1851:1952  if (owner() != _msgSender()) {... */\n      tag_114\n      jumpi\n        /* \"@openzeppelin/contracts/access/Ownable.sol\":1928:1940  _msgSender() */\n      tag_115\n        /* \"@openzeppelin/contracts/access/Ownable.sol\":1928:1938  _msgSender */\n      tag_112\n        /* \"@openzeppelin/contracts/access/Ownable.sol\":1928:1940  _msgSender() */\n      jump\t// in\n    tag_115:\n        /* \"@openzeppelin/contracts/access/Ownable.sol\":1901:1941  OwnableUnauthorizedAccount(_msgSender()) */\n      mload(0x40)\n      0x118cdaa700000000000000000000000000000000000000000000000000000000\n      dup2\n      mstore\n      0x04\n      add\n      tag_116\n      swap2\n      swap1\n      tag_20\n      jump\t// in\n    tag_116:\n      mload(0x40)\n      dup1\n      swap2\n      sub\n      swap1\n      revert\n        /* \"@openzeppelin/contracts/access/Ownable.sol\":1851:1952  if (owner() != _msgSender()) {... */\n    tag_114:\n        /* \"@openzeppelin/contracts/access/Ownable.sol\":1796:1958  function _checkOwner() internal view virtual {... */\n      jump\t// out\n        /* \"@openzeppelin/contracts/access/Ownable.sol\":2912:3099  function _transferOwnership(address newOwner) internal virtual {... */\n    tag_85:\n        /* \"@openzeppelin/contracts/access/Ownable.sol\":2985:3001  address oldOwner */\n      0x00\n        /* \"@openzeppelin/contracts/access/Ownable.sol\":3004:3010  _owner */\n      0x00\n      0x00\n      swap1\n      sload\n      swap1\n      0x0100\n      exp\n      swap1\n      div\n      0xffffffffffffffffffffffffffffffffffffffff\n      and\n        /* \"@openzeppelin/contracts/access/Ownable.sol\":2985:3010  address oldOwner = _owner */\n      swap1\n      pop\n        /* \"@openzeppelin/contracts/access/Ownable.sol\":3029:3037  newOwner */\n      dup2\n        /* \"@openzeppelin/contracts/access/Ownable.sol\":3020:3026  _owner */\n      0x00\n      0x00\n        /* \"@openzeppelin/contracts/access/Ownable.sol\":3020:3037  _owner = newOwner */\n      0x0100\n      exp\n      dup2\n      sload\n      dup2\n      0xffffffffffffffffffffffffffffffffffffffff\n      mul\n      not\n      and\n      swap1\n      dup4\n      0xffffffffffffffffffffffffffffffffffffffff\n      and\n      mul\n      or\n      swap1\n      sstore\n      pop\n        /* \"@openzeppelin/contracts/access/Ownable.sol\":3083:3091  newOwner */\n      dup2\n        /* \"@openzeppelin/contracts/access/Ownable.sol\":3052:3092  OwnershipTransferred(oldOwner, newOwner) */\n      0xffffffffffffffffffffffffffffffffffffffff\n      and\n        /* \"@openzeppelin/contracts/access/Ownable.sol\":3073:3081  oldOwner */\n      dup2\n        /* \"@openzeppelin/contracts/access/Ownable.sol\":3052:3092  OwnershipTransferred(oldOwner, newOwner) */\n      0xffffffffffffffffffffffffffffffffffffffff\n      and\n      0x8be0079c531659141344cd1fd0a4f28419497f9722a3daafe3b4186f6b6457e0\n      mload(0x40)\n      mload(0x40)\n      dup1\n      swap2\n      sub\n      swap1\n      log3\n        /* \"@openzeppelin/contracts/access/Ownable.sol\":2975:3099  {... */\n      pop\n        /* \"@openzeppelin/contracts/access/Ownable.sol\":2912:3099  function _transferOwnership(address newOwner) internal virtual {... */\n      pop\n      jump\t// out\n        /* \"@openzeppelin/contracts/utils/Context.sol\":656:752  function _msgSender() internal view virtual returns (address) {... */\n    tag_112:\n        /* \"@openzeppelin/contracts/utils/Context.sol\":709:716  address */\n      0x00\n        /* \"@openzeppelin/contracts/utils/Context.sol\":735:745  msg.sender */\n      caller\n        /* \"@openzeppelin/contracts/utils/Context.sol\":728:745  return msg.sender */\n      swap1\n      pop\n        /* \"@openzeppelin/contracts/utils/Context.sol\":656:752  function _msgSender() internal view virtual returns (address) {... */\n      swap1\n      jump\t// out\n        /* \"#utility.yul\":7:82   */\n    tag_119:\n        /* \"#utility.yul\":40:46   */\n      0x00\n        /* \"#utility.yul\":73:75   */\n      0x40\n        /* \"#utility.yul\":67:76   */\n      mload\n        /* \"#utility.yul\":57:76   */\n      swap1\n      pop\n        /* \"#utility.yul\":7:82   */\n      swap1\n      jump\t// out\n        /* \"#utility.yul\":88:205   */\n    tag_120:\n        /* \"#utility.yul\":197:198   */\n      0x00\n        /* \"#utility.yul\":194:195   */\n      0x00\n        /* \"#utility.yul\":187:199   */\n      revert\n        /* \"#utility.yul\":211:328   */\n    tag_121:\n        /* \"#utility.yul\":320:321   */\n      0x00\n        /* \"#utility.yul\":317:318   */\n      0x00\n        /* \"#utility.yul\":310:322   */\n      revert\n        /* \"#utility.yul\":334:411   */\n    tag_122:\n        /* \"#utility.yul\":371:378   */\n      0x00\n        /* \"#utility.yul\":400:405   */\n      dup2\n        /* \"#utility.yul\":389:405   */\n      swap1\n      pop\n        /* \"#utility.yul\":334:411   */\n      swap2\n      swap1\n      pop\n      jump\t// out\n        /* \"#utility.yul\":417:539   */\n    tag_123:\n        /* \"#utility.yul\":490:514   */\n      tag_182\n        /* \"#utility.yul\":508:513   */\n      dup2\n        /* \"#utility.yul\":490:514   */\n      tag_122\n      jump\t// in\n    tag_182:\n        /* \"#utility.yul\":483:488   */\n      dup2\n        /* \"#utility.yul\":480:515   */\n      eq\n        /* \"#utility.yul\":470:533   */\n      tag_183\n      jumpi\n        /* \"#utility.yul\":529:530   */\n      0x00\n        /* \"#utility.yul\":526:527   */\n      0x00\n        /* \"#utility.yul\":519:531   */\n      revert\n        /* \"#utility.yul\":470:533   */\n    tag_183:\n        /* \"#utility.yul\":417:539   */\n      pop\n      jump\t// out\n        /* \"#utility.yul\":545:684   */\n    tag_124:\n        /* \"#utility.yul\":591:596   */\n      0x00\n        /* \"#utility.yul\":629:635   */\n      dup2\n        /* \"#utility.yul\":616:636   */\n      calldataload\n        /* \"#utility.yul\":607:636   */\n      swap1\n      pop\n        /* \"#utility.yul\":645:678   */\n      tag_185\n        /* \"#utility.yul\":672:677   */\n      dup2\n        /* \"#utility.yul\":645:678   */\n      tag_123\n      jump\t// in\n    tag_185:\n        /* \"#utility.yul\":545:684   */\n      swap3\n      swap2\n      pop\n      pop\n      jump\t// out\n        /* \"#utility.yul\":690:1019   */\n    tag_17:\n        /* \"#utility.yul\":749:755   */\n      0x00\n        /* \"#utility.yul\":798:800   */\n      0x20\n        /* \"#utility.yul\":786:795   */\n      dup3\n        /* \"#utility.yul\":777:784   */\n      dup5\n        /* \"#utility.yul\":773:796   */\n      sub\n        /* \"#utility.yul\":769:801   */\n      slt\n        /* \"#utility.yul\":766:885   */\n      iszero\n      tag_187\n      jumpi\n        /* \"#utility.yul\":804:883   */\n      tag_188\n      tag_120\n      jump\t// in\n    tag_188:\n        /* \"#utility.yul\":766:885   */\n    tag_187:\n        /* \"#utility.yul\":924:925   */\n      0x00\n        /* \"#utility.yul\":949:1002   */\n      tag_189\n        /* \"#utility.yul\":994:1001   */\n      dup5\n        /* \"#utility.yul\":985:991   */\n      dup3\n        /* \"#utility.yul\":974:983   */\n      dup6\n        /* \"#utility.yul\":970:992   */\n      add\n        /* \"#utility.yul\":949:1002   */\n      tag_124\n      jump\t// in\n    tag_189:\n        /* \"#utility.yul\":939:1002   */\n      swap2\n      pop\n        /* \"#utility.yul\":895:1012   */\n      pop\n        /* \"#utility.yul\":690:1019   */\n      swap3\n      swap2\n      pop\n      pop\n      jump\t// out\n        /* \"#utility.yul\":1025:1151   */\n    tag_125:\n        /* \"#utility.yul\":1062:1069   */\n      0x00\n        /* \"#utility.yul\":1102:1144   */\n      0xffffffffffffffffffffffffffffffffffffffff\n        /* \"#utility.yul\":1095:1100   */\n      dup3\n        /* \"#utility.yul\":1091:1145   */\n      and\n        /* \"#utility.yul\":1080:1145   */\n      swap1\n      pop\n        /* \"#utility.yul\":1025:1151   */\n      swap2\n      swap1\n      pop\n      jump\t// out\n        /* \"#utility.yul\":1157:1253   */\n    tag_126:\n        /* \"#utility.yul\":1194:1201   */\n      0x00\n        /* \"#utility.yul\":1223:1247   */\n      tag_192\n        /* \"#utility.yul\":1241:1246   */\n      dup3\n        /* \"#utility.yul\":1223:1247   */\n      tag_125\n      jump\t// in\n    tag_192:\n        /* \"#utility.yul\":1212:1247   */\n      swap1\n      pop\n        /* \"#utility.yul\":1157:1253   */\n      swap2\n      swap1\n      pop\n      jump\t// out\n        /* \"#utility.yul\":1259:1377   */\n    tag_127:\n        /* \"#utility.yul\":1346:1370   */\n      tag_194\n        /* \"#utility.yul\":1364:1369   */\n      dup2\n        /* \"#utility.yul\":1346:1370   */\n      tag_126\n      jump\t// in\n    tag_194:\n        /* \"#utility.yul\":1341:1344   */\n      dup3\n        /* \"#utility.yul\":1334:1371   */\n      mstore\n        /* \"#utility.yul\":1259:1377   */\n      pop\n      pop\n      jump\t// out\n        /* \"#utility.yul\":1383:1605   */\n    tag_20:\n        /* \"#utility.yul\":1476:1480   */\n      0x00\n        /* \"#utility.yul\":1514:1516   */\n      0x20\n        /* \"#utility.yul\":1503:1512   */\n      dup3\n        /* \"#utility.yul\":1499:1517   */\n      add\n        /* \"#utility.yul\":1491:1517   */\n      swap1\n      pop\n        /* \"#utility.yul\":1527:1598   */\n      tag_196\n        /* \"#utility.yul\":1595:1596   */\n      0x00\n        /* \"#utility.yul\":1584:1593   */\n      dup4\n        /* \"#utility.yul\":1580:1597   */\n      add\n        /* \"#utility.yul\":1571:1577   */\n      dup5\n        /* \"#utility.yul\":1527:1598   */\n      tag_127\n      jump\t// in\n    tag_196:\n        /* \"#utility.yul\":1383:1605   */\n      swap3\n      swap2\n      pop\n      pop\n      jump\t// out\n        /* \"#utility.yul\":1611:1710   */\n    tag_128:\n        /* \"#utility.yul\":1663:1669   */\n      0x00\n        /* \"#utility.yul\":1697:1702   */\n      dup2\n        /* \"#utility.yul\":1691:1703   */\n      mload\n        /* \"#utility.yul\":1681:1703   */\n      swap1\n      pop\n        /* \"#utility.yul\":1611:1710   */\n      swap2\n      swap1\n      pop\n      jump\t// out\n        /* \"#utility.yul\":1716:1885   */\n    tag_129:\n        /* \"#utility.yul\":1800:1811   */\n      0x00\n        /* \"#utility.yul\":1834:1840   */\n      dup3\n        /* \"#utility.yul\":1829:1832   */\n      dup3\n        /* \"#utility.yul\":1822:1841   */\n      mstore\n        /* \"#utility.yul\":1874:1878   */\n      0x20\n        /* \"#utility.yul\":1869:1872   */\n      dup3\n        /* \"#utility.yul\":1865:1879   */\n      add\n        /* \"#utility.yul\":1850:1879   */\n      swap1\n      pop\n        /* \"#utility.yul\":1716:1885   */\n      swap3\n      swap2\n      pop\n      pop\n      jump\t// out\n        /* \"#utility.yul\":1891:2030   */\n    tag_130:\n        /* \"#utility.yul\":1980:1986   */\n      dup3\n        /* \"#utility.yul\":1975:1978   */\n      dup2\n        /* \"#utility.yul\":1970:1973   */\n      dup4\n        /* \"#utility.yul\":1964:1987   */\n      mcopy\n        /* \"#utility.yul\":2021:2022   */\n      0x00\n        /* \"#utility.yul\":2012:2018   */\n      dup4\n        /* \"#utility.yul\":2007:2010   */\n      dup4\n        /* \"#utility.yul\":2003:2019   */\n      add\n        /* \"#utility.yul\":1996:2023   */\n      mstore\n        /* \"#utility.yul\":1891:2030   */\n      pop\n      pop\n      pop\n      jump\t// out\n        /* \"#utility.yul\":2036:2138   */\n    tag_131:\n        /* \"#utility.yul\":2077:2083   */\n      0x00\n        /* \"#utility.yul\":2128:2130   */\n      0x1f\n        /* \"#utility.yul\":2124:2131   */\n      not\n        /* \"#utility.yul\":2119:2121   */\n      0x1f\n        /* \"#utility.yul\":2112:2117   */\n      dup4\n        /* \"#utility.yul\":2108:2122   */\n      add\n        /* \"#utility.yul\":2104:2132   */\n      and\n        /* \"#utility.yul\":2094:2132   */\n      swap1\n      pop\n        /* \"#utility.yul\":2036:2138   */\n      swap2\n      swap1\n      pop\n      jump\t// out\n        /* \"#utility.yul\":2144:2521   */\n    tag_132:\n        /* \"#utility.yul\":2232:2235   */\n      0x00\n        /* \"#utility.yul\":2260:2299   */\n      tag_202\n        /* \"#utility.yul\":2293:2298   */\n      dup3\n        /* \"#utility.yul\":2260:2299   */\n      tag_128\n      jump\t// in\n    tag_202:\n        /* \"#utility.yul\":2315:2386   */\n      tag_203\n        /* \"#utility.yul\":2379:2385   */\n      dup2\n        /* \"#utility.yul\":2374:2377   */\n      dup6\n        /* \"#utility.yul\":2315:2386   */\n      tag_129\n      jump\t// in\n    tag_203:\n        /* \"#utility.yul\":2308:2386   */\n      swap4\n      pop\n        /* \"#utility.yul\":2395:2460   */\n      tag_204\n        /* \"#utility.yul\":2453:2459   */\n      dup2\n        /* \"#utility.yul\":2448:2451   */\n      dup6\n        /* \"#utility.yul\":2441:2445   */\n      0x20\n        /* \"#utility.yul\":2434:2439   */\n      dup7\n        /* \"#utility.yul\":2430:2446   */\n      add\n        /* \"#utility.yul\":2395:2460   */\n      tag_130\n      jump\t// in\n    tag_204:\n        /* \"#utility.yul\":2485:2514   */\n      tag_205\n        /* \"#utility.yul\":2507:2513   */\n      dup2\n        /* \"#utility.yul\":2485:2514   */\n      tag_131\n      jump\t// in\n    tag_205:\n        /* \"#utility.yul\":2480:2483   */\n      dup5\n        /* \"#utility.yul\":2476:2515   */\n      add\n        /* \"#utility.yul\":2469:2515   */\n      swap2\n      pop\n        /* \"#utility.yul\":2236:2521   */\n      pop\n        /* \"#utility.yul\":2144:2521   */\n      swap3\n      swap2\n      pop\n      pop\n      jump\t// out\n        /* \"#utility.yul\":2527:2620   */\n    tag_133:\n        /* \"#utility.yul\":2563:2570   */\n      0x00\n        /* \"#utility.yul\":2603:2613   */\n      0xffffffff\n        /* \"#utility.yul\":2596:2601   */\n      dup3\n        /* \"#utility.yul\":2592:2614   */\n      and\n        /* \"#utility.yul\":2581:2614   */\n      swap1\n      pop\n        /* \"#utility.yul\":2527:2620   */\n      swap2\n      swap1\n      pop\n      jump\t// out\n        /* \"#utility.yul\":2626:2741   */\n    tag_134:\n        /* \"#utility.yul\":2711:2734   */\n      tag_208\n        /* \"#utility.yul\":2728:2733   */\n      dup2\n        /* \"#utility.yul\":2711:2734   */\n      tag_133\n      jump\t// in\n    tag_208:\n        /* \"#utility.yul\":2706:2709   */\n      dup3\n        /* \"#utility.yul\":2699:2735   */\n      mstore\n        /* \"#utility.yul\":2626:2741   */\n      pop\n      pop\n      jump\t// out\n        /* \"#utility.yul\":2747:2836   */\n    tag_135:\n        /* \"#utility.yul\":2783:2790   */\n      0x00\n        /* \"#utility.yul\":2823:2829   */\n      0xffff\n        /* \"#utility.yul\":2816:2821   */\n      dup3\n        /* \"#utility.yul\":2812:2830   */\n      and\n        /* \"#utility.yul\":2801:2830   */\n      swap1\n      pop\n        /* \"#utility.yul\":2747:2836   */\n      swap2\n      swap1\n      pop\n      jump\t// out\n        /* \"#utility.yul\":2842:2957   */\n    tag_136:\n        /* \"#utility.yul\":2927:2950   */\n      tag_211\n        /* \"#utility.yul\":2944:2949   */\n      dup2\n        /* \"#utility.yul\":2927:2950   */\n      tag_135\n      jump\t// in\n    tag_211:\n        /* \"#utility.yul\":2922:2925   */\n      dup3\n        /* \"#utility.yul\":2915:2951   */\n      mstore\n        /* \"#utility.yul\":2842:2957   */\n      pop\n      pop\n      jump\t// out\n        /* \"#utility.yul\":2963:3049   */\n    tag_137:\n        /* \"#utility.yul\":2998:3005   */\n      0x00\n        /* \"#utility.yul\":3038:3042   */\n      0xff\n        /* \"#utility.yul\":3031:3036   */\n      dup3\n        /* \"#utility.yul\":3027:3043   */\n      and\n        /* \"#utility.yul\":3016:3043   */\n      swap1\n      pop\n        /* \"#utility.yul\":2963:3049   */\n      swap2\n      swap1\n      pop\n      jump\t// out\n        /* \"#utility.yul\":3055:3167   */\n    tag_138:\n        /* \"#utility.yul\":3138:3160   */\n      tag_214\n        /* \"#utility.yul\":3154:3159   */\n      dup2\n        /* \"#utility.yul\":3138:3160   */\n      tag_137\n      jump\t// in\n    tag_214:\n        /* \"#utility.yul\":3133:3136   */\n      dup3\n        /* \"#utility.yul\":3126:3161   */\n      mstore\n        /* \"#utility.yul\":3055:3167   */\n      pop\n      pop\n      jump\t// out\n        /* \"#utility.yul\":3173:4015   */\n    tag_25:\n        /* \"#utility.yul\":3414:3418   */\n      0x00\n        /* \"#utility.yul\":3452:3455   */\n      0xc0\n        /* \"#utility.yul\":3441:3450   */\n      dup3\n        /* \"#utility.yul\":3437:3456   */\n      add\n        /* \"#utility.yul\":3429:3456   */\n      swap1\n      pop\n        /* \"#utility.yul\":3502:3511   */\n      dup2\n        /* \"#utility.yul\":3496:3500   */\n      dup2\n        /* \"#utility.yul\":3492:3512   */\n      sub\n        /* \"#utility.yul\":3488:3489   */\n      0x00\n        /* \"#utility.yul\":3477:3486   */\n      dup4\n        /* \"#utility.yul\":3473:3490   */\n      add\n        /* \"#utility.yul\":3466:3513   */\n      mstore\n        /* \"#utility.yul\":3530:3608   */\n      tag_216\n        /* \"#utility.yul\":3603:3607   */\n      dup2\n        /* \"#utility.yul\":3594:3600   */\n      dup10\n        /* \"#utility.yul\":3530:3608   */\n      tag_132\n      jump\t// in\n    tag_216:\n        /* \"#utility.yul\":3522:3608   */\n      swap1\n      pop\n        /* \"#utility.yul\":3618:3688   */\n      tag_217\n        /* \"#utility.yul\":3684:3686   */\n      0x20\n        /* \"#utility.yul\":3673:3682   */\n      dup4\n        /* \"#utility.yul\":3669:3687   */\n      add\n        /* \"#utility.yul\":3660:3666   */\n      dup9\n        /* \"#utility.yul\":3618:3688   */\n      tag_134\n      jump\t// in\n    tag_217:\n        /* \"#utility.yul\":3698:3768   */\n      tag_218\n        /* \"#utility.yul\":3764:3766   */\n      0x40\n        /* \"#utility.yul\":3753:3762   */\n      dup4\n        /* \"#utility.yul\":3749:3767   */\n      add\n        /* \"#utility.yul\":3740:3746   */\n      dup8\n        /* \"#utility.yul\":3698:3768   */\n      tag_134\n      jump\t// in\n    tag_218:\n        /* \"#utility.yul\":3778:3848   */\n      tag_219\n        /* \"#utility.yul\":3844:3846   */\n      0x60\n        /* \"#utility.yul\":3833:3842   */\n      dup4\n        /* \"#utility.yul\":3829:3847   */\n      add\n        /* \"#utility.yul\":3820:3826   */\n      dup7\n        /* \"#utility.yul\":3778:3848   */\n      tag_134\n      jump\t// in\n    tag_219:\n        /* \"#utility.yul\":3858:3929   */\n      tag_220\n        /* \"#utility.yul\":3924:3927   */\n      0x80\n        /* \"#utility.yul\":3913:3922   */\n      dup4\n        /* \"#utility.yul\":3909:3928   */\n      add\n        /* \"#utility.yul\":3900:3906   */\n      dup6\n        /* \"#utility.yul\":3858:3929   */\n      tag_136\n      jump\t// in\n    tag_220:\n        /* \"#utility.yul\":3939:4008   */\n      tag_221\n        /* \"#utility.yul\":4003:4006   */\n      0xa0\n        /* \"#utility.yul\":3992:4001   */\n      dup4\n        /* \"#utility.yul\":3988:4007   */\n      add\n        /* \"#utility.yul\":3979:3985   */\n      dup5\n        /* \"#utility.yul\":3939:4008   */\n      tag_138\n      jump\t// in\n    tag_221:\n        /* \"#utility.yul\":3173:4015   */\n      swap8\n      swap7\n      pop\n      pop\n      pop\n      pop\n      pop\n      pop\n      pop\n      jump\t// out\n        /* \"#utility.yul\":4021:4138   */\n    tag_139:\n        /* \"#utility.yul\":4130:4131   */\n      0x00\n        /* \"#utility.yul\":4127:4128   */\n      0x00\n        /* \"#utility.yul\":4120:4132   */\n      revert\n        /* \"#utility.yul\":4144:4261   */\n    tag_140:\n        /* \"#utility.yul\":4253:4254   */\n      0x00\n        /* \"#utility.yul\":4250:4251   */\n      0x00\n        /* \"#utility.yul\":4243:4255   */\n      revert\n        /* \"#utility.yul\":4267:4447   */\n    tag_141:\n        /* \"#utility.yul\":4315:4392   */\n      0x4e487b7100000000000000000000000000000000000000000000000000000000\n        /* \"#utility.yul\":4312:4313   */\n      0x00\n        /* \"#utility.yul\":4305:4393   */\n      mstore\n        /* \"#utility.yul\":4412:4416   */\n      0x41\n        /* \"#utility.yul\":4409:4410   */\n      0x04\n        /* \"#utility.yul\":4402:4417   */\n      mstore\n        /* \"#utility.yul\":4436:4440   */\n      0x24\n        /* \"#utility.yul\":4433:4434   */\n      0x00\n        /* \"#utility.yul\":4426:4441   */\n      revert\n        /* \"#utility.yul\":4453:4734   */\n    tag_142:\n        /* \"#utility.yul\":4536:4563   */\n      tag_226\n        /* \"#utility.yul\":4558:4562   */\n      dup3\n        /* \"#utility.yul\":4536:4563   */\n      tag_131\n      jump\t// in\n    tag_226:\n        /* \"#utility.yul\":4528:4534   */\n      dup2\n        /* \"#utility.yul\":4524:4564   */\n      add\n        /* \"#utility.yul\":4666:4672   */\n      dup2\n        /* \"#utility.yul\":4654:4664   */\n      dup2\n        /* \"#utility.yul\":4651:4673   */\n      lt\n        /* \"#utility.yul\":4630:4648   */\n      0xffffffffffffffff\n        /* \"#utility.yul\":4618:4628   */\n      dup3\n        /* \"#utility.yul\":4615:4649   */\n      gt\n        /* \"#utility.yul\":4612:4674   */\n      or\n        /* \"#utility.yul\":4609:4697   */\n      iszero\n      tag_227\n      jumpi\n        /* \"#utility.yul\":4677:4695   */\n      tag_228\n      tag_141\n      jump\t// in\n    tag_228:\n        /* \"#utility.yul\":4609:4697   */\n    tag_227:\n        /* \"#utility.yul\":4717:4727   */\n      dup1\n        /* \"#utility.yul\":4713:4715   */\n      0x40\n        /* \"#utility.yul\":4706:4728   */\n      mstore\n        /* \"#utility.yul\":4496:4734   */\n      pop\n        /* \"#utility.yul\":4453:4734   */\n      pop\n      pop\n      jump\t// out\n        /* \"#utility.yul\":4740:4869   */\n    tag_143:\n        /* \"#utility.yul\":4774:4780   */\n      0x00\n        /* \"#utility.yul\":4801:4821   */\n      tag_230\n      tag_119\n      jump\t// in\n    tag_230:\n        /* \"#utility.yul\":4791:4821   */\n      swap1\n      pop\n        /* \"#utility.yul\":4830:4863   */\n      tag_231\n        /* \"#utility.yul\":4858:4862   */\n      dup3\n        /* \"#utility.yul\":4850:4856   */\n      dup3\n        /* \"#utility.yul\":4830:4863   */\n      tag_142\n      jump\t// in\n    tag_231:\n        /* \"#utility.yul\":4740:4869   */\n      swap2\n      swap1\n      pop\n      jump\t// out\n        /* \"#utility.yul\":4875:5183   */\n    tag_144:\n        /* \"#utility.yul\":4937:4941   */\n      0x00\n        /* \"#utility.yul\":5027:5045   */\n      0xffffffffffffffff\n        /* \"#utility.yul\":5019:5025   */\n      dup3\n        /* \"#utility.yul\":5016:5046   */\n      gt\n        /* \"#utility.yul\":5013:5069   */\n      iszero\n      tag_233\n      jumpi\n        /* \"#utility.yul\":5049:5067   */\n      tag_234\n      tag_141\n      jump\t// in\n    tag_234:\n        /* \"#utility.yul\":5013:5069   */\n    tag_233:\n        /* \"#utility.yul\":5087:5116   */\n      tag_235\n        /* \"#utility.yul\":5109:5115   */\n      dup3\n        /* \"#utility.yul\":5087:5116   */\n      tag_131\n      jump\t// in\n    tag_235:\n        /* \"#utility.yul\":5079:5116   */\n      swap1\n      pop\n        /* \"#utility.yul\":5171:5175   */\n      0x20\n        /* \"#utility.yul\":5165:5169   */\n      dup2\n        /* \"#utility.yul\":5161:5176   */\n      add\n        /* \"#utility.yul\":5153:5176   */\n      swap1\n      pop\n        /* \"#utility.yul\":4875:5183   */\n      swap2\n      swap1\n      pop\n      jump\t// out\n        /* \"#utility.yul\":5189:5337   */\n    tag_145:\n        /* \"#utility.yul\":5287:5293   */\n      dup3\n        /* \"#utility.yul\":5282:5285   */\n      dup2\n        /* \"#utility.yul\":5277:5280   */\n      dup4\n        /* \"#utility.yul\":5264:5294   */\n      calldatacopy\n        /* \"#utility.yul\":5328:5329   */\n      0x00\n        /* \"#utility.yul\":5319:5325   */\n      dup4\n        /* \"#utility.yul\":5314:5317   */\n      dup4\n        /* \"#utility.yul\":5310:5326   */\n      add\n        /* \"#utility.yul\":5303:5330   */\n      mstore\n        /* \"#utility.yul\":5189:5337   */\n      pop\n      pop\n      pop\n      jump\t// out\n        /* \"#utility.yul\":5343:5768   */\n    tag_146:\n        /* \"#utility.yul\":5421:5426   */\n      0x00\n        /* \"#utility.yul\":5446:5512   */\n      tag_238\n        /* \"#utility.yul\":5462:5511   */\n      tag_239\n        /* \"#utility.yul\":5504:5510   */\n      dup5\n        /* \"#utility.yul\":5462:5511   */\n      tag_144\n      jump\t// in\n    tag_239:\n        /* \"#utility.yul\":5446:5512   */\n      tag_143\n      jump\t// in\n    tag_238:\n        /* \"#utility.yul\":5437:5512   */\n      swap1\n      pop\n        /* \"#utility.yul\":5535:5541   */\n      dup3\n        /* \"#utility.yul\":5528:5533   */\n      dup2\n        /* \"#utility.yul\":5521:5542   */\n      mstore\n        /* \"#utility.yul\":5573:5577   */\n      0x20\n        /* \"#utility.yul\":5566:5571   */\n      dup2\n        /* \"#utility.yul\":5562:5578   */\n      add\n        /* \"#utility.yul\":5611:5614   */\n      dup5\n        /* \"#utility.yul\":5602:5608   */\n      dup5\n        /* \"#utility.yul\":5597:5600   */\n      dup5\n        /* \"#utility.yul\":5593:5609   */\n      add\n        /* \"#utility.yul\":5590:5615   */\n      gt\n        /* \"#utility.yul\":5587:5699   */\n      iszero\n      tag_240\n      jumpi\n        /* \"#utility.yul\":5618:5697   */\n      tag_241\n      tag_140\n      jump\t// in\n    tag_241:\n        /* \"#utility.yul\":5587:5699   */\n    tag_240:\n        /* \"#utility.yul\":5708:5762   */\n      tag_242\n        /* \"#utility.yul\":5755:5761   */\n      dup5\n        /* \"#utility.yul\":5750:5753   */\n      dup3\n        /* \"#utility.yul\":5745:5748   */\n      dup6\n        /* \"#utility.yul\":5708:5762   */\n      tag_145\n      jump\t// in\n    tag_242:\n        /* \"#utility.yul\":5427:5768   */\n      pop\n        /* \"#utility.yul\":5343:5768   */\n      swap4\n      swap3\n      pop\n      pop\n      pop\n      jump\t// out\n        /* \"#utility.yul\":5788:6128   */\n    tag_147:\n        /* \"#utility.yul\":5844:5849   */\n      0x00\n        /* \"#utility.yul\":5893:5896   */\n      dup3\n        /* \"#utility.yul\":5886:5890   */\n      0x1f\n        /* \"#utility.yul\":5878:5884   */\n      dup4\n        /* \"#utility.yul\":5874:5891   */\n      add\n        /* \"#utility.yul\":5870:5897   */\n      slt\n        /* \"#utility.yul\":5860:5982   */\n      tag_244\n      jumpi\n        /* \"#utility.yul\":5901:5980   */\n      tag_245\n      tag_139\n      jump\t// in\n    tag_245:\n        /* \"#utility.yul\":5860:5982   */\n    tag_244:\n        /* \"#utility.yul\":6018:6024   */\n      dup2\n        /* \"#utility.yul\":6005:6025   */\n      calldataload\n        /* \"#utility.yul\":6043:6122   */\n      tag_246\n        /* \"#utility.yul\":6118:6121   */\n      dup5\n        /* \"#utility.yul\":6110:6116   */\n      dup3\n        /* \"#utility.yul\":6103:6107   */\n      0x20\n        /* \"#utility.yul\":6095:6101   */\n      dup7\n        /* \"#utility.yul\":6091:6108   */\n      add\n        /* \"#utility.yul\":6043:6122   */\n      tag_146\n      jump\t// in\n    tag_246:\n        /* \"#utility.yul\":6034:6122   */\n      swap2\n      pop\n        /* \"#utility.yul\":5850:6128   */\n      pop\n        /* \"#utility.yul\":5788:6128   */\n      swap3\n      swap2\n      pop\n      pop\n      jump\t// out\n        /* \"#utility.yul\":6134:6643   */\n    tag_32:\n        /* \"#utility.yul\":6203:6209   */\n      0x00\n        /* \"#utility.yul\":6252:6254   */\n      0x20\n        /* \"#utility.yul\":6240:6249   */\n      dup3\n        /* \"#utility.yul\":6231:6238   */\n      dup5\n        /* \"#utility.yul\":6227:6250   */\n      sub\n        /* \"#utility.yul\":6223:6255   */\n      slt\n        /* \"#utility.yul\":6220:6339   */\n      iszero\n      tag_248\n      jumpi\n        /* \"#utility.yul\":6258:6337   */\n      tag_249\n      tag_120\n      jump\t// in\n    tag_249:\n        /* \"#utility.yul\":6220:6339   */\n    tag_248:\n        /* \"#utility.yul\":6406:6407   */\n      0x00\n        /* \"#utility.yul\":6395:6404   */\n      dup3\n        /* \"#utility.yul\":6391:6408   */\n      add\n        /* \"#utility.yul\":6378:6409   */\n      calldataload\n        /* \"#utility.yul\":6436:6454   */\n      0xffffffffffffffff\n        /* \"#utility.yul\":6428:6434   */\n      dup2\n        /* \"#utility.yul\":6425:6455   */\n      gt\n        /* \"#utility.yul\":6422:6539   */\n      iszero\n      tag_250\n      jumpi\n        /* \"#utility.yul\":6458:6537   */\n      tag_251\n      tag_121\n      jump\t// in\n    tag_251:\n        /* \"#utility.yul\":6422:6539   */\n    tag_250:\n        /* \"#utility.yul\":6563:6626   */\n      tag_252\n        /* \"#utility.yul\":6618:6625   */\n      dup5\n        /* \"#utility.yul\":6609:6615   */\n      dup3\n        /* \"#utility.yul\":6598:6607   */\n      dup6\n        /* \"#utility.yul\":6594:6616   */\n      add\n        /* \"#utility.yul\":6563:6626   */\n      tag_147\n      jump\t// in\n    tag_252:\n        /* \"#utility.yul\":6553:6626   */\n      swap2\n      pop\n        /* \"#utility.yul\":6349:6636   */\n      pop\n        /* \"#utility.yul\":6134:6643   */\n      swap3\n      swap2\n      pop\n      pop\n      jump\t// out\n        /* \"#utility.yul\":6649:6769   */\n    tag_148:\n        /* \"#utility.yul\":6721:6744   */\n      tag_254\n        /* \"#utility.yul\":6738:6743   */\n      dup2\n        /* \"#utility.yul\":6721:6744   */\n      tag_133\n      jump\t// in\n    tag_254:\n        /* \"#utility.yul\":6714:6719   */\n      dup2\n        /* \"#utility.yul\":6711:6745   */\n      eq\n        /* \"#utility.yul\":6701:6763   */\n      tag_255\n      jumpi\n        /* \"#utility.yul\":6759:6760   */\n      0x00\n        /* \"#utility.yul\":6756:6757   */\n      0x00\n        /* \"#utility.yul\":6749:6761   */\n      revert\n        /* \"#utility.yul\":6701:6763   */\n    tag_255:\n        /* \"#utility.yul\":6649:6769   */\n      pop\n      jump\t// out\n        /* \"#utility.yul\":6775:6912   */\n    tag_149:\n        /* \"#utility.yul\":6820:6825   */\n      0x00\n        /* \"#utility.yul\":6858:6864   */\n      dup2\n        /* \"#utility.yul\":6845:6865   */\n      calldataload\n        /* \"#utility.yul\":6836:6865   */\n      swap1\n      pop\n        /* \"#utility.yul\":6874:6906   */\n      tag_257\n        /* \"#utility.yul\":6900:6905   */\n      dup2\n        /* \"#utility.yul\":6874:6906   */\n      tag_148\n      jump\t// in\n    tag_257:\n        /* \"#utility.yul\":6775:6912   */\n      swap3\n      swap2\n      pop\n      pop\n      jump\t// out\n        /* \"#utility.yul\":6918:7038   */\n    tag_150:\n        /* \"#utility.yul\":6990:7013   */\n      tag_259\n        /* \"#utility.yul\":7007:7012   */\n      dup2\n        /* \"#utility.yul\":6990:7013   */\n      tag_135\n      jump\t// in\n    tag_259:\n        /* \"#utility.yul\":6983:6988   */\n      dup2\n        /* \"#utility.yul\":6980:7014   */\n      eq\n        /* \"#utility.yul\":6970:7032   */\n      tag_260\n      jumpi\n        /* \"#utility.yul\":7028:7029   */\n      0x00\n        /* \"#utility.yul\":7025:7026   */\n      0x00\n        /* \"#utility.yul\":7018:7030   */\n      revert\n        /* \"#utility.yul\":6970:7032   */\n    tag_260:\n        /* \"#utility.yul\":6918:7038   */\n      pop\n      jump\t// out\n        /* \"#utility.yul\":7044:7181   */\n    tag_151:\n        /* \"#utility.yul\":7089:7094   */\n      0x00\n        /* \"#utility.yul\":7127:7133   */\n      dup2\n        /* \"#utility.yul\":7114:7134   */\n      calldataload\n        /* \"#utility.yul\":7105:7134   */\n      swap1\n      pop\n        /* \"#utility.yul\":7143:7175   */\n      tag_262\n        /* \"#utility.yul\":7169:7174   */\n      dup2\n        /* \"#utility.yul\":7143:7175   */\n      tag_150\n      jump\t// in\n    tag_262:\n        /* \"#utility.yul\":7044:7181   */\n      swap3\n      swap2\n      pop\n      pop\n      jump\t// out\n        /* \"#utility.yul\":7187:7305   */\n    tag_152:\n        /* \"#utility.yul\":7258:7280   */\n      tag_264\n        /* \"#utility.yul\":7274:7279   */\n      dup2\n        /* \"#utility.yul\":7258:7280   */\n      tag_137\n      jump\t// in\n    tag_264:\n        /* \"#utility.yul\":7251:7256   */\n      dup2\n        /* \"#utility.yul\":7248:7281   */\n      eq\n        /* \"#utility.yul\":7238:7299   */\n      tag_265\n      jumpi\n        /* \"#utility.yul\":7295:7296   */\n      0x00\n        /* \"#utility.yul\":7292:7293   */\n      0x00\n        /* \"#utility.yul\":7285:7297   */\n      revert\n        /* \"#utility.yul\":7238:7299   */\n    tag_265:\n        /* \"#utility.yul\":7187:7305   */\n      pop\n      jump\t// out\n        /* \"#utility.yul\":7311:7446   */\n    tag_153:\n        /* \"#utility.yul\":7355:7360   */\n      0x00\n        /* \"#utility.yul\":7393:7399   */\n      dup2\n        /* \"#utility.yul\":7380:7400   */\n      calldataload\n        /* \"#utility.yul\":7371:7400   */\n      swap1\n      pop\n        /* \"#utility.yul\":7409:7440   */\n      tag_267\n        /* \"#utility.yul\":7434:7439   */\n      dup2\n        /* \"#utility.yul\":7409:7440   */\n      tag_152\n      jump\t// in\n    tag_267:\n        /* \"#utility.yul\":7311:7446   */\n      swap3\n      swap2\n      pop\n      pop\n      jump\t// out\n        /* \"#utility.yul\":7452:8677   */\n    tag_41:\n        /* \"#utility.yul\":7560:7566   */\n      0x00\n        /* \"#utility.yul\":7568:7574   */\n      0x00\n        /* \"#utility.yul\":7576:7582   */\n      0x00\n        /* \"#utility.yul\":7584:7590   */\n      0x00\n        /* \"#utility.yul\":7592:7598   */\n      0x00\n        /* \"#utility.yul\":7600:7606   */\n      0x00\n        /* \"#utility.yul\":7649:7652   */\n      0xc0\n        /* \"#utility.yul\":7637:7646   */\n      dup8\n        /* \"#utility.yul\":7628:7635   */\n      dup10\n        /* \"#utility.yul\":7624:7647   */\n      sub\n        /* \"#utility.yul\":7620:7653   */\n      slt\n        /* \"#utility.yul\":7617:7737   */\n      iszero\n      tag_269\n      jumpi\n        /* \"#utility.yul\":7656:7735   */\n      tag_270\n      tag_120\n      jump\t// in\n    tag_270:\n        /* \"#utility.yul\":7617:7737   */\n    tag_269:\n        /* \"#utility.yul\":7804:7805   */\n      0x00\n        /* \"#utility.yul\":7793:7802   */\n      dup8\n        /* \"#utility.yul\":7789:7806   */\n      add\n        /* \"#utility.yul\":7776:7807   */\n      calldataload\n        /* \"#utility.yul\":7834:7852   */\n      0xffffffffffffffff\n        /* \"#utility.yul\":7826:7832   */\n      dup2\n        /* \"#utility.yul\":7823:7853   */\n      gt\n        /* \"#utility.yul\":7820:7937   */\n      iszero\n      tag_271\n      jumpi\n        /* \"#utility.yul\":7856:7935   */\n      tag_272\n      tag_121\n      jump\t// in\n    tag_272:\n        /* \"#utility.yul\":7820:7937   */\n    tag_271:\n        /* \"#utility.yul\":7961:8024   */\n      tag_273\n        /* \"#utility.yul\":8016:8023   */\n      dup10\n        /* \"#utility.yul\":8007:8013   */\n      dup3\n        /* \"#utility.yul\":7996:8005   */\n      dup11\n        /* \"#utility.yul\":7992:8014   */\n      add\n        /* \"#utility.yul\":7961:8024   */\n      tag_147\n      jump\t// in\n    tag_273:\n        /* \"#utility.yul\":7951:8024   */\n      swap7\n      pop\n        /* \"#utility.yul\":7747:8034   */\n      pop\n        /* \"#utility.yul\":8073:8075   */\n      0x20\n        /* \"#utility.yul\":8099:8151   */\n      tag_274\n        /* \"#utility.yul\":8143:8150   */\n      dup10\n        /* \"#utility.yul\":8134:8140   */\n      dup3\n        /* \"#utility.yul\":8123:8132   */\n      dup11\n        /* \"#utility.yul\":8119:8141   */\n      add\n        /* \"#utility.yul\":8099:8151   */\n      tag_149\n      jump\t// in\n    tag_274:\n        /* \"#utility.yul\":8089:8151   */\n      swap6\n      pop\n        /* \"#utility.yul\":8044:8161   */\n      pop\n        /* \"#utility.yul\":8200:8202   */\n      0x40\n        /* \"#utility.yul\":8226:8278   */\n      tag_275\n        /* \"#utility.yul\":8270:8277   */\n      dup10\n        /* \"#utility.yul\":8261:8267   */\n      dup3\n        /* \"#utility.yul\":8250:8259   */\n      dup11\n        /* \"#utility.yul\":8246:8268   */\n      add\n        /* \"#utility.yul\":8226:8278   */\n      tag_149\n      jump\t// in\n    tag_275:\n        /* \"#utility.yul\":8216:8278   */\n      swap5\n      pop\n        /* \"#utility.yul\":8171:8288   */\n      pop\n        /* \"#utility.yul\":8327:8329   */\n      0x60\n        /* \"#utility.yul\":8353:8405   */\n      tag_276\n        /* \"#utility.yul\":8397:8404   */\n      dup10\n        /* \"#utility.yul\":8388:8394   */\n      dup3\n        /* \"#utility.yul\":8377:8386   */\n      dup11\n        /* \"#utility.yul\":8373:8395   */\n      add\n        /* \"#utility.yul\":8353:8405   */\n      tag_149\n      jump\t// in\n    tag_276:\n        /* \"#utility.yul\":8343:8405   */\n      swap4\n      pop\n        /* \"#utility.yul\":8298:8415   */\n      pop\n        /* \"#utility.yul\":8454:8457   */\n      0x80\n        /* \"#utility.yul\":8481:8533   */\n      tag_277\n        /* \"#utility.yul\":8525:8532   */\n      dup10\n        /* \"#utility.yul\":8516:8522   */\n      dup3\n        /* \"#utility.yul\":8505:8514   */\n      dup11\n        /* \"#utility.yul\":8501:8523   */\n      add\n        /* \"#utility.yul\":8481:8533   */\n      tag_151\n      jump\t// in\n    tag_277:\n        /* \"#utility.yul\":8471:8533   */\n      swap3\n      pop\n        /* \"#utility.yul\":8425:8543   */\n      pop\n        /* \"#utility.yul\":8582:8585   */\n      0xa0\n        /* \"#utility.yul\":8609:8660   */\n      tag_278\n        /* \"#utility.yul\":8652:8659   */\n      dup10\n        /* \"#utility.yul\":8643:8649   */\n      dup3\n        /* \"#utility.yul\":8632:8641   */\n      dup11\n        /* \"#utility.yul\":8628:8650   */\n      add\n        /* \"#utility.yul\":8609:8660   */\n      tag_153\n      jump\t// in\n    tag_278:\n        /* \"#utility.yul\":8599:8660   */\n      swap2\n      pop\n        /* \"#utility.yul\":8553:8670   */\n      pop\n        /* \"#utility.yul\":7452:8677   */\n      swap3\n      swap6\n      pop\n      swap3\n      swap6\n      pop\n      swap3\n      swap6\n      jump\t// out\n        /* \"#utility.yul\":8683:9315   */\n    tag_51:\n        /* \"#utility.yul\":8874:8878   */\n      0x00\n        /* \"#utility.yul\":8912:8915   */\n      0x80\n        /* \"#utility.yul\":8901:8910   */\n      dup3\n        /* \"#utility.yul\":8897:8916   */\n      add\n        /* \"#utility.yul\":8889:8916   */\n      swap1\n      pop\n        /* \"#utility.yul\":8962:8971   */\n      dup2\n        /* \"#utility.yul\":8956:8960   */\n      dup2\n        /* \"#utility.yul\":8952:8972   */\n      sub\n        /* \"#utility.yul\":8948:8949   */\n      0x00\n        /* \"#utility.yul\":8937:8946   */\n      dup4\n        /* \"#utility.yul\":8933:8950   */\n      add\n        /* \"#utility.yul\":8926:8973   */\n      mstore\n        /* \"#utility.yul\":8990:9068   */\n      tag_280\n        /* \"#utility.yul\":9063:9067   */\n      dup2\n        /* \"#utility.yul\":9054:9060   */\n      dup8\n        /* \"#utility.yul\":8990:9068   */\n      tag_132\n      jump\t// in\n    tag_280:\n        /* \"#utility.yul\":8982:9068   */\n      swap1\n      pop\n        /* \"#utility.yul\":9078:9148   */\n      tag_281\n        /* \"#utility.yul\":9144:9146   */\n      0x20\n        /* \"#utility.yul\":9133:9142   */\n      dup4\n        /* \"#utility.yul\":9129:9147   */\n      add\n        /* \"#utility.yul\":9120:9126   */\n      dup7\n        /* \"#utility.yul\":9078:9148   */\n      tag_136\n      jump\t// in\n    tag_281:\n        /* \"#utility.yul\":9158:9228   */\n      tag_282\n        /* \"#utility.yul\":9224:9226   */\n      0x40\n        /* \"#utility.yul\":9213:9222   */\n      dup4\n        /* \"#utility.yul\":9209:9227   */\n      add\n        /* \"#utility.yul\":9200:9206   */\n      dup6\n        /* \"#utility.yul\":9158:9228   */\n      tag_134\n      jump\t// in\n    tag_282:\n        /* \"#utility.yul\":9238:9308   */\n      tag_283\n        /* \"#utility.yul\":9304:9306   */\n      0x60\n        /* \"#utility.yul\":9293:9302   */\n      dup4\n        /* \"#utility.yul\":9289:9307   */\n      add\n        /* \"#utility.yul\":9280:9286   */\n      dup5\n        /* \"#utility.yul\":9238:9308   */\n      tag_136\n      jump\t// in\n    tag_283:\n        /* \"#utility.yul\":8683:9315   */\n      swap6\n      swap5\n      pop\n      pop\n      pop\n      pop\n      pop\n      jump\t// out\n        /* \"#utility.yul\":9321:9443   */\n    tag_154:\n        /* \"#utility.yul\":9394:9418   */\n      tag_285\n        /* \"#utility.yul\":9412:9417   */\n      dup2\n        /* \"#utility.yul\":9394:9418   */\n      tag_126\n      jump\t// in\n    tag_285:\n        /* \"#utility.yul\":9387:9392   */\n      dup2\n        /* \"#utility.yul\":9384:9419   */\n      eq\n        /* \"#utility.yul\":9374:9437   */\n      tag_286\n      jumpi\n        /* \"#utility.yul\":9433:9434   */\n      0x00\n        /* \"#utility.yul\":9430:9431   */\n      0x00\n        /* \"#utility.yul\":9423:9435   */\n      revert\n        /* \"#utility.yul\":9374:9437   */\n    tag_286:\n        /* \"#utility.yul\":9321:9443   */\n      pop\n      jump\t// out\n        /* \"#utility.yul\":9449:9588   */\n    tag_155:\n        /* \"#utility.yul\":9495:9500   */\n      0x00\n        /* \"#utility.yul\":9533:9539   */\n      dup2\n        /* \"#utility.yul\":9520:9540   */\n      calldataload\n        /* \"#utility.yul\":9511:9540   */\n      swap1\n      pop\n        /* \"#utility.yul\":9549:9582   */\n      tag_288\n        /* \"#utility.yul\":9576:9581   */\n      dup2\n        /* \"#utility.yul\":9549:9582   */\n      tag_154\n      jump\t// in\n    tag_288:\n        /* \"#utility.yul\":9449:9588   */\n      swap3\n      swap2\n      pop\n      pop\n      jump\t// out\n        /* \"#utility.yul\":9594:9923   */\n    tag_54:\n        /* \"#utility.yul\":9653:9659   */\n      0x00\n        /* \"#utility.yul\":9702:9704   */\n      0x20\n        /* \"#utility.yul\":9690:9699   */\n      dup3\n        /* \"#utility.yul\":9681:9688   */\n      dup5\n        /* \"#utility.yul\":9677:9700   */\n      sub\n        /* \"#utility.yul\":9673:9705   */\n      slt\n        /* \"#utility.yul\":9670:9789   */\n      iszero\n      tag_290\n      jumpi\n        /* \"#utility.yul\":9708:9787   */\n      tag_291\n      tag_120\n      jump\t// in\n    tag_291:\n        /* \"#utility.yul\":9670:9789   */\n    tag_290:\n        /* \"#utility.yul\":9828:9829   */\n      0x00\n        /* \"#utility.yul\":9853:9906   */\n      tag_292\n        /* \"#utility.yul\":9898:9905   */\n      dup5\n        /* \"#utility.yul\":9889:9895   */\n      dup3\n        /* \"#utility.yul\":9878:9887   */\n      dup6\n        /* \"#utility.yul\":9874:9896   */\n      add\n        /* \"#utility.yul\":9853:9906   */\n      tag_155\n      jump\t// in\n    tag_292:\n        /* \"#utility.yul\":9843:9906   */\n      swap2\n      pop\n        /* \"#utility.yul\":9799:9916   */\n      pop\n        /* \"#utility.yul\":9594:9923   */\n      swap3\n      swap2\n      pop\n      pop\n      jump\t// out\n        /* \"#utility.yul\":9929:10047   */\n    tag_156:\n        /* \"#utility.yul\":10016:10040   */\n      tag_294\n        /* \"#utility.yul\":10034:10039   */\n      dup2\n        /* \"#utility.yul\":10016:10040   */\n      tag_122\n      jump\t// in\n    tag_294:\n        /* \"#utility.yul\":10011:10014   */\n      dup3\n        /* \"#utility.yul\":10004:10041   */\n      mstore\n        /* \"#utility.yul\":9929:10047   */\n      pop\n      pop\n      jump\t// out\n        /* \"#utility.yul\":10053:10275   */\n    tag_57:\n        /* \"#utility.yul\":10146:10150   */\n      0x00\n        /* \"#utility.yul\":10184:10186   */\n      0x20\n        /* \"#utility.yul\":10173:10182   */\n      dup3\n        /* \"#utility.yul\":10169:10187   */\n      add\n        /* \"#utility.yul\":10161:10187   */\n      swap1\n      pop\n        /* \"#utility.yul\":10197:10268   */\n      tag_296\n        /* \"#utility.yul\":10265:10266   */\n      0x00\n        /* \"#utility.yul\":10254:10263   */\n      dup4\n        /* \"#utility.yul\":10250:10267   */\n      add\n        /* \"#utility.yul\":10241:10247   */\n      dup5\n        /* \"#utility.yul\":10197:10268   */\n      tag_156\n      jump\t// in\n    tag_296:\n        /* \"#utility.yul\":10053:10275   */\n      swap3\n      swap2\n      pop\n      pop\n      jump\t// out\n        /* \"#utility.yul\":10281:10461   */\n    tag_157:\n        /* \"#utility.yul\":10329:10406   */\n      0x4e487b7100000000000000000000000000000000000000000000000000000000\n        /* \"#utility.yul\":10326:10327   */\n      0x00\n        /* \"#utility.yul\":10319:10407   */\n      mstore\n        /* \"#utility.yul\":10426:10430   */\n      0x22\n        /* \"#utility.yul\":10423:10424   */\n      0x04\n        /* \"#utility.yul\":10416:10431   */\n      mstore\n        /* \"#utility.yul\":10450:10454   */\n      0x24\n        /* \"#utility.yul\":10447:10448   */\n      0x00\n        /* \"#utility.yul\":10440:10455   */\n      revert\n        /* \"#utility.yul\":10467:10787   */\n    tag_64:\n        /* \"#utility.yul\":10511:10517   */\n      0x00\n        /* \"#utility.yul\":10548:10549   */\n      0x02\n        /* \"#utility.yul\":10542:10546   */\n      dup3\n        /* \"#utility.yul\":10538:10550   */\n      div\n        /* \"#utility.yul\":10528:10550   */\n      swap1\n      pop\n        /* \"#utility.yul\":10595:10596   */\n      0x01\n        /* \"#utility.yul\":10589:10593   */\n      dup3\n        /* \"#utility.yul\":10585:10597   */\n      and\n        /* \"#utility.yul\":10616:10634   */\n      dup1\n        /* \"#utility.yul\":10606:10687   */\n      tag_299\n      jumpi\n        /* \"#utility.yul\":10672:10676   */\n      0x7f\n        /* \"#utility.yul\":10664:10670   */\n      dup3\n        /* \"#utility.yul\":10660:10677   */\n      and\n        /* \"#utility.yul\":10650:10677   */\n      swap2\n      pop\n        /* \"#utility.yul\":10606:10687   */\n    tag_299:\n        /* \"#utility.yul\":10734:10736   */\n      0x20\n        /* \"#utility.yul\":10726:10732   */\n      dup3\n        /* \"#utility.yul\":10723:10737   */\n      lt\n        /* \"#utility.yul\":10703:10721   */\n      dup2\n        /* \"#utility.yul\":10700:10738   */\n      sub\n        /* \"#utility.yul\":10697:10781   */\n      tag_300\n      jumpi\n        /* \"#utility.yul\":10753:10771   */\n      tag_301\n      tag_157\n      jump\t// in\n    tag_301:\n        /* \"#utility.yul\":10697:10781   */\n    tag_300:\n        /* \"#utility.yul\":10518:10787   */\n      pop\n        /* \"#utility.yul\":10467:10787   */\n      swap2\n      swap1\n      pop\n      jump\t// out\n        /* \"#utility.yul\":10793:10964   */\n    tag_158:\n        /* \"#utility.yul\":10933:10956   */\n      0x4a7564676520616c726561647920657873697374730000000000000000000000\n        /* \"#utility.yul\":10929:10930   */\n      0x00\n        /* \"#utility.yul\":10921:10927   */\n      dup3\n        /* \"#utility.yul\":10917:10931   */\n      add\n        /* \"#utility.yul\":10910:10957   */\n      mstore\n        /* \"#utility.yul\":10793:10964   */\n      pop\n      jump\t// out\n        /* \"#utility.yul\":10970:11336   */\n    tag_159:\n        /* \"#utility.yul\":11112:11115   */\n      0x00\n        /* \"#utility.yul\":11133:11200   */\n      tag_304\n        /* \"#utility.yul\":11197:11199   */\n      0x15\n        /* \"#utility.yul\":11192:11195   */\n      dup4\n        /* \"#utility.yul\":11133:11200   */\n      tag_129\n      jump\t// in\n    tag_304:\n        /* \"#utility.yul\":11126:11200   */\n      swap2\n      pop\n        /* \"#utility.yul\":11209:11302   */\n      tag_305\n        /* \"#utility.yul\":11298:11301   */\n      dup3\n        /* \"#utility.yul\":11209:11302   */\n      tag_158\n      jump\t// in\n    tag_305:\n        /* \"#utility.yul\":11327:11329   */\n      0x20\n        /* \"#utility.yul\":11322:11325   */\n      dup3\n        /* \"#utility.yul\":11318:11330   */\n      add\n        /* \"#utility.yul\":11311:11330   */\n      swap1\n      pop\n        /* \"#utility.yul\":10970:11336   */\n      swap2\n      swap1\n      pop\n      jump\t// out\n        /* \"#utility.yul\":11342:11761   */\n    tag_72:\n        /* \"#utility.yul\":11508:11512   */\n      0x00\n        /* \"#utility.yul\":11546:11548   */\n      0x20\n        /* \"#utility.yul\":11535:11544   */\n      dup3\n        /* \"#utility.yul\":11531:11549   */\n      add\n        /* \"#utility.yul\":11523:11549   */\n      swap1\n      pop\n        /* \"#utility.yul\":11595:11604   */\n      dup2\n        /* \"#utility.yul\":11589:11593   */\n      dup2\n        /* \"#utility.yul\":11585:11605   */\n      sub\n        /* \"#utility.yul\":11581:11582   */\n      0x00\n        /* \"#utility.yul\":11570:11579   */\n      dup4\n        /* \"#utility.yul\":11566:11583   */\n      add\n        /* \"#utility.yul\":11559:11606   */\n      mstore\n        /* \"#utility.yul\":11623:11754   */\n      tag_307\n        /* \"#utility.yul\":11749:11753   */\n      dup2\n        /* \"#utility.yul\":11623:11754   */\n      tag_159\n      jump\t// in\n    tag_307:\n        /* \"#utility.yul\":11615:11754   */\n      swap1\n      pop\n        /* \"#utility.yul\":11342:11761   */\n      swap2\n      swap1\n      pop\n      jump\t// out\n        /* \"#utility.yul\":11767:11908   */\n    tag_160:\n        /* \"#utility.yul\":11816:11820   */\n      0x00\n        /* \"#utility.yul\":11839:11842   */\n      dup2\n        /* \"#utility.yul\":11831:11842   */\n      swap1\n      pop\n        /* \"#utility.yul\":11862:11865   */\n      dup2\n        /* \"#utility.yul\":11859:11860   */\n      0x00\n        /* \"#utility.yul\":11852:11866   */\n      mstore\n        /* \"#utility.yul\":11896:11900   */\n      0x20\n        /* \"#utility.yul\":11893:11894   */\n      0x00\n        /* \"#utility.yul\":11883:11901   */\n      keccak256\n        /* \"#utility.yul\":11875:11901   */\n      swap1\n      pop\n        /* \"#utility.yul\":11767:11908   */\n      swap2\n      swap1\n      pop\n      jump\t// out\n        /* \"#utility.yul\":11914:12007   */\n    tag_161:\n        /* \"#utility.yul\":11951:11957   */\n      0x00\n        /* \"#utility.yul\":11998:12000   */\n      0x20\n        /* \"#utility.yul\":11993:11995   */\n      0x1f\n        /* \"#utility.yul\":11986:11991   */\n      dup4\n        /* \"#utility.yul\":11982:11996   */\n      add\n        /* \"#utility.yul\":11978:12001   */\n      div\n        /* \"#utility.yul\":11968:12001   */\n      swap1\n      pop\n        /* \"#utility.yul\":11914:12007   */\n      swap2\n      swap1\n      pop\n      jump\t// out\n        /* \"#utility.yul\":12013:12120   */\n    tag_162:\n        /* \"#utility.yul\":12057:12065   */\n      0x00\n        /* \"#utility.yul\":12107:12112   */\n      dup3\n        /* \"#utility.yul\":12101:12105   */\n      dup3\n        /* \"#utility.yul\":12097:12113   */\n      shl\n        /* \"#utility.yul\":12076:12113   */\n      swap1\n      pop\n        /* \"#utility.yul\":12013:12120   */\n      swap3\n      swap2\n      pop\n      pop\n      jump\t// out\n        /* \"#utility.yul\":12126:12519   */\n    tag_163:\n        /* \"#utility.yul\":12195:12201   */\n      0x00\n        /* \"#utility.yul\":12245:12246   */\n      0x08\n        /* \"#utility.yul\":12233:12243   */\n      dup4\n        /* \"#utility.yul\":12229:12247   */\n      mul\n        /* \"#utility.yul\":12268:12365   */\n      tag_312\n        /* \"#utility.yul\":12298:12364   */\n      0xffffffffffffffffffffffffffffffffffffffffffffffffffffffffffffffff\n        /* \"#utility.yul\":12287:12296   */\n      dup3\n        /* \"#utility.yul\":12268:12365   */\n      tag_162\n      jump\t// in\n    tag_312:\n        /* \"#utility.yul\":12386:12425   */\n      tag_313\n        /* \"#utility.yul\":12416:12424   */\n      dup7\n        /* \"#utility.yul\":12405:12414   */\n      dup4\n        /* \"#utility.yul\":12386:12425   */\n      tag_162\n      jump\t// in\n    tag_313:\n        /* \"#utility.yul\":12374:12425   */\n      swap6\n      pop\n        /* \"#utility.yul\":12458:12462   */\n      dup1\n        /* \"#utility.yul\":12454:12463   */\n      not\n        /* \"#utility.yul\":12447:12452   */\n      dup5\n        /* \"#utility.yul\":12443:12464   */\n      and\n        /* \"#utility.yul\":12434:12464   */\n      swap4\n      pop\n        /* \"#utility.yul\":12507:12511   */\n      dup1\n        /* \"#utility.yul\":12497:12505   */\n      dup7\n        /* \"#utility.yul\":12493:12512   */\n      and\n        /* \"#utility.yul\":12486:12491   */\n      dup5\n        /* \"#utility.yul\":12483:12513   */\n      or\n        /* \"#utility.yul\":12473:12513   */\n      swap3\n      pop\n        /* \"#utility.yul\":12202:12519   */\n      pop\n      pop\n        /* \"#utility.yul\":12126:12519   */\n      swap4\n      swap3\n      pop\n      pop\n      pop\n      jump\t// out\n        /* \"#utility.yul\":12525:12585   */\n    tag_164:\n        /* \"#utility.yul\":12553:12556   */\n      0x00\n        /* \"#utility.yul\":12574:12579   */\n      dup2\n        /* \"#utility.yul\":12567:12579   */\n      swap1\n      pop\n        /* \"#utility.yul\":12525:12585   */\n      swap2\n      swap1\n      pop\n      jump\t// out\n        /* \"#utility.yul\":12591:12733   */\n    tag_165:\n        /* \"#utility.yul\":12641:12650   */\n      0x00\n        /* \"#utility.yul\":12674:12727   */\n      tag_316\n        /* \"#utility.yul\":12692:12726   */\n      tag_317\n        /* \"#utility.yul\":12701:12725   */\n      tag_318\n        /* \"#utility.yul\":12719:12724   */\n      dup5\n        /* \"#utility.yul\":12701:12725   */\n      tag_122\n      jump\t// in\n    tag_318:\n        /* \"#utility.yul\":12692:12726   */\n      tag_164\n      jump\t// in\n    tag_317:\n        /* \"#utility.yul\":12674:12727   */\n      tag_122\n      jump\t// in\n    tag_316:\n        /* \"#utility.yul\":12661:12727   */\n      swap1\n      pop\n        /* \"#utility.yul\":12591:12733   */\n      swap2\n      swap1\n      pop\n      jump\t// out\n        /* \"#utility.yul\":12739:12814   */\n    tag_166:\n        /* \"#utility.yul\":12782:12785   */\n      0x00\n        /* \"#utility.yul\":12803:12808   */\n      dup2\n        /* \"#utility.yul\":12796:12808   */\n      swap1\n      pop\n        /* \"#utility.yul\":12739:12814   */\n      swap2\n      swap1\n      pop\n      jump\t// out\n        /* \"#utility.yul\":12820:13089   */\n    tag_167:\n        /* \"#utility.yul\":12930:12969   */\n      tag_321\n        /* \"#utility.yul\":12961:12968   */\n      dup4\n        /* \"#utility.yul\":12930:12969   */\n      tag_165\n      jump\t// in\n    tag_321:\n        /* \"#utility.yul\":12991:13082   */\n      tag_322\n        /* \"#utility.yul\":13040:13081   */\n      tag_323\n        /* \"#utility.yul\":13064:13080   */\n      dup3\n        /* \"#utility.yul\":13040:13081   */\n      tag_166\n      jump\t// in\n    tag_323:\n        /* \"#utility.yul\":13032:13038   */\n      dup5\n        /* \"#utility.yul\":13025:13029   */\n      dup5\n        /* \"#utility.yul\":13019:13030   */\n      sload\n        /* \"#utility.yul\":12991:13082   */\n      tag_163\n      jump\t// in\n    tag_322:\n        /* \"#utility.yul\":12985:12989   */\n      dup3\n        /* \"#utility.yul\":12978:13083   */\n      sstore\n        /* \"#utility.yul\":12896:13089   */\n      pop\n        /* \"#utility.yul\":12820:13089   */\n      pop\n      pop\n      pop\n      jump\t// out\n        /* \"#utility.yul\":13095:13168   */\n    tag_168:\n        /* \"#utility.yul\":13140:13143   */\n      0x00\n        /* \"#utility.yul\":13161:13162   */\n      0x00\n        /* \"#utility.yul\":13154:13162   */\n      swap1\n      pop\n        /* \"#utility.yul\":13095:13168   */\n      swap1\n      jump\t// out\n        /* \"#utility.yul\":13174:13363   */\n    tag_169:\n        /* \"#utility.yul\":13251:13283   */\n      tag_326\n      tag_168\n      jump\t// in\n    tag_326:\n        /* \"#utility.yul\":13292:13357   */\n      tag_327\n        /* \"#utility.yul\":13350:13356   */\n      dup2\n        /* \"#utility.yul\":13342:13348   */\n      dup5\n        /* \"#utility.yul\":13336:13340   */\n      dup5\n        /* \"#utility.yul\":13292:13357   */\n      tag_167\n      jump\t// in\n    tag_327:\n        /* \"#utility.yul\":13227:13363   */\n      pop\n        /* \"#utility.yul\":13174:13363   */\n      pop\n      pop\n      jump\t// out\n        /* \"#utility.yul\":13369:13555   */\n    tag_170:\n        /* \"#utility.yul\":13429:13549   */\n    tag_329:\n        /* \"#utility.yul\":13446:13449   */\n      dup2\n        /* \"#utility.yul\":13439:13444   */\n      dup2\n        /* \"#utility.yul\":13436:13450   */\n      lt\n        /* \"#utility.yul\":13429:13549   */\n      iszero\n      tag_331\n      jumpi\n        /* \"#utility.yul\":13500:13539   */\n      tag_332\n        /* \"#utility.yul\":13537:13538   */\n      0x00\n        /* \"#utility.yul\":13530:13535   */\n      dup3\n        /* \"#utility.yul\":13500:13539   */\n      tag_169\n      jump\t// in\n    tag_332:\n        /* \"#utility.yul\":13473:13474   */\n      0x01\n        /* \"#utility.yul\":13466:13471   */\n      dup2\n        /* \"#utility.yul\":13462:13475   */\n      add\n        /* \"#utility.yul\":13453:13475   */\n      swap1\n      pop\n        /* \"#utility.yul\":13429:13549   */\n      jump(tag_329)\n    tag_331:\n        /* \"#utility.yul\":13369:13555   */\n      pop\n      pop\n      jump\t// out\n        /* \"#utility.yul\":13561:14104   */\n    tag_171:\n        /* \"#utility.yul\":13662:13664   */\n      0x1f\n        /* \"#utility.yul\":13657:13660   */\n      dup3\n        /* \"#utility.yul\":13654:13665   */\n      gt\n        /* \"#utility.yul\":13651:14097   */\n      iszero\n      tag_334\n      jumpi\n        /* \"#utility.yul\":13696:13734   */\n      tag_335\n        /* \"#utility.yul\":13728:13733   */\n      dup2\n        /* \"#utility.yul\":13696:13734   */\n      tag_160\n      jump\t// in\n    tag_335:\n        /* \"#utility.yul\":13780:13809   */\n      tag_336\n        /* \"#utility.yul\":13798:13808   */\n      dup5\n        /* \"#utility.yul\":13780:13809   */\n      tag_161\n      jump\t// in\n    tag_336:\n        /* \"#utility.yul\":13770:13778   */\n      dup2\n        /* \"#utility.yul\":13766:13810   */\n      add\n        /* \"#utility.yul\":13963:13965   */\n      0x20\n        /* \"#utility.yul\":13951:13961   */\n      dup6\n        /* \"#utility.yul\":13948:13966   */\n      lt\n        /* \"#utility.yul\":13945:13994   */\n      iszero\n      tag_337\n      jumpi\n        /* \"#utility.yul\":13984:13992   */\n      dup2\n        /* \"#utility.yul\":13969:13992   */\n      swap1\n      pop\n        /* \"#utility.yul\":13945:13994   */\n    tag_337:\n        /* \"#utility.yul\":14007:14087   */\n      tag_338\n        /* \"#utility.yul\":14063:14085   */\n      tag_339\n        /* \"#utility.yul\":14081:14084   */\n      dup6\n        /* \"#utility.yul\":14063:14085   */\n      tag_161\n      jump\t// in\n    tag_339:\n        /* \"#utility.yul\":14053:14061   */\n      dup4\n        /* \"#utility.yul\":14049:14086   */\n      add\n        /* \"#utility.yul\":14036:14047   */\n      dup3\n        /* \"#utility.yul\":14007:14087   */\n      tag_170\n      jump\t// in\n    tag_338:\n        /* \"#utility.yul\":13666:14097   */\n      pop\n      pop\n        /* \"#utility.yul\":13651:14097   */\n    tag_334:\n        /* \"#utility.yul\":13561:14104   */\n      pop\n      pop\n      pop\n      jump\t// out\n        /* \"#utility.yul\":14110:14227   */\n    tag_172:\n        /* \"#utility.yul\":14164:14172   */\n      0x00\n        /* \"#utility.yul\":14214:14219   */\n      dup3\n        /* \"#utility.yul\":14208:14212   */\n      dup3\n        /* \"#utility.yul\":14204:14220   */\n      shr\n        /* \"#utility.yul\":14183:14220   */\n      swap1\n      pop\n        /* \"#utility.yul\":14110:14227   */\n      swap3\n      swap2\n      pop\n      pop\n      jump\t// out\n        /* \"#utility.yul\":14233:14402   */\n    tag_173:\n        /* \"#utility.yul\":14277:14283   */\n      0x00\n        /* \"#utility.yul\":14310:14361   */\n      tag_342\n        /* \"#utility.yul\":14358:14359   */\n      0x00\n        /* \"#utility.yul\":14354:14360   */\n      not\n        /* \"#utility.yul\":14346:14351   */\n      dup5\n        /* \"#utility.yul\":14343:14344   */\n      0x08\n        /* \"#utility.yul\":14339:14352   */\n      mul\n        /* \"#utility.yul\":14310:14361   */\n      tag_172\n      jump\t// in\n    tag_342:\n        /* \"#utility.yul\":14306:14362   */\n      not\n        /* \"#utility.yul\":14391:14395   */\n      dup1\n        /* \"#utility.yul\":14385:14389   */\n      dup4\n        /* \"#utility.yul\":14381:14396   */\n      and\n        /* \"#utility.yul\":14371:14396   */\n      swap2\n      pop\n        /* \"#utility.yul\":14284:14402   */\n      pop\n        /* \"#utility.yul\":14233:14402   */\n      swap3\n      swap2\n      pop\n      pop\n      jump\t// out\n        /* \"#utility.yul\":14407:14702   */\n    tag_174:\n        /* \"#utility.yul\":14483:14487   */\n      0x00\n        /* \"#utility.yul\":14629:14658   */\n      tag_344\n        /* \"#utility.yul\":14654:14657   */\n      dup4\n        /* \"#utility.yul\":14648:14652   */\n      dup4\n        /* \"#utility.yul\":14629:14658   */\n      tag_173\n      jump\t// in\n    tag_344:\n        /* \"#utility.yul\":14621:14658   */\n      swap2\n      pop\n        /* \"#utility.yul\":14691:14694   */\n      dup3\n        /* \"#utility.yul\":14688:14689   */\n      0x02\n        /* \"#utility.yul\":14684:14695   */\n      mul\n        /* \"#utility.yul\":14678:14682   */\n      dup3\n        /* \"#utility.yul\":14675:14696   */\n      or\n        /* \"#utility.yul\":14667:14696   */\n      swap1\n      pop\n        /* \"#utility.yul\":14407:14702   */\n      swap3\n      swap2\n      pop\n      pop\n      jump\t// out\n        /* \"#utility.yul\":14707:16102   */\n    tag_75:\n        /* \"#utility.yul\":14824:14861   */\n      tag_346\n        /* \"#utility.yul\":14857:14860   */\n      dup3\n        /* \"#utility.yul\":14824:14861   */\n      tag_128\n      jump\t// in\n    tag_346:\n        /* \"#utility.yul\":14926:14944   */\n      0xffffffffffffffff\n        /* \"#utility.yul\":14918:14924   */\n      dup2\n        /* \"#utility.yul\":14915:14945   */\n      gt\n        /* \"#utility.yul\":14912:14968   */\n      iszero\n      tag_347\n      jumpi\n        /* \"#utility.yul\":14948:14966   */\n      tag_348\n      tag_141\n      jump\t// in\n    tag_348:\n        /* \"#utility.yul\":14912:14968   */\n    tag_347:\n        /* \"#utility.yul\":14992:15030   */\n      tag_349\n        /* \"#utility.yul\":15024:15028   */\n      dup3\n        /* \"#utility.yul\":15018:15029   */\n      sload\n        /* \"#utility.yul\":14992:15030   */\n      tag_64\n      jump\t// in\n    tag_349:\n        /* \"#utility.yul\":15077:15144   */\n      tag_350\n        /* \"#utility.yul\":15137:15143   */\n      dup3\n        /* \"#utility.yul\":15129:15135   */\n      dup3\n        /* \"#utility.yul\":15123:15127   */\n      dup6\n        /* \"#utility.yul\":15077:15144   */\n      tag_171\n      jump\t// in\n    tag_350:\n        /* \"#utility.yul\":15171:15172   */\n      0x00\n        /* \"#utility.yul\":15195:15199   */\n      0x20\n        /* \"#utility.yul\":15182:15199   */\n      swap1\n      pop\n        /* \"#utility.yul\":15227:15229   */\n      0x1f\n        /* \"#utility.yul\":15219:15225   */\n      dup4\n        /* \"#utility.yul\":15216:15230   */\n      gt\n        /* \"#utility.yul\":15244:15245   */\n      0x01\n        /* \"#utility.yul\":15239:15857   */\n      dup2\n      eq\n      tag_352\n      jumpi\n        /* \"#utility.yul\":15901:15902   */\n      0x00\n        /* \"#utility.yul\":15918:15924   */\n      dup5\n        /* \"#utility.yul\":15915:15992   */\n      iszero\n      tag_353\n      jumpi\n        /* \"#utility.yul\":15967:15976   */\n      dup3\n        /* \"#utility.yul\":15962:15965   */\n      dup8\n        /* \"#utility.yul\":15958:15977   */\n      add\n        /* \"#utility.yul\":15952:15978   */\n      mload\n        /* \"#utility.yul\":15943:15978   */\n      swap1\n      pop\n        /* \"#utility.yul\":15915:15992   */\n    tag_353:\n        /* \"#utility.yul\":16018:16085   */\n      tag_354\n        /* \"#utility.yul\":16078:16084   */\n      dup6\n        /* \"#utility.yul\":16071:16076   */\n      dup3\n        /* \"#utility.yul\":16018:16085   */\n      tag_174\n      jump\t// in\n    tag_354:\n        /* \"#utility.yul\":16012:16016   */\n      dup7\n        /* \"#utility.yul\":16005:16086   */\n      sstore\n        /* \"#utility.yul\":15874:16096   */\n      pop\n        /* \"#utility.yul\":15209:16096   */\n      jump(tag_351)\n        /* \"#utility.yul\":15239:15857   */\n    tag_352:\n        /* \"#utility.yul\":15291:15295   */\n      0x1f\n        /* \"#utility.yul\":15287:15296   */\n      not\n        /* \"#utility.yul\":15279:15285   */\n      dup5\n        /* \"#utility.yul\":15275:15297   */\n      and\n        /* \"#utility.yul\":15325:15362   */\n      tag_355\n        /* \"#utility.yul\":15357:15361   */\n      dup7\n        /* \"#utility.yul\":15325:15362   */\n      tag_160\n      jump\t// in\n    tag_355:\n        /* \"#utility.yul\":15384:15385   */\n      0x00\n        /* \"#utility.yul\":15398:15606   */\n    tag_356:\n        /* \"#utility.yul\":15412:15419   */\n      dup3\n        /* \"#utility.yul\":15409:15410   */\n      dup2\n        /* \"#utility.yul\":15406:15420   */\n      lt\n        /* \"#utility.yul\":15398:15606   */\n      iszero\n      tag_358\n      jumpi\n        /* \"#utility.yul\":15491:15500   */\n      dup5\n        /* \"#utility.yul\":15486:15489   */\n      dup10\n        /* \"#utility.yul\":15482:15501   */\n      add\n        /* \"#utility.yul\":15476:15502   */\n      mload\n        /* \"#utility.yul\":15468:15474   */\n      dup3\n        /* \"#utility.yul\":15461:15503   */\n      sstore\n        /* \"#utility.yul\":15542:15543   */\n      0x01\n        /* \"#utility.yul\":15534:15540   */\n      dup3\n        /* \"#utility.yul\":15530:15544   */\n      add\n        /* \"#utility.yul\":15520:15544   */\n      swap2\n      pop\n        /* \"#utility.yul\":15589:15591   */\n      0x20\n        /* \"#utility.yul\":15578:15587   */\n      dup6\n        /* \"#utility.yul\":15574:15592   */\n      add\n        /* \"#utility.yul\":15561:15592   */\n      swap5\n      pop\n        /* \"#utility.yul\":15435:15439   */\n      0x20\n        /* \"#utility.yul\":15432:15433   */\n      dup2\n        /* \"#utility.yul\":15428:15440   */\n      add\n        /* \"#utility.yul\":15423:15440   */\n      swap1\n      pop\n        /* \"#utility.yul\":15398:15606   */\n      jump(tag_356)\n    tag_358:\n        /* \"#utility.yul\":15634:15640   */\n      dup7\n        /* \"#utility.yul\":15625:15632   */\n      dup4\n        /* \"#utility.yul\":15622:15641   */\n      lt\n        /* \"#utility.yul\":15619:15798   */\n      iszero\n      tag_359\n      jumpi\n        /* \"#utility.yul\":15692:15701   */\n      dup5\n        /* \"#utility.yul\":15687:15690   */\n      dup10\n        /* \"#utility.yul\":15683:15702   */\n      add\n        /* \"#utility.yul\":15677:15703   */\n      mload\n        /* \"#utility.yul\":15735:15783   */\n      tag_360\n        /* \"#utility.yul\":15777:15781   */\n      0x1f\n        /* \"#utility.yul\":15769:15775   */\n      dup10\n        /* \"#utility.yul\":15765:15782   */\n      and\n        /* \"#utility.yul\":15754:15763   */\n      dup3\n        /* \"#utility.yul\":15735:15783   */\n      tag_173\n      jump\t// in\n    tag_360:\n        /* \"#utility.yul\":15727:15733   */\n      dup4\n        /* \"#utility.yul\":15720:15784   */\n      sstore\n        /* \"#utility.yul\":15642:15798   */\n      pop\n        /* \"#utility.yul\":15619:15798   */\n    tag_359:\n        /* \"#utility.yul\":15844:15845   */\n      0x01\n        /* \"#utility.yul\":15840:15841   */\n      0x02\n        /* \"#utility.yul\":15832:15838   */\n      dup9\n        /* \"#utility.yul\":15828:15842   */\n      mul\n        /* \"#utility.yul\":15824:15846   */\n      add\n        /* \"#utility.yul\":15818:15822   */\n      dup9\n        /* \"#utility.yul\":15811:15847   */\n      sstore\n        /* \"#utility.yul\":15246:15857   */\n      pop\n      pop\n      pop\n        /* \"#utility.yul\":15209:16096   */\n    tag_351:\n      pop\n        /* \"#utility.yul\":14799:16102   */\n      pop\n      pop\n      pop\n        /* \"#utility.yul\":14707:16102   */\n      pop\n      pop\n      jump\t// out\n        /* \"#utility.yul\":16108:16288   */\n    tag_175:\n        /* \"#utility.yul\":16156:16233   */\n      0x4e487b7100000000000000000000000000000000000000000000000000000000\n        /* \"#utility.yul\":16153:16154   */\n      0x00\n        /* \"#utility.yul\":16146:16234   */\n      mstore\n        /* \"#utility.yul\":16253:16257   */\n      0x11\n        /* \"#utility.yul\":16250:16251   */\n      0x04\n        /* \"#utility.yul\":16243:16258   */\n      mstore\n        /* \"#utility.yul\":16277:16281   */\n      0x24\n        /* \"#utility.yul\":16274:16275   */\n      0x00\n        /* \"#utility.yul\":16267:16282   */\n      revert\n        /* \"#utility.yul\":16294:16488   */\n    tag_77:\n        /* \"#utility.yul\":16334:16338   */\n      0x00\n        /* \"#utility.yul\":16354:16374   */\n      tag_363\n        /* \"#utility.yul\":16372:16373   */\n      dup3\n        /* \"#utility.yul\":16354:16374   */\n      tag_122\n      jump\t// in\n    tag_363:\n        /* \"#utility.yul\":16349:16374   */\n      swap2\n      pop\n        /* \"#utility.yul\":16388:16408   */\n      tag_364\n        /* \"#utility.yul\":16406:16407   */\n      dup4\n        /* \"#utility.yul\":16388:16408   */\n      tag_122\n      jump\t// in\n    tag_364:\n        /* \"#utility.yul\":16383:16408   */\n      swap3\n      pop\n        /* \"#utility.yul\":16432:16433   */\n      dup3\n        /* \"#utility.yul\":16429:16430   */\n      dup3\n        /* \"#utility.yul\":16425:16434   */\n      sub\n        /* \"#utility.yul\":16417:16434   */\n      swap1\n      pop\n        /* \"#utility.yul\":16456:16457   */\n      dup2\n        /* \"#utility.yul\":16450:16454   */\n      dup2\n        /* \"#utility.yul\":16447:16458   */\n      gt\n        /* \"#utility.yul\":16444:16481   */\n      iszero\n      tag_365\n      jumpi\n        /* \"#utility.yul\":16461:16479   */\n      tag_366\n      tag_175\n      jump\t// in\n    tag_366:\n        /* \"#utility.yul\":16444:16481   */\n    tag_365:\n        /* \"#utility.yul\":16294:16488   */\n      swap3\n      swap2\n      pop\n      pop\n      jump\t// out\n        /* \"#utility.yul\":16494:16917   */\n    tag_79:\n        /* \"#utility.yul\":16635:16639   */\n      0x00\n        /* \"#utility.yul\":16673:16675   */\n      0x40\n        /* \"#utility.yul\":16662:16671   */\n      dup3\n        /* \"#utility.yul\":16658:16676   */\n      add\n        /* \"#utility.yul\":16650:16676   */\n      swap1\n      pop\n        /* \"#utility.yul\":16686:16757   */\n      tag_368\n        /* \"#utility.yul\":16754:16755   */\n      0x00\n        /* \"#utility.yul\":16743:16752   */\n      dup4\n        /* \"#utility.yul\":16739:16756   */\n      add\n        /* \"#utility.yul\":16730:16736   */\n      dup6\n        /* \"#utility.yul\":16686:16757   */\n      tag_156\n      jump\t// in\n    tag_368:\n        /* \"#utility.yul\":16804:16813   */\n      dup2\n        /* \"#utility.yul\":16798:16802   */\n      dup2\n        /* \"#utility.yul\":16794:16814   */\n      sub\n        /* \"#utility.yul\":16789:16791   */\n      0x20\n        /* \"#utility.yul\":16778:16787   */\n      dup4\n        /* \"#utility.yul\":16774:16792   */\n      add\n        /* \"#utility.yul\":16767:16815   */\n      mstore\n        /* \"#utility.yul\":16832:16910   */\n      tag_369\n        /* \"#utility.yul\":16905:16909   */\n      dup2\n        /* \"#utility.yul\":16896:16902   */\n      dup5\n        /* \"#utility.yul\":16832:16910   */\n      tag_132\n      jump\t// in\n    tag_369:\n        /* \"#utility.yul\":16824:16910   */\n      swap1\n      pop\n        /* \"#utility.yul\":16494:16917   */\n      swap4\n      swap3\n      pop\n      pop\n      pop\n      jump\t// out\n\n    auxdata: 0xa2646970667358221220cbe6e863523c8cb06ca08ae7b259a9768b1898174f2e21fc641768905c44178964736f6c634300081e0033\n}\n",
				"bytecode": {
					"linkReferences": {},
					"object": "608060405234801561000f575f5ffd5b50335f73ffffffffffffffffffffffffffffffffffffffff168173ffffffffffffffffffffffffffffffffffffffff1603610081575f6040517f1e4fbdf700000000000000000000000000000000000000000000000000000000815260040161007891906102e0565b60405180910390fd5b610090816101e060201b60201c565b5060056040518060c0016040528060405180602001604052805f81525081526020015f63ffffffff1681526020015f63ffffffff1681526020015f63ffffffff1681526020015f61ffff1681526020015f60ff16815250908060018154018082558091505060019003905f5260205f2090600202015f909190919091505f820151815f0190816101209190610536565b506020820151816001015f6101000a81548163ffffffff021916908363ffffffff16021790555060408201518160010160046101000a81548163ffffffff021916908363ffffffff16021790555060608201518160010160086101000a81548163ffffffff021916908363ffffffff160217905550608082015181600101600c6101000a81548161ffff021916908361ffff16021790555060a082015181600101600e6101000a81548160ff021916908360ff1602179055505050610605565b5f5f5f9054906101000a900473ffffffffffffffffffffffffffffffffffffffff169050815f5f6101000a81548173ffffffffffffffffffffffffffffffffffffffff021916908373ffffffffffffffffffffffffffffffffffffffff1602179055508173ffffffffffffffffffffffffffffffffffffffff168173ffffffffffffffffffffffffffffffffffffffff167f8be0079c531659141344cd1fd0a4f28419497f9722a3daafe3b4186f6b6457e060405160405180910390a35050565b5f73ffffffffffffffffffffffffffffffffffffffff82169050919050565b5f6102ca826102a1565b9050919050565b6102da816102c0565b82525050565b5f6020820190506102f35f8301846102d1565b92915050565b5f81519050919050565b7f4e487b71000000000000000000000000000000000000000000000000000000005f52604160045260245ffd5b7f4e487b71000000000000000000000000000000000000000000000000000000005f52602260045260245ffd5b5f600282049050600182168061037457607f821691505b60208210810361038757610386610330565b5b50919050565b5f819050815f5260205f209050919050565b5f6020601f8301049050919050565b5f82821b905092915050565b5f600883026103e97fffffffffffffffffffffffffffffffffffffffffffffffffffffffffffffffff826103ae565b6103f386836103ae565b95508019841693508086168417925050509392505050565b5f819050919050565b5f819050919050565b5f61043761043261042d8461040b565b610414565b61040b565b9050919050565b5f819050919050565b6104508361041d565b61046461045c8261043e565b8484546103ba565b825550505050565b5f5f905090565b61047b61046c565b610486818484610447565b505050565b5b818110156104a95761049e5f82610473565b60018101905061048c565b5050565b601f8211156104ee576104bf8161038d565b6104c88461039f565b810160208510156104d7578190505b6104eb6104e38561039f565b83018261048b565b50505b505050565b5f82821c905092915050565b5f61050e5f19846008026104f3565b1980831691505092915050565b5f61052683836104ff565b9150826002028217905092915050565b61053f826102f9565b67ffffffffffffffff81111561055857610557610303565b5b610562825461035d565b61056d8282856104ad565b5f60209050601f83116001811461059e575f841561058c578287015190505b610596858261051b565b8655506105fd565b601f1984166105ac8661038d565b5f5b828110156105d3578489015182556001820191506020850194506020810190506105ae565b868310156105f057848901516105ec601f8916826104ff565b8355505b6001600288020188555050505b505050505050565b611545806106125f395ff3fe608060405234801561000f575f5ffd5b50600436106100a7575f3560e01c80638da5cb5b1161006f5780638da5cb5b146101665780639f8e176614610184578063a28da4a6146101a0578063b06b0368146101d5578063f089f7c314610208578063f2fde38b14610238576100a7565b80630d292732146100ab5780632e6b221d146100db5780633824fbec146101105780635f6fdddf14610140578063715018a61461015c575b5f5ffd5b6100c560048036038101906100c09190610c42565b610254565b6040516100d29190610cac565b60405180910390f35b6100f560048036038101906100f09190610c42565b610284565b60405161010796959493929190610d8a565b60405180910390f35b61012a60048036038101906101259190610c42565b61039b565b6040516101379190610cac565b60405180910390f35b61015a60048036038101906101559190610f1c565b6103cb565b005b610164610606565b005b61016e610619565b60405161017b9190610cac565b60405180910390f35b61019e60048036038101906101999190610fe1565b610640565b005b6101ba60048036038101906101b59190610c42565b610822565b6040516101cc96959493929190610d8a565b60405180910390f35b6101ef60048036038101906101ea9190610c42565b61092a565b6040516101ff9493929190611086565b60405180910390f35b610222600480360381019061021d91906110fa565b610a16565b60405161022f9190611134565b60405180910390f35b610252600480360381019061024d91906110fa565b610a2b565b005b6002602052805f5260405f205f915054906101000a900473ffffffffffffffffffffffffffffffffffffffff1681565b60058181548110610293575f80fd5b905f5260205f2090600202015f91509050805f0180546102b29061117a565b80601f01602080910402602001604051908101604052809291908181526020018280546102de9061117a565b80156103295780601f1061030057610100808354040283529160200191610329565b820191905f5260205f20905b81548152906001019060200180831161030c57829003601f168201915b505050505090806001015f9054906101000a900463ffffffff16908060010160049054906101000a900463ffffffff16908060010160089054906101000a900463ffffffff169080600101600c9054906101000a900461ffff169080600101600e9054906101000a900460ff16905086565b6006602052805f5260405f205f915054906101000a900473ffffffffffffffffffffffffffffffffffffffff1681565b5f60035f3373ffffffffffffffffffffffffffffffffffffffff1673ffffffffffffffffffffffffffffffffffffffff1681526020019081526020015f20541461044a576040517f08c379a0000000000000000000000000000000000000000000000000000000008152600401610441906111f4565b60405180910390fd5b60016040518060800160405280838152602001600161ffff1681526020015f63ffffffff1681526020015f61ffff16815250908060018154018082558091505060019003905f5260205f2090600202015f909190919091505f820151815f0190816104b591906113b2565b506020820151816001015f6101000a81548161ffff021916908361ffff16021790555060408201518160010160026101000a81548163ffffffff021916908363ffffffff16021790555060608201518160010160066101000a81548161ffff021916908361ffff16021790555050505f6001808054905061053691906114ae565b90503360025f8381526020019081526020015f205f6101000a81548173ffffffffffffffffffffffffffffffffffffffff021916908373ffffffffffffffffffffffffffffffffffffffff1602179055508060035f3373ffffffffffffffffffffffffffffffffffffffff1673ffffffffffffffffffffffffffffffffffffffff1681526020019081526020015f20819055507f41b82268d4cfcb7bde62bae060583c745a4821f267e1fe541b5f624e00d43c7d81836040516105fa9291906114e1565b60405180910390a15050565b61060e610aaf565b6106175f610b36565b565b5f5f5f9054906101000a900473ffffffffffffffffffffffffffffffffffffffff16905090565b60056040518060c001604052808881526020018763ffffffff1681526020018663ffffffff1681526020018563ffffffff1681526020018461ffff1681526020018360ff16815250908060018154018082558091505060019003905f5260205f2090600202015f909190919091505f820151815f0190816106c191906113b2565b506020820151816001015f6101000a81548163ffffffff021916908363ffffffff16021790555060408201518160010160046101000a81548163ffffffff021916908363ffffffff16021790555060608201518160010160086101000a81548163ffffffff021916908363ffffffff160217905550608082015181600101600c6101000a81548161ffff021916908361ffff16021790555060a082015181600101600e6101000a81548160ff021916908360ff16021790555050505f600160058054905061078f91906114ae565b90503360065f8381526020019081526020015f205f6101000a81548173ffffffffffffffffffffffffffffffffffffffff021916908373ffffffffffffffffffffffffffffffffffffffff1602179055507fcf0b1657bf9a3add4678d1909d3fdcdb613a214497eb0d3c6b946dee9197583881886040516108119291906114e1565b60405180910390a150505050505050565b6007602052805f5260405f205f91509050805f0180546108419061117a565b80601f016020809104026020016040519081016040528092919081815260200182805461086d9061117a565b80156108b85780601f1061088f576101008083540402835291602001916108b8565b820191905f5260205f20905b81548152906001019060200180831161089b57829003601f168201915b505050505090806001015f9054906101000a900463ffffffff16908060010160049054906101000a900463ffffffff16908060010160089054906101000a900463ffffffff169080600101600c9054906101000a900461ffff169080600101600e9054906101000a900460ff16905086565b60018181548110610939575f80fd5b905f5260205f2090600202015f91509050805f0180546109589061117a565b80601f01602080910402602001604051908101604052809291908181526020018280546109849061117a565b80156109cf5780601f106109a6576101008083540402835291602001916109cf565b820191905f5260205f20905b8154815290600101906020018083116109b257829003601f168201915b505050505090806001015f9054906101000a900461ffff16908060010160029054906101000a900463ffffffff16908060010160069054906101000a900461ffff16905084565b6003602052805f5260405f205f915090505481565b610a33610aaf565b5f73ffffffffffffffffffffffffffffffffffffffff168173ffffffffffffffffffffffffffffffffffffffff1603610aa3575f6040517f1e4fbdf7000000000000000000000000000000000000000000000000000000008152600401610a9a9190610cac565b60405180910390fd5b610aac81610b36565b50565b610ab7610bf7565b73ffffffffffffffffffffffffffffffffffffffff16610ad5610619565b73ffffffffffffffffffffffffffffffffffffffff1614610b3457610af8610bf7565b6040517f118cdaa7000000000000000000000000000000000000000000000000000000008152600401610b2b9190610cac565b60405180910390fd5b565b5f5f5f9054906101000a900473ffffffffffffffffffffffffffffffffffffffff169050815f5f6101000a81548173ffffffffffffffffffffffffffffffffffffffff021916908373ffffffffffffffffffffffffffffffffffffffff1602179055508173ffffffffffffffffffffffffffffffffffffffff168173ffffffffffffffffffffffffffffffffffffffff167f8be0079c531659141344cd1fd0a4f28419497f9722a3daafe3b4186f6b6457e060405160405180910390a35050565b5f33905090565b5f604051905090565b5f5ffd5b5f5ffd5b5f819050919050565b610c2181610c0f565b8114610c2b575f5ffd5b50565b5f81359050610c3c81610c18565b92915050565b5f60208284031215610c5757610c56610c07565b5b5f610c6484828501610c2e565b91505092915050565b5f73ffffffffffffffffffffffffffffffffffffffff82169050919050565b5f610c9682610c6d565b9050919050565b610ca681610c8c565b82525050565b5f602082019050610cbf5f830184610c9d565b92915050565b5f81519050919050565b5f82825260208201905092915050565b8281835e5f83830152505050565b5f601f19601f8301169050919050565b5f610d0782610cc5565b610d118185610ccf565b9350610d21818560208601610cdf565b610d2a81610ced565b840191505092915050565b5f63ffffffff82169050919050565b610d4d81610d35565b82525050565b5f61ffff82169050919050565b610d6981610d53565b82525050565b5f60ff82169050919050565b610d8481610d6f565b82525050565b5f60c0820190508181035f830152610da28189610cfd565b9050610db16020830188610d44565b610dbe6040830187610d44565b610dcb6060830186610d44565b610dd86080830185610d60565b610de560a0830184610d7b565b979650505050505050565b5f5ffd5b5f5ffd5b7f4e487b71000000000000000000000000000000000000000000000000000000005f52604160045260245ffd5b610e2e82610ced565b810181811067ffffffffffffffff82111715610e4d57610e4c610df8565b5b80604052505050565b5f610e5f610bfe565b9050610e6b8282610e25565b919050565b5f67ffffffffffffffff821115610e8a57610e89610df8565b5b610e9382610ced565b9050602081019050919050565b828183375f83830152505050565b5f610ec0610ebb84610e70565b610e56565b905082815260208101848484011115610edc57610edb610df4565b5b610ee7848285610ea0565b509392505050565b5f82601f830112610f0357610f02610df0565b5b8135610f13848260208601610eae565b91505092915050565b5f60208284031215610f3157610f30610c07565b5b5f82013567ffffffffffffffff811115610f4e57610f4d610c0b565b5b610f5a84828501610eef565b91505092915050565b610f6c81610d35565b8114610f76575f5ffd5b50565b5f81359050610f8781610f63565b92915050565b610f9681610d53565b8114610fa0575f5ffd5b50565b5f81359050610fb181610f8d565b92915050565b610fc081610d6f565b8114610fca575f5ffd5b50565b5f81359050610fdb81610fb7565b92915050565b5f5f5f5f5f5f60c08789031215610ffb57610ffa610c07565b5b5f87013567ffffffffffffffff81111561101857611017610c0b565b5b61102489828a01610eef565b965050602061103589828a01610f79565b955050604061104689828a01610f79565b945050606061105789828a01610f79565b935050608061106889828a01610fa3565b92505060a061107989828a01610fcd565b9150509295509295509295565b5f6080820190508181035f83015261109e8187610cfd565b90506110ad6020830186610d60565b6110ba6040830185610d44565b6110c76060830184610d60565b95945050505050565b6110d981610c8c565b81146110e3575f5ffd5b50565b5f813590506110f4816110d0565b92915050565b5f6020828403121561110f5761110e610c07565b5b5f61111c848285016110e6565b91505092915050565b61112e81610c0f565b82525050565b5f6020820190506111475f830184611125565b92915050565b7f4e487b71000000000000000000000000000000000000000000000000000000005f52602260045260245ffd5b5f600282049050600182168061119157607f821691505b6020821081036111a4576111a361114d565b5b50919050565b7f4a7564676520616c7265616479206578736973747300000000000000000000005f82015250565b5f6111de601583610ccf565b91506111e9826111aa565b602082019050919050565b5f6020820190508181035f83015261120b816111d2565b9050919050565b5f819050815f5260205f209050919050565b5f6020601f8301049050919050565b5f82821b905092915050565b5f6008830261126e7fffffffffffffffffffffffffffffffffffffffffffffffffffffffffffffffff82611233565b6112788683611233565b95508019841693508086168417925050509392505050565b5f819050919050565b5f6112b36112ae6112a984610c0f565b611290565b610c0f565b9050919050565b5f819050919050565b6112cc83611299565b6112e06112d8826112ba565b84845461123f565b825550505050565b5f5f905090565b6112f76112e8565b6113028184846112c3565b505050565b5b818110156113255761131a5f826112ef565b600181019050611308565b5050565b601f82111561136a5761133b81611212565b61134484611224565b81016020851015611353578190505b61136761135f85611224565b830182611307565b50505b505050565b5f82821c905092915050565b5f61138a5f198460080261136f565b1980831691505092915050565b5f6113a2838361137b565b9150826002028217905092915050565b6113bb82610cc5565b67ffffffffffffffff8111156113d4576113d3610df8565b5b6113de825461117a565b6113e9828285611329565b5f60209050601f83116001811461141a575f8415611408578287015190505b6114128582611397565b865550611479565b601f19841661142886611212565b5f5b8281101561144f5784890151825560018201915060208501945060208101905061142a565b8683101561146c5784890151611468601f89168261137b565b8355505b6001600288020188555050505b505050505050565b7f4e487b71000000000000000000000000000000000000000000000000000000005f52601160045260245ffd5b5f6114b882610c0f565b91506114c383610c0f565b92508282039050818111156114db576114da611481565b5b92915050565b5f6040820190506114f45f830185611125565b81810360208301526115068184610cfd565b9050939250505056fea2646970667358221220cbe6e863523c8cb06ca08ae7b259a9768b1898174f2e21fc641768905c44178964736f6c634300081e0033",
					"opcodes": "PUSH1 0x80 PUSH1 0x40 MSTORE CALLVALUE DUP1 ISZERO PUSH2 0xF JUMPI PUSH0 PUSH0 REVERT JUMPDEST POP CALLER PUSH0 PUSH20 0xFFFFFFFFFFFFFFFFFFFFFFFFFFFFFFFFFFFFFFFF AND DUP2 PUSH20 0xFFFFFFFFFFFFFFFFFFFFFFFFFFFFFFFFFFFFFFFF AND SUB PUSH2 0x81 JUMPI PUSH0 PUSH1 0x40 MLOAD PUSH32 0x1E4FBDF700000000000000000000000000000000000000000000000000000000 DUP2 MSTORE PUSH1 0x4 ADD PUSH2 0x78 SWAP2 SWAP1 PUSH2 0x2E0 JUMP JUMPDEST PUSH1 0x40 MLOAD DUP1 SWAP2 SUB SWAP1 REVERT JUMPDEST PUSH2 0x90 DUP2 PUSH2 0x1E0 PUSH1 0x20 SHL PUSH1 0x20 SHR JUMP JUMPDEST POP PUSH1 0x5 PUSH1 0x40 MLOAD DUP1 PUSH1 0xC0 ADD PUSH1 0x40 MSTORE DUP1 PUSH1 0x40 MLOAD DUP1 PUSH1 0x20 ADD PUSH1 0x40 MSTORE DUP1 PUSH0 DUP2 MSTORE POP DUP2 MSTORE PUSH1 0x20 ADD PUSH0 PUSH4 0xFFFFFFFF AND DUP2 MSTORE PUSH1 0x20 ADD PUSH0 PUSH4 0xFFFFFFFF AND DUP2 MSTORE PUSH1 0x20 ADD PUSH0 PUSH4 0xFFFFFFFF AND DUP2 MSTORE PUSH1 0x20 ADD PUSH0 PUSH2 0xFFFF AND DUP2 MSTORE PUSH1 0x20 ADD PUSH0 PUSH1 0xFF AND DUP2 MSTORE POP SWAP1 DUP1 PUSH1 0x1 DUP2 SLOAD ADD DUP1 DUP3 SSTORE DUP1 SWAP2 POP POP PUSH1 0x1 SWAP1 SUB SWAP1 PUSH0 MSTORE PUSH1 0x20 PUSH0 KECCAK256 SWAP1 PUSH1 0x2 MUL ADD PUSH0 SWAP1 SWAP2 SWAP1 SWAP2 SWAP1 SWAP2 POP PUSH0 DUP3 ADD MLOAD DUP2 PUSH0 ADD SWAP1 DUP2 PUSH2 0x120 SWAP2 SWAP1 PUSH2 0x536 JUMP JUMPDEST POP PUSH1 0x20 DUP3 ADD MLOAD DUP2 PUSH1 0x1 ADD PUSH0 PUSH2 0x100 EXP DUP2 SLOAD DUP2 PUSH4 0xFFFFFFFF MUL NOT AND SWAP1 DUP4 PUSH4 0xFFFFFFFF AND MUL OR SWAP1 SSTORE POP PUSH1 0x40 DUP3 ADD MLOAD DUP2 PUSH1 0x1 ADD PUSH1 0x4 PUSH2 0x100 EXP DUP2 SLOAD DUP2 PUSH4 0xFFFFFFFF MUL NOT AND SWAP1 DUP4 PUSH4 0xFFFFFFFF AND MUL OR SWAP1 SSTORE POP PUSH1 0x60 DUP3 ADD MLOAD DUP2 PUSH1 0x1 ADD PUSH1 0x8 PUSH2 0x100 EXP DUP2 SLOAD DUP2 PUSH4 0xFFFFFFFF MUL NOT AND SWAP1 DUP4 PUSH4 0xFFFFFFFF AND MUL OR SWAP1 SSTORE POP PUSH1 0x80 DUP3 ADD MLOAD DUP2 PUSH1 0x1 ADD PUSH1 0xC PUSH2 0x100 EXP DUP2 SLOAD DUP2 PUSH2 0xFFFF MUL NOT AND SWAP1 DUP4 PUSH2 0xFFFF AND MUL OR SWAP1 SSTORE POP PUSH1 0xA0 DUP3 ADD MLOAD DUP2 PUSH1 0x1 ADD PUSH1 0xE PUSH2 0x100 EXP DUP2 SLOAD DUP2 PUSH1 0xFF MUL NOT AND SWAP1 DUP4 PUSH1 0xFF AND MUL OR SWAP1 SSTORE POP POP POP PUSH2 0x605 JUMP JUMPDEST PUSH0 PUSH0 PUSH0 SWAP1 SLOAD SWAP1 PUSH2 0x100 EXP SWAP1 DIV PUSH20 0xFFFFFFFFFFFFFFFFFFFFFFFFFFFFFFFFFFFFFFFF AND SWAP1 POP DUP2 PUSH0 PUSH0 PUSH2 0x100 EXP DUP2 SLOAD DUP2 PUSH20 0xFFFFFFFFFFFFFFFFFFFFFFFFFFFFFFFFFFFFFFFF MUL NOT AND SWAP1 DUP4 PUSH20 0xFFFFFFFFFFFFFFFFFFFFFFFFFFFFFFFFFFFFFFFF AND MUL OR SWAP1 SSTORE POP DUP2 PUSH20 0xFFFFFFFFFFFFFFFFFFFFFFFFFFFFFFFFFFFFFFFF AND DUP2 PUSH20 0xFFFFFFFFFFFFFFFFFFFFFFFFFFFFFFFFFFFFFFFF AND PUSH32 0x8BE0079C531659141344CD1FD0A4F28419497F9722A3DAAFE3B4186F6B6457E0 PUSH1 0x40 MLOAD PUSH1 0x40 MLOAD DUP1 SWAP2 SUB SWAP1 LOG3 POP POP JUMP JUMPDEST PUSH0 PUSH20 0xFFFFFFFFFFFFFFFFFFFFFFFFFFFFFFFFFFFFFFFF DUP3 AND SWAP1 POP SWAP2 SWAP1 POP JUMP JUMPDEST PUSH0 PUSH2 0x2CA DUP3 PUSH2 0x2A1 JUMP JUMPDEST SWAP1 POP SWAP2 SWAP1 POP JUMP JUMPDEST PUSH2 0x2DA DUP2 PUSH2 0x2C0 JUMP JUMPDEST DUP3 MSTORE POP POP JUMP JUMPDEST PUSH0 PUSH1 0x20 DUP3 ADD SWAP1 POP PUSH2 0x2F3 PUSH0 DUP4 ADD DUP5 PUSH2 0x2D1 JUMP JUMPDEST SWAP3 SWAP2 POP POP JUMP JUMPDEST PUSH0 DUP2 MLOAD SWAP1 POP SWAP2 SWAP1 POP JUMP JUMPDEST PUSH32 0x4E487B7100000000000000000000000000000000000000000000000000000000 PUSH0 MSTORE PUSH1 0x41 PUSH1 0x4 MSTORE PUSH1 0x24 PUSH0 REVERT JUMPDEST PUSH32 0x4E487B7100000000000000000000000000000000000000000000000000000000 PUSH0 MSTORE PUSH1 0x22 PUSH1 0x4 MSTORE PUSH1 0x24 PUSH0 REVERT JUMPDEST PUSH0 PUSH1 0x2 DUP3 DIV SWAP1 POP PUSH1 0x1 DUP3 AND DUP1 PUSH2 0x374 JUMPI PUSH1 0x7F DUP3 AND SWAP2 POP JUMPDEST PUSH1 0x20 DUP3 LT DUP2 SUB PUSH2 0x387 JUMPI PUSH2 0x386 PUSH2 0x330 JUMP JUMPDEST JUMPDEST POP SWAP2 SWAP1 POP JUMP JUMPDEST PUSH0 DUP2 SWAP1 POP DUP2 PUSH0 MSTORE PUSH1 0x20 PUSH0 KECCAK256 SWAP1 POP SWAP2 SWAP1 POP JUMP JUMPDEST PUSH0 PUSH1 0x20 PUSH1 0x1F DUP4 ADD DIV SWAP1 POP SWAP2 SWAP1 POP JUMP JUMPDEST PUSH0 DUP3 DUP3 SHL SWAP1 POP SWAP3 SWAP2 POP POP JUMP JUMPDEST PUSH0 PUSH1 0x8 DUP4 MUL PUSH2 0x3E9 PUSH32 0xFFFFFFFFFFFFFFFFFFFFFFFFFFFFFFFFFFFFFFFFFFFFFFFFFFFFFFFFFFFFFFFF DUP3 PUSH2 0x3AE JUMP JUMPDEST PUSH2 0x3F3 DUP7 DUP4 PUSH2 0x3AE JUMP JUMPDEST SWAP6 POP DUP1 NOT DUP5 AND SWAP4 POP DUP1 DUP7 AND DUP5 OR SWAP3 POP POP POP SWAP4 SWAP3 POP POP POP JUMP JUMPDEST PUSH0 DUP2 SWAP1 POP SWAP2 SWAP1 POP JUMP JUMPDEST PUSH0 DUP2 SWAP1 POP SWAP2 SWAP1 POP JUMP JUMPDEST PUSH0 PUSH2 0x437 PUSH2 0x432 PUSH2 0x42D DUP5 PUSH2 0x40B JUMP JUMPDEST PUSH2 0x414 JUMP JUMPDEST PUSH2 0x40B JUMP JUMPDEST SWAP1 POP SWAP2 SWAP1 POP JUMP JUMPDEST PUSH0 DUP2 SWAP1 POP SWAP2 SWAP1 POP JUMP JUMPDEST PUSH2 0x450 DUP4 PUSH2 0x41D JUMP JUMPDEST PUSH2 0x464 PUSH2 0x45C DUP3 PUSH2 0x43E JUMP JUMPDEST DUP5 DUP5 SLOAD PUSH2 0x3BA JUMP JUMPDEST DUP3 SSTORE POP POP POP POP JUMP JUMPDEST PUSH0 PUSH0 SWAP1 POP SWAP1 JUMP JUMPDEST PUSH2 0x47B PUSH2 0x46C JUMP JUMPDEST PUSH2 0x486 DUP2 DUP5 DUP5 PUSH2 0x447 JUMP JUMPDEST POP POP POP JUMP JUMPDEST JUMPDEST DUP2 DUP2 LT ISZERO PUSH2 0x4A9 JUMPI PUSH2 0x49E PUSH0 DUP3 PUSH2 0x473 JUMP JUMPDEST PUSH1 0x1 DUP2 ADD SWAP1 POP PUSH2 0x48C JUMP JUMPDEST POP POP JUMP JUMPDEST PUSH1 0x1F DUP3 GT ISZERO PUSH2 0x4EE JUMPI PUSH2 0x4BF DUP2 PUSH2 0x38D JUMP JUMPDEST PUSH2 0x4C8 DUP5 PUSH2 0x39F JUMP JUMPDEST DUP2 ADD PUSH1 0x20 DUP6 LT ISZERO PUSH2 0x4D7 JUMPI DUP2 SWAP1 POP JUMPDEST PUSH2 0x4EB PUSH2 0x4E3 DUP6 PUSH2 0x39F JUMP JUMPDEST DUP4 ADD DUP3 PUSH2 0x48B JUMP JUMPDEST POP POP JUMPDEST POP POP POP JUMP JUMPDEST PUSH0 DUP3 DUP3 SHR SWAP1 POP SWAP3 SWAP2 POP POP JUMP JUMPDEST PUSH0 PUSH2 0x50E PUSH0 NOT DUP5 PUSH1 0x8 MUL PUSH2 0x4F3 JUMP JUMPDEST NOT DUP1 DUP4 AND SWAP2 POP POP SWAP3 SWAP2 POP POP JUMP JUMPDEST PUSH0 PUSH2 0x526 DUP4 DUP4 PUSH2 0x4FF JUMP JUMPDEST SWAP2 POP DUP3 PUSH1 0x2 MUL DUP3 OR SWAP1 POP SWAP3 SWAP2 POP POP JUMP JUMPDEST PUSH2 0x53F DUP3 PUSH2 0x2F9 JUMP JUMPDEST PUSH8 0xFFFFFFFFFFFFFFFF DUP2 GT ISZERO PUSH2 0x558 JUMPI PUSH2 0x557 PUSH2 0x303 JUMP JUMPDEST JUMPDEST PUSH2 0x562 DUP3 SLOAD PUSH2 0x35D JUMP JUMPDEST PUSH2 0x56D DUP3 DUP3 DUP6 PUSH2 0x4AD JUMP JUMPDEST PUSH0 PUSH1 0x20 SWAP1 POP PUSH1 0x1F DUP4 GT PUSH1 0x1 DUP2 EQ PUSH2 0x59E JUMPI PUSH0 DUP5 ISZERO PUSH2 0x58C JUMPI DUP3 DUP8 ADD MLOAD SWAP1 POP JUMPDEST PUSH2 0x596 DUP6 DUP3 PUSH2 0x51B JUMP JUMPDEST DUP7 SSTORE POP PUSH2 0x5FD JUMP JUMPDEST PUSH1 0x1F NOT DUP5 AND PUSH2 0x5AC DUP7 PUSH2 0x38D JUMP JUMPDEST PUSH0 JUMPDEST DUP3 DUP2 LT ISZERO PUSH2 0x5D3 JUMPI DUP5 DUP10 ADD MLOAD DUP3 SSTORE PUSH1 0x1 DUP3 ADD SWAP2 POP PUSH1 0x20 DUP6 ADD SWAP5 POP PUSH1 0x20 DUP2 ADD SWAP1 POP PUSH2 0x5AE JUMP JUMPDEST DUP7 DUP4 LT ISZERO PUSH2 0x5F0 JUMPI DUP5 DUP10 ADD MLOAD PUSH2 0x5EC PUSH1 0x1F DUP10 AND DUP3 PUSH2 0x4FF JUMP JUMPDEST DUP4 SSTORE POP JUMPDEST PUSH1 0x1 PUSH1 0x2 DUP9 MUL ADD DUP9 SSTORE POP POP POP JUMPDEST POP POP POP POP POP POP JUMP JUMPDEST PUSH2 0x1545 DUP1 PUSH2 0x612 PUSH0 CODECOPY PUSH0 RETURN INVALID PUSH1 0x80 PUSH1 0x40 MSTORE CALLVALUE DUP1 ISZERO PUSH2 0xF JUMPI PUSH0 PUSH0 REVERT JUMPDEST POP PUSH1 0x4 CALLDATASIZE LT PUSH2 0xA7 JUMPI PUSH0 CALLDATALOAD PUSH1 0xE0 SHR DUP1 PUSH4 0x8DA5CB5B GT PUSH2 0x6F JUMPI DUP1 PUSH4 0x8DA5CB5B EQ PUSH2 0x166 JUMPI DUP1 PUSH4 0x9F8E1766 EQ PUSH2 0x184 JUMPI DUP1 PUSH4 0xA28DA4A6 EQ PUSH2 0x1A0 JUMPI DUP1 PUSH4 0xB06B0368 EQ PUSH2 0x1D5 JUMPI DUP1 PUSH4 0xF089F7C3 EQ PUSH2 0x208 JUMPI DUP1 PUSH4 0xF2FDE38B EQ PUSH2 0x238 JUMPI PUSH2 0xA7 JUMP JUMPDEST DUP1 PUSH4 0xD292732 EQ PUSH2 0xAB JUMPI DUP1 PUSH4 0x2E6B221D EQ PUSH2 0xDB JUMPI DUP1 PUSH4 0x3824FBEC EQ PUSH2 0x110 JUMPI DUP1 PUSH4 0x5F6FDDDF EQ PUSH2 0x140 JUMPI DUP1 PUSH4 0x715018A6 EQ PUSH2 0x15C JUMPI JUMPDEST PUSH0 PUSH0 REVERT JUMPDEST PUSH2 0xC5 PUSH1 0x4 DUP1 CALLDATASIZE SUB DUP2 ADD SWAP1 PUSH2 0xC0 SWAP2 SWAP1 PUSH2 0xC42 JUMP JUMPDEST PUSH2 0x254 JUMP JUMPDEST PUSH1 0x40 MLOAD PUSH2 0xD2 SWAP2 SWAP1 PUSH2 0xCAC JUMP JUMPDEST PUSH1 0x40 MLOAD DUP1 SWAP2 SUB SWAP1 RETURN JUMPDEST PUSH2 0xF5 PUSH1 0x4 DUP1 CALLDATASIZE SUB DUP2 ADD SWAP1 PUSH2 0xF0 SWAP2 SWAP1 PUSH2 0xC42 JUMP JUMPDEST PUSH2 0x284 JUMP JUMPDEST PUSH1 0x40 MLOAD PUSH2 0x107 SWAP7 SWAP6 SWAP5 SWAP4 SWAP3 SWAP2 SWAP1 PUSH2 0xD8A JUMP JUMPDEST PUSH1 0x40 MLOAD DUP1 SWAP2 SUB SWAP1 RETURN JUMPDEST PUSH2 0x12A PUSH1 0x4 DUP1 CALLDATASIZE SUB DUP2 ADD SWAP1 PUSH2 0x125 SWAP2 SWAP1 PUSH2 0xC42 JUMP JUMPDEST PUSH2 0x39B JUMP JUMPDEST PUSH1 0x40 MLOAD PUSH2 0x137 SWAP2 SWAP1 PUSH2 0xCAC JUMP JUMPDEST PUSH1 0x40 MLOAD DUP1 SWAP2 SUB SWAP1 RETURN JUMPDEST PUSH2 0x15A PUSH1 0x4 DUP1 CALLDATASIZE SUB DUP2 ADD SWAP1 PUSH2 0x155 SWAP2 SWAP1 PUSH2 0xF1C JUMP JUMPDEST PUSH2 0x3CB JUMP JUMPDEST STOP JUMPDEST PUSH2 0x164 PUSH2 0x606 JUMP JUMPDEST STOP JUMPDEST PUSH2 0x16E PUSH2 0x619 JUMP JUMPDEST PUSH1 0x40 MLOAD PUSH2 0x17B SWAP2 SWAP1 PUSH2 0xCAC JUMP JUMPDEST PUSH1 0x40 MLOAD DUP1 SWAP2 SUB SWAP1 RETURN JUMPDEST PUSH2 0x19E PUSH1 0x4 DUP1 CALLDATASIZE SUB DUP2 ADD SWAP1 PUSH2 0x199 SWAP2 SWAP1 PUSH2 0xFE1 JUMP JUMPDEST PUSH2 0x640 JUMP JUMPDEST STOP JUMPDEST PUSH2 0x1BA PUSH1 0x4 DUP1 CALLDATASIZE SUB DUP2 ADD SWAP1 PUSH2 0x1B5 SWAP2 SWAP1 PUSH2 0xC42 JUMP JUMPDEST PUSH2 0x822 JUMP JUMPDEST PUSH1 0x40 MLOAD PUSH2 0x1CC SWAP7 SWAP6 SWAP5 SWAP4 SWAP3 SWAP2 SWAP1 PUSH2 0xD8A JUMP JUMPDEST PUSH1 0x40 MLOAD DUP1 SWAP2 SUB SWAP1 RETURN JUMPDEST PUSH2 0x1EF PUSH1 0x4 DUP1 CALLDATASIZE SUB DUP2 ADD SWAP1 PUSH2 0x1EA SWAP2 SWAP1 PUSH2 0xC42 JUMP JUMPDEST PUSH2 0x92A JUMP JUMPDEST PUSH1 0x40 MLOAD PUSH2 0x1FF SWAP5 SWAP4 SWAP3 SWAP2 SWAP1 PUSH2 0x1086 JUMP JUMPDEST PUSH1 0x40 MLOAD DUP1 SWAP2 SUB SWAP1 RETURN JUMPDEST PUSH2 0x222 PUSH1 0x4 DUP1 CALLDATASIZE SUB DUP2 ADD SWAP1 PUSH2 0x21D SWAP2 SWAP1 PUSH2 0x10FA JUMP JUMPDEST PUSH2 0xA16 JUMP JUMPDEST PUSH1 0x40 MLOAD PUSH2 0x22F SWAP2 SWAP1 PUSH2 0x1134 JUMP JUMPDEST PUSH1 0x40 MLOAD DUP1 SWAP2 SUB SWAP1 RETURN JUMPDEST PUSH2 0x252 PUSH1 0x4 DUP1 CALLDATASIZE SUB DUP2 ADD SWAP1 PUSH2 0x24D SWAP2 SWAP1 PUSH2 0x10FA JUMP JUMPDEST PUSH2 0xA2B JUMP JUMPDEST STOP JUMPDEST PUSH1 0x2 PUSH1 0x20 MSTORE DUP1 PUSH0 MSTORE PUSH1 0x40 PUSH0 KECCAK256 PUSH0 SWAP2 POP SLOAD SWAP1 PUSH2 0x100 EXP SWAP1 DIV PUSH20 0xFFFFFFFFFFFFFFFFFFFFFFFFFFFFFFFFFFFFFFFF AND DUP2 JUMP JUMPDEST PUSH1 0x5 DUP2 DUP2 SLOAD DUP2 LT PUSH2 0x293 JUMPI PUSH0 DUP1 REVERT JUMPDEST SWAP1 PUSH0 MSTORE PUSH1 0x20 PUSH0 KECCAK256 SWAP1 PUSH1 0x2 MUL ADD PUSH0 SWAP2 POP SWAP1 POP DUP1 PUSH0 ADD DUP1 SLOAD PUSH2 0x2B2 SWAP1 PUSH2 0x117A JUMP JUMPDEST DUP1 PUSH1 0x1F ADD PUSH1 0x20 DUP1 SWAP2 DIV MUL PUSH1 0x20 ADD PUSH1 0x40 MLOAD SWAP1 DUP2 ADD PUSH1 0x40 MSTORE DUP1 SWAP3 SWAP2 SWAP1 DUP2 DUP2 MSTORE PUSH1 0x20 ADD DUP3 DUP1 SLOAD PUSH2 0x2DE SWAP1 PUSH2 0x117A JUMP JUMPDEST DUP1 ISZERO PUSH2 0x329 JUMPI DUP1 PUSH1 0x1F LT PUSH2 0x300 JUMPI PUSH2 0x100 DUP1 DUP4 SLOAD DIV MUL DUP4 MSTORE SWAP2 PUSH1 0x20 ADD SWAP2 PUSH2 0x329 JUMP JUMPDEST DUP3 ADD SWAP2 SWAP1 PUSH0 MSTORE PUSH1 0x20 PUSH0 KECCAK256 SWAP1 JUMPDEST DUP2 SLOAD DUP2 MSTORE SWAP1 PUSH1 0x1 ADD SWAP1 PUSH1 0x20 ADD DUP1 DUP4 GT PUSH2 0x30C JUMPI DUP3 SWAP1 SUB PUSH1 0x1F AND DUP3 ADD SWAP2 JUMPDEST POP POP POP POP POP SWAP1 DUP1 PUSH1 0x1 ADD PUSH0 SWAP1 SLOAD SWAP1 PUSH2 0x100 EXP SWAP1 DIV PUSH4 0xFFFFFFFF AND SWAP1 DUP1 PUSH1 0x1 ADD PUSH1 0x4 SWAP1 SLOAD SWAP1 PUSH2 0x100 EXP SWAP1 DIV PUSH4 0xFFFFFFFF AND SWAP1 DUP1 PUSH1 0x1 ADD PUSH1 0x8 SWAP1 SLOAD SWAP1 PUSH2 0x100 EXP SWAP1 DIV PUSH4 0xFFFFFFFF AND SWAP1 DUP1 PUSH1 0x1 ADD PUSH1 0xC SWAP1 SLOAD SWAP1 PUSH2 0x100 EXP SWAP1 DIV PUSH2 0xFFFF AND SWAP1 DUP1 PUSH1 0x1 ADD PUSH1 0xE SWAP1 SLOAD SWAP1 PUSH2 0x100 EXP SWAP1 DIV PUSH1 0xFF AND SWAP1 POP DUP7 JUMP JUMPDEST PUSH1 0x6 PUSH1 0x20 MSTORE DUP1 PUSH0 MSTORE PUSH1 0x40 PUSH0 KECCAK256 PUSH0 SWAP2 POP SLOAD SWAP1 PUSH2 0x100 EXP SWAP1 DIV PUSH20 0xFFFFFFFFFFFFFFFFFFFFFFFFFFFFFFFFFFFFFFFF AND DUP2 JUMP JUMPDEST PUSH0 PUSH1 0x3 PUSH0 CALLER PUSH20 0xFFFFFFFFFFFFFFFFFFFFFFFFFFFFFFFFFFFFFFFF AND PUSH20 0xFFFFFFFFFFFFFFFFFFFFFFFFFFFFFFFFFFFFFFFF AND DUP2 MSTORE PUSH1 0x20 ADD SWAP1 DUP2 MSTORE PUSH1 0x20 ADD PUSH0 KECCAK256 SLOAD EQ PUSH2 0x44A JUMPI PUSH1 0x40 MLOAD PUSH32 0x8C379A000000000000000000000000000000000000000000000000000000000 DUP2 MSTORE PUSH1 0x4 ADD PUSH2 0x441 SWAP1 PUSH2 0x11F4 JUMP JUMPDEST PUSH1 0x40 MLOAD DUP1 SWAP2 SUB SWAP1 REVERT JUMPDEST PUSH1 0x1 PUSH1 0x40 MLOAD DUP1 PUSH1 0x80 ADD PUSH1 0x40 MSTORE DUP1 DUP4 DUP2 MSTORE PUSH1 0x20 ADD PUSH1 0x1 PUSH2 0xFFFF AND DUP2 MSTORE PUSH1 0x20 ADD PUSH0 PUSH4 0xFFFFFFFF AND DUP2 MSTORE PUSH1 0x20 ADD PUSH0 PUSH2 0xFFFF AND DUP2 MSTORE POP SWAP1 DUP1 PUSH1 0x1 DUP2 SLOAD ADD DUP1 DUP3 SSTORE DUP1 SWAP2 POP POP PUSH1 0x1 SWAP1 SUB SWAP1 PUSH0 MSTORE PUSH1 0x20 PUSH0 KECCAK256 SWAP1 PUSH1 0x2 MUL ADD PUSH0 SWAP1 SWAP2 SWAP1 SWAP2 SWAP1 SWAP2 POP PUSH0 DUP3 ADD MLOAD DUP2 PUSH0 ADD SWAP1 DUP2 PUSH2 0x4B5 SWAP2 SWAP1 PUSH2 0x13B2 JUMP JUMPDEST POP PUSH1 0x20 DUP3 ADD MLOAD DUP2 PUSH1 0x1 ADD PUSH0 PUSH2 0x100 EXP DUP2 SLOAD DUP2 PUSH2 0xFFFF MUL NOT AND SWAP1 DUP4 PUSH2 0xFFFF AND MUL OR SWAP1 SSTORE POP PUSH1 0x40 DUP3 ADD MLOAD DUP2 PUSH1 0x1 ADD PUSH1 0x2 PUSH2 0x100 EXP DUP2 SLOAD DUP2 PUSH4 0xFFFFFFFF MUL NOT AND SWAP1 DUP4 PUSH4 0xFFFFFFFF AND MUL OR SWAP1 SSTORE POP PUSH1 0x60 DUP3 ADD MLOAD DUP2 PUSH1 0x1 ADD PUSH1 0x6 PUSH2 0x100 EXP DUP2 SLOAD DUP2 PUSH2 0xFFFF MUL NOT AND SWAP1 DUP4 PUSH2 0xFFFF AND MUL OR SWAP1 SSTORE POP POP POP PUSH0 PUSH1 0x1 DUP1 DUP1 SLOAD SWAP1 POP PUSH2 0x536 SWAP2 SWAP1 PUSH2 0x14AE JUMP JUMPDEST SWAP1 POP CALLER PUSH1 0x2 PUSH0 DUP4 DUP2 MSTORE PUSH1 0x20 ADD SWAP1 DUP2 MSTORE PUSH1 0x20 ADD PUSH0 KECCAK256 PUSH0 PUSH2 0x100 EXP DUP2 SLOAD DUP2 PUSH20 0xFFFFFFFFFFFFFFFFFFFFFFFFFFFFFFFFFFFFFFFF MUL NOT AND SWAP1 DUP4 PUSH20 0xFFFFFFFFFFFFFFFFFFFFFFFFFFFFFFFFFFFFFFFF AND MUL OR SWAP1 SSTORE POP DUP1 PUSH1 0x3 PUSH0 CALLER PUSH20 0xFFFFFFFFFFFFFFFFFFFFFFFFFFFFFFFFFFFFFFFF AND PUSH20 0xFFFFFFFFFFFFFFFFFFFFFFFFFFFFFFFFFFFFFFFF AND DUP2 MSTORE PUSH1 0x20 ADD SWAP1 DUP2 MSTORE PUSH1 0x20 ADD PUSH0 KECCAK256 DUP2 SWAP1 SSTORE POP PUSH32 0x41B82268D4CFCB7BDE62BAE060583C745A4821F267E1FE541B5F624E00D43C7D DUP2 DUP4 PUSH1 0x40 MLOAD PUSH2 0x5FA SWAP3 SWAP2 SWAP1 PUSH2 0x14E1 JUMP JUMPDEST PUSH1 0x40 MLOAD DUP1 SWAP2 SUB SWAP1 LOG1 POP POP JUMP JUMPDEST PUSH2 0x60E PUSH2 0xAAF JUMP JUMPDEST PUSH2 0x617 PUSH0 PUSH2 0xB36 JUMP JUMPDEST JUMP JUMPDEST PUSH0 PUSH0 PUSH0 SWAP1 SLOAD SWAP1 PUSH2 0x100 EXP SWAP1 DIV PUSH20 0xFFFFFFFFFFFFFFFFFFFFFFFFFFFFFFFFFFFFFFFF AND SWAP1 POP SWAP1 JUMP JUMPDEST PUSH1 0x5 PUSH1 0x40 MLOAD DUP1 PUSH1 0xC0 ADD PUSH1 0x40 MSTORE DUP1 DUP9 DUP2 MSTORE PUSH1 0x20 ADD DUP8 PUSH4 0xFFFFFFFF AND DUP2 MSTORE PUSH1 0x20 ADD DUP7 PUSH4 0xFFFFFFFF AND DUP2 MSTORE PUSH1 0x20 ADD DUP6 PUSH4 0xFFFFFFFF AND DUP2 MSTORE PUSH1 0x20 ADD DUP5 PUSH2 0xFFFF AND DUP2 MSTORE PUSH1 0x20 ADD DUP4 PUSH1 0xFF AND DUP2 MSTORE POP SWAP1 DUP1 PUSH1 0x1 DUP2 SLOAD ADD DUP1 DUP3 SSTORE DUP1 SWAP2 POP POP PUSH1 0x1 SWAP1 SUB SWAP1 PUSH0 MSTORE PUSH1 0x20 PUSH0 KECCAK256 SWAP1 PUSH1 0x2 MUL ADD PUSH0 SWAP1 SWAP2 SWAP1 SWAP2 SWAP1 SWAP2 POP PUSH0 DUP3 ADD MLOAD DUP2 PUSH0 ADD SWAP1 DUP2 PUSH2 0x6C1 SWAP2 SWAP1 PUSH2 0x13B2 JUMP JUMPDEST POP PUSH1 0x20 DUP3 ADD MLOAD DUP2 PUSH1 0x1 ADD PUSH0 PUSH2 0x100 EXP DUP2 SLOAD DUP2 PUSH4 0xFFFFFFFF MUL NOT AND SWAP1 DUP4 PUSH4 0xFFFFFFFF AND MUL OR SWAP1 SSTORE POP PUSH1 0x40 DUP3 ADD MLOAD DUP2 PUSH1 0x1 ADD PUSH1 0x4 PUSH2 0x100 EXP DUP2 SLOAD DUP2 PUSH4 0xFFFFFFFF MUL NOT AND SWAP1 DUP4 PUSH4 0xFFFFFFFF AND MUL OR SWAP1 SSTORE POP PUSH1 0x60 DUP3 ADD MLOAD DUP2 PUSH1 0x1 ADD PUSH1 0x8 PUSH2 0x100 EXP DUP2 SLOAD DUP2 PUSH4 0xFFFFFFFF MUL NOT AND SWAP1 DUP4 PUSH4 0xFFFFFFFF AND MUL OR SWAP1 SSTORE POP PUSH1 0x80 DUP3 ADD MLOAD DUP2 PUSH1 0x1 ADD PUSH1 0xC PUSH2 0x100 EXP DUP2 SLOAD DUP2 PUSH2 0xFFFF MUL NOT AND SWAP1 DUP4 PUSH2 0xFFFF AND MUL OR SWAP1 SSTORE POP PUSH1 0xA0 DUP3 ADD MLOAD DUP2 PUSH1 0x1 ADD PUSH1 0xE PUSH2 0x100 EXP DUP2 SLOAD DUP2 PUSH1 0xFF MUL NOT AND SWAP1 DUP4 PUSH1 0xFF AND MUL OR SWAP1 SSTORE POP POP POP PUSH0 PUSH1 0x1 PUSH1 0x5 DUP1 SLOAD SWAP1 POP PUSH2 0x78F SWAP2 SWAP1 PUSH2 0x14AE JUMP JUMPDEST SWAP1 POP CALLER PUSH1 0x6 PUSH0 DUP4 DUP2 MSTORE PUSH1 0x20 ADD SWAP1 DUP2 MSTORE PUSH1 0x20 ADD PUSH0 KECCAK256 PUSH0 PUSH2 0x100 EXP DUP2 SLOAD DUP2 PUSH20 0xFFFFFFFFFFFFFFFFFFFFFFFFFFFFFFFFFFFFFFFF MUL NOT AND SWAP1 DUP4 PUSH20 0xFFFFFFFFFFFFFFFFFFFFFFFFFFFFFFFFFFFFFFFF AND MUL OR SWAP1 SSTORE POP PUSH32 0xCF0B1657BF9A3ADD4678D1909D3FDCDB613A214497EB0D3C6B946DEE91975838 DUP2 DUP9 PUSH1 0x40 MLOAD PUSH2 0x811 SWAP3 SWAP2 SWAP1 PUSH2 0x14E1 JUMP JUMPDEST PUSH1 0x40 MLOAD DUP1 SWAP2 SUB SWAP1 LOG1 POP POP POP POP POP POP POP JUMP JUMPDEST PUSH1 0x7 PUSH1 0x20 MSTORE DUP1 PUSH0 MSTORE PUSH1 0x40 PUSH0 KECCAK256 PUSH0 SWAP2 POP SWAP1 POP DUP1 PUSH0 ADD DUP1 SLOAD PUSH2 0x841 SWAP1 PUSH2 0x117A JUMP JUMPDEST DUP1 PUSH1 0x1F ADD PUSH1 0x20 DUP1 SWAP2 DIV MUL PUSH1 0x20 ADD PUSH1 0x40 MLOAD SWAP1 DUP2 ADD PUSH1 0x40 MSTORE DUP1 SWAP3 SWAP2 SWAP1 DUP2 DUP2 MSTORE PUSH1 0x20 ADD DUP3 DUP1 SLOAD PUSH2 0x86D SWAP1 PUSH2 0x117A JUMP JUMPDEST DUP1 ISZERO PUSH2 0x8B8 JUMPI DUP1 PUSH1 0x1F LT PUSH2 0x88F JUMPI PUSH2 0x100 DUP1 DUP4 SLOAD DIV MUL DUP4 MSTORE SWAP2 PUSH1 0x20 ADD SWAP2 PUSH2 0x8B8 JUMP JUMPDEST DUP3 ADD SWAP2 SWAP1 PUSH0 MSTORE PUSH1 0x20 PUSH0 KECCAK256 SWAP1 JUMPDEST DUP2 SLOAD DUP2 MSTORE SWAP1 PUSH1 0x1 ADD SWAP1 PUSH1 0x20 ADD DUP1 DUP4 GT PUSH2 0x89B JUMPI DUP3 SWAP1 SUB PUSH1 0x1F AND DUP3 ADD SWAP2 JUMPDEST POP POP POP POP POP SWAP1 DUP1 PUSH1 0x1 ADD PUSH0 SWAP1 SLOAD SWAP1 PUSH2 0x100 EXP SWAP1 DIV PUSH4 0xFFFFFFFF AND SWAP1 DUP1 PUSH1 0x1 ADD PUSH1 0x4 SWAP1 SLOAD SWAP1 PUSH2 0x100 EXP SWAP1 DIV PUSH4 0xFFFFFFFF AND SWAP1 DUP1 PUSH1 0x1 ADD PUSH1 0x8 SWAP1 SLOAD SWAP1 PUSH2 0x100 EXP SWAP1 DIV PUSH4 0xFFFFFFFF AND SWAP1 DUP1 PUSH1 0x1 ADD PUSH1 0xC SWAP1 SLOAD SWAP1 PUSH2 0x100 EXP SWAP1 DIV PUSH2 0xFFFF AND SWAP1 DUP1 PUSH1 0x1 ADD PUSH1 0xE SWAP1 SLOAD SWAP1 PUSH2 0x100 EXP SWAP1 DIV PUSH1 0xFF AND SWAP1 POP DUP7 JUMP JUMPDEST PUSH1 0x1 DUP2 DUP2 SLOAD DUP2 LT PUSH2 0x939 JUMPI PUSH0 DUP1 REVERT JUMPDEST SWAP1 PUSH0 MSTORE PUSH1 0x20 PUSH0 KECCAK256 SWAP1 PUSH1 0x2 MUL ADD PUSH0 SWAP2 POP SWAP1 POP DUP1 PUSH0 ADD DUP1 SLOAD PUSH2 0x958 SWAP1 PUSH2 0x117A JUMP JUMPDEST DUP1 PUSH1 0x1F ADD PUSH1 0x20 DUP1 SWAP2 DIV MUL PUSH1 0x20 ADD PUSH1 0x40 MLOAD SWAP1 DUP2 ADD PUSH1 0x40 MSTORE DUP1 SWAP3 SWAP2 SWAP1 DUP2 DUP2 MSTORE PUSH1 0x20 ADD DUP3 DUP1 SLOAD PUSH2 0x984 SWAP1 PUSH2 0x117A JUMP JUMPDEST DUP1 ISZERO PUSH2 0x9CF JUMPI DUP1 PUSH1 0x1F LT PUSH2 0x9A6 JUMPI PUSH2 0x100 DUP1 DUP4 SLOAD DIV MUL DUP4 MSTORE SWAP2 PUSH1 0x20 ADD SWAP2 PUSH2 0x9CF JUMP JUMPDEST DUP3 ADD SWAP2 SWAP1 PUSH0 MSTORE PUSH1 0x20 PUSH0 KECCAK256 SWAP1 JUMPDEST DUP2 SLOAD DUP2 MSTORE SWAP1 PUSH1 0x1 ADD SWAP1 PUSH1 0x20 ADD DUP1 DUP4 GT PUSH2 0x9B2 JUMPI DUP3 SWAP1 SUB PUSH1 0x1F AND DUP3 ADD SWAP2 JUMPDEST POP POP POP POP POP SWAP1 DUP1 PUSH1 0x1 ADD PUSH0 SWAP1 SLOAD SWAP1 PUSH2 0x100 EXP SWAP1 DIV PUSH2 0xFFFF AND SWAP1 DUP1 PUSH1 0x1 ADD PUSH1 0x2 SWAP1 SLOAD SWAP1 PUSH2 0x100 EXP SWAP1 DIV PUSH4 0xFFFFFFFF AND SWAP1 DUP1 PUSH1 0x1 ADD PUSH1 0x6 SWAP1 SLOAD SWAP1 PUSH2 0x100 EXP SWAP1 DIV PUSH2 0xFFFF AND SWAP1 POP DUP5 JUMP JUMPDEST PUSH1 0x3 PUSH1 0x20 MSTORE DUP1 PUSH0 MSTORE PUSH1 0x40 PUSH0 KECCAK256 PUSH0 SWAP2 POP SWAP1 POP SLOAD DUP2 JUMP JUMPDEST PUSH2 0xA33 PUSH2 0xAAF JUMP JUMPDEST PUSH0 PUSH20 0xFFFFFFFFFFFFFFFFFFFFFFFFFFFFFFFFFFFFFFFF AND DUP2 PUSH20 0xFFFFFFFFFFFFFFFFFFFFFFFFFFFFFFFFFFFFFFFF AND SUB PUSH2 0xAA3 JUMPI PUSH0 PUSH1 0x40 MLOAD PUSH32 0x1E4FBDF700000000000000000000000000000000000000000000000000000000 DUP2 MSTORE PUSH1 0x4 ADD PUSH2 0xA9A SWAP2 SWAP1 PUSH2 0xCAC JUMP JUMPDEST PUSH1 0x40 MLOAD DUP1 SWAP2 SUB SWAP1 REVERT JUMPDEST PUSH2 0xAAC DUP2 PUSH2 0xB36 JUMP JUMPDEST POP JUMP JUMPDEST PUSH2 0xAB7 PUSH2 0xBF7 JUMP JUMPDEST PUSH20 0xFFFFFFFFFFFFFFFFFFFFFFFFFFFFFFFFFFFFFFFF AND PUSH2 0xAD5 PUSH2 0x619 JUMP JUMPDEST PUSH20 0xFFFFFFFFFFFFFFFFFFFFFFFFFFFFFFFFFFFFFFFF AND EQ PUSH2 0xB34 JUMPI PUSH2 0xAF8 PUSH2 0xBF7 JUMP JUMPDEST PUSH1 0x40 MLOAD PUSH32 0x118CDAA700000000000000000000000000000000000000000000000000000000 DUP2 MSTORE PUSH1 0x4 ADD PUSH2 0xB2B SWAP2 SWAP1 PUSH2 0xCAC JUMP JUMPDEST PUSH1 0x40 MLOAD DUP1 SWAP2 SUB SWAP1 REVERT JUMPDEST JUMP JUMPDEST PUSH0 PUSH0 PUSH0 SWAP1 SLOAD SWAP1 PUSH2 0x100 EXP SWAP1 DIV PUSH20 0xFFFFFFFFFFFFFFFFFFFFFFFFFFFFFFFFFFFFFFFF AND SWAP1 POP DUP2 PUSH0 PUSH0 PUSH2 0x100 EXP DUP2 SLOAD DUP2 PUSH20 0xFFFFFFFFFFFFFFFFFFFFFFFFFFFFFFFFFFFFFFFF MUL NOT AND SWAP1 DUP4 PUSH20 0xFFFFFFFFFFFFFFFFFFFFFFFFFFFFFFFFFFFFFFFF AND MUL OR SWAP1 SSTORE POP DUP2 PUSH20 0xFFFFFFFFFFFFFFFFFFFFFFFFFFFFFFFFFFFFFFFF AND DUP2 PUSH20 0xFFFFFFFFFFFFFFFFFFFFFFFFFFFFFFFFFFFFFFFF AND PUSH32 0x8BE0079C531659141344CD1FD0A4F28419497F9722A3DAAFE3B4186F6B6457E0 PUSH1 0x40 MLOAD PUSH1 0x40 MLOAD DUP1 SWAP2 SUB SWAP1 LOG3 POP POP JUMP JUMPDEST PUSH0 CALLER SWAP1 POP SWAP1 JUMP JUMPDEST PUSH0 PUSH1 0x40 MLOAD SWAP1 POP SWAP1 JUMP JUMPDEST PUSH0 PUSH0 REVERT JUMPDEST PUSH0 PUSH0 REVERT JUMPDEST PUSH0 DUP2 SWAP1 POP SWAP2 SWAP1 POP JUMP JUMPDEST PUSH2 0xC21 DUP2 PUSH2 0xC0F JUMP JUMPDEST DUP2 EQ PUSH2 0xC2B JUMPI PUSH0 PUSH0 REVERT JUMPDEST POP JUMP JUMPDEST PUSH0 DUP2 CALLDATALOAD SWAP1 POP PUSH2 0xC3C DUP2 PUSH2 0xC18 JUMP JUMPDEST SWAP3 SWAP2 POP POP JUMP JUMPDEST PUSH0 PUSH1 0x20 DUP3 DUP5 SUB SLT ISZERO PUSH2 0xC57 JUMPI PUSH2 0xC56 PUSH2 0xC07 JUMP JUMPDEST JUMPDEST PUSH0 PUSH2 0xC64 DUP5 DUP3 DUP6 ADD PUSH2 0xC2E JUMP JUMPDEST SWAP2 POP POP SWAP3 SWAP2 POP POP JUMP JUMPDEST PUSH0 PUSH20 0xFFFFFFFFFFFFFFFFFFFFFFFFFFFFFFFFFFFFFFFF DUP3 AND SWAP1 POP SWAP2 SWAP1 POP JUMP JUMPDEST PUSH0 PUSH2 0xC96 DUP3 PUSH2 0xC6D JUMP JUMPDEST SWAP1 POP SWAP2 SWAP1 POP JUMP JUMPDEST PUSH2 0xCA6 DUP2 PUSH2 0xC8C JUMP JUMPDEST DUP3 MSTORE POP POP JUMP JUMPDEST PUSH0 PUSH1 0x20 DUP3 ADD SWAP1 POP PUSH2 0xCBF PUSH0 DUP4 ADD DUP5 PUSH2 0xC9D JUMP JUMPDEST SWAP3 SWAP2 POP POP JUMP JUMPDEST PUSH0 DUP2 MLOAD SWAP1 POP SWAP2 SWAP1 POP JUMP JUMPDEST PUSH0 DUP3 DUP3 MSTORE PUSH1 0x20 DUP3 ADD SWAP1 POP SWAP3 SWAP2 POP POP JUMP JUMPDEST DUP3 DUP2 DUP4 MCOPY PUSH0 DUP4 DUP4 ADD MSTORE POP POP POP JUMP JUMPDEST PUSH0 PUSH1 0x1F NOT PUSH1 0x1F DUP4 ADD AND SWAP1 POP SWAP2 SWAP1 POP JUMP JUMPDEST PUSH0 PUSH2 0xD07 DUP3 PUSH2 0xCC5 JUMP JUMPDEST PUSH2 0xD11 DUP2 DUP6 PUSH2 0xCCF JUMP JUMPDEST SWAP4 POP PUSH2 0xD21 DUP2 DUP6 PUSH1 0x20 DUP7 ADD PUSH2 0xCDF JUMP JUMPDEST PUSH2 0xD2A DUP2 PUSH2 0xCED JUMP JUMPDEST DUP5 ADD SWAP2 POP POP SWAP3 SWAP2 POP POP JUMP JUMPDEST PUSH0 PUSH4 0xFFFFFFFF DUP3 AND SWAP1 POP SWAP2 SWAP1 POP JUMP JUMPDEST PUSH2 0xD4D DUP2 PUSH2 0xD35 JUMP JUMPDEST DUP3 MSTORE POP POP JUMP JUMPDEST PUSH0 PUSH2 0xFFFF DUP3 AND SWAP1 POP SWAP2 SWAP1 POP JUMP JUMPDEST PUSH2 0xD69 DUP2 PUSH2 0xD53 JUMP JUMPDEST DUP3 MSTORE POP POP JUMP JUMPDEST PUSH0 PUSH1 0xFF DUP3 AND SWAP1 POP SWAP2 SWAP1 POP JUMP JUMPDEST PUSH2 0xD84 DUP2 PUSH2 0xD6F JUMP JUMPDEST DUP3 MSTORE POP POP JUMP JUMPDEST PUSH0 PUSH1 0xC0 DUP3 ADD SWAP1 POP DUP2 DUP2 SUB PUSH0 DUP4 ADD MSTORE PUSH2 0xDA2 DUP2 DUP10 PUSH2 0xCFD JUMP JUMPDEST SWAP1 POP PUSH2 0xDB1 PUSH1 0x20 DUP4 ADD DUP9 PUSH2 0xD44 JUMP JUMPDEST PUSH2 0xDBE PUSH1 0x40 DUP4 ADD DUP8 PUSH2 0xD44 JUMP JUMPDEST PUSH2 0xDCB PUSH1 0x60 DUP4 ADD DUP7 PUSH2 0xD44 JUMP JUMPDEST PUSH2 0xDD8 PUSH1 0x80 DUP4 ADD DUP6 PUSH2 0xD60 JUMP JUMPDEST PUSH2 0xDE5 PUSH1 0xA0 DUP4 ADD DUP5 PUSH2 0xD7B JUMP JUMPDEST SWAP8 SWAP7 POP POP POP POP POP POP POP JUMP JUMPDEST PUSH0 PUSH0 REVERT JUMPDEST PUSH0 PUSH0 REVERT JUMPDEST PUSH32 0x4E487B7100000000000000000000000000000000000000000000000000000000 PUSH0 MSTORE PUSH1 0x41 PUSH1 0x4 MSTORE PUSH1 0x24 PUSH0 REVERT JUMPDEST PUSH2 0xE2E DUP3 PUSH2 0xCED JUMP JUMPDEST DUP2 ADD DUP2 DUP2 LT PUSH8 0xFFFFFFFFFFFFFFFF DUP3 GT OR ISZERO PUSH2 0xE4D JUMPI PUSH2 0xE4C PUSH2 0xDF8 JUMP JUMPDEST JUMPDEST DUP1 PUSH1 0x40 MSTORE POP POP POP JUMP JUMPDEST PUSH0 PUSH2 0xE5F PUSH2 0xBFE JUMP JUMPDEST SWAP1 POP PUSH2 0xE6B DUP3 DUP3 PUSH2 0xE25 JUMP JUMPDEST SWAP2 SWAP1 POP JUMP JUMPDEST PUSH0 PUSH8 0xFFFFFFFFFFFFFFFF DUP3 GT ISZERO PUSH2 0xE8A JUMPI PUSH2 0xE89 PUSH2 0xDF8 JUMP JUMPDEST JUMPDEST PUSH2 0xE93 DUP3 PUSH2 0xCED JUMP JUMPDEST SWAP1 POP PUSH1 0x20 DUP2 ADD SWAP1 POP SWAP2 SWAP1 POP JUMP JUMPDEST DUP3 DUP2 DUP4 CALLDATACOPY PUSH0 DUP4 DUP4 ADD MSTORE POP POP POP JUMP JUMPDEST PUSH0 PUSH2 0xEC0 PUSH2 0xEBB DUP5 PUSH2 0xE70 JUMP JUMPDEST PUSH2 0xE56 JUMP JUMPDEST SWAP1 POP DUP3 DUP2 MSTORE PUSH1 0x20 DUP2 ADD DUP5 DUP5 DUP5 ADD GT ISZERO PUSH2 0xEDC JUMPI PUSH2 0xEDB PUSH2 0xDF4 JUMP JUMPDEST JUMPDEST PUSH2 0xEE7 DUP5 DUP3 DUP6 PUSH2 0xEA0 JUMP JUMPDEST POP SWAP4 SWAP3 POP POP POP JUMP JUMPDEST PUSH0 DUP3 PUSH1 0x1F DUP4 ADD SLT PUSH2 0xF03 JUMPI PUSH2 0xF02 PUSH2 0xDF0 JUMP JUMPDEST JUMPDEST DUP2 CALLDATALOAD PUSH2 0xF13 DUP5 DUP3 PUSH1 0x20 DUP7 ADD PUSH2 0xEAE JUMP JUMPDEST SWAP2 POP POP SWAP3 SWAP2 POP POP JUMP JUMPDEST PUSH0 PUSH1 0x20 DUP3 DUP5 SUB SLT ISZERO PUSH2 0xF31 JUMPI PUSH2 0xF30 PUSH2 0xC07 JUMP JUMPDEST JUMPDEST PUSH0 DUP3 ADD CALLDATALOAD PUSH8 0xFFFFFFFFFFFFFFFF DUP2 GT ISZERO PUSH2 0xF4E JUMPI PUSH2 0xF4D PUSH2 0xC0B JUMP JUMPDEST JUMPDEST PUSH2 0xF5A DUP5 DUP3 DUP6 ADD PUSH2 0xEEF JUMP JUMPDEST SWAP2 POP POP SWAP3 SWAP2 POP POP JUMP JUMPDEST PUSH2 0xF6C DUP2 PUSH2 0xD35 JUMP JUMPDEST DUP2 EQ PUSH2 0xF76 JUMPI PUSH0 PUSH0 REVERT JUMPDEST POP JUMP JUMPDEST PUSH0 DUP2 CALLDATALOAD SWAP1 POP PUSH2 0xF87 DUP2 PUSH2 0xF63 JUMP JUMPDEST SWAP3 SWAP2 POP POP JUMP JUMPDEST PUSH2 0xF96 DUP2 PUSH2 0xD53 JUMP JUMPDEST DUP2 EQ PUSH2 0xFA0 JUMPI PUSH0 PUSH0 REVERT JUMPDEST POP JUMP JUMPDEST PUSH0 DUP2 CALLDATALOAD SWAP1 POP PUSH2 0xFB1 DUP2 PUSH2 0xF8D JUMP JUMPDEST SWAP3 SWAP2 POP POP JUMP JUMPDEST PUSH2 0xFC0 DUP2 PUSH2 0xD6F JUMP JUMPDEST DUP2 EQ PUSH2 0xFCA JUMPI PUSH0 PUSH0 REVERT JUMPDEST POP JUMP JUMPDEST PUSH0 DUP2 CALLDATALOAD SWAP1 POP PUSH2 0xFDB DUP2 PUSH2 0xFB7 JUMP JUMPDEST SWAP3 SWAP2 POP POP JUMP JUMPDEST PUSH0 PUSH0 PUSH0 PUSH0 PUSH0 PUSH0 PUSH1 0xC0 DUP8 DUP10 SUB SLT ISZERO PUSH2 0xFFB JUMPI PUSH2 0xFFA PUSH2 0xC07 JUMP JUMPDEST JUMPDEST PUSH0 DUP8 ADD CALLDATALOAD PUSH8 0xFFFFFFFFFFFFFFFF DUP2 GT ISZERO PUSH2 0x1018 JUMPI PUSH2 0x1017 PUSH2 0xC0B JUMP JUMPDEST JUMPDEST PUSH2 0x1024 DUP10 DUP3 DUP11 ADD PUSH2 0xEEF JUMP JUMPDEST SWAP7 POP POP PUSH1 0x20 PUSH2 0x1035 DUP10 DUP3 DUP11 ADD PUSH2 0xF79 JUMP JUMPDEST SWAP6 POP POP PUSH1 0x40 PUSH2 0x1046 DUP10 DUP3 DUP11 ADD PUSH2 0xF79 JUMP JUMPDEST SWAP5 POP POP PUSH1 0x60 PUSH2 0x1057 DUP10 DUP3 DUP11 ADD PUSH2 0xF79 JUMP JUMPDEST SWAP4 POP POP PUSH1 0x80 PUSH2 0x1068 DUP10 DUP3 DUP11 ADD PUSH2 0xFA3 JUMP JUMPDEST SWAP3 POP POP PUSH1 0xA0 PUSH2 0x1079 DUP10 DUP3 DUP11 ADD PUSH2 0xFCD JUMP JUMPDEST SWAP2 POP POP SWAP3 SWAP6 POP SWAP3 SWAP6 POP SWAP3 SWAP6 JUMP JUMPDEST PUSH0 PUSH1 0x80 DUP3 ADD SWAP1 POP DUP2 DUP2 SUB PUSH0 DUP4 ADD MSTORE PUSH2 0x109E DUP2 DUP8 PUSH2 0xCFD JUMP JUMPDEST SWAP1 POP PUSH2 0x10AD PUSH1 0x20 DUP4 ADD DUP7 PUSH2 0xD60 JUMP JUMPDEST PUSH2 0x10BA PUSH1 0x40 DUP4 ADD DUP6 PUSH2 0xD44 JUMP JUMPDEST PUSH2 0x10C7 PUSH1 0x60 DUP4 ADD DUP5 PUSH2 0xD60 JUMP JUMPDEST SWAP6 SWAP5 POP POP POP POP POP JUMP JUMPDEST PUSH2 0x10D9 DUP2 PUSH2 0xC8C JUMP JUMPDEST DUP2 EQ PUSH2 0x10E3 JUMPI PUSH0 PUSH0 REVERT JUMPDEST POP JUMP JUMPDEST PUSH0 DUP2 CALLDATALOAD SWAP1 POP PUSH2 0x10F4 DUP2 PUSH2 0x10D0 JUMP JUMPDEST SWAP3 SWAP2 POP POP JUMP JUMPDEST PUSH0 PUSH1 0x20 DUP3 DUP5 SUB SLT ISZERO PUSH2 0x110F JUMPI PUSH2 0x110E PUSH2 0xC07 JUMP JUMPDEST JUMPDEST PUSH0 PUSH2 0x111C DUP5 DUP3 DUP6 ADD PUSH2 0x10E6 JUMP JUMPDEST SWAP2 POP POP SWAP3 SWAP2 POP POP JUMP JUMPDEST PUSH2 0x112E DUP2 PUSH2 0xC0F JUMP JUMPDEST DUP3 MSTORE POP POP JUMP JUMPDEST PUSH0 PUSH1 0x20 DUP3 ADD SWAP1 POP PUSH2 0x1147 PUSH0 DUP4 ADD DUP5 PUSH2 0x1125 JUMP JUMPDEST SWAP3 SWAP2 POP POP JUMP JUMPDEST PUSH32 0x4E487B7100000000000000000000000000000000000000000000000000000000 PUSH0 MSTORE PUSH1 0x22 PUSH1 0x4 MSTORE PUSH1 0x24 PUSH0 REVERT JUMPDEST PUSH0 PUSH1 0x2 DUP3 DIV SWAP1 POP PUSH1 0x1 DUP3 AND DUP1 PUSH2 0x1191 JUMPI PUSH1 0x7F DUP3 AND SWAP2 POP JUMPDEST PUSH1 0x20 DUP3 LT DUP2 SUB PUSH2 0x11A4 JUMPI PUSH2 0x11A3 PUSH2 0x114D JUMP JUMPDEST JUMPDEST POP SWAP2 SWAP1 POP JUMP JUMPDEST PUSH32 0x4A7564676520616C726561647920657873697374730000000000000000000000 PUSH0 DUP3 ADD MSTORE POP JUMP JUMPDEST PUSH0 PUSH2 0x11DE PUSH1 0x15 DUP4 PUSH2 0xCCF JUMP JUMPDEST SWAP2 POP PUSH2 0x11E9 DUP3 PUSH2 0x11AA JUMP JUMPDEST PUSH1 0x20 DUP3 ADD SWAP1 POP SWAP2 SWAP1 POP JUMP JUMPDEST PUSH0 PUSH1 0x20 DUP3 ADD SWAP1 POP DUP2 DUP2 SUB PUSH0 DUP4 ADD MSTORE PUSH2 0x120B DUP2 PUSH2 0x11D2 JUMP JUMPDEST SWAP1 POP SWAP2 SWAP1 POP JUMP JUMPDEST PUSH0 DUP2 SWAP1 POP DUP2 PUSH0 MSTORE PUSH1 0x20 PUSH0 KECCAK256 SWAP1 POP SWAP2 SWAP1 POP JUMP JUMPDEST PUSH0 PUSH1 0x20 PUSH1 0x1F DUP4 ADD DIV SWAP1 POP SWAP2 SWAP1 POP JUMP JUMPDEST PUSH0 DUP3 DUP3 SHL SWAP1 POP SWAP3 SWAP2 POP POP JUMP JUMPDEST PUSH0 PUSH1 0x8 DUP4 MUL PUSH2 0x126E PUSH32 0xFFFFFFFFFFFFFFFFFFFFFFFFFFFFFFFFFFFFFFFFFFFFFFFFFFFFFFFFFFFFFFFF DUP3 PUSH2 0x1233 JUMP JUMPDEST PUSH2 0x1278 DUP7 DUP4 PUSH2 0x1233 JUMP JUMPDEST SWAP6 POP DUP1 NOT DUP5 AND SWAP4 POP DUP1 DUP7 AND DUP5 OR SWAP3 POP POP POP SWAP4 SWAP3 POP POP POP JUMP JUMPDEST PUSH0 DUP2 SWAP1 POP SWAP2 SWAP1 POP JUMP JUMPDEST PUSH0 PUSH2 0x12B3 PUSH2 0x12AE PUSH2 0x12A9 DUP5 PUSH2 0xC0F JUMP JUMPDEST PUSH2 0x1290 JUMP JUMPDEST PUSH2 0xC0F JUMP JUMPDEST SWAP1 POP SWAP2 SWAP1 POP JUMP JUMPDEST PUSH0 DUP2 SWAP1 POP SWAP2 SWAP1 POP JUMP JUMPDEST PUSH2 0x12CC DUP4 PUSH2 0x1299 JUMP JUMPDEST PUSH2 0x12E0 PUSH2 0x12D8 DUP3 PUSH2 0x12BA JUMP JUMPDEST DUP5 DUP5 SLOAD PUSH2 0x123F JUMP JUMPDEST DUP3 SSTORE POP POP POP POP JUMP JUMPDEST PUSH0 PUSH0 SWAP1 POP SWAP1 JUMP JUMPDEST PUSH2 0x12F7 PUSH2 0x12E8 JUMP JUMPDEST PUSH2 0x1302 DUP2 DUP5 DUP5 PUSH2 0x12C3 JUMP JUMPDEST POP POP POP JUMP JUMPDEST JUMPDEST DUP2 DUP2 LT ISZERO PUSH2 0x1325 JUMPI PUSH2 0x131A PUSH0 DUP3 PUSH2 0x12EF JUMP JUMPDEST PUSH1 0x1 DUP2 ADD SWAP1 POP PUSH2 0x1308 JUMP JUMPDEST POP POP JUMP JUMPDEST PUSH1 0x1F DUP3 GT ISZERO PUSH2 0x136A JUMPI PUSH2 0x133B DUP2 PUSH2 0x1212 JUMP JUMPDEST PUSH2 0x1344 DUP5 PUSH2 0x1224 JUMP JUMPDEST DUP2 ADD PUSH1 0x20 DUP6 LT ISZERO PUSH2 0x1353 JUMPI DUP2 SWAP1 POP JUMPDEST PUSH2 0x1367 PUSH2 0x135F DUP6 PUSH2 0x1224 JUMP JUMPDEST DUP4 ADD DUP3 PUSH2 0x1307 JUMP JUMPDEST POP POP JUMPDEST POP POP POP JUMP JUMPDEST PUSH0 DUP3 DUP3 SHR SWAP1 POP SWAP3 SWAP2 POP POP JUMP JUMPDEST PUSH0 PUSH2 0x138A PUSH0 NOT DUP5 PUSH1 0x8 MUL PUSH2 0x136F JUMP JUMPDEST NOT DUP1 DUP4 AND SWAP2 POP POP SWAP3 SWAP2 POP POP JUMP JUMPDEST PUSH0 PUSH2 0x13A2 DUP4 DUP4 PUSH2 0x137B JUMP JUMPDEST SWAP2 POP DUP3 PUSH1 0x2 MUL DUP3 OR SWAP1 POP SWAP3 SWAP2 POP POP JUMP JUMPDEST PUSH2 0x13BB DUP3 PUSH2 0xCC5 JUMP JUMPDEST PUSH8 0xFFFFFFFFFFFFFFFF DUP2 GT ISZERO PUSH2 0x13D4 JUMPI PUSH2 0x13D3 PUSH2 0xDF8 JUMP JUMPDEST JUMPDEST PUSH2 0x13DE DUP3 SLOAD PUSH2 0x117A JUMP JUMPDEST PUSH2 0x13E9 DUP3 DUP3 DUP6 PUSH2 0x1329 JUMP JUMPDEST PUSH0 PUSH1 0x20 SWAP1 POP PUSH1 0x1F DUP4 GT PUSH1 0x1 DUP2 EQ PUSH2 0x141A JUMPI PUSH0 DUP5 ISZERO PUSH2 0x1408 JUMPI DUP3 DUP8 ADD MLOAD SWAP1 POP JUMPDEST PUSH2 0x1412 DUP6 DUP3 PUSH2 0x1397 JUMP JUMPDEST DUP7 SSTORE POP PUSH2 0x1479 JUMP JUMPDEST PUSH1 0x1F NOT DUP5 AND PUSH2 0x1428 DUP7 PUSH2 0x1212 JUMP JUMPDEST PUSH0 JUMPDEST DUP3 DUP2 LT ISZERO PUSH2 0x144F JUMPI DUP5 DUP10 ADD MLOAD DUP3 SSTORE PUSH1 0x1 DUP3 ADD SWAP2 POP PUSH1 0x20 DUP6 ADD SWAP5 POP PUSH1 0x20 DUP2 ADD SWAP1 POP PUSH2 0x142A JUMP JUMPDEST DUP7 DUP4 LT ISZERO PUSH2 0x146C JUMPI DUP5 DUP10 ADD MLOAD PUSH2 0x1468 PUSH1 0x1F DUP10 AND DUP3 PUSH2 0x137B JUMP JUMPDEST DUP4 SSTORE POP JUMPDEST PUSH1 0x1 PUSH1 0x2 DUP9 MUL ADD DUP9 SSTORE POP POP POP JUMPDEST POP POP POP POP POP POP JUMP JUMPDEST PUSH32 0x4E487B7100000000000000000000000000000000000000000000000000000000 PUSH0 MSTORE PUSH1 0x11 PUSH1 0x4 MSTORE PUSH1 0x24 PUSH0 REVERT JUMPDEST PUSH0 PUSH2 0x14B8 DUP3 PUSH2 0xC0F JUMP JUMPDEST SWAP2 POP PUSH2 0x14C3 DUP4 PUSH2 0xC0F JUMP JUMPDEST SWAP3 POP DUP3 DUP3 SUB SWAP1 POP DUP2 DUP2 GT ISZERO PUSH2 0x14DB JUMPI PUSH2 0x14DA PUSH2 0x1481 JUMP JUMPDEST JUMPDEST SWAP3 SWAP2 POP POP JUMP JUMPDEST PUSH0 PUSH1 0x40 DUP3 ADD SWAP1 POP PUSH2 0x14F4 PUSH0 DUP4 ADD DUP6 PUSH2 0x1125 JUMP JUMPDEST DUP2 DUP2 SUB PUSH1 0x20 DUP4 ADD MSTORE PUSH2 0x1506 DUP2 DUP5 PUSH2 0xCFD JUMP JUMPDEST SWAP1 POP SWAP4 SWAP3 POP POP POP JUMP INVALID LOG2 PUSH5 0x6970667358 0x22 SLT KECCAK256 0xCB DUPN 0xE8 PUSH4 0x523C8CB0 PUSH13 0xA08AE7B259A9768B1898174F2E 0x21 0xFC PUSH5 0x1768905C44 OR DUP10 PUSH5 0x736F6C6343 STOP ADDMOD 0x1E STOP CALLER "
				},
				"gasEstimates": {
					"creation": {
						"codeDepositCost": "1089000",
						"executionCost": "infinite",
						"totalCost": "infinite"
					},
					"external": {
						"_registerJudge(string)": "infinite",
						"_registerMMAFighter(string,uint32,uint32,uint32,uint16,uint8)": "infinite",
						"fighterIdToFighter(uint256)": "infinite",
						"fighterToOwner(uint256)": "2872",
						"fighters(uint256)": "infinite",
						"judgeToOwner(uint256)": "2828",
						"judges(uint256)": "infinite",
						"owner()": "2514",
						"ownerToJudge(address)": "2890",
						"renounceOwnership()": "infinite",
						"transferOwnership(address)": "infinite"
					}
				},
				"methodIdentifiers": {
					"_registerJudge(string)": "5f6fdddf",
					"_registerMMAFighter(string,uint32,uint32,uint32,uint16,uint8)": "9f8e1766",
					"fighterIdToFighter(uint256)": "a28da4a6",
					"fighterToOwner(uint256)": "3824fbec",
					"fighters(uint256)": "2e6b221d",
					"judgeToOwner(uint256)": "0d292732",
					"judges(uint256)": "b06b0368",
					"owner()": "8da5cb5b",
					"ownerToJudge(address)": "f089f7c3",
					"renounceOwnership()": "715018a6",
					"transferOwnership(address)": "f2fde38b"
				}
			},
			"storageLayout": {
				"storage": [
					{
						"astId": 8,
						"contract": "FighterReg.sol:FighterReg",
						"label": "_owner",
						"offset": 0,
						"slot": "0",
						"type": "t_address"
					},
					{
						"astId": 331,
						"contract": "FighterReg.sol:FighterReg",
						"label": "judges",
						"offset": 0,
						"slot": "1",
						"type": "t_array(t_struct(Judge)327_storage)dyn_storage"
					},
					{
						"astId": 335,
						"contract": "FighterReg.sol:FighterReg",
						"label": "judgeToOwner",
						"offset": 0,
						"slot": "2",
						"type": "t_mapping(t_uint256,t_address)"
					},
					{
						"astId": 339,
						"contract": "FighterReg.sol:FighterReg",
						"label": "ownerToJudge",
						"offset": 0,
						"slot": "3",
						"type": "t_mapping(t_address,t_uint256)"
					},
					{
						"astId": 343,
						"contract": "FighterReg.sol:FighterReg",
						"label": "judgeBalance",
						"offset": 0,
						"slot": "4",
						"type": "t_mapping(t_address,t_uint256)"
					},
					{
						"astId": 205,
						"contract": "FighterReg.sol:FighterReg",
						"label": "fighters",
						"offset": 0,
						"slot": "5",
						"type": "t_array(t_struct(MMAfighter)201_storage)dyn_storage"
					},
					{
						"astId": 226,
						"contract": "FighterReg.sol:FighterReg",
						"label": "fighterToOwner",
						"offset": 0,
						"slot": "6",
						"type": "t_mapping(t_uint256,t_address)"
					},
					{
						"astId": 231,
						"contract": "FighterReg.sol:FighterReg",
						"label": "fighterIdToFighter",
						"offset": 0,
						"slot": "7",
						"type": "t_mapping(t_uint256,t_struct(MMAfighter)201_storage)"
					},
					{
						"astId": 235,
						"contract": "FighterReg.sol:FighterReg",
						"label": "fighterbalance",
						"offset": 0,
						"slot": "8",
						"type": "t_mapping(t_address,t_uint256)"
					}
				],
				"types": {
					"t_address": {
						"encoding": "inplace",
						"label": "address",
						"numberOfBytes": "20"
					},
					"t_array(t_struct(Judge)327_storage)dyn_storage": {
						"base": "t_struct(Judge)327_storage",
						"encoding": "dynamic_array",
						"label": "struct JudgeReg.Judge[]",
						"numberOfBytes": "32"
					},
					"t_array(t_struct(MMAfighter)201_storage)dyn_storage": {
						"base": "t_struct(MMAfighter)201_storage",
						"encoding": "dynamic_array",
						"label": "struct FighterReg.MMAfighter[]",
						"numberOfBytes": "32"
					},
					"t_mapping(t_address,t_uint256)": {
						"encoding": "mapping",
						"key": "t_address",
						"label": "mapping(address => uint256)",
						"numberOfBytes": "32",
						"value": "t_uint256"
					},
					"t_mapping(t_uint256,t_address)": {
						"encoding": "mapping",
						"key": "t_uint256",
						"label": "mapping(uint256 => address)",
						"numberOfBytes": "32",
						"value": "t_address"
					},
					"t_mapping(t_uint256,t_struct(MMAfighter)201_storage)": {
						"encoding": "mapping",
						"key": "t_uint256",
						"label": "mapping(uint256 => struct FighterReg.MMAfighter)",
						"numberOfBytes": "32",
						"value": "t_struct(MMAfighter)201_storage"
					},
					"t_string_storage": {
						"encoding": "bytes",
						"label": "string",
						"numberOfBytes": "32"
					},
					"t_struct(Judge)327_storage": {
						"encoding": "inplace",
						"label": "struct JudgeReg.Judge",
						"members": [
							{
								"astId": 320,
								"contract": "FighterReg.sol:FighterReg",
								"label": "name",
								"offset": 0,
								"slot": "0",
								"type": "t_string_storage"
							},
							{
								"astId": 322,
								"contract": "FighterReg.sol:FighterReg",
								"label": "rank",
								"offset": 0,
								"slot": "1",
								"type": "t_uint16"
							},
							{
								"astId": 324,
								"contract": "FighterReg.sol:FighterReg",
								"label": "rightDecision",
								"offset": 2,
								"slot": "1",
								"type": "t_uint32"
							},
							{
								"astId": 326,
								"contract": "FighterReg.sol:FighterReg",
								"label": "wrongDecision",
								"offset": 6,
								"slot": "1",
								"type": "t_uint16"
							}
						],
						"numberOfBytes": "64"
					},
					"t_struct(MMAfighter)201_storage": {
						"encoding": "inplace",
						"label": "struct FighterReg.MMAfighter",
						"members": [
							{
								"astId": 190,
								"contract": "FighterReg.sol:FighterReg",
								"label": "name",
								"offset": 0,
								"slot": "0",
								"type": "t_string_storage"
							},
							{
								"astId": 192,
								"contract": "FighterReg.sol:FighterReg",
								"label": "win",
								"offset": 0,
								"slot": "1",
								"type": "t_uint32"
							},
							{
								"astId": 194,
								"contract": "FighterReg.sol:FighterReg",
								"label": "loss",
								"offset": 4,
								"slot": "1",
								"type": "t_uint32"
							},
							{
								"astId": 196,
								"contract": "FighterReg.sol:FighterReg",
								"label": "draw",
								"offset": 8,
								"slot": "1",
								"type": "t_uint32"
							},
							{
								"astId": 198,
								"contract": "FighterReg.sol:FighterReg",
								"label": "noContest",
								"offset": 12,
								"slot": "1",
								"type": "t_uint16"
							},
							{
								"astId": 200,
								"contract": "FighterReg.sol:FighterReg",
								"label": "weightCategoryLbs",
								"offset": 14,
								"slot": "1",
								"type": "t_uint8"
							}
						],
						"numberOfBytes": "64"
					},
					"t_uint16": {
						"encoding": "inplace",
						"label": "uint16",
						"numberOfBytes": "2"
					},
					"t_uint256": {
						"encoding": "inplace",
						"label": "uint256",
						"numberOfBytes": "32"
					},
					"t_uint32": {
						"encoding": "inplace",
						"label": "uint32",
						"numberOfBytes": "4"
					},
					"t_uint8": {
						"encoding": "inplace",
						"label": "uint8",
						"numberOfBytes": "1"
					}
				}
			},
			"userdoc": {
				"kind": "user",
				"methods": {},
				"version": 1
			}
		}
	}
}