{
	"JudgeReg.sol": {
		"JudgeReg": {
			"abi": [
				{
					"inputs": [],
					"stateMutability": "nonpayable",
					"type": "constructor"
				},
				{
					"inputs": [
						{
							"internalType": "address",
							"name": "owner",
							"type": "address"
						}
					],
					"name": "OwnableInvalidOwner",
					"type": "error"
				},
				{
					"inputs": [
						{
							"internalType": "address",
							"name": "account",
							"type": "address"
						}
					],
					"name": "OwnableUnauthorizedAccount",
					"type": "error"
				},
				{
					"anonymous": false,
					"inputs": [
						{
							"indexed": false,
							"internalType": "uint256",
							"name": "judgeId",
							"type": "uint256"
						},
						{
							"indexed": false,
							"internalType": "string",
							"name": "judgeName",
							"type": "string"
						}
					],
					"name": "NewJudge",
					"type": "event"
				},
				{
					"anonymous": false,
					"inputs": [
						{
							"indexed": true,
							"internalType": "address",
							"name": "previousOwner",
							"type": "address"
						},
						{
							"indexed": true,
							"internalType": "address",
							"name": "newOwner",
							"type": "address"
						}
					],
					"name": "OwnershipTransferred",
					"type": "event"
				},
				{
					"inputs": [
						{
							"internalType": "string",
							"name": "_name",
							"type": "string"
						}
					],
					"name": "_registerJudge",
					"outputs": [],
					"stateMutability": "nonpayable",
					"type": "function"
				},
				{
					"inputs": [
						{
							"internalType": "uint256",
							"name": "",
							"type": "uint256"
						}
					],
					"name": "judgeToOwner",
					"outputs": [
						{
							"internalType": "address",
							"name": "",
							"type": "address"
						}
					],
					"stateMutability": "view",
					"type": "function"
				},
				{
					"inputs": [
						{
							"internalType": "uint256",
							"name": "",
							"type": "uint256"
						}
					],
					"name": "judges",
					"outputs": [
						{
							"internalType": "string",
							"name": "name",
							"type": "string"
						},
						{
							"internalType": "uint16",
							"name": "rank",
							"type": "uint16"
						},
						{
							"internalType": "uint32",
							"name": "rightDecision",
							"type": "uint32"
						},
						{
							"internalType": "uint16",
							"name": "wrongDecision",
							"type": "uint16"
						}
					],
					"stateMutability": "view",
					"type": "function"
				},
				{
					"inputs": [],
					"name": "owner",
					"outputs": [
						{
							"internalType": "address",
							"name": "",
							"type": "address"
						}
					],
					"stateMutability": "view",
					"type": "function"
				},
				{
					"inputs": [
						{
							"internalType": "address",
							"name": "",
							"type": "address"
						}
					],
					"name": "ownerToJudge",
					"outputs": [
						{
							"internalType": "uint256",
							"name": "",
							"type": "uint256"
						}
					],
					"stateMutability": "view",
					"type": "function"
				},
				{
					"inputs": [],
					"name": "renounceOwnership",
					"outputs": [],
					"stateMutability": "nonpayable",
					"type": "function"
				},
				{
					"inputs": [
						{
							"internalType": "address",
							"name": "newOwner",
							"type": "address"
						}
					],
					"name": "transferOwnership",
					"outputs": [],
					"stateMutability": "nonpayable",
					"type": "function"
				}
			],
			"devdoc": {
				"errors": {
					"OwnableInvalidOwner(address)": [
						{
							"details": "The owner is not a valid owner account. (eg. `address(0)`)"
						}
					],
					"OwnableUnauthorizedAccount(address)": [
						{
							"details": "The caller account is not authorized to perform an operation."
						}
					]
				},
				"kind": "dev",
				"methods": {
					"owner()": {
						"details": "Returns the address of the current owner."
					},
					"renounceOwnership()": {
						"details": "Leaves the contract without owner. It will not be possible to call `onlyOwner` functions. Can only be called by the current owner. NOTE: Renouncing ownership will leave the contract without an owner, thereby disabling any functionality that is only available to the owner."
					},
					"transferOwnership(address)": {
						"details": "Transfers ownership of the contract to a new account (`newOwner`). Can only be called by the current owner."
					}
				},
				"version": 1
			},
			"evm": {
				"assembly": "    /* \"JudgeReg.sol\":120:1539  contract JudgeReg is Ownable {... */\n  mstore(0x40, 0x80)\n    /* \"JudgeReg.sol\":223:259  constructor() Ownable(msg.sender) {} */\n  callvalue\n  dup1\n  iszero\n  tag_1\n  jumpi\n  revert(0x00, 0x00)\ntag_1:\n  pop\n    /* \"JudgeReg.sol\":245:255  msg.sender */\n  caller\n    /* \"@openzeppelin/contracts/access/Ownable.sol\":1297:1298  0 */\n  0x00\n    /* \"@openzeppelin/contracts/access/Ownable.sol\":1273:1299  initialOwner == address(0) */\n  0xffffffffffffffffffffffffffffffffffffffff\n  and\n    /* \"@openzeppelin/contracts/access/Ownable.sol\":1273:1285  initialOwner */\n  dup2\n    /* \"@openzeppelin/contracts/access/Ownable.sol\":1273:1299  initialOwner == address(0) */\n  0xffffffffffffffffffffffffffffffffffffffff\n  and\n  sub\n    /* \"@openzeppelin/contracts/access/Ownable.sol\":1269:1364  if (initialOwner == address(0)) {... */\n  tag_5\n  jumpi\n    /* \"@openzeppelin/contracts/access/Ownable.sol\":1350:1351  0 */\n  0x00\n    /* \"@openzeppelin/contracts/access/Ownable.sol\":1322:1353  OwnableInvalidOwner(address(0)) */\n  mload(0x40)\n  0x1e4fbdf700000000000000000000000000000000000000000000000000000000\n  dup2\n  mstore\n  0x04\n  add\n  tag_6\n  swap2\n  swap1\n  tag_7\n  jump\t// in\ntag_6:\n  mload(0x40)\n  dup1\n  swap2\n  sub\n  swap1\n  revert\n    /* \"@openzeppelin/contracts/access/Ownable.sol\":1269:1364  if (initialOwner == address(0)) {... */\ntag_5:\n    /* \"@openzeppelin/contracts/access/Ownable.sol\":1373:1405  _transferOwnership(initialOwner) */\n  tag_8\n    /* \"@openzeppelin/contracts/access/Ownable.sol\":1392:1404  initialOwner */\n  dup2\n    /* \"@openzeppelin/contracts/access/Ownable.sol\":1373:1391  _transferOwnership */\n  shl(0x20, tag_9)\n    /* \"@openzeppelin/contracts/access/Ownable.sol\":1373:1405  _transferOwnership(initialOwner) */\n  0x20\n  shr\n  jump\t// in\ntag_8:\n    /* \"@openzeppelin/contracts/access/Ownable.sol\":1225:1412  constructor(address initialOwner) {... */\n  pop\n    /* \"JudgeReg.sol\":120:1539  contract JudgeReg is Ownable {... */\n  jump(tag_11)\n    /* \"@openzeppelin/contracts/access/Ownable.sol\":2912:3099  function _transferOwnership(address newOwner) internal virtual {... */\ntag_9:\n    /* \"@openzeppelin/contracts/access/Ownable.sol\":2985:3001  address oldOwner */\n  0x00\n    /* \"@openzeppelin/contracts/access/Ownable.sol\":3004:3010  _owner */\n  0x00\n  0x00\n  swap1\n  sload\n  swap1\n  0x0100\n  exp\n  swap1\n  div\n  0xffffffffffffffffffffffffffffffffffffffff\n  and\n    /* \"@openzeppelin/contracts/access/Ownable.sol\":2985:3010  address oldOwner = _owner */\n  swap1\n  pop\n    /* \"@openzeppelin/contracts/access/Ownable.sol\":3029:3037  newOwner */\n  dup2\n    /* \"@openzeppelin/contracts/access/Ownable.sol\":3020:3026  _owner */\n  0x00\n  0x00\n    /* \"@openzeppelin/contracts/access/Ownable.sol\":3020:3037  _owner = newOwner */\n  0x0100\n  exp\n  dup2\n  sload\n  dup2\n  0xffffffffffffffffffffffffffffffffffffffff\n  mul\n  not\n  and\n  swap1\n  dup4\n  0xffffffffffffffffffffffffffffffffffffffff\n  and\n  mul\n  or\n  swap1\n  sstore\n  pop\n    /* \"@openzeppelin/contracts/access/Ownable.sol\":3083:3091  newOwner */\n  dup2\n    /* \"@openzeppelin/contracts/access/Ownable.sol\":3052:3092  OwnershipTransferred(oldOwner, newOwner) */\n  0xffffffffffffffffffffffffffffffffffffffff\n  and\n    /* \"@openzeppelin/contracts/access/Ownable.sol\":3073:3081  oldOwner */\n  dup2\n    /* \"@openzeppelin/contracts/access/Ownable.sol\":3052:3092  OwnershipTransferred(oldOwner, newOwner) */\n  0xffffffffffffffffffffffffffffffffffffffff\n  and\n  0x8be0079c531659141344cd1fd0a4f28419497f9722a3daafe3b4186f6b6457e0\n  mload(0x40)\n  mload(0x40)\n  dup1\n  swap2\n  sub\n  swap1\n  log3\n    /* \"@openzeppelin/contracts/access/Ownable.sol\":2975:3099  {... */\n  pop\n    /* \"@openzeppelin/contracts/access/Ownable.sol\":2912:3099  function _transferOwnership(address newOwner) internal virtual {... */\n  pop\n  jump\t// out\n    /* \"#utility.yul\":7:133   */\ntag_13:\n    /* \"#utility.yul\":44:51   */\n  0x00\n    /* \"#utility.yul\":84:126   */\n  0xffffffffffffffffffffffffffffffffffffffff\n    /* \"#utility.yul\":77:82   */\n  dup3\n    /* \"#utility.yul\":73:127   */\n  and\n    /* \"#utility.yul\":62:127   */\n  swap1\n  pop\n    /* \"#utility.yul\":7:133   */\n  swap2\n  swap1\n  pop\n  jump\t// out\n    /* \"#utility.yul\":139:235   */\ntag_14:\n    /* \"#utility.yul\":176:183   */\n  0x00\n    /* \"#utility.yul\":205:229   */\n  tag_19\n    /* \"#utility.yul\":223:228   */\n  dup3\n    /* \"#utility.yul\":205:229   */\n  tag_13\n  jump\t// in\ntag_19:\n    /* \"#utility.yul\":194:229   */\n  swap1\n  pop\n    /* \"#utility.yul\":139:235   */\n  swap2\n  swap1\n  pop\n  jump\t// out\n    /* \"#utility.yul\":241:359   */\ntag_15:\n    /* \"#utility.yul\":328:352   */\n  tag_21\n    /* \"#utility.yul\":346:351   */\n  dup2\n    /* \"#utility.yul\":328:352   */\n  tag_14\n  jump\t// in\ntag_21:\n    /* \"#utility.yul\":323:326   */\n  dup3\n    /* \"#utility.yul\":316:353   */\n  mstore\n    /* \"#utility.yul\":241:359   */\n  pop\n  pop\n  jump\t// out\n    /* \"#utility.yul\":365:587   */\ntag_7:\n    /* \"#utility.yul\":458:462   */\n  0x00\n    /* \"#utility.yul\":496:498   */\n  0x20\n    /* \"#utility.yul\":485:494   */\n  dup3\n    /* \"#utility.yul\":481:499   */\n  add\n    /* \"#utility.yul\":473:499   */\n  swap1\n  pop\n    /* \"#utility.yul\":509:580   */\n  tag_23\n    /* \"#utility.yul\":577:578   */\n  0x00\n    /* \"#utility.yul\":566:575   */\n  dup4\n    /* \"#utility.yul\":562:579   */\n  add\n    /* \"#utility.yul\":553:559   */\n  dup5\n    /* \"#utility.yul\":509:580   */\n  tag_15\n  jump\t// in\ntag_23:\n    /* \"#utility.yul\":365:587   */\n  swap3\n  swap2\n  pop\n  pop\n  jump\t// out\n    /* \"JudgeReg.sol\":120:1539  contract JudgeReg is Ownable {... */\ntag_11:\n  dataSize(sub_0)\n  dup1\n  dataOffset(sub_0)\n  0x00\n  codecopy\n  0x00\n  return\nstop\n\nsub_0: assembly {\n        /* \"JudgeReg.sol\":120:1539  contract JudgeReg is Ownable {... */\n      mstore(0x40, 0x80)\n      callvalue\n      dup1\n      iszero\n      tag_1\n      jumpi\n      revert(0x00, 0x00)\n    tag_1:\n      pop\n      jumpi(tag_2, lt(calldatasize, 0x04))\n      shr(0xe0, calldataload(0x00))\n      dup1\n      0x8da5cb5b\n      gt\n      tag_10\n      jumpi\n      dup1\n      0x8da5cb5b\n      eq\n      tag_6\n      jumpi\n      dup1\n      0xb06b0368\n      eq\n      tag_7\n      jumpi\n      dup1\n      0xf089f7c3\n      eq\n      tag_8\n      jumpi\n      dup1\n      0xf2fde38b\n      eq\n      tag_9\n      jumpi\n      jump(tag_2)\n    tag_10:\n      dup1\n      0x0d292732\n      eq\n      tag_3\n      jumpi\n      dup1\n      0x5f6fdddf\n      eq\n      tag_4\n      jumpi\n      dup1\n      0x715018a6\n      eq\n      tag_5\n      jumpi\n    tag_2:\n      revert(0x00, 0x00)\n        /* \"JudgeReg.sol\":738:783  mapping (uint => address) public judgeToOwner */\n    tag_3:\n      tag_11\n      0x04\n      dup1\n      calldatasize\n      sub\n      dup2\n      add\n      swap1\n      tag_12\n      swap2\n      swap1\n      tag_13\n      jump\t// in\n    tag_12:\n      tag_14\n      jump\t// in\n    tag_11:\n      mload(0x40)\n      tag_15\n      swap2\n      swap1\n      tag_16\n      jump\t// in\n    tag_15:\n      mload(0x40)\n      dup1\n      swap2\n      sub\n      swap1\n      return\n        /* \"JudgeReg.sol\":1158:1536  function _registerJudge(string memory _name) public  { ... */\n    tag_4:\n      tag_17\n      0x04\n      dup1\n      calldatasize\n      sub\n      dup2\n      add\n      swap1\n      tag_18\n      swap2\n      swap1\n      tag_19\n      jump\t// in\n    tag_18:\n      tag_20\n      jump\t// in\n    tag_17:\n      stop\n        /* \"@openzeppelin/contracts/access/Ownable.sol\":2293:2394  function renounceOwnership() public virtual onlyOwner {... */\n    tag_5:\n      tag_21\n      tag_22\n      jump\t// in\n    tag_21:\n      stop\n        /* \"@openzeppelin/contracts/access/Ownable.sol\":1638:1723  function owner() public view virtual returns (address) {... */\n    tag_6:\n      tag_23\n      tag_24\n      jump\t// in\n    tag_23:\n      mload(0x40)\n      tag_25\n      swap2\n      swap1\n      tag_16\n      jump\t// in\n    tag_25:\n      mload(0x40)\n      dup1\n      swap2\n      sub\n      swap1\n      return\n        /* \"JudgeReg.sol\":644:665  Judge[] public judges */\n    tag_7:\n      tag_26\n      0x04\n      dup1\n      calldatasize\n      sub\n      dup2\n      add\n      swap1\n      tag_27\n      swap2\n      swap1\n      tag_13\n      jump\t// in\n    tag_27:\n      tag_28\n      jump\t// in\n    tag_26:\n      mload(0x40)\n      tag_29\n      swap5\n      swap4\n      swap3\n      swap2\n      swap1\n      tag_30\n      jump\t// in\n    tag_29:\n      mload(0x40)\n      dup1\n      swap2\n      sub\n      swap1\n      return\n        /* \"JudgeReg.sol\":790:835  mapping (address => uint) public ownerToJudge */\n    tag_8:\n      tag_31\n      0x04\n      dup1\n      calldatasize\n      sub\n      dup2\n      add\n      swap1\n      tag_32\n      swap2\n      swap1\n      tag_33\n      jump\t// in\n    tag_32:\n      tag_34\n      jump\t// in\n    tag_31:\n      mload(0x40)\n      tag_35\n      swap2\n      swap1\n      tag_36\n      jump\t// in\n    tag_35:\n      mload(0x40)\n      dup1\n      swap2\n      sub\n      swap1\n      return\n        /* \"@openzeppelin/contracts/access/Ownable.sol\":2543:2758  function transferOwnership(address newOwner) public virtual onlyOwner {... */\n    tag_9:\n      tag_37\n      0x04\n      dup1\n      calldatasize\n      sub\n      dup2\n      add\n      swap1\n      tag_38\n      swap2\n      swap1\n      tag_33\n      jump\t// in\n    tag_38:\n      tag_39\n      jump\t// in\n    tag_37:\n      stop\n        /* \"JudgeReg.sol\":738:783  mapping (uint => address) public judgeToOwner */\n    tag_14:\n      mstore(0x20, 0x02)\n      dup1\n      0x00\n      mstore\n      keccak256(0x00, 0x40)\n      0x00\n      swap2\n      pop\n      sload\n      swap1\n      0x0100\n      exp\n      swap1\n      div\n      0xffffffffffffffffffffffffffffffffffffffff\n      and\n      dup2\n      jump\t// out\n        /* \"JudgeReg.sol\":1158:1536  function _registerJudge(string memory _name) public  { ... */\n    tag_20:\n        /* \"JudgeReg.sol\":1259:1260  0 */\n      0x00\n        /* \"JudgeReg.sol\":1231:1243  ownerToJudge */\n      0x03\n        /* \"JudgeReg.sol\":1231:1255  ownerToJudge[msg.sender] */\n      0x00\n        /* \"JudgeReg.sol\":1244:1254  msg.sender */\n      caller\n        /* \"JudgeReg.sol\":1231:1255  ownerToJudge[msg.sender] */\n      0xffffffffffffffffffffffffffffffffffffffff\n      and\n      0xffffffffffffffffffffffffffffffffffffffff\n      and\n      dup2\n      mstore\n      0x20\n      add\n      swap1\n      dup2\n      mstore\n      0x20\n      add\n      0x00\n      keccak256\n      sload\n        /* \"JudgeReg.sol\":1231:1260  ownerToJudge[msg.sender] == 0 */\n      eq\n        /* \"JudgeReg.sol\":1223:1286  require(ownerToJudge[msg.sender] == 0, \"Judge already exsists\") */\n      tag_41\n      jumpi\n      mload(0x40)\n      0x08c379a000000000000000000000000000000000000000000000000000000000\n      dup2\n      mstore\n      0x04\n      add\n      tag_42\n      swap1\n      tag_43\n      jump\t// in\n    tag_42:\n      mload(0x40)\n      dup1\n      swap2\n      sub\n      swap1\n      revert\n    tag_41:\n        /* \"JudgeReg.sol\":1338:1344  judges */\n      0x01\n        /* \"JudgeReg.sol\":1350:1371  Judge(_name, 1, 0, 0) */\n      mload(0x40)\n      dup1\n      0x80\n      add\n      0x40\n      mstore\n      dup1\n        /* \"JudgeReg.sol\":1356:1361  _name */\n      dup4\n        /* \"JudgeReg.sol\":1350:1371  Judge(_name, 1, 0, 0) */\n      dup2\n      mstore\n      0x20\n      add\n        /* \"JudgeReg.sol\":1363:1364  1 */\n      0x01\n        /* \"JudgeReg.sol\":1350:1371  Judge(_name, 1, 0, 0) */\n      0xffff\n      and\n      dup2\n      mstore\n      0x20\n      add\n        /* \"JudgeReg.sol\":1366:1367  0 */\n      0x00\n        /* \"JudgeReg.sol\":1350:1371  Judge(_name, 1, 0, 0) */\n      0xffffffff\n      and\n      dup2\n      mstore\n      0x20\n      add\n        /* \"JudgeReg.sol\":1369:1370  0 */\n      0x00\n        /* \"JudgeReg.sol\":1350:1371  Judge(_name, 1, 0, 0) */\n      0xffff\n      and\n      dup2\n      mstore\n      pop\n        /* \"JudgeReg.sol\":1338:1372  judges.push(Judge(_name, 1, 0, 0)) */\n      swap1\n      dup1\n      0x01\n      dup2\n      sload\n      add\n      dup1\n      dup3\n      sstore\n      dup1\n      swap2\n      pop\n      pop\n      0x01\n      swap1\n      sub\n      swap1\n      0x00\n      mstore\n      keccak256(0x00, 0x20)\n      swap1\n      0x02\n      mul\n      add\n      0x00\n      swap1\n      swap2\n      swap1\n      swap2\n      swap1\n      swap2\n      pop\n      0x00\n      dup3\n      add\n      mload\n      dup2\n      0x00\n      add\n      swap1\n      dup2\n      tag_45\n      swap2\n      swap1\n      tag_46\n      jump\t// in\n    tag_45:\n      pop\n      0x20\n      dup3\n      add\n      mload\n      dup2\n      0x01\n      add\n      exp(0x0100, 0x00)\n      dup2\n      sload\n      dup2\n      0xffff\n      mul\n      not\n      and\n      swap1\n      dup4\n      0xffff\n      and\n      mul\n      or\n      swap1\n      sstore\n      pop\n      0x40\n      dup3\n      add\n      mload\n      dup2\n      0x01\n      add\n      exp(0x0100, 0x02)\n      dup2\n      sload\n      dup2\n      0xffffffff\n      mul\n      not\n      and\n      swap1\n      dup4\n      0xffffffff\n      and\n      mul\n      or\n      swap1\n      sstore\n      pop\n      0x60\n      dup3\n      add\n      mload\n      dup2\n      0x01\n      add\n      exp(0x0100, 0x06)\n      dup2\n      sload\n      dup2\n      0xffff\n      mul\n      not\n      and\n      swap1\n      dup4\n      0xffff\n      and\n      mul\n      or\n      swap1\n      sstore\n      pop\n      pop\n      pop\n        /* \"JudgeReg.sol\":1383:1393  uint256 id */\n      0x00\n        /* \"JudgeReg.sol\":1412:1413  1 */\n      0x01\n        /* \"JudgeReg.sol\":1396:1402  judges */\n      dup1\n        /* \"JudgeReg.sol\":1396:1409  judges.length */\n      dup1\n      sload\n      swap1\n      pop\n        /* \"JudgeReg.sol\":1396:1413  judges.length - 1 */\n      tag_47\n      swap2\n      swap1\n      tag_48\n      jump\t// in\n    tag_47:\n        /* \"JudgeReg.sol\":1383:1413  uint256 id = judges.length - 1 */\n      swap1\n      pop\n        /* \"JudgeReg.sol\":1443:1453  msg.sender */\n      caller\n        /* \"JudgeReg.sol\":1424:1436  judgeToOwner */\n      0x02\n        /* \"JudgeReg.sol\":1424:1440  judgeToOwner[id] */\n      0x00\n        /* \"JudgeReg.sol\":1437:1439  id */\n      dup4\n        /* \"JudgeReg.sol\":1424:1440  judgeToOwner[id] */\n      dup2\n      mstore\n      0x20\n      add\n      swap1\n      dup2\n      mstore\n      0x20\n      add\n      0x00\n      keccak256\n      0x00\n        /* \"JudgeReg.sol\":1424:1453  judgeToOwner[id] = msg.sender */\n      0x0100\n      exp\n      dup2\n      sload\n      dup2\n      0xffffffffffffffffffffffffffffffffffffffff\n      mul\n      not\n      and\n      swap1\n      dup4\n      0xffffffffffffffffffffffffffffffffffffffff\n      and\n      mul\n      or\n      swap1\n      sstore\n      pop\n        /* \"JudgeReg.sol\":1491:1493  id */\n      dup1\n        /* \"JudgeReg.sol\":1464:1476  ownerToJudge */\n      0x03\n        /* \"JudgeReg.sol\":1464:1488  ownerToJudge[msg.sender] */\n      0x00\n        /* \"JudgeReg.sol\":1477:1487  msg.sender */\n      caller\n        /* \"JudgeReg.sol\":1464:1488  ownerToJudge[msg.sender] */\n      0xffffffffffffffffffffffffffffffffffffffff\n      and\n      0xffffffffffffffffffffffffffffffffffffffff\n      and\n      dup2\n      mstore\n      0x20\n      add\n      swap1\n      dup2\n      mstore\n      0x20\n      add\n      0x00\n      keccak256\n        /* \"JudgeReg.sol\":1464:1493  ownerToJudge[msg.sender] = id */\n      dup2\n      swap1\n      sstore\n      pop\n        /* \"JudgeReg.sol\":1509:1528  NewJudge(id, _name) */\n      0x41b82268d4cfcb7bde62bae060583c745a4821f267e1fe541b5f624e00d43c7d\n        /* \"JudgeReg.sol\":1518:1520  id */\n      dup2\n        /* \"JudgeReg.sol\":1522:1527  _name */\n      dup4\n        /* \"JudgeReg.sol\":1509:1528  NewJudge(id, _name) */\n      mload(0x40)\n      tag_49\n      swap3\n      swap2\n      swap1\n      tag_50\n      jump\t// in\n    tag_49:\n      mload(0x40)\n      dup1\n      swap2\n      sub\n      swap1\n      log1\n        /* \"JudgeReg.sol\":1211:1536  { ... */\n      pop\n        /* \"JudgeReg.sol\":1158:1536  function _registerJudge(string memory _name) public  { ... */\n      pop\n      jump\t// out\n        /* \"@openzeppelin/contracts/access/Ownable.sol\":2293:2394  function renounceOwnership() public virtual onlyOwner {... */\n    tag_22:\n        /* \"@openzeppelin/contracts/access/Ownable.sol\":1531:1544  _checkOwner() */\n      tag_52\n        /* \"@openzeppelin/contracts/access/Ownable.sol\":1531:1542  _checkOwner */\n      tag_53\n        /* \"@openzeppelin/contracts/access/Ownable.sol\":1531:1544  _checkOwner() */\n      jump\t// in\n    tag_52:\n        /* \"@openzeppelin/contracts/access/Ownable.sol\":2357:2387  _transferOwnership(address(0)) */\n      tag_55\n        /* \"@openzeppelin/contracts/access/Ownable.sol\":2384:2385  0 */\n      0x00\n        /* \"@openzeppelin/contracts/access/Ownable.sol\":2357:2375  _transferOwnership */\n      tag_56\n        /* \"@openzeppelin/contracts/access/Ownable.sol\":2357:2387  _transferOwnership(address(0)) */\n      jump\t// in\n    tag_55:\n        /* \"@openzeppelin/contracts/access/Ownable.sol\":2293:2394  function renounceOwnership() public virtual onlyOwner {... */\n      jump\t// out\n        /* \"@openzeppelin/contracts/access/Ownable.sol\":1638:1723  function owner() public view virtual returns (address) {... */\n    tag_24:\n        /* \"@openzeppelin/contracts/access/Ownable.sol\":1684:1691  address */\n      0x00\n        /* \"@openzeppelin/contracts/access/Ownable.sol\":1710:1716  _owner */\n      0x00\n      0x00\n      swap1\n      sload\n      swap1\n      0x0100\n      exp\n      swap1\n      div\n      0xffffffffffffffffffffffffffffffffffffffff\n      and\n        /* \"@openzeppelin/contracts/access/Ownable.sol\":1703:1716  return _owner */\n      swap1\n      pop\n        /* \"@openzeppelin/contracts/access/Ownable.sol\":1638:1723  function owner() public view virtual returns (address) {... */\n      swap1\n      jump\t// out\n        /* \"JudgeReg.sol\":644:665  Judge[] public judges */\n    tag_28:\n      0x01\n      dup2\n      dup2\n      sload\n      dup2\n      lt\n      tag_58\n      jumpi\n      0x00\n      dup1\n      revert\n    tag_58:\n      swap1\n      0x00\n      mstore\n      keccak256(0x00, 0x20)\n      swap1\n      0x02\n      mul\n      add\n      0x00\n      swap2\n      pop\n      swap1\n      pop\n      dup1\n      0x00\n      add\n      dup1\n      sload\n      tag_60\n      swap1\n      tag_61\n      jump\t// in\n    tag_60:\n      dup1\n      0x1f\n      add\n      0x20\n      dup1\n      swap2\n      div\n      mul\n      0x20\n      add\n      mload(0x40)\n      swap1\n      dup2\n      add\n      0x40\n      mstore\n      dup1\n      swap3\n      swap2\n      swap1\n      dup2\n      dup2\n      mstore\n      0x20\n      add\n      dup3\n      dup1\n      sload\n      tag_62\n      swap1\n      tag_61\n      jump\t// in\n    tag_62:\n      dup1\n      iszero\n      tag_63\n      jumpi\n      dup1\n      0x1f\n      lt\n      tag_64\n      jumpi\n      0x0100\n      dup1\n      dup4\n      sload\n      div\n      mul\n      dup4\n      mstore\n      swap2\n      0x20\n      add\n      swap2\n      jump(tag_63)\n    tag_64:\n      dup3\n      add\n      swap2\n      swap1\n      0x00\n      mstore\n      keccak256(0x00, 0x20)\n      swap1\n    tag_65:\n      dup2\n      sload\n      dup2\n      mstore\n      swap1\n      0x01\n      add\n      swap1\n      0x20\n      add\n      dup1\n      dup4\n      gt\n      tag_65\n      jumpi\n      dup3\n      swap1\n      sub\n      0x1f\n      and\n      dup3\n      add\n      swap2\n    tag_63:\n      pop\n      pop\n      pop\n      pop\n      pop\n      swap1\n      dup1\n      0x01\n      add\n      0x00\n      swap1\n      sload\n      swap1\n      0x0100\n      exp\n      swap1\n      div\n      0xffff\n      and\n      swap1\n      dup1\n      0x01\n      add\n      0x02\n      swap1\n      sload\n      swap1\n      0x0100\n      exp\n      swap1\n      div\n      0xffffffff\n      and\n      swap1\n      dup1\n      0x01\n      add\n      0x06\n      swap1\n      sload\n      swap1\n      0x0100\n      exp\n      swap1\n      div\n      0xffff\n      and\n      swap1\n      pop\n      dup5\n      jump\t// out\n        /* \"JudgeReg.sol\":790:835  mapping (address => uint) public ownerToJudge */\n    tag_34:\n      mstore(0x20, 0x03)\n      dup1\n      0x00\n      mstore\n      keccak256(0x00, 0x40)\n      0x00\n      swap2\n      pop\n      swap1\n      pop\n      sload\n      dup2\n      jump\t// out\n        /* \"@openzeppelin/contracts/access/Ownable.sol\":2543:2758  function transferOwnership(address newOwner) public virtual onlyOwner {... */\n    tag_39:\n        /* \"@openzeppelin/contracts/access/Ownable.sol\":1531:1544  _checkOwner() */\n      tag_67\n        /* \"@openzeppelin/contracts/access/Ownable.sol\":1531:1542  _checkOwner */\n      tag_53\n        /* \"@openzeppelin/contracts/access/Ownable.sol\":1531:1544  _checkOwner() */\n      jump\t// in\n    tag_67:\n        /* \"@openzeppelin/contracts/access/Ownable.sol\":2647:2648  0 */\n      0x00\n        /* \"@openzeppelin/contracts/access/Ownable.sol\":2627:2649  newOwner == address(0) */\n      0xffffffffffffffffffffffffffffffffffffffff\n      and\n        /* \"@openzeppelin/contracts/access/Ownable.sol\":2627:2635  newOwner */\n      dup2\n        /* \"@openzeppelin/contracts/access/Ownable.sol\":2627:2649  newOwner == address(0) */\n      0xffffffffffffffffffffffffffffffffffffffff\n      and\n      sub\n        /* \"@openzeppelin/contracts/access/Ownable.sol\":2623:2714  if (newOwner == address(0)) {... */\n      tag_69\n      jumpi\n        /* \"@openzeppelin/contracts/access/Ownable.sol\":2700:2701  0 */\n      0x00\n        /* \"@openzeppelin/contracts/access/Ownable.sol\":2672:2703  OwnableInvalidOwner(address(0)) */\n      mload(0x40)\n      0x1e4fbdf700000000000000000000000000000000000000000000000000000000\n      dup2\n      mstore\n      0x04\n      add\n      tag_70\n      swap2\n      swap1\n      tag_16\n      jump\t// in\n    tag_70:\n      mload(0x40)\n      dup1\n      swap2\n      sub\n      swap1\n      revert\n        /* \"@openzeppelin/contracts/access/Ownable.sol\":2623:2714  if (newOwner == address(0)) {... */\n    tag_69:\n        /* \"@openzeppelin/contracts/access/Ownable.sol\":2723:2751  _transferOwnership(newOwner) */\n      tag_71\n        /* \"@openzeppelin/contracts/access/Ownable.sol\":2742:2750  newOwner */\n      dup2\n        /* \"@openzeppelin/contracts/access/Ownable.sol\":2723:2741  _transferOwnership */\n      tag_56\n        /* \"@openzeppelin/contracts/access/Ownable.sol\":2723:2751  _transferOwnership(newOwner) */\n      jump\t// in\n    tag_71:\n        /* \"@openzeppelin/contracts/access/Ownable.sol\":2543:2758  function transferOwnership(address newOwner) public virtual onlyOwner {... */\n      pop\n      jump\t// out\n        /* \"@openzeppelin/contracts/access/Ownable.sol\":1796:1958  function _checkOwner() internal view virtual {... */\n    tag_53:\n        /* \"@openzeppelin/contracts/access/Ownable.sol\":1866:1878  _msgSender() */\n      tag_73\n        /* \"@openzeppelin/contracts/access/Ownable.sol\":1866:1876  _msgSender */\n      tag_74\n        /* \"@openzeppelin/contracts/access/Ownable.sol\":1866:1878  _msgSender() */\n      jump\t// in\n    tag_73:\n        /* \"@openzeppelin/contracts/access/Ownable.sol\":1855:1878  owner() != _msgSender() */\n      0xffffffffffffffffffffffffffffffffffffffff\n      and\n        /* \"@openzeppelin/contracts/access/Ownable.sol\":1855:1862  owner() */\n      tag_75\n        /* \"@openzeppelin/contracts/access/Ownable.sol\":1855:1860  owner */\n      tag_24\n        /* \"@openzeppelin/contracts/access/Ownable.sol\":1855:1862  owner() */\n      jump\t// in\n    tag_75:\n        /* \"@openzeppelin/contracts/access/Ownable.sol\":1855:1878  owner() != _msgSender() */\n      0xffffffffffffffffffffffffffffffffffffffff\n      and\n      eq\n        /* \"@openzeppelin/contracts/access/Ownable.sol\":1851:1952  if (owner() != _msgSender()) {... */\n      tag_76\n      jumpi\n        /* \"@openzeppelin/contracts/access/Ownable.sol\":1928:1940  _msgSender() */\n      tag_77\n        /* \"@openzeppelin/contracts/access/Ownable.sol\":1928:1938  _msgSender */\n      tag_74\n        /* \"@openzeppelin/contracts/access/Ownable.sol\":1928:1940  _msgSender() */\n      jump\t// in\n    tag_77:\n        /* \"@openzeppelin/contracts/access/Ownable.sol\":1901:1941  OwnableUnauthorizedAccount(_msgSender()) */\n      mload(0x40)\n      0x118cdaa700000000000000000000000000000000000000000000000000000000\n      dup2\n      mstore\n      0x04\n      add\n      tag_78\n      swap2\n      swap1\n      tag_16\n      jump\t// in\n    tag_78:\n      mload(0x40)\n      dup1\n      swap2\n      sub\n      swap1\n      revert\n        /* \"@openzeppelin/contracts/access/Ownable.sol\":1851:1952  if (owner() != _msgSender()) {... */\n    tag_76:\n        /* \"@openzeppelin/contracts/access/Ownable.sol\":1796:1958  function _checkOwner() internal view virtual {... */\n      jump\t// out\n        /* \"@openzeppelin/contracts/access/Ownable.sol\":2912:3099  function _transferOwnership(address newOwner) internal virtual {... */\n    tag_56:\n        /* \"@openzeppelin/contracts/access/Ownable.sol\":2985:3001  address oldOwner */\n      0x00\n        /* \"@openzeppelin/contracts/access/Ownable.sol\":3004:3010  _owner */\n      0x00\n      0x00\n      swap1\n      sload\n      swap1\n      0x0100\n      exp\n      swap1\n      div\n      0xffffffffffffffffffffffffffffffffffffffff\n      and\n        /* \"@openzeppelin/contracts/access/Ownable.sol\":2985:3010  address oldOwner = _owner */\n      swap1\n      pop\n        /* \"@openzeppelin/contracts/access/Ownable.sol\":3029:3037  newOwner */\n      dup2\n        /* \"@openzeppelin/contracts/access/Ownable.sol\":3020:3026  _owner */\n      0x00\n      0x00\n        /* \"@openzeppelin/contracts/access/Ownable.sol\":3020:3037  _owner = newOwner */\n      0x0100\n      exp\n      dup2\n      sload\n      dup2\n      0xffffffffffffffffffffffffffffffffffffffff\n      mul\n      not\n      and\n      swap1\n      dup4\n      0xffffffffffffffffffffffffffffffffffffffff\n      and\n      mul\n      or\n      swap1\n      sstore\n      pop\n        /* \"@openzeppelin/contracts/access/Ownable.sol\":3083:3091  newOwner */\n      dup2\n        /* \"@openzeppelin/contracts/access/Ownable.sol\":3052:3092  OwnershipTransferred(oldOwner, newOwner) */\n      0xffffffffffffffffffffffffffffffffffffffff\n      and\n        /* \"@openzeppelin/contracts/access/Ownable.sol\":3073:3081  oldOwner */\n      dup2\n        /* \"@openzeppelin/contracts/access/Ownable.sol\":3052:3092  OwnershipTransferred(oldOwner, newOwner) */\n      0xffffffffffffffffffffffffffffffffffffffff\n      and\n      0x8be0079c531659141344cd1fd0a4f28419497f9722a3daafe3b4186f6b6457e0\n      mload(0x40)\n      mload(0x40)\n      dup1\n      swap2\n      sub\n      swap1\n      log3\n        /* \"@openzeppelin/contracts/access/Ownable.sol\":2975:3099  {... */\n      pop\n        /* \"@openzeppelin/contracts/access/Ownable.sol\":2912:3099  function _transferOwnership(address newOwner) internal virtual {... */\n      pop\n      jump\t// out\n        /* \"@openzeppelin/contracts/utils/Context.sol\":656:752  function _msgSender() internal view virtual returns (address) {... */\n    tag_74:\n        /* \"@openzeppelin/contracts/utils/Context.sol\":709:716  address */\n      0x00\n        /* \"@openzeppelin/contracts/utils/Context.sol\":735:745  msg.sender */\n      caller\n        /* \"@openzeppelin/contracts/utils/Context.sol\":728:745  return msg.sender */\n      swap1\n      pop\n        /* \"@openzeppelin/contracts/utils/Context.sol\":656:752  function _msgSender() internal view virtual returns (address) {... */\n      swap1\n      jump\t// out\n        /* \"#utility.yul\":7:82   */\n    tag_81:\n        /* \"#utility.yul\":40:46   */\n      0x00\n        /* \"#utility.yul\":73:75   */\n      0x40\n        /* \"#utility.yul\":67:76   */\n      mload\n        /* \"#utility.yul\":57:76   */\n      swap1\n      pop\n        /* \"#utility.yul\":7:82   */\n      swap1\n      jump\t// out\n        /* \"#utility.yul\":88:205   */\n    tag_82:\n        /* \"#utility.yul\":197:198   */\n      0x00\n        /* \"#utility.yul\":194:195   */\n      0x00\n        /* \"#utility.yul\":187:199   */\n      revert\n        /* \"#utility.yul\":211:328   */\n    tag_83:\n        /* \"#utility.yul\":320:321   */\n      0x00\n        /* \"#utility.yul\":317:318   */\n      0x00\n        /* \"#utility.yul\":310:322   */\n      revert\n        /* \"#utility.yul\":334:411   */\n    tag_84:\n        /* \"#utility.yul\":371:378   */\n      0x00\n        /* \"#utility.yul\":400:405   */\n      dup2\n        /* \"#utility.yul\":389:405   */\n      swap1\n      pop\n        /* \"#utility.yul\":334:411   */\n      swap2\n      swap1\n      pop\n      jump\t// out\n        /* \"#utility.yul\":417:539   */\n    tag_85:\n        /* \"#utility.yul\":490:514   */\n      tag_136\n        /* \"#utility.yul\":508:513   */\n      dup2\n        /* \"#utility.yul\":490:514   */\n      tag_84\n      jump\t// in\n    tag_136:\n        /* \"#utility.yul\":483:488   */\n      dup2\n        /* \"#utility.yul\":480:515   */\n      eq\n        /* \"#utility.yul\":470:533   */\n      tag_137\n      jumpi\n        /* \"#utility.yul\":529:530   */\n      0x00\n        /* \"#utility.yul\":526:527   */\n      0x00\n        /* \"#utility.yul\":519:531   */\n      revert\n        /* \"#utility.yul\":470:533   */\n    tag_137:\n        /* \"#utility.yul\":417:539   */\n      pop\n      jump\t// out\n        /* \"#utility.yul\":545:684   */\n    tag_86:\n        /* \"#utility.yul\":591:596   */\n      0x00\n        /* \"#utility.yul\":629:635   */\n      dup2\n        /* \"#utility.yul\":616:636   */\n      calldataload\n        /* \"#utility.yul\":607:636   */\n      swap1\n      pop\n        /* \"#utility.yul\":645:678   */\n      tag_139\n        /* \"#utility.yul\":672:677   */\n      dup2\n        /* \"#utility.yul\":645:678   */\n      tag_85\n      jump\t// in\n    tag_139:\n        /* \"#utility.yul\":545:684   */\n      swap3\n      swap2\n      pop\n      pop\n      jump\t// out\n        /* \"#utility.yul\":690:1019   */\n    tag_13:\n        /* \"#utility.yul\":749:755   */\n      0x00\n        /* \"#utility.yul\":798:800   */\n      0x20\n        /* \"#utility.yul\":786:795   */\n      dup3\n        /* \"#utility.yul\":777:784   */\n      dup5\n        /* \"#utility.yul\":773:796   */\n      sub\n        /* \"#utility.yul\":769:801   */\n      slt\n        /* \"#utility.yul\":766:885   */\n      iszero\n      tag_141\n      jumpi\n        /* \"#utility.yul\":804:883   */\n      tag_142\n      tag_82\n      jump\t// in\n    tag_142:\n        /* \"#utility.yul\":766:885   */\n    tag_141:\n        /* \"#utility.yul\":924:925   */\n      0x00\n        /* \"#utility.yul\":949:1002   */\n      tag_143\n        /* \"#utility.yul\":994:1001   */\n      dup5\n        /* \"#utility.yul\":985:991   */\n      dup3\n        /* \"#utility.yul\":974:983   */\n      dup6\n        /* \"#utility.yul\":970:992   */\n      add\n        /* \"#utility.yul\":949:1002   */\n      tag_86\n      jump\t// in\n    tag_143:\n        /* \"#utility.yul\":939:1002   */\n      swap2\n      pop\n        /* \"#utility.yul\":895:1012   */\n      pop\n        /* \"#utility.yul\":690:1019   */\n      swap3\n      swap2\n      pop\n      pop\n      jump\t// out\n        /* \"#utility.yul\":1025:1151   */\n    tag_87:\n        /* \"#utility.yul\":1062:1069   */\n      0x00\n        /* \"#utility.yul\":1102:1144   */\n      0xffffffffffffffffffffffffffffffffffffffff\n        /* \"#utility.yul\":1095:1100   */\n      dup3\n        /* \"#utility.yul\":1091:1145   */\n      and\n        /* \"#utility.yul\":1080:1145   */\n      swap1\n      pop\n        /* \"#utility.yul\":1025:1151   */\n      swap2\n      swap1\n      pop\n      jump\t// out\n        /* \"#utility.yul\":1157:1253   */\n    tag_88:\n        /* \"#utility.yul\":1194:1201   */\n      0x00\n        /* \"#utility.yul\":1223:1247   */\n      tag_146\n        /* \"#utility.yul\":1241:1246   */\n      dup3\n        /* \"#utility.yul\":1223:1247   */\n      tag_87\n      jump\t// in\n    tag_146:\n        /* \"#utility.yul\":1212:1247   */\n      swap1\n      pop\n        /* \"#utility.yul\":1157:1253   */\n      swap2\n      swap1\n      pop\n      jump\t// out\n        /* \"#utility.yul\":1259:1377   */\n    tag_89:\n        /* \"#utility.yul\":1346:1370   */\n      tag_148\n        /* \"#utility.yul\":1364:1369   */\n      dup2\n        /* \"#utility.yul\":1346:1370   */\n      tag_88\n      jump\t// in\n    tag_148:\n        /* \"#utility.yul\":1341:1344   */\n      dup3\n        /* \"#utility.yul\":1334:1371   */\n      mstore\n        /* \"#utility.yul\":1259:1377   */\n      pop\n      pop\n      jump\t// out\n        /* \"#utility.yul\":1383:1605   */\n    tag_16:\n        /* \"#utility.yul\":1476:1480   */\n      0x00\n        /* \"#utility.yul\":1514:1516   */\n      0x20\n        /* \"#utility.yul\":1503:1512   */\n      dup3\n        /* \"#utility.yul\":1499:1517   */\n      add\n        /* \"#utility.yul\":1491:1517   */\n      swap1\n      pop\n        /* \"#utility.yul\":1527:1598   */\n      tag_150\n        /* \"#utility.yul\":1595:1596   */\n      0x00\n        /* \"#utility.yul\":1584:1593   */\n      dup4\n        /* \"#utility.yul\":1580:1597   */\n      add\n        /* \"#utility.yul\":1571:1577   */\n      dup5\n        /* \"#utility.yul\":1527:1598   */\n      tag_89\n      jump\t// in\n    tag_150:\n        /* \"#utility.yul\":1383:1605   */\n      swap3\n      swap2\n      pop\n      pop\n      jump\t// out\n        /* \"#utility.yul\":1611:1728   */\n    tag_90:\n        /* \"#utility.yul\":1720:1721   */\n      0x00\n        /* \"#utility.yul\":1717:1718   */\n      0x00\n        /* \"#utility.yul\":1710:1722   */\n      revert\n        /* \"#utility.yul\":1734:1851   */\n    tag_91:\n        /* \"#utility.yul\":1843:1844   */\n      0x00\n        /* \"#utility.yul\":1840:1841   */\n      0x00\n        /* \"#utility.yul\":1833:1845   */\n      revert\n        /* \"#utility.yul\":1857:1959   */\n    tag_92:\n        /* \"#utility.yul\":1898:1904   */\n      0x00\n        /* \"#utility.yul\":1949:1951   */\n      0x1f\n        /* \"#utility.yul\":1945:1952   */\n      not\n        /* \"#utility.yul\":1940:1942   */\n      0x1f\n        /* \"#utility.yul\":1933:1938   */\n      dup4\n        /* \"#utility.yul\":1929:1943   */\n      add\n        /* \"#utility.yul\":1925:1953   */\n      and\n        /* \"#utility.yul\":1915:1953   */\n      swap1\n      pop\n        /* \"#utility.yul\":1857:1959   */\n      swap2\n      swap1\n      pop\n      jump\t// out\n        /* \"#utility.yul\":1965:2145   */\n    tag_93:\n        /* \"#utility.yul\":2013:2090   */\n      0x4e487b7100000000000000000000000000000000000000000000000000000000\n        /* \"#utility.yul\":2010:2011   */\n      0x00\n        /* \"#utility.yul\":2003:2091   */\n      mstore\n        /* \"#utility.yul\":2110:2114   */\n      0x41\n        /* \"#utility.yul\":2107:2108   */\n      0x04\n        /* \"#utility.yul\":2100:2115   */\n      mstore\n        /* \"#utility.yul\":2134:2138   */\n      0x24\n        /* \"#utility.yul\":2131:2132   */\n      0x00\n        /* \"#utility.yul\":2124:2139   */\n      revert\n        /* \"#utility.yul\":2151:2432   */\n    tag_94:\n        /* \"#utility.yul\":2234:2261   */\n      tag_156\n        /* \"#utility.yul\":2256:2260   */\n      dup3\n        /* \"#utility.yul\":2234:2261   */\n      tag_92\n      jump\t// in\n    tag_156:\n        /* \"#utility.yul\":2226:2232   */\n      dup2\n        /* \"#utility.yul\":2222:2262   */\n      add\n        /* \"#utility.yul\":2364:2370   */\n      dup2\n        /* \"#utility.yul\":2352:2362   */\n      dup2\n        /* \"#utility.yul\":2349:2371   */\n      lt\n        /* \"#utility.yul\":2328:2346   */\n      0xffffffffffffffff\n        /* \"#utility.yul\":2316:2326   */\n      dup3\n        /* \"#utility.yul\":2313:2347   */\n      gt\n        /* \"#utility.yul\":2310:2372   */\n      or\n        /* \"#utility.yul\":2307:2395   */\n      iszero\n      tag_157\n      jumpi\n        /* \"#utility.yul\":2375:2393   */\n      tag_158\n      tag_93\n      jump\t// in\n    tag_158:\n        /* \"#utility.yul\":2307:2395   */\n    tag_157:\n        /* \"#utility.yul\":2415:2425   */\n      dup1\n        /* \"#utility.yul\":2411:2413   */\n      0x40\n        /* \"#utility.yul\":2404:2426   */\n      mstore\n        /* \"#utility.yul\":2194:2432   */\n      pop\n        /* \"#utility.yul\":2151:2432   */\n      pop\n      pop\n      jump\t// out\n        /* \"#utility.yul\":2438:2567   */\n    tag_95:\n        /* \"#utility.yul\":2472:2478   */\n      0x00\n        /* \"#utility.yul\":2499:2519   */\n      tag_160\n      tag_81\n      jump\t// in\n    tag_160:\n        /* \"#utility.yul\":2489:2519   */\n      swap1\n      pop\n        /* \"#utility.yul\":2528:2561   */\n      tag_161\n        /* \"#utility.yul\":2556:2560   */\n      dup3\n        /* \"#utility.yul\":2548:2554   */\n      dup3\n        /* \"#utility.yul\":2528:2561   */\n      tag_94\n      jump\t// in\n    tag_161:\n        /* \"#utility.yul\":2438:2567   */\n      swap2\n      swap1\n      pop\n      jump\t// out\n        /* \"#utility.yul\":2573:2881   */\n    tag_96:\n        /* \"#utility.yul\":2635:2639   */\n      0x00\n        /* \"#utility.yul\":2725:2743   */\n      0xffffffffffffffff\n        /* \"#utility.yul\":2717:2723   */\n      dup3\n        /* \"#utility.yul\":2714:2744   */\n      gt\n        /* \"#utility.yul\":2711:2767   */\n      iszero\n      tag_163\n      jumpi\n        /* \"#utility.yul\":2747:2765   */\n      tag_164\n      tag_93\n      jump\t// in\n    tag_164:\n        /* \"#utility.yul\":2711:2767   */\n    tag_163:\n        /* \"#utility.yul\":2785:2814   */\n      tag_165\n        /* \"#utility.yul\":2807:2813   */\n      dup3\n        /* \"#utility.yul\":2785:2814   */\n      tag_92\n      jump\t// in\n    tag_165:\n        /* \"#utility.yul\":2777:2814   */\n      swap1\n      pop\n        /* \"#utility.yul\":2869:2873   */\n      0x20\n        /* \"#utility.yul\":2863:2867   */\n      dup2\n        /* \"#utility.yul\":2859:2874   */\n      add\n        /* \"#utility.yul\":2851:2874   */\n      swap1\n      pop\n        /* \"#utility.yul\":2573:2881   */\n      swap2\n      swap1\n      pop\n      jump\t// out\n        /* \"#utility.yul\":2887:3035   */\n    tag_97:\n        /* \"#utility.yul\":2985:2991   */\n      dup3\n        /* \"#utility.yul\":2980:2983   */\n      dup2\n        /* \"#utility.yul\":2975:2978   */\n      dup4\n        /* \"#utility.yul\":2962:2992   */\n      calldatacopy\n        /* \"#utility.yul\":3026:3027   */\n      0x00\n        /* \"#utility.yul\":3017:3023   */\n      dup4\n        /* \"#utility.yul\":3012:3015   */\n      dup4\n        /* \"#utility.yul\":3008:3024   */\n      add\n        /* \"#utility.yul\":3001:3028   */\n      mstore\n        /* \"#utility.yul\":2887:3035   */\n      pop\n      pop\n      pop\n      jump\t// out\n        /* \"#utility.yul\":3041:3466   */\n    tag_98:\n        /* \"#utility.yul\":3119:3124   */\n      0x00\n        /* \"#utility.yul\":3144:3210   */\n      tag_168\n        /* \"#utility.yul\":3160:3209   */\n      tag_169\n        /* \"#utility.yul\":3202:3208   */\n      dup5\n        /* \"#utility.yul\":3160:3209   */\n      tag_96\n      jump\t// in\n    tag_169:\n        /* \"#utility.yul\":3144:3210   */\n      tag_95\n      jump\t// in\n    tag_168:\n        /* \"#utility.yul\":3135:3210   */\n      swap1\n      pop\n        /* \"#utility.yul\":3233:3239   */\n      dup3\n        /* \"#utility.yul\":3226:3231   */\n      dup2\n        /* \"#utility.yul\":3219:3240   */\n      mstore\n        /* \"#utility.yul\":3271:3275   */\n      0x20\n        /* \"#utility.yul\":3264:3269   */\n      dup2\n        /* \"#utility.yul\":3260:3276   */\n      add\n        /* \"#utility.yul\":3309:3312   */\n      dup5\n        /* \"#utility.yul\":3300:3306   */\n      dup5\n        /* \"#utility.yul\":3295:3298   */\n      dup5\n        /* \"#utility.yul\":3291:3307   */\n      add\n        /* \"#utility.yul\":3288:3313   */\n      gt\n        /* \"#utility.yul\":3285:3397   */\n      iszero\n      tag_170\n      jumpi\n        /* \"#utility.yul\":3316:3395   */\n      tag_171\n      tag_91\n      jump\t// in\n    tag_171:\n        /* \"#utility.yul\":3285:3397   */\n    tag_170:\n        /* \"#utility.yul\":3406:3460   */\n      tag_172\n        /* \"#utility.yul\":3453:3459   */\n      dup5\n        /* \"#utility.yul\":3448:3451   */\n      dup3\n        /* \"#utility.yul\":3443:3446   */\n      dup6\n        /* \"#utility.yul\":3406:3460   */\n      tag_97\n      jump\t// in\n    tag_172:\n        /* \"#utility.yul\":3125:3466   */\n      pop\n        /* \"#utility.yul\":3041:3466   */\n      swap4\n      swap3\n      pop\n      pop\n      pop\n      jump\t// out\n        /* \"#utility.yul\":3486:3826   */\n    tag_99:\n        /* \"#utility.yul\":3542:3547   */\n      0x00\n        /* \"#utility.yul\":3591:3594   */\n      dup3\n        /* \"#utility.yul\":3584:3588   */\n      0x1f\n        /* \"#utility.yul\":3576:3582   */\n      dup4\n        /* \"#utility.yul\":3572:3589   */\n      add\n        /* \"#utility.yul\":3568:3595   */\n      slt\n        /* \"#utility.yul\":3558:3680   */\n      tag_174\n      jumpi\n        /* \"#utility.yul\":3599:3678   */\n      tag_175\n      tag_90\n      jump\t// in\n    tag_175:\n        /* \"#utility.yul\":3558:3680   */\n    tag_174:\n        /* \"#utility.yul\":3716:3722   */\n      dup2\n        /* \"#utility.yul\":3703:3723   */\n      calldataload\n        /* \"#utility.yul\":3741:3820   */\n      tag_176\n        /* \"#utility.yul\":3816:3819   */\n      dup5\n        /* \"#utility.yul\":3808:3814   */\n      dup3\n        /* \"#utility.yul\":3801:3805   */\n      0x20\n        /* \"#utility.yul\":3793:3799   */\n      dup7\n        /* \"#utility.yul\":3789:3806   */\n      add\n        /* \"#utility.yul\":3741:3820   */\n      tag_98\n      jump\t// in\n    tag_176:\n        /* \"#utility.yul\":3732:3820   */\n      swap2\n      pop\n        /* \"#utility.yul\":3548:3826   */\n      pop\n        /* \"#utility.yul\":3486:3826   */\n      swap3\n      swap2\n      pop\n      pop\n      jump\t// out\n        /* \"#utility.yul\":3832:4341   */\n    tag_19:\n        /* \"#utility.yul\":3901:3907   */\n      0x00\n        /* \"#utility.yul\":3950:3952   */\n      0x20\n        /* \"#utility.yul\":3938:3947   */\n      dup3\n        /* \"#utility.yul\":3929:3936   */\n      dup5\n        /* \"#utility.yul\":3925:3948   */\n      sub\n        /* \"#utility.yul\":3921:3953   */\n      slt\n        /* \"#utility.yul\":3918:4037   */\n      iszero\n      tag_178\n      jumpi\n        /* \"#utility.yul\":3956:4035   */\n      tag_179\n      tag_82\n      jump\t// in\n    tag_179:\n        /* \"#utility.yul\":3918:4037   */\n    tag_178:\n        /* \"#utility.yul\":4104:4105   */\n      0x00\n        /* \"#utility.yul\":4093:4102   */\n      dup3\n        /* \"#utility.yul\":4089:4106   */\n      add\n        /* \"#utility.yul\":4076:4107   */\n      calldataload\n        /* \"#utility.yul\":4134:4152   */\n      0xffffffffffffffff\n        /* \"#utility.yul\":4126:4132   */\n      dup2\n        /* \"#utility.yul\":4123:4153   */\n      gt\n        /* \"#utility.yul\":4120:4237   */\n      iszero\n      tag_180\n      jumpi\n        /* \"#utility.yul\":4156:4235   */\n      tag_181\n      tag_83\n      jump\t// in\n    tag_181:\n        /* \"#utility.yul\":4120:4237   */\n    tag_180:\n        /* \"#utility.yul\":4261:4324   */\n      tag_182\n        /* \"#utility.yul\":4316:4323   */\n      dup5\n        /* \"#utility.yul\":4307:4313   */\n      dup3\n        /* \"#utility.yul\":4296:4305   */\n      dup6\n        /* \"#utility.yul\":4292:4314   */\n      add\n        /* \"#utility.yul\":4261:4324   */\n      tag_99\n      jump\t// in\n    tag_182:\n        /* \"#utility.yul\":4251:4324   */\n      swap2\n      pop\n        /* \"#utility.yul\":4047:4334   */\n      pop\n        /* \"#utility.yul\":3832:4341   */\n      swap3\n      swap2\n      pop\n      pop\n      jump\t// out\n        /* \"#utility.yul\":4347:4446   */\n    tag_100:\n        /* \"#utility.yul\":4399:4405   */\n      0x00\n        /* \"#utility.yul\":4433:4438   */\n      dup2\n        /* \"#utility.yul\":4427:4439   */\n      mload\n        /* \"#utility.yul\":4417:4439   */\n      swap1\n      pop\n        /* \"#utility.yul\":4347:4446   */\n      swap2\n      swap1\n      pop\n      jump\t// out\n        /* \"#utility.yul\":4452:4621   */\n    tag_101:\n        /* \"#utility.yul\":4536:4547   */\n      0x00\n        /* \"#utility.yul\":4570:4576   */\n      dup3\n        /* \"#utility.yul\":4565:4568   */\n      dup3\n        /* \"#utility.yul\":4558:4577   */\n      mstore\n        /* \"#utility.yul\":4610:4614   */\n      0x20\n        /* \"#utility.yul\":4605:4608   */\n      dup3\n        /* \"#utility.yul\":4601:4615   */\n      add\n        /* \"#utility.yul\":4586:4615   */\n      swap1\n      pop\n        /* \"#utility.yul\":4452:4621   */\n      swap3\n      swap2\n      pop\n      pop\n      jump\t// out\n        /* \"#utility.yul\":4627:4766   */\n    tag_102:\n        /* \"#utility.yul\":4716:4722   */\n      dup3\n        /* \"#utility.yul\":4711:4714   */\n      dup2\n        /* \"#utility.yul\":4706:4709   */\n      dup4\n        /* \"#utility.yul\":4700:4723   */\n      mcopy\n        /* \"#utility.yul\":4757:4758   */\n      0x00\n        /* \"#utility.yul\":4748:4754   */\n      dup4\n        /* \"#utility.yul\":4743:4746   */\n      dup4\n        /* \"#utility.yul\":4739:4755   */\n      add\n        /* \"#utility.yul\":4732:4759   */\n      mstore\n        /* \"#utility.yul\":4627:4766   */\n      pop\n      pop\n      pop\n      jump\t// out\n        /* \"#utility.yul\":4772:5149   */\n    tag_103:\n        /* \"#utility.yul\":4860:4863   */\n      0x00\n        /* \"#utility.yul\":4888:4927   */\n      tag_187\n        /* \"#utility.yul\":4921:4926   */\n      dup3\n        /* \"#utility.yul\":4888:4927   */\n      tag_100\n      jump\t// in\n    tag_187:\n        /* \"#utility.yul\":4943:5014   */\n      tag_188\n        /* \"#utility.yul\":5007:5013   */\n      dup2\n        /* \"#utility.yul\":5002:5005   */\n      dup6\n        /* \"#utility.yul\":4943:5014   */\n      tag_101\n      jump\t// in\n    tag_188:\n        /* \"#utility.yul\":4936:5014   */\n      swap4\n      pop\n        /* \"#utility.yul\":5023:5088   */\n      tag_189\n        /* \"#utility.yul\":5081:5087   */\n      dup2\n        /* \"#utility.yul\":5076:5079   */\n      dup6\n        /* \"#utility.yul\":5069:5073   */\n      0x20\n        /* \"#utility.yul\":5062:5067   */\n      dup7\n        /* \"#utility.yul\":5058:5074   */\n      add\n        /* \"#utility.yul\":5023:5088   */\n      tag_102\n      jump\t// in\n    tag_189:\n        /* \"#utility.yul\":5113:5142   */\n      tag_190\n        /* \"#utility.yul\":5135:5141   */\n      dup2\n        /* \"#utility.yul\":5113:5142   */\n      tag_92\n      jump\t// in\n    tag_190:\n        /* \"#utility.yul\":5108:5111   */\n      dup5\n        /* \"#utility.yul\":5104:5143   */\n      add\n        /* \"#utility.yul\":5097:5143   */\n      swap2\n      pop\n        /* \"#utility.yul\":4864:5149   */\n      pop\n        /* \"#utility.yul\":4772:5149   */\n      swap3\n      swap2\n      pop\n      pop\n      jump\t// out\n        /* \"#utility.yul\":5155:5244   */\n    tag_104:\n        /* \"#utility.yul\":5191:5198   */\n      0x00\n        /* \"#utility.yul\":5231:5237   */\n      0xffff\n        /* \"#utility.yul\":5224:5229   */\n      dup3\n        /* \"#utility.yul\":5220:5238   */\n      and\n        /* \"#utility.yul\":5209:5238   */\n      swap1\n      pop\n        /* \"#utility.yul\":5155:5244   */\n      swap2\n      swap1\n      pop\n      jump\t// out\n        /* \"#utility.yul\":5250:5365   */\n    tag_105:\n        /* \"#utility.yul\":5335:5358   */\n      tag_193\n        /* \"#utility.yul\":5352:5357   */\n      dup2\n        /* \"#utility.yul\":5335:5358   */\n      tag_104\n      jump\t// in\n    tag_193:\n        /* \"#utility.yul\":5330:5333   */\n      dup3\n        /* \"#utility.yul\":5323:5359   */\n      mstore\n        /* \"#utility.yul\":5250:5365   */\n      pop\n      pop\n      jump\t// out\n        /* \"#utility.yul\":5371:5464   */\n    tag_106:\n        /* \"#utility.yul\":5407:5414   */\n      0x00\n        /* \"#utility.yul\":5447:5457   */\n      0xffffffff\n        /* \"#utility.yul\":5440:5445   */\n      dup3\n        /* \"#utility.yul\":5436:5458   */\n      and\n        /* \"#utility.yul\":5425:5458   */\n      swap1\n      pop\n        /* \"#utility.yul\":5371:5464   */\n      swap2\n      swap1\n      pop\n      jump\t// out\n        /* \"#utility.yul\":5470:5585   */\n    tag_107:\n        /* \"#utility.yul\":5555:5578   */\n      tag_196\n        /* \"#utility.yul\":5572:5577   */\n      dup2\n        /* \"#utility.yul\":5555:5578   */\n      tag_106\n      jump\t// in\n    tag_196:\n        /* \"#utility.yul\":5550:5553   */\n      dup3\n        /* \"#utility.yul\":5543:5579   */\n      mstore\n        /* \"#utility.yul\":5470:5585   */\n      pop\n      pop\n      jump\t// out\n        /* \"#utility.yul\":5591:6223   */\n    tag_30:\n        /* \"#utility.yul\":5782:5786   */\n      0x00\n        /* \"#utility.yul\":5820:5823   */\n      0x80\n        /* \"#utility.yul\":5809:5818   */\n      dup3\n        /* \"#utility.yul\":5805:5824   */\n      add\n        /* \"#utility.yul\":5797:5824   */\n      swap1\n      pop\n        /* \"#utility.yul\":5870:5879   */\n      dup2\n        /* \"#utility.yul\":5864:5868   */\n      dup2\n        /* \"#utility.yul\":5860:5880   */\n      sub\n        /* \"#utility.yul\":5856:5857   */\n      0x00\n        /* \"#utility.yul\":5845:5854   */\n      dup4\n        /* \"#utility.yul\":5841:5858   */\n      add\n        /* \"#utility.yul\":5834:5881   */\n      mstore\n        /* \"#utility.yul\":5898:5976   */\n      tag_198\n        /* \"#utility.yul\":5971:5975   */\n      dup2\n        /* \"#utility.yul\":5962:5968   */\n      dup8\n        /* \"#utility.yul\":5898:5976   */\n      tag_103\n      jump\t// in\n    tag_198:\n        /* \"#utility.yul\":5890:5976   */\n      swap1\n      pop\n        /* \"#utility.yul\":5986:6056   */\n      tag_199\n        /* \"#utility.yul\":6052:6054   */\n      0x20\n        /* \"#utility.yul\":6041:6050   */\n      dup4\n        /* \"#utility.yul\":6037:6055   */\n      add\n        /* \"#utility.yul\":6028:6034   */\n      dup7\n        /* \"#utility.yul\":5986:6056   */\n      tag_105\n      jump\t// in\n    tag_199:\n        /* \"#utility.yul\":6066:6136   */\n      tag_200\n        /* \"#utility.yul\":6132:6134   */\n      0x40\n        /* \"#utility.yul\":6121:6130   */\n      dup4\n        /* \"#utility.yul\":6117:6135   */\n      add\n        /* \"#utility.yul\":6108:6114   */\n      dup6\n        /* \"#utility.yul\":6066:6136   */\n      tag_107\n      jump\t// in\n    tag_200:\n        /* \"#utility.yul\":6146:6216   */\n      tag_201\n        /* \"#utility.yul\":6212:6214   */\n      0x60\n        /* \"#utility.yul\":6201:6210   */\n      dup4\n        /* \"#utility.yul\":6197:6215   */\n      add\n        /* \"#utility.yul\":6188:6194   */\n      dup5\n        /* \"#utility.yul\":6146:6216   */\n      tag_105\n      jump\t// in\n    tag_201:\n        /* \"#utility.yul\":5591:6223   */\n      swap6\n      swap5\n      pop\n      pop\n      pop\n      pop\n      pop\n      jump\t// out\n        /* \"#utility.yul\":6229:6351   */\n    tag_108:\n        /* \"#utility.yul\":6302:6326   */\n      tag_203\n        /* \"#utility.yul\":6320:6325   */\n      dup2\n        /* \"#utility.yul\":6302:6326   */\n      tag_88\n      jump\t// in\n    tag_203:\n        /* \"#utility.yul\":6295:6300   */\n      dup2\n        /* \"#utility.yul\":6292:6327   */\n      eq\n        /* \"#utility.yul\":6282:6345   */\n      tag_204\n      jumpi\n        /* \"#utility.yul\":6341:6342   */\n      0x00\n        /* \"#utility.yul\":6338:6339   */\n      0x00\n        /* \"#utility.yul\":6331:6343   */\n      revert\n        /* \"#utility.yul\":6282:6345   */\n    tag_204:\n        /* \"#utility.yul\":6229:6351   */\n      pop\n      jump\t// out\n        /* \"#utility.yul\":6357:6496   */\n    tag_109:\n        /* \"#utility.yul\":6403:6408   */\n      0x00\n        /* \"#utility.yul\":6441:6447   */\n      dup2\n        /* \"#utility.yul\":6428:6448   */\n      calldataload\n        /* \"#utility.yul\":6419:6448   */\n      swap1\n      pop\n        /* \"#utility.yul\":6457:6490   */\n      tag_206\n        /* \"#utility.yul\":6484:6489   */\n      dup2\n        /* \"#utility.yul\":6457:6490   */\n      tag_108\n      jump\t// in\n    tag_206:\n        /* \"#utility.yul\":6357:6496   */\n      swap3\n      swap2\n      pop\n      pop\n      jump\t// out\n        /* \"#utility.yul\":6502:6831   */\n    tag_33:\n        /* \"#utility.yul\":6561:6567   */\n      0x00\n        /* \"#utility.yul\":6610:6612   */\n      0x20\n        /* \"#utility.yul\":6598:6607   */\n      dup3\n        /* \"#utility.yul\":6589:6596   */\n      dup5\n        /* \"#utility.yul\":6585:6608   */\n      sub\n        /* \"#utility.yul\":6581:6613   */\n      slt\n        /* \"#utility.yul\":6578:6697   */\n      iszero\n      tag_208\n      jumpi\n        /* \"#utility.yul\":6616:6695   */\n      tag_209\n      tag_82\n      jump\t// in\n    tag_209:\n        /* \"#utility.yul\":6578:6697   */\n    tag_208:\n        /* \"#utility.yul\":6736:6737   */\n      0x00\n        /* \"#utility.yul\":6761:6814   */\n      tag_210\n        /* \"#utility.yul\":6806:6813   */\n      dup5\n        /* \"#utility.yul\":6797:6803   */\n      dup3\n        /* \"#utility.yul\":6786:6795   */\n      dup6\n        /* \"#utility.yul\":6782:6804   */\n      add\n        /* \"#utility.yul\":6761:6814   */\n      tag_109\n      jump\t// in\n    tag_210:\n        /* \"#utility.yul\":6751:6814   */\n      swap2\n      pop\n        /* \"#utility.yul\":6707:6824   */\n      pop\n        /* \"#utility.yul\":6502:6831   */\n      swap3\n      swap2\n      pop\n      pop\n      jump\t// out\n        /* \"#utility.yul\":6837:6955   */\n    tag_110:\n        /* \"#utility.yul\":6924:6948   */\n      tag_212\n        /* \"#utility.yul\":6942:6947   */\n      dup2\n        /* \"#utility.yul\":6924:6948   */\n      tag_84\n      jump\t// in\n    tag_212:\n        /* \"#utility.yul\":6919:6922   */\n      dup3\n        /* \"#utility.yul\":6912:6949   */\n      mstore\n        /* \"#utility.yul\":6837:6955   */\n      pop\n      pop\n      jump\t// out\n        /* \"#utility.yul\":6961:7183   */\n    tag_36:\n        /* \"#utility.yul\":7054:7058   */\n      0x00\n        /* \"#utility.yul\":7092:7094   */\n      0x20\n        /* \"#utility.yul\":7081:7090   */\n      dup3\n        /* \"#utility.yul\":7077:7095   */\n      add\n        /* \"#utility.yul\":7069:7095   */\n      swap1\n      pop\n        /* \"#utility.yul\":7105:7176   */\n      tag_214\n        /* \"#utility.yul\":7173:7174   */\n      0x00\n        /* \"#utility.yul\":7162:7171   */\n      dup4\n        /* \"#utility.yul\":7158:7175   */\n      add\n        /* \"#utility.yul\":7149:7155   */\n      dup5\n        /* \"#utility.yul\":7105:7176   */\n      tag_110\n      jump\t// in\n    tag_214:\n        /* \"#utility.yul\":6961:7183   */\n      swap3\n      swap2\n      pop\n      pop\n      jump\t// out\n        /* \"#utility.yul\":7189:7360   */\n    tag_111:\n        /* \"#utility.yul\":7329:7352   */\n      0x4a7564676520616c726561647920657873697374730000000000000000000000\n        /* \"#utility.yul\":7325:7326   */\n      0x00\n        /* \"#utility.yul\":7317:7323   */\n      dup3\n        /* \"#utility.yul\":7313:7327   */\n      add\n        /* \"#utility.yul\":7306:7353   */\n      mstore\n        /* \"#utility.yul\":7189:7360   */\n      pop\n      jump\t// out\n        /* \"#utility.yul\":7366:7732   */\n    tag_112:\n        /* \"#utility.yul\":7508:7511   */\n      0x00\n        /* \"#utility.yul\":7529:7596   */\n      tag_217\n        /* \"#utility.yul\":7593:7595   */\n      0x15\n        /* \"#utility.yul\":7588:7591   */\n      dup4\n        /* \"#utility.yul\":7529:7596   */\n      tag_101\n      jump\t// in\n    tag_217:\n        /* \"#utility.yul\":7522:7596   */\n      swap2\n      pop\n        /* \"#utility.yul\":7605:7698   */\n      tag_218\n        /* \"#utility.yul\":7694:7697   */\n      dup3\n        /* \"#utility.yul\":7605:7698   */\n      tag_111\n      jump\t// in\n    tag_218:\n        /* \"#utility.yul\":7723:7725   */\n      0x20\n        /* \"#utility.yul\":7718:7721   */\n      dup3\n        /* \"#utility.yul\":7714:7726   */\n      add\n        /* \"#utility.yul\":7707:7726   */\n      swap1\n      pop\n        /* \"#utility.yul\":7366:7732   */\n      swap2\n      swap1\n      pop\n      jump\t// out\n        /* \"#utility.yul\":7738:8157   */\n    tag_43:\n        /* \"#utility.yul\":7904:7908   */\n      0x00\n        /* \"#utility.yul\":7942:7944   */\n      0x20\n        /* \"#utility.yul\":7931:7940   */\n      dup3\n        /* \"#utility.yul\":7927:7945   */\n      add\n        /* \"#utility.yul\":7919:7945   */\n      swap1\n      pop\n        /* \"#utility.yul\":7991:8000   */\n      dup2\n        /* \"#utility.yul\":7985:7989   */\n      dup2\n        /* \"#utility.yul\":7981:8001   */\n      sub\n        /* \"#utility.yul\":7977:7978   */\n      0x00\n        /* \"#utility.yul\":7966:7975   */\n      dup4\n        /* \"#utility.yul\":7962:7979   */\n      add\n        /* \"#utility.yul\":7955:8002   */\n      mstore\n        /* \"#utility.yul\":8019:8150   */\n      tag_220\n        /* \"#utility.yul\":8145:8149   */\n      dup2\n        /* \"#utility.yul\":8019:8150   */\n      tag_112\n      jump\t// in\n    tag_220:\n        /* \"#utility.yul\":8011:8150   */\n      swap1\n      pop\n        /* \"#utility.yul\":7738:8157   */\n      swap2\n      swap1\n      pop\n      jump\t// out\n        /* \"#utility.yul\":8163:8343   */\n    tag_113:\n        /* \"#utility.yul\":8211:8288   */\n      0x4e487b7100000000000000000000000000000000000000000000000000000000\n        /* \"#utility.yul\":8208:8209   */\n      0x00\n        /* \"#utility.yul\":8201:8289   */\n      mstore\n        /* \"#utility.yul\":8308:8312   */\n      0x22\n        /* \"#utility.yul\":8305:8306   */\n      0x04\n        /* \"#utility.yul\":8298:8313   */\n      mstore\n        /* \"#utility.yul\":8332:8336   */\n      0x24\n        /* \"#utility.yul\":8329:8330   */\n      0x00\n        /* \"#utility.yul\":8322:8337   */\n      revert\n        /* \"#utility.yul\":8349:8669   */\n    tag_61:\n        /* \"#utility.yul\":8393:8399   */\n      0x00\n        /* \"#utility.yul\":8430:8431   */\n      0x02\n        /* \"#utility.yul\":8424:8428   */\n      dup3\n        /* \"#utility.yul\":8420:8432   */\n      div\n        /* \"#utility.yul\":8410:8432   */\n      swap1\n      pop\n        /* \"#utility.yul\":8477:8478   */\n      0x01\n        /* \"#utility.yul\":8471:8475   */\n      dup3\n        /* \"#utility.yul\":8467:8479   */\n      and\n        /* \"#utility.yul\":8498:8516   */\n      dup1\n        /* \"#utility.yul\":8488:8569   */\n      tag_223\n      jumpi\n        /* \"#utility.yul\":8554:8558   */\n      0x7f\n        /* \"#utility.yul\":8546:8552   */\n      dup3\n        /* \"#utility.yul\":8542:8559   */\n      and\n        /* \"#utility.yul\":8532:8559   */\n      swap2\n      pop\n        /* \"#utility.yul\":8488:8569   */\n    tag_223:\n        /* \"#utility.yul\":8616:8618   */\n      0x20\n        /* \"#utility.yul\":8608:8614   */\n      dup3\n        /* \"#utility.yul\":8605:8619   */\n      lt\n        /* \"#utility.yul\":8585:8603   */\n      dup2\n        /* \"#utility.yul\":8582:8620   */\n      sub\n        /* \"#utility.yul\":8579:8663   */\n      tag_224\n      jumpi\n        /* \"#utility.yul\":8635:8653   */\n      tag_225\n      tag_113\n      jump\t// in\n    tag_225:\n        /* \"#utility.yul\":8579:8663   */\n    tag_224:\n        /* \"#utility.yul\":8400:8669   */\n      pop\n        /* \"#utility.yul\":8349:8669   */\n      swap2\n      swap1\n      pop\n      jump\t// out\n        /* \"#utility.yul\":8675:8816   */\n    tag_114:\n        /* \"#utility.yul\":8724:8728   */\n      0x00\n        /* \"#utility.yul\":8747:8750   */\n      dup2\n        /* \"#utility.yul\":8739:8750   */\n      swap1\n      pop\n        /* \"#utility.yul\":8770:8773   */\n      dup2\n        /* \"#utility.yul\":8767:8768   */\n      0x00\n        /* \"#utility.yul\":8760:8774   */\n      mstore\n        /* \"#utility.yul\":8804:8808   */\n      0x20\n        /* \"#utility.yul\":8801:8802   */\n      0x00\n        /* \"#utility.yul\":8791:8809   */\n      keccak256\n        /* \"#utility.yul\":8783:8809   */\n      swap1\n      pop\n        /* \"#utility.yul\":8675:8816   */\n      swap2\n      swap1\n      pop\n      jump\t// out\n        /* \"#utility.yul\":8822:8915   */\n    tag_115:\n        /* \"#utility.yul\":8859:8865   */\n      0x00\n        /* \"#utility.yul\":8906:8908   */\n      0x20\n        /* \"#utility.yul\":8901:8903   */\n      0x1f\n        /* \"#utility.yul\":8894:8899   */\n      dup4\n        /* \"#utility.yul\":8890:8904   */\n      add\n        /* \"#utility.yul\":8886:8909   */\n      div\n        /* \"#utility.yul\":8876:8909   */\n      swap1\n      pop\n        /* \"#utility.yul\":8822:8915   */\n      swap2\n      swap1\n      pop\n      jump\t// out\n        /* \"#utility.yul\":8921:9028   */\n    tag_116:\n        /* \"#utility.yul\":8965:8973   */\n      0x00\n        /* \"#utility.yul\":9015:9020   */\n      dup3\n        /* \"#utility.yul\":9009:9013   */\n      dup3\n        /* \"#utility.yul\":9005:9021   */\n      shl\n        /* \"#utility.yul\":8984:9021   */\n      swap1\n      pop\n        /* \"#utility.yul\":8921:9028   */\n      swap3\n      swap2\n      pop\n      pop\n      jump\t// out\n        /* \"#utility.yul\":9034:9427   */\n    tag_117:\n        /* \"#utility.yul\":9103:9109   */\n      0x00\n        /* \"#utility.yul\":9153:9154   */\n      0x08\n        /* \"#utility.yul\":9141:9151   */\n      dup4\n        /* \"#utility.yul\":9137:9155   */\n      mul\n        /* \"#utility.yul\":9176:9273   */\n      tag_230\n        /* \"#utility.yul\":9206:9272   */\n      0xffffffffffffffffffffffffffffffffffffffffffffffffffffffffffffffff\n        /* \"#utility.yul\":9195:9204   */\n      dup3\n        /* \"#utility.yul\":9176:9273   */\n      tag_116\n      jump\t// in\n    tag_230:\n        /* \"#utility.yul\":9294:9333   */\n      tag_231\n        /* \"#utility.yul\":9324:9332   */\n      dup7\n        /* \"#utility.yul\":9313:9322   */\n      dup4\n        /* \"#utility.yul\":9294:9333   */\n      tag_116\n      jump\t// in\n    tag_231:\n        /* \"#utility.yul\":9282:9333   */\n      swap6\n      pop\n        /* \"#utility.yul\":9366:9370   */\n      dup1\n        /* \"#utility.yul\":9362:9371   */\n      not\n        /* \"#utility.yul\":9355:9360   */\n      dup5\n        /* \"#utility.yul\":9351:9372   */\n      and\n        /* \"#utility.yul\":9342:9372   */\n      swap4\n      pop\n        /* \"#utility.yul\":9415:9419   */\n      dup1\n        /* \"#utility.yul\":9405:9413   */\n      dup7\n        /* \"#utility.yul\":9401:9420   */\n      and\n        /* \"#utility.yul\":9394:9399   */\n      dup5\n        /* \"#utility.yul\":9391:9421   */\n      or\n        /* \"#utility.yul\":9381:9421   */\n      swap3\n      pop\n        /* \"#utility.yul\":9110:9427   */\n      pop\n      pop\n        /* \"#utility.yul\":9034:9427   */\n      swap4\n      swap3\n      pop\n      pop\n      pop\n      jump\t// out\n        /* \"#utility.yul\":9433:9493   */\n    tag_118:\n        /* \"#utility.yul\":9461:9464   */\n      0x00\n        /* \"#utility.yul\":9482:9487   */\n      dup2\n        /* \"#utility.yul\":9475:9487   */\n      swap1\n      pop\n        /* \"#utility.yul\":9433:9493   */\n      swap2\n      swap1\n      pop\n      jump\t// out\n        /* \"#utility.yul\":9499:9641   */\n    tag_119:\n        /* \"#utility.yul\":9549:9558   */\n      0x00\n        /* \"#utility.yul\":9582:9635   */\n      tag_234\n        /* \"#utility.yul\":9600:9634   */\n      tag_235\n        /* \"#utility.yul\":9609:9633   */\n      tag_236\n        /* \"#utility.yul\":9627:9632   */\n      dup5\n        /* \"#utility.yul\":9609:9633   */\n      tag_84\n      jump\t// in\n    tag_236:\n        /* \"#utility.yul\":9600:9634   */\n      tag_118\n      jump\t// in\n    tag_235:\n        /* \"#utility.yul\":9582:9635   */\n      tag_84\n      jump\t// in\n    tag_234:\n        /* \"#utility.yul\":9569:9635   */\n      swap1\n      pop\n        /* \"#utility.yul\":9499:9641   */\n      swap2\n      swap1\n      pop\n      jump\t// out\n        /* \"#utility.yul\":9647:9722   */\n    tag_120:\n        /* \"#utility.yul\":9690:9693   */\n      0x00\n        /* \"#utility.yul\":9711:9716   */\n      dup2\n        /* \"#utility.yul\":9704:9716   */\n      swap1\n      pop\n        /* \"#utility.yul\":9647:9722   */\n      swap2\n      swap1\n      pop\n      jump\t// out\n        /* \"#utility.yul\":9728:9997   */\n    tag_121:\n        /* \"#utility.yul\":9838:9877   */\n      tag_239\n        /* \"#utility.yul\":9869:9876   */\n      dup4\n        /* \"#utility.yul\":9838:9877   */\n      tag_119\n      jump\t// in\n    tag_239:\n        /* \"#utility.yul\":9899:9990   */\n      tag_240\n        /* \"#utility.yul\":9948:9989   */\n      tag_241\n        /* \"#utility.yul\":9972:9988   */\n      dup3\n        /* \"#utility.yul\":9948:9989   */\n      tag_120\n      jump\t// in\n    tag_241:\n        /* \"#utility.yul\":9940:9946   */\n      dup5\n        /* \"#utility.yul\":9933:9937   */\n      dup5\n        /* \"#utility.yul\":9927:9938   */\n      sload\n        /* \"#utility.yul\":9899:9990   */\n      tag_117\n      jump\t// in\n    tag_240:\n        /* \"#utility.yul\":9893:9897   */\n      dup3\n        /* \"#utility.yul\":9886:9991   */\n      sstore\n        /* \"#utility.yul\":9804:9997   */\n      pop\n        /* \"#utility.yul\":9728:9997   */\n      pop\n      pop\n      pop\n      jump\t// out\n        /* \"#utility.yul\":10003:10076   */\n    tag_122:\n        /* \"#utility.yul\":10048:10051   */\n      0x00\n        /* \"#utility.yul\":10069:10070   */\n      0x00\n        /* \"#utility.yul\":10062:10070   */\n      swap1\n      pop\n        /* \"#utility.yul\":10003:10076   */\n      swap1\n      jump\t// out\n        /* \"#utility.yul\":10082:10271   */\n    tag_123:\n        /* \"#utility.yul\":10159:10191   */\n      tag_244\n      tag_122\n      jump\t// in\n    tag_244:\n        /* \"#utility.yul\":10200:10265   */\n      tag_245\n        /* \"#utility.yul\":10258:10264   */\n      dup2\n        /* \"#utility.yul\":10250:10256   */\n      dup5\n        /* \"#utility.yul\":10244:10248   */\n      dup5\n        /* \"#utility.yul\":10200:10265   */\n      tag_121\n      jump\t// in\n    tag_245:\n        /* \"#utility.yul\":10135:10271   */\n      pop\n        /* \"#utility.yul\":10082:10271   */\n      pop\n      pop\n      jump\t// out\n        /* \"#utility.yul\":10277:10463   */\n    tag_124:\n        /* \"#utility.yul\":10337:10457   */\n    tag_247:\n        /* \"#utility.yul\":10354:10357   */\n      dup2\n        /* \"#utility.yul\":10347:10352   */\n      dup2\n        /* \"#utility.yul\":10344:10358   */\n      lt\n        /* \"#utility.yul\":10337:10457   */\n      iszero\n      tag_249\n      jumpi\n        /* \"#utility.yul\":10408:10447   */\n      tag_250\n        /* \"#utility.yul\":10445:10446   */\n      0x00\n        /* \"#utility.yul\":10438:10443   */\n      dup3\n        /* \"#utility.yul\":10408:10447   */\n      tag_123\n      jump\t// in\n    tag_250:\n        /* \"#utility.yul\":10381:10382   */\n      0x01\n        /* \"#utility.yul\":10374:10379   */\n      dup2\n        /* \"#utility.yul\":10370:10383   */\n      add\n        /* \"#utility.yul\":10361:10383   */\n      swap1\n      pop\n        /* \"#utility.yul\":10337:10457   */\n      jump(tag_247)\n    tag_249:\n        /* \"#utility.yul\":10277:10463   */\n      pop\n      pop\n      jump\t// out\n        /* \"#utility.yul\":10469:11012   */\n    tag_125:\n        /* \"#utility.yul\":10570:10572   */\n      0x1f\n        /* \"#utility.yul\":10565:10568   */\n      dup3\n        /* \"#utility.yul\":10562:10573   */\n      gt\n        /* \"#utility.yul\":10559:11005   */\n      iszero\n      tag_252\n      jumpi\n        /* \"#utility.yul\":10604:10642   */\n      tag_253\n        /* \"#utility.yul\":10636:10641   */\n      dup2\n        /* \"#utility.yul\":10604:10642   */\n      tag_114\n      jump\t// in\n    tag_253:\n        /* \"#utility.yul\":10688:10717   */\n      tag_254\n        /* \"#utility.yul\":10706:10716   */\n      dup5\n        /* \"#utility.yul\":10688:10717   */\n      tag_115\n      jump\t// in\n    tag_254:\n        /* \"#utility.yul\":10678:10686   */\n      dup2\n        /* \"#utility.yul\":10674:10718   */\n      add\n        /* \"#utility.yul\":10871:10873   */\n      0x20\n        /* \"#utility.yul\":10859:10869   */\n      dup6\n        /* \"#utility.yul\":10856:10874   */\n      lt\n        /* \"#utility.yul\":10853:10902   */\n      iszero\n      tag_255\n      jumpi\n        /* \"#utility.yul\":10892:10900   */\n      dup2\n        /* \"#utility.yul\":10877:10900   */\n      swap1\n      pop\n        /* \"#utility.yul\":10853:10902   */\n    tag_255:\n        /* \"#utility.yul\":10915:10995   */\n      tag_256\n        /* \"#utility.yul\":10971:10993   */\n      tag_257\n        /* \"#utility.yul\":10989:10992   */\n      dup6\n        /* \"#utility.yul\":10971:10993   */\n      tag_115\n      jump\t// in\n    tag_257:\n        /* \"#utility.yul\":10961:10969   */\n      dup4\n        /* \"#utility.yul\":10957:10994   */\n      add\n        /* \"#utility.yul\":10944:10955   */\n      dup3\n        /* \"#utility.yul\":10915:10995   */\n      tag_124\n      jump\t// in\n    tag_256:\n        /* \"#utility.yul\":10574:11005   */\n      pop\n      pop\n        /* \"#utility.yul\":10559:11005   */\n    tag_252:\n        /* \"#utility.yul\":10469:11012   */\n      pop\n      pop\n      pop\n      jump\t// out\n        /* \"#utility.yul\":11018:11135   */\n    tag_126:\n        /* \"#utility.yul\":11072:11080   */\n      0x00\n        /* \"#utility.yul\":11122:11127   */\n      dup3\n        /* \"#utility.yul\":11116:11120   */\n      dup3\n        /* \"#utility.yul\":11112:11128   */\n      shr\n        /* \"#utility.yul\":11091:11128   */\n      swap1\n      pop\n        /* \"#utility.yul\":11018:11135   */\n      swap3\n      swap2\n      pop\n      pop\n      jump\t// out\n        /* \"#utility.yul\":11141:11310   */\n    tag_127:\n        /* \"#utility.yul\":11185:11191   */\n      0x00\n        /* \"#utility.yul\":11218:11269   */\n      tag_260\n        /* \"#utility.yul\":11266:11267   */\n      0x00\n        /* \"#utility.yul\":11262:11268   */\n      not\n        /* \"#utility.yul\":11254:11259   */\n      dup5\n        /* \"#utility.yul\":11251:11252   */\n      0x08\n        /* \"#utility.yul\":11247:11260   */\n      mul\n        /* \"#utility.yul\":11218:11269   */\n      tag_126\n      jump\t// in\n    tag_260:\n        /* \"#utility.yul\":11214:11270   */\n      not\n        /* \"#utility.yul\":11299:11303   */\n      dup1\n        /* \"#utility.yul\":11293:11297   */\n      dup4\n        /* \"#utility.yul\":11289:11304   */\n      and\n        /* \"#utility.yul\":11279:11304   */\n      swap2\n      pop\n        /* \"#utility.yul\":11192:11310   */\n      pop\n        /* \"#utility.yul\":11141:11310   */\n      swap3\n      swap2\n      pop\n      pop\n      jump\t// out\n        /* \"#utility.yul\":11315:11610   */\n    tag_128:\n        /* \"#utility.yul\":11391:11395   */\n      0x00\n        /* \"#utility.yul\":11537:11566   */\n      tag_262\n        /* \"#utility.yul\":11562:11565   */\n      dup4\n        /* \"#utility.yul\":11556:11560   */\n      dup4\n        /* \"#utility.yul\":11537:11566   */\n      tag_127\n      jump\t// in\n    tag_262:\n        /* \"#utility.yul\":11529:11566   */\n      swap2\n      pop\n        /* \"#utility.yul\":11599:11602   */\n      dup3\n        /* \"#utility.yul\":11596:11597   */\n      0x02\n        /* \"#utility.yul\":11592:11603   */\n      mul\n        /* \"#utility.yul\":11586:11590   */\n      dup3\n        /* \"#utility.yul\":11583:11604   */\n      or\n        /* \"#utility.yul\":11575:11604   */\n      swap1\n      pop\n        /* \"#utility.yul\":11315:11610   */\n      swap3\n      swap2\n      pop\n      pop\n      jump\t// out\n        /* \"#utility.yul\":11615:13010   */\n    tag_46:\n        /* \"#utility.yul\":11732:11769   */\n      tag_264\n        /* \"#utility.yul\":11765:11768   */\n      dup3\n        /* \"#utility.yul\":11732:11769   */\n      tag_100\n      jump\t// in\n    tag_264:\n        /* \"#utility.yul\":11834:11852   */\n      0xffffffffffffffff\n        /* \"#utility.yul\":11826:11832   */\n      dup2\n        /* \"#utility.yul\":11823:11853   */\n      gt\n        /* \"#utility.yul\":11820:11876   */\n      iszero\n      tag_265\n      jumpi\n        /* \"#utility.yul\":11856:11874   */\n      tag_266\n      tag_93\n      jump\t// in\n    tag_266:\n        /* \"#utility.yul\":11820:11876   */\n    tag_265:\n        /* \"#utility.yul\":11900:11938   */\n      tag_267\n        /* \"#utility.yul\":11932:11936   */\n      dup3\n        /* \"#utility.yul\":11926:11937   */\n      sload\n        /* \"#utility.yul\":11900:11938   */\n      tag_61\n      jump\t// in\n    tag_267:\n        /* \"#utility.yul\":11985:12052   */\n      tag_268\n        /* \"#utility.yul\":12045:12051   */\n      dup3\n        /* \"#utility.yul\":12037:12043   */\n      dup3\n        /* \"#utility.yul\":12031:12035   */\n      dup6\n        /* \"#utility.yul\":11985:12052   */\n      tag_125\n      jump\t// in\n    tag_268:\n        /* \"#utility.yul\":12079:12080   */\n      0x00\n        /* \"#utility.yul\":12103:12107   */\n      0x20\n        /* \"#utility.yul\":12090:12107   */\n      swap1\n      pop\n        /* \"#utility.yul\":12135:12137   */\n      0x1f\n        /* \"#utility.yul\":12127:12133   */\n      dup4\n        /* \"#utility.yul\":12124:12138   */\n      gt\n        /* \"#utility.yul\":12152:12153   */\n      0x01\n        /* \"#utility.yul\":12147:12765   */\n      dup2\n      eq\n      tag_270\n      jumpi\n        /* \"#utility.yul\":12809:12810   */\n      0x00\n        /* \"#utility.yul\":12826:12832   */\n      dup5\n        /* \"#utility.yul\":12823:12900   */\n      iszero\n      tag_271\n      jumpi\n        /* \"#utility.yul\":12875:12884   */\n      dup3\n        /* \"#utility.yul\":12870:12873   */\n      dup8\n        /* \"#utility.yul\":12866:12885   */\n      add\n        /* \"#utility.yul\":12860:12886   */\n      mload\n        /* \"#utility.yul\":12851:12886   */\n      swap1\n      pop\n        /* \"#utility.yul\":12823:12900   */\n    tag_271:\n        /* \"#utility.yul\":12926:12993   */\n      tag_272\n        /* \"#utility.yul\":12986:12992   */\n      dup6\n        /* \"#utility.yul\":12979:12984   */\n      dup3\n        /* \"#utility.yul\":12926:12993   */\n      tag_128\n      jump\t// in\n    tag_272:\n        /* \"#utility.yul\":12920:12924   */\n      dup7\n        /* \"#utility.yul\":12913:12994   */\n      sstore\n        /* \"#utility.yul\":12782:13004   */\n      pop\n        /* \"#utility.yul\":12117:13004   */\n      jump(tag_269)\n        /* \"#utility.yul\":12147:12765   */\n    tag_270:\n        /* \"#utility.yul\":12199:12203   */\n      0x1f\n        /* \"#utility.yul\":12195:12204   */\n      not\n        /* \"#utility.yul\":12187:12193   */\n      dup5\n        /* \"#utility.yul\":12183:12205   */\n      and\n        /* \"#utility.yul\":12233:12270   */\n      tag_273\n        /* \"#utility.yul\":12265:12269   */\n      dup7\n        /* \"#utility.yul\":12233:12270   */\n      tag_114\n      jump\t// in\n    tag_273:\n        /* \"#utility.yul\":12292:12293   */\n      0x00\n        /* \"#utility.yul\":12306:12514   */\n    tag_274:\n        /* \"#utility.yul\":12320:12327   */\n      dup3\n        /* \"#utility.yul\":12317:12318   */\n      dup2\n        /* \"#utility.yul\":12314:12328   */\n      lt\n        /* \"#utility.yul\":12306:12514   */\n      iszero\n      tag_276\n      jumpi\n        /* \"#utility.yul\":12399:12408   */\n      dup5\n        /* \"#utility.yul\":12394:12397   */\n      dup10\n        /* \"#utility.yul\":12390:12409   */\n      add\n        /* \"#utility.yul\":12384:12410   */\n      mload\n        /* \"#utility.yul\":12376:12382   */\n      dup3\n        /* \"#utility.yul\":12369:12411   */\n      sstore\n        /* \"#utility.yul\":12450:12451   */\n      0x01\n        /* \"#utility.yul\":12442:12448   */\n      dup3\n        /* \"#utility.yul\":12438:12452   */\n      add\n        /* \"#utility.yul\":12428:12452   */\n      swap2\n      pop\n        /* \"#utility.yul\":12497:12499   */\n      0x20\n        /* \"#utility.yul\":12486:12495   */\n      dup6\n        /* \"#utility.yul\":12482:12500   */\n      add\n        /* \"#utility.yul\":12469:12500   */\n      swap5\n      pop\n        /* \"#utility.yul\":12343:12347   */\n      0x20\n        /* \"#utility.yul\":12340:12341   */\n      dup2\n        /* \"#utility.yul\":12336:12348   */\n      add\n        /* \"#utility.yul\":12331:12348   */\n      swap1\n      pop\n        /* \"#utility.yul\":12306:12514   */\n      jump(tag_274)\n    tag_276:\n        /* \"#utility.yul\":12542:12548   */\n      dup7\n        /* \"#utility.yul\":12533:12540   */\n      dup4\n        /* \"#utility.yul\":12530:12549   */\n      lt\n        /* \"#utility.yul\":12527:12706   */\n      iszero\n      tag_277\n      jumpi\n        /* \"#utility.yul\":12600:12609   */\n      dup5\n        /* \"#utility.yul\":12595:12598   */\n      dup10\n        /* \"#utility.yul\":12591:12610   */\n      add\n        /* \"#utility.yul\":12585:12611   */\n      mload\n        /* \"#utility.yul\":12643:12691   */\n      tag_278\n        /* \"#utility.yul\":12685:12689   */\n      0x1f\n        /* \"#utility.yul\":12677:12683   */\n      dup10\n        /* \"#utility.yul\":12673:12690   */\n      and\n        /* \"#utility.yul\":12662:12671   */\n      dup3\n        /* \"#utility.yul\":12643:12691   */\n      tag_127\n      jump\t// in\n    tag_278:\n        /* \"#utility.yul\":12635:12641   */\n      dup4\n        /* \"#utility.yul\":12628:12692   */\n      sstore\n        /* \"#utility.yul\":12550:12706   */\n      pop\n        /* \"#utility.yul\":12527:12706   */\n    tag_277:\n        /* \"#utility.yul\":12752:12753   */\n      0x01\n        /* \"#utility.yul\":12748:12749   */\n      0x02\n        /* \"#utility.yul\":12740:12746   */\n      dup9\n        /* \"#utility.yul\":12736:12750   */\n      mul\n        /* \"#utility.yul\":12732:12754   */\n      add\n        /* \"#utility.yul\":12726:12730   */\n      dup9\n        /* \"#utility.yul\":12719:12755   */\n      sstore\n        /* \"#utility.yul\":12154:12765   */\n      pop\n      pop\n      pop\n        /* \"#utility.yul\":12117:13004   */\n    tag_269:\n      pop\n        /* \"#utility.yul\":11707:13010   */\n      pop\n      pop\n      pop\n        /* \"#utility.yul\":11615:13010   */\n      pop\n      pop\n      jump\t// out\n        /* \"#utility.yul\":13016:13196   */\n    tag_129:\n        /* \"#utility.yul\":13064:13141   */\n      0x4e487b7100000000000000000000000000000000000000000000000000000000\n        /* \"#utility.yul\":13061:13062   */\n      0x00\n        /* \"#utility.yul\":13054:13142   */\n      mstore\n        /* \"#utility.yul\":13161:13165   */\n      0x11\n        /* \"#utility.yul\":13158:13159   */\n      0x04\n        /* \"#utility.yul\":13151:13166   */\n      mstore\n        /* \"#utility.yul\":13185:13189   */\n      0x24\n        /* \"#utility.yul\":13182:13183   */\n      0x00\n        /* \"#utility.yul\":13175:13190   */\n      revert\n        /* \"#utility.yul\":13202:13396   */\n    tag_48:\n        /* \"#utility.yul\":13242:13246   */\n      0x00\n        /* \"#utility.yul\":13262:13282   */\n      tag_281\n        /* \"#utility.yul\":13280:13281   */\n      dup3\n        /* \"#utility.yul\":13262:13282   */\n      tag_84\n      jump\t// in\n    tag_281:\n        /* \"#utility.yul\":13257:13282   */\n      swap2\n      pop\n        /* \"#utility.yul\":13296:13316   */\n      tag_282\n        /* \"#utility.yul\":13314:13315   */\n      dup4\n        /* \"#utility.yul\":13296:13316   */\n      tag_84\n      jump\t// in\n    tag_282:\n        /* \"#utility.yul\":13291:13316   */\n      swap3\n      pop\n        /* \"#utility.yul\":13340:13341   */\n      dup3\n        /* \"#utility.yul\":13337:13338   */\n      dup3\n        /* \"#utility.yul\":13333:13342   */\n      sub\n        /* \"#utility.yul\":13325:13342   */\n      swap1\n      pop\n        /* \"#utility.yul\":13364:13365   */\n      dup2\n        /* \"#utility.yul\":13358:13362   */\n      dup2\n        /* \"#utility.yul\":13355:13366   */\n      gt\n        /* \"#utility.yul\":13352:13389   */\n      iszero\n      tag_283\n      jumpi\n        /* \"#utility.yul\":13369:13387   */\n      tag_284\n      tag_129\n      jump\t// in\n    tag_284:\n        /* \"#utility.yul\":13352:13389   */\n    tag_283:\n        /* \"#utility.yul\":13202:13396   */\n      swap3\n      swap2\n      pop\n      pop\n      jump\t// out\n        /* \"#utility.yul\":13402:13825   */\n    tag_50:\n        /* \"#utility.yul\":13543:13547   */\n      0x00\n        /* \"#utility.yul\":13581:13583   */\n      0x40\n        /* \"#utility.yul\":13570:13579   */\n      dup3\n        /* \"#utility.yul\":13566:13584   */\n      add\n        /* \"#utility.yul\":13558:13584   */\n      swap1\n      pop\n        /* \"#utility.yul\":13594:13665   */\n      tag_286\n        /* \"#utility.yul\":13662:13663   */\n      0x00\n        /* \"#utility.yul\":13651:13660   */\n      dup4\n        /* \"#utility.yul\":13647:13664   */\n      add\n        /* \"#utility.yul\":13638:13644   */\n      dup6\n        /* \"#utility.yul\":13594:13665   */\n      tag_110\n      jump\t// in\n    tag_286:\n        /* \"#utility.yul\":13712:13721   */\n      dup2\n        /* \"#utility.yul\":13706:13710   */\n      dup2\n        /* \"#utility.yul\":13702:13722   */\n      sub\n        /* \"#utility.yul\":13697:13699   */\n      0x20\n        /* \"#utility.yul\":13686:13695   */\n      dup4\n        /* \"#utility.yul\":13682:13700   */\n      add\n        /* \"#utility.yul\":13675:13723   */\n      mstore\n        /* \"#utility.yul\":13740:13818   */\n      tag_287\n        /* \"#utility.yul\":13813:13817   */\n      dup2\n        /* \"#utility.yul\":13804:13810   */\n      dup5\n        /* \"#utility.yul\":13740:13818   */\n      tag_103\n      jump\t// in\n    tag_287:\n        /* \"#utility.yul\":13732:13818   */\n      swap1\n      pop\n        /* \"#utility.yul\":13402:13825   */\n      swap4\n      swap3\n      pop\n      pop\n      pop\n      jump\t// out\n\n    auxdata: 0xa2646970667358221220a48f497e58133404142d7536c1577501213acf8a41646a4fa22d4bac0bc03e2964736f6c634300081e0033\n}\n",
				"bytecode": {
					"linkReferences": {},
					"object": "608060405234801561000f575f5ffd5b50335f73ffffffffffffffffffffffffffffffffffffffff168173ffffffffffffffffffffffffffffffffffffffff1603610081575f6040517f1e4fbdf70000000000000000000000000000000000000000000000000000000081526004016100789190610196565b60405180910390fd5b6100908161009660201b60201c565b506101af565b5f5f5f9054906101000a900473ffffffffffffffffffffffffffffffffffffffff169050815f5f6101000a81548173ffffffffffffffffffffffffffffffffffffffff021916908373ffffffffffffffffffffffffffffffffffffffff1602179055508173ffffffffffffffffffffffffffffffffffffffff168173ffffffffffffffffffffffffffffffffffffffff167f8be0079c531659141344cd1fd0a4f28419497f9722a3daafe3b4186f6b6457e060405160405180910390a35050565b5f73ffffffffffffffffffffffffffffffffffffffff82169050919050565b5f61018082610157565b9050919050565b61019081610176565b82525050565b5f6020820190506101a95f830184610187565b92915050565b610e8e806101bc5f395ff3fe608060405234801561000f575f5ffd5b506004361061007b575f3560e01c80638da5cb5b116100595780638da5cb5b146100d5578063b06b0368146100f3578063f089f7c314610126578063f2fde38b146101565761007b565b80630d2927321461007f5780635f6fdddf146100af578063715018a6146100cb575b5f5ffd5b6100996004803603810190610094919061072f565b610172565b6040516100a69190610799565b60405180910390f35b6100c960048036038101906100c491906108ee565b6101a2565b005b6100d36103dd565b005b6100dd6103f0565b6040516100ea9190610799565b60405180910390f35b61010d6004803603810190610108919061072f565b610417565b60405161011d94939291906109cf565b60405180910390f35b610140600480360381019061013b9190610a43565b610503565b60405161014d9190610a7d565b60405180910390f35b610170600480360381019061016b9190610a43565b610518565b005b6002602052805f5260405f205f915054906101000a900473ffffffffffffffffffffffffffffffffffffffff1681565b5f60035f3373ffffffffffffffffffffffffffffffffffffffff1673ffffffffffffffffffffffffffffffffffffffff1681526020019081526020015f205414610221576040517f08c379a000000000000000000000000000000000000000000000000000000000815260040161021890610ae0565b60405180910390fd5b60016040518060800160405280838152602001600161ffff1681526020015f63ffffffff1681526020015f61ffff16815250908060018154018082558091505060019003905f5260205f2090600202015f909190919091505f820151815f01908161028c9190610cfb565b506020820151816001015f6101000a81548161ffff021916908361ffff16021790555060408201518160010160026101000a81548163ffffffff021916908363ffffffff16021790555060608201518160010160066101000a81548161ffff021916908361ffff16021790555050505f6001808054905061030d9190610df7565b90503360025f8381526020019081526020015f205f6101000a81548173ffffffffffffffffffffffffffffffffffffffff021916908373ffffffffffffffffffffffffffffffffffffffff1602179055508060035f3373ffffffffffffffffffffffffffffffffffffffff1673ffffffffffffffffffffffffffffffffffffffff1681526020019081526020015f20819055507f41b82268d4cfcb7bde62bae060583c745a4821f267e1fe541b5f624e00d43c7d81836040516103d1929190610e2a565b60405180910390a15050565b6103e561059c565b6103ee5f610623565b565b5f5f5f9054906101000a900473ffffffffffffffffffffffffffffffffffffffff16905090565b60018181548110610426575f80fd5b905f5260205f2090600202015f91509050805f01805461044590610b2b565b80601f016020809104026020016040519081016040528092919081815260200182805461047190610b2b565b80156104bc5780601f10610493576101008083540402835291602001916104bc565b820191905f5260205f20905b81548152906001019060200180831161049f57829003601f168201915b505050505090806001015f9054906101000a900461ffff16908060010160029054906101000a900463ffffffff16908060010160069054906101000a900461ffff16905084565b6003602052805f5260405f205f915090505481565b61052061059c565b5f73ffffffffffffffffffffffffffffffffffffffff168173ffffffffffffffffffffffffffffffffffffffff1603610590575f6040517f1e4fbdf70000000000000000000000000000000000000000000000000000000081526004016105879190610799565b60405180910390fd5b61059981610623565b50565b6105a46106e4565b73ffffffffffffffffffffffffffffffffffffffff166105c26103f0565b73ffffffffffffffffffffffffffffffffffffffff1614610621576105e56106e4565b6040517f118cdaa70000000000000000000000000000000000000000000000000000000081526004016106189190610799565b60405180910390fd5b565b5f5f5f9054906101000a900473ffffffffffffffffffffffffffffffffffffffff169050815f5f6101000a81548173ffffffffffffffffffffffffffffffffffffffff021916908373ffffffffffffffffffffffffffffffffffffffff1602179055508173ffffffffffffffffffffffffffffffffffffffff168173ffffffffffffffffffffffffffffffffffffffff167f8be0079c531659141344cd1fd0a4f28419497f9722a3daafe3b4186f6b6457e060405160405180910390a35050565b5f33905090565b5f604051905090565b5f5ffd5b5f5ffd5b5f819050919050565b61070e816106fc565b8114610718575f5ffd5b50565b5f8135905061072981610705565b92915050565b5f60208284031215610744576107436106f4565b5b5f6107518482850161071b565b91505092915050565b5f73ffffffffffffffffffffffffffffffffffffffff82169050919050565b5f6107838261075a565b9050919050565b61079381610779565b82525050565b5f6020820190506107ac5f83018461078a565b92915050565b5f5ffd5b5f5ffd5b5f601f19601f8301169050919050565b7f4e487b71000000000000000000000000000000000000000000000000000000005f52604160045260245ffd5b610800826107ba565b810181811067ffffffffffffffff8211171561081f5761081e6107ca565b5b80604052505050565b5f6108316106eb565b905061083d82826107f7565b919050565b5f67ffffffffffffffff82111561085c5761085b6107ca565b5b610865826107ba565b9050602081019050919050565b828183375f83830152505050565b5f61089261088d84610842565b610828565b9050828152602081018484840111156108ae576108ad6107b6565b5b6108b9848285610872565b509392505050565b5f82601f8301126108d5576108d46107b2565b5b81356108e5848260208601610880565b91505092915050565b5f60208284031215610903576109026106f4565b5b5f82013567ffffffffffffffff8111156109205761091f6106f8565b5b61092c848285016108c1565b91505092915050565b5f81519050919050565b5f82825260208201905092915050565b8281835e5f83830152505050565b5f61096782610935565b610971818561093f565b935061098181856020860161094f565b61098a816107ba565b840191505092915050565b5f61ffff82169050919050565b6109ab81610995565b82525050565b5f63ffffffff82169050919050565b6109c9816109b1565b82525050565b5f6080820190508181035f8301526109e7818761095d565b90506109f660208301866109a2565b610a0360408301856109c0565b610a1060608301846109a2565b95945050505050565b610a2281610779565b8114610a2c575f5ffd5b50565b5f81359050610a3d81610a19565b92915050565b5f60208284031215610a5857610a576106f4565b5b5f610a6584828501610a2f565b91505092915050565b610a77816106fc565b82525050565b5f602082019050610a905f830184610a6e565b92915050565b7f4a7564676520616c7265616479206578736973747300000000000000000000005f82015250565b5f610aca60158361093f565b9150610ad582610a96565b602082019050919050565b5f6020820190508181035f830152610af781610abe565b9050919050565b7f4e487b71000000000000000000000000000000000000000000000000000000005f52602260045260245ffd5b5f6002820490506001821680610b4257607f821691505b602082108103610b5557610b54610afe565b5b50919050565b5f819050815f5260205f209050919050565b5f6020601f8301049050919050565b5f82821b905092915050565b5f60088302610bb77fffffffffffffffffffffffffffffffffffffffffffffffffffffffffffffffff82610b7c565b610bc18683610b7c565b95508019841693508086168417925050509392505050565b5f819050919050565b5f610bfc610bf7610bf2846106fc565b610bd9565b6106fc565b9050919050565b5f819050919050565b610c1583610be2565b610c29610c2182610c03565b848454610b88565b825550505050565b5f5f905090565b610c40610c31565b610c4b818484610c0c565b505050565b5b81811015610c6e57610c635f82610c38565b600181019050610c51565b5050565b601f821115610cb357610c8481610b5b565b610c8d84610b6d565b81016020851015610c9c578190505b610cb0610ca885610b6d565b830182610c50565b50505b505050565b5f82821c905092915050565b5f610cd35f1984600802610cb8565b1980831691505092915050565b5f610ceb8383610cc4565b9150826002028217905092915050565b610d0482610935565b67ffffffffffffffff811115610d1d57610d1c6107ca565b5b610d278254610b2b565b610d32828285610c72565b5f60209050601f831160018114610d63575f8415610d51578287015190505b610d5b8582610ce0565b865550610dc2565b601f198416610d7186610b5b565b5f5b82811015610d9857848901518255600182019150602085019450602081019050610d73565b86831015610db55784890151610db1601f891682610cc4565b8355505b6001600288020188555050505b505050505050565b7f4e487b71000000000000000000000000000000000000000000000000000000005f52601160045260245ffd5b5f610e01826106fc565b9150610e0c836106fc565b9250828203905081811115610e2457610e23610dca565b5b92915050565b5f604082019050610e3d5f830185610a6e565b8181036020830152610e4f818461095d565b9050939250505056fea2646970667358221220a48f497e58133404142d7536c1577501213acf8a41646a4fa22d4bac0bc03e2964736f6c634300081e0033",
					"opcodes": "PUSH1 0x80 PUSH1 0x40 MSTORE CALLVALUE DUP1 ISZERO PUSH2 0xF JUMPI PUSH0 PUSH0 REVERT JUMPDEST POP CALLER PUSH0 PUSH20 0xFFFFFFFFFFFFFFFFFFFFFFFFFFFFFFFFFFFFFFFF AND DUP2 PUSH20 0xFFFFFFFFFFFFFFFFFFFFFFFFFFFFFFFFFFFFFFFF AND SUB PUSH2 0x81 JUMPI PUSH0 PUSH1 0x40 MLOAD PUSH32 0x1E4FBDF700000000000000000000000000000000000000000000000000000000 DUP2 MSTORE PUSH1 0x4 ADD PUSH2 0x78 SWAP2 SWAP1 PUSH2 0x196 JUMP JUMPDEST PUSH1 0x40 MLOAD DUP1 SWAP2 SUB SWAP1 REVERT JUMPDEST PUSH2 0x90 DUP2 PUSH2 0x96 PUSH1 0x20 SHL PUSH1 0x20 SHR JUMP JUMPDEST POP PUSH2 0x1AF JUMP JUMPDEST PUSH0 PUSH0 PUSH0 SWAP1 SLOAD SWAP1 PUSH2 0x100 EXP SWAP1 DIV PUSH20 0xFFFFFFFFFFFFFFFFFFFFFFFFFFFFFFFFFFFFFFFF AND SWAP1 POP DUP2 PUSH0 PUSH0 PUSH2 0x100 EXP DUP2 SLOAD DUP2 PUSH20 0xFFFFFFFFFFFFFFFFFFFFFFFFFFFFFFFFFFFFFFFF MUL NOT AND SWAP1 DUP4 PUSH20 0xFFFFFFFFFFFFFFFFFFFFFFFFFFFFFFFFFFFFFFFF AND MUL OR SWAP1 SSTORE POP DUP2 PUSH20 0xFFFFFFFFFFFFFFFFFFFFFFFFFFFFFFFFFFFFFFFF AND DUP2 PUSH20 0xFFFFFFFFFFFFFFFFFFFFFFFFFFFFFFFFFFFFFFFF AND PUSH32 0x8BE0079C531659141344CD1FD0A4F28419497F9722A3DAAFE3B4186F6B6457E0 PUSH1 0x40 MLOAD PUSH1 0x40 MLOAD DUP1 SWAP2 SUB SWAP1 LOG3 POP POP JUMP JUMPDEST PUSH0 PUSH20 0xFFFFFFFFFFFFFFFFFFFFFFFFFFFFFFFFFFFFFFFF DUP3 AND SWAP1 POP SWAP2 SWAP1 POP JUMP JUMPDEST PUSH0 PUSH2 0x180 DUP3 PUSH2 0x157 JUMP JUMPDEST SWAP1 POP SWAP2 SWAP1 POP JUMP JUMPDEST PUSH2 0x190 DUP2 PUSH2 0x176 JUMP JUMPDEST DUP3 MSTORE POP POP JUMP JUMPDEST PUSH0 PUSH1 0x20 DUP3 ADD SWAP1 POP PUSH2 0x1A9 PUSH0 DUP4 ADD DUP5 PUSH2 0x187 JUMP JUMPDEST SWAP3 SWAP2 POP POP JUMP JUMPDEST PUSH2 0xE8E DUP1 PUSH2 0x1BC PUSH0 CODECOPY PUSH0 RETURN INVALID PUSH1 0x80 PUSH1 0x40 MSTORE CALLVALUE DUP1 ISZERO PUSH2 0xF JUMPI PUSH0 PUSH0 REVERT JUMPDEST POP PUSH1 0x4 CALLDATASIZE LT PUSH2 0x7B JUMPI PUSH0 CALLDATALOAD PUSH1 0xE0 SHR DUP1 PUSH4 0x8DA5CB5B GT PUSH2 0x59 JUMPI DUP1 PUSH4 0x8DA5CB5B EQ PUSH2 0xD5 JUMPI DUP1 PUSH4 0xB06B0368 EQ PUSH2 0xF3 JUMPI DUP1 PUSH4 0xF089F7C3 EQ PUSH2 0x126 JUMPI DUP1 PUSH4 0xF2FDE38B EQ PUSH2 0x156 JUMPI PUSH2 0x7B JUMP JUMPDEST DUP1 PUSH4 0xD292732 EQ PUSH2 0x7F JUMPI DUP1 PUSH4 0x5F6FDDDF EQ PUSH2 0xAF JUMPI DUP1 PUSH4 0x715018A6 EQ PUSH2 0xCB JUMPI JUMPDEST PUSH0 PUSH0 REVERT JUMPDEST PUSH2 0x99 PUSH1 0x4 DUP1 CALLDATASIZE SUB DUP2 ADD SWAP1 PUSH2 0x94 SWAP2 SWAP1 PUSH2 0x72F JUMP JUMPDEST PUSH2 0x172 JUMP JUMPDEST PUSH1 0x40 MLOAD PUSH2 0xA6 SWAP2 SWAP1 PUSH2 0x799 JUMP JUMPDEST PUSH1 0x40 MLOAD DUP1 SWAP2 SUB SWAP1 RETURN JUMPDEST PUSH2 0xC9 PUSH1 0x4 DUP1 CALLDATASIZE SUB DUP2 ADD SWAP1 PUSH2 0xC4 SWAP2 SWAP1 PUSH2 0x8EE JUMP JUMPDEST PUSH2 0x1A2 JUMP JUMPDEST STOP JUMPDEST PUSH2 0xD3 PUSH2 0x3DD JUMP JUMPDEST STOP JUMPDEST PUSH2 0xDD PUSH2 0x3F0 JUMP JUMPDEST PUSH1 0x40 MLOAD PUSH2 0xEA SWAP2 SWAP1 PUSH2 0x799 JUMP JUMPDEST PUSH1 0x40 MLOAD DUP1 SWAP2 SUB SWAP1 RETURN JUMPDEST PUSH2 0x10D PUSH1 0x4 DUP1 CALLDATASIZE SUB DUP2 ADD SWAP1 PUSH2 0x108 SWAP2 SWAP1 PUSH2 0x72F JUMP JUMPDEST PUSH2 0x417 JUMP JUMPDEST PUSH1 0x40 MLOAD PUSH2 0x11D SWAP5 SWAP4 SWAP3 SWAP2 SWAP1 PUSH2 0x9CF JUMP JUMPDEST PUSH1 0x40 MLOAD DUP1 SWAP2 SUB SWAP1 RETURN JUMPDEST PUSH2 0x140 PUSH1 0x4 DUP1 CALLDATASIZE SUB DUP2 ADD SWAP1 PUSH2 0x13B SWAP2 SWAP1 PUSH2 0xA43 JUMP JUMPDEST PUSH2 0x503 JUMP JUMPDEST PUSH1 0x40 MLOAD PUSH2 0x14D SWAP2 SWAP1 PUSH2 0xA7D JUMP JUMPDEST PUSH1 0x40 MLOAD DUP1 SWAP2 SUB SWAP1 RETURN JUMPDEST PUSH2 0x170 PUSH1 0x4 DUP1 CALLDATASIZE SUB DUP2 ADD SWAP1 PUSH2 0x16B SWAP2 SWAP1 PUSH2 0xA43 JUMP JUMPDEST PUSH2 0x518 JUMP JUMPDEST STOP JUMPDEST PUSH1 0x2 PUSH1 0x20 MSTORE DUP1 PUSH0 MSTORE PUSH1 0x40 PUSH0 KECCAK256 PUSH0 SWAP2 POP SLOAD SWAP1 PUSH2 0x100 EXP SWAP1 DIV PUSH20 0xFFFFFFFFFFFFFFFFFFFFFFFFFFFFFFFFFFFFFFFF AND DUP2 JUMP JUMPDEST PUSH0 PUSH1 0x3 PUSH0 CALLER PUSH20 0xFFFFFFFFFFFFFFFFFFFFFFFFFFFFFFFFFFFFFFFF AND PUSH20 0xFFFFFFFFFFFFFFFFFFFFFFFFFFFFFFFFFFFFFFFF AND DUP2 MSTORE PUSH1 0x20 ADD SWAP1 DUP2 MSTORE PUSH1 0x20 ADD PUSH0 KECCAK256 SLOAD EQ PUSH2 0x221 JUMPI PUSH1 0x40 MLOAD PUSH32 0x8C379A000000000000000000000000000000000000000000000000000000000 DUP2 MSTORE PUSH1 0x4 ADD PUSH2 0x218 SWAP1 PUSH2 0xAE0 JUMP JUMPDEST PUSH1 0x40 MLOAD DUP1 SWAP2 SUB SWAP1 REVERT JUMPDEST PUSH1 0x1 PUSH1 0x40 MLOAD DUP1 PUSH1 0x80 ADD PUSH1 0x40 MSTORE DUP1 DUP4 DUP2 MSTORE PUSH1 0x20 ADD PUSH1 0x1 PUSH2 0xFFFF AND DUP2 MSTORE PUSH1 0x20 ADD PUSH0 PUSH4 0xFFFFFFFF AND DUP2 MSTORE PUSH1 0x20 ADD PUSH0 PUSH2 0xFFFF AND DUP2 MSTORE POP SWAP1 DUP1 PUSH1 0x1 DUP2 SLOAD ADD DUP1 DUP3 SSTORE DUP1 SWAP2 POP POP PUSH1 0x1 SWAP1 SUB SWAP1 PUSH0 MSTORE PUSH1 0x20 PUSH0 KECCAK256 SWAP1 PUSH1 0x2 MUL ADD PUSH0 SWAP1 SWAP2 SWAP1 SWAP2 SWAP1 SWAP2 POP PUSH0 DUP3 ADD MLOAD DUP2 PUSH0 ADD SWAP1 DUP2 PUSH2 0x28C SWAP2 SWAP1 PUSH2 0xCFB JUMP JUMPDEST POP PUSH1 0x20 DUP3 ADD MLOAD DUP2 PUSH1 0x1 ADD PUSH0 PUSH2 0x100 EXP DUP2 SLOAD DUP2 PUSH2 0xFFFF MUL NOT AND SWAP1 DUP4 PUSH2 0xFFFF AND MUL OR SWAP1 SSTORE POP PUSH1 0x40 DUP3 ADD MLOAD DUP2 PUSH1 0x1 ADD PUSH1 0x2 PUSH2 0x100 EXP DUP2 SLOAD DUP2 PUSH4 0xFFFFFFFF MUL NOT AND SWAP1 DUP4 PUSH4 0xFFFFFFFF AND MUL OR SWAP1 SSTORE POP PUSH1 0x60 DUP3 ADD MLOAD DUP2 PUSH1 0x1 ADD PUSH1 0x6 PUSH2 0x100 EXP DUP2 SLOAD DUP2 PUSH2 0xFFFF MUL NOT AND SWAP1 DUP4 PUSH2 0xFFFF AND MUL OR SWAP1 SSTORE POP POP POP PUSH0 PUSH1 0x1 DUP1 DUP1 SLOAD SWAP1 POP PUSH2 0x30D SWAP2 SWAP1 PUSH2 0xDF7 JUMP JUMPDEST SWAP1 POP CALLER PUSH1 0x2 PUSH0 DUP4 DUP2 MSTORE PUSH1 0x20 ADD SWAP1 DUP2 MSTORE PUSH1 0x20 ADD PUSH0 KECCAK256 PUSH0 PUSH2 0x100 EXP DUP2 SLOAD DUP2 PUSH20 0xFFFFFFFFFFFFFFFFFFFFFFFFFFFFFFFFFFFFFFFF MUL NOT AND SWAP1 DUP4 PUSH20 0xFFFFFFFFFFFFFFFFFFFFFFFFFFFFFFFFFFFFFFFF AND MUL OR SWAP1 SSTORE POP DUP1 PUSH1 0x3 PUSH0 CALLER PUSH20 0xFFFFFFFFFFFFFFFFFFFFFFFFFFFFFFFFFFFFFFFF AND PUSH20 0xFFFFFFFFFFFFFFFFFFFFFFFFFFFFFFFFFFFFFFFF AND DUP2 MSTORE PUSH1 0x20 ADD SWAP1 DUP2 MSTORE PUSH1 0x20 ADD PUSH0 KECCAK256 DUP2 SWAP1 SSTORE POP PUSH32 0x41B82268D4CFCB7BDE62BAE060583C745A4821F267E1FE541B5F624E00D43C7D DUP2 DUP4 PUSH1 0x40 MLOAD PUSH2 0x3D1 SWAP3 SWAP2 SWAP1 PUSH2 0xE2A JUMP JUMPDEST PUSH1 0x40 MLOAD DUP1 SWAP2 SUB SWAP1 LOG1 POP POP JUMP JUMPDEST PUSH2 0x3E5 PUSH2 0x59C JUMP JUMPDEST PUSH2 0x3EE PUSH0 PUSH2 0x623 JUMP JUMPDEST JUMP JUMPDEST PUSH0 PUSH0 PUSH0 SWAP1 SLOAD SWAP1 PUSH2 0x100 EXP SWAP1 DIV PUSH20 0xFFFFFFFFFFFFFFFFFFFFFFFFFFFFFFFFFFFFFFFF AND SWAP1 POP SWAP1 JUMP JUMPDEST PUSH1 0x1 DUP2 DUP2 SLOAD DUP2 LT PUSH2 0x426 JUMPI PUSH0 DUP1 REVERT JUMPDEST SWAP1 PUSH0 MSTORE PUSH1 0x20 PUSH0 KECCAK256 SWAP1 PUSH1 0x2 MUL ADD PUSH0 SWAP2 POP SWAP1 POP DUP1 PUSH0 ADD DUP1 SLOAD PUSH2 0x445 SWAP1 PUSH2 0xB2B JUMP JUMPDEST DUP1 PUSH1 0x1F ADD PUSH1 0x20 DUP1 SWAP2 DIV MUL PUSH1 0x20 ADD PUSH1 0x40 MLOAD SWAP1 DUP2 ADD PUSH1 0x40 MSTORE DUP1 SWAP3 SWAP2 SWAP1 DUP2 DUP2 MSTORE PUSH1 0x20 ADD DUP3 DUP1 SLOAD PUSH2 0x471 SWAP1 PUSH2 0xB2B JUMP JUMPDEST DUP1 ISZERO PUSH2 0x4BC JUMPI DUP1 PUSH1 0x1F LT PUSH2 0x493 JUMPI PUSH2 0x100 DUP1 DUP4 SLOAD DIV MUL DUP4 MSTORE SWAP2 PUSH1 0x20 ADD SWAP2 PUSH2 0x4BC JUMP JUMPDEST DUP3 ADD SWAP2 SWAP1 PUSH0 MSTORE PUSH1 0x20 PUSH0 KECCAK256 SWAP1 JUMPDEST DUP2 SLOAD DUP2 MSTORE SWAP1 PUSH1 0x1 ADD SWAP1 PUSH1 0x20 ADD DUP1 DUP4 GT PUSH2 0x49F JUMPI DUP3 SWAP1 SUB PUSH1 0x1F AND DUP3 ADD SWAP2 JUMPDEST POP POP POP POP POP SWAP1 DUP1 PUSH1 0x1 ADD PUSH0 SWAP1 SLOAD SWAP1 PUSH2 0x100 EXP SWAP1 DIV PUSH2 0xFFFF AND SWAP1 DUP1 PUSH1 0x1 ADD PUSH1 0x2 SWAP1 SLOAD SWAP1 PUSH2 0x100 EXP SWAP1 DIV PUSH4 0xFFFFFFFF AND SWAP1 DUP1 PUSH1 0x1 ADD PUSH1 0x6 SWAP1 SLOAD SWAP1 PUSH2 0x100 EXP SWAP1 DIV PUSH2 0xFFFF AND SWAP1 POP DUP5 JUMP JUMPDEST PUSH1 0x3 PUSH1 0x20 MSTORE DUP1 PUSH0 MSTORE PUSH1 0x40 PUSH0 KECCAK256 PUSH0 SWAP2 POP SWAP1 POP SLOAD DUP2 JUMP JUMPDEST PUSH2 0x520 PUSH2 0x59C JUMP JUMPDEST PUSH0 PUSH20 0xFFFFFFFFFFFFFFFFFFFFFFFFFFFFFFFFFFFFFFFF AND DUP2 PUSH20 0xFFFFFFFFFFFFFFFFFFFFFFFFFFFFFFFFFFFFFFFF AND SUB PUSH2 0x590 JUMPI PUSH0 PUSH1 0x40 MLOAD PUSH32 0x1E4FBDF700000000000000000000000000000000000000000000000000000000 DUP2 MSTORE PUSH1 0x4 ADD PUSH2 0x587 SWAP2 SWAP1 PUSH2 0x799 JUMP JUMPDEST PUSH1 0x40 MLOAD DUP1 SWAP2 SUB SWAP1 REVERT JUMPDEST PUSH2 0x599 DUP2 PUSH2 0x623 JUMP JUMPDEST POP JUMP JUMPDEST PUSH2 0x5A4 PUSH2 0x6E4 JUMP JUMPDEST PUSH20 0xFFFFFFFFFFFFFFFFFFFFFFFFFFFFFFFFFFFFFFFF AND PUSH2 0x5C2 PUSH2 0x3F0 JUMP JUMPDEST PUSH20 0xFFFFFFFFFFFFFFFFFFFFFFFFFFFFFFFFFFFFFFFF AND EQ PUSH2 0x621 JUMPI PUSH2 0x5E5 PUSH2 0x6E4 JUMP JUMPDEST PUSH1 0x40 MLOAD PUSH32 0x118CDAA700000000000000000000000000000000000000000000000000000000 DUP2 MSTORE PUSH1 0x4 ADD PUSH2 0x618 SWAP2 SWAP1 PUSH2 0x799 JUMP JUMPDEST PUSH1 0x40 MLOAD DUP1 SWAP2 SUB SWAP1 REVERT JUMPDEST JUMP JUMPDEST PUSH0 PUSH0 PUSH0 SWAP1 SLOAD SWAP1 PUSH2 0x100 EXP SWAP1 DIV PUSH20 0xFFFFFFFFFFFFFFFFFFFFFFFFFFFFFFFFFFFFFFFF AND SWAP1 POP DUP2 PUSH0 PUSH0 PUSH2 0x100 EXP DUP2 SLOAD DUP2 PUSH20 0xFFFFFFFFFFFFFFFFFFFFFFFFFFFFFFFFFFFFFFFF MUL NOT AND SWAP1 DUP4 PUSH20 0xFFFFFFFFFFFFFFFFFFFFFFFFFFFFFFFFFFFFFFFF AND MUL OR SWAP1 SSTORE POP DUP2 PUSH20 0xFFFFFFFFFFFFFFFFFFFFFFFFFFFFFFFFFFFFFFFF AND DUP2 PUSH20 0xFFFFFFFFFFFFFFFFFFFFFFFFFFFFFFFFFFFFFFFF AND PUSH32 0x8BE0079C531659141344CD1FD0A4F28419497F9722A3DAAFE3B4186F6B6457E0 PUSH1 0x40 MLOAD PUSH1 0x40 MLOAD DUP1 SWAP2 SUB SWAP1 LOG3 POP POP JUMP JUMPDEST PUSH0 CALLER SWAP1 POP SWAP1 JUMP JUMPDEST PUSH0 PUSH1 0x40 MLOAD SWAP1 POP SWAP1 JUMP JUMPDEST PUSH0 PUSH0 REVERT JUMPDEST PUSH0 PUSH0 REVERT JUMPDEST PUSH0 DUP2 SWAP1 POP SWAP2 SWAP1 POP JUMP JUMPDEST PUSH2 0x70E DUP2 PUSH2 0x6FC JUMP JUMPDEST DUP2 EQ PUSH2 0x718 JUMPI PUSH0 PUSH0 REVERT JUMPDEST POP JUMP JUMPDEST PUSH0 DUP2 CALLDATALOAD SWAP1 POP PUSH2 0x729 DUP2 PUSH2 0x705 JUMP JUMPDEST SWAP3 SWAP2 POP POP JUMP JUMPDEST PUSH0 PUSH1 0x20 DUP3 DUP5 SUB SLT ISZERO PUSH2 0x744 JUMPI PUSH2 0x743 PUSH2 0x6F4 JUMP JUMPDEST JUMPDEST PUSH0 PUSH2 0x751 DUP5 DUP3 DUP6 ADD PUSH2 0x71B JUMP JUMPDEST SWAP2 POP POP SWAP3 SWAP2 POP POP JUMP JUMPDEST PUSH0 PUSH20 0xFFFFFFFFFFFFFFFFFFFFFFFFFFFFFFFFFFFFFFFF DUP3 AND SWAP1 POP SWAP2 SWAP1 POP JUMP JUMPDEST PUSH0 PUSH2 0x783 DUP3 PUSH2 0x75A JUMP JUMPDEST SWAP1 POP SWAP2 SWAP1 POP JUMP JUMPDEST PUSH2 0x793 DUP2 PUSH2 0x779 JUMP JUMPDEST DUP3 MSTORE POP POP JUMP JUMPDEST PUSH0 PUSH1 0x20 DUP3 ADD SWAP1 POP PUSH2 0x7AC PUSH0 DUP4 ADD DUP5 PUSH2 0x78A JUMP JUMPDEST SWAP3 SWAP2 POP POP JUMP JUMPDEST PUSH0 PUSH0 REVERT JUMPDEST PUSH0 PUSH0 REVERT JUMPDEST PUSH0 PUSH1 0x1F NOT PUSH1 0x1F DUP4 ADD AND SWAP1 POP SWAP2 SWAP1 POP JUMP JUMPDEST PUSH32 0x4E487B7100000000000000000000000000000000000000000000000000000000 PUSH0 MSTORE PUSH1 0x41 PUSH1 0x4 MSTORE PUSH1 0x24 PUSH0 REVERT JUMPDEST PUSH2 0x800 DUP3 PUSH2 0x7BA JUMP JUMPDEST DUP2 ADD DUP2 DUP2 LT PUSH8 0xFFFFFFFFFFFFFFFF DUP3 GT OR ISZERO PUSH2 0x81F JUMPI PUSH2 0x81E PUSH2 0x7CA JUMP JUMPDEST JUMPDEST DUP1 PUSH1 0x40 MSTORE POP POP POP JUMP JUMPDEST PUSH0 PUSH2 0x831 PUSH2 0x6EB JUMP JUMPDEST SWAP1 POP PUSH2 0x83D DUP3 DUP3 PUSH2 0x7F7 JUMP JUMPDEST SWAP2 SWAP1 POP JUMP JUMPDEST PUSH0 PUSH8 0xFFFFFFFFFFFFFFFF DUP3 GT ISZERO PUSH2 0x85C JUMPI PUSH2 0x85B PUSH2 0x7CA JUMP JUMPDEST JUMPDEST PUSH2 0x865 DUP3 PUSH2 0x7BA JUMP JUMPDEST SWAP1 POP PUSH1 0x20 DUP2 ADD SWAP1 POP SWAP2 SWAP1 POP JUMP JUMPDEST DUP3 DUP2 DUP4 CALLDATACOPY PUSH0 DUP4 DUP4 ADD MSTORE POP POP POP JUMP JUMPDEST PUSH0 PUSH2 0x892 PUSH2 0x88D DUP5 PUSH2 0x842 JUMP JUMPDEST PUSH2 0x828 JUMP JUMPDEST SWAP1 POP DUP3 DUP2 MSTORE PUSH1 0x20 DUP2 ADD DUP5 DUP5 DUP5 ADD GT ISZERO PUSH2 0x8AE JUMPI PUSH2 0x8AD PUSH2 0x7B6 JUMP JUMPDEST JUMPDEST PUSH2 0x8B9 DUP5 DUP3 DUP6 PUSH2 0x872 JUMP JUMPDEST POP SWAP4 SWAP3 POP POP POP JUMP JUMPDEST PUSH0 DUP3 PUSH1 0x1F DUP4 ADD SLT PUSH2 0x8D5 JUMPI PUSH2 0x8D4 PUSH2 0x7B2 JUMP JUMPDEST JUMPDEST DUP2 CALLDATALOAD PUSH2 0x8E5 DUP5 DUP3 PUSH1 0x20 DUP7 ADD PUSH2 0x880 JUMP JUMPDEST SWAP2 POP POP SWAP3 SWAP2 POP POP JUMP JUMPDEST PUSH0 PUSH1 0x20 DUP3 DUP5 SUB SLT ISZERO PUSH2 0x903 JUMPI PUSH2 0x902 PUSH2 0x6F4 JUMP JUMPDEST JUMPDEST PUSH0 DUP3 ADD CALLDATALOAD PUSH8 0xFFFFFFFFFFFFFFFF DUP2 GT ISZERO PUSH2 0x920 JUMPI PUSH2 0x91F PUSH2 0x6F8 JUMP JUMPDEST JUMPDEST PUSH2 0x92C DUP5 DUP3 DUP6 ADD PUSH2 0x8C1 JUMP JUMPDEST SWAP2 POP POP SWAP3 SWAP2 POP POP JUMP JUMPDEST PUSH0 DUP2 MLOAD SWAP1 POP SWAP2 SWAP1 POP JUMP JUMPDEST PUSH0 DUP3 DUP3 MSTORE PUSH1 0x20 DUP3 ADD SWAP1 POP SWAP3 SWAP2 POP POP JUMP JUMPDEST DUP3 DUP2 DUP4 MCOPY PUSH0 DUP4 DUP4 ADD MSTORE POP POP POP JUMP JUMPDEST PUSH0 PUSH2 0x967 DUP3 PUSH2 0x935 JUMP JUMPDEST PUSH2 0x971 DUP2 DUP6 PUSH2 0x93F JUMP JUMPDEST SWAP4 POP PUSH2 0x981 DUP2 DUP6 PUSH1 0x20 DUP7 ADD PUSH2 0x94F JUMP JUMPDEST PUSH2 0x98A DUP2 PUSH2 0x7BA JUMP JUMPDEST DUP5 ADD SWAP2 POP POP SWAP3 SWAP2 POP POP JUMP JUMPDEST PUSH0 PUSH2 0xFFFF DUP3 AND SWAP1 POP SWAP2 SWAP1 POP JUMP JUMPDEST PUSH2 0x9AB DUP2 PUSH2 0x995 JUMP JUMPDEST DUP3 MSTORE POP POP JUMP JUMPDEST PUSH0 PUSH4 0xFFFFFFFF DUP3 AND SWAP1 POP SWAP2 SWAP1 POP JUMP JUMPDEST PUSH2 0x9C9 DUP2 PUSH2 0x9B1 JUMP JUMPDEST DUP3 MSTORE POP POP JUMP JUMPDEST PUSH0 PUSH1 0x80 DUP3 ADD SWAP1 POP DUP2 DUP2 SUB PUSH0 DUP4 ADD MSTORE PUSH2 0x9E7 DUP2 DUP8 PUSH2 0x95D JUMP JUMPDEST SWAP1 POP PUSH2 0x9F6 PUSH1 0x20 DUP4 ADD DUP7 PUSH2 0x9A2 JUMP JUMPDEST PUSH2 0xA03 PUSH1 0x40 DUP4 ADD DUP6 PUSH2 0x9C0 JUMP JUMPDEST PUSH2 0xA10 PUSH1 0x60 DUP4 ADD DUP5 PUSH2 0x9A2 JUMP JUMPDEST SWAP6 SWAP5 POP POP POP POP POP JUMP JUMPDEST PUSH2 0xA22 DUP2 PUSH2 0x779 JUMP JUMPDEST DUP2 EQ PUSH2 0xA2C JUMPI PUSH0 PUSH0 REVERT JUMPDEST POP JUMP JUMPDEST PUSH0 DUP2 CALLDATALOAD SWAP1 POP PUSH2 0xA3D DUP2 PUSH2 0xA19 JUMP JUMPDEST SWAP3 SWAP2 POP POP JUMP JUMPDEST PUSH0 PUSH1 0x20 DUP3 DUP5 SUB SLT ISZERO PUSH2 0xA58 JUMPI PUSH2 0xA57 PUSH2 0x6F4 JUMP JUMPDEST JUMPDEST PUSH0 PUSH2 0xA65 DUP5 DUP3 DUP6 ADD PUSH2 0xA2F JUMP JUMPDEST SWAP2 POP POP SWAP3 SWAP2 POP POP JUMP JUMPDEST PUSH2 0xA77 DUP2 PUSH2 0x6FC JUMP JUMPDEST DUP3 MSTORE POP POP JUMP JUMPDEST PUSH0 PUSH1 0x20 DUP3 ADD SWAP1 POP PUSH2 0xA90 PUSH0 DUP4 ADD DUP5 PUSH2 0xA6E JUMP JUMPDEST SWAP3 SWAP2 POP POP JUMP JUMPDEST PUSH32 0x4A7564676520616C726561647920657873697374730000000000000000000000 PUSH0 DUP3 ADD MSTORE POP JUMP JUMPDEST PUSH0 PUSH2 0xACA PUSH1 0x15 DUP4 PUSH2 0x93F JUMP JUMPDEST SWAP2 POP PUSH2 0xAD5 DUP3 PUSH2 0xA96 JUMP JUMPDEST PUSH1 0x20 DUP3 ADD SWAP1 POP SWAP2 SWAP1 POP JUMP JUMPDEST PUSH0 PUSH1 0x20 DUP3 ADD SWAP1 POP DUP2 DUP2 SUB PUSH0 DUP4 ADD MSTORE PUSH2 0xAF7 DUP2 PUSH2 0xABE JUMP JUMPDEST SWAP1 POP SWAP2 SWAP1 POP JUMP JUMPDEST PUSH32 0x4E487B7100000000000000000000000000000000000000000000000000000000 PUSH0 MSTORE PUSH1 0x22 PUSH1 0x4 MSTORE PUSH1 0x24 PUSH0 REVERT JUMPDEST PUSH0 PUSH1 0x2 DUP3 DIV SWAP1 POP PUSH1 0x1 DUP3 AND DUP1 PUSH2 0xB42 JUMPI PUSH1 0x7F DUP3 AND SWAP2 POP JUMPDEST PUSH1 0x20 DUP3 LT DUP2 SUB PUSH2 0xB55 JUMPI PUSH2 0xB54 PUSH2 0xAFE JUMP JUMPDEST JUMPDEST POP SWAP2 SWAP1 POP JUMP JUMPDEST PUSH0 DUP2 SWAP1 POP DUP2 PUSH0 MSTORE PUSH1 0x20 PUSH0 KECCAK256 SWAP1 POP SWAP2 SWAP1 POP JUMP JUMPDEST PUSH0 PUSH1 0x20 PUSH1 0x1F DUP4 ADD DIV SWAP1 POP SWAP2 SWAP1 POP JUMP JUMPDEST PUSH0 DUP3 DUP3 SHL SWAP1 POP SWAP3 SWAP2 POP POP JUMP JUMPDEST PUSH0 PUSH1 0x8 DUP4 MUL PUSH2 0xBB7 PUSH32 0xFFFFFFFFFFFFFFFFFFFFFFFFFFFFFFFFFFFFFFFFFFFFFFFFFFFFFFFFFFFFFFFF DUP3 PUSH2 0xB7C JUMP JUMPDEST PUSH2 0xBC1 DUP7 DUP4 PUSH2 0xB7C JUMP JUMPDEST SWAP6 POP DUP1 NOT DUP5 AND SWAP4 POP DUP1 DUP7 AND DUP5 OR SWAP3 POP POP POP SWAP4 SWAP3 POP POP POP JUMP JUMPDEST PUSH0 DUP2 SWAP1 POP SWAP2 SWAP1 POP JUMP JUMPDEST PUSH0 PUSH2 0xBFC PUSH2 0xBF7 PUSH2 0xBF2 DUP5 PUSH2 0x6FC JUMP JUMPDEST PUSH2 0xBD9 JUMP JUMPDEST PUSH2 0x6FC JUMP JUMPDEST SWAP1 POP SWAP2 SWAP1 POP JUMP JUMPDEST PUSH0 DUP2 SWAP1 POP SWAP2 SWAP1 POP JUMP JUMPDEST PUSH2 0xC15 DUP4 PUSH2 0xBE2 JUMP JUMPDEST PUSH2 0xC29 PUSH2 0xC21 DUP3 PUSH2 0xC03 JUMP JUMPDEST DUP5 DUP5 SLOAD PUSH2 0xB88 JUMP JUMPDEST DUP3 SSTORE POP POP POP POP JUMP JUMPDEST PUSH0 PUSH0 SWAP1 POP SWAP1 JUMP JUMPDEST PUSH2 0xC40 PUSH2 0xC31 JUMP JUMPDEST PUSH2 0xC4B DUP2 DUP5 DUP5 PUSH2 0xC0C JUMP JUMPDEST POP POP POP JUMP JUMPDEST JUMPDEST DUP2 DUP2 LT ISZERO PUSH2 0xC6E JUMPI PUSH2 0xC63 PUSH0 DUP3 PUSH2 0xC38 JUMP JUMPDEST PUSH1 0x1 DUP2 ADD SWAP1 POP PUSH2 0xC51 JUMP JUMPDEST POP POP JUMP JUMPDEST PUSH1 0x1F DUP3 GT ISZERO PUSH2 0xCB3 JUMPI PUSH2 0xC84 DUP2 PUSH2 0xB5B JUMP JUMPDEST PUSH2 0xC8D DUP5 PUSH2 0xB6D JUMP JUMPDEST DUP2 ADD PUSH1 0x20 DUP6 LT ISZERO PUSH2 0xC9C JUMPI DUP2 SWAP1 POP JUMPDEST PUSH2 0xCB0 PUSH2 0xCA8 DUP6 PUSH2 0xB6D JUMP JUMPDEST DUP4 ADD DUP3 PUSH2 0xC50 JUMP JUMPDEST POP POP JUMPDEST POP POP POP JUMP JUMPDEST PUSH0 DUP3 DUP3 SHR SWAP1 POP SWAP3 SWAP2 POP POP JUMP JUMPDEST PUSH0 PUSH2 0xCD3 PUSH0 NOT DUP5 PUSH1 0x8 MUL PUSH2 0xCB8 JUMP JUMPDEST NOT DUP1 DUP4 AND SWAP2 POP POP SWAP3 SWAP2 POP POP JUMP JUMPDEST PUSH0 PUSH2 0xCEB DUP4 DUP4 PUSH2 0xCC4 JUMP JUMPDEST SWAP2 POP DUP3 PUSH1 0x2 MUL DUP3 OR SWAP1 POP SWAP3 SWAP2 POP POP JUMP JUMPDEST PUSH2 0xD04 DUP3 PUSH2 0x935 JUMP JUMPDEST PUSH8 0xFFFFFFFFFFFFFFFF DUP2 GT ISZERO PUSH2 0xD1D JUMPI PUSH2 0xD1C PUSH2 0x7CA JUMP JUMPDEST JUMPDEST PUSH2 0xD27 DUP3 SLOAD PUSH2 0xB2B JUMP JUMPDEST PUSH2 0xD32 DUP3 DUP3 DUP6 PUSH2 0xC72 JUMP JUMPDEST PUSH0 PUSH1 0x20 SWAP1 POP PUSH1 0x1F DUP4 GT PUSH1 0x1 DUP2 EQ PUSH2 0xD63 JUMPI PUSH0 DUP5 ISZERO PUSH2 0xD51 JUMPI DUP3 DUP8 ADD MLOAD SWAP1 POP JUMPDEST PUSH2 0xD5B DUP6 DUP3 PUSH2 0xCE0 JUMP JUMPDEST DUP7 SSTORE POP PUSH2 0xDC2 JUMP JUMPDEST PUSH1 0x1F NOT DUP5 AND PUSH2 0xD71 DUP7 PUSH2 0xB5B JUMP JUMPDEST PUSH0 JUMPDEST DUP3 DUP2 LT ISZERO PUSH2 0xD98 JUMPI DUP5 DUP10 ADD MLOAD DUP3 SSTORE PUSH1 0x1 DUP3 ADD SWAP2 POP PUSH1 0x20 DUP6 ADD SWAP5 POP PUSH1 0x20 DUP2 ADD SWAP1 POP PUSH2 0xD73 JUMP JUMPDEST DUP7 DUP4 LT ISZERO PUSH2 0xDB5 JUMPI DUP5 DUP10 ADD MLOAD PUSH2 0xDB1 PUSH1 0x1F DUP10 AND DUP3 PUSH2 0xCC4 JUMP JUMPDEST DUP4 SSTORE POP JUMPDEST PUSH1 0x1 PUSH1 0x2 DUP9 MUL ADD DUP9 SSTORE POP POP POP JUMPDEST POP POP POP POP POP POP JUMP JUMPDEST PUSH32 0x4E487B7100000000000000000000000000000000000000000000000000000000 PUSH0 MSTORE PUSH1 0x11 PUSH1 0x4 MSTORE PUSH1 0x24 PUSH0 REVERT JUMPDEST PUSH0 PUSH2 0xE01 DUP3 PUSH2 0x6FC JUMP JUMPDEST SWAP2 POP PUSH2 0xE0C DUP4 PUSH2 0x6FC JUMP JUMPDEST SWAP3 POP DUP3 DUP3 SUB SWAP1 POP DUP2 DUP2 GT ISZERO PUSH2 0xE24 JUMPI PUSH2 0xE23 PUSH2 0xDCA JUMP JUMPDEST JUMPDEST SWAP3 SWAP2 POP POP JUMP JUMPDEST PUSH0 PUSH1 0x40 DUP3 ADD SWAP1 POP PUSH2 0xE3D PUSH0 DUP4 ADD DUP6 PUSH2 0xA6E JUMP JUMPDEST DUP2 DUP2 SUB PUSH1 0x20 DUP4 ADD MSTORE PUSH2 0xE4F DUP2 DUP5 PUSH2 0x95D JUMP JUMPDEST SWAP1 POP SWAP4 SWAP3 POP POP POP JUMP INVALID LOG2 PUSH5 0x6970667358 0x22 SLT KECCAK256 LOG4 DUP16 BLOBHASH PUSH31 0x58133404142D7536C1577501213ACF8A41646A4FA22D4BAC0BC03E2964736F PUSH13 0x634300081E0033000000000000 "
				},
				"gasEstimates": {
					"creation": {
						"codeDepositCost": "745200",
						"executionCost": "infinite",
						"totalCost": "infinite"
					},
					"external": {
						"_registerJudge(string)": "infinite",
						"judgeToOwner(uint256)": "2828",
						"judges(uint256)": "infinite",
						"owner()": "2514",
						"ownerToJudge(address)": "2846",
						"renounceOwnership()": "infinite",
						"transferOwnership(address)": "infinite"
					}
				},
				"methodIdentifiers": {
					"_registerJudge(string)": "5f6fdddf",
					"judgeToOwner(uint256)": "0d292732",
					"judges(uint256)": "b06b0368",
					"owner()": "8da5cb5b",
					"ownerToJudge(address)": "f089f7c3",
					"renounceOwnership()": "715018a6",
					"transferOwnership(address)": "f2fde38b"
				}
			},
			"storageLayout": {
				"storage": [
					{
						"astId": 8,
						"contract": "JudgeReg.sol:JudgeReg",
						"label": "_owner",
						"offset": 0,
						"slot": "0",
						"type": "t_address"
					},
					{
						"astId": 331,
						"contract": "JudgeReg.sol:JudgeReg",
						"label": "judges",
						"offset": 0,
						"slot": "1",
						"type": "t_array(t_struct(Judge)327_storage)dyn_storage"
					},
					{
						"astId": 335,
						"contract": "JudgeReg.sol:JudgeReg",
						"label": "judgeToOwner",
						"offset": 0,
						"slot": "2",
						"type": "t_mapping(t_uint256,t_address)"
					},
					{
						"astId": 339,
						"contract": "JudgeReg.sol:JudgeReg",
						"label": "ownerToJudge",
						"offset": 0,
						"slot": "3",
						"type": "t_mapping(t_address,t_uint256)"
					},
					{
						"astId": 343,
						"contract": "JudgeReg.sol:JudgeReg",
						"label": "judgeBalance",
						"offset": 0,
						"slot": "4",
						"type": "t_mapping(t_address,t_uint256)"
					}
				],
				"types": {
					"t_address": {
						"encoding": "inplace",
						"label": "address",
						"numberOfBytes": "20"
					},
					"t_array(t_struct(Judge)327_storage)dyn_storage": {
						"base": "t_struct(Judge)327_storage",
						"encoding": "dynamic_array",
						"label": "struct JudgeReg.Judge[]",
						"numberOfBytes": "32"
					},
					"t_mapping(t_address,t_uint256)": {
						"encoding": "mapping",
						"key": "t_address",
						"label": "mapping(address => uint256)",
						"numberOfBytes": "32",
						"value": "t_uint256"
					},
					"t_mapping(t_uint256,t_address)": {
						"encoding": "mapping",
						"key": "t_uint256",
						"label": "mapping(uint256 => address)",
						"numberOfBytes": "32",
						"value": "t_address"
					},
					"t_string_storage": {
						"encoding": "bytes",
						"label": "string",
						"numberOfBytes": "32"
					},
					"t_struct(Judge)327_storage": {
						"encoding": "inplace",
						"label": "struct JudgeReg.Judge",
						"members": [
							{
								"astId": 320,
								"contract": "JudgeReg.sol:JudgeReg",
								"label": "name",
								"offset": 0,
								"slot": "0",
								"type": "t_string_storage"
							},
							{
								"astId": 322,
								"contract": "JudgeReg.sol:JudgeReg",
								"label": "rank",
								"offset": 0,
								"slot": "1",
								"type": "t_uint16"
							},
							{
								"astId": 324,
								"contract": "JudgeReg.sol:JudgeReg",
								"label": "rightDecision",
								"offset": 2,
								"slot": "1",
								"type": "t_uint32"
							},
							{
								"astId": 326,
								"contract": "JudgeReg.sol:JudgeReg",
								"label": "wrongDecision",
								"offset": 6,
								"slot": "1",
								"type": "t_uint16"
							}
						],
						"numberOfBytes": "64"
					},
					"t_uint16": {
						"encoding": "inplace",
						"label": "uint16",
						"numberOfBytes": "2"
					},
					"t_uint256": {
						"encoding": "inplace",
						"label": "uint256",
						"numberOfBytes": "32"
					},
					"t_uint32": {
						"encoding": "inplace",
						"label": "uint32",
						"numberOfBytes": "4"
					}
				}
			},
			"userdoc": {
				"kind": "user",
				"methods": {},
				"version": 1
			}
		}
	}
}