{
	"data": {
		"bytecode": {
			"linkReferences": {},
			"object": "608060405234801561000f575f5ffd5b50335f73ffffffffffffffffffffffffffffffffffffffff168173ffffffffffffffffffffffffffffffffffffffff1603610081575f6040517f1e4fbdf700000000000000000000000000000000000000000000000000000000815260040161007891906102e0565b60405180910390fd5b610090816101e060201b60201c565b5060046040518060c0016040528060405180602001604052805f81525081526020015f63ffffffff1681526020015f63ffffffff1681526020015f63ffffffff1681526020015f61ffff1681526020015f60ff16815250908060018154018082558091505060019003905f5260205f2090600202015f909190919091505f820151815f0190816101209190610536565b506020820151816001015f6101000a81548163ffffffff021916908363ffffffff16021790555060408201518160010160046101000a81548163ffffffff021916908363ffffffff16021790555060608201518160010160086101000a81548163ffffffff021916908363ffffffff160217905550608082015181600101600c6101000a81548161ffff021916908361ffff16021790555060a082015181600101600e6101000a81548160ff021916908360ff1602179055505050610605565b5f5f5f9054906101000a900473ffffffffffffffffffffffffffffffffffffffff169050815f5f6101000a81548173ffffffffffffffffffffffffffffffffffffffff021916908373ffffffffffffffffffffffffffffffffffffffff1602179055508173ffffffffffffffffffffffffffffffffffffffff168173ffffffffffffffffffffffffffffffffffffffff167f8be0079c531659141344cd1fd0a4f28419497f9722a3daafe3b4186f6b6457e060405160405180910390a35050565b5f73ffffffffffffffffffffffffffffffffffffffff82169050919050565b5f6102ca826102a1565b9050919050565b6102da816102c0565b82525050565b5f6020820190506102f35f8301846102d1565b92915050565b5f81519050919050565b7f4e487b71000000000000000000000000000000000000000000000000000000005f52604160045260245ffd5b7f4e487b71000000000000000000000000000000000000000000000000000000005f52602260045260245ffd5b5f600282049050600182168061037457607f821691505b60208210810361038757610386610330565b5b50919050565b5f819050815f5260205f209050919050565b5f6020601f8301049050919050565b5f82821b905092915050565b5f600883026103e97fffffffffffffffffffffffffffffffffffffffffffffffffffffffffffffffff826103ae565b6103f386836103ae565b95508019841693508086168417925050509392505050565b5f819050919050565b5f819050919050565b5f61043761043261042d8461040b565b610414565b61040b565b9050919050565b5f819050919050565b6104508361041d565b61046461045c8261043e565b8484546103ba565b825550505050565b5f5f905090565b61047b61046c565b610486818484610447565b505050565b5b818110156104a95761049e5f82610473565b60018101905061048c565b5050565b601f8211156104ee576104bf8161038d565b6104c88461039f565b810160208510156104d7578190505b6104eb6104e38561039f565b83018261048b565b50505b505050565b5f82821c905092915050565b5f61050e5f19846008026104f3565b1980831691505092915050565b5f61052683836104ff565b9150826002028217905092915050565b61053f826102f9565b67ffffffffffffffff81111561055857610557610303565b5b610562825461035d565b61056d8282856104ad565b5f60209050601f83116001811461059e575f841561058c578287015190505b610596858261051b565b8655506105fd565b601f1984166105ac8661038d565b5f5b828110156105d3578489015182556001820191506020850194506020810190506105ae565b868310156105f057848901516105ec601f8916826104ff565b8355505b6001600288020188555050505b505050505050565b6113b3806106125f395ff3fe608060405234801561000f575f5ffd5b506004361061009c575f3560e01c80638da5cb5b116100645780638da5cb5b1461015b5780639f8e176614610179578063a28da4a614610195578063b06b0368146101ca578063f2fde38b146101fd5761009c565b80630d292732146100a05780632e6b221d146100d05780633824fbec146101055780635f6fdddf14610135578063715018a614610151575b5f5ffd5b6100ba60048036038101906100b59190610b31565b610219565b6040516100c79190610b9b565b60405180910390f35b6100ea60048036038101906100e59190610b31565b610249565b6040516100fc96959493929190610c79565b60405180910390f35b61011f600480360381019061011a9190610b31565b610360565b60405161012c9190610b9b565b60405180910390f35b61014f600480360381019061014a9190610e0b565b610390565b005b61015961050a565b005b61016361051d565b6040516101709190610b9b565b60405180910390f35b610193600480360381019061018e9190610ed0565b610544565b005b6101af60048036038101906101aa9190610b31565b610726565b6040516101c196959493929190610c79565b60405180910390f35b6101e460048036038101906101df9190610b31565b61082e565b6040516101f49493929190610f75565b60405180910390f35b61021760048036038101906102129190610fe9565b61091a565b005b6002602052805f5260405f205f915054906101000a900473ffffffffffffffffffffffffffffffffffffffff1681565b60048181548110610258575f80fd5b905f5260205f2090600202015f91509050805f01805461027790611041565b80601f01602080910402602001604051908101604052809291908181526020018280546102a390611041565b80156102ee5780601f106102c5576101008083540402835291602001916102ee565b820191905f5260205f20905b8154815290600101906020018083116102d157829003601f168201915b505050505090806001015f9054906101000a900463ffffffff16908060010160049054906101000a900463ffffffff16908060010160089054906101000a900463ffffffff169080600101600c9054906101000a900461ffff169080600101600e9054906101000a900460ff16905086565b6005602052805f5260405f205f915054906101000a900473ffffffffffffffffffffffffffffffffffffffff1681565b60016040518060800160405280838152602001600161ffff1681526020015f63ffffffff1681526020015f61ffff16815250908060018154018082558091505060019003905f5260205f2090600202015f909190919091505f820151815f0190816103fb9190611211565b506020820151816001015f6101000a81548161ffff021916908361ffff16021790555060408201518160010160026101000a81548163ffffffff021916908363ffffffff16021790555060608201518160010160066101000a81548161ffff021916908361ffff16021790555050505f6001808054905061047c919061130d565b90503360025f8381526020019081526020015f205f6101000a81548173ffffffffffffffffffffffffffffffffffffffff021916908373ffffffffffffffffffffffffffffffffffffffff1602179055507f41b82268d4cfcb7bde62bae060583c745a4821f267e1fe541b5f624e00d43c7d81836040516104fe92919061134f565b60405180910390a15050565b61051261099e565b61051b5f610a25565b565b5f5f5f9054906101000a900473ffffffffffffffffffffffffffffffffffffffff16905090565b60046040518060c001604052808881526020018763ffffffff1681526020018663ffffffff1681526020018563ffffffff1681526020018461ffff1681526020018360ff16815250908060018154018082558091505060019003905f5260205f2090600202015f909190919091505f820151815f0190816105c59190611211565b506020820151816001015f6101000a81548163ffffffff021916908363ffffffff16021790555060408201518160010160046101000a81548163ffffffff021916908363ffffffff16021790555060608201518160010160086101000a81548163ffffffff021916908363ffffffff160217905550608082015181600101600c6101000a81548161ffff021916908361ffff16021790555060a082015181600101600e6101000a81548160ff021916908360ff16021790555050505f6001600480549050610693919061130d565b90503360055f8381526020019081526020015f205f6101000a81548173ffffffffffffffffffffffffffffffffffffffff021916908373ffffffffffffffffffffffffffffffffffffffff1602179055507fcf0b1657bf9a3add4678d1909d3fdcdb613a214497eb0d3c6b946dee91975838818860405161071592919061134f565b60405180910390a150505050505050565b6006602052805f5260405f205f91509050805f01805461074590611041565b80601f016020809104026020016040519081016040528092919081815260200182805461077190611041565b80156107bc5780601f10610793576101008083540402835291602001916107bc565b820191905f5260205f20905b81548152906001019060200180831161079f57829003601f168201915b505050505090806001015f9054906101000a900463ffffffff16908060010160049054906101000a900463ffffffff16908060010160089054906101000a900463ffffffff169080600101600c9054906101000a900461ffff169080600101600e9054906101000a900460ff16905086565b6001818154811061083d575f80fd5b905f5260205f2090600202015f91509050805f01805461085c90611041565b80601f016020809104026020016040519081016040528092919081815260200182805461088890611041565b80156108d35780601f106108aa576101008083540402835291602001916108d3565b820191905f5260205f20905b8154815290600101906020018083116108b657829003601f168201915b505050505090806001015f9054906101000a900461ffff16908060010160029054906101000a900463ffffffff16908060010160069054906101000a900461ffff16905084565b61092261099e565b5f73ffffffffffffffffffffffffffffffffffffffff168173ffffffffffffffffffffffffffffffffffffffff1603610992575f6040517f1e4fbdf70000000000000000000000000000000000000000000000000000000081526004016109899190610b9b565b60405180910390fd5b61099b81610a25565b50565b6109a6610ae6565b73ffffffffffffffffffffffffffffffffffffffff166109c461051d565b73ffffffffffffffffffffffffffffffffffffffff1614610a23576109e7610ae6565b6040517f118cdaa7000000000000000000000000000000000000000000000000000000008152600401610a1a9190610b9b565b60405180910390fd5b565b5f5f5f9054906101000a900473ffffffffffffffffffffffffffffffffffffffff169050815f5f6101000a81548173ffffffffffffffffffffffffffffffffffffffff021916908373ffffffffffffffffffffffffffffffffffffffff1602179055508173ffffffffffffffffffffffffffffffffffffffff168173ffffffffffffffffffffffffffffffffffffffff167f8be0079c531659141344cd1fd0a4f28419497f9722a3daafe3b4186f6b6457e060405160405180910390a35050565b5f33905090565b5f604051905090565b5f5ffd5b5f5ffd5b5f819050919050565b610b1081610afe565b8114610b1a575f5ffd5b50565b5f81359050610b2b81610b07565b92915050565b5f60208284031215610b4657610b45610af6565b5b5f610b5384828501610b1d565b91505092915050565b5f73ffffffffffffffffffffffffffffffffffffffff82169050919050565b5f610b8582610b5c565b9050919050565b610b9581610b7b565b82525050565b5f602082019050610bae5f830184610b8c565b92915050565b5f81519050919050565b5f82825260208201905092915050565b8281835e5f83830152505050565b5f601f19601f8301169050919050565b5f610bf682610bb4565b610c008185610bbe565b9350610c10818560208601610bce565b610c1981610bdc565b840191505092915050565b5f63ffffffff82169050919050565b610c3c81610c24565b82525050565b5f61ffff82169050919050565b610c5881610c42565b82525050565b5f60ff82169050919050565b610c7381610c5e565b82525050565b5f60c0820190508181035f830152610c918189610bec565b9050610ca06020830188610c33565b610cad6040830187610c33565b610cba6060830186610c33565b610cc76080830185610c4f565b610cd460a0830184610c6a565b979650505050505050565b5f5ffd5b5f5ffd5b7f4e487b71000000000000000000000000000000000000000000000000000000005f52604160045260245ffd5b610d1d82610bdc565b810181811067ffffffffffffffff82111715610d3c57610d3b610ce7565b5b80604052505050565b5f610d4e610aed565b9050610d5a8282610d14565b919050565b5f67ffffffffffffffff821115610d7957610d78610ce7565b5b610d8282610bdc565b9050602081019050919050565b828183375f83830152505050565b5f610daf610daa84610d5f565b610d45565b905082815260208101848484011115610dcb57610dca610ce3565b5b610dd6848285610d8f565b509392505050565b5f82601f830112610df257610df1610cdf565b5b8135610e02848260208601610d9d565b91505092915050565b5f60208284031215610e2057610e1f610af6565b5b5f82013567ffffffffffffffff811115610e3d57610e3c610afa565b5b610e4984828501610dde565b91505092915050565b610e5b81610c24565b8114610e65575f5ffd5b50565b5f81359050610e7681610e52565b92915050565b610e8581610c42565b8114610e8f575f5ffd5b50565b5f81359050610ea081610e7c565b92915050565b610eaf81610c5e565b8114610eb9575f5ffd5b50565b5f81359050610eca81610ea6565b92915050565b5f5f5f5f5f5f60c08789031215610eea57610ee9610af6565b5b5f87013567ffffffffffffffff811115610f0757610f06610afa565b5b610f1389828a01610dde565b9650506020610f2489828a01610e68565b9550506040610f3589828a01610e68565b9450506060610f4689828a01610e68565b9350506080610f5789828a01610e92565b92505060a0610f6889828a01610ebc565b9150509295509295509295565b5f6080820190508181035f830152610f8d8187610bec565b9050610f9c6020830186610c4f565b610fa96040830185610c33565b610fb66060830184610c4f565b95945050505050565b610fc881610b7b565b8114610fd2575f5ffd5b50565b5f81359050610fe381610fbf565b92915050565b5f60208284031215610ffe57610ffd610af6565b5b5f61100b84828501610fd5565b91505092915050565b7f4e487b71000000000000000000000000000000000000000000000000000000005f52602260045260245ffd5b5f600282049050600182168061105857607f821691505b60208210810361106b5761106a611014565b5b50919050565b5f819050815f5260205f209050919050565b5f6020601f8301049050919050565b5f82821b905092915050565b5f600883026110cd7fffffffffffffffffffffffffffffffffffffffffffffffffffffffffffffffff82611092565b6110d78683611092565b95508019841693508086168417925050509392505050565b5f819050919050565b5f61111261110d61110884610afe565b6110ef565b610afe565b9050919050565b5f819050919050565b61112b836110f8565b61113f61113782611119565b84845461109e565b825550505050565b5f5f905090565b611156611147565b611161818484611122565b505050565b5b81811015611184576111795f8261114e565b600181019050611167565b5050565b601f8211156111c95761119a81611071565b6111a384611083565b810160208510156111b2578190505b6111c66111be85611083565b830182611166565b50505b505050565b5f82821c905092915050565b5f6111e95f19846008026111ce565b1980831691505092915050565b5f61120183836111da565b9150826002028217905092915050565b61121a82610bb4565b67ffffffffffffffff81111561123357611232610ce7565b5b61123d8254611041565b611248828285611188565b5f60209050601f831160018114611279575f8415611267578287015190505b61127185826111f6565b8655506112d8565b601f19841661128786611071565b5f5b828110156112ae57848901518255600182019150602085019450602081019050611289565b868310156112cb57848901516112c7601f8916826111da565b8355505b6001600288020188555050505b505050505050565b7f4e487b71000000000000000000000000000000000000000000000000000000005f52601160045260245ffd5b5f61131782610afe565b915061132283610afe565b925082820390508181111561133a576113396112e0565b5b92915050565b61134981610afe565b82525050565b5f6040820190506113625f830185611340565b81810360208301526113748184610bec565b9050939250505056fea264697066735822122028c5b84c5274fed9c349bf035517f17f4df1f30fcca8b76af56cf18a88e1217b64736f6c634300081e0033",
			"opcodes": "PUSH1 0x80 PUSH1 0x40 MSTORE CALLVALUE DUP1 ISZERO PUSH2 0xF JUMPI PUSH0 PUSH0 REVERT JUMPDEST POP CALLER PUSH0 PUSH20 0xFFFFFFFFFFFFFFFFFFFFFFFFFFFFFFFFFFFFFFFF AND DUP2 PUSH20 0xFFFFFFFFFFFFFFFFFFFFFFFFFFFFFFFFFFFFFFFF AND SUB PUSH2 0x81 JUMPI PUSH0 PUSH1 0x40 MLOAD PUSH32 0x1E4FBDF700000000000000000000000000000000000000000000000000000000 DUP2 MSTORE PUSH1 0x4 ADD PUSH2 0x78 SWAP2 SWAP1 PUSH2 0x2E0 JUMP JUMPDEST PUSH1 0x40 MLOAD DUP1 SWAP2 SUB SWAP1 REVERT JUMPDEST PUSH2 0x90 DUP2 PUSH2 0x1E0 PUSH1 0x20 SHL PUSH1 0x20 SHR JUMP JUMPDEST POP PUSH1 0x4 PUSH1 0x40 MLOAD DUP1 PUSH1 0xC0 ADD PUSH1 0x40 MSTORE DUP1 PUSH1 0x40 MLOAD DUP1 PUSH1 0x20 ADD PUSH1 0x40 MSTORE DUP1 PUSH0 DUP2 MSTORE POP DUP2 MSTORE PUSH1 0x20 ADD PUSH0 PUSH4 0xFFFFFFFF AND DUP2 MSTORE PUSH1 0x20 ADD PUSH0 PUSH4 0xFFFFFFFF AND DUP2 MSTORE PUSH1 0x20 ADD PUSH0 PUSH4 0xFFFFFFFF AND DUP2 MSTORE PUSH1 0x20 ADD PUSH0 PUSH2 0xFFFF AND DUP2 MSTORE PUSH1 0x20 ADD PUSH0 PUSH1 0xFF AND DUP2 MSTORE POP SWAP1 DUP1 PUSH1 0x1 DUP2 SLOAD ADD DUP1 DUP3 SSTORE DUP1 SWAP2 POP POP PUSH1 0x1 SWAP1 SUB SWAP1 PUSH0 MSTORE PUSH1 0x20 PUSH0 KECCAK256 SWAP1 PUSH1 0x2 MUL ADD PUSH0 SWAP1 SWAP2 SWAP1 SWAP2 SWAP1 SWAP2 POP PUSH0 DUP3 ADD MLOAD DUP2 PUSH0 ADD SWAP1 DUP2 PUSH2 0x120 SWAP2 SWAP1 PUSH2 0x536 JUMP JUMPDEST POP PUSH1 0x20 DUP3 ADD MLOAD DUP2 PUSH1 0x1 ADD PUSH0 PUSH2 0x100 EXP DUP2 SLOAD DUP2 PUSH4 0xFFFFFFFF MUL NOT AND SWAP1 DUP4 PUSH4 0xFFFFFFFF AND MUL OR SWAP1 SSTORE POP PUSH1 0x40 DUP3 ADD MLOAD DUP2 PUSH1 0x1 ADD PUSH1 0x4 PUSH2 0x100 EXP DUP2 SLOAD DUP2 PUSH4 0xFFFFFFFF MUL NOT AND SWAP1 DUP4 PUSH4 0xFFFFFFFF AND MUL OR SWAP1 SSTORE POP PUSH1 0x60 DUP3 ADD MLOAD DUP2 PUSH1 0x1 ADD PUSH1 0x8 PUSH2 0x100 EXP DUP2 SLOAD DUP2 PUSH4 0xFFFFFFFF MUL NOT AND SWAP1 DUP4 PUSH4 0xFFFFFFFF AND MUL OR SWAP1 SSTORE POP PUSH1 0x80 DUP3 ADD MLOAD DUP2 PUSH1 0x1 ADD PUSH1 0xC PUSH2 0x100 EXP DUP2 SLOAD DUP2 PUSH2 0xFFFF MUL NOT AND SWAP1 DUP4 PUSH2 0xFFFF AND MUL OR SWAP1 SSTORE POP PUSH1 0xA0 DUP3 ADD MLOAD DUP2 PUSH1 0x1 ADD PUSH1 0xE PUSH2 0x100 EXP DUP2 SLOAD DUP2 PUSH1 0xFF MUL NOT AND SWAP1 DUP4 PUSH1 0xFF AND MUL OR SWAP1 SSTORE POP POP POP PUSH2 0x605 JUMP JUMPDEST PUSH0 PUSH0 PUSH0 SWAP1 SLOAD SWAP1 PUSH2 0x100 EXP SWAP1 DIV PUSH20 0xFFFFFFFFFFFFFFFFFFFFFFFFFFFFFFFFFFFFFFFF AND SWAP1 POP DUP2 PUSH0 PUSH0 PUSH2 0x100 EXP DUP2 SLOAD DUP2 PUSH20 0xFFFFFFFFFFFFFFFFFFFFFFFFFFFFFFFFFFFFFFFF MUL NOT AND SWAP1 DUP4 PUSH20 0xFFFFFFFFFFFFFFFFFFFFFFFFFFFFFFFFFFFFFFFF AND MUL OR SWAP1 SSTORE POP DUP2 PUSH20 0xFFFFFFFFFFFFFFFFFFFFFFFFFFFFFFFFFFFFFFFF AND DUP2 PUSH20 0xFFFFFFFFFFFFFFFFFFFFFFFFFFFFFFFFFFFFFFFF AND PUSH32 0x8BE0079C531659141344CD1FD0A4F28419497F9722A3DAAFE3B4186F6B6457E0 PUSH1 0x40 MLOAD PUSH1 0x40 MLOAD DUP1 SWAP2 SUB SWAP1 LOG3 POP POP JUMP JUMPDEST PUSH0 PUSH20 0xFFFFFFFFFFFFFFFFFFFFFFFFFFFFFFFFFFFFFFFF DUP3 AND SWAP1 POP SWAP2 SWAP1 POP JUMP JUMPDEST PUSH0 PUSH2 0x2CA DUP3 PUSH2 0x2A1 JUMP JUMPDEST SWAP1 POP SWAP2 SWAP1 POP JUMP JUMPDEST PUSH2 0x2DA DUP2 PUSH2 0x2C0 JUMP JUMPDEST DUP3 MSTORE POP POP JUMP JUMPDEST PUSH0 PUSH1 0x20 DUP3 ADD SWAP1 POP PUSH2 0x2F3 PUSH0 DUP4 ADD DUP5 PUSH2 0x2D1 JUMP JUMPDEST SWAP3 SWAP2 POP POP JUMP JUMPDEST PUSH0 DUP2 MLOAD SWAP1 POP SWAP2 SWAP1 POP JUMP JUMPDEST PUSH32 0x4E487B7100000000000000000000000000000000000000000000000000000000 PUSH0 MSTORE PUSH1 0x41 PUSH1 0x4 MSTORE PUSH1 0x24 PUSH0 REVERT JUMPDEST PUSH32 0x4E487B7100000000000000000000000000000000000000000000000000000000 PUSH0 MSTORE PUSH1 0x22 PUSH1 0x4 MSTORE PUSH1 0x24 PUSH0 REVERT JUMPDEST PUSH0 PUSH1 0x2 DUP3 DIV SWAP1 POP PUSH1 0x1 DUP3 AND DUP1 PUSH2 0x374 JUMPI PUSH1 0x7F DUP3 AND SWAP2 POP JUMPDEST PUSH1 0x20 DUP3 LT DUP2 SUB PUSH2 0x387 JUMPI PUSH2 0x386 PUSH2 0x330 JUMP JUMPDEST JUMPDEST POP SWAP2 SWAP1 POP JUMP JUMPDEST PUSH0 DUP2 SWAP1 POP DUP2 PUSH0 MSTORE PUSH1 0x20 PUSH0 KECCAK256 SWAP1 POP SWAP2 SWAP1 POP JUMP JUMPDEST PUSH0 PUSH1 0x20 PUSH1 0x1F DUP4 ADD DIV SWAP1 POP SWAP2 SWAP1 POP JUMP JUMPDEST PUSH0 DUP3 DUP3 SHL SWAP1 POP SWAP3 SWAP2 POP POP JUMP JUMPDEST PUSH0 PUSH1 0x8 DUP4 MUL PUSH2 0x3E9 PUSH32 0xFFFFFFFFFFFFFFFFFFFFFFFFFFFFFFFFFFFFFFFFFFFFFFFFFFFFFFFFFFFFFFFF DUP3 PUSH2 0x3AE JUMP JUMPDEST PUSH2 0x3F3 DUP7 DUP4 PUSH2 0x3AE JUMP JUMPDEST SWAP6 POP DUP1 NOT DUP5 AND SWAP4 POP DUP1 DUP7 AND DUP5 OR SWAP3 POP POP POP SWAP4 SWAP3 POP POP POP JUMP JUMPDEST PUSH0 DUP2 SWAP1 POP SWAP2 SWAP1 POP JUMP JUMPDEST PUSH0 DUP2 SWAP1 POP SWAP2 SWAP1 POP JUMP JUMPDEST PUSH0 PUSH2 0x437 PUSH2 0x432 PUSH2 0x42D DUP5 PUSH2 0x40B JUMP JUMPDEST PUSH2 0x414 JUMP JUMPDEST PUSH2 0x40B JUMP JUMPDEST SWAP1 POP SWAP2 SWAP1 POP JUMP JUMPDEST PUSH0 DUP2 SWAP1 POP SWAP2 SWAP1 POP JUMP JUMPDEST PUSH2 0x450 DUP4 PUSH2 0x41D JUMP JUMPDEST PUSH2 0x464 PUSH2 0x45C DUP3 PUSH2 0x43E JUMP JUMPDEST DUP5 DUP5 SLOAD PUSH2 0x3BA JUMP JUMPDEST DUP3 SSTORE POP POP POP POP JUMP JUMPDEST PUSH0 PUSH0 SWAP1 POP SWAP1 JUMP JUMPDEST PUSH2 0x47B PUSH2 0x46C JUMP JUMPDEST PUSH2 0x486 DUP2 DUP5 DUP5 PUSH2 0x447 JUMP JUMPDEST POP POP POP JUMP JUMPDEST JUMPDEST DUP2 DUP2 LT ISZERO PUSH2 0x4A9 JUMPI PUSH2 0x49E PUSH0 DUP3 PUSH2 0x473 JUMP JUMPDEST PUSH1 0x1 DUP2 ADD SWAP1 POP PUSH2 0x48C JUMP JUMPDEST POP POP JUMP JUMPDEST PUSH1 0x1F DUP3 GT ISZERO PUSH2 0x4EE JUMPI PUSH2 0x4BF DUP2 PUSH2 0x38D JUMP JUMPDEST PUSH2 0x4C8 DUP5 PUSH2 0x39F JUMP JUMPDEST DUP2 ADD PUSH1 0x20 DUP6 LT ISZERO PUSH2 0x4D7 JUMPI DUP2 SWAP1 POP JUMPDEST PUSH2 0x4EB PUSH2 0x4E3 DUP6 PUSH2 0x39F JUMP JUMPDEST DUP4 ADD DUP3 PUSH2 0x48B JUMP JUMPDEST POP POP JUMPDEST POP POP POP JUMP JUMPDEST PUSH0 DUP3 DUP3 SHR SWAP1 POP SWAP3 SWAP2 POP POP JUMP JUMPDEST PUSH0 PUSH2 0x50E PUSH0 NOT DUP5 PUSH1 0x8 MUL PUSH2 0x4F3 JUMP JUMPDEST NOT DUP1 DUP4 AND SWAP2 POP POP SWAP3 SWAP2 POP POP JUMP JUMPDEST PUSH0 PUSH2 0x526 DUP4 DUP4 PUSH2 0x4FF JUMP JUMPDEST SWAP2 POP DUP3 PUSH1 0x2 MUL DUP3 OR SWAP1 POP SWAP3 SWAP2 POP POP JUMP JUMPDEST PUSH2 0x53F DUP3 PUSH2 0x2F9 JUMP JUMPDEST PUSH8 0xFFFFFFFFFFFFFFFF DUP2 GT ISZERO PUSH2 0x558 JUMPI PUSH2 0x557 PUSH2 0x303 JUMP JUMPDEST JUMPDEST PUSH2 0x562 DUP3 SLOAD PUSH2 0x35D JUMP JUMPDEST PUSH2 0x56D DUP3 DUP3 DUP6 PUSH2 0x4AD JUMP JUMPDEST PUSH0 PUSH1 0x20 SWAP1 POP PUSH1 0x1F DUP4 GT PUSH1 0x1 DUP2 EQ PUSH2 0x59E JUMPI PUSH0 DUP5 ISZERO PUSH2 0x58C JUMPI DUP3 DUP8 ADD MLOAD SWAP1 POP JUMPDEST PUSH2 0x596 DUP6 DUP3 PUSH2 0x51B JUMP JUMPDEST DUP7 SSTORE POP PUSH2 0x5FD JUMP JUMPDEST PUSH1 0x1F NOT DUP5 AND PUSH2 0x5AC DUP7 PUSH2 0x38D JUMP JUMPDEST PUSH0 JUMPDEST DUP3 DUP2 LT ISZERO PUSH2 0x5D3 JUMPI DUP5 DUP10 ADD MLOAD DUP3 SSTORE PUSH1 0x1 DUP3 ADD SWAP2 POP PUSH1 0x20 DUP6 ADD SWAP5 POP PUSH1 0x20 DUP2 ADD SWAP1 POP PUSH2 0x5AE JUMP JUMPDEST DUP7 DUP4 LT ISZERO PUSH2 0x5F0 JUMPI DUP5 DUP10 ADD MLOAD PUSH2 0x5EC PUSH1 0x1F DUP10 AND DUP3 PUSH2 0x4FF JUMP JUMPDEST DUP4 SSTORE POP JUMPDEST PUSH1 0x1 PUSH1 0x2 DUP9 MUL ADD DUP9 SSTORE POP POP POP JUMPDEST POP POP POP POP POP POP JUMP JUMPDEST PUSH2 0x13B3 DUP1 PUSH2 0x612 PUSH0 CODECOPY PUSH0 RETURN INVALID PUSH1 0x80 PUSH1 0x40 MSTORE CALLVALUE DUP1 ISZERO PUSH2 0xF JUMPI PUSH0 PUSH0 REVERT JUMPDEST POP PUSH1 0x4 CALLDATASIZE LT PUSH2 0x9C JUMPI PUSH0 CALLDATALOAD PUSH1 0xE0 SHR DUP1 PUSH4 0x8DA5CB5B GT PUSH2 0x64 JUMPI DUP1 PUSH4 0x8DA5CB5B EQ PUSH2 0x15B JUMPI DUP1 PUSH4 0x9F8E1766 EQ PUSH2 0x179 JUMPI DUP1 PUSH4 0xA28DA4A6 EQ PUSH2 0x195 JUMPI DUP1 PUSH4 0xB06B0368 EQ PUSH2 0x1CA JUMPI DUP1 PUSH4 0xF2FDE38B EQ PUSH2 0x1FD JUMPI PUSH2 0x9C JUMP JUMPDEST DUP1 PUSH4 0xD292732 EQ PUSH2 0xA0 JUMPI DUP1 PUSH4 0x2E6B221D EQ PUSH2 0xD0 JUMPI DUP1 PUSH4 0x3824FBEC EQ PUSH2 0x105 JUMPI DUP1 PUSH4 0x5F6FDDDF EQ PUSH2 0x135 JUMPI DUP1 PUSH4 0x715018A6 EQ PUSH2 0x151 JUMPI JUMPDEST PUSH0 PUSH0 REVERT JUMPDEST PUSH2 0xBA PUSH1 0x4 DUP1 CALLDATASIZE SUB DUP2 ADD SWAP1 PUSH2 0xB5 SWAP2 SWAP1 PUSH2 0xB31 JUMP JUMPDEST PUSH2 0x219 JUMP JUMPDEST PUSH1 0x40 MLOAD PUSH2 0xC7 SWAP2 SWAP1 PUSH2 0xB9B JUMP JUMPDEST PUSH1 0x40 MLOAD DUP1 SWAP2 SUB SWAP1 RETURN JUMPDEST PUSH2 0xEA PUSH1 0x4 DUP1 CALLDATASIZE SUB DUP2 ADD SWAP1 PUSH2 0xE5 SWAP2 SWAP1 PUSH2 0xB31 JUMP JUMPDEST PUSH2 0x249 JUMP JUMPDEST PUSH1 0x40 MLOAD PUSH2 0xFC SWAP7 SWAP6 SWAP5 SWAP4 SWAP3 SWAP2 SWAP1 PUSH2 0xC79 JUMP JUMPDEST PUSH1 0x40 MLOAD DUP1 SWAP2 SUB SWAP1 RETURN JUMPDEST PUSH2 0x11F PUSH1 0x4 DUP1 CALLDATASIZE SUB DUP2 ADD SWAP1 PUSH2 0x11A SWAP2 SWAP1 PUSH2 0xB31 JUMP JUMPDEST PUSH2 0x360 JUMP JUMPDEST PUSH1 0x40 MLOAD PUSH2 0x12C SWAP2 SWAP1 PUSH2 0xB9B JUMP JUMPDEST PUSH1 0x40 MLOAD DUP1 SWAP2 SUB SWAP1 RETURN JUMPDEST PUSH2 0x14F PUSH1 0x4 DUP1 CALLDATASIZE SUB DUP2 ADD SWAP1 PUSH2 0x14A SWAP2 SWAP1 PUSH2 0xE0B JUMP JUMPDEST PUSH2 0x390 JUMP JUMPDEST STOP JUMPDEST PUSH2 0x159 PUSH2 0x50A JUMP JUMPDEST STOP JUMPDEST PUSH2 0x163 PUSH2 0x51D JUMP JUMPDEST PUSH1 0x40 MLOAD PUSH2 0x170 SWAP2 SWAP1 PUSH2 0xB9B JUMP JUMPDEST PUSH1 0x40 MLOAD DUP1 SWAP2 SUB SWAP1 RETURN JUMPDEST PUSH2 0x193 PUSH1 0x4 DUP1 CALLDATASIZE SUB DUP2 ADD SWAP1 PUSH2 0x18E SWAP2 SWAP1 PUSH2 0xED0 JUMP JUMPDEST PUSH2 0x544 JUMP JUMPDEST STOP JUMPDEST PUSH2 0x1AF PUSH1 0x4 DUP1 CALLDATASIZE SUB DUP2 ADD SWAP1 PUSH2 0x1AA SWAP2 SWAP1 PUSH2 0xB31 JUMP JUMPDEST PUSH2 0x726 JUMP JUMPDEST PUSH1 0x40 MLOAD PUSH2 0x1C1 SWAP7 SWAP6 SWAP5 SWAP4 SWAP3 SWAP2 SWAP1 PUSH2 0xC79 JUMP JUMPDEST PUSH1 0x40 MLOAD DUP1 SWAP2 SUB SWAP1 RETURN JUMPDEST PUSH2 0x1E4 PUSH1 0x4 DUP1 CALLDATASIZE SUB DUP2 ADD SWAP1 PUSH2 0x1DF SWAP2 SWAP1 PUSH2 0xB31 JUMP JUMPDEST PUSH2 0x82E JUMP JUMPDEST PUSH1 0x40 MLOAD PUSH2 0x1F4 SWAP5 SWAP4 SWAP3 SWAP2 SWAP1 PUSH2 0xF75 JUMP JUMPDEST PUSH1 0x40 MLOAD DUP1 SWAP2 SUB SWAP1 RETURN JUMPDEST PUSH2 0x217 PUSH1 0x4 DUP1 CALLDATASIZE SUB DUP2 ADD SWAP1 PUSH2 0x212 SWAP2 SWAP1 PUSH2 0xFE9 JUMP JUMPDEST PUSH2 0x91A JUMP JUMPDEST STOP JUMPDEST PUSH1 0x2 PUSH1 0x20 MSTORE DUP1 PUSH0 MSTORE PUSH1 0x40 PUSH0 KECCAK256 PUSH0 SWAP2 POP SLOAD SWAP1 PUSH2 0x100 EXP SWAP1 DIV PUSH20 0xFFFFFFFFFFFFFFFFFFFFFFFFFFFFFFFFFFFFFFFF AND DUP2 JUMP JUMPDEST PUSH1 0x4 DUP2 DUP2 SLOAD DUP2 LT PUSH2 0x258 JUMPI PUSH0 DUP1 REVERT JUMPDEST SWAP1 PUSH0 MSTORE PUSH1 0x20 PUSH0 KECCAK256 SWAP1 PUSH1 0x2 MUL ADD PUSH0 SWAP2 POP SWAP1 POP DUP1 PUSH0 ADD DUP1 SLOAD PUSH2 0x277 SWAP1 PUSH2 0x1041 JUMP JUMPDEST DUP1 PUSH1 0x1F ADD PUSH1 0x20 DUP1 SWAP2 DIV MUL PUSH1 0x20 ADD PUSH1 0x40 MLOAD SWAP1 DUP2 ADD PUSH1 0x40 MSTORE DUP1 SWAP3 SWAP2 SWAP1 DUP2 DUP2 MSTORE PUSH1 0x20 ADD DUP3 DUP1 SLOAD PUSH2 0x2A3 SWAP1 PUSH2 0x1041 JUMP JUMPDEST DUP1 ISZERO PUSH2 0x2EE JUMPI DUP1 PUSH1 0x1F LT PUSH2 0x2C5 JUMPI PUSH2 0x100 DUP1 DUP4 SLOAD DIV MUL DUP4 MSTORE SWAP2 PUSH1 0x20 ADD SWAP2 PUSH2 0x2EE JUMP JUMPDEST DUP3 ADD SWAP2 SWAP1 PUSH0 MSTORE PUSH1 0x20 PUSH0 KECCAK256 SWAP1 JUMPDEST DUP2 SLOAD DUP2 MSTORE SWAP1 PUSH1 0x1 ADD SWAP1 PUSH1 0x20 ADD DUP1 DUP4 GT PUSH2 0x2D1 JUMPI DUP3 SWAP1 SUB PUSH1 0x1F AND DUP3 ADD SWAP2 JUMPDEST POP POP POP POP POP SWAP1 DUP1 PUSH1 0x1 ADD PUSH0 SWAP1 SLOAD SWAP1 PUSH2 0x100 EXP SWAP1 DIV PUSH4 0xFFFFFFFF AND SWAP1 DUP1 PUSH1 0x1 ADD PUSH1 0x4 SWAP1 SLOAD SWAP1 PUSH2 0x100 EXP SWAP1 DIV PUSH4 0xFFFFFFFF AND SWAP1 DUP1 PUSH1 0x1 ADD PUSH1 0x8 SWAP1 SLOAD SWAP1 PUSH2 0x100 EXP SWAP1 DIV PUSH4 0xFFFFFFFF AND SWAP1 DUP1 PUSH1 0x1 ADD PUSH1 0xC SWAP1 SLOAD SWAP1 PUSH2 0x100 EXP SWAP1 DIV PUSH2 0xFFFF AND SWAP1 DUP1 PUSH1 0x1 ADD PUSH1 0xE SWAP1 SLOAD SWAP1 PUSH2 0x100 EXP SWAP1 DIV PUSH1 0xFF AND SWAP1 POP DUP7 JUMP JUMPDEST PUSH1 0x5 PUSH1 0x20 MSTORE DUP1 PUSH0 MSTORE PUSH1 0x40 PUSH0 KECCAK256 PUSH0 SWAP2 POP SLOAD SWAP1 PUSH2 0x100 EXP SWAP1 DIV PUSH20 0xFFFFFFFFFFFFFFFFFFFFFFFFFFFFFFFFFFFFFFFF AND DUP2 JUMP JUMPDEST PUSH1 0x1 PUSH1 0x40 MLOAD DUP1 PUSH1 0x80 ADD PUSH1 0x40 MSTORE DUP1 DUP4 DUP2 MSTORE PUSH1 0x20 ADD PUSH1 0x1 PUSH2 0xFFFF AND DUP2 MSTORE PUSH1 0x20 ADD PUSH0 PUSH4 0xFFFFFFFF AND DUP2 MSTORE PUSH1 0x20 ADD PUSH0 PUSH2 0xFFFF AND DUP2 MSTORE POP SWAP1 DUP1 PUSH1 0x1 DUP2 SLOAD ADD DUP1 DUP3 SSTORE DUP1 SWAP2 POP POP PUSH1 0x1 SWAP1 SUB SWAP1 PUSH0 MSTORE PUSH1 0x20 PUSH0 KECCAK256 SWAP1 PUSH1 0x2 MUL ADD PUSH0 SWAP1 SWAP2 SWAP1 SWAP2 SWAP1 SWAP2 POP PUSH0 DUP3 ADD MLOAD DUP2 PUSH0 ADD SWAP1 DUP2 PUSH2 0x3FB SWAP2 SWAP1 PUSH2 0x1211 JUMP JUMPDEST POP PUSH1 0x20 DUP3 ADD MLOAD DUP2 PUSH1 0x1 ADD PUSH0 PUSH2 0x100 EXP DUP2 SLOAD DUP2 PUSH2 0xFFFF MUL NOT AND SWAP1 DUP4 PUSH2 0xFFFF AND MUL OR SWAP1 SSTORE POP PUSH1 0x40 DUP3 ADD MLOAD DUP2 PUSH1 0x1 ADD PUSH1 0x2 PUSH2 0x100 EXP DUP2 SLOAD DUP2 PUSH4 0xFFFFFFFF MUL NOT AND SWAP1 DUP4 PUSH4 0xFFFFFFFF AND MUL OR SWAP1 SSTORE POP PUSH1 0x60 DUP3 ADD MLOAD DUP2 PUSH1 0x1 ADD PUSH1 0x6 PUSH2 0x100 EXP DUP2 SLOAD DUP2 PUSH2 0xFFFF MUL NOT AND SWAP1 DUP4 PUSH2 0xFFFF AND MUL OR SWAP1 SSTORE POP POP POP PUSH0 PUSH1 0x1 DUP1 DUP1 SLOAD SWAP1 POP PUSH2 0x47C SWAP2 SWAP1 PUSH2 0x130D JUMP JUMPDEST SWAP1 POP CALLER PUSH1 0x2 PUSH0 DUP4 DUP2 MSTORE PUSH1 0x20 ADD SWAP1 DUP2 MSTORE PUSH1 0x20 ADD PUSH0 KECCAK256 PUSH0 PUSH2 0x100 EXP DUP2 SLOAD DUP2 PUSH20 0xFFFFFFFFFFFFFFFFFFFFFFFFFFFFFFFFFFFFFFFF MUL NOT AND SWAP1 DUP4 PUSH20 0xFFFFFFFFFFFFFFFFFFFFFFFFFFFFFFFFFFFFFFFF AND MUL OR SWAP1 SSTORE POP PUSH32 0x41B82268D4CFCB7BDE62BAE060583C745A4821F267E1FE541B5F624E00D43C7D DUP2 DUP4 PUSH1 0x40 MLOAD PUSH2 0x4FE SWAP3 SWAP2 SWAP1 PUSH2 0x134F JUMP JUMPDEST PUSH1 0x40 MLOAD DUP1 SWAP2 SUB SWAP1 LOG1 POP POP JUMP JUMPDEST PUSH2 0x512 PUSH2 0x99E JUMP JUMPDEST PUSH2 0x51B PUSH0 PUSH2 0xA25 JUMP JUMPDEST JUMP JUMPDEST PUSH0 PUSH0 PUSH0 SWAP1 SLOAD SWAP1 PUSH2 0x100 EXP SWAP1 DIV PUSH20 0xFFFFFFFFFFFFFFFFFFFFFFFFFFFFFFFFFFFFFFFF AND SWAP1 POP SWAP1 JUMP JUMPDEST PUSH1 0x4 PUSH1 0x40 MLOAD DUP1 PUSH1 0xC0 ADD PUSH1 0x40 MSTORE DUP1 DUP9 DUP2 MSTORE PUSH1 0x20 ADD DUP8 PUSH4 0xFFFFFFFF AND DUP2 MSTORE PUSH1 0x20 ADD DUP7 PUSH4 0xFFFFFFFF AND DUP2 MSTORE PUSH1 0x20 ADD DUP6 PUSH4 0xFFFFFFFF AND DUP2 MSTORE PUSH1 0x20 ADD DUP5 PUSH2 0xFFFF AND DUP2 MSTORE PUSH1 0x20 ADD DUP4 PUSH1 0xFF AND DUP2 MSTORE POP SWAP1 DUP1 PUSH1 0x1 DUP2 SLOAD ADD DUP1 DUP3 SSTORE DUP1 SWAP2 POP POP PUSH1 0x1 SWAP1 SUB SWAP1 PUSH0 MSTORE PUSH1 0x20 PUSH0 KECCAK256 SWAP1 PUSH1 0x2 MUL ADD PUSH0 SWAP1 SWAP2 SWAP1 SWAP2 SWAP1 SWAP2 POP PUSH0 DUP3 ADD MLOAD DUP2 PUSH0 ADD SWAP1 DUP2 PUSH2 0x5C5 SWAP2 SWAP1 PUSH2 0x1211 JUMP JUMPDEST POP PUSH1 0x20 DUP3 ADD MLOAD DUP2 PUSH1 0x1 ADD PUSH0 PUSH2 0x100 EXP DUP2 SLOAD DUP2 PUSH4 0xFFFFFFFF MUL NOT AND SWAP1 DUP4 PUSH4 0xFFFFFFFF AND MUL OR SWAP1 SSTORE POP PUSH1 0x40 DUP3 ADD MLOAD DUP2 PUSH1 0x1 ADD PUSH1 0x4 PUSH2 0x100 EXP DUP2 SLOAD DUP2 PUSH4 0xFFFFFFFF MUL NOT AND SWAP1 DUP4 PUSH4 0xFFFFFFFF AND MUL OR SWAP1 SSTORE POP PUSH1 0x60 DUP3 ADD MLOAD DUP2 PUSH1 0x1 ADD PUSH1 0x8 PUSH2 0x100 EXP DUP2 SLOAD DUP2 PUSH4 0xFFFFFFFF MUL NOT AND SWAP1 DUP4 PUSH4 0xFFFFFFFF AND MUL OR SWAP1 SSTORE POP PUSH1 0x80 DUP3 ADD MLOAD DUP2 PUSH1 0x1 ADD PUSH1 0xC PUSH2 0x100 EXP DUP2 SLOAD DUP2 PUSH2 0xFFFF MUL NOT AND SWAP1 DUP4 PUSH2 0xFFFF AND MUL OR SWAP1 SSTORE POP PUSH1 0xA0 DUP3 ADD MLOAD DUP2 PUSH1 0x1 ADD PUSH1 0xE PUSH2 0x100 EXP DUP2 SLOAD DUP2 PUSH1 0xFF MUL NOT AND SWAP1 DUP4 PUSH1 0xFF AND MUL OR SWAP1 SSTORE POP POP POP PUSH0 PUSH1 0x1 PUSH1 0x4 DUP1 SLOAD SWAP1 POP PUSH2 0x693 SWAP2 SWAP1 PUSH2 0x130D JUMP JUMPDEST SWAP1 POP CALLER PUSH1 0x5 PUSH0 DUP4 DUP2 MSTORE PUSH1 0x20 ADD SWAP1 DUP2 MSTORE PUSH1 0x20 ADD PUSH0 KECCAK256 PUSH0 PUSH2 0x100 EXP DUP2 SLOAD DUP2 PUSH20 0xFFFFFFFFFFFFFFFFFFFFFFFFFFFFFFFFFFFFFFFF MUL NOT AND SWAP1 DUP4 PUSH20 0xFFFFFFFFFFFFFFFFFFFFFFFFFFFFFFFFFFFFFFFF AND MUL OR SWAP1 SSTORE POP PUSH32 0xCF0B1657BF9A3ADD4678D1909D3FDCDB613A214497EB0D3C6B946DEE91975838 DUP2 DUP9 PUSH1 0x40 MLOAD PUSH2 0x715 SWAP3 SWAP2 SWAP1 PUSH2 0x134F JUMP JUMPDEST PUSH1 0x40 MLOAD DUP1 SWAP2 SUB SWAP1 LOG1 POP POP POP POP POP POP POP JUMP JUMPDEST PUSH1 0x6 PUSH1 0x20 MSTORE DUP1 PUSH0 MSTORE PUSH1 0x40 PUSH0 KECCAK256 PUSH0 SWAP2 POP SWAP1 POP DUP1 PUSH0 ADD DUP1 SLOAD PUSH2 0x745 SWAP1 PUSH2 0x1041 JUMP JUMPDEST DUP1 PUSH1 0x1F ADD PUSH1 0x20 DUP1 SWAP2 DIV MUL PUSH1 0x20 ADD PUSH1 0x40 MLOAD SWAP1 DUP2 ADD PUSH1 0x40 MSTORE DUP1 SWAP3 SWAP2 SWAP1 DUP2 DUP2 MSTORE PUSH1 0x20 ADD DUP3 DUP1 SLOAD PUSH2 0x771 SWAP1 PUSH2 0x1041 JUMP JUMPDEST DUP1 ISZERO PUSH2 0x7BC JUMPI DUP1 PUSH1 0x1F LT PUSH2 0x793 JUMPI PUSH2 0x100 DUP1 DUP4 SLOAD DIV MUL DUP4 MSTORE SWAP2 PUSH1 0x20 ADD SWAP2 PUSH2 0x7BC JUMP JUMPDEST DUP3 ADD SWAP2 SWAP1 PUSH0 MSTORE PUSH1 0x20 PUSH0 KECCAK256 SWAP1 JUMPDEST DUP2 SLOAD DUP2 MSTORE SWAP1 PUSH1 0x1 ADD SWAP1 PUSH1 0x20 ADD DUP1 DUP4 GT PUSH2 0x79F JUMPI DUP3 SWAP1 SUB PUSH1 0x1F AND DUP3 ADD SWAP2 JUMPDEST POP POP POP POP POP SWAP1 DUP1 PUSH1 0x1 ADD PUSH0 SWAP1 SLOAD SWAP1 PUSH2 0x100 EXP SWAP1 DIV PUSH4 0xFFFFFFFF AND SWAP1 DUP1 PUSH1 0x1 ADD PUSH1 0x4 SWAP1 SLOAD SWAP1 PUSH2 0x100 EXP SWAP1 DIV PUSH4 0xFFFFFFFF AND SWAP1 DUP1 PUSH1 0x1 ADD PUSH1 0x8 SWAP1 SLOAD SWAP1 PUSH2 0x100 EXP SWAP1 DIV PUSH4 0xFFFFFFFF AND SWAP1 DUP1 PUSH1 0x1 ADD PUSH1 0xC SWAP1 SLOAD SWAP1 PUSH2 0x100 EXP SWAP1 DIV PUSH2 0xFFFF AND SWAP1 DUP1 PUSH1 0x1 ADD PUSH1 0xE SWAP1 SLOAD SWAP1 PUSH2 0x100 EXP SWAP1 DIV PUSH1 0xFF AND SWAP1 POP DUP7 JUMP JUMPDEST PUSH1 0x1 DUP2 DUP2 SLOAD DUP2 LT PUSH2 0x83D JUMPI PUSH0 DUP1 REVERT JUMPDEST SWAP1 PUSH0 MSTORE PUSH1 0x20 PUSH0 KECCAK256 SWAP1 PUSH1 0x2 MUL ADD PUSH0 SWAP2 POP SWAP1 POP DUP1 PUSH0 ADD DUP1 SLOAD PUSH2 0x85C SWAP1 PUSH2 0x1041 JUMP JUMPDEST DUP1 PUSH1 0x1F ADD PUSH1 0x20 DUP1 SWAP2 DIV MUL PUSH1 0x20 ADD PUSH1 0x40 MLOAD SWAP1 DUP2 ADD PUSH1 0x40 MSTORE DUP1 SWAP3 SWAP2 SWAP1 DUP2 DUP2 MSTORE PUSH1 0x20 ADD DUP3 DUP1 SLOAD PUSH2 0x888 SWAP1 PUSH2 0x1041 JUMP JUMPDEST DUP1 ISZERO PUSH2 0x8D3 JUMPI DUP1 PUSH1 0x1F LT PUSH2 0x8AA JUMPI PUSH2 0x100 DUP1 DUP4 SLOAD DIV MUL DUP4 MSTORE SWAP2 PUSH1 0x20 ADD SWAP2 PUSH2 0x8D3 JUMP JUMPDEST DUP3 ADD SWAP2 SWAP1 PUSH0 MSTORE PUSH1 0x20 PUSH0 KECCAK256 SWAP1 JUMPDEST DUP2 SLOAD DUP2 MSTORE SWAP1 PUSH1 0x1 ADD SWAP1 PUSH1 0x20 ADD DUP1 DUP4 GT PUSH2 0x8B6 JUMPI DUP3 SWAP1 SUB PUSH1 0x1F AND DUP3 ADD SWAP2 JUMPDEST POP POP POP POP POP SWAP1 DUP1 PUSH1 0x1 ADD PUSH0 SWAP1 SLOAD SWAP1 PUSH2 0x100 EXP SWAP1 DIV PUSH2 0xFFFF AND SWAP1 DUP1 PUSH1 0x1 ADD PUSH1 0x2 SWAP1 SLOAD SWAP1 PUSH2 0x100 EXP SWAP1 DIV PUSH4 0xFFFFFFFF AND SWAP1 DUP1 PUSH1 0x1 ADD PUSH1 0x6 SWAP1 SLOAD SWAP1 PUSH2 0x100 EXP SWAP1 DIV PUSH2 0xFFFF AND SWAP1 POP DUP5 JUMP JUMPDEST PUSH2 0x922 PUSH2 0x99E JUMP JUMPDEST PUSH0 PUSH20 0xFFFFFFFFFFFFFFFFFFFFFFFFFFFFFFFFFFFFFFFF AND DUP2 PUSH20 0xFFFFFFFFFFFFFFFFFFFFFFFFFFFFFFFFFFFFFFFF AND SUB PUSH2 0x992 JUMPI PUSH0 PUSH1 0x40 MLOAD PUSH32 0x1E4FBDF700000000000000000000000000000000000000000000000000000000 DUP2 MSTORE PUSH1 0x4 ADD PUSH2 0x989 SWAP2 SWAP1 PUSH2 0xB9B JUMP JUMPDEST PUSH1 0x40 MLOAD DUP1 SWAP2 SUB SWAP1 REVERT JUMPDEST PUSH2 0x99B DUP2 PUSH2 0xA25 JUMP JUMPDEST POP JUMP JUMPDEST PUSH2 0x9A6 PUSH2 0xAE6 JUMP JUMPDEST PUSH20 0xFFFFFFFFFFFFFFFFFFFFFFFFFFFFFFFFFFFFFFFF AND PUSH2 0x9C4 PUSH2 0x51D JUMP JUMPDEST PUSH20 0xFFFFFFFFFFFFFFFFFFFFFFFFFFFFFFFFFFFFFFFF AND EQ PUSH2 0xA23 JUMPI PUSH2 0x9E7 PUSH2 0xAE6 JUMP JUMPDEST PUSH1 0x40 MLOAD PUSH32 0x118CDAA700000000000000000000000000000000000000000000000000000000 DUP2 MSTORE PUSH1 0x4 ADD PUSH2 0xA1A SWAP2 SWAP1 PUSH2 0xB9B JUMP JUMPDEST PUSH1 0x40 MLOAD DUP1 SWAP2 SUB SWAP1 REVERT JUMPDEST JUMP JUMPDEST PUSH0 PUSH0 PUSH0 SWAP1 SLOAD SWAP1 PUSH2 0x100 EXP SWAP1 DIV PUSH20 0xFFFFFFFFFFFFFFFFFFFFFFFFFFFFFFFFFFFFFFFF AND SWAP1 POP DUP2 PUSH0 PUSH0 PUSH2 0x100 EXP DUP2 SLOAD DUP2 PUSH20 0xFFFFFFFFFFFFFFFFFFFFFFFFFFFFFFFFFFFFFFFF MUL NOT AND SWAP1 DUP4 PUSH20 0xFFFFFFFFFFFFFFFFFFFFFFFFFFFFFFFFFFFFFFFF AND MUL OR SWAP1 SSTORE POP DUP2 PUSH20 0xFFFFFFFFFFFFFFFFFFFFFFFFFFFFFFFFFFFFFFFF AND DUP2 PUSH20 0xFFFFFFFFFFFFFFFFFFFFFFFFFFFFFFFFFFFFFFFF AND PUSH32 0x8BE0079C531659141344CD1FD0A4F28419497F9722A3DAAFE3B4186F6B6457E0 PUSH1 0x40 MLOAD PUSH1 0x40 MLOAD DUP1 SWAP2 SUB SWAP1 LOG3 POP POP JUMP JUMPDEST PUSH0 CALLER SWAP1 POP SWAP1 JUMP JUMPDEST PUSH0 PUSH1 0x40 MLOAD SWAP1 POP SWAP1 JUMP JUMPDEST PUSH0 PUSH0 REVERT JUMPDEST PUSH0 PUSH0 REVERT JUMPDEST PUSH0 DUP2 SWAP1 POP SWAP2 SWAP1 POP JUMP JUMPDEST PUSH2 0xB10 DUP2 PUSH2 0xAFE JUMP JUMPDEST DUP2 EQ PUSH2 0xB1A JUMPI PUSH0 PUSH0 REVERT JUMPDEST POP JUMP JUMPDEST PUSH0 DUP2 CALLDATALOAD SWAP1 POP PUSH2 0xB2B DUP2 PUSH2 0xB07 JUMP JUMPDEST SWAP3 SWAP2 POP POP JUMP JUMPDEST PUSH0 PUSH1 0x20 DUP3 DUP5 SUB SLT ISZERO PUSH2 0xB46 JUMPI PUSH2 0xB45 PUSH2 0xAF6 JUMP JUMPDEST JUMPDEST PUSH0 PUSH2 0xB53 DUP5 DUP3 DUP6 ADD PUSH2 0xB1D JUMP JUMPDEST SWAP2 POP POP SWAP3 SWAP2 POP POP JUMP JUMPDEST PUSH0 PUSH20 0xFFFFFFFFFFFFFFFFFFFFFFFFFFFFFFFFFFFFFFFF DUP3 AND SWAP1 POP SWAP2 SWAP1 POP JUMP JUMPDEST PUSH0 PUSH2 0xB85 DUP3 PUSH2 0xB5C JUMP JUMPDEST SWAP1 POP SWAP2 SWAP1 POP JUMP JUMPDEST PUSH2 0xB95 DUP2 PUSH2 0xB7B JUMP JUMPDEST DUP3 MSTORE POP POP JUMP JUMPDEST PUSH0 PUSH1 0x20 DUP3 ADD SWAP1 POP PUSH2 0xBAE PUSH0 DUP4 ADD DUP5 PUSH2 0xB8C JUMP JUMPDEST SWAP3 SWAP2 POP POP JUMP JUMPDEST PUSH0 DUP2 MLOAD SWAP1 POP SWAP2 SWAP1 POP JUMP JUMPDEST PUSH0 DUP3 DUP3 MSTORE PUSH1 0x20 DUP3 ADD SWAP1 POP SWAP3 SWAP2 POP POP JUMP JUMPDEST DUP3 DUP2 DUP4 MCOPY PUSH0 DUP4 DUP4 ADD MSTORE POP POP POP JUMP JUMPDEST PUSH0 PUSH1 0x1F NOT PUSH1 0x1F DUP4 ADD AND SWAP1 POP SWAP2 SWAP1 POP JUMP JUMPDEST PUSH0 PUSH2 0xBF6 DUP3 PUSH2 0xBB4 JUMP JUMPDEST PUSH2 0xC00 DUP2 DUP6 PUSH2 0xBBE JUMP JUMPDEST SWAP4 POP PUSH2 0xC10 DUP2 DUP6 PUSH1 0x20 DUP7 ADD PUSH2 0xBCE JUMP JUMPDEST PUSH2 0xC19 DUP2 PUSH2 0xBDC JUMP JUMPDEST DUP5 ADD SWAP2 POP POP SWAP3 SWAP2 POP POP JUMP JUMPDEST PUSH0 PUSH4 0xFFFFFFFF DUP3 AND SWAP1 POP SWAP2 SWAP1 POP JUMP JUMPDEST PUSH2 0xC3C DUP2 PUSH2 0xC24 JUMP JUMPDEST DUP3 MSTORE POP POP JUMP JUMPDEST PUSH0 PUSH2 0xFFFF DUP3 AND SWAP1 POP SWAP2 SWAP1 POP JUMP JUMPDEST PUSH2 0xC58 DUP2 PUSH2 0xC42 JUMP JUMPDEST DUP3 MSTORE POP POP JUMP JUMPDEST PUSH0 PUSH1 0xFF DUP3 AND SWAP1 POP SWAP2 SWAP1 POP JUMP JUMPDEST PUSH2 0xC73 DUP2 PUSH2 0xC5E JUMP JUMPDEST DUP3 MSTORE POP POP JUMP JUMPDEST PUSH0 PUSH1 0xC0 DUP3 ADD SWAP1 POP DUP2 DUP2 SUB PUSH0 DUP4 ADD MSTORE PUSH2 0xC91 DUP2 DUP10 PUSH2 0xBEC JUMP JUMPDEST SWAP1 POP PUSH2 0xCA0 PUSH1 0x20 DUP4 ADD DUP9 PUSH2 0xC33 JUMP JUMPDEST PUSH2 0xCAD PUSH1 0x40 DUP4 ADD DUP8 PUSH2 0xC33 JUMP JUMPDEST PUSH2 0xCBA PUSH1 0x60 DUP4 ADD DUP7 PUSH2 0xC33 JUMP JUMPDEST PUSH2 0xCC7 PUSH1 0x80 DUP4 ADD DUP6 PUSH2 0xC4F JUMP JUMPDEST PUSH2 0xCD4 PUSH1 0xA0 DUP4 ADD DUP5 PUSH2 0xC6A JUMP JUMPDEST SWAP8 SWAP7 POP POP POP POP POP POP POP JUMP JUMPDEST PUSH0 PUSH0 REVERT JUMPDEST PUSH0 PUSH0 REVERT JUMPDEST PUSH32 0x4E487B7100000000000000000000000000000000000000000000000000000000 PUSH0 MSTORE PUSH1 0x41 PUSH1 0x4 MSTORE PUSH1 0x24 PUSH0 REVERT JUMPDEST PUSH2 0xD1D DUP3 PUSH2 0xBDC JUMP JUMPDEST DUP2 ADD DUP2 DUP2 LT PUSH8 0xFFFFFFFFFFFFFFFF DUP3 GT OR ISZERO PUSH2 0xD3C JUMPI PUSH2 0xD3B PUSH2 0xCE7 JUMP JUMPDEST JUMPDEST DUP1 PUSH1 0x40 MSTORE POP POP POP JUMP JUMPDEST PUSH0 PUSH2 0xD4E PUSH2 0xAED JUMP JUMPDEST SWAP1 POP PUSH2 0xD5A DUP3 DUP3 PUSH2 0xD14 JUMP JUMPDEST SWAP2 SWAP1 POP JUMP JUMPDEST PUSH0 PUSH8 0xFFFFFFFFFFFFFFFF DUP3 GT ISZERO PUSH2 0xD79 JUMPI PUSH2 0xD78 PUSH2 0xCE7 JUMP JUMPDEST JUMPDEST PUSH2 0xD82 DUP3 PUSH2 0xBDC JUMP JUMPDEST SWAP1 POP PUSH1 0x20 DUP2 ADD SWAP1 POP SWAP2 SWAP1 POP JUMP JUMPDEST DUP3 DUP2 DUP4 CALLDATACOPY PUSH0 DUP4 DUP4 ADD MSTORE POP POP POP JUMP JUMPDEST PUSH0 PUSH2 0xDAF PUSH2 0xDAA DUP5 PUSH2 0xD5F JUMP JUMPDEST PUSH2 0xD45 JUMP JUMPDEST SWAP1 POP DUP3 DUP2 MSTORE PUSH1 0x20 DUP2 ADD DUP5 DUP5 DUP5 ADD GT ISZERO PUSH2 0xDCB JUMPI PUSH2 0xDCA PUSH2 0xCE3 JUMP JUMPDEST JUMPDEST PUSH2 0xDD6 DUP5 DUP3 DUP6 PUSH2 0xD8F JUMP JUMPDEST POP SWAP4 SWAP3 POP POP POP JUMP JUMPDEST PUSH0 DUP3 PUSH1 0x1F DUP4 ADD SLT PUSH2 0xDF2 JUMPI PUSH2 0xDF1 PUSH2 0xCDF JUMP JUMPDEST JUMPDEST DUP2 CALLDATALOAD PUSH2 0xE02 DUP5 DUP3 PUSH1 0x20 DUP7 ADD PUSH2 0xD9D JUMP JUMPDEST SWAP2 POP POP SWAP3 SWAP2 POP POP JUMP JUMPDEST PUSH0 PUSH1 0x20 DUP3 DUP5 SUB SLT ISZERO PUSH2 0xE20 JUMPI PUSH2 0xE1F PUSH2 0xAF6 JUMP JUMPDEST JUMPDEST PUSH0 DUP3 ADD CALLDATALOAD PUSH8 0xFFFFFFFFFFFFFFFF DUP2 GT ISZERO PUSH2 0xE3D JUMPI PUSH2 0xE3C PUSH2 0xAFA JUMP JUMPDEST JUMPDEST PUSH2 0xE49 DUP5 DUP3 DUP6 ADD PUSH2 0xDDE JUMP JUMPDEST SWAP2 POP POP SWAP3 SWAP2 POP POP JUMP JUMPDEST PUSH2 0xE5B DUP2 PUSH2 0xC24 JUMP JUMPDEST DUP2 EQ PUSH2 0xE65 JUMPI PUSH0 PUSH0 REVERT JUMPDEST POP JUMP JUMPDEST PUSH0 DUP2 CALLDATALOAD SWAP1 POP PUSH2 0xE76 DUP2 PUSH2 0xE52 JUMP JUMPDEST SWAP3 SWAP2 POP POP JUMP JUMPDEST PUSH2 0xE85 DUP2 PUSH2 0xC42 JUMP JUMPDEST DUP2 EQ PUSH2 0xE8F JUMPI PUSH0 PUSH0 REVERT JUMPDEST POP JUMP JUMPDEST PUSH0 DUP2 CALLDATALOAD SWAP1 POP PUSH2 0xEA0 DUP2 PUSH2 0xE7C JUMP JUMPDEST SWAP3 SWAP2 POP POP JUMP JUMPDEST PUSH2 0xEAF DUP2 PUSH2 0xC5E JUMP JUMPDEST DUP2 EQ PUSH2 0xEB9 JUMPI PUSH0 PUSH0 REVERT JUMPDEST POP JUMP JUMPDEST PUSH0 DUP2 CALLDATALOAD SWAP1 POP PUSH2 0xECA DUP2 PUSH2 0xEA6 JUMP JUMPDEST SWAP3 SWAP2 POP POP JUMP JUMPDEST PUSH0 PUSH0 PUSH0 PUSH0 PUSH0 PUSH0 PUSH1 0xC0 DUP8 DUP10 SUB SLT ISZERO PUSH2 0xEEA JUMPI PUSH2 0xEE9 PUSH2 0xAF6 JUMP JUMPDEST JUMPDEST PUSH0 DUP8 ADD CALLDATALOAD PUSH8 0xFFFFFFFFFFFFFFFF DUP2 GT ISZERO PUSH2 0xF07 JUMPI PUSH2 0xF06 PUSH2 0xAFA JUMP JUMPDEST JUMPDEST PUSH2 0xF13 DUP10 DUP3 DUP11 ADD PUSH2 0xDDE JUMP JUMPDEST SWAP7 POP POP PUSH1 0x20 PUSH2 0xF24 DUP10 DUP3 DUP11 ADD PUSH2 0xE68 JUMP JUMPDEST SWAP6 POP POP PUSH1 0x40 PUSH2 0xF35 DUP10 DUP3 DUP11 ADD PUSH2 0xE68 JUMP JUMPDEST SWAP5 POP POP PUSH1 0x60 PUSH2 0xF46 DUP10 DUP3 DUP11 ADD PUSH2 0xE68 JUMP JUMPDEST SWAP4 POP POP PUSH1 0x80 PUSH2 0xF57 DUP10 DUP3 DUP11 ADD PUSH2 0xE92 JUMP JUMPDEST SWAP3 POP POP PUSH1 0xA0 PUSH2 0xF68 DUP10 DUP3 DUP11 ADD PUSH2 0xEBC JUMP JUMPDEST SWAP2 POP POP SWAP3 SWAP6 POP SWAP3 SWAP6 POP SWAP3 SWAP6 JUMP JUMPDEST PUSH0 PUSH1 0x80 DUP3 ADD SWAP1 POP DUP2 DUP2 SUB PUSH0 DUP4 ADD MSTORE PUSH2 0xF8D DUP2 DUP8 PUSH2 0xBEC JUMP JUMPDEST SWAP1 POP PUSH2 0xF9C PUSH1 0x20 DUP4 ADD DUP7 PUSH2 0xC4F JUMP JUMPDEST PUSH2 0xFA9 PUSH1 0x40 DUP4 ADD DUP6 PUSH2 0xC33 JUMP JUMPDEST PUSH2 0xFB6 PUSH1 0x60 DUP4 ADD DUP5 PUSH2 0xC4F JUMP JUMPDEST SWAP6 SWAP5 POP POP POP POP POP JUMP JUMPDEST PUSH2 0xFC8 DUP2 PUSH2 0xB7B JUMP JUMPDEST DUP2 EQ PUSH2 0xFD2 JUMPI PUSH0 PUSH0 REVERT JUMPDEST POP JUMP JUMPDEST PUSH0 DUP2 CALLDATALOAD SWAP1 POP PUSH2 0xFE3 DUP2 PUSH2 0xFBF JUMP JUMPDEST SWAP3 SWAP2 POP POP JUMP JUMPDEST PUSH0 PUSH1 0x20 DUP3 DUP5 SUB SLT ISZERO PUSH2 0xFFE JUMPI PUSH2 0xFFD PUSH2 0xAF6 JUMP JUMPDEST JUMPDEST PUSH0 PUSH2 0x100B DUP5 DUP3 DUP6 ADD PUSH2 0xFD5 JUMP JUMPDEST SWAP2 POP POP SWAP3 SWAP2 POP POP JUMP JUMPDEST PUSH32 0x4E487B7100000000000000000000000000000000000000000000000000000000 PUSH0 MSTORE PUSH1 0x22 PUSH1 0x4 MSTORE PUSH1 0x24 PUSH0 REVERT JUMPDEST PUSH0 PUSH1 0x2 DUP3 DIV SWAP1 POP PUSH1 0x1 DUP3 AND DUP1 PUSH2 0x1058 JUMPI PUSH1 0x7F DUP3 AND SWAP2 POP JUMPDEST PUSH1 0x20 DUP3 LT DUP2 SUB PUSH2 0x106B JUMPI PUSH2 0x106A PUSH2 0x1014 JUMP JUMPDEST JUMPDEST POP SWAP2 SWAP1 POP JUMP JUMPDEST PUSH0 DUP2 SWAP1 POP DUP2 PUSH0 MSTORE PUSH1 0x20 PUSH0 KECCAK256 SWAP1 POP SWAP2 SWAP1 POP JUMP JUMPDEST PUSH0 PUSH1 0x20 PUSH1 0x1F DUP4 ADD DIV SWAP1 POP SWAP2 SWAP1 POP JUMP JUMPDEST PUSH0 DUP3 DUP3 SHL SWAP1 POP SWAP3 SWAP2 POP POP JUMP JUMPDEST PUSH0 PUSH1 0x8 DUP4 MUL PUSH2 0x10CD PUSH32 0xFFFFFFFFFFFFFFFFFFFFFFFFFFFFFFFFFFFFFFFFFFFFFFFFFFFFFFFFFFFFFFFF DUP3 PUSH2 0x1092 JUMP JUMPDEST PUSH2 0x10D7 DUP7 DUP4 PUSH2 0x1092 JUMP JUMPDEST SWAP6 POP DUP1 NOT DUP5 AND SWAP4 POP DUP1 DUP7 AND DUP5 OR SWAP3 POP POP POP SWAP4 SWAP3 POP POP POP JUMP JUMPDEST PUSH0 DUP2 SWAP1 POP SWAP2 SWAP1 POP JUMP JUMPDEST PUSH0 PUSH2 0x1112 PUSH2 0x110D PUSH2 0x1108 DUP5 PUSH2 0xAFE JUMP JUMPDEST PUSH2 0x10EF JUMP JUMPDEST PUSH2 0xAFE JUMP JUMPDEST SWAP1 POP SWAP2 SWAP1 POP JUMP JUMPDEST PUSH0 DUP2 SWAP1 POP SWAP2 SWAP1 POP JUMP JUMPDEST PUSH2 0x112B DUP4 PUSH2 0x10F8 JUMP JUMPDEST PUSH2 0x113F PUSH2 0x1137 DUP3 PUSH2 0x1119 JUMP JUMPDEST DUP5 DUP5 SLOAD PUSH2 0x109E JUMP JUMPDEST DUP3 SSTORE POP POP POP POP JUMP JUMPDEST PUSH0 PUSH0 SWAP1 POP SWAP1 JUMP JUMPDEST PUSH2 0x1156 PUSH2 0x1147 JUMP JUMPDEST PUSH2 0x1161 DUP2 DUP5 DUP5 PUSH2 0x1122 JUMP JUMPDEST POP POP POP JUMP JUMPDEST JUMPDEST DUP2 DUP2 LT ISZERO PUSH2 0x1184 JUMPI PUSH2 0x1179 PUSH0 DUP3 PUSH2 0x114E JUMP JUMPDEST PUSH1 0x1 DUP2 ADD SWAP1 POP PUSH2 0x1167 JUMP JUMPDEST POP POP JUMP JUMPDEST PUSH1 0x1F DUP3 GT ISZERO PUSH2 0x11C9 JUMPI PUSH2 0x119A DUP2 PUSH2 0x1071 JUMP JUMPDEST PUSH2 0x11A3 DUP5 PUSH2 0x1083 JUMP JUMPDEST DUP2 ADD PUSH1 0x20 DUP6 LT ISZERO PUSH2 0x11B2 JUMPI DUP2 SWAP1 POP JUMPDEST PUSH2 0x11C6 PUSH2 0x11BE DUP6 PUSH2 0x1083 JUMP JUMPDEST DUP4 ADD DUP3 PUSH2 0x1166 JUMP JUMPDEST POP POP JUMPDEST POP POP POP JUMP JUMPDEST PUSH0 DUP3 DUP3 SHR SWAP1 POP SWAP3 SWAP2 POP POP JUMP JUMPDEST PUSH0 PUSH2 0x11E9 PUSH0 NOT DUP5 PUSH1 0x8 MUL PUSH2 0x11CE JUMP JUMPDEST NOT DUP1 DUP4 AND SWAP2 POP POP SWAP3 SWAP2 POP POP JUMP JUMPDEST PUSH0 PUSH2 0x1201 DUP4 DUP4 PUSH2 0x11DA JUMP JUMPDEST SWAP2 POP DUP3 PUSH1 0x2 MUL DUP3 OR SWAP1 POP SWAP3 SWAP2 POP POP JUMP JUMPDEST PUSH2 0x121A DUP3 PUSH2 0xBB4 JUMP JUMPDEST PUSH8 0xFFFFFFFFFFFFFFFF DUP2 GT ISZERO PUSH2 0x1233 JUMPI PUSH2 0x1232 PUSH2 0xCE7 JUMP JUMPDEST JUMPDEST PUSH2 0x123D DUP3 SLOAD PUSH2 0x1041 JUMP JUMPDEST PUSH2 0x1248 DUP3 DUP3 DUP6 PUSH2 0x1188 JUMP JUMPDEST PUSH0 PUSH1 0x20 SWAP1 POP PUSH1 0x1F DUP4 GT PUSH1 0x1 DUP2 EQ PUSH2 0x1279 JUMPI PUSH0 DUP5 ISZERO PUSH2 0x1267 JUMPI DUP3 DUP8 ADD MLOAD SWAP1 POP JUMPDEST PUSH2 0x1271 DUP6 DUP3 PUSH2 0x11F6 JUMP JUMPDEST DUP7 SSTORE POP PUSH2 0x12D8 JUMP JUMPDEST PUSH1 0x1F NOT DUP5 AND PUSH2 0x1287 DUP7 PUSH2 0x1071 JUMP JUMPDEST PUSH0 JUMPDEST DUP3 DUP2 LT ISZERO PUSH2 0x12AE JUMPI DUP5 DUP10 ADD MLOAD DUP3 SSTORE PUSH1 0x1 DUP3 ADD SWAP2 POP PUSH1 0x20 DUP6 ADD SWAP5 POP PUSH1 0x20 DUP2 ADD SWAP1 POP PUSH2 0x1289 JUMP JUMPDEST DUP7 DUP4 LT ISZERO PUSH2 0x12CB JUMPI DUP5 DUP10 ADD MLOAD PUSH2 0x12C7 PUSH1 0x1F DUP10 AND DUP3 PUSH2 0x11DA JUMP JUMPDEST DUP4 SSTORE POP JUMPDEST PUSH1 0x1 PUSH1 0x2 DUP9 MUL ADD DUP9 SSTORE POP POP POP JUMPDEST POP POP POP POP POP POP JUMP JUMPDEST PUSH32 0x4E487B7100000000000000000000000000000000000000000000000000000000 PUSH0 MSTORE PUSH1 0x11 PUSH1 0x4 MSTORE PUSH1 0x24 PUSH0 REVERT JUMPDEST PUSH0 PUSH2 0x1317 DUP3 PUSH2 0xAFE JUMP JUMPDEST SWAP2 POP PUSH2 0x1322 DUP4 PUSH2 0xAFE JUMP JUMPDEST SWAP3 POP DUP3 DUP3 SUB SWAP1 POP DUP2 DUP2 GT ISZERO PUSH2 0x133A JUMPI PUSH2 0x1339 PUSH2 0x12E0 JUMP JUMPDEST JUMPDEST SWAP3 SWAP2 POP POP JUMP JUMPDEST PUSH2 0x1349 DUP2 PUSH2 0xAFE JUMP JUMPDEST DUP3 MSTORE POP POP JUMP JUMPDEST PUSH0 PUSH1 0x40 DUP3 ADD SWAP1 POP PUSH2 0x1362 PUSH0 DUP4 ADD DUP6 PUSH2 0x1340 JUMP JUMPDEST DUP2 DUP2 SUB PUSH1 0x20 DUP4 ADD MSTORE PUSH2 0x1374 DUP2 DUP5 PUSH2 0xBEC JUMP JUMPDEST SWAP1 POP SWAP4 SWAP3 POP POP POP JUMP INVALID LOG2 PUSH5 0x6970667358 0x22 SLT KECCAK256 0x28 0xC5 0xB8 0x4C MSTORE PUSH21 0xFED9C349BF035517F17F4DF1F30FCCA8B76AF56CF1 DUP11 DUP9 RJUMPI 0x217B PUSH5 0x736F6C6343 STOP ADDMOD 0x1E STOP CALLER "
		},
		"gasEstimates": {
			"creation": {
				"codeDepositCost": "1008600",
				"executionCost": "infinite",
				"totalCost": "infinite"
			},
			"external": {
				"_registerJudge(string)": "infinite",
				"_registerMMAFighter(string,uint32,uint32,uint32,uint16,uint8)": "infinite",
				"fighterIdToFighter(uint256)": "infinite",
				"fighterToOwner(uint256)": "2872",
				"fighters(uint256)": "infinite",
				"judgeToOwner(uint256)": "2828",
				"judges(uint256)": "infinite",
				"owner()": "2514",
				"renounceOwnership()": "infinite",
				"transferOwnership(address)": "infinite"
			}
		},
		"methodIdentifiers": {
			"_registerJudge(string)": "5f6fdddf",
			"_registerMMAFighter(string,uint32,uint32,uint32,uint16,uint8)": "9f8e1766",
			"fighterIdToFighter(uint256)": "a28da4a6",
			"fighterToOwner(uint256)": "3824fbec",
			"fighters(uint256)": "2e6b221d",
			"judgeToOwner(uint256)": "0d292732",
			"judges(uint256)": "b06b0368",
			"owner()": "8da5cb5b",
			"renounceOwnership()": "715018a6",
			"transferOwnership(address)": "f2fde38b"
		}
	},
	"abi": [
		{
			"inputs": [],
			"stateMutability": "nonpayable",
			"type": "constructor"
		},
		{
			"inputs": [
				{
					"internalType": "address",
					"name": "owner",
					"type": "address"
				}
			],
			"name": "OwnableInvalidOwner",
			"type": "error"
		},
		{
			"inputs": [
				{
					"internalType": "address",
					"name": "account",
					"type": "address"
				}
			],
			"name": "OwnableUnauthorizedAccount",
			"type": "error"
		},
		{
			"anonymous": false,
			"inputs": [
				{
					"indexed": false,
					"internalType": "uint256",
					"name": "fighterId",
					"type": "uint256"
				},
				{
					"indexed": false,
					"internalType": "string",
					"name": "fighterName",
					"type": "string"
				}
			],
			"name": "NewFighter",
			"type": "event"
		},
		{
			"anonymous": false,
			"inputs": [
				{
					"indexed": false,
					"internalType": "uint256",
					"name": "judgeId",
					"type": "uint256"
				},
				{
					"indexed": false,
					"internalType": "string",
					"name": "judgeName",
					"type": "string"
				}
			],
			"name": "NewJudge",
			"type": "event"
		},
		{
			"anonymous": false,
			"inputs": [
				{
					"indexed": true,
					"internalType": "address",
					"name": "previousOwner",
					"type": "address"
				},
				{
					"indexed": true,
					"internalType": "address",
					"name": "newOwner",
					"type": "address"
				}
			],
			"name": "OwnershipTransferred",
			"type": "event"
		},
		{
			"inputs": [
				{
					"internalType": "string",
					"name": "_name",
					"type": "string"
				}
			],
			"name": "_registerJudge",
			"outputs": [],
			"stateMutability": "nonpayable",
			"type": "function"
		},
		{
			"inputs": [
				{
					"internalType": "string",
					"name": "_name",
					"type": "string"
				},
				{
					"internalType": "uint32",
					"name": "_wins",
					"type": "uint32"
				},
				{
					"internalType": "uint32",
					"name": "_losses",
					"type": "uint32"
				},
				{
					"internalType": "uint32",
					"name": "_draws",
					"type": "uint32"
				},
				{
					"internalType": "uint16",
					"name": "_nc",
					"type": "uint16"
				},
				{
					"internalType": "uint8",
					"name": "_weight",
					"type": "uint8"
				}
			],
			"name": "_registerMMAFighter",
			"outputs": [],
			"stateMutability": "nonpayable",
			"type": "function"
		},
		{
			"inputs": [
				{
					"internalType": "uint256",
					"name": "",
					"type": "uint256"
				}
			],
			"name": "fighterIdToFighter",
			"outputs": [
				{
					"internalType": "string",
					"name": "name",
					"type": "string"
				},
				{
					"internalType": "uint32",
					"name": "win",
					"type": "uint32"
				},
				{
					"internalType": "uint32",
					"name": "loss",
					"type": "uint32"
				},
				{
					"internalType": "uint32",
					"name": "draw",
					"type": "uint32"
				},
				{
					"internalType": "uint16",
					"name": "noContest",
					"type": "uint16"
				},
				{
					"internalType": "uint8",
					"name": "weightCategoryLbs",
					"type": "uint8"
				}
			],
			"stateMutability": "view",
			"type": "function"
		},
		{
			"inputs": [
				{
					"internalType": "uint256",
					"name": "",
					"type": "uint256"
				}
			],
			"name": "fighterToOwner",
			"outputs": [
				{
					"internalType": "address",
					"name": "",
					"type": "address"
				}
			],
			"stateMutability": "view",
			"type": "function"
		},
		{
			"inputs": [
				{
					"internalType": "uint256",
					"name": "",
					"type": "uint256"
				}
			],
			"name": "fighters",
			"outputs": [
				{
					"internalType": "string",
					"name": "name",
					"type": "string"
				},
				{
					"internalType": "uint32",
					"name": "win",
					"type": "uint32"
				},
				{
					"internalType": "uint32",
					"name": "loss",
					"type": "uint32"
				},
				{
					"internalType": "uint32",
					"name": "draw",
					"type": "uint32"
				},
				{
					"internalType": "uint16",
					"name": "noContest",
					"type": "uint16"
				},
				{
					"internalType": "uint8",
					"name": "weightCategoryLbs",
					"type": "uint8"
				}
			],
			"stateMutability": "view",
			"type": "function"
		},
		{
			"inputs": [
				{
					"internalType": "uint256",
					"name": "",
					"type": "uint256"
				}
			],
			"name": "judgeToOwner",
			"outputs": [
				{
					"internalType": "address",
					"name": "",
					"type": "address"
				}
			],
			"stateMutability": "view",
			"type": "function"
		},
		{
			"inputs": [
				{
					"internalType": "uint256",
					"name": "",
					"type": "uint256"
				}
			],
			"name": "judges",
			"outputs": [
				{
					"internalType": "string",
					"name": "name",
					"type": "string"
				},
				{
					"internalType": "uint16",
					"name": "rank",
					"type": "uint16"
				},
				{
					"internalType": "uint32",
					"name": "rightDecision",
					"type": "uint32"
				},
				{
					"internalType": "uint16",
					"name": "wrongDecision",
					"type": "uint16"
				}
			],
			"stateMutability": "view",
			"type": "function"
		},
		{
			"inputs": [],
			"name": "owner",
			"outputs": [
				{
					"internalType": "address",
					"name": "",
					"type": "address"
				}
			],
			"stateMutability": "view",
			"type": "function"
		},
		{
			"inputs": [],
			"name": "renounceOwnership",
			"outputs": [],
			"stateMutability": "nonpayable",
			"type": "function"
		},
		{
			"inputs": [
				{
					"internalType": "address",
					"name": "newOwner",
					"type": "address"
				}
			],
			"name": "transferOwnership",
			"outputs": [],
			"stateMutability": "nonpayable",
			"type": "function"
		}
	]
}