{
	"data": {
		"bytecode": {
			"linkReferences": {},
			"object": "608060405234801561000f575f5ffd5b50335f73ffffffffffffffffffffffffffffffffffffffff168173ffffffffffffffffffffffffffffffffffffffff1603610081575f6040517f1e4fbdf70000000000000000000000000000000000000000000000000000000081526004016100789190610196565b60405180910390fd5b6100908161009660201b60201c565b506101af565b5f5f5f9054906101000a900473ffffffffffffffffffffffffffffffffffffffff169050815f5f6101000a81548173ffffffffffffffffffffffffffffffffffffffff021916908373ffffffffffffffffffffffffffffffffffffffff1602179055508173ffffffffffffffffffffffffffffffffffffffff168173ffffffffffffffffffffffffffffffffffffffff167f8be0079c531659141344cd1fd0a4f28419497f9722a3daafe3b4186f6b6457e060405160405180910390a35050565b5f73ffffffffffffffffffffffffffffffffffffffff82169050919050565b5f61018082610157565b9050919050565b61019081610176565b82525050565b5f6020820190506101a95f830184610187565b92915050565b611598806101bc5f395ff3fe608060405234801561000f575f5ffd5b50600436106100a7575f3560e01c80635f6fdddf1161006f5780635f6fdddf1461018e578063715018a6146101aa5780638da5cb5b146101b45780639f8e1766146101d2578063b06b0368146101ee578063f2fde38b14610221576100a7565b80630d292732146100ab57806317961f11146100db5780632e6b221d146100f75780633824fbec1461012c5780634768d4ef1461015c575b5f5ffd5b6100c560048036038101906100c09190610bb6565b61023d565b6040516100d29190610c20565b60405180910390f35b6100f560048036038101906100f09190610c6f565b61026d565b005b610111600480360381019061010c9190610bb6565b610395565b60405161012396959493929190610d78565b60405180910390f35b61014660048036038101906101419190610bb6565b6104ac565b6040516101539190610c20565b60405180910390f35b61017660048036038101906101719190610bb6565b6104dc565b60405161018593929190610ded565b60405180910390f35b6101a860048036038101906101a39190610f4e565b61051d565b005b6101b2610697565b005b6101bc6106aa565b6040516101c99190610c20565b60405180910390f35b6101ec60048036038101906101e79190610fe9565b6106d1565b005b61020860048036038101906102039190610bb6565b6108b3565b604051610218949392919061108e565b60405180910390f35b61023b60048036038101906102369190611102565b61099f565b005b6002602052805f5260405f205f915054906101000a900473ffffffffffffffffffffffffffffffffffffffff1681565b8060038160ff161480610283575060058160ff16145b6102c2576040517f08c379a00000000000000000000000000000000000000000000000000000000081526004016102b990611177565b60405180910390fd5b600760405180606001604052808681526020018581526020018460ff16815250908060018154018082558091505060019003905f5260205f2090600302015f909190919091505f820151815f0155602082015181600101556040820151816002015f6101000a81548160ff021916908360ff16021790555050505f600160078054905061034f91906111c2565b90507f38380995fd3834d2987ff279fd8bcd57c849d0397c58bb311dca9b6bc5fee9aa81868686604051610386949392919061122e565b60405180910390a15050505050565b600481815481106103a4575f80fd5b905f5260205f2090600202015f91509050805f0180546103c39061129e565b80601f01602080910402602001604051908101604052809291908181526020018280546103ef9061129e565b801561043a5780601f106104115761010080835404028352916020019161043a565b820191905f5260205f20905b81548152906001019060200180831161041d57829003601f168201915b505050505090806001015f9054906101000a900463ffffffff16908060010160049054906101000a900463ffffffff16908060010160089054906101000a900463ffffffff169080600101600c9054906101000a900461ffff169080600101600e9054906101000a900460ff16905086565b6005602052805f5260405f205f915054906101000a900473ffffffffffffffffffffffffffffffffffffffff1681565b600781815481106104eb575f80fd5b905f5260205f2090600302015f91509050805f015490806001015490806002015f9054906101000a900460ff16905083565b60016040518060800160405280838152602001600161ffff1681526020015f63ffffffff1681526020015f61ffff16815250908060018154018082558091505060019003905f5260205f2090600202015f909190919091505f820151815f0190816105889190611465565b506020820151816001015f6101000a81548161ffff021916908361ffff16021790555060408201518160010160026101000a81548163ffffffff021916908363ffffffff16021790555060608201518160010160066101000a81548161ffff021916908361ffff16021790555050505f6001808054905061060991906111c2565b90503360025f8381526020019081526020015f205f6101000a81548173ffffffffffffffffffffffffffffffffffffffff021916908373ffffffffffffffffffffffffffffffffffffffff1602179055507f41b82268d4cfcb7bde62bae060583c745a4821f267e1fe541b5f624e00d43c7d818360405161068b929190611534565b60405180910390a15050565b61069f610a23565b6106a85f610aaa565b565b5f5f5f9054906101000a900473ffffffffffffffffffffffffffffffffffffffff16905090565b60046040518060c001604052808881526020018763ffffffff1681526020018663ffffffff1681526020018563ffffffff1681526020018461ffff1681526020018360ff16815250908060018154018082558091505060019003905f5260205f2090600202015f909190919091505f820151815f0190816107529190611465565b506020820151816001015f6101000a81548163ffffffff021916908363ffffffff16021790555060408201518160010160046101000a81548163ffffffff021916908363ffffffff16021790555060608201518160010160086101000a81548163ffffffff021916908363ffffffff160217905550608082015181600101600c6101000a81548161ffff021916908361ffff16021790555060a082015181600101600e6101000a81548160ff021916908360ff16021790555050505f600160048054905061082091906111c2565b90503360055f8381526020019081526020015f205f6101000a81548173ffffffffffffffffffffffffffffffffffffffff021916908373ffffffffffffffffffffffffffffffffffffffff1602179055507fcf0b1657bf9a3add4678d1909d3fdcdb613a214497eb0d3c6b946dee9197583881886040516108a2929190611534565b60405180910390a150505050505050565b600181815481106108c2575f80fd5b905f5260205f2090600202015f91509050805f0180546108e19061129e565b80601f016020809104026020016040519081016040528092919081815260200182805461090d9061129e565b80156109585780601f1061092f57610100808354040283529160200191610958565b820191905f5260205f20905b81548152906001019060200180831161093b57829003601f168201915b505050505090806001015f9054906101000a900461ffff16908060010160029054906101000a900463ffffffff16908060010160069054906101000a900461ffff16905084565b6109a7610a23565b5f73ffffffffffffffffffffffffffffffffffffffff168173ffffffffffffffffffffffffffffffffffffffff1603610a17575f6040517f1e4fbdf7000000000000000000000000000000000000000000000000000000008152600401610a0e9190610c20565b60405180910390fd5b610a2081610aaa565b50565b610a2b610b6b565b73ffffffffffffffffffffffffffffffffffffffff16610a496106aa565b73ffffffffffffffffffffffffffffffffffffffff1614610aa857610a6c610b6b565b6040517f118cdaa7000000000000000000000000000000000000000000000000000000008152600401610a9f9190610c20565b60405180910390fd5b565b5f5f5f9054906101000a900473ffffffffffffffffffffffffffffffffffffffff169050815f5f6101000a81548173ffffffffffffffffffffffffffffffffffffffff021916908373ffffffffffffffffffffffffffffffffffffffff1602179055508173ffffffffffffffffffffffffffffffffffffffff168173ffffffffffffffffffffffffffffffffffffffff167f8be0079c531659141344cd1fd0a4f28419497f9722a3daafe3b4186f6b6457e060405160405180910390a35050565b5f33905090565b5f604051905090565b5f5ffd5b5f5ffd5b5f819050919050565b610b9581610b83565b8114610b9f575f5ffd5b50565b5f81359050610bb081610b8c565b92915050565b5f60208284031215610bcb57610bca610b7b565b5b5f610bd884828501610ba2565b91505092915050565b5f73ffffffffffffffffffffffffffffffffffffffff82169050919050565b5f610c0a82610be1565b9050919050565b610c1a81610c00565b82525050565b5f602082019050610c335f830184610c11565b92915050565b5f60ff82169050919050565b610c4e81610c39565b8114610c58575f5ffd5b50565b5f81359050610c6981610c45565b92915050565b5f5f5f60608486031215610c8657610c85610b7b565b5b5f610c9386828701610ba2565b9350506020610ca486828701610ba2565b9250506040610cb586828701610c5b565b9150509250925092565b5f81519050919050565b5f82825260208201905092915050565b8281835e5f83830152505050565b5f601f19601f8301169050919050565b5f610d0182610cbf565b610d0b8185610cc9565b9350610d1b818560208601610cd9565b610d2481610ce7565b840191505092915050565b5f63ffffffff82169050919050565b610d4781610d2f565b82525050565b5f61ffff82169050919050565b610d6381610d4d565b82525050565b610d7281610c39565b82525050565b5f60c0820190508181035f830152610d908189610cf7565b9050610d9f6020830188610d3e565b610dac6040830187610d3e565b610db96060830186610d3e565b610dc66080830185610d5a565b610dd360a0830184610d69565b979650505050505050565b610de781610b83565b82525050565b5f606082019050610e005f830186610dde565b610e0d6020830185610dde565b610e1a6040830184610d69565b949350505050565b5f5ffd5b5f5ffd5b7f4e487b71000000000000000000000000000000000000000000000000000000005f52604160045260245ffd5b610e6082610ce7565b810181811067ffffffffffffffff82111715610e7f57610e7e610e2a565b5b80604052505050565b5f610e91610b72565b9050610e9d8282610e57565b919050565b5f67ffffffffffffffff821115610ebc57610ebb610e2a565b5b610ec582610ce7565b9050602081019050919050565b828183375f83830152505050565b5f610ef2610eed84610ea2565b610e88565b905082815260208101848484011115610f0e57610f0d610e26565b5b610f19848285610ed2565b509392505050565b5f82601f830112610f3557610f34610e22565b5b8135610f45848260208601610ee0565b91505092915050565b5f60208284031215610f6357610f62610b7b565b5b5f82013567ffffffffffffffff811115610f8057610f7f610b7f565b5b610f8c84828501610f21565b91505092915050565b610f9e81610d2f565b8114610fa8575f5ffd5b50565b5f81359050610fb981610f95565b92915050565b610fc881610d4d565b8114610fd2575f5ffd5b50565b5f81359050610fe381610fbf565b92915050565b5f5f5f5f5f5f60c0878903121561100357611002610b7b565b5b5f87013567ffffffffffffffff8111156110205761101f610b7f565b5b61102c89828a01610f21565b965050602061103d89828a01610fab565b955050604061104e89828a01610fab565b945050606061105f89828a01610fab565b935050608061107089828a01610fd5565b92505060a061108189828a01610c5b565b9150509295509295509295565b5f6080820190508181035f8301526110a68187610cf7565b90506110b56020830186610d5a565b6110c26040830185610d3e565b6110cf6060830184610d5a565b95945050505050565b6110e181610c00565b81146110eb575f5ffd5b50565b5f813590506110fc816110d8565b92915050565b5f6020828403121561111757611116610b7b565b5b5f611124848285016110ee565b91505092915050565b7f4f7574207769746820726f756e64206c696d69740000000000000000000000005f82015250565b5f611161601483610cc9565b915061116c8261112d565b602082019050919050565b5f6020820190508181035f83015261118e81611155565b9050919050565b7f4e487b71000000000000000000000000000000000000000000000000000000005f52601160045260245ffd5b5f6111cc82610b83565b91506111d783610b83565b92508282039050818111156111ef576111ee611195565b5b92915050565b5f819050919050565b5f61121861121361120e84610c39565b6111f5565b610b83565b9050919050565b611228816111fe565b82525050565b5f6080820190506112415f830187610dde565b61124e6020830186610dde565b61125b6040830185610dde565b611268606083018461121f565b95945050505050565b7f4e487b71000000000000000000000000000000000000000000000000000000005f52602260045260245ffd5b5f60028204905060018216806112b557607f821691505b6020821081036112c8576112c7611271565b5b50919050565b5f819050815f5260205f209050919050565b5f6020601f8301049050919050565b5f82821b905092915050565b5f6008830261132a7fffffffffffffffffffffffffffffffffffffffffffffffffffffffffffffffff826112ef565b61133486836112ef565b95508019841693508086168417925050509392505050565b5f61136661136161135c84610b83565b6111f5565b610b83565b9050919050565b5f819050919050565b61137f8361134c565b61139361138b8261136d565b8484546112fb565b825550505050565b5f5f905090565b6113aa61139b565b6113b5818484611376565b505050565b5b818110156113d8576113cd5f826113a2565b6001810190506113bb565b5050565b601f82111561141d576113ee816112ce565b6113f7846112e0565b81016020851015611406578190505b61141a611412856112e0565b8301826113ba565b50505b505050565b5f82821c905092915050565b5f61143d5f1984600802611422565b1980831691505092915050565b5f611455838361142e565b9150826002028217905092915050565b61146e82610cbf565b67ffffffffffffffff81111561148757611486610e2a565b5b611491825461129e565b61149c8282856113dc565b5f60209050601f8311600181146114cd575f84156114bb578287015190505b6114c5858261144a565b86555061152c565b601f1984166114db866112ce565b5f5b82811015611502578489015182556001820191506020850194506020810190506114dd565b8683101561151f578489015161151b601f89168261142e565b8355505b6001600288020188555050505b505050505050565b5f6040820190506115475f830185610dde565b81810360208301526115598184610cf7565b9050939250505056fea26469706673582212209e898d10ee2c440fae94f92ea6031d9b748be4d0664f6cf1eb81de8ea50501fc64736f6c634300081e0033",
			"opcodes": "PUSH1 0x80 PUSH1 0x40 MSTORE CALLVALUE DUP1 ISZERO PUSH2 0xF JUMPI PUSH0 PUSH0 REVERT JUMPDEST POP CALLER PUSH0 PUSH20 0xFFFFFFFFFFFFFFFFFFFFFFFFFFFFFFFFFFFFFFFF AND DUP2 PUSH20 0xFFFFFFFFFFFFFFFFFFFFFFFFFFFFFFFFFFFFFFFF AND SUB PUSH2 0x81 JUMPI PUSH0 PUSH1 0x40 MLOAD PUSH32 0x1E4FBDF700000000000000000000000000000000000000000000000000000000 DUP2 MSTORE PUSH1 0x4 ADD PUSH2 0x78 SWAP2 SWAP1 PUSH2 0x196 JUMP JUMPDEST PUSH1 0x40 MLOAD DUP1 SWAP2 SUB SWAP1 REVERT JUMPDEST PUSH2 0x90 DUP2 PUSH2 0x96 PUSH1 0x20 SHL PUSH1 0x20 SHR JUMP JUMPDEST POP PUSH2 0x1AF JUMP JUMPDEST PUSH0 PUSH0 PUSH0 SWAP1 SLOAD SWAP1 PUSH2 0x100 EXP SWAP1 DIV PUSH20 0xFFFFFFFFFFFFFFFFFFFFFFFFFFFFFFFFFFFFFFFF AND SWAP1 POP DUP2 PUSH0 PUSH0 PUSH2 0x100 EXP DUP2 SLOAD DUP2 PUSH20 0xFFFFFFFFFFFFFFFFFFFFFFFFFFFFFFFFFFFFFFFF MUL NOT AND SWAP1 DUP4 PUSH20 0xFFFFFFFFFFFFFFFFFFFFFFFFFFFFFFFFFFFFFFFF AND MUL OR SWAP1 SSTORE POP DUP2 PUSH20 0xFFFFFFFFFFFFFFFFFFFFFFFFFFFFFFFFFFFFFFFF AND DUP2 PUSH20 0xFFFFFFFFFFFFFFFFFFFFFFFFFFFFFFFFFFFFFFFF AND PUSH32 0x8BE0079C531659141344CD1FD0A4F28419497F9722A3DAAFE3B4186F6B6457E0 PUSH1 0x40 MLOAD PUSH1 0x40 MLOAD DUP1 SWAP2 SUB SWAP1 LOG3 POP POP JUMP JUMPDEST PUSH0 PUSH20 0xFFFFFFFFFFFFFFFFFFFFFFFFFFFFFFFFFFFFFFFF DUP3 AND SWAP1 POP SWAP2 SWAP1 POP JUMP JUMPDEST PUSH0 PUSH2 0x180 DUP3 PUSH2 0x157 JUMP JUMPDEST SWAP1 POP SWAP2 SWAP1 POP JUMP JUMPDEST PUSH2 0x190 DUP2 PUSH2 0x176 JUMP JUMPDEST DUP3 MSTORE POP POP JUMP JUMPDEST PUSH0 PUSH1 0x20 DUP3 ADD SWAP1 POP PUSH2 0x1A9 PUSH0 DUP4 ADD DUP5 PUSH2 0x187 JUMP JUMPDEST SWAP3 SWAP2 POP POP JUMP JUMPDEST PUSH2 0x1598 DUP1 PUSH2 0x1BC PUSH0 CODECOPY PUSH0 RETURN INVALID PUSH1 0x80 PUSH1 0x40 MSTORE CALLVALUE DUP1 ISZERO PUSH2 0xF JUMPI PUSH0 PUSH0 REVERT JUMPDEST POP PUSH1 0x4 CALLDATASIZE LT PUSH2 0xA7 JUMPI PUSH0 CALLDATALOAD PUSH1 0xE0 SHR DUP1 PUSH4 0x5F6FDDDF GT PUSH2 0x6F JUMPI DUP1 PUSH4 0x5F6FDDDF EQ PUSH2 0x18E JUMPI DUP1 PUSH4 0x715018A6 EQ PUSH2 0x1AA JUMPI DUP1 PUSH4 0x8DA5CB5B EQ PUSH2 0x1B4 JUMPI DUP1 PUSH4 0x9F8E1766 EQ PUSH2 0x1D2 JUMPI DUP1 PUSH4 0xB06B0368 EQ PUSH2 0x1EE JUMPI DUP1 PUSH4 0xF2FDE38B EQ PUSH2 0x221 JUMPI PUSH2 0xA7 JUMP JUMPDEST DUP1 PUSH4 0xD292732 EQ PUSH2 0xAB JUMPI DUP1 PUSH4 0x17961F11 EQ PUSH2 0xDB JUMPI DUP1 PUSH4 0x2E6B221D EQ PUSH2 0xF7 JUMPI DUP1 PUSH4 0x3824FBEC EQ PUSH2 0x12C JUMPI DUP1 PUSH4 0x4768D4EF EQ PUSH2 0x15C JUMPI JUMPDEST PUSH0 PUSH0 REVERT JUMPDEST PUSH2 0xC5 PUSH1 0x4 DUP1 CALLDATASIZE SUB DUP2 ADD SWAP1 PUSH2 0xC0 SWAP2 SWAP1 PUSH2 0xBB6 JUMP JUMPDEST PUSH2 0x23D JUMP JUMPDEST PUSH1 0x40 MLOAD PUSH2 0xD2 SWAP2 SWAP1 PUSH2 0xC20 JUMP JUMPDEST PUSH1 0x40 MLOAD DUP1 SWAP2 SUB SWAP1 RETURN JUMPDEST PUSH2 0xF5 PUSH1 0x4 DUP1 CALLDATASIZE SUB DUP2 ADD SWAP1 PUSH2 0xF0 SWAP2 SWAP1 PUSH2 0xC6F JUMP JUMPDEST PUSH2 0x26D JUMP JUMPDEST STOP JUMPDEST PUSH2 0x111 PUSH1 0x4 DUP1 CALLDATASIZE SUB DUP2 ADD SWAP1 PUSH2 0x10C SWAP2 SWAP1 PUSH2 0xBB6 JUMP JUMPDEST PUSH2 0x395 JUMP JUMPDEST PUSH1 0x40 MLOAD PUSH2 0x123 SWAP7 SWAP6 SWAP5 SWAP4 SWAP3 SWAP2 SWAP1 PUSH2 0xD78 JUMP JUMPDEST PUSH1 0x40 MLOAD DUP1 SWAP2 SUB SWAP1 RETURN JUMPDEST PUSH2 0x146 PUSH1 0x4 DUP1 CALLDATASIZE SUB DUP2 ADD SWAP1 PUSH2 0x141 SWAP2 SWAP1 PUSH2 0xBB6 JUMP JUMPDEST PUSH2 0x4AC JUMP JUMPDEST PUSH1 0x40 MLOAD PUSH2 0x153 SWAP2 SWAP1 PUSH2 0xC20 JUMP JUMPDEST PUSH1 0x40 MLOAD DUP1 SWAP2 SUB SWAP1 RETURN JUMPDEST PUSH2 0x176 PUSH1 0x4 DUP1 CALLDATASIZE SUB DUP2 ADD SWAP1 PUSH2 0x171 SWAP2 SWAP1 PUSH2 0xBB6 JUMP JUMPDEST PUSH2 0x4DC JUMP JUMPDEST PUSH1 0x40 MLOAD PUSH2 0x185 SWAP4 SWAP3 SWAP2 SWAP1 PUSH2 0xDED JUMP JUMPDEST PUSH1 0x40 MLOAD DUP1 SWAP2 SUB SWAP1 RETURN JUMPDEST PUSH2 0x1A8 PUSH1 0x4 DUP1 CALLDATASIZE SUB DUP2 ADD SWAP1 PUSH2 0x1A3 SWAP2 SWAP1 PUSH2 0xF4E JUMP JUMPDEST PUSH2 0x51D JUMP JUMPDEST STOP JUMPDEST PUSH2 0x1B2 PUSH2 0x697 JUMP JUMPDEST STOP JUMPDEST PUSH2 0x1BC PUSH2 0x6AA JUMP JUMPDEST PUSH1 0x40 MLOAD PUSH2 0x1C9 SWAP2 SWAP1 PUSH2 0xC20 JUMP JUMPDEST PUSH1 0x40 MLOAD DUP1 SWAP2 SUB SWAP1 RETURN JUMPDEST PUSH2 0x1EC PUSH1 0x4 DUP1 CALLDATASIZE SUB DUP2 ADD SWAP1 PUSH2 0x1E7 SWAP2 SWAP1 PUSH2 0xFE9 JUMP JUMPDEST PUSH2 0x6D1 JUMP JUMPDEST STOP JUMPDEST PUSH2 0x208 PUSH1 0x4 DUP1 CALLDATASIZE SUB DUP2 ADD SWAP1 PUSH2 0x203 SWAP2 SWAP1 PUSH2 0xBB6 JUMP JUMPDEST PUSH2 0x8B3 JUMP JUMPDEST PUSH1 0x40 MLOAD PUSH2 0x218 SWAP5 SWAP4 SWAP3 SWAP2 SWAP1 PUSH2 0x108E JUMP JUMPDEST PUSH1 0x40 MLOAD DUP1 SWAP2 SUB SWAP1 RETURN JUMPDEST PUSH2 0x23B PUSH1 0x4 DUP1 CALLDATASIZE SUB DUP2 ADD SWAP1 PUSH2 0x236 SWAP2 SWAP1 PUSH2 0x1102 JUMP JUMPDEST PUSH2 0x99F JUMP JUMPDEST STOP JUMPDEST PUSH1 0x2 PUSH1 0x20 MSTORE DUP1 PUSH0 MSTORE PUSH1 0x40 PUSH0 KECCAK256 PUSH0 SWAP2 POP SLOAD SWAP1 PUSH2 0x100 EXP SWAP1 DIV PUSH20 0xFFFFFFFFFFFFFFFFFFFFFFFFFFFFFFFFFFFFFFFF AND DUP2 JUMP JUMPDEST DUP1 PUSH1 0x3 DUP2 PUSH1 0xFF AND EQ DUP1 PUSH2 0x283 JUMPI POP PUSH1 0x5 DUP2 PUSH1 0xFF AND EQ JUMPDEST PUSH2 0x2C2 JUMPI PUSH1 0x40 MLOAD PUSH32 0x8C379A000000000000000000000000000000000000000000000000000000000 DUP2 MSTORE PUSH1 0x4 ADD PUSH2 0x2B9 SWAP1 PUSH2 0x1177 JUMP JUMPDEST PUSH1 0x40 MLOAD DUP1 SWAP2 SUB SWAP1 REVERT JUMPDEST PUSH1 0x7 PUSH1 0x40 MLOAD DUP1 PUSH1 0x60 ADD PUSH1 0x40 MSTORE DUP1 DUP7 DUP2 MSTORE PUSH1 0x20 ADD DUP6 DUP2 MSTORE PUSH1 0x20 ADD DUP5 PUSH1 0xFF AND DUP2 MSTORE POP SWAP1 DUP1 PUSH1 0x1 DUP2 SLOAD ADD DUP1 DUP3 SSTORE DUP1 SWAP2 POP POP PUSH1 0x1 SWAP1 SUB SWAP1 PUSH0 MSTORE PUSH1 0x20 PUSH0 KECCAK256 SWAP1 PUSH1 0x3 MUL ADD PUSH0 SWAP1 SWAP2 SWAP1 SWAP2 SWAP1 SWAP2 POP PUSH0 DUP3 ADD MLOAD DUP2 PUSH0 ADD SSTORE PUSH1 0x20 DUP3 ADD MLOAD DUP2 PUSH1 0x1 ADD SSTORE PUSH1 0x40 DUP3 ADD MLOAD DUP2 PUSH1 0x2 ADD PUSH0 PUSH2 0x100 EXP DUP2 SLOAD DUP2 PUSH1 0xFF MUL NOT AND SWAP1 DUP4 PUSH1 0xFF AND MUL OR SWAP1 SSTORE POP POP POP PUSH0 PUSH1 0x1 PUSH1 0x7 DUP1 SLOAD SWAP1 POP PUSH2 0x34F SWAP2 SWAP1 PUSH2 0x11C2 JUMP JUMPDEST SWAP1 POP PUSH32 0x38380995FD3834D2987FF279FD8BCD57C849D0397C58BB311DCA9B6BC5FEE9AA DUP2 DUP7 DUP7 DUP7 PUSH1 0x40 MLOAD PUSH2 0x386 SWAP5 SWAP4 SWAP3 SWAP2 SWAP1 PUSH2 0x122E JUMP JUMPDEST PUSH1 0x40 MLOAD DUP1 SWAP2 SUB SWAP1 LOG1 POP POP POP POP POP JUMP JUMPDEST PUSH1 0x4 DUP2 DUP2 SLOAD DUP2 LT PUSH2 0x3A4 JUMPI PUSH0 DUP1 REVERT JUMPDEST SWAP1 PUSH0 MSTORE PUSH1 0x20 PUSH0 KECCAK256 SWAP1 PUSH1 0x2 MUL ADD PUSH0 SWAP2 POP SWAP1 POP DUP1 PUSH0 ADD DUP1 SLOAD PUSH2 0x3C3 SWAP1 PUSH2 0x129E JUMP JUMPDEST DUP1 PUSH1 0x1F ADD PUSH1 0x20 DUP1 SWAP2 DIV MUL PUSH1 0x20 ADD PUSH1 0x40 MLOAD SWAP1 DUP2 ADD PUSH1 0x40 MSTORE DUP1 SWAP3 SWAP2 SWAP1 DUP2 DUP2 MSTORE PUSH1 0x20 ADD DUP3 DUP1 SLOAD PUSH2 0x3EF SWAP1 PUSH2 0x129E JUMP JUMPDEST DUP1 ISZERO PUSH2 0x43A JUMPI DUP1 PUSH1 0x1F LT PUSH2 0x411 JUMPI PUSH2 0x100 DUP1 DUP4 SLOAD DIV MUL DUP4 MSTORE SWAP2 PUSH1 0x20 ADD SWAP2 PUSH2 0x43A JUMP JUMPDEST DUP3 ADD SWAP2 SWAP1 PUSH0 MSTORE PUSH1 0x20 PUSH0 KECCAK256 SWAP1 JUMPDEST DUP2 SLOAD DUP2 MSTORE SWAP1 PUSH1 0x1 ADD SWAP1 PUSH1 0x20 ADD DUP1 DUP4 GT PUSH2 0x41D JUMPI DUP3 SWAP1 SUB PUSH1 0x1F AND DUP3 ADD SWAP2 JUMPDEST POP POP POP POP POP SWAP1 DUP1 PUSH1 0x1 ADD PUSH0 SWAP1 SLOAD SWAP1 PUSH2 0x100 EXP SWAP1 DIV PUSH4 0xFFFFFFFF AND SWAP1 DUP1 PUSH1 0x1 ADD PUSH1 0x4 SWAP1 SLOAD SWAP1 PUSH2 0x100 EXP SWAP1 DIV PUSH4 0xFFFFFFFF AND SWAP1 DUP1 PUSH1 0x1 ADD PUSH1 0x8 SWAP1 SLOAD SWAP1 PUSH2 0x100 EXP SWAP1 DIV PUSH4 0xFFFFFFFF AND SWAP1 DUP1 PUSH1 0x1 ADD PUSH1 0xC SWAP1 SLOAD SWAP1 PUSH2 0x100 EXP SWAP1 DIV PUSH2 0xFFFF AND SWAP1 DUP1 PUSH1 0x1 ADD PUSH1 0xE SWAP1 SLOAD SWAP1 PUSH2 0x100 EXP SWAP1 DIV PUSH1 0xFF AND SWAP1 POP DUP7 JUMP JUMPDEST PUSH1 0x5 PUSH1 0x20 MSTORE DUP1 PUSH0 MSTORE PUSH1 0x40 PUSH0 KECCAK256 PUSH0 SWAP2 POP SLOAD SWAP1 PUSH2 0x100 EXP SWAP1 DIV PUSH20 0xFFFFFFFFFFFFFFFFFFFFFFFFFFFFFFFFFFFFFFFF AND DUP2 JUMP JUMPDEST PUSH1 0x7 DUP2 DUP2 SLOAD DUP2 LT PUSH2 0x4EB JUMPI PUSH0 DUP1 REVERT JUMPDEST SWAP1 PUSH0 MSTORE PUSH1 0x20 PUSH0 KECCAK256 SWAP1 PUSH1 0x3 MUL ADD PUSH0 SWAP2 POP SWAP1 POP DUP1 PUSH0 ADD SLOAD SWAP1 DUP1 PUSH1 0x1 ADD SLOAD SWAP1 DUP1 PUSH1 0x2 ADD PUSH0 SWAP1 SLOAD SWAP1 PUSH2 0x100 EXP SWAP1 DIV PUSH1 0xFF AND SWAP1 POP DUP4 JUMP JUMPDEST PUSH1 0x1 PUSH1 0x40 MLOAD DUP1 PUSH1 0x80 ADD PUSH1 0x40 MSTORE DUP1 DUP4 DUP2 MSTORE PUSH1 0x20 ADD PUSH1 0x1 PUSH2 0xFFFF AND DUP2 MSTORE PUSH1 0x20 ADD PUSH0 PUSH4 0xFFFFFFFF AND DUP2 MSTORE PUSH1 0x20 ADD PUSH0 PUSH2 0xFFFF AND DUP2 MSTORE POP SWAP1 DUP1 PUSH1 0x1 DUP2 SLOAD ADD DUP1 DUP3 SSTORE DUP1 SWAP2 POP POP PUSH1 0x1 SWAP1 SUB SWAP1 PUSH0 MSTORE PUSH1 0x20 PUSH0 KECCAK256 SWAP1 PUSH1 0x2 MUL ADD PUSH0 SWAP1 SWAP2 SWAP1 SWAP2 SWAP1 SWAP2 POP PUSH0 DUP3 ADD MLOAD DUP2 PUSH0 ADD SWAP1 DUP2 PUSH2 0x588 SWAP2 SWAP1 PUSH2 0x1465 JUMP JUMPDEST POP PUSH1 0x20 DUP3 ADD MLOAD DUP2 PUSH1 0x1 ADD PUSH0 PUSH2 0x100 EXP DUP2 SLOAD DUP2 PUSH2 0xFFFF MUL NOT AND SWAP1 DUP4 PUSH2 0xFFFF AND MUL OR SWAP1 SSTORE POP PUSH1 0x40 DUP3 ADD MLOAD DUP2 PUSH1 0x1 ADD PUSH1 0x2 PUSH2 0x100 EXP DUP2 SLOAD DUP2 PUSH4 0xFFFFFFFF MUL NOT AND SWAP1 DUP4 PUSH4 0xFFFFFFFF AND MUL OR SWAP1 SSTORE POP PUSH1 0x60 DUP3 ADD MLOAD DUP2 PUSH1 0x1 ADD PUSH1 0x6 PUSH2 0x100 EXP DUP2 SLOAD DUP2 PUSH2 0xFFFF MUL NOT AND SWAP1 DUP4 PUSH2 0xFFFF AND MUL OR SWAP1 SSTORE POP POP POP PUSH0 PUSH1 0x1 DUP1 DUP1 SLOAD SWAP1 POP PUSH2 0x609 SWAP2 SWAP1 PUSH2 0x11C2 JUMP JUMPDEST SWAP1 POP CALLER PUSH1 0x2 PUSH0 DUP4 DUP2 MSTORE PUSH1 0x20 ADD SWAP1 DUP2 MSTORE PUSH1 0x20 ADD PUSH0 KECCAK256 PUSH0 PUSH2 0x100 EXP DUP2 SLOAD DUP2 PUSH20 0xFFFFFFFFFFFFFFFFFFFFFFFFFFFFFFFFFFFFFFFF MUL NOT AND SWAP1 DUP4 PUSH20 0xFFFFFFFFFFFFFFFFFFFFFFFFFFFFFFFFFFFFFFFF AND MUL OR SWAP1 SSTORE POP PUSH32 0x41B82268D4CFCB7BDE62BAE060583C745A4821F267E1FE541B5F624E00D43C7D DUP2 DUP4 PUSH1 0x40 MLOAD PUSH2 0x68B SWAP3 SWAP2 SWAP1 PUSH2 0x1534 JUMP JUMPDEST PUSH1 0x40 MLOAD DUP1 SWAP2 SUB SWAP1 LOG1 POP POP JUMP JUMPDEST PUSH2 0x69F PUSH2 0xA23 JUMP JUMPDEST PUSH2 0x6A8 PUSH0 PUSH2 0xAAA JUMP JUMPDEST JUMP JUMPDEST PUSH0 PUSH0 PUSH0 SWAP1 SLOAD SWAP1 PUSH2 0x100 EXP SWAP1 DIV PUSH20 0xFFFFFFFFFFFFFFFFFFFFFFFFFFFFFFFFFFFFFFFF AND SWAP1 POP SWAP1 JUMP JUMPDEST PUSH1 0x4 PUSH1 0x40 MLOAD DUP1 PUSH1 0xC0 ADD PUSH1 0x40 MSTORE DUP1 DUP9 DUP2 MSTORE PUSH1 0x20 ADD DUP8 PUSH4 0xFFFFFFFF AND DUP2 MSTORE PUSH1 0x20 ADD DUP7 PUSH4 0xFFFFFFFF AND DUP2 MSTORE PUSH1 0x20 ADD DUP6 PUSH4 0xFFFFFFFF AND DUP2 MSTORE PUSH1 0x20 ADD DUP5 PUSH2 0xFFFF AND DUP2 MSTORE PUSH1 0x20 ADD DUP4 PUSH1 0xFF AND DUP2 MSTORE POP SWAP1 DUP1 PUSH1 0x1 DUP2 SLOAD ADD DUP1 DUP3 SSTORE DUP1 SWAP2 POP POP PUSH1 0x1 SWAP1 SUB SWAP1 PUSH0 MSTORE PUSH1 0x20 PUSH0 KECCAK256 SWAP1 PUSH1 0x2 MUL ADD PUSH0 SWAP1 SWAP2 SWAP1 SWAP2 SWAP1 SWAP2 POP PUSH0 DUP3 ADD MLOAD DUP2 PUSH0 ADD SWAP1 DUP2 PUSH2 0x752 SWAP2 SWAP1 PUSH2 0x1465 JUMP JUMPDEST POP PUSH1 0x20 DUP3 ADD MLOAD DUP2 PUSH1 0x1 ADD PUSH0 PUSH2 0x100 EXP DUP2 SLOAD DUP2 PUSH4 0xFFFFFFFF MUL NOT AND SWAP1 DUP4 PUSH4 0xFFFFFFFF AND MUL OR SWAP1 SSTORE POP PUSH1 0x40 DUP3 ADD MLOAD DUP2 PUSH1 0x1 ADD PUSH1 0x4 PUSH2 0x100 EXP DUP2 SLOAD DUP2 PUSH4 0xFFFFFFFF MUL NOT AND SWAP1 DUP4 PUSH4 0xFFFFFFFF AND MUL OR SWAP1 SSTORE POP PUSH1 0x60 DUP3 ADD MLOAD DUP2 PUSH1 0x1 ADD PUSH1 0x8 PUSH2 0x100 EXP DUP2 SLOAD DUP2 PUSH4 0xFFFFFFFF MUL NOT AND SWAP1 DUP4 PUSH4 0xFFFFFFFF AND MUL OR SWAP1 SSTORE POP PUSH1 0x80 DUP3 ADD MLOAD DUP2 PUSH1 0x1 ADD PUSH1 0xC PUSH2 0x100 EXP DUP2 SLOAD DUP2 PUSH2 0xFFFF MUL NOT AND SWAP1 DUP4 PUSH2 0xFFFF AND MUL OR SWAP1 SSTORE POP PUSH1 0xA0 DUP3 ADD MLOAD DUP2 PUSH1 0x1 ADD PUSH1 0xE PUSH2 0x100 EXP DUP2 SLOAD DUP2 PUSH1 0xFF MUL NOT AND SWAP1 DUP4 PUSH1 0xFF AND MUL OR SWAP1 SSTORE POP POP POP PUSH0 PUSH1 0x1 PUSH1 0x4 DUP1 SLOAD SWAP1 POP PUSH2 0x820 SWAP2 SWAP1 PUSH2 0x11C2 JUMP JUMPDEST SWAP1 POP CALLER PUSH1 0x5 PUSH0 DUP4 DUP2 MSTORE PUSH1 0x20 ADD SWAP1 DUP2 MSTORE PUSH1 0x20 ADD PUSH0 KECCAK256 PUSH0 PUSH2 0x100 EXP DUP2 SLOAD DUP2 PUSH20 0xFFFFFFFFFFFFFFFFFFFFFFFFFFFFFFFFFFFFFFFF MUL NOT AND SWAP1 DUP4 PUSH20 0xFFFFFFFFFFFFFFFFFFFFFFFFFFFFFFFFFFFFFFFF AND MUL OR SWAP1 SSTORE POP PUSH32 0xCF0B1657BF9A3ADD4678D1909D3FDCDB613A214497EB0D3C6B946DEE91975838 DUP2 DUP9 PUSH1 0x40 MLOAD PUSH2 0x8A2 SWAP3 SWAP2 SWAP1 PUSH2 0x1534 JUMP JUMPDEST PUSH1 0x40 MLOAD DUP1 SWAP2 SUB SWAP1 LOG1 POP POP POP POP POP POP POP JUMP JUMPDEST PUSH1 0x1 DUP2 DUP2 SLOAD DUP2 LT PUSH2 0x8C2 JUMPI PUSH0 DUP1 REVERT JUMPDEST SWAP1 PUSH0 MSTORE PUSH1 0x20 PUSH0 KECCAK256 SWAP1 PUSH1 0x2 MUL ADD PUSH0 SWAP2 POP SWAP1 POP DUP1 PUSH0 ADD DUP1 SLOAD PUSH2 0x8E1 SWAP1 PUSH2 0x129E JUMP JUMPDEST DUP1 PUSH1 0x1F ADD PUSH1 0x20 DUP1 SWAP2 DIV MUL PUSH1 0x20 ADD PUSH1 0x40 MLOAD SWAP1 DUP2 ADD PUSH1 0x40 MSTORE DUP1 SWAP3 SWAP2 SWAP1 DUP2 DUP2 MSTORE PUSH1 0x20 ADD DUP3 DUP1 SLOAD PUSH2 0x90D SWAP1 PUSH2 0x129E JUMP JUMPDEST DUP1 ISZERO PUSH2 0x958 JUMPI DUP1 PUSH1 0x1F LT PUSH2 0x92F JUMPI PUSH2 0x100 DUP1 DUP4 SLOAD DIV MUL DUP4 MSTORE SWAP2 PUSH1 0x20 ADD SWAP2 PUSH2 0x958 JUMP JUMPDEST DUP3 ADD SWAP2 SWAP1 PUSH0 MSTORE PUSH1 0x20 PUSH0 KECCAK256 SWAP1 JUMPDEST DUP2 SLOAD DUP2 MSTORE SWAP1 PUSH1 0x1 ADD SWAP1 PUSH1 0x20 ADD DUP1 DUP4 GT PUSH2 0x93B JUMPI DUP3 SWAP1 SUB PUSH1 0x1F AND DUP3 ADD SWAP2 JUMPDEST POP POP POP POP POP SWAP1 DUP1 PUSH1 0x1 ADD PUSH0 SWAP1 SLOAD SWAP1 PUSH2 0x100 EXP SWAP1 DIV PUSH2 0xFFFF AND SWAP1 DUP1 PUSH1 0x1 ADD PUSH1 0x2 SWAP1 SLOAD SWAP1 PUSH2 0x100 EXP SWAP1 DIV PUSH4 0xFFFFFFFF AND SWAP1 DUP1 PUSH1 0x1 ADD PUSH1 0x6 SWAP1 SLOAD SWAP1 PUSH2 0x100 EXP SWAP1 DIV PUSH2 0xFFFF AND SWAP1 POP DUP5 JUMP JUMPDEST PUSH2 0x9A7 PUSH2 0xA23 JUMP JUMPDEST PUSH0 PUSH20 0xFFFFFFFFFFFFFFFFFFFFFFFFFFFFFFFFFFFFFFFF AND DUP2 PUSH20 0xFFFFFFFFFFFFFFFFFFFFFFFFFFFFFFFFFFFFFFFF AND SUB PUSH2 0xA17 JUMPI PUSH0 PUSH1 0x40 MLOAD PUSH32 0x1E4FBDF700000000000000000000000000000000000000000000000000000000 DUP2 MSTORE PUSH1 0x4 ADD PUSH2 0xA0E SWAP2 SWAP1 PUSH2 0xC20 JUMP JUMPDEST PUSH1 0x40 MLOAD DUP1 SWAP2 SUB SWAP1 REVERT JUMPDEST PUSH2 0xA20 DUP2 PUSH2 0xAAA JUMP JUMPDEST POP JUMP JUMPDEST PUSH2 0xA2B PUSH2 0xB6B JUMP JUMPDEST PUSH20 0xFFFFFFFFFFFFFFFFFFFFFFFFFFFFFFFFFFFFFFFF AND PUSH2 0xA49 PUSH2 0x6AA JUMP JUMPDEST PUSH20 0xFFFFFFFFFFFFFFFFFFFFFFFFFFFFFFFFFFFFFFFF AND EQ PUSH2 0xAA8 JUMPI PUSH2 0xA6C PUSH2 0xB6B JUMP JUMPDEST PUSH1 0x40 MLOAD PUSH32 0x118CDAA700000000000000000000000000000000000000000000000000000000 DUP2 MSTORE PUSH1 0x4 ADD PUSH2 0xA9F SWAP2 SWAP1 PUSH2 0xC20 JUMP JUMPDEST PUSH1 0x40 MLOAD DUP1 SWAP2 SUB SWAP1 REVERT JUMPDEST JUMP JUMPDEST PUSH0 PUSH0 PUSH0 SWAP1 SLOAD SWAP1 PUSH2 0x100 EXP SWAP1 DIV PUSH20 0xFFFFFFFFFFFFFFFFFFFFFFFFFFFFFFFFFFFFFFFF AND SWAP1 POP DUP2 PUSH0 PUSH0 PUSH2 0x100 EXP DUP2 SLOAD DUP2 PUSH20 0xFFFFFFFFFFFFFFFFFFFFFFFFFFFFFFFFFFFFFFFF MUL NOT AND SWAP1 DUP4 PUSH20 0xFFFFFFFFFFFFFFFFFFFFFFFFFFFFFFFFFFFFFFFF AND MUL OR SWAP1 SSTORE POP DUP2 PUSH20 0xFFFFFFFFFFFFFFFFFFFFFFFFFFFFFFFFFFFFFFFF AND DUP2 PUSH20 0xFFFFFFFFFFFFFFFFFFFFFFFFFFFFFFFFFFFFFFFF AND PUSH32 0x8BE0079C531659141344CD1FD0A4F28419497F9722A3DAAFE3B4186F6B6457E0 PUSH1 0x40 MLOAD PUSH1 0x40 MLOAD DUP1 SWAP2 SUB SWAP1 LOG3 POP POP JUMP JUMPDEST PUSH0 CALLER SWAP1 POP SWAP1 JUMP JUMPDEST PUSH0 PUSH1 0x40 MLOAD SWAP1 POP SWAP1 JUMP JUMPDEST PUSH0 PUSH0 REVERT JUMPDEST PUSH0 PUSH0 REVERT JUMPDEST PUSH0 DUP2 SWAP1 POP SWAP2 SWAP1 POP JUMP JUMPDEST PUSH2 0xB95 DUP2 PUSH2 0xB83 JUMP JUMPDEST DUP2 EQ PUSH2 0xB9F JUMPI PUSH0 PUSH0 REVERT JUMPDEST POP JUMP JUMPDEST PUSH0 DUP2 CALLDATALOAD SWAP1 POP PUSH2 0xBB0 DUP2 PUSH2 0xB8C JUMP JUMPDEST SWAP3 SWAP2 POP POP JUMP JUMPDEST PUSH0 PUSH1 0x20 DUP3 DUP5 SUB SLT ISZERO PUSH2 0xBCB JUMPI PUSH2 0xBCA PUSH2 0xB7B JUMP JUMPDEST JUMPDEST PUSH0 PUSH2 0xBD8 DUP5 DUP3 DUP6 ADD PUSH2 0xBA2 JUMP JUMPDEST SWAP2 POP POP SWAP3 SWAP2 POP POP JUMP JUMPDEST PUSH0 PUSH20 0xFFFFFFFFFFFFFFFFFFFFFFFFFFFFFFFFFFFFFFFF DUP3 AND SWAP1 POP SWAP2 SWAP1 POP JUMP JUMPDEST PUSH0 PUSH2 0xC0A DUP3 PUSH2 0xBE1 JUMP JUMPDEST SWAP1 POP SWAP2 SWAP1 POP JUMP JUMPDEST PUSH2 0xC1A DUP2 PUSH2 0xC00 JUMP JUMPDEST DUP3 MSTORE POP POP JUMP JUMPDEST PUSH0 PUSH1 0x20 DUP3 ADD SWAP1 POP PUSH2 0xC33 PUSH0 DUP4 ADD DUP5 PUSH2 0xC11 JUMP JUMPDEST SWAP3 SWAP2 POP POP JUMP JUMPDEST PUSH0 PUSH1 0xFF DUP3 AND SWAP1 POP SWAP2 SWAP1 POP JUMP JUMPDEST PUSH2 0xC4E DUP2 PUSH2 0xC39 JUMP JUMPDEST DUP2 EQ PUSH2 0xC58 JUMPI PUSH0 PUSH0 REVERT JUMPDEST POP JUMP JUMPDEST PUSH0 DUP2 CALLDATALOAD SWAP1 POP PUSH2 0xC69 DUP2 PUSH2 0xC45 JUMP JUMPDEST SWAP3 SWAP2 POP POP JUMP JUMPDEST PUSH0 PUSH0 PUSH0 PUSH1 0x60 DUP5 DUP7 SUB SLT ISZERO PUSH2 0xC86 JUMPI PUSH2 0xC85 PUSH2 0xB7B JUMP JUMPDEST JUMPDEST PUSH0 PUSH2 0xC93 DUP7 DUP3 DUP8 ADD PUSH2 0xBA2 JUMP JUMPDEST SWAP4 POP POP PUSH1 0x20 PUSH2 0xCA4 DUP7 DUP3 DUP8 ADD PUSH2 0xBA2 JUMP JUMPDEST SWAP3 POP POP PUSH1 0x40 PUSH2 0xCB5 DUP7 DUP3 DUP8 ADD PUSH2 0xC5B JUMP JUMPDEST SWAP2 POP POP SWAP3 POP SWAP3 POP SWAP3 JUMP JUMPDEST PUSH0 DUP2 MLOAD SWAP1 POP SWAP2 SWAP1 POP JUMP JUMPDEST PUSH0 DUP3 DUP3 MSTORE PUSH1 0x20 DUP3 ADD SWAP1 POP SWAP3 SWAP2 POP POP JUMP JUMPDEST DUP3 DUP2 DUP4 MCOPY PUSH0 DUP4 DUP4 ADD MSTORE POP POP POP JUMP JUMPDEST PUSH0 PUSH1 0x1F NOT PUSH1 0x1F DUP4 ADD AND SWAP1 POP SWAP2 SWAP1 POP JUMP JUMPDEST PUSH0 PUSH2 0xD01 DUP3 PUSH2 0xCBF JUMP JUMPDEST PUSH2 0xD0B DUP2 DUP6 PUSH2 0xCC9 JUMP JUMPDEST SWAP4 POP PUSH2 0xD1B DUP2 DUP6 PUSH1 0x20 DUP7 ADD PUSH2 0xCD9 JUMP JUMPDEST PUSH2 0xD24 DUP2 PUSH2 0xCE7 JUMP JUMPDEST DUP5 ADD SWAP2 POP POP SWAP3 SWAP2 POP POP JUMP JUMPDEST PUSH0 PUSH4 0xFFFFFFFF DUP3 AND SWAP1 POP SWAP2 SWAP1 POP JUMP JUMPDEST PUSH2 0xD47 DUP2 PUSH2 0xD2F JUMP JUMPDEST DUP3 MSTORE POP POP JUMP JUMPDEST PUSH0 PUSH2 0xFFFF DUP3 AND SWAP1 POP SWAP2 SWAP1 POP JUMP JUMPDEST PUSH2 0xD63 DUP2 PUSH2 0xD4D JUMP JUMPDEST DUP3 MSTORE POP POP JUMP JUMPDEST PUSH2 0xD72 DUP2 PUSH2 0xC39 JUMP JUMPDEST DUP3 MSTORE POP POP JUMP JUMPDEST PUSH0 PUSH1 0xC0 DUP3 ADD SWAP1 POP DUP2 DUP2 SUB PUSH0 DUP4 ADD MSTORE PUSH2 0xD90 DUP2 DUP10 PUSH2 0xCF7 JUMP JUMPDEST SWAP1 POP PUSH2 0xD9F PUSH1 0x20 DUP4 ADD DUP9 PUSH2 0xD3E JUMP JUMPDEST PUSH2 0xDAC PUSH1 0x40 DUP4 ADD DUP8 PUSH2 0xD3E JUMP JUMPDEST PUSH2 0xDB9 PUSH1 0x60 DUP4 ADD DUP7 PUSH2 0xD3E JUMP JUMPDEST PUSH2 0xDC6 PUSH1 0x80 DUP4 ADD DUP6 PUSH2 0xD5A JUMP JUMPDEST PUSH2 0xDD3 PUSH1 0xA0 DUP4 ADD DUP5 PUSH2 0xD69 JUMP JUMPDEST SWAP8 SWAP7 POP POP POP POP POP POP POP JUMP JUMPDEST PUSH2 0xDE7 DUP2 PUSH2 0xB83 JUMP JUMPDEST DUP3 MSTORE POP POP JUMP JUMPDEST PUSH0 PUSH1 0x60 DUP3 ADD SWAP1 POP PUSH2 0xE00 PUSH0 DUP4 ADD DUP7 PUSH2 0xDDE JUMP JUMPDEST PUSH2 0xE0D PUSH1 0x20 DUP4 ADD DUP6 PUSH2 0xDDE JUMP JUMPDEST PUSH2 0xE1A PUSH1 0x40 DUP4 ADD DUP5 PUSH2 0xD69 JUMP JUMPDEST SWAP5 SWAP4 POP POP POP POP JUMP JUMPDEST PUSH0 PUSH0 REVERT JUMPDEST PUSH0 PUSH0 REVERT JUMPDEST PUSH32 0x4E487B7100000000000000000000000000000000000000000000000000000000 PUSH0 MSTORE PUSH1 0x41 PUSH1 0x4 MSTORE PUSH1 0x24 PUSH0 REVERT JUMPDEST PUSH2 0xE60 DUP3 PUSH2 0xCE7 JUMP JUMPDEST DUP2 ADD DUP2 DUP2 LT PUSH8 0xFFFFFFFFFFFFFFFF DUP3 GT OR ISZERO PUSH2 0xE7F JUMPI PUSH2 0xE7E PUSH2 0xE2A JUMP JUMPDEST JUMPDEST DUP1 PUSH1 0x40 MSTORE POP POP POP JUMP JUMPDEST PUSH0 PUSH2 0xE91 PUSH2 0xB72 JUMP JUMPDEST SWAP1 POP PUSH2 0xE9D DUP3 DUP3 PUSH2 0xE57 JUMP JUMPDEST SWAP2 SWAP1 POP JUMP JUMPDEST PUSH0 PUSH8 0xFFFFFFFFFFFFFFFF DUP3 GT ISZERO PUSH2 0xEBC JUMPI PUSH2 0xEBB PUSH2 0xE2A JUMP JUMPDEST JUMPDEST PUSH2 0xEC5 DUP3 PUSH2 0xCE7 JUMP JUMPDEST SWAP1 POP PUSH1 0x20 DUP2 ADD SWAP1 POP SWAP2 SWAP1 POP JUMP JUMPDEST DUP3 DUP2 DUP4 CALLDATACOPY PUSH0 DUP4 DUP4 ADD MSTORE POP POP POP JUMP JUMPDEST PUSH0 PUSH2 0xEF2 PUSH2 0xEED DUP5 PUSH2 0xEA2 JUMP JUMPDEST PUSH2 0xE88 JUMP JUMPDEST SWAP1 POP DUP3 DUP2 MSTORE PUSH1 0x20 DUP2 ADD DUP5 DUP5 DUP5 ADD GT ISZERO PUSH2 0xF0E JUMPI PUSH2 0xF0D PUSH2 0xE26 JUMP JUMPDEST JUMPDEST PUSH2 0xF19 DUP5 DUP3 DUP6 PUSH2 0xED2 JUMP JUMPDEST POP SWAP4 SWAP3 POP POP POP JUMP JUMPDEST PUSH0 DUP3 PUSH1 0x1F DUP4 ADD SLT PUSH2 0xF35 JUMPI PUSH2 0xF34 PUSH2 0xE22 JUMP JUMPDEST JUMPDEST DUP2 CALLDATALOAD PUSH2 0xF45 DUP5 DUP3 PUSH1 0x20 DUP7 ADD PUSH2 0xEE0 JUMP JUMPDEST SWAP2 POP POP SWAP3 SWAP2 POP POP JUMP JUMPDEST PUSH0 PUSH1 0x20 DUP3 DUP5 SUB SLT ISZERO PUSH2 0xF63 JUMPI PUSH2 0xF62 PUSH2 0xB7B JUMP JUMPDEST JUMPDEST PUSH0 DUP3 ADD CALLDATALOAD PUSH8 0xFFFFFFFFFFFFFFFF DUP2 GT ISZERO PUSH2 0xF80 JUMPI PUSH2 0xF7F PUSH2 0xB7F JUMP JUMPDEST JUMPDEST PUSH2 0xF8C DUP5 DUP3 DUP6 ADD PUSH2 0xF21 JUMP JUMPDEST SWAP2 POP POP SWAP3 SWAP2 POP POP JUMP JUMPDEST PUSH2 0xF9E DUP2 PUSH2 0xD2F JUMP JUMPDEST DUP2 EQ PUSH2 0xFA8 JUMPI PUSH0 PUSH0 REVERT JUMPDEST POP JUMP JUMPDEST PUSH0 DUP2 CALLDATALOAD SWAP1 POP PUSH2 0xFB9 DUP2 PUSH2 0xF95 JUMP JUMPDEST SWAP3 SWAP2 POP POP JUMP JUMPDEST PUSH2 0xFC8 DUP2 PUSH2 0xD4D JUMP JUMPDEST DUP2 EQ PUSH2 0xFD2 JUMPI PUSH0 PUSH0 REVERT JUMPDEST POP JUMP JUMPDEST PUSH0 DUP2 CALLDATALOAD SWAP1 POP PUSH2 0xFE3 DUP2 PUSH2 0xFBF JUMP JUMPDEST SWAP3 SWAP2 POP POP JUMP JUMPDEST PUSH0 PUSH0 PUSH0 PUSH0 PUSH0 PUSH0 PUSH1 0xC0 DUP8 DUP10 SUB SLT ISZERO PUSH2 0x1003 JUMPI PUSH2 0x1002 PUSH2 0xB7B JUMP JUMPDEST JUMPDEST PUSH0 DUP8 ADD CALLDATALOAD PUSH8 0xFFFFFFFFFFFFFFFF DUP2 GT ISZERO PUSH2 0x1020 JUMPI PUSH2 0x101F PUSH2 0xB7F JUMP JUMPDEST JUMPDEST PUSH2 0x102C DUP10 DUP3 DUP11 ADD PUSH2 0xF21 JUMP JUMPDEST SWAP7 POP POP PUSH1 0x20 PUSH2 0x103D DUP10 DUP3 DUP11 ADD PUSH2 0xFAB JUMP JUMPDEST SWAP6 POP POP PUSH1 0x40 PUSH2 0x104E DUP10 DUP3 DUP11 ADD PUSH2 0xFAB JUMP JUMPDEST SWAP5 POP POP PUSH1 0x60 PUSH2 0x105F DUP10 DUP3 DUP11 ADD PUSH2 0xFAB JUMP JUMPDEST SWAP4 POP POP PUSH1 0x80 PUSH2 0x1070 DUP10 DUP3 DUP11 ADD PUSH2 0xFD5 JUMP JUMPDEST SWAP3 POP POP PUSH1 0xA0 PUSH2 0x1081 DUP10 DUP3 DUP11 ADD PUSH2 0xC5B JUMP JUMPDEST SWAP2 POP POP SWAP3 SWAP6 POP SWAP3 SWAP6 POP SWAP3 SWAP6 JUMP JUMPDEST PUSH0 PUSH1 0x80 DUP3 ADD SWAP1 POP DUP2 DUP2 SUB PUSH0 DUP4 ADD MSTORE PUSH2 0x10A6 DUP2 DUP8 PUSH2 0xCF7 JUMP JUMPDEST SWAP1 POP PUSH2 0x10B5 PUSH1 0x20 DUP4 ADD DUP7 PUSH2 0xD5A JUMP JUMPDEST PUSH2 0x10C2 PUSH1 0x40 DUP4 ADD DUP6 PUSH2 0xD3E JUMP JUMPDEST PUSH2 0x10CF PUSH1 0x60 DUP4 ADD DUP5 PUSH2 0xD5A JUMP JUMPDEST SWAP6 SWAP5 POP POP POP POP POP JUMP JUMPDEST PUSH2 0x10E1 DUP2 PUSH2 0xC00 JUMP JUMPDEST DUP2 EQ PUSH2 0x10EB JUMPI PUSH0 PUSH0 REVERT JUMPDEST POP JUMP JUMPDEST PUSH0 DUP2 CALLDATALOAD SWAP1 POP PUSH2 0x10FC DUP2 PUSH2 0x10D8 JUMP JUMPDEST SWAP3 SWAP2 POP POP JUMP JUMPDEST PUSH0 PUSH1 0x20 DUP3 DUP5 SUB SLT ISZERO PUSH2 0x1117 JUMPI PUSH2 0x1116 PUSH2 0xB7B JUMP JUMPDEST JUMPDEST PUSH0 PUSH2 0x1124 DUP5 DUP3 DUP6 ADD PUSH2 0x10EE JUMP JUMPDEST SWAP2 POP POP SWAP3 SWAP2 POP POP JUMP JUMPDEST PUSH32 0x4F7574207769746820726F756E64206C696D6974000000000000000000000000 PUSH0 DUP3 ADD MSTORE POP JUMP JUMPDEST PUSH0 PUSH2 0x1161 PUSH1 0x14 DUP4 PUSH2 0xCC9 JUMP JUMPDEST SWAP2 POP PUSH2 0x116C DUP3 PUSH2 0x112D JUMP JUMPDEST PUSH1 0x20 DUP3 ADD SWAP1 POP SWAP2 SWAP1 POP JUMP JUMPDEST PUSH0 PUSH1 0x20 DUP3 ADD SWAP1 POP DUP2 DUP2 SUB PUSH0 DUP4 ADD MSTORE PUSH2 0x118E DUP2 PUSH2 0x1155 JUMP JUMPDEST SWAP1 POP SWAP2 SWAP1 POP JUMP JUMPDEST PUSH32 0x4E487B7100000000000000000000000000000000000000000000000000000000 PUSH0 MSTORE PUSH1 0x11 PUSH1 0x4 MSTORE PUSH1 0x24 PUSH0 REVERT JUMPDEST PUSH0 PUSH2 0x11CC DUP3 PUSH2 0xB83 JUMP JUMPDEST SWAP2 POP PUSH2 0x11D7 DUP4 PUSH2 0xB83 JUMP JUMPDEST SWAP3 POP DUP3 DUP3 SUB SWAP1 POP DUP2 DUP2 GT ISZERO PUSH2 0x11EF JUMPI PUSH2 0x11EE PUSH2 0x1195 JUMP JUMPDEST JUMPDEST SWAP3 SWAP2 POP POP JUMP JUMPDEST PUSH0 DUP2 SWAP1 POP SWAP2 SWAP1 POP JUMP JUMPDEST PUSH0 PUSH2 0x1218 PUSH2 0x1213 PUSH2 0x120E DUP5 PUSH2 0xC39 JUMP JUMPDEST PUSH2 0x11F5 JUMP JUMPDEST PUSH2 0xB83 JUMP JUMPDEST SWAP1 POP SWAP2 SWAP1 POP JUMP JUMPDEST PUSH2 0x1228 DUP2 PUSH2 0x11FE JUMP JUMPDEST DUP3 MSTORE POP POP JUMP JUMPDEST PUSH0 PUSH1 0x80 DUP3 ADD SWAP1 POP PUSH2 0x1241 PUSH0 DUP4 ADD DUP8 PUSH2 0xDDE JUMP JUMPDEST PUSH2 0x124E PUSH1 0x20 DUP4 ADD DUP7 PUSH2 0xDDE JUMP JUMPDEST PUSH2 0x125B PUSH1 0x40 DUP4 ADD DUP6 PUSH2 0xDDE JUMP JUMPDEST PUSH2 0x1268 PUSH1 0x60 DUP4 ADD DUP5 PUSH2 0x121F JUMP JUMPDEST SWAP6 SWAP5 POP POP POP POP POP JUMP JUMPDEST PUSH32 0x4E487B7100000000000000000000000000000000000000000000000000000000 PUSH0 MSTORE PUSH1 0x22 PUSH1 0x4 MSTORE PUSH1 0x24 PUSH0 REVERT JUMPDEST PUSH0 PUSH1 0x2 DUP3 DIV SWAP1 POP PUSH1 0x1 DUP3 AND DUP1 PUSH2 0x12B5 JUMPI PUSH1 0x7F DUP3 AND SWAP2 POP JUMPDEST PUSH1 0x20 DUP3 LT DUP2 SUB PUSH2 0x12C8 JUMPI PUSH2 0x12C7 PUSH2 0x1271 JUMP JUMPDEST JUMPDEST POP SWAP2 SWAP1 POP JUMP JUMPDEST PUSH0 DUP2 SWAP1 POP DUP2 PUSH0 MSTORE PUSH1 0x20 PUSH0 KECCAK256 SWAP1 POP SWAP2 SWAP1 POP JUMP JUMPDEST PUSH0 PUSH1 0x20 PUSH1 0x1F DUP4 ADD DIV SWAP1 POP SWAP2 SWAP1 POP JUMP JUMPDEST PUSH0 DUP3 DUP3 SHL SWAP1 POP SWAP3 SWAP2 POP POP JUMP JUMPDEST PUSH0 PUSH1 0x8 DUP4 MUL PUSH2 0x132A PUSH32 0xFFFFFFFFFFFFFFFFFFFFFFFFFFFFFFFFFFFFFFFFFFFFFFFFFFFFFFFFFFFFFFFF DUP3 PUSH2 0x12EF JUMP JUMPDEST PUSH2 0x1334 DUP7 DUP4 PUSH2 0x12EF JUMP JUMPDEST SWAP6 POP DUP1 NOT DUP5 AND SWAP4 POP DUP1 DUP7 AND DUP5 OR SWAP3 POP POP POP SWAP4 SWAP3 POP POP POP JUMP JUMPDEST PUSH0 PUSH2 0x1366 PUSH2 0x1361 PUSH2 0x135C DUP5 PUSH2 0xB83 JUMP JUMPDEST PUSH2 0x11F5 JUMP JUMPDEST PUSH2 0xB83 JUMP JUMPDEST SWAP1 POP SWAP2 SWAP1 POP JUMP JUMPDEST PUSH0 DUP2 SWAP1 POP SWAP2 SWAP1 POP JUMP JUMPDEST PUSH2 0x137F DUP4 PUSH2 0x134C JUMP JUMPDEST PUSH2 0x1393 PUSH2 0x138B DUP3 PUSH2 0x136D JUMP JUMPDEST DUP5 DUP5 SLOAD PUSH2 0x12FB JUMP JUMPDEST DUP3 SSTORE POP POP POP POP JUMP JUMPDEST PUSH0 PUSH0 SWAP1 POP SWAP1 JUMP JUMPDEST PUSH2 0x13AA PUSH2 0x139B JUMP JUMPDEST PUSH2 0x13B5 DUP2 DUP5 DUP5 PUSH2 0x1376 JUMP JUMPDEST POP POP POP JUMP JUMPDEST JUMPDEST DUP2 DUP2 LT ISZERO PUSH2 0x13D8 JUMPI PUSH2 0x13CD PUSH0 DUP3 PUSH2 0x13A2 JUMP JUMPDEST PUSH1 0x1 DUP2 ADD SWAP1 POP PUSH2 0x13BB JUMP JUMPDEST POP POP JUMP JUMPDEST PUSH1 0x1F DUP3 GT ISZERO PUSH2 0x141D JUMPI PUSH2 0x13EE DUP2 PUSH2 0x12CE JUMP JUMPDEST PUSH2 0x13F7 DUP5 PUSH2 0x12E0 JUMP JUMPDEST DUP2 ADD PUSH1 0x20 DUP6 LT ISZERO PUSH2 0x1406 JUMPI DUP2 SWAP1 POP JUMPDEST PUSH2 0x141A PUSH2 0x1412 DUP6 PUSH2 0x12E0 JUMP JUMPDEST DUP4 ADD DUP3 PUSH2 0x13BA JUMP JUMPDEST POP POP JUMPDEST POP POP POP JUMP JUMPDEST PUSH0 DUP3 DUP3 SHR SWAP1 POP SWAP3 SWAP2 POP POP JUMP JUMPDEST PUSH0 PUSH2 0x143D PUSH0 NOT DUP5 PUSH1 0x8 MUL PUSH2 0x1422 JUMP JUMPDEST NOT DUP1 DUP4 AND SWAP2 POP POP SWAP3 SWAP2 POP POP JUMP JUMPDEST PUSH0 PUSH2 0x1455 DUP4 DUP4 PUSH2 0x142E JUMP JUMPDEST SWAP2 POP DUP3 PUSH1 0x2 MUL DUP3 OR SWAP1 POP SWAP3 SWAP2 POP POP JUMP JUMPDEST PUSH2 0x146E DUP3 PUSH2 0xCBF JUMP JUMPDEST PUSH8 0xFFFFFFFFFFFFFFFF DUP2 GT ISZERO PUSH2 0x1487 JUMPI PUSH2 0x1486 PUSH2 0xE2A JUMP JUMPDEST JUMPDEST PUSH2 0x1491 DUP3 SLOAD PUSH2 0x129E JUMP JUMPDEST PUSH2 0x149C DUP3 DUP3 DUP6 PUSH2 0x13DC JUMP JUMPDEST PUSH0 PUSH1 0x20 SWAP1 POP PUSH1 0x1F DUP4 GT PUSH1 0x1 DUP2 EQ PUSH2 0x14CD JUMPI PUSH0 DUP5 ISZERO PUSH2 0x14BB JUMPI DUP3 DUP8 ADD MLOAD SWAP1 POP JUMPDEST PUSH2 0x14C5 DUP6 DUP3 PUSH2 0x144A JUMP JUMPDEST DUP7 SSTORE POP PUSH2 0x152C JUMP JUMPDEST PUSH1 0x1F NOT DUP5 AND PUSH2 0x14DB DUP7 PUSH2 0x12CE JUMP JUMPDEST PUSH0 JUMPDEST DUP3 DUP2 LT ISZERO PUSH2 0x1502 JUMPI DUP5 DUP10 ADD MLOAD DUP3 SSTORE PUSH1 0x1 DUP3 ADD SWAP2 POP PUSH1 0x20 DUP6 ADD SWAP5 POP PUSH1 0x20 DUP2 ADD SWAP1 POP PUSH2 0x14DD JUMP JUMPDEST DUP7 DUP4 LT ISZERO PUSH2 0x151F JUMPI DUP5 DUP10 ADD MLOAD PUSH2 0x151B PUSH1 0x1F DUP10 AND DUP3 PUSH2 0x142E JUMP JUMPDEST DUP4 SSTORE POP JUMPDEST PUSH1 0x1 PUSH1 0x2 DUP9 MUL ADD DUP9 SSTORE POP POP POP JUMPDEST POP POP POP POP POP POP JUMP JUMPDEST PUSH0 PUSH1 0x40 DUP3 ADD SWAP1 POP PUSH2 0x1547 PUSH0 DUP4 ADD DUP6 PUSH2 0xDDE JUMP JUMPDEST DUP2 DUP2 SUB PUSH1 0x20 DUP4 ADD MSTORE PUSH2 0x1559 DUP2 DUP5 PUSH2 0xCF7 JUMP JUMPDEST SWAP1 POP SWAP4 SWAP3 POP POP POP JUMP INVALID LOG2 PUSH5 0x6970667358 0x22 SLT KECCAK256 SWAP15 DUP10 DUP14 LT RETURNCONTRACT 0x2C PREVRANDAO 0xF 0xAE SWAP5 EXTDELEGATECALL 0x2E 0xA6 SUB SAR SWAP12 PUSH21 0x8BE4D0664F6CF1EB81DE8EA50501FC64736F6C6343 STOP ADDMOD 0x1E STOP CALLER "
		},
		"gasEstimates": {
			"creation": {
				"codeDepositCost": "1105600",
				"executionCost": "infinite",
				"totalCost": "infinite"
			},
			"external": {
				"_registerJudge(string)": "infinite",
				"_registerMMAFighter(string,uint32,uint32,uint32,uint16,uint8)": "infinite",
				"fighterToOwner(uint256)": "2894",
				"fighters(uint256)": "infinite",
				"judgeToOwner(uint256)": "2828",
				"judges(uint256)": "infinite",
				"matches(uint256)": "infinite",
				"owner()": "2558",
				"renounceOwnership()": "infinite",
				"setMatch(uint256,uint256,uint8)": "infinite",
				"transferOwnership(address)": "infinite"
			}
		},
		"methodIdentifiers": {
			"_registerJudge(string)": "5f6fdddf",
			"_registerMMAFighter(string,uint32,uint32,uint32,uint16,uint8)": "9f8e1766",
			"fighterToOwner(uint256)": "3824fbec",
			"fighters(uint256)": "2e6b221d",
			"judgeToOwner(uint256)": "0d292732",
			"judges(uint256)": "b06b0368",
			"matches(uint256)": "4768d4ef",
			"owner()": "8da5cb5b",
			"renounceOwnership()": "715018a6",
			"setMatch(uint256,uint256,uint8)": "17961f11",
			"transferOwnership(address)": "f2fde38b"
		}
	},
	"abi": [
		{
			"inputs": [
				{
					"internalType": "address",
					"name": "owner",
					"type": "address"
				}
			],
			"name": "OwnableInvalidOwner",
			"type": "error"
		},
		{
			"inputs": [
				{
					"internalType": "address",
					"name": "account",
					"type": "address"
				}
			],
			"name": "OwnableUnauthorizedAccount",
			"type": "error"
		},
		{
			"anonymous": false,
			"inputs": [
				{
					"indexed": false,
					"internalType": "uint256",
					"name": "fighterId",
					"type": "uint256"
				},
				{
					"indexed": false,
					"internalType": "string",
					"name": "fighterName",
					"type": "string"
				}
			],
			"name": "NewFighter",
			"type": "event"
		},
		{
			"anonymous": false,
			"inputs": [
				{
					"indexed": false,
					"internalType": "uint256",
					"name": "judgeId",
					"type": "uint256"
				},
				{
					"indexed": false,
					"internalType": "string",
					"name": "judgeName",
					"type": "string"
				}
			],
			"name": "NewJudge",
			"type": "event"
		},
		{
			"anonymous": false,
			"inputs": [
				{
					"indexed": false,
					"internalType": "uint256",
					"name": "_matchId",
					"type": "uint256"
				},
				{
					"indexed": false,
					"internalType": "uint256",
					"name": "_fighterAId",
					"type": "uint256"
				},
				{
					"indexed": false,
					"internalType": "uint256",
					"name": "_fighterBId",
					"type": "uint256"
				},
				{
					"indexed": false,
					"internalType": "uint256",
					"name": "_rounds",
					"type": "uint256"
				}
			],
			"name": "NewMatch",
			"type": "event"
		},
		{
			"anonymous": false,
			"inputs": [
				{
					"indexed": true,
					"internalType": "address",
					"name": "previousOwner",
					"type": "address"
				},
				{
					"indexed": true,
					"internalType": "address",
					"name": "newOwner",
					"type": "address"
				}
			],
			"name": "OwnershipTransferred",
			"type": "event"
		},
		{
			"inputs": [
				{
					"internalType": "string",
					"name": "_name",
					"type": "string"
				}
			],
			"name": "_registerJudge",
			"outputs": [],
			"stateMutability": "nonpayable",
			"type": "function"
		},
		{
			"inputs": [
				{
					"internalType": "string",
					"name": "_name",
					"type": "string"
				},
				{
					"internalType": "uint32",
					"name": "_wins",
					"type": "uint32"
				},
				{
					"internalType": "uint32",
					"name": "_losses",
					"type": "uint32"
				},
				{
					"internalType": "uint32",
					"name": "_draws",
					"type": "uint32"
				},
				{
					"internalType": "uint16",
					"name": "_nc",
					"type": "uint16"
				},
				{
					"internalType": "uint8",
					"name": "_weight",
					"type": "uint8"
				}
			],
			"name": "_registerMMAFighter",
			"outputs": [],
			"stateMutability": "nonpayable",
			"type": "function"
		},
		{
			"inputs": [
				{
					"internalType": "uint256",
					"name": "",
					"type": "uint256"
				}
			],
			"name": "fighterToOwner",
			"outputs": [
				{
					"internalType": "address",
					"name": "",
					"type": "address"
				}
			],
			"stateMutability": "view",
			"type": "function"
		},
		{
			"inputs": [
				{
					"internalType": "uint256",
					"name": "",
					"type": "uint256"
				}
			],
			"name": "fighters",
			"outputs": [
				{
					"internalType": "string",
					"name": "name",
					"type": "string"
				},
				{
					"internalType": "uint32",
					"name": "win",
					"type": "uint32"
				},
				{
					"internalType": "uint32",
					"name": "loss",
					"type": "uint32"
				},
				{
					"internalType": "uint32",
					"name": "draw",
					"type": "uint32"
				},
				{
					"internalType": "uint16",
					"name": "noContest",
					"type": "uint16"
				},
				{
					"internalType": "uint8",
					"name": "weightCategoryLbs",
					"type": "uint8"
				}
			],
			"stateMutability": "view",
			"type": "function"
		},
		{
			"inputs": [
				{
					"internalType": "uint256",
					"name": "",
					"type": "uint256"
				}
			],
			"name": "judgeToOwner",
			"outputs": [
				{
					"internalType": "address",
					"name": "",
					"type": "address"
				}
			],
			"stateMutability": "view",
			"type": "function"
		},
		{
			"inputs": [
				{
					"internalType": "uint256",
					"name": "",
					"type": "uint256"
				}
			],
			"name": "judges",
			"outputs": [
				{
					"internalType": "string",
					"name": "name",
					"type": "string"
				},
				{
					"internalType": "uint16",
					"name": "rank",
					"type": "uint16"
				},
				{
					"internalType": "uint32",
					"name": "rightDecision",
					"type": "uint32"
				},
				{
					"internalType": "uint16",
					"name": "wrongDecision",
					"type": "uint16"
				}
			],
			"stateMutability": "view",
			"type": "function"
		},
		{
			"inputs": [
				{
					"internalType": "uint256",
					"name": "",
					"type": "uint256"
				}
			],
			"name": "matches",
			"outputs": [
				{
					"internalType": "uint256",
					"name": "fighterAId",
					"type": "uint256"
				},
				{
					"internalType": "uint256",
					"name": "fighterBId",
					"type": "uint256"
				},
				{
					"internalType": "uint8",
					"name": "rounds",
					"type": "uint8"
				}
			],
			"stateMutability": "view",
			"type": "function"
		},
		{
			"inputs": [],
			"name": "owner",
			"outputs": [
				{
					"internalType": "address",
					"name": "",
					"type": "address"
				}
			],
			"stateMutability": "view",
			"type": "function"
		},
		{
			"inputs": [],
			"name": "renounceOwnership",
			"outputs": [],
			"stateMutability": "nonpayable",
			"type": "function"
		},
		{
			"inputs": [
				{
					"internalType": "uint256",
					"name": "_fighterAId",
					"type": "uint256"
				},
				{
					"internalType": "uint256",
					"name": "_fighterBId",
					"type": "uint256"
				},
				{
					"internalType": "uint8",
					"name": "_rounds",
					"type": "uint8"
				}
			],
			"name": "setMatch",
			"outputs": [],
			"stateMutability": "nonpayable",
			"type": "function"
		},
		{
			"inputs": [
				{
					"internalType": "address",
					"name": "newOwner",
					"type": "address"
				}
			],
			"name": "transferOwnership",
			"outputs": [],
			"stateMutability": "nonpayable",
			"type": "function"
		}
	]
}