{
	"data": {
		"bytecode": {
			"linkReferences": {},
			"object": "608060405234801561000f575f5ffd5b50335f73ffffffffffffffffffffffffffffffffffffffff168173ffffffffffffffffffffffffffffffffffffffff1603610081575f6040517f1e4fbdf70000000000000000000000000000000000000000000000000000000081526004016100789190610196565b60405180910390fd5b6100908161009660201b60201c565b506101af565b5f5f5f9054906101000a900473ffffffffffffffffffffffffffffffffffffffff169050815f5f6101000a81548173ffffffffffffffffffffffffffffffffffffffff021916908373ffffffffffffffffffffffffffffffffffffffff1602179055508173ffffffffffffffffffffffffffffffffffffffff168173ffffffffffffffffffffffffffffffffffffffff167f8be0079c531659141344cd1fd0a4f28419497f9722a3daafe3b4186f6b6457e060405160405180910390a35050565b5f73ffffffffffffffffffffffffffffffffffffffff82169050919050565b5f61018082610157565b9050919050565b61019081610176565b82525050565b5f6020820190506101a95f830184610187565b92915050565b611296806101bc5f395ff3fe608060405234801561000f575f5ffd5b506004361061009c575f3560e01c80635f6fdddf116100645780635f6fdddf14610183578063715018a61461019f5780638da5cb5b146101a9578063b06b0368146101c7578063f2fde38b146101fa5761009c565b80630d292732146100a057806317961f11146100d05780632e6b221d146100ec5780633824fbec146101215780634768d4ef14610151575b5f5ffd5b6100ba60048036038101906100b591906109ad565b610216565b6040516100c79190610a17565b60405180910390f35b6100ea60048036038101906100e59190610a66565b610246565b005b610106600480360381019061010191906109ad565b61036e565b60405161011896959493929190610b6f565b60405180910390f35b61013b600480360381019061013691906109ad565b610485565b6040516101489190610a17565b60405180910390f35b61016b600480360381019061016691906109ad565b6104b5565b60405161017a93929190610be4565b60405180910390f35b61019d60048036038101906101989190610d45565b6104f6565b005b6101a7610670565b005b6101b1610683565b6040516101be9190610a17565b60405180910390f35b6101e160048036038101906101dc91906109ad565b6106aa565b6040516101f19493929190610d8c565b60405180910390f35b610214600480360381019061020f9190610e00565b610796565b005b6002602052805f5260405f205f915054906101000a900473ffffffffffffffffffffffffffffffffffffffff1681565b8060038160ff16148061025c575060058160ff16145b61029b576040517f08c379a000000000000000000000000000000000000000000000000000000000815260040161029290610e75565b60405180910390fd5b600760405180606001604052808681526020018581526020018460ff16815250908060018154018082558091505060019003905f5260205f2090600302015f909190919091505f820151815f0155602082015181600101556040820151816002015f6101000a81548160ff021916908360ff16021790555050505f60016007805490506103289190610ec0565b90507f38380995fd3834d2987ff279fd8bcd57c849d0397c58bb311dca9b6bc5fee9aa8186868660405161035f9493929190610f2c565b60405180910390a15050505050565b6004818154811061037d575f80fd5b905f5260205f2090600202015f91509050805f01805461039c90610f9c565b80601f01602080910402602001604051908101604052809291908181526020018280546103c890610f9c565b80156104135780601f106103ea57610100808354040283529160200191610413565b820191905f5260205f20905b8154815290600101906020018083116103f657829003601f168201915b505050505090806001015f9054906101000a900463ffffffff16908060010160049054906101000a900463ffffffff16908060010160089054906101000a900463ffffffff169080600101600c9054906101000a900461ffff169080600101600e9054906101000a900460ff16905086565b6005602052805f5260405f205f915054906101000a900473ffffffffffffffffffffffffffffffffffffffff1681565b600781815481106104c4575f80fd5b905f5260205f2090600302015f91509050805f015490806001015490806002015f9054906101000a900460ff16905083565b60016040518060800160405280838152602001600161ffff1681526020015f63ffffffff1681526020015f61ffff16815250908060018154018082558091505060019003905f5260205f2090600202015f909190919091505f820151815f0190816105619190611163565b506020820151816001015f6101000a81548161ffff021916908361ffff16021790555060408201518160010160026101000a81548163ffffffff021916908363ffffffff16021790555060608201518160010160066101000a81548161ffff021916908361ffff16021790555050505f600180805490506105e29190610ec0565b90503360025f8381526020019081526020015f205f6101000a81548173ffffffffffffffffffffffffffffffffffffffff021916908373ffffffffffffffffffffffffffffffffffffffff1602179055507f41b82268d4cfcb7bde62bae060583c745a4821f267e1fe541b5f624e00d43c7d8183604051610664929190611232565b60405180910390a15050565b61067861081a565b6106815f6108a1565b565b5f5f5f9054906101000a900473ffffffffffffffffffffffffffffffffffffffff16905090565b600181815481106106b9575f80fd5b905f5260205f2090600202015f91509050805f0180546106d890610f9c565b80601f016020809104026020016040519081016040528092919081815260200182805461070490610f9c565b801561074f5780601f106107265761010080835404028352916020019161074f565b820191905f5260205f20905b81548152906001019060200180831161073257829003601f168201915b505050505090806001015f9054906101000a900461ffff16908060010160029054906101000a900463ffffffff16908060010160069054906101000a900461ffff16905084565b61079e61081a565b5f73ffffffffffffffffffffffffffffffffffffffff168173ffffffffffffffffffffffffffffffffffffffff160361080e575f6040517f1e4fbdf70000000000000000000000000000000000000000000000000000000081526004016108059190610a17565b60405180910390fd5b610817816108a1565b50565b610822610962565b73ffffffffffffffffffffffffffffffffffffffff16610840610683565b73ffffffffffffffffffffffffffffffffffffffff161461089f57610863610962565b6040517f118cdaa70000000000000000000000000000000000000000000000000000000081526004016108969190610a17565b60405180910390fd5b565b5f5f5f9054906101000a900473ffffffffffffffffffffffffffffffffffffffff169050815f5f6101000a81548173ffffffffffffffffffffffffffffffffffffffff021916908373ffffffffffffffffffffffffffffffffffffffff1602179055508173ffffffffffffffffffffffffffffffffffffffff168173ffffffffffffffffffffffffffffffffffffffff167f8be0079c531659141344cd1fd0a4f28419497f9722a3daafe3b4186f6b6457e060405160405180910390a35050565b5f33905090565b5f604051905090565b5f5ffd5b5f5ffd5b5f819050919050565b61098c8161097a565b8114610996575f5ffd5b50565b5f813590506109a781610983565b92915050565b5f602082840312156109c2576109c1610972565b5b5f6109cf84828501610999565b91505092915050565b5f73ffffffffffffffffffffffffffffffffffffffff82169050919050565b5f610a01826109d8565b9050919050565b610a11816109f7565b82525050565b5f602082019050610a2a5f830184610a08565b92915050565b5f60ff82169050919050565b610a4581610a30565b8114610a4f575f5ffd5b50565b5f81359050610a6081610a3c565b92915050565b5f5f5f60608486031215610a7d57610a7c610972565b5b5f610a8a86828701610999565b9350506020610a9b86828701610999565b9250506040610aac86828701610a52565b9150509250925092565b5f81519050919050565b5f82825260208201905092915050565b8281835e5f83830152505050565b5f601f19601f8301169050919050565b5f610af882610ab6565b610b028185610ac0565b9350610b12818560208601610ad0565b610b1b81610ade565b840191505092915050565b5f63ffffffff82169050919050565b610b3e81610b26565b82525050565b5f61ffff82169050919050565b610b5a81610b44565b82525050565b610b6981610a30565b82525050565b5f60c0820190508181035f830152610b878189610aee565b9050610b966020830188610b35565b610ba36040830187610b35565b610bb06060830186610b35565b610bbd6080830185610b51565b610bca60a0830184610b60565b979650505050505050565b610bde8161097a565b82525050565b5f606082019050610bf75f830186610bd5565b610c046020830185610bd5565b610c116040830184610b60565b949350505050565b5f5ffd5b5f5ffd5b7f4e487b71000000000000000000000000000000000000000000000000000000005f52604160045260245ffd5b610c5782610ade565b810181811067ffffffffffffffff82111715610c7657610c75610c21565b5b80604052505050565b5f610c88610969565b9050610c948282610c4e565b919050565b5f67ffffffffffffffff821115610cb357610cb2610c21565b5b610cbc82610ade565b9050602081019050919050565b828183375f83830152505050565b5f610ce9610ce484610c99565b610c7f565b905082815260208101848484011115610d0557610d04610c1d565b5b610d10848285610cc9565b509392505050565b5f82601f830112610d2c57610d2b610c19565b5b8135610d3c848260208601610cd7565b91505092915050565b5f60208284031215610d5a57610d59610972565b5b5f82013567ffffffffffffffff811115610d7757610d76610976565b5b610d8384828501610d18565b91505092915050565b5f6080820190508181035f830152610da48187610aee565b9050610db36020830186610b51565b610dc06040830185610b35565b610dcd6060830184610b51565b95945050505050565b610ddf816109f7565b8114610de9575f5ffd5b50565b5f81359050610dfa81610dd6565b92915050565b5f60208284031215610e1557610e14610972565b5b5f610e2284828501610dec565b91505092915050565b7f4f7574207769746820726f756e64206c696d69740000000000000000000000005f82015250565b5f610e5f601483610ac0565b9150610e6a82610e2b565b602082019050919050565b5f6020820190508181035f830152610e8c81610e53565b9050919050565b7f4e487b71000000000000000000000000000000000000000000000000000000005f52601160045260245ffd5b5f610eca8261097a565b9150610ed58361097a565b9250828203905081811115610eed57610eec610e93565b5b92915050565b5f819050919050565b5f610f16610f11610f0c84610a30565b610ef3565b61097a565b9050919050565b610f2681610efc565b82525050565b5f608082019050610f3f5f830187610bd5565b610f4c6020830186610bd5565b610f596040830185610bd5565b610f666060830184610f1d565b95945050505050565b7f4e487b71000000000000000000000000000000000000000000000000000000005f52602260045260245ffd5b5f6002820490506001821680610fb357607f821691505b602082108103610fc657610fc5610f6f565b5b50919050565b5f819050815f5260205f209050919050565b5f6020601f8301049050919050565b5f82821b905092915050565b5f600883026110287fffffffffffffffffffffffffffffffffffffffffffffffffffffffffffffffff82610fed565b6110328683610fed565b95508019841693508086168417925050509392505050565b5f61106461105f61105a8461097a565b610ef3565b61097a565b9050919050565b5f819050919050565b61107d8361104a565b6110916110898261106b565b848454610ff9565b825550505050565b5f5f905090565b6110a8611099565b6110b3818484611074565b505050565b5b818110156110d6576110cb5f826110a0565b6001810190506110b9565b5050565b601f82111561111b576110ec81610fcc565b6110f584610fde565b81016020851015611104578190505b61111861111085610fde565b8301826110b8565b50505b505050565b5f82821c905092915050565b5f61113b5f1984600802611120565b1980831691505092915050565b5f611153838361112c565b9150826002028217905092915050565b61116c82610ab6565b67ffffffffffffffff81111561118557611184610c21565b5b61118f8254610f9c565b61119a8282856110da565b5f60209050601f8311600181146111cb575f84156111b9578287015190505b6111c38582611148565b86555061122a565b601f1984166111d986610fcc565b5f5b82811015611200578489015182556001820191506020850194506020810190506111db565b8683101561121d5784890151611219601f89168261112c565b8355505b6001600288020188555050505b505050505050565b5f6040820190506112455f830185610bd5565b81810360208301526112578184610aee565b9050939250505056fea26469706673582212209465dc1f57ea649d942bc213fd91bdc099cc35747ec8927a3475232ac3d4545064736f6c634300081e0033",
			"opcodes": "PUSH1 0x80 PUSH1 0x40 MSTORE CALLVALUE DUP1 ISZERO PUSH2 0xF JUMPI PUSH0 PUSH0 REVERT JUMPDEST POP CALLER PUSH0 PUSH20 0xFFFFFFFFFFFFFFFFFFFFFFFFFFFFFFFFFFFFFFFF AND DUP2 PUSH20 0xFFFFFFFFFFFFFFFFFFFFFFFFFFFFFFFFFFFFFFFF AND SUB PUSH2 0x81 JUMPI PUSH0 PUSH1 0x40 MLOAD PUSH32 0x1E4FBDF700000000000000000000000000000000000000000000000000000000 DUP2 MSTORE PUSH1 0x4 ADD PUSH2 0x78 SWAP2 SWAP1 PUSH2 0x196 JUMP JUMPDEST PUSH1 0x40 MLOAD DUP1 SWAP2 SUB SWAP1 REVERT JUMPDEST PUSH2 0x90 DUP2 PUSH2 0x96 PUSH1 0x20 SHL PUSH1 0x20 SHR JUMP JUMPDEST POP PUSH2 0x1AF JUMP JUMPDEST PUSH0 PUSH0 PUSH0 SWAP1 SLOAD SWAP1 PUSH2 0x100 EXP SWAP1 DIV PUSH20 0xFFFFFFFFFFFFFFFFFFFFFFFFFFFFFFFFFFFFFFFF AND SWAP1 POP DUP2 PUSH0 PUSH0 PUSH2 0x100 EXP DUP2 SLOAD DUP2 PUSH20 0xFFFFFFFFFFFFFFFFFFFFFFFFFFFFFFFFFFFFFFFF MUL NOT AND SWAP1 DUP4 PUSH20 0xFFFFFFFFFFFFFFFFFFFFFFFFFFFFFFFFFFFFFFFF AND MUL OR SWAP1 SSTORE POP DUP2 PUSH20 0xFFFFFFFFFFFFFFFFFFFFFFFFFFFFFFFFFFFFFFFF AND DUP2 PUSH20 0xFFFFFFFFFFFFFFFFFFFFFFFFFFFFFFFFFFFFFFFF AND PUSH32 0x8BE0079C531659141344CD1FD0A4F28419497F9722A3DAAFE3B4186F6B6457E0 PUSH1 0x40 MLOAD PUSH1 0x40 MLOAD DUP1 SWAP2 SUB SWAP1 LOG3 POP POP JUMP JUMPDEST PUSH0 PUSH20 0xFFFFFFFFFFFFFFFFFFFFFFFFFFFFFFFFFFFFFFFF DUP3 AND SWAP1 POP SWAP2 SWAP1 POP JUMP JUMPDEST PUSH0 PUSH2 0x180 DUP3 PUSH2 0x157 JUMP JUMPDEST SWAP1 POP SWAP2 SWAP1 POP JUMP JUMPDEST PUSH2 0x190 DUP2 PUSH2 0x176 JUMP JUMPDEST DUP3 MSTORE POP POP JUMP JUMPDEST PUSH0 PUSH1 0x20 DUP3 ADD SWAP1 POP PUSH2 0x1A9 PUSH0 DUP4 ADD DUP5 PUSH2 0x187 JUMP JUMPDEST SWAP3 SWAP2 POP POP JUMP JUMPDEST PUSH2 0x1296 DUP1 PUSH2 0x1BC PUSH0 CODECOPY PUSH0 RETURN INVALID PUSH1 0x80 PUSH1 0x40 MSTORE CALLVALUE DUP1 ISZERO PUSH2 0xF JUMPI PUSH0 PUSH0 REVERT JUMPDEST POP PUSH1 0x4 CALLDATASIZE LT PUSH2 0x9C JUMPI PUSH0 CALLDATALOAD PUSH1 0xE0 SHR DUP1 PUSH4 0x5F6FDDDF GT PUSH2 0x64 JUMPI DUP1 PUSH4 0x5F6FDDDF EQ PUSH2 0x183 JUMPI DUP1 PUSH4 0x715018A6 EQ PUSH2 0x19F JUMPI DUP1 PUSH4 0x8DA5CB5B EQ PUSH2 0x1A9 JUMPI DUP1 PUSH4 0xB06B0368 EQ PUSH2 0x1C7 JUMPI DUP1 PUSH4 0xF2FDE38B EQ PUSH2 0x1FA JUMPI PUSH2 0x9C JUMP JUMPDEST DUP1 PUSH4 0xD292732 EQ PUSH2 0xA0 JUMPI DUP1 PUSH4 0x17961F11 EQ PUSH2 0xD0 JUMPI DUP1 PUSH4 0x2E6B221D EQ PUSH2 0xEC JUMPI DUP1 PUSH4 0x3824FBEC EQ PUSH2 0x121 JUMPI DUP1 PUSH4 0x4768D4EF EQ PUSH2 0x151 JUMPI JUMPDEST PUSH0 PUSH0 REVERT JUMPDEST PUSH2 0xBA PUSH1 0x4 DUP1 CALLDATASIZE SUB DUP2 ADD SWAP1 PUSH2 0xB5 SWAP2 SWAP1 PUSH2 0x9AD JUMP JUMPDEST PUSH2 0x216 JUMP JUMPDEST PUSH1 0x40 MLOAD PUSH2 0xC7 SWAP2 SWAP1 PUSH2 0xA17 JUMP JUMPDEST PUSH1 0x40 MLOAD DUP1 SWAP2 SUB SWAP1 RETURN JUMPDEST PUSH2 0xEA PUSH1 0x4 DUP1 CALLDATASIZE SUB DUP2 ADD SWAP1 PUSH2 0xE5 SWAP2 SWAP1 PUSH2 0xA66 JUMP JUMPDEST PUSH2 0x246 JUMP JUMPDEST STOP JUMPDEST PUSH2 0x106 PUSH1 0x4 DUP1 CALLDATASIZE SUB DUP2 ADD SWAP1 PUSH2 0x101 SWAP2 SWAP1 PUSH2 0x9AD JUMP JUMPDEST PUSH2 0x36E JUMP JUMPDEST PUSH1 0x40 MLOAD PUSH2 0x118 SWAP7 SWAP6 SWAP5 SWAP4 SWAP3 SWAP2 SWAP1 PUSH2 0xB6F JUMP JUMPDEST PUSH1 0x40 MLOAD DUP1 SWAP2 SUB SWAP1 RETURN JUMPDEST PUSH2 0x13B PUSH1 0x4 DUP1 CALLDATASIZE SUB DUP2 ADD SWAP1 PUSH2 0x136 SWAP2 SWAP1 PUSH2 0x9AD JUMP JUMPDEST PUSH2 0x485 JUMP JUMPDEST PUSH1 0x40 MLOAD PUSH2 0x148 SWAP2 SWAP1 PUSH2 0xA17 JUMP JUMPDEST PUSH1 0x40 MLOAD DUP1 SWAP2 SUB SWAP1 RETURN JUMPDEST PUSH2 0x16B PUSH1 0x4 DUP1 CALLDATASIZE SUB DUP2 ADD SWAP1 PUSH2 0x166 SWAP2 SWAP1 PUSH2 0x9AD JUMP JUMPDEST PUSH2 0x4B5 JUMP JUMPDEST PUSH1 0x40 MLOAD PUSH2 0x17A SWAP4 SWAP3 SWAP2 SWAP1 PUSH2 0xBE4 JUMP JUMPDEST PUSH1 0x40 MLOAD DUP1 SWAP2 SUB SWAP1 RETURN JUMPDEST PUSH2 0x19D PUSH1 0x4 DUP1 CALLDATASIZE SUB DUP2 ADD SWAP1 PUSH2 0x198 SWAP2 SWAP1 PUSH2 0xD45 JUMP JUMPDEST PUSH2 0x4F6 JUMP JUMPDEST STOP JUMPDEST PUSH2 0x1A7 PUSH2 0x670 JUMP JUMPDEST STOP JUMPDEST PUSH2 0x1B1 PUSH2 0x683 JUMP JUMPDEST PUSH1 0x40 MLOAD PUSH2 0x1BE SWAP2 SWAP1 PUSH2 0xA17 JUMP JUMPDEST PUSH1 0x40 MLOAD DUP1 SWAP2 SUB SWAP1 RETURN JUMPDEST PUSH2 0x1E1 PUSH1 0x4 DUP1 CALLDATASIZE SUB DUP2 ADD SWAP1 PUSH2 0x1DC SWAP2 SWAP1 PUSH2 0x9AD JUMP JUMPDEST PUSH2 0x6AA JUMP JUMPDEST PUSH1 0x40 MLOAD PUSH2 0x1F1 SWAP5 SWAP4 SWAP3 SWAP2 SWAP1 PUSH2 0xD8C JUMP JUMPDEST PUSH1 0x40 MLOAD DUP1 SWAP2 SUB SWAP1 RETURN JUMPDEST PUSH2 0x214 PUSH1 0x4 DUP1 CALLDATASIZE SUB DUP2 ADD SWAP1 PUSH2 0x20F SWAP2 SWAP1 PUSH2 0xE00 JUMP JUMPDEST PUSH2 0x796 JUMP JUMPDEST STOP JUMPDEST PUSH1 0x2 PUSH1 0x20 MSTORE DUP1 PUSH0 MSTORE PUSH1 0x40 PUSH0 KECCAK256 PUSH0 SWAP2 POP SLOAD SWAP1 PUSH2 0x100 EXP SWAP1 DIV PUSH20 0xFFFFFFFFFFFFFFFFFFFFFFFFFFFFFFFFFFFFFFFF AND DUP2 JUMP JUMPDEST DUP1 PUSH1 0x3 DUP2 PUSH1 0xFF AND EQ DUP1 PUSH2 0x25C JUMPI POP PUSH1 0x5 DUP2 PUSH1 0xFF AND EQ JUMPDEST PUSH2 0x29B JUMPI PUSH1 0x40 MLOAD PUSH32 0x8C379A000000000000000000000000000000000000000000000000000000000 DUP2 MSTORE PUSH1 0x4 ADD PUSH2 0x292 SWAP1 PUSH2 0xE75 JUMP JUMPDEST PUSH1 0x40 MLOAD DUP1 SWAP2 SUB SWAP1 REVERT JUMPDEST PUSH1 0x7 PUSH1 0x40 MLOAD DUP1 PUSH1 0x60 ADD PUSH1 0x40 MSTORE DUP1 DUP7 DUP2 MSTORE PUSH1 0x20 ADD DUP6 DUP2 MSTORE PUSH1 0x20 ADD DUP5 PUSH1 0xFF AND DUP2 MSTORE POP SWAP1 DUP1 PUSH1 0x1 DUP2 SLOAD ADD DUP1 DUP3 SSTORE DUP1 SWAP2 POP POP PUSH1 0x1 SWAP1 SUB SWAP1 PUSH0 MSTORE PUSH1 0x20 PUSH0 KECCAK256 SWAP1 PUSH1 0x3 MUL ADD PUSH0 SWAP1 SWAP2 SWAP1 SWAP2 SWAP1 SWAP2 POP PUSH0 DUP3 ADD MLOAD DUP2 PUSH0 ADD SSTORE PUSH1 0x20 DUP3 ADD MLOAD DUP2 PUSH1 0x1 ADD SSTORE PUSH1 0x40 DUP3 ADD MLOAD DUP2 PUSH1 0x2 ADD PUSH0 PUSH2 0x100 EXP DUP2 SLOAD DUP2 PUSH1 0xFF MUL NOT AND SWAP1 DUP4 PUSH1 0xFF AND MUL OR SWAP1 SSTORE POP POP POP PUSH0 PUSH1 0x1 PUSH1 0x7 DUP1 SLOAD SWAP1 POP PUSH2 0x328 SWAP2 SWAP1 PUSH2 0xEC0 JUMP JUMPDEST SWAP1 POP PUSH32 0x38380995FD3834D2987FF279FD8BCD57C849D0397C58BB311DCA9B6BC5FEE9AA DUP2 DUP7 DUP7 DUP7 PUSH1 0x40 MLOAD PUSH2 0x35F SWAP5 SWAP4 SWAP3 SWAP2 SWAP1 PUSH2 0xF2C JUMP JUMPDEST PUSH1 0x40 MLOAD DUP1 SWAP2 SUB SWAP1 LOG1 POP POP POP POP POP JUMP JUMPDEST PUSH1 0x4 DUP2 DUP2 SLOAD DUP2 LT PUSH2 0x37D JUMPI PUSH0 DUP1 REVERT JUMPDEST SWAP1 PUSH0 MSTORE PUSH1 0x20 PUSH0 KECCAK256 SWAP1 PUSH1 0x2 MUL ADD PUSH0 SWAP2 POP SWAP1 POP DUP1 PUSH0 ADD DUP1 SLOAD PUSH2 0x39C SWAP1 PUSH2 0xF9C JUMP JUMPDEST DUP1 PUSH1 0x1F ADD PUSH1 0x20 DUP1 SWAP2 DIV MUL PUSH1 0x20 ADD PUSH1 0x40 MLOAD SWAP1 DUP2 ADD PUSH1 0x40 MSTORE DUP1 SWAP3 SWAP2 SWAP1 DUP2 DUP2 MSTORE PUSH1 0x20 ADD DUP3 DUP1 SLOAD PUSH2 0x3C8 SWAP1 PUSH2 0xF9C JUMP JUMPDEST DUP1 ISZERO PUSH2 0x413 JUMPI DUP1 PUSH1 0x1F LT PUSH2 0x3EA JUMPI PUSH2 0x100 DUP1 DUP4 SLOAD DIV MUL DUP4 MSTORE SWAP2 PUSH1 0x20 ADD SWAP2 PUSH2 0x413 JUMP JUMPDEST DUP3 ADD SWAP2 SWAP1 PUSH0 MSTORE PUSH1 0x20 PUSH0 KECCAK256 SWAP1 JUMPDEST DUP2 SLOAD DUP2 MSTORE SWAP1 PUSH1 0x1 ADD SWAP1 PUSH1 0x20 ADD DUP1 DUP4 GT PUSH2 0x3F6 JUMPI DUP3 SWAP1 SUB PUSH1 0x1F AND DUP3 ADD SWAP2 JUMPDEST POP POP POP POP POP SWAP1 DUP1 PUSH1 0x1 ADD PUSH0 SWAP1 SLOAD SWAP1 PUSH2 0x100 EXP SWAP1 DIV PUSH4 0xFFFFFFFF AND SWAP1 DUP1 PUSH1 0x1 ADD PUSH1 0x4 SWAP1 SLOAD SWAP1 PUSH2 0x100 EXP SWAP1 DIV PUSH4 0xFFFFFFFF AND SWAP1 DUP1 PUSH1 0x1 ADD PUSH1 0x8 SWAP1 SLOAD SWAP1 PUSH2 0x100 EXP SWAP1 DIV PUSH4 0xFFFFFFFF AND SWAP1 DUP1 PUSH1 0x1 ADD PUSH1 0xC SWAP1 SLOAD SWAP1 PUSH2 0x100 EXP SWAP1 DIV PUSH2 0xFFFF AND SWAP1 DUP1 PUSH1 0x1 ADD PUSH1 0xE SWAP1 SLOAD SWAP1 PUSH2 0x100 EXP SWAP1 DIV PUSH1 0xFF AND SWAP1 POP DUP7 JUMP JUMPDEST PUSH1 0x5 PUSH1 0x20 MSTORE DUP1 PUSH0 MSTORE PUSH1 0x40 PUSH0 KECCAK256 PUSH0 SWAP2 POP SLOAD SWAP1 PUSH2 0x100 EXP SWAP1 DIV PUSH20 0xFFFFFFFFFFFFFFFFFFFFFFFFFFFFFFFFFFFFFFFF AND DUP2 JUMP JUMPDEST PUSH1 0x7 DUP2 DUP2 SLOAD DUP2 LT PUSH2 0x4C4 JUMPI PUSH0 DUP1 REVERT JUMPDEST SWAP1 PUSH0 MSTORE PUSH1 0x20 PUSH0 KECCAK256 SWAP1 PUSH1 0x3 MUL ADD PUSH0 SWAP2 POP SWAP1 POP DUP1 PUSH0 ADD SLOAD SWAP1 DUP1 PUSH1 0x1 ADD SLOAD SWAP1 DUP1 PUSH1 0x2 ADD PUSH0 SWAP1 SLOAD SWAP1 PUSH2 0x100 EXP SWAP1 DIV PUSH1 0xFF AND SWAP1 POP DUP4 JUMP JUMPDEST PUSH1 0x1 PUSH1 0x40 MLOAD DUP1 PUSH1 0x80 ADD PUSH1 0x40 MSTORE DUP1 DUP4 DUP2 MSTORE PUSH1 0x20 ADD PUSH1 0x1 PUSH2 0xFFFF AND DUP2 MSTORE PUSH1 0x20 ADD PUSH0 PUSH4 0xFFFFFFFF AND DUP2 MSTORE PUSH1 0x20 ADD PUSH0 PUSH2 0xFFFF AND DUP2 MSTORE POP SWAP1 DUP1 PUSH1 0x1 DUP2 SLOAD ADD DUP1 DUP3 SSTORE DUP1 SWAP2 POP POP PUSH1 0x1 SWAP1 SUB SWAP1 PUSH0 MSTORE PUSH1 0x20 PUSH0 KECCAK256 SWAP1 PUSH1 0x2 MUL ADD PUSH0 SWAP1 SWAP2 SWAP1 SWAP2 SWAP1 SWAP2 POP PUSH0 DUP3 ADD MLOAD DUP2 PUSH0 ADD SWAP1 DUP2 PUSH2 0x561 SWAP2 SWAP1 PUSH2 0x1163 JUMP JUMPDEST POP PUSH1 0x20 DUP3 ADD MLOAD DUP2 PUSH1 0x1 ADD PUSH0 PUSH2 0x100 EXP DUP2 SLOAD DUP2 PUSH2 0xFFFF MUL NOT AND SWAP1 DUP4 PUSH2 0xFFFF AND MUL OR SWAP1 SSTORE POP PUSH1 0x40 DUP3 ADD MLOAD DUP2 PUSH1 0x1 ADD PUSH1 0x2 PUSH2 0x100 EXP DUP2 SLOAD DUP2 PUSH4 0xFFFFFFFF MUL NOT AND SWAP1 DUP4 PUSH4 0xFFFFFFFF AND MUL OR SWAP1 SSTORE POP PUSH1 0x60 DUP3 ADD MLOAD DUP2 PUSH1 0x1 ADD PUSH1 0x6 PUSH2 0x100 EXP DUP2 SLOAD DUP2 PUSH2 0xFFFF MUL NOT AND SWAP1 DUP4 PUSH2 0xFFFF AND MUL OR SWAP1 SSTORE POP POP POP PUSH0 PUSH1 0x1 DUP1 DUP1 SLOAD SWAP1 POP PUSH2 0x5E2 SWAP2 SWAP1 PUSH2 0xEC0 JUMP JUMPDEST SWAP1 POP CALLER PUSH1 0x2 PUSH0 DUP4 DUP2 MSTORE PUSH1 0x20 ADD SWAP1 DUP2 MSTORE PUSH1 0x20 ADD PUSH0 KECCAK256 PUSH0 PUSH2 0x100 EXP DUP2 SLOAD DUP2 PUSH20 0xFFFFFFFFFFFFFFFFFFFFFFFFFFFFFFFFFFFFFFFF MUL NOT AND SWAP1 DUP4 PUSH20 0xFFFFFFFFFFFFFFFFFFFFFFFFFFFFFFFFFFFFFFFF AND MUL OR SWAP1 SSTORE POP PUSH32 0x41B82268D4CFCB7BDE62BAE060583C745A4821F267E1FE541B5F624E00D43C7D DUP2 DUP4 PUSH1 0x40 MLOAD PUSH2 0x664 SWAP3 SWAP2 SWAP1 PUSH2 0x1232 JUMP JUMPDEST PUSH1 0x40 MLOAD DUP1 SWAP2 SUB SWAP1 LOG1 POP POP JUMP JUMPDEST PUSH2 0x678 PUSH2 0x81A JUMP JUMPDEST PUSH2 0x681 PUSH0 PUSH2 0x8A1 JUMP JUMPDEST JUMP JUMPDEST PUSH0 PUSH0 PUSH0 SWAP1 SLOAD SWAP1 PUSH2 0x100 EXP SWAP1 DIV PUSH20 0xFFFFFFFFFFFFFFFFFFFFFFFFFFFFFFFFFFFFFFFF AND SWAP1 POP SWAP1 JUMP JUMPDEST PUSH1 0x1 DUP2 DUP2 SLOAD DUP2 LT PUSH2 0x6B9 JUMPI PUSH0 DUP1 REVERT JUMPDEST SWAP1 PUSH0 MSTORE PUSH1 0x20 PUSH0 KECCAK256 SWAP1 PUSH1 0x2 MUL ADD PUSH0 SWAP2 POP SWAP1 POP DUP1 PUSH0 ADD DUP1 SLOAD PUSH2 0x6D8 SWAP1 PUSH2 0xF9C JUMP JUMPDEST DUP1 PUSH1 0x1F ADD PUSH1 0x20 DUP1 SWAP2 DIV MUL PUSH1 0x20 ADD PUSH1 0x40 MLOAD SWAP1 DUP2 ADD PUSH1 0x40 MSTORE DUP1 SWAP3 SWAP2 SWAP1 DUP2 DUP2 MSTORE PUSH1 0x20 ADD DUP3 DUP1 SLOAD PUSH2 0x704 SWAP1 PUSH2 0xF9C JUMP JUMPDEST DUP1 ISZERO PUSH2 0x74F JUMPI DUP1 PUSH1 0x1F LT PUSH2 0x726 JUMPI PUSH2 0x100 DUP1 DUP4 SLOAD DIV MUL DUP4 MSTORE SWAP2 PUSH1 0x20 ADD SWAP2 PUSH2 0x74F JUMP JUMPDEST DUP3 ADD SWAP2 SWAP1 PUSH0 MSTORE PUSH1 0x20 PUSH0 KECCAK256 SWAP1 JUMPDEST DUP2 SLOAD DUP2 MSTORE SWAP1 PUSH1 0x1 ADD SWAP1 PUSH1 0x20 ADD DUP1 DUP4 GT PUSH2 0x732 JUMPI DUP3 SWAP1 SUB PUSH1 0x1F AND DUP3 ADD SWAP2 JUMPDEST POP POP POP POP POP SWAP1 DUP1 PUSH1 0x1 ADD PUSH0 SWAP1 SLOAD SWAP1 PUSH2 0x100 EXP SWAP1 DIV PUSH2 0xFFFF AND SWAP1 DUP1 PUSH1 0x1 ADD PUSH1 0x2 SWAP1 SLOAD SWAP1 PUSH2 0x100 EXP SWAP1 DIV PUSH4 0xFFFFFFFF AND SWAP1 DUP1 PUSH1 0x1 ADD PUSH1 0x6 SWAP1 SLOAD SWAP1 PUSH2 0x100 EXP SWAP1 DIV PUSH2 0xFFFF AND SWAP1 POP DUP5 JUMP JUMPDEST PUSH2 0x79E PUSH2 0x81A JUMP JUMPDEST PUSH0 PUSH20 0xFFFFFFFFFFFFFFFFFFFFFFFFFFFFFFFFFFFFFFFF AND DUP2 PUSH20 0xFFFFFFFFFFFFFFFFFFFFFFFFFFFFFFFFFFFFFFFF AND SUB PUSH2 0x80E JUMPI PUSH0 PUSH1 0x40 MLOAD PUSH32 0x1E4FBDF700000000000000000000000000000000000000000000000000000000 DUP2 MSTORE PUSH1 0x4 ADD PUSH2 0x805 SWAP2 SWAP1 PUSH2 0xA17 JUMP JUMPDEST PUSH1 0x40 MLOAD DUP1 SWAP2 SUB SWAP1 REVERT JUMPDEST PUSH2 0x817 DUP2 PUSH2 0x8A1 JUMP JUMPDEST POP JUMP JUMPDEST PUSH2 0x822 PUSH2 0x962 JUMP JUMPDEST PUSH20 0xFFFFFFFFFFFFFFFFFFFFFFFFFFFFFFFFFFFFFFFF AND PUSH2 0x840 PUSH2 0x683 JUMP JUMPDEST PUSH20 0xFFFFFFFFFFFFFFFFFFFFFFFFFFFFFFFFFFFFFFFF AND EQ PUSH2 0x89F JUMPI PUSH2 0x863 PUSH2 0x962 JUMP JUMPDEST PUSH1 0x40 MLOAD PUSH32 0x118CDAA700000000000000000000000000000000000000000000000000000000 DUP2 MSTORE PUSH1 0x4 ADD PUSH2 0x896 SWAP2 SWAP1 PUSH2 0xA17 JUMP JUMPDEST PUSH1 0x40 MLOAD DUP1 SWAP2 SUB SWAP1 REVERT JUMPDEST JUMP JUMPDEST PUSH0 PUSH0 PUSH0 SWAP1 SLOAD SWAP1 PUSH2 0x100 EXP SWAP1 DIV PUSH20 0xFFFFFFFFFFFFFFFFFFFFFFFFFFFFFFFFFFFFFFFF AND SWAP1 POP DUP2 PUSH0 PUSH0 PUSH2 0x100 EXP DUP2 SLOAD DUP2 PUSH20 0xFFFFFFFFFFFFFFFFFFFFFFFFFFFFFFFFFFFFFFFF MUL NOT AND SWAP1 DUP4 PUSH20 0xFFFFFFFFFFFFFFFFFFFFFFFFFFFFFFFFFFFFFFFF AND MUL OR SWAP1 SSTORE POP DUP2 PUSH20 0xFFFFFFFFFFFFFFFFFFFFFFFFFFFFFFFFFFFFFFFF AND DUP2 PUSH20 0xFFFFFFFFFFFFFFFFFFFFFFFFFFFFFFFFFFFFFFFF AND PUSH32 0x8BE0079C531659141344CD1FD0A4F28419497F9722A3DAAFE3B4186F6B6457E0 PUSH1 0x40 MLOAD PUSH1 0x40 MLOAD DUP1 SWAP2 SUB SWAP1 LOG3 POP POP JUMP JUMPDEST PUSH0 CALLER SWAP1 POP SWAP1 JUMP JUMPDEST PUSH0 PUSH1 0x40 MLOAD SWAP1 POP SWAP1 JUMP JUMPDEST PUSH0 PUSH0 REVERT JUMPDEST PUSH0 PUSH0 REVERT JUMPDEST PUSH0 DUP2 SWAP1 POP SWAP2 SWAP1 POP JUMP JUMPDEST PUSH2 0x98C DUP2 PUSH2 0x97A JUMP JUMPDEST DUP2 EQ PUSH2 0x996 JUMPI PUSH0 PUSH0 REVERT JUMPDEST POP JUMP JUMPDEST PUSH0 DUP2 CALLDATALOAD SWAP1 POP PUSH2 0x9A7 DUP2 PUSH2 0x983 JUMP JUMPDEST SWAP3 SWAP2 POP POP JUMP JUMPDEST PUSH0 PUSH1 0x20 DUP3 DUP5 SUB SLT ISZERO PUSH2 0x9C2 JUMPI PUSH2 0x9C1 PUSH2 0x972 JUMP JUMPDEST JUMPDEST PUSH0 PUSH2 0x9CF DUP5 DUP3 DUP6 ADD PUSH2 0x999 JUMP JUMPDEST SWAP2 POP POP SWAP3 SWAP2 POP POP JUMP JUMPDEST PUSH0 PUSH20 0xFFFFFFFFFFFFFFFFFFFFFFFFFFFFFFFFFFFFFFFF DUP3 AND SWAP1 POP SWAP2 SWAP1 POP JUMP JUMPDEST PUSH0 PUSH2 0xA01 DUP3 PUSH2 0x9D8 JUMP JUMPDEST SWAP1 POP SWAP2 SWAP1 POP JUMP JUMPDEST PUSH2 0xA11 DUP2 PUSH2 0x9F7 JUMP JUMPDEST DUP3 MSTORE POP POP JUMP JUMPDEST PUSH0 PUSH1 0x20 DUP3 ADD SWAP1 POP PUSH2 0xA2A PUSH0 DUP4 ADD DUP5 PUSH2 0xA08 JUMP JUMPDEST SWAP3 SWAP2 POP POP JUMP JUMPDEST PUSH0 PUSH1 0xFF DUP3 AND SWAP1 POP SWAP2 SWAP1 POP JUMP JUMPDEST PUSH2 0xA45 DUP2 PUSH2 0xA30 JUMP JUMPDEST DUP2 EQ PUSH2 0xA4F JUMPI PUSH0 PUSH0 REVERT JUMPDEST POP JUMP JUMPDEST PUSH0 DUP2 CALLDATALOAD SWAP1 POP PUSH2 0xA60 DUP2 PUSH2 0xA3C JUMP JUMPDEST SWAP3 SWAP2 POP POP JUMP JUMPDEST PUSH0 PUSH0 PUSH0 PUSH1 0x60 DUP5 DUP7 SUB SLT ISZERO PUSH2 0xA7D JUMPI PUSH2 0xA7C PUSH2 0x972 JUMP JUMPDEST JUMPDEST PUSH0 PUSH2 0xA8A DUP7 DUP3 DUP8 ADD PUSH2 0x999 JUMP JUMPDEST SWAP4 POP POP PUSH1 0x20 PUSH2 0xA9B DUP7 DUP3 DUP8 ADD PUSH2 0x999 JUMP JUMPDEST SWAP3 POP POP PUSH1 0x40 PUSH2 0xAAC DUP7 DUP3 DUP8 ADD PUSH2 0xA52 JUMP JUMPDEST SWAP2 POP POP SWAP3 POP SWAP3 POP SWAP3 JUMP JUMPDEST PUSH0 DUP2 MLOAD SWAP1 POP SWAP2 SWAP1 POP JUMP JUMPDEST PUSH0 DUP3 DUP3 MSTORE PUSH1 0x20 DUP3 ADD SWAP1 POP SWAP3 SWAP2 POP POP JUMP JUMPDEST DUP3 DUP2 DUP4 MCOPY PUSH0 DUP4 DUP4 ADD MSTORE POP POP POP JUMP JUMPDEST PUSH0 PUSH1 0x1F NOT PUSH1 0x1F DUP4 ADD AND SWAP1 POP SWAP2 SWAP1 POP JUMP JUMPDEST PUSH0 PUSH2 0xAF8 DUP3 PUSH2 0xAB6 JUMP JUMPDEST PUSH2 0xB02 DUP2 DUP6 PUSH2 0xAC0 JUMP JUMPDEST SWAP4 POP PUSH2 0xB12 DUP2 DUP6 PUSH1 0x20 DUP7 ADD PUSH2 0xAD0 JUMP JUMPDEST PUSH2 0xB1B DUP2 PUSH2 0xADE JUMP JUMPDEST DUP5 ADD SWAP2 POP POP SWAP3 SWAP2 POP POP JUMP JUMPDEST PUSH0 PUSH4 0xFFFFFFFF DUP3 AND SWAP1 POP SWAP2 SWAP1 POP JUMP JUMPDEST PUSH2 0xB3E DUP2 PUSH2 0xB26 JUMP JUMPDEST DUP3 MSTORE POP POP JUMP JUMPDEST PUSH0 PUSH2 0xFFFF DUP3 AND SWAP1 POP SWAP2 SWAP1 POP JUMP JUMPDEST PUSH2 0xB5A DUP2 PUSH2 0xB44 JUMP JUMPDEST DUP3 MSTORE POP POP JUMP JUMPDEST PUSH2 0xB69 DUP2 PUSH2 0xA30 JUMP JUMPDEST DUP3 MSTORE POP POP JUMP JUMPDEST PUSH0 PUSH1 0xC0 DUP3 ADD SWAP1 POP DUP2 DUP2 SUB PUSH0 DUP4 ADD MSTORE PUSH2 0xB87 DUP2 DUP10 PUSH2 0xAEE JUMP JUMPDEST SWAP1 POP PUSH2 0xB96 PUSH1 0x20 DUP4 ADD DUP9 PUSH2 0xB35 JUMP JUMPDEST PUSH2 0xBA3 PUSH1 0x40 DUP4 ADD DUP8 PUSH2 0xB35 JUMP JUMPDEST PUSH2 0xBB0 PUSH1 0x60 DUP4 ADD DUP7 PUSH2 0xB35 JUMP JUMPDEST PUSH2 0xBBD PUSH1 0x80 DUP4 ADD DUP6 PUSH2 0xB51 JUMP JUMPDEST PUSH2 0xBCA PUSH1 0xA0 DUP4 ADD DUP5 PUSH2 0xB60 JUMP JUMPDEST SWAP8 SWAP7 POP POP POP POP POP POP POP JUMP JUMPDEST PUSH2 0xBDE DUP2 PUSH2 0x97A JUMP JUMPDEST DUP3 MSTORE POP POP JUMP JUMPDEST PUSH0 PUSH1 0x60 DUP3 ADD SWAP1 POP PUSH2 0xBF7 PUSH0 DUP4 ADD DUP7 PUSH2 0xBD5 JUMP JUMPDEST PUSH2 0xC04 PUSH1 0x20 DUP4 ADD DUP6 PUSH2 0xBD5 JUMP JUMPDEST PUSH2 0xC11 PUSH1 0x40 DUP4 ADD DUP5 PUSH2 0xB60 JUMP JUMPDEST SWAP5 SWAP4 POP POP POP POP JUMP JUMPDEST PUSH0 PUSH0 REVERT JUMPDEST PUSH0 PUSH0 REVERT JUMPDEST PUSH32 0x4E487B7100000000000000000000000000000000000000000000000000000000 PUSH0 MSTORE PUSH1 0x41 PUSH1 0x4 MSTORE PUSH1 0x24 PUSH0 REVERT JUMPDEST PUSH2 0xC57 DUP3 PUSH2 0xADE JUMP JUMPDEST DUP2 ADD DUP2 DUP2 LT PUSH8 0xFFFFFFFFFFFFFFFF DUP3 GT OR ISZERO PUSH2 0xC76 JUMPI PUSH2 0xC75 PUSH2 0xC21 JUMP JUMPDEST JUMPDEST DUP1 PUSH1 0x40 MSTORE POP POP POP JUMP JUMPDEST PUSH0 PUSH2 0xC88 PUSH2 0x969 JUMP JUMPDEST SWAP1 POP PUSH2 0xC94 DUP3 DUP3 PUSH2 0xC4E JUMP JUMPDEST SWAP2 SWAP1 POP JUMP JUMPDEST PUSH0 PUSH8 0xFFFFFFFFFFFFFFFF DUP3 GT ISZERO PUSH2 0xCB3 JUMPI PUSH2 0xCB2 PUSH2 0xC21 JUMP JUMPDEST JUMPDEST PUSH2 0xCBC DUP3 PUSH2 0xADE JUMP JUMPDEST SWAP1 POP PUSH1 0x20 DUP2 ADD SWAP1 POP SWAP2 SWAP1 POP JUMP JUMPDEST DUP3 DUP2 DUP4 CALLDATACOPY PUSH0 DUP4 DUP4 ADD MSTORE POP POP POP JUMP JUMPDEST PUSH0 PUSH2 0xCE9 PUSH2 0xCE4 DUP5 PUSH2 0xC99 JUMP JUMPDEST PUSH2 0xC7F JUMP JUMPDEST SWAP1 POP DUP3 DUP2 MSTORE PUSH1 0x20 DUP2 ADD DUP5 DUP5 DUP5 ADD GT ISZERO PUSH2 0xD05 JUMPI PUSH2 0xD04 PUSH2 0xC1D JUMP JUMPDEST JUMPDEST PUSH2 0xD10 DUP5 DUP3 DUP6 PUSH2 0xCC9 JUMP JUMPDEST POP SWAP4 SWAP3 POP POP POP JUMP JUMPDEST PUSH0 DUP3 PUSH1 0x1F DUP4 ADD SLT PUSH2 0xD2C JUMPI PUSH2 0xD2B PUSH2 0xC19 JUMP JUMPDEST JUMPDEST DUP2 CALLDATALOAD PUSH2 0xD3C DUP5 DUP3 PUSH1 0x20 DUP7 ADD PUSH2 0xCD7 JUMP JUMPDEST SWAP2 POP POP SWAP3 SWAP2 POP POP JUMP JUMPDEST PUSH0 PUSH1 0x20 DUP3 DUP5 SUB SLT ISZERO PUSH2 0xD5A JUMPI PUSH2 0xD59 PUSH2 0x972 JUMP JUMPDEST JUMPDEST PUSH0 DUP3 ADD CALLDATALOAD PUSH8 0xFFFFFFFFFFFFFFFF DUP2 GT ISZERO PUSH2 0xD77 JUMPI PUSH2 0xD76 PUSH2 0x976 JUMP JUMPDEST JUMPDEST PUSH2 0xD83 DUP5 DUP3 DUP6 ADD PUSH2 0xD18 JUMP JUMPDEST SWAP2 POP POP SWAP3 SWAP2 POP POP JUMP JUMPDEST PUSH0 PUSH1 0x80 DUP3 ADD SWAP1 POP DUP2 DUP2 SUB PUSH0 DUP4 ADD MSTORE PUSH2 0xDA4 DUP2 DUP8 PUSH2 0xAEE JUMP JUMPDEST SWAP1 POP PUSH2 0xDB3 PUSH1 0x20 DUP4 ADD DUP7 PUSH2 0xB51 JUMP JUMPDEST PUSH2 0xDC0 PUSH1 0x40 DUP4 ADD DUP6 PUSH2 0xB35 JUMP JUMPDEST PUSH2 0xDCD PUSH1 0x60 DUP4 ADD DUP5 PUSH2 0xB51 JUMP JUMPDEST SWAP6 SWAP5 POP POP POP POP POP JUMP JUMPDEST PUSH2 0xDDF DUP2 PUSH2 0x9F7 JUMP JUMPDEST DUP2 EQ PUSH2 0xDE9 JUMPI PUSH0 PUSH0 REVERT JUMPDEST POP JUMP JUMPDEST PUSH0 DUP2 CALLDATALOAD SWAP1 POP PUSH2 0xDFA DUP2 PUSH2 0xDD6 JUMP JUMPDEST SWAP3 SWAP2 POP POP JUMP JUMPDEST PUSH0 PUSH1 0x20 DUP3 DUP5 SUB SLT ISZERO PUSH2 0xE15 JUMPI PUSH2 0xE14 PUSH2 0x972 JUMP JUMPDEST JUMPDEST PUSH0 PUSH2 0xE22 DUP5 DUP3 DUP6 ADD PUSH2 0xDEC JUMP JUMPDEST SWAP2 POP POP SWAP3 SWAP2 POP POP JUMP JUMPDEST PUSH32 0x4F7574207769746820726F756E64206C696D6974000000000000000000000000 PUSH0 DUP3 ADD MSTORE POP JUMP JUMPDEST PUSH0 PUSH2 0xE5F PUSH1 0x14 DUP4 PUSH2 0xAC0 JUMP JUMPDEST SWAP2 POP PUSH2 0xE6A DUP3 PUSH2 0xE2B JUMP JUMPDEST PUSH1 0x20 DUP3 ADD SWAP1 POP SWAP2 SWAP1 POP JUMP JUMPDEST PUSH0 PUSH1 0x20 DUP3 ADD SWAP1 POP DUP2 DUP2 SUB PUSH0 DUP4 ADD MSTORE PUSH2 0xE8C DUP2 PUSH2 0xE53 JUMP JUMPDEST SWAP1 POP SWAP2 SWAP1 POP JUMP JUMPDEST PUSH32 0x4E487B7100000000000000000000000000000000000000000000000000000000 PUSH0 MSTORE PUSH1 0x11 PUSH1 0x4 MSTORE PUSH1 0x24 PUSH0 REVERT JUMPDEST PUSH0 PUSH2 0xECA DUP3 PUSH2 0x97A JUMP JUMPDEST SWAP2 POP PUSH2 0xED5 DUP4 PUSH2 0x97A JUMP JUMPDEST SWAP3 POP DUP3 DUP3 SUB SWAP1 POP DUP2 DUP2 GT ISZERO PUSH2 0xEED JUMPI PUSH2 0xEEC PUSH2 0xE93 JUMP JUMPDEST JUMPDEST SWAP3 SWAP2 POP POP JUMP JUMPDEST PUSH0 DUP2 SWAP1 POP SWAP2 SWAP1 POP JUMP JUMPDEST PUSH0 PUSH2 0xF16 PUSH2 0xF11 PUSH2 0xF0C DUP5 PUSH2 0xA30 JUMP JUMPDEST PUSH2 0xEF3 JUMP JUMPDEST PUSH2 0x97A JUMP JUMPDEST SWAP1 POP SWAP2 SWAP1 POP JUMP JUMPDEST PUSH2 0xF26 DUP2 PUSH2 0xEFC JUMP JUMPDEST DUP3 MSTORE POP POP JUMP JUMPDEST PUSH0 PUSH1 0x80 DUP3 ADD SWAP1 POP PUSH2 0xF3F PUSH0 DUP4 ADD DUP8 PUSH2 0xBD5 JUMP JUMPDEST PUSH2 0xF4C PUSH1 0x20 DUP4 ADD DUP7 PUSH2 0xBD5 JUMP JUMPDEST PUSH2 0xF59 PUSH1 0x40 DUP4 ADD DUP6 PUSH2 0xBD5 JUMP JUMPDEST PUSH2 0xF66 PUSH1 0x60 DUP4 ADD DUP5 PUSH2 0xF1D JUMP JUMPDEST SWAP6 SWAP5 POP POP POP POP POP JUMP JUMPDEST PUSH32 0x4E487B7100000000000000000000000000000000000000000000000000000000 PUSH0 MSTORE PUSH1 0x22 PUSH1 0x4 MSTORE PUSH1 0x24 PUSH0 REVERT JUMPDEST PUSH0 PUSH1 0x2 DUP3 DIV SWAP1 POP PUSH1 0x1 DUP3 AND DUP1 PUSH2 0xFB3 JUMPI PUSH1 0x7F DUP3 AND SWAP2 POP JUMPDEST PUSH1 0x20 DUP3 LT DUP2 SUB PUSH2 0xFC6 JUMPI PUSH2 0xFC5 PUSH2 0xF6F JUMP JUMPDEST JUMPDEST POP SWAP2 SWAP1 POP JUMP JUMPDEST PUSH0 DUP2 SWAP1 POP DUP2 PUSH0 MSTORE PUSH1 0x20 PUSH0 KECCAK256 SWAP1 POP SWAP2 SWAP1 POP JUMP JUMPDEST PUSH0 PUSH1 0x20 PUSH1 0x1F DUP4 ADD DIV SWAP1 POP SWAP2 SWAP1 POP JUMP JUMPDEST PUSH0 DUP3 DUP3 SHL SWAP1 POP SWAP3 SWAP2 POP POP JUMP JUMPDEST PUSH0 PUSH1 0x8 DUP4 MUL PUSH2 0x1028 PUSH32 0xFFFFFFFFFFFFFFFFFFFFFFFFFFFFFFFFFFFFFFFFFFFFFFFFFFFFFFFFFFFFFFFF DUP3 PUSH2 0xFED JUMP JUMPDEST PUSH2 0x1032 DUP7 DUP4 PUSH2 0xFED JUMP JUMPDEST SWAP6 POP DUP1 NOT DUP5 AND SWAP4 POP DUP1 DUP7 AND DUP5 OR SWAP3 POP POP POP SWAP4 SWAP3 POP POP POP JUMP JUMPDEST PUSH0 PUSH2 0x1064 PUSH2 0x105F PUSH2 0x105A DUP5 PUSH2 0x97A JUMP JUMPDEST PUSH2 0xEF3 JUMP JUMPDEST PUSH2 0x97A JUMP JUMPDEST SWAP1 POP SWAP2 SWAP1 POP JUMP JUMPDEST PUSH0 DUP2 SWAP1 POP SWAP2 SWAP1 POP JUMP JUMPDEST PUSH2 0x107D DUP4 PUSH2 0x104A JUMP JUMPDEST PUSH2 0x1091 PUSH2 0x1089 DUP3 PUSH2 0x106B JUMP JUMPDEST DUP5 DUP5 SLOAD PUSH2 0xFF9 JUMP JUMPDEST DUP3 SSTORE POP POP POP POP JUMP JUMPDEST PUSH0 PUSH0 SWAP1 POP SWAP1 JUMP JUMPDEST PUSH2 0x10A8 PUSH2 0x1099 JUMP JUMPDEST PUSH2 0x10B3 DUP2 DUP5 DUP5 PUSH2 0x1074 JUMP JUMPDEST POP POP POP JUMP JUMPDEST JUMPDEST DUP2 DUP2 LT ISZERO PUSH2 0x10D6 JUMPI PUSH2 0x10CB PUSH0 DUP3 PUSH2 0x10A0 JUMP JUMPDEST PUSH1 0x1 DUP2 ADD SWAP1 POP PUSH2 0x10B9 JUMP JUMPDEST POP POP JUMP JUMPDEST PUSH1 0x1F DUP3 GT ISZERO PUSH2 0x111B JUMPI PUSH2 0x10EC DUP2 PUSH2 0xFCC JUMP JUMPDEST PUSH2 0x10F5 DUP5 PUSH2 0xFDE JUMP JUMPDEST DUP2 ADD PUSH1 0x20 DUP6 LT ISZERO PUSH2 0x1104 JUMPI DUP2 SWAP1 POP JUMPDEST PUSH2 0x1118 PUSH2 0x1110 DUP6 PUSH2 0xFDE JUMP JUMPDEST DUP4 ADD DUP3 PUSH2 0x10B8 JUMP JUMPDEST POP POP JUMPDEST POP POP POP JUMP JUMPDEST PUSH0 DUP3 DUP3 SHR SWAP1 POP SWAP3 SWAP2 POP POP JUMP JUMPDEST PUSH0 PUSH2 0x113B PUSH0 NOT DUP5 PUSH1 0x8 MUL PUSH2 0x1120 JUMP JUMPDEST NOT DUP1 DUP4 AND SWAP2 POP POP SWAP3 SWAP2 POP POP JUMP JUMPDEST PUSH0 PUSH2 0x1153 DUP4 DUP4 PUSH2 0x112C JUMP JUMPDEST SWAP2 POP DUP3 PUSH1 0x2 MUL DUP3 OR SWAP1 POP SWAP3 SWAP2 POP POP JUMP JUMPDEST PUSH2 0x116C DUP3 PUSH2 0xAB6 JUMP JUMPDEST PUSH8 0xFFFFFFFFFFFFFFFF DUP2 GT ISZERO PUSH2 0x1185 JUMPI PUSH2 0x1184 PUSH2 0xC21 JUMP JUMPDEST JUMPDEST PUSH2 0x118F DUP3 SLOAD PUSH2 0xF9C JUMP JUMPDEST PUSH2 0x119A DUP3 DUP3 DUP6 PUSH2 0x10DA JUMP JUMPDEST PUSH0 PUSH1 0x20 SWAP1 POP PUSH1 0x1F DUP4 GT PUSH1 0x1 DUP2 EQ PUSH2 0x11CB JUMPI PUSH0 DUP5 ISZERO PUSH2 0x11B9 JUMPI DUP3 DUP8 ADD MLOAD SWAP1 POP JUMPDEST PUSH2 0x11C3 DUP6 DUP3 PUSH2 0x1148 JUMP JUMPDEST DUP7 SSTORE POP PUSH2 0x122A JUMP JUMPDEST PUSH1 0x1F NOT DUP5 AND PUSH2 0x11D9 DUP7 PUSH2 0xFCC JUMP JUMPDEST PUSH0 JUMPDEST DUP3 DUP2 LT ISZERO PUSH2 0x1200 JUMPI DUP5 DUP10 ADD MLOAD DUP3 SSTORE PUSH1 0x1 DUP3 ADD SWAP2 POP PUSH1 0x20 DUP6 ADD SWAP5 POP PUSH1 0x20 DUP2 ADD SWAP1 POP PUSH2 0x11DB JUMP JUMPDEST DUP7 DUP4 LT ISZERO PUSH2 0x121D JUMPI DUP5 DUP10 ADD MLOAD PUSH2 0x1219 PUSH1 0x1F DUP10 AND DUP3 PUSH2 0x112C JUMP JUMPDEST DUP4 SSTORE POP JUMPDEST PUSH1 0x1 PUSH1 0x2 DUP9 MUL ADD DUP9 SSTORE POP POP POP JUMPDEST POP POP POP POP POP POP JUMP JUMPDEST PUSH0 PUSH1 0x40 DUP3 ADD SWAP1 POP PUSH2 0x1245 PUSH0 DUP4 ADD DUP6 PUSH2 0xBD5 JUMP JUMPDEST DUP2 DUP2 SUB PUSH1 0x20 DUP4 ADD MSTORE PUSH2 0x1257 DUP2 DUP5 PUSH2 0xAEE JUMP JUMPDEST SWAP1 POP SWAP4 SWAP3 POP POP POP JUMP INVALID LOG2 PUSH5 0x6970667358 0x22 SLT KECCAK256 SWAP5 PUSH6 0xDC1F57EA649D SWAP5 0x2B 0xC2 SGT REVERT SWAP2 0xBD 0xC0 SWAP10 0xCC CALLDATALOAD PUSH21 0x7EC8927A3475232AC3D4545064736F6C634300081E STOP CALLER "
		},
		"gasEstimates": {
			"creation": {
				"codeDepositCost": "951600",
				"executionCost": "infinite",
				"totalCost": "infinite"
			},
			"external": {
				"_registerJudge(string)": "infinite",
				"fighterToOwner(uint256)": "2894",
				"fighters(uint256)": "infinite",
				"judgeToOwner(uint256)": "2828",
				"judges(uint256)": "infinite",
				"matches(uint256)": "infinite",
				"owner()": "2558",
				"renounceOwnership()": "infinite",
				"setMatch(uint256,uint256,uint8)": "infinite",
				"transferOwnership(address)": "infinite"
			}
		},
		"methodIdentifiers": {
			"_registerJudge(string)": "5f6fdddf",
			"fighterToOwner(uint256)": "3824fbec",
			"fighters(uint256)": "2e6b221d",
			"judgeToOwner(uint256)": "0d292732",
			"judges(uint256)": "b06b0368",
			"matches(uint256)": "4768d4ef",
			"owner()": "8da5cb5b",
			"renounceOwnership()": "715018a6",
			"setMatch(uint256,uint256,uint8)": "17961f11",
			"transferOwnership(address)": "f2fde38b"
		}
	},
	"abi": [
		{
			"inputs": [
				{
					"internalType": "address",
					"name": "owner",
					"type": "address"
				}
			],
			"name": "OwnableInvalidOwner",
			"type": "error"
		},
		{
			"inputs": [
				{
					"internalType": "address",
					"name": "account",
					"type": "address"
				}
			],
			"name": "OwnableUnauthorizedAccount",
			"type": "error"
		},
		{
			"anonymous": false,
			"inputs": [
				{
					"indexed": false,
					"internalType": "uint256",
					"name": "fighterId",
					"type": "uint256"
				},
				{
					"indexed": false,
					"internalType": "string",
					"name": "fighterName",
					"type": "string"
				}
			],
			"name": "NewFighter",
			"type": "event"
		},
		{
			"anonymous": false,
			"inputs": [
				{
					"indexed": false,
					"internalType": "uint256",
					"name": "judgeId",
					"type": "uint256"
				},
				{
					"indexed": false,
					"internalType": "string",
					"name": "judgeName",
					"type": "string"
				}
			],
			"name": "NewJudge",
			"type": "event"
		},
		{
			"anonymous": false,
			"inputs": [
				{
					"indexed": false,
					"internalType": "uint256",
					"name": "_matchId",
					"type": "uint256"
				},
				{
					"indexed": false,
					"internalType": "uint256",
					"name": "_fighterAId",
					"type": "uint256"
				},
				{
					"indexed": false,
					"internalType": "uint256",
					"name": "_fighterBId",
					"type": "uint256"
				},
				{
					"indexed": false,
					"internalType": "uint256",
					"name": "_rounds",
					"type": "uint256"
				}
			],
			"name": "NewMatch",
			"type": "event"
		},
		{
			"anonymous": false,
			"inputs": [
				{
					"indexed": true,
					"internalType": "address",
					"name": "previousOwner",
					"type": "address"
				},
				{
					"indexed": true,
					"internalType": "address",
					"name": "newOwner",
					"type": "address"
				}
			],
			"name": "OwnershipTransferred",
			"type": "event"
		},
		{
			"inputs": [
				{
					"internalType": "string",
					"name": "_name",
					"type": "string"
				}
			],
			"name": "_registerJudge",
			"outputs": [],
			"stateMutability": "nonpayable",
			"type": "function"
		},
		{
			"inputs": [
				{
					"internalType": "uint256",
					"name": "",
					"type": "uint256"
				}
			],
			"name": "fighterToOwner",
			"outputs": [
				{
					"internalType": "address",
					"name": "",
					"type": "address"
				}
			],
			"stateMutability": "view",
			"type": "function"
		},
		{
			"inputs": [
				{
					"internalType": "uint256",
					"name": "",
					"type": "uint256"
				}
			],
			"name": "fighters",
			"outputs": [
				{
					"internalType": "string",
					"name": "name",
					"type": "string"
				},
				{
					"internalType": "uint32",
					"name": "win",
					"type": "uint32"
				},
				{
					"internalType": "uint32",
					"name": "loss",
					"type": "uint32"
				},
				{
					"internalType": "uint32",
					"name": "draw",
					"type": "uint32"
				},
				{
					"internalType": "uint16",
					"name": "noContest",
					"type": "uint16"
				},
				{
					"internalType": "uint8",
					"name": "weightCategoryLbs",
					"type": "uint8"
				}
			],
			"stateMutability": "view",
			"type": "function"
		},
		{
			"inputs": [
				{
					"internalType": "uint256",
					"name": "",
					"type": "uint256"
				}
			],
			"name": "judgeToOwner",
			"outputs": [
				{
					"internalType": "address",
					"name": "",
					"type": "address"
				}
			],
			"stateMutability": "view",
			"type": "function"
		},
		{
			"inputs": [
				{
					"internalType": "uint256",
					"name": "",
					"type": "uint256"
				}
			],
			"name": "judges",
			"outputs": [
				{
					"internalType": "string",
					"name": "name",
					"type": "string"
				},
				{
					"internalType": "uint16",
					"name": "rank",
					"type": "uint16"
				},
				{
					"internalType": "uint32",
					"name": "rightDecision",
					"type": "uint32"
				},
				{
					"internalType": "uint16",
					"name": "wrongDecision",
					"type": "uint16"
				}
			],
			"stateMutability": "view",
			"type": "function"
		},
		{
			"inputs": [
				{
					"internalType": "uint256",
					"name": "",
					"type": "uint256"
				}
			],
			"name": "matches",
			"outputs": [
				{
					"internalType": "uint256",
					"name": "fighterAId",
					"type": "uint256"
				},
				{
					"internalType": "uint256",
					"name": "fighterBId",
					"type": "uint256"
				},
				{
					"internalType": "uint8",
					"name": "rounds",
					"type": "uint8"
				}
			],
			"stateMutability": "view",
			"type": "function"
		},
		{
			"inputs": [],
			"name": "owner",
			"outputs": [
				{
					"internalType": "address",
					"name": "",
					"type": "address"
				}
			],
			"stateMutability": "view",
			"type": "function"
		},
		{
			"inputs": [],
			"name": "renounceOwnership",
			"outputs": [],
			"stateMutability": "nonpayable",
			"type": "function"
		},
		{
			"inputs": [
				{
					"internalType": "uint256",
					"name": "_fighterAId",
					"type": "uint256"
				},
				{
					"internalType": "uint256",
					"name": "_fighterBId",
					"type": "uint256"
				},
				{
					"internalType": "uint8",
					"name": "_rounds",
					"type": "uint8"
				}
			],
			"name": "setMatch",
			"outputs": [],
			"stateMutability": "nonpayable",
			"type": "function"
		},
		{
			"inputs": [
				{
					"internalType": "address",
					"name": "newOwner",
					"type": "address"
				}
			],
			"name": "transferOwnership",
			"outputs": [],
			"stateMutability": "nonpayable",
			"type": "function"
		}
	]
}