{
	"data": {
		"bytecode": {
			"linkReferences": {},
			"object": "608060405234801561000f575f5ffd5b50335f73ffffffffffffffffffffffffffffffffffffffff168173ffffffffffffffffffffffffffffffffffffffff1603610081575f6040517f1e4fbdf70000000000000000000000000000000000000000000000000000000081526004016100789190610196565b60405180910390fd5b6100908161009660201b60201c565b506101af565b5f5f5f9054906101000a900473ffffffffffffffffffffffffffffffffffffffff169050815f5f6101000a81548173ffffffffffffffffffffffffffffffffffffffff021916908373ffffffffffffffffffffffffffffffffffffffff1602179055508173ffffffffffffffffffffffffffffffffffffffff168173ffffffffffffffffffffffffffffffffffffffff167f8be0079c531659141344cd1fd0a4f28419497f9722a3daafe3b4186f6b6457e060405160405180910390a35050565b5f73ffffffffffffffffffffffffffffffffffffffff82169050919050565b5f61018082610157565b9050919050565b61019081610176565b82525050565b5f6020820190506101a95f830184610187565b92915050565b6118ea806101bc5f395ff3fe608060405234801561000f575f5ffd5b50600436106100b2575f3560e01c8063715018a61161006f578063715018a6146101b55780638da5cb5b146101bf5780639f8e1766146101dd578063b06b0368146101f9578063e64491f51461022c578063f2fde38b14610248576100b2565b80630d292732146100b657806317961f11146100e65780632e6b221d146101025780633824fbec146101375780634768d4ef146101675780635f6fdddf14610199575b5f5ffd5b6100d060048036038101906100cb9190610d64565b610264565b6040516100dd9190610dce565b60405180910390f35b61010060048036038101906100fb9190610e1d565b610294565b005b61011c60048036038101906101179190610d64565b6103bc565b60405161012e96959493929190610f26565b60405180910390f35b610151600480360381019061014c9190610d64565b6104d3565b60405161015e9190610dce565b60405180910390f35b610181600480360381019061017c9190610d64565b610503565b60405161019093929190610f9b565b60405180910390f35b6101b360048036038101906101ae91906110fc565b610544565b005b6101bd6106be565b005b6101c76106d1565b6040516101d49190610dce565b60405180910390f35b6101f760048036038101906101f29190611197565b6106f8565b005b610213600480360381019061020e9190610d64565b6108da565b604051610223949392919061123c565b60405180910390f35b61024660048036038101906102419190611286565b6109c6565b005b610262600480360381019061025d9190611314565b610b4d565b005b6002602052805f5260405f205f915054906101000a900473ffffffffffffffffffffffffffffffffffffffff1681565b8060038160ff1614806102aa575060058160ff16145b6102e9576040517f08c379a00000000000000000000000000000000000000000000000000000000081526004016102e090611389565b60405180910390fd5b600760405180606001604052808681526020018581526020018460ff16815250908060018154018082558091505060019003905f5260205f2090600302015f909190919091505f820151815f0155602082015181600101556040820151816002015f6101000a81548160ff021916908360ff16021790555050505f600160078054905061037691906113d4565b90507f38380995fd3834d2987ff279fd8bcd57c849d0397c58bb311dca9b6bc5fee9aa818686866040516103ad9493929190611440565b60405180910390a15050505050565b600481815481106103cb575f80fd5b905f5260205f2090600202015f91509050805f0180546103ea906114b0565b80601f0160208091040260200160405190810160405280929190818152602001828054610416906114b0565b80156104615780601f1061043857610100808354040283529160200191610461565b820191905f5260205f20905b81548152906001019060200180831161044457829003601f168201915b505050505090806001015f9054906101000a900463ffffffff16908060010160049054906101000a900463ffffffff16908060010160089054906101000a900463ffffffff169080600101600c9054906101000a900461ffff169080600101600e9054906101000a900460ff16905086565b6005602052805f5260405f205f915054906101000a900473ffffffffffffffffffffffffffffffffffffffff1681565b60078181548110610512575f80fd5b905f5260205f2090600302015f91509050805f015490806001015490806002015f9054906101000a900460ff16905083565b60016040518060800160405280838152602001600161ffff1681526020015f63ffffffff1681526020015f61ffff16815250908060018154018082558091505060019003905f5260205f2090600202015f909190919091505f820151815f0190816105af9190611677565b506020820151816001015f6101000a81548161ffff021916908361ffff16021790555060408201518160010160026101000a81548163ffffffff021916908363ffffffff16021790555060608201518160010160066101000a81548161ffff021916908361ffff16021790555050505f6001808054905061063091906113d4565b90503360025f8381526020019081526020015f205f6101000a81548173ffffffffffffffffffffffffffffffffffffffff021916908373ffffffffffffffffffffffffffffffffffffffff1602179055507f41b82268d4cfcb7bde62bae060583c745a4821f267e1fe541b5f624e00d43c7d81836040516106b2929190611746565b60405180910390a15050565b6106c6610bd1565b6106cf5f610c58565b565b5f5f5f9054906101000a900473ffffffffffffffffffffffffffffffffffffffff16905090565b60046040518060c001604052808881526020018763ffffffff1681526020018663ffffffff1681526020018563ffffffff1681526020018461ffff1681526020018360ff16815250908060018154018082558091505060019003905f5260205f2090600202015f909190919091505f820151815f0190816107799190611677565b506020820151816001015f6101000a81548163ffffffff021916908363ffffffff16021790555060408201518160010160046101000a81548163ffffffff021916908363ffffffff16021790555060608201518160010160086101000a81548163ffffffff021916908363ffffffff160217905550608082015181600101600c6101000a81548161ffff021916908361ffff16021790555060a082015181600101600e6101000a81548160ff021916908360ff16021790555050505f600160048054905061084791906113d4565b90503360055f8381526020019081526020015f205f6101000a81548173ffffffffffffffffffffffffffffffffffffffff021916908373ffffffffffffffffffffffffffffffffffffffff1602179055507fcf0b1657bf9a3add4678d1909d3fdcdb613a214497eb0d3c6b946dee9197583881886040516108c9929190611746565b60405180910390a150505050505050565b600181815481106108e9575f80fd5b905f5260205f2090600202015f91509050805f018054610908906114b0565b80601f0160208091040260200160405190810160405280929190818152602001828054610934906114b0565b801561097f5780601f106109565761010080835404028352916020019161097f565b820191905f5260205f20905b81548152906001019060200180831161096257829003601f168201915b505050505090806001015f9054906101000a900461ffff16908060010160029054906101000a900463ffffffff16908060010160069054906101000a900461ffff16905084565b8160ff1681600b821080156109de5750600b8160ff16105b610a1d576040517f08c379a0000000000000000000000000000000000000000000000000000000008152600401610a14906117be565b60405180910390fd5b60078681548110610a3157610a306117dc565b5b905f5260205f2090600302016002015f9054906101000a900460ff1660ff168510610a91576040517f08c379a0000000000000000000000000000000000000000000000000000000008152600401610a8890611853565b60405180910390fd5b600860405180608001604052808881526020018781526020018660ff1681526020018560ff16815250908060018154018082558091505060019003905f5260205f2090600402015f909190919091505f820151815f015560208201518160010155604082015181600201556060820151816003015550507fa18245098af5f1a6fe04d2ffea727b9ddad1aa7579a1d6a7fa718b8288ac1ba186868686604051610b3d9493929190611871565b60405180910390a1505050505050565b610b55610bd1565b5f73ffffffffffffffffffffffffffffffffffffffff168173ffffffffffffffffffffffffffffffffffffffff1603610bc5575f6040517f1e4fbdf7000000000000000000000000000000000000000000000000000000008152600401610bbc9190610dce565b60405180910390fd5b610bce81610c58565b50565b610bd9610d19565b73ffffffffffffffffffffffffffffffffffffffff16610bf76106d1565b73ffffffffffffffffffffffffffffffffffffffff1614610c5657610c1a610d19565b6040517f118cdaa7000000000000000000000000000000000000000000000000000000008152600401610c4d9190610dce565b60405180910390fd5b565b5f5f5f9054906101000a900473ffffffffffffffffffffffffffffffffffffffff169050815f5f6101000a81548173ffffffffffffffffffffffffffffffffffffffff021916908373ffffffffffffffffffffffffffffffffffffffff1602179055508173ffffffffffffffffffffffffffffffffffffffff168173ffffffffffffffffffffffffffffffffffffffff167f8be0079c531659141344cd1fd0a4f28419497f9722a3daafe3b4186f6b6457e060405160405180910390a35050565b5f33905090565b5f604051905090565b5f5ffd5b5f5ffd5b5f819050919050565b610d4381610d31565b8114610d4d575f5ffd5b50565b5f81359050610d5e81610d3a565b92915050565b5f60208284031215610d7957610d78610d29565b5b5f610d8684828501610d50565b91505092915050565b5f73ffffffffffffffffffffffffffffffffffffffff82169050919050565b5f610db882610d8f565b9050919050565b610dc881610dae565b82525050565b5f602082019050610de15f830184610dbf565b92915050565b5f60ff82169050919050565b610dfc81610de7565b8114610e06575f5ffd5b50565b5f81359050610e1781610df3565b92915050565b5f5f5f60608486031215610e3457610e33610d29565b5b5f610e4186828701610d50565b9350506020610e5286828701610d50565b9250506040610e6386828701610e09565b9150509250925092565b5f81519050919050565b5f82825260208201905092915050565b8281835e5f83830152505050565b5f601f19601f8301169050919050565b5f610eaf82610e6d565b610eb98185610e77565b9350610ec9818560208601610e87565b610ed281610e95565b840191505092915050565b5f63ffffffff82169050919050565b610ef581610edd565b82525050565b5f61ffff82169050919050565b610f1181610efb565b82525050565b610f2081610de7565b82525050565b5f60c0820190508181035f830152610f3e8189610ea5565b9050610f4d6020830188610eec565b610f5a6040830187610eec565b610f676060830186610eec565b610f746080830185610f08565b610f8160a0830184610f17565b979650505050505050565b610f9581610d31565b82525050565b5f606082019050610fae5f830186610f8c565b610fbb6020830185610f8c565b610fc86040830184610f17565b949350505050565b5f5ffd5b5f5ffd5b7f4e487b71000000000000000000000000000000000000000000000000000000005f52604160045260245ffd5b61100e82610e95565b810181811067ffffffffffffffff8211171561102d5761102c610fd8565b5b80604052505050565b5f61103f610d20565b905061104b8282611005565b919050565b5f67ffffffffffffffff82111561106a57611069610fd8565b5b61107382610e95565b9050602081019050919050565b828183375f83830152505050565b5f6110a061109b84611050565b611036565b9050828152602081018484840111156110bc576110bb610fd4565b5b6110c7848285611080565b509392505050565b5f82601f8301126110e3576110e2610fd0565b5b81356110f384826020860161108e565b91505092915050565b5f6020828403121561111157611110610d29565b5b5f82013567ffffffffffffffff81111561112e5761112d610d2d565b5b61113a848285016110cf565b91505092915050565b61114c81610edd565b8114611156575f5ffd5b50565b5f8135905061116781611143565b92915050565b61117681610efb565b8114611180575f5ffd5b50565b5f813590506111918161116d565b92915050565b5f5f5f5f5f5f60c087890312156111b1576111b0610d29565b5b5f87013567ffffffffffffffff8111156111ce576111cd610d2d565b5b6111da89828a016110cf565b96505060206111eb89828a01611159565b95505060406111fc89828a01611159565b945050606061120d89828a01611159565b935050608061121e89828a01611183565b92505060a061122f89828a01610e09565b9150509295509295509295565b5f6080820190508181035f8301526112548187610ea5565b90506112636020830186610f08565b6112706040830185610eec565b61127d6060830184610f08565b95945050505050565b5f5f5f5f6080858703121561129e5761129d610d29565b5b5f6112ab87828801610d50565b94505060206112bc87828801610d50565b93505060406112cd87828801610e09565b92505060606112de87828801610e09565b91505092959194509250565b6112f381610dae565b81146112fd575f5ffd5b50565b5f8135905061130e816112ea565b92915050565b5f6020828403121561132957611328610d29565b5b5f61133684828501611300565b91505092915050565b7f4f7574207769746820726f756e64206c696d69740000000000000000000000005f82015250565b5f611373601483610e77565b915061137e8261133f565b602082019050919050565b5f6020820190508181035f8301526113a081611367565b9050919050565b7f4e487b71000000000000000000000000000000000000000000000000000000005f52601160045260245ffd5b5f6113de82610d31565b91506113e983610d31565b9250828203905081811115611401576114006113a7565b5b92915050565b5f819050919050565b5f61142a61142561142084610de7565b611407565b610d31565b9050919050565b61143a81611410565b82525050565b5f6080820190506114535f830187610f8c565b6114606020830186610f8c565b61146d6040830185610f8c565b61147a6060830184611431565b95945050505050565b7f4e487b71000000000000000000000000000000000000000000000000000000005f52602260045260245ffd5b5f60028204905060018216806114c757607f821691505b6020821081036114da576114d9611483565b5b50919050565b5f819050815f5260205f209050919050565b5f6020601f8301049050919050565b5f82821b905092915050565b5f6008830261153c7fffffffffffffffffffffffffffffffffffffffffffffffffffffffffffffffff82611501565b6115468683611501565b95508019841693508086168417925050509392505050565b5f61157861157361156e84610d31565b611407565b610d31565b9050919050565b5f819050919050565b6115918361155e565b6115a561159d8261157f565b84845461150d565b825550505050565b5f5f905090565b6115bc6115ad565b6115c7818484611588565b505050565b5b818110156115ea576115df5f826115b4565b6001810190506115cd565b5050565b601f82111561162f57611600816114e0565b611609846114f2565b81016020851015611618578190505b61162c611624856114f2565b8301826115cc565b50505b505050565b5f82821c905092915050565b5f61164f5f1984600802611634565b1980831691505092915050565b5f6116678383611640565b9150826002028217905092915050565b61168082610e6d565b67ffffffffffffffff81111561169957611698610fd8565b5b6116a382546114b0565b6116ae8282856115ee565b5f60209050601f8311600181146116df575f84156116cd578287015190505b6116d7858261165c565b86555061173e565b601f1984166116ed866114e0565b5f5b82811015611714578489015182556001820191506020850194506020810190506116ef565b86831015611731578489015161172d601f891682611640565b8355505b6001600288020188555050505b505050505050565b5f6040820190506117595f830185610f8c565b818103602083015261176b8184610ea5565b90509392505050565b7f6d6178696d756d2053636f7265206973203130000000000000000000000000005f82015250565b5f6117a8601383610e77565b91506117b382611774565b602082019050919050565b5f6020820190508181035f8301526117d58161179c565b9050919050565b7f4e487b71000000000000000000000000000000000000000000000000000000005f52603260045260245ffd5b7f496e76616c696420526f756e64730000000000000000000000000000000000005f82015250565b5f61183d600e83610e77565b915061184882611809565b602082019050919050565b5f6020820190508181035f83015261186a81611831565b9050919050565b5f6080820190506118845f830187610f8c565b6118916020830186610f8c565b61189e6040830185610f17565b6118ab6060830184610f17565b9594505050505056fea264697066735822122089d32287be4f8f2818f4675b4eef80cd560dc283771f4b357b41d5996889461364736f6c634300081e0033",
			"opcodes": "PUSH1 0x80 PUSH1 0x40 MSTORE CALLVALUE DUP1 ISZERO PUSH2 0xF JUMPI PUSH0 PUSH0 REVERT JUMPDEST POP CALLER PUSH0 PUSH20 0xFFFFFFFFFFFFFFFFFFFFFFFFFFFFFFFFFFFFFFFF AND DUP2 PUSH20 0xFFFFFFFFFFFFFFFFFFFFFFFFFFFFFFFFFFFFFFFF AND SUB PUSH2 0x81 JUMPI PUSH0 PUSH1 0x40 MLOAD PUSH32 0x1E4FBDF700000000000000000000000000000000000000000000000000000000 DUP2 MSTORE PUSH1 0x4 ADD PUSH2 0x78 SWAP2 SWAP1 PUSH2 0x196 JUMP JUMPDEST PUSH1 0x40 MLOAD DUP1 SWAP2 SUB SWAP1 REVERT JUMPDEST PUSH2 0x90 DUP2 PUSH2 0x96 PUSH1 0x20 SHL PUSH1 0x20 SHR JUMP JUMPDEST POP PUSH2 0x1AF JUMP JUMPDEST PUSH0 PUSH0 PUSH0 SWAP1 SLOAD SWAP1 PUSH2 0x100 EXP SWAP1 DIV PUSH20 0xFFFFFFFFFFFFFFFFFFFFFFFFFFFFFFFFFFFFFFFF AND SWAP1 POP DUP2 PUSH0 PUSH0 PUSH2 0x100 EXP DUP2 SLOAD DUP2 PUSH20 0xFFFFFFFFFFFFFFFFFFFFFFFFFFFFFFFFFFFFFFFF MUL NOT AND SWAP1 DUP4 PUSH20 0xFFFFFFFFFFFFFFFFFFFFFFFFFFFFFFFFFFFFFFFF AND MUL OR SWAP1 SSTORE POP DUP2 PUSH20 0xFFFFFFFFFFFFFFFFFFFFFFFFFFFFFFFFFFFFFFFF AND DUP2 PUSH20 0xFFFFFFFFFFFFFFFFFFFFFFFFFFFFFFFFFFFFFFFF AND PUSH32 0x8BE0079C531659141344CD1FD0A4F28419497F9722A3DAAFE3B4186F6B6457E0 PUSH1 0x40 MLOAD PUSH1 0x40 MLOAD DUP1 SWAP2 SUB SWAP1 LOG3 POP POP JUMP JUMPDEST PUSH0 PUSH20 0xFFFFFFFFFFFFFFFFFFFFFFFFFFFFFFFFFFFFFFFF DUP3 AND SWAP1 POP SWAP2 SWAP1 POP JUMP JUMPDEST PUSH0 PUSH2 0x180 DUP3 PUSH2 0x157 JUMP JUMPDEST SWAP1 POP SWAP2 SWAP1 POP JUMP JUMPDEST PUSH2 0x190 DUP2 PUSH2 0x176 JUMP JUMPDEST DUP3 MSTORE POP POP JUMP JUMPDEST PUSH0 PUSH1 0x20 DUP3 ADD SWAP1 POP PUSH2 0x1A9 PUSH0 DUP4 ADD DUP5 PUSH2 0x187 JUMP JUMPDEST SWAP3 SWAP2 POP POP JUMP JUMPDEST PUSH2 0x18EA DUP1 PUSH2 0x1BC PUSH0 CODECOPY PUSH0 RETURN INVALID PUSH1 0x80 PUSH1 0x40 MSTORE CALLVALUE DUP1 ISZERO PUSH2 0xF JUMPI PUSH0 PUSH0 REVERT JUMPDEST POP PUSH1 0x4 CALLDATASIZE LT PUSH2 0xB2 JUMPI PUSH0 CALLDATALOAD PUSH1 0xE0 SHR DUP1 PUSH4 0x715018A6 GT PUSH2 0x6F JUMPI DUP1 PUSH4 0x715018A6 EQ PUSH2 0x1B5 JUMPI DUP1 PUSH4 0x8DA5CB5B EQ PUSH2 0x1BF JUMPI DUP1 PUSH4 0x9F8E1766 EQ PUSH2 0x1DD JUMPI DUP1 PUSH4 0xB06B0368 EQ PUSH2 0x1F9 JUMPI DUP1 PUSH4 0xE64491F5 EQ PUSH2 0x22C JUMPI DUP1 PUSH4 0xF2FDE38B EQ PUSH2 0x248 JUMPI PUSH2 0xB2 JUMP JUMPDEST DUP1 PUSH4 0xD292732 EQ PUSH2 0xB6 JUMPI DUP1 PUSH4 0x17961F11 EQ PUSH2 0xE6 JUMPI DUP1 PUSH4 0x2E6B221D EQ PUSH2 0x102 JUMPI DUP1 PUSH4 0x3824FBEC EQ PUSH2 0x137 JUMPI DUP1 PUSH4 0x4768D4EF EQ PUSH2 0x167 JUMPI DUP1 PUSH4 0x5F6FDDDF EQ PUSH2 0x199 JUMPI JUMPDEST PUSH0 PUSH0 REVERT JUMPDEST PUSH2 0xD0 PUSH1 0x4 DUP1 CALLDATASIZE SUB DUP2 ADD SWAP1 PUSH2 0xCB SWAP2 SWAP1 PUSH2 0xD64 JUMP JUMPDEST PUSH2 0x264 JUMP JUMPDEST PUSH1 0x40 MLOAD PUSH2 0xDD SWAP2 SWAP1 PUSH2 0xDCE JUMP JUMPDEST PUSH1 0x40 MLOAD DUP1 SWAP2 SUB SWAP1 RETURN JUMPDEST PUSH2 0x100 PUSH1 0x4 DUP1 CALLDATASIZE SUB DUP2 ADD SWAP1 PUSH2 0xFB SWAP2 SWAP1 PUSH2 0xE1D JUMP JUMPDEST PUSH2 0x294 JUMP JUMPDEST STOP JUMPDEST PUSH2 0x11C PUSH1 0x4 DUP1 CALLDATASIZE SUB DUP2 ADD SWAP1 PUSH2 0x117 SWAP2 SWAP1 PUSH2 0xD64 JUMP JUMPDEST PUSH2 0x3BC JUMP JUMPDEST PUSH1 0x40 MLOAD PUSH2 0x12E SWAP7 SWAP6 SWAP5 SWAP4 SWAP3 SWAP2 SWAP1 PUSH2 0xF26 JUMP JUMPDEST PUSH1 0x40 MLOAD DUP1 SWAP2 SUB SWAP1 RETURN JUMPDEST PUSH2 0x151 PUSH1 0x4 DUP1 CALLDATASIZE SUB DUP2 ADD SWAP1 PUSH2 0x14C SWAP2 SWAP1 PUSH2 0xD64 JUMP JUMPDEST PUSH2 0x4D3 JUMP JUMPDEST PUSH1 0x40 MLOAD PUSH2 0x15E SWAP2 SWAP1 PUSH2 0xDCE JUMP JUMPDEST PUSH1 0x40 MLOAD DUP1 SWAP2 SUB SWAP1 RETURN JUMPDEST PUSH2 0x181 PUSH1 0x4 DUP1 CALLDATASIZE SUB DUP2 ADD SWAP1 PUSH2 0x17C SWAP2 SWAP1 PUSH2 0xD64 JUMP JUMPDEST PUSH2 0x503 JUMP JUMPDEST PUSH1 0x40 MLOAD PUSH2 0x190 SWAP4 SWAP3 SWAP2 SWAP1 PUSH2 0xF9B JUMP JUMPDEST PUSH1 0x40 MLOAD DUP1 SWAP2 SUB SWAP1 RETURN JUMPDEST PUSH2 0x1B3 PUSH1 0x4 DUP1 CALLDATASIZE SUB DUP2 ADD SWAP1 PUSH2 0x1AE SWAP2 SWAP1 PUSH2 0x10FC JUMP JUMPDEST PUSH2 0x544 JUMP JUMPDEST STOP JUMPDEST PUSH2 0x1BD PUSH2 0x6BE JUMP JUMPDEST STOP JUMPDEST PUSH2 0x1C7 PUSH2 0x6D1 JUMP JUMPDEST PUSH1 0x40 MLOAD PUSH2 0x1D4 SWAP2 SWAP1 PUSH2 0xDCE JUMP JUMPDEST PUSH1 0x40 MLOAD DUP1 SWAP2 SUB SWAP1 RETURN JUMPDEST PUSH2 0x1F7 PUSH1 0x4 DUP1 CALLDATASIZE SUB DUP2 ADD SWAP1 PUSH2 0x1F2 SWAP2 SWAP1 PUSH2 0x1197 JUMP JUMPDEST PUSH2 0x6F8 JUMP JUMPDEST STOP JUMPDEST PUSH2 0x213 PUSH1 0x4 DUP1 CALLDATASIZE SUB DUP2 ADD SWAP1 PUSH2 0x20E SWAP2 SWAP1 PUSH2 0xD64 JUMP JUMPDEST PUSH2 0x8DA JUMP JUMPDEST PUSH1 0x40 MLOAD PUSH2 0x223 SWAP5 SWAP4 SWAP3 SWAP2 SWAP1 PUSH2 0x123C JUMP JUMPDEST PUSH1 0x40 MLOAD DUP1 SWAP2 SUB SWAP1 RETURN JUMPDEST PUSH2 0x246 PUSH1 0x4 DUP1 CALLDATASIZE SUB DUP2 ADD SWAP1 PUSH2 0x241 SWAP2 SWAP1 PUSH2 0x1286 JUMP JUMPDEST PUSH2 0x9C6 JUMP JUMPDEST STOP JUMPDEST PUSH2 0x262 PUSH1 0x4 DUP1 CALLDATASIZE SUB DUP2 ADD SWAP1 PUSH2 0x25D SWAP2 SWAP1 PUSH2 0x1314 JUMP JUMPDEST PUSH2 0xB4D JUMP JUMPDEST STOP JUMPDEST PUSH1 0x2 PUSH1 0x20 MSTORE DUP1 PUSH0 MSTORE PUSH1 0x40 PUSH0 KECCAK256 PUSH0 SWAP2 POP SLOAD SWAP1 PUSH2 0x100 EXP SWAP1 DIV PUSH20 0xFFFFFFFFFFFFFFFFFFFFFFFFFFFFFFFFFFFFFFFF AND DUP2 JUMP JUMPDEST DUP1 PUSH1 0x3 DUP2 PUSH1 0xFF AND EQ DUP1 PUSH2 0x2AA JUMPI POP PUSH1 0x5 DUP2 PUSH1 0xFF AND EQ JUMPDEST PUSH2 0x2E9 JUMPI PUSH1 0x40 MLOAD PUSH32 0x8C379A000000000000000000000000000000000000000000000000000000000 DUP2 MSTORE PUSH1 0x4 ADD PUSH2 0x2E0 SWAP1 PUSH2 0x1389 JUMP JUMPDEST PUSH1 0x40 MLOAD DUP1 SWAP2 SUB SWAP1 REVERT JUMPDEST PUSH1 0x7 PUSH1 0x40 MLOAD DUP1 PUSH1 0x60 ADD PUSH1 0x40 MSTORE DUP1 DUP7 DUP2 MSTORE PUSH1 0x20 ADD DUP6 DUP2 MSTORE PUSH1 0x20 ADD DUP5 PUSH1 0xFF AND DUP2 MSTORE POP SWAP1 DUP1 PUSH1 0x1 DUP2 SLOAD ADD DUP1 DUP3 SSTORE DUP1 SWAP2 POP POP PUSH1 0x1 SWAP1 SUB SWAP1 PUSH0 MSTORE PUSH1 0x20 PUSH0 KECCAK256 SWAP1 PUSH1 0x3 MUL ADD PUSH0 SWAP1 SWAP2 SWAP1 SWAP2 SWAP1 SWAP2 POP PUSH0 DUP3 ADD MLOAD DUP2 PUSH0 ADD SSTORE PUSH1 0x20 DUP3 ADD MLOAD DUP2 PUSH1 0x1 ADD SSTORE PUSH1 0x40 DUP3 ADD MLOAD DUP2 PUSH1 0x2 ADD PUSH0 PUSH2 0x100 EXP DUP2 SLOAD DUP2 PUSH1 0xFF MUL NOT AND SWAP1 DUP4 PUSH1 0xFF AND MUL OR SWAP1 SSTORE POP POP POP PUSH0 PUSH1 0x1 PUSH1 0x7 DUP1 SLOAD SWAP1 POP PUSH2 0x376 SWAP2 SWAP1 PUSH2 0x13D4 JUMP JUMPDEST SWAP1 POP PUSH32 0x38380995FD3834D2987FF279FD8BCD57C849D0397C58BB311DCA9B6BC5FEE9AA DUP2 DUP7 DUP7 DUP7 PUSH1 0x40 MLOAD PUSH2 0x3AD SWAP5 SWAP4 SWAP3 SWAP2 SWAP1 PUSH2 0x1440 JUMP JUMPDEST PUSH1 0x40 MLOAD DUP1 SWAP2 SUB SWAP1 LOG1 POP POP POP POP POP JUMP JUMPDEST PUSH1 0x4 DUP2 DUP2 SLOAD DUP2 LT PUSH2 0x3CB JUMPI PUSH0 DUP1 REVERT JUMPDEST SWAP1 PUSH0 MSTORE PUSH1 0x20 PUSH0 KECCAK256 SWAP1 PUSH1 0x2 MUL ADD PUSH0 SWAP2 POP SWAP1 POP DUP1 PUSH0 ADD DUP1 SLOAD PUSH2 0x3EA SWAP1 PUSH2 0x14B0 JUMP JUMPDEST DUP1 PUSH1 0x1F ADD PUSH1 0x20 DUP1 SWAP2 DIV MUL PUSH1 0x20 ADD PUSH1 0x40 MLOAD SWAP1 DUP2 ADD PUSH1 0x40 MSTORE DUP1 SWAP3 SWAP2 SWAP1 DUP2 DUP2 MSTORE PUSH1 0x20 ADD DUP3 DUP1 SLOAD PUSH2 0x416 SWAP1 PUSH2 0x14B0 JUMP JUMPDEST DUP1 ISZERO PUSH2 0x461 JUMPI DUP1 PUSH1 0x1F LT PUSH2 0x438 JUMPI PUSH2 0x100 DUP1 DUP4 SLOAD DIV MUL DUP4 MSTORE SWAP2 PUSH1 0x20 ADD SWAP2 PUSH2 0x461 JUMP JUMPDEST DUP3 ADD SWAP2 SWAP1 PUSH0 MSTORE PUSH1 0x20 PUSH0 KECCAK256 SWAP1 JUMPDEST DUP2 SLOAD DUP2 MSTORE SWAP1 PUSH1 0x1 ADD SWAP1 PUSH1 0x20 ADD DUP1 DUP4 GT PUSH2 0x444 JUMPI DUP3 SWAP1 SUB PUSH1 0x1F AND DUP3 ADD SWAP2 JUMPDEST POP POP POP POP POP SWAP1 DUP1 PUSH1 0x1 ADD PUSH0 SWAP1 SLOAD SWAP1 PUSH2 0x100 EXP SWAP1 DIV PUSH4 0xFFFFFFFF AND SWAP1 DUP1 PUSH1 0x1 ADD PUSH1 0x4 SWAP1 SLOAD SWAP1 PUSH2 0x100 EXP SWAP1 DIV PUSH4 0xFFFFFFFF AND SWAP1 DUP1 PUSH1 0x1 ADD PUSH1 0x8 SWAP1 SLOAD SWAP1 PUSH2 0x100 EXP SWAP1 DIV PUSH4 0xFFFFFFFF AND SWAP1 DUP1 PUSH1 0x1 ADD PUSH1 0xC SWAP1 SLOAD SWAP1 PUSH2 0x100 EXP SWAP1 DIV PUSH2 0xFFFF AND SWAP1 DUP1 PUSH1 0x1 ADD PUSH1 0xE SWAP1 SLOAD SWAP1 PUSH2 0x100 EXP SWAP1 DIV PUSH1 0xFF AND SWAP1 POP DUP7 JUMP JUMPDEST PUSH1 0x5 PUSH1 0x20 MSTORE DUP1 PUSH0 MSTORE PUSH1 0x40 PUSH0 KECCAK256 PUSH0 SWAP2 POP SLOAD SWAP1 PUSH2 0x100 EXP SWAP1 DIV PUSH20 0xFFFFFFFFFFFFFFFFFFFFFFFFFFFFFFFFFFFFFFFF AND DUP2 JUMP JUMPDEST PUSH1 0x7 DUP2 DUP2 SLOAD DUP2 LT PUSH2 0x512 JUMPI PUSH0 DUP1 REVERT JUMPDEST SWAP1 PUSH0 MSTORE PUSH1 0x20 PUSH0 KECCAK256 SWAP1 PUSH1 0x3 MUL ADD PUSH0 SWAP2 POP SWAP1 POP DUP1 PUSH0 ADD SLOAD SWAP1 DUP1 PUSH1 0x1 ADD SLOAD SWAP1 DUP1 PUSH1 0x2 ADD PUSH0 SWAP1 SLOAD SWAP1 PUSH2 0x100 EXP SWAP1 DIV PUSH1 0xFF AND SWAP1 POP DUP4 JUMP JUMPDEST PUSH1 0x1 PUSH1 0x40 MLOAD DUP1 PUSH1 0x80 ADD PUSH1 0x40 MSTORE DUP1 DUP4 DUP2 MSTORE PUSH1 0x20 ADD PUSH1 0x1 PUSH2 0xFFFF AND DUP2 MSTORE PUSH1 0x20 ADD PUSH0 PUSH4 0xFFFFFFFF AND DUP2 MSTORE PUSH1 0x20 ADD PUSH0 PUSH2 0xFFFF AND DUP2 MSTORE POP SWAP1 DUP1 PUSH1 0x1 DUP2 SLOAD ADD DUP1 DUP3 SSTORE DUP1 SWAP2 POP POP PUSH1 0x1 SWAP1 SUB SWAP1 PUSH0 MSTORE PUSH1 0x20 PUSH0 KECCAK256 SWAP1 PUSH1 0x2 MUL ADD PUSH0 SWAP1 SWAP2 SWAP1 SWAP2 SWAP1 SWAP2 POP PUSH0 DUP3 ADD MLOAD DUP2 PUSH0 ADD SWAP1 DUP2 PUSH2 0x5AF SWAP2 SWAP1 PUSH2 0x1677 JUMP JUMPDEST POP PUSH1 0x20 DUP3 ADD MLOAD DUP2 PUSH1 0x1 ADD PUSH0 PUSH2 0x100 EXP DUP2 SLOAD DUP2 PUSH2 0xFFFF MUL NOT AND SWAP1 DUP4 PUSH2 0xFFFF AND MUL OR SWAP1 SSTORE POP PUSH1 0x40 DUP3 ADD MLOAD DUP2 PUSH1 0x1 ADD PUSH1 0x2 PUSH2 0x100 EXP DUP2 SLOAD DUP2 PUSH4 0xFFFFFFFF MUL NOT AND SWAP1 DUP4 PUSH4 0xFFFFFFFF AND MUL OR SWAP1 SSTORE POP PUSH1 0x60 DUP3 ADD MLOAD DUP2 PUSH1 0x1 ADD PUSH1 0x6 PUSH2 0x100 EXP DUP2 SLOAD DUP2 PUSH2 0xFFFF MUL NOT AND SWAP1 DUP4 PUSH2 0xFFFF AND MUL OR SWAP1 SSTORE POP POP POP PUSH0 PUSH1 0x1 DUP1 DUP1 SLOAD SWAP1 POP PUSH2 0x630 SWAP2 SWAP1 PUSH2 0x13D4 JUMP JUMPDEST SWAP1 POP CALLER PUSH1 0x2 PUSH0 DUP4 DUP2 MSTORE PUSH1 0x20 ADD SWAP1 DUP2 MSTORE PUSH1 0x20 ADD PUSH0 KECCAK256 PUSH0 PUSH2 0x100 EXP DUP2 SLOAD DUP2 PUSH20 0xFFFFFFFFFFFFFFFFFFFFFFFFFFFFFFFFFFFFFFFF MUL NOT AND SWAP1 DUP4 PUSH20 0xFFFFFFFFFFFFFFFFFFFFFFFFFFFFFFFFFFFFFFFF AND MUL OR SWAP1 SSTORE POP PUSH32 0x41B82268D4CFCB7BDE62BAE060583C745A4821F267E1FE541B5F624E00D43C7D DUP2 DUP4 PUSH1 0x40 MLOAD PUSH2 0x6B2 SWAP3 SWAP2 SWAP1 PUSH2 0x1746 JUMP JUMPDEST PUSH1 0x40 MLOAD DUP1 SWAP2 SUB SWAP1 LOG1 POP POP JUMP JUMPDEST PUSH2 0x6C6 PUSH2 0xBD1 JUMP JUMPDEST PUSH2 0x6CF PUSH0 PUSH2 0xC58 JUMP JUMPDEST JUMP JUMPDEST PUSH0 PUSH0 PUSH0 SWAP1 SLOAD SWAP1 PUSH2 0x100 EXP SWAP1 DIV PUSH20 0xFFFFFFFFFFFFFFFFFFFFFFFFFFFFFFFFFFFFFFFF AND SWAP1 POP SWAP1 JUMP JUMPDEST PUSH1 0x4 PUSH1 0x40 MLOAD DUP1 PUSH1 0xC0 ADD PUSH1 0x40 MSTORE DUP1 DUP9 DUP2 MSTORE PUSH1 0x20 ADD DUP8 PUSH4 0xFFFFFFFF AND DUP2 MSTORE PUSH1 0x20 ADD DUP7 PUSH4 0xFFFFFFFF AND DUP2 MSTORE PUSH1 0x20 ADD DUP6 PUSH4 0xFFFFFFFF AND DUP2 MSTORE PUSH1 0x20 ADD DUP5 PUSH2 0xFFFF AND DUP2 MSTORE PUSH1 0x20 ADD DUP4 PUSH1 0xFF AND DUP2 MSTORE POP SWAP1 DUP1 PUSH1 0x1 DUP2 SLOAD ADD DUP1 DUP3 SSTORE DUP1 SWAP2 POP POP PUSH1 0x1 SWAP1 SUB SWAP1 PUSH0 MSTORE PUSH1 0x20 PUSH0 KECCAK256 SWAP1 PUSH1 0x2 MUL ADD PUSH0 SWAP1 SWAP2 SWAP1 SWAP2 SWAP1 SWAP2 POP PUSH0 DUP3 ADD MLOAD DUP2 PUSH0 ADD SWAP1 DUP2 PUSH2 0x779 SWAP2 SWAP1 PUSH2 0x1677 JUMP JUMPDEST POP PUSH1 0x20 DUP3 ADD MLOAD DUP2 PUSH1 0x1 ADD PUSH0 PUSH2 0x100 EXP DUP2 SLOAD DUP2 PUSH4 0xFFFFFFFF MUL NOT AND SWAP1 DUP4 PUSH4 0xFFFFFFFF AND MUL OR SWAP1 SSTORE POP PUSH1 0x40 DUP3 ADD MLOAD DUP2 PUSH1 0x1 ADD PUSH1 0x4 PUSH2 0x100 EXP DUP2 SLOAD DUP2 PUSH4 0xFFFFFFFF MUL NOT AND SWAP1 DUP4 PUSH4 0xFFFFFFFF AND MUL OR SWAP1 SSTORE POP PUSH1 0x60 DUP3 ADD MLOAD DUP2 PUSH1 0x1 ADD PUSH1 0x8 PUSH2 0x100 EXP DUP2 SLOAD DUP2 PUSH4 0xFFFFFFFF MUL NOT AND SWAP1 DUP4 PUSH4 0xFFFFFFFF AND MUL OR SWAP1 SSTORE POP PUSH1 0x80 DUP3 ADD MLOAD DUP2 PUSH1 0x1 ADD PUSH1 0xC PUSH2 0x100 EXP DUP2 SLOAD DUP2 PUSH2 0xFFFF MUL NOT AND SWAP1 DUP4 PUSH2 0xFFFF AND MUL OR SWAP1 SSTORE POP PUSH1 0xA0 DUP3 ADD MLOAD DUP2 PUSH1 0x1 ADD PUSH1 0xE PUSH2 0x100 EXP DUP2 SLOAD DUP2 PUSH1 0xFF MUL NOT AND SWAP1 DUP4 PUSH1 0xFF AND MUL OR SWAP1 SSTORE POP POP POP PUSH0 PUSH1 0x1 PUSH1 0x4 DUP1 SLOAD SWAP1 POP PUSH2 0x847 SWAP2 SWAP1 PUSH2 0x13D4 JUMP JUMPDEST SWAP1 POP CALLER PUSH1 0x5 PUSH0 DUP4 DUP2 MSTORE PUSH1 0x20 ADD SWAP1 DUP2 MSTORE PUSH1 0x20 ADD PUSH0 KECCAK256 PUSH0 PUSH2 0x100 EXP DUP2 SLOAD DUP2 PUSH20 0xFFFFFFFFFFFFFFFFFFFFFFFFFFFFFFFFFFFFFFFF MUL NOT AND SWAP1 DUP4 PUSH20 0xFFFFFFFFFFFFFFFFFFFFFFFFFFFFFFFFFFFFFFFF AND MUL OR SWAP1 SSTORE POP PUSH32 0xCF0B1657BF9A3ADD4678D1909D3FDCDB613A214497EB0D3C6B946DEE91975838 DUP2 DUP9 PUSH1 0x40 MLOAD PUSH2 0x8C9 SWAP3 SWAP2 SWAP1 PUSH2 0x1746 JUMP JUMPDEST PUSH1 0x40 MLOAD DUP1 SWAP2 SUB SWAP1 LOG1 POP POP POP POP POP POP POP JUMP JUMPDEST PUSH1 0x1 DUP2 DUP2 SLOAD DUP2 LT PUSH2 0x8E9 JUMPI PUSH0 DUP1 REVERT JUMPDEST SWAP1 PUSH0 MSTORE PUSH1 0x20 PUSH0 KECCAK256 SWAP1 PUSH1 0x2 MUL ADD PUSH0 SWAP2 POP SWAP1 POP DUP1 PUSH0 ADD DUP1 SLOAD PUSH2 0x908 SWAP1 PUSH2 0x14B0 JUMP JUMPDEST DUP1 PUSH1 0x1F ADD PUSH1 0x20 DUP1 SWAP2 DIV MUL PUSH1 0x20 ADD PUSH1 0x40 MLOAD SWAP1 DUP2 ADD PUSH1 0x40 MSTORE DUP1 SWAP3 SWAP2 SWAP1 DUP2 DUP2 MSTORE PUSH1 0x20 ADD DUP3 DUP1 SLOAD PUSH2 0x934 SWAP1 PUSH2 0x14B0 JUMP JUMPDEST DUP1 ISZERO PUSH2 0x97F JUMPI DUP1 PUSH1 0x1F LT PUSH2 0x956 JUMPI PUSH2 0x100 DUP1 DUP4 SLOAD DIV MUL DUP4 MSTORE SWAP2 PUSH1 0x20 ADD SWAP2 PUSH2 0x97F JUMP JUMPDEST DUP3 ADD SWAP2 SWAP1 PUSH0 MSTORE PUSH1 0x20 PUSH0 KECCAK256 SWAP1 JUMPDEST DUP2 SLOAD DUP2 MSTORE SWAP1 PUSH1 0x1 ADD SWAP1 PUSH1 0x20 ADD DUP1 DUP4 GT PUSH2 0x962 JUMPI DUP3 SWAP1 SUB PUSH1 0x1F AND DUP3 ADD SWAP2 JUMPDEST POP POP POP POP POP SWAP1 DUP1 PUSH1 0x1 ADD PUSH0 SWAP1 SLOAD SWAP1 PUSH2 0x100 EXP SWAP1 DIV PUSH2 0xFFFF AND SWAP1 DUP1 PUSH1 0x1 ADD PUSH1 0x2 SWAP1 SLOAD SWAP1 PUSH2 0x100 EXP SWAP1 DIV PUSH4 0xFFFFFFFF AND SWAP1 DUP1 PUSH1 0x1 ADD PUSH1 0x6 SWAP1 SLOAD SWAP1 PUSH2 0x100 EXP SWAP1 DIV PUSH2 0xFFFF AND SWAP1 POP DUP5 JUMP JUMPDEST DUP2 PUSH1 0xFF AND DUP2 PUSH1 0xB DUP3 LT DUP1 ISZERO PUSH2 0x9DE JUMPI POP PUSH1 0xB DUP2 PUSH1 0xFF AND LT JUMPDEST PUSH2 0xA1D JUMPI PUSH1 0x40 MLOAD PUSH32 0x8C379A000000000000000000000000000000000000000000000000000000000 DUP2 MSTORE PUSH1 0x4 ADD PUSH2 0xA14 SWAP1 PUSH2 0x17BE JUMP JUMPDEST PUSH1 0x40 MLOAD DUP1 SWAP2 SUB SWAP1 REVERT JUMPDEST PUSH1 0x7 DUP7 DUP2 SLOAD DUP2 LT PUSH2 0xA31 JUMPI PUSH2 0xA30 PUSH2 0x17DC JUMP JUMPDEST JUMPDEST SWAP1 PUSH0 MSTORE PUSH1 0x20 PUSH0 KECCAK256 SWAP1 PUSH1 0x3 MUL ADD PUSH1 0x2 ADD PUSH0 SWAP1 SLOAD SWAP1 PUSH2 0x100 EXP SWAP1 DIV PUSH1 0xFF AND PUSH1 0xFF AND DUP6 LT PUSH2 0xA91 JUMPI PUSH1 0x40 MLOAD PUSH32 0x8C379A000000000000000000000000000000000000000000000000000000000 DUP2 MSTORE PUSH1 0x4 ADD PUSH2 0xA88 SWAP1 PUSH2 0x1853 JUMP JUMPDEST PUSH1 0x40 MLOAD DUP1 SWAP2 SUB SWAP1 REVERT JUMPDEST PUSH1 0x8 PUSH1 0x40 MLOAD DUP1 PUSH1 0x80 ADD PUSH1 0x40 MSTORE DUP1 DUP9 DUP2 MSTORE PUSH1 0x20 ADD DUP8 DUP2 MSTORE PUSH1 0x20 ADD DUP7 PUSH1 0xFF AND DUP2 MSTORE PUSH1 0x20 ADD DUP6 PUSH1 0xFF AND DUP2 MSTORE POP SWAP1 DUP1 PUSH1 0x1 DUP2 SLOAD ADD DUP1 DUP3 SSTORE DUP1 SWAP2 POP POP PUSH1 0x1 SWAP1 SUB SWAP1 PUSH0 MSTORE PUSH1 0x20 PUSH0 KECCAK256 SWAP1 PUSH1 0x4 MUL ADD PUSH0 SWAP1 SWAP2 SWAP1 SWAP2 SWAP1 SWAP2 POP PUSH0 DUP3 ADD MLOAD DUP2 PUSH0 ADD SSTORE PUSH1 0x20 DUP3 ADD MLOAD DUP2 PUSH1 0x1 ADD SSTORE PUSH1 0x40 DUP3 ADD MLOAD DUP2 PUSH1 0x2 ADD SSTORE PUSH1 0x60 DUP3 ADD MLOAD DUP2 PUSH1 0x3 ADD SSTORE POP POP PUSH32 0xA18245098AF5F1A6FE04D2FFEA727B9DDAD1AA7579A1D6A7FA718B8288AC1BA1 DUP7 DUP7 DUP7 DUP7 PUSH1 0x40 MLOAD PUSH2 0xB3D SWAP5 SWAP4 SWAP3 SWAP2 SWAP1 PUSH2 0x1871 JUMP JUMPDEST PUSH1 0x40 MLOAD DUP1 SWAP2 SUB SWAP1 LOG1 POP POP POP POP POP POP JUMP JUMPDEST PUSH2 0xB55 PUSH2 0xBD1 JUMP JUMPDEST PUSH0 PUSH20 0xFFFFFFFFFFFFFFFFFFFFFFFFFFFFFFFFFFFFFFFF AND DUP2 PUSH20 0xFFFFFFFFFFFFFFFFFFFFFFFFFFFFFFFFFFFFFFFF AND SUB PUSH2 0xBC5 JUMPI PUSH0 PUSH1 0x40 MLOAD PUSH32 0x1E4FBDF700000000000000000000000000000000000000000000000000000000 DUP2 MSTORE PUSH1 0x4 ADD PUSH2 0xBBC SWAP2 SWAP1 PUSH2 0xDCE JUMP JUMPDEST PUSH1 0x40 MLOAD DUP1 SWAP2 SUB SWAP1 REVERT JUMPDEST PUSH2 0xBCE DUP2 PUSH2 0xC58 JUMP JUMPDEST POP JUMP JUMPDEST PUSH2 0xBD9 PUSH2 0xD19 JUMP JUMPDEST PUSH20 0xFFFFFFFFFFFFFFFFFFFFFFFFFFFFFFFFFFFFFFFF AND PUSH2 0xBF7 PUSH2 0x6D1 JUMP JUMPDEST PUSH20 0xFFFFFFFFFFFFFFFFFFFFFFFFFFFFFFFFFFFFFFFF AND EQ PUSH2 0xC56 JUMPI PUSH2 0xC1A PUSH2 0xD19 JUMP JUMPDEST PUSH1 0x40 MLOAD PUSH32 0x118CDAA700000000000000000000000000000000000000000000000000000000 DUP2 MSTORE PUSH1 0x4 ADD PUSH2 0xC4D SWAP2 SWAP1 PUSH2 0xDCE JUMP JUMPDEST PUSH1 0x40 MLOAD DUP1 SWAP2 SUB SWAP1 REVERT JUMPDEST JUMP JUMPDEST PUSH0 PUSH0 PUSH0 SWAP1 SLOAD SWAP1 PUSH2 0x100 EXP SWAP1 DIV PUSH20 0xFFFFFFFFFFFFFFFFFFFFFFFFFFFFFFFFFFFFFFFF AND SWAP1 POP DUP2 PUSH0 PUSH0 PUSH2 0x100 EXP DUP2 SLOAD DUP2 PUSH20 0xFFFFFFFFFFFFFFFFFFFFFFFFFFFFFFFFFFFFFFFF MUL NOT AND SWAP1 DUP4 PUSH20 0xFFFFFFFFFFFFFFFFFFFFFFFFFFFFFFFFFFFFFFFF AND MUL OR SWAP1 SSTORE POP DUP2 PUSH20 0xFFFFFFFFFFFFFFFFFFFFFFFFFFFFFFFFFFFFFFFF AND DUP2 PUSH20 0xFFFFFFFFFFFFFFFFFFFFFFFFFFFFFFFFFFFFFFFF AND PUSH32 0x8BE0079C531659141344CD1FD0A4F28419497F9722A3DAAFE3B4186F6B6457E0 PUSH1 0x40 MLOAD PUSH1 0x40 MLOAD DUP1 SWAP2 SUB SWAP1 LOG3 POP POP JUMP JUMPDEST PUSH0 CALLER SWAP1 POP SWAP1 JUMP JUMPDEST PUSH0 PUSH1 0x40 MLOAD SWAP1 POP SWAP1 JUMP JUMPDEST PUSH0 PUSH0 REVERT JUMPDEST PUSH0 PUSH0 REVERT JUMPDEST PUSH0 DUP2 SWAP1 POP SWAP2 SWAP1 POP JUMP JUMPDEST PUSH2 0xD43 DUP2 PUSH2 0xD31 JUMP JUMPDEST DUP2 EQ PUSH2 0xD4D JUMPI PUSH0 PUSH0 REVERT JUMPDEST POP JUMP JUMPDEST PUSH0 DUP2 CALLDATALOAD SWAP1 POP PUSH2 0xD5E DUP2 PUSH2 0xD3A JUMP JUMPDEST SWAP3 SWAP2 POP POP JUMP JUMPDEST PUSH0 PUSH1 0x20 DUP3 DUP5 SUB SLT ISZERO PUSH2 0xD79 JUMPI PUSH2 0xD78 PUSH2 0xD29 JUMP JUMPDEST JUMPDEST PUSH0 PUSH2 0xD86 DUP5 DUP3 DUP6 ADD PUSH2 0xD50 JUMP JUMPDEST SWAP2 POP POP SWAP3 SWAP2 POP POP JUMP JUMPDEST PUSH0 PUSH20 0xFFFFFFFFFFFFFFFFFFFFFFFFFFFFFFFFFFFFFFFF DUP3 AND SWAP1 POP SWAP2 SWAP1 POP JUMP JUMPDEST PUSH0 PUSH2 0xDB8 DUP3 PUSH2 0xD8F JUMP JUMPDEST SWAP1 POP SWAP2 SWAP1 POP JUMP JUMPDEST PUSH2 0xDC8 DUP2 PUSH2 0xDAE JUMP JUMPDEST DUP3 MSTORE POP POP JUMP JUMPDEST PUSH0 PUSH1 0x20 DUP3 ADD SWAP1 POP PUSH2 0xDE1 PUSH0 DUP4 ADD DUP5 PUSH2 0xDBF JUMP JUMPDEST SWAP3 SWAP2 POP POP JUMP JUMPDEST PUSH0 PUSH1 0xFF DUP3 AND SWAP1 POP SWAP2 SWAP1 POP JUMP JUMPDEST PUSH2 0xDFC DUP2 PUSH2 0xDE7 JUMP JUMPDEST DUP2 EQ PUSH2 0xE06 JUMPI PUSH0 PUSH0 REVERT JUMPDEST POP JUMP JUMPDEST PUSH0 DUP2 CALLDATALOAD SWAP1 POP PUSH2 0xE17 DUP2 PUSH2 0xDF3 JUMP JUMPDEST SWAP3 SWAP2 POP POP JUMP JUMPDEST PUSH0 PUSH0 PUSH0 PUSH1 0x60 DUP5 DUP7 SUB SLT ISZERO PUSH2 0xE34 JUMPI PUSH2 0xE33 PUSH2 0xD29 JUMP JUMPDEST JUMPDEST PUSH0 PUSH2 0xE41 DUP7 DUP3 DUP8 ADD PUSH2 0xD50 JUMP JUMPDEST SWAP4 POP POP PUSH1 0x20 PUSH2 0xE52 DUP7 DUP3 DUP8 ADD PUSH2 0xD50 JUMP JUMPDEST SWAP3 POP POP PUSH1 0x40 PUSH2 0xE63 DUP7 DUP3 DUP8 ADD PUSH2 0xE09 JUMP JUMPDEST SWAP2 POP POP SWAP3 POP SWAP3 POP SWAP3 JUMP JUMPDEST PUSH0 DUP2 MLOAD SWAP1 POP SWAP2 SWAP1 POP JUMP JUMPDEST PUSH0 DUP3 DUP3 MSTORE PUSH1 0x20 DUP3 ADD SWAP1 POP SWAP3 SWAP2 POP POP JUMP JUMPDEST DUP3 DUP2 DUP4 MCOPY PUSH0 DUP4 DUP4 ADD MSTORE POP POP POP JUMP JUMPDEST PUSH0 PUSH1 0x1F NOT PUSH1 0x1F DUP4 ADD AND SWAP1 POP SWAP2 SWAP1 POP JUMP JUMPDEST PUSH0 PUSH2 0xEAF DUP3 PUSH2 0xE6D JUMP JUMPDEST PUSH2 0xEB9 DUP2 DUP6 PUSH2 0xE77 JUMP JUMPDEST SWAP4 POP PUSH2 0xEC9 DUP2 DUP6 PUSH1 0x20 DUP7 ADD PUSH2 0xE87 JUMP JUMPDEST PUSH2 0xED2 DUP2 PUSH2 0xE95 JUMP JUMPDEST DUP5 ADD SWAP2 POP POP SWAP3 SWAP2 POP POP JUMP JUMPDEST PUSH0 PUSH4 0xFFFFFFFF DUP3 AND SWAP1 POP SWAP2 SWAP1 POP JUMP JUMPDEST PUSH2 0xEF5 DUP2 PUSH2 0xEDD JUMP JUMPDEST DUP3 MSTORE POP POP JUMP JUMPDEST PUSH0 PUSH2 0xFFFF DUP3 AND SWAP1 POP SWAP2 SWAP1 POP JUMP JUMPDEST PUSH2 0xF11 DUP2 PUSH2 0xEFB JUMP JUMPDEST DUP3 MSTORE POP POP JUMP JUMPDEST PUSH2 0xF20 DUP2 PUSH2 0xDE7 JUMP JUMPDEST DUP3 MSTORE POP POP JUMP JUMPDEST PUSH0 PUSH1 0xC0 DUP3 ADD SWAP1 POP DUP2 DUP2 SUB PUSH0 DUP4 ADD MSTORE PUSH2 0xF3E DUP2 DUP10 PUSH2 0xEA5 JUMP JUMPDEST SWAP1 POP PUSH2 0xF4D PUSH1 0x20 DUP4 ADD DUP9 PUSH2 0xEEC JUMP JUMPDEST PUSH2 0xF5A PUSH1 0x40 DUP4 ADD DUP8 PUSH2 0xEEC JUMP JUMPDEST PUSH2 0xF67 PUSH1 0x60 DUP4 ADD DUP7 PUSH2 0xEEC JUMP JUMPDEST PUSH2 0xF74 PUSH1 0x80 DUP4 ADD DUP6 PUSH2 0xF08 JUMP JUMPDEST PUSH2 0xF81 PUSH1 0xA0 DUP4 ADD DUP5 PUSH2 0xF17 JUMP JUMPDEST SWAP8 SWAP7 POP POP POP POP POP POP POP JUMP JUMPDEST PUSH2 0xF95 DUP2 PUSH2 0xD31 JUMP JUMPDEST DUP3 MSTORE POP POP JUMP JUMPDEST PUSH0 PUSH1 0x60 DUP3 ADD SWAP1 POP PUSH2 0xFAE PUSH0 DUP4 ADD DUP7 PUSH2 0xF8C JUMP JUMPDEST PUSH2 0xFBB PUSH1 0x20 DUP4 ADD DUP6 PUSH2 0xF8C JUMP JUMPDEST PUSH2 0xFC8 PUSH1 0x40 DUP4 ADD DUP5 PUSH2 0xF17 JUMP JUMPDEST SWAP5 SWAP4 POP POP POP POP JUMP JUMPDEST PUSH0 PUSH0 REVERT JUMPDEST PUSH0 PUSH0 REVERT JUMPDEST PUSH32 0x4E487B7100000000000000000000000000000000000000000000000000000000 PUSH0 MSTORE PUSH1 0x41 PUSH1 0x4 MSTORE PUSH1 0x24 PUSH0 REVERT JUMPDEST PUSH2 0x100E DUP3 PUSH2 0xE95 JUMP JUMPDEST DUP2 ADD DUP2 DUP2 LT PUSH8 0xFFFFFFFFFFFFFFFF DUP3 GT OR ISZERO PUSH2 0x102D JUMPI PUSH2 0x102C PUSH2 0xFD8 JUMP JUMPDEST JUMPDEST DUP1 PUSH1 0x40 MSTORE POP POP POP JUMP JUMPDEST PUSH0 PUSH2 0x103F PUSH2 0xD20 JUMP JUMPDEST SWAP1 POP PUSH2 0x104B DUP3 DUP3 PUSH2 0x1005 JUMP JUMPDEST SWAP2 SWAP1 POP JUMP JUMPDEST PUSH0 PUSH8 0xFFFFFFFFFFFFFFFF DUP3 GT ISZERO PUSH2 0x106A JUMPI PUSH2 0x1069 PUSH2 0xFD8 JUMP JUMPDEST JUMPDEST PUSH2 0x1073 DUP3 PUSH2 0xE95 JUMP JUMPDEST SWAP1 POP PUSH1 0x20 DUP2 ADD SWAP1 POP SWAP2 SWAP1 POP JUMP JUMPDEST DUP3 DUP2 DUP4 CALLDATACOPY PUSH0 DUP4 DUP4 ADD MSTORE POP POP POP JUMP JUMPDEST PUSH0 PUSH2 0x10A0 PUSH2 0x109B DUP5 PUSH2 0x1050 JUMP JUMPDEST PUSH2 0x1036 JUMP JUMPDEST SWAP1 POP DUP3 DUP2 MSTORE PUSH1 0x20 DUP2 ADD DUP5 DUP5 DUP5 ADD GT ISZERO PUSH2 0x10BC JUMPI PUSH2 0x10BB PUSH2 0xFD4 JUMP JUMPDEST JUMPDEST PUSH2 0x10C7 DUP5 DUP3 DUP6 PUSH2 0x1080 JUMP JUMPDEST POP SWAP4 SWAP3 POP POP POP JUMP JUMPDEST PUSH0 DUP3 PUSH1 0x1F DUP4 ADD SLT PUSH2 0x10E3 JUMPI PUSH2 0x10E2 PUSH2 0xFD0 JUMP JUMPDEST JUMPDEST DUP2 CALLDATALOAD PUSH2 0x10F3 DUP5 DUP3 PUSH1 0x20 DUP7 ADD PUSH2 0x108E JUMP JUMPDEST SWAP2 POP POP SWAP3 SWAP2 POP POP JUMP JUMPDEST PUSH0 PUSH1 0x20 DUP3 DUP5 SUB SLT ISZERO PUSH2 0x1111 JUMPI PUSH2 0x1110 PUSH2 0xD29 JUMP JUMPDEST JUMPDEST PUSH0 DUP3 ADD CALLDATALOAD PUSH8 0xFFFFFFFFFFFFFFFF DUP2 GT ISZERO PUSH2 0x112E JUMPI PUSH2 0x112D PUSH2 0xD2D JUMP JUMPDEST JUMPDEST PUSH2 0x113A DUP5 DUP3 DUP6 ADD PUSH2 0x10CF JUMP JUMPDEST SWAP2 POP POP SWAP3 SWAP2 POP POP JUMP JUMPDEST PUSH2 0x114C DUP2 PUSH2 0xEDD JUMP JUMPDEST DUP2 EQ PUSH2 0x1156 JUMPI PUSH0 PUSH0 REVERT JUMPDEST POP JUMP JUMPDEST PUSH0 DUP2 CALLDATALOAD SWAP1 POP PUSH2 0x1167 DUP2 PUSH2 0x1143 JUMP JUMPDEST SWAP3 SWAP2 POP POP JUMP JUMPDEST PUSH2 0x1176 DUP2 PUSH2 0xEFB JUMP JUMPDEST DUP2 EQ PUSH2 0x1180 JUMPI PUSH0 PUSH0 REVERT JUMPDEST POP JUMP JUMPDEST PUSH0 DUP2 CALLDATALOAD SWAP1 POP PUSH2 0x1191 DUP2 PUSH2 0x116D JUMP JUMPDEST SWAP3 SWAP2 POP POP JUMP JUMPDEST PUSH0 PUSH0 PUSH0 PUSH0 PUSH0 PUSH0 PUSH1 0xC0 DUP8 DUP10 SUB SLT ISZERO PUSH2 0x11B1 JUMPI PUSH2 0x11B0 PUSH2 0xD29 JUMP JUMPDEST JUMPDEST PUSH0 DUP8 ADD CALLDATALOAD PUSH8 0xFFFFFFFFFFFFFFFF DUP2 GT ISZERO PUSH2 0x11CE JUMPI PUSH2 0x11CD PUSH2 0xD2D JUMP JUMPDEST JUMPDEST PUSH2 0x11DA DUP10 DUP3 DUP11 ADD PUSH2 0x10CF JUMP JUMPDEST SWAP7 POP POP PUSH1 0x20 PUSH2 0x11EB DUP10 DUP3 DUP11 ADD PUSH2 0x1159 JUMP JUMPDEST SWAP6 POP POP PUSH1 0x40 PUSH2 0x11FC DUP10 DUP3 DUP11 ADD PUSH2 0x1159 JUMP JUMPDEST SWAP5 POP POP PUSH1 0x60 PUSH2 0x120D DUP10 DUP3 DUP11 ADD PUSH2 0x1159 JUMP JUMPDEST SWAP4 POP POP PUSH1 0x80 PUSH2 0x121E DUP10 DUP3 DUP11 ADD PUSH2 0x1183 JUMP JUMPDEST SWAP3 POP POP PUSH1 0xA0 PUSH2 0x122F DUP10 DUP3 DUP11 ADD PUSH2 0xE09 JUMP JUMPDEST SWAP2 POP POP SWAP3 SWAP6 POP SWAP3 SWAP6 POP SWAP3 SWAP6 JUMP JUMPDEST PUSH0 PUSH1 0x80 DUP3 ADD SWAP1 POP DUP2 DUP2 SUB PUSH0 DUP4 ADD MSTORE PUSH2 0x1254 DUP2 DUP8 PUSH2 0xEA5 JUMP JUMPDEST SWAP1 POP PUSH2 0x1263 PUSH1 0x20 DUP4 ADD DUP7 PUSH2 0xF08 JUMP JUMPDEST PUSH2 0x1270 PUSH1 0x40 DUP4 ADD DUP6 PUSH2 0xEEC JUMP JUMPDEST PUSH2 0x127D PUSH1 0x60 DUP4 ADD DUP5 PUSH2 0xF08 JUMP JUMPDEST SWAP6 SWAP5 POP POP POP POP POP JUMP JUMPDEST PUSH0 PUSH0 PUSH0 PUSH0 PUSH1 0x80 DUP6 DUP8 SUB SLT ISZERO PUSH2 0x129E JUMPI PUSH2 0x129D PUSH2 0xD29 JUMP JUMPDEST JUMPDEST PUSH0 PUSH2 0x12AB DUP8 DUP3 DUP9 ADD PUSH2 0xD50 JUMP JUMPDEST SWAP5 POP POP PUSH1 0x20 PUSH2 0x12BC DUP8 DUP3 DUP9 ADD PUSH2 0xD50 JUMP JUMPDEST SWAP4 POP POP PUSH1 0x40 PUSH2 0x12CD DUP8 DUP3 DUP9 ADD PUSH2 0xE09 JUMP JUMPDEST SWAP3 POP POP PUSH1 0x60 PUSH2 0x12DE DUP8 DUP3 DUP9 ADD PUSH2 0xE09 JUMP JUMPDEST SWAP2 POP POP SWAP3 SWAP6 SWAP2 SWAP5 POP SWAP3 POP JUMP JUMPDEST PUSH2 0x12F3 DUP2 PUSH2 0xDAE JUMP JUMPDEST DUP2 EQ PUSH2 0x12FD JUMPI PUSH0 PUSH0 REVERT JUMPDEST POP JUMP JUMPDEST PUSH0 DUP2 CALLDATALOAD SWAP1 POP PUSH2 0x130E DUP2 PUSH2 0x12EA JUMP JUMPDEST SWAP3 SWAP2 POP POP JUMP JUMPDEST PUSH0 PUSH1 0x20 DUP3 DUP5 SUB SLT ISZERO PUSH2 0x1329 JUMPI PUSH2 0x1328 PUSH2 0xD29 JUMP JUMPDEST JUMPDEST PUSH0 PUSH2 0x1336 DUP5 DUP3 DUP6 ADD PUSH2 0x1300 JUMP JUMPDEST SWAP2 POP POP SWAP3 SWAP2 POP POP JUMP JUMPDEST PUSH32 0x4F7574207769746820726F756E64206C696D6974000000000000000000000000 PUSH0 DUP3 ADD MSTORE POP JUMP JUMPDEST PUSH0 PUSH2 0x1373 PUSH1 0x14 DUP4 PUSH2 0xE77 JUMP JUMPDEST SWAP2 POP PUSH2 0x137E DUP3 PUSH2 0x133F JUMP JUMPDEST PUSH1 0x20 DUP3 ADD SWAP1 POP SWAP2 SWAP1 POP JUMP JUMPDEST PUSH0 PUSH1 0x20 DUP3 ADD SWAP1 POP DUP2 DUP2 SUB PUSH0 DUP4 ADD MSTORE PUSH2 0x13A0 DUP2 PUSH2 0x1367 JUMP JUMPDEST SWAP1 POP SWAP2 SWAP1 POP JUMP JUMPDEST PUSH32 0x4E487B7100000000000000000000000000000000000000000000000000000000 PUSH0 MSTORE PUSH1 0x11 PUSH1 0x4 MSTORE PUSH1 0x24 PUSH0 REVERT JUMPDEST PUSH0 PUSH2 0x13DE DUP3 PUSH2 0xD31 JUMP JUMPDEST SWAP2 POP PUSH2 0x13E9 DUP4 PUSH2 0xD31 JUMP JUMPDEST SWAP3 POP DUP3 DUP3 SUB SWAP1 POP DUP2 DUP2 GT ISZERO PUSH2 0x1401 JUMPI PUSH2 0x1400 PUSH2 0x13A7 JUMP JUMPDEST JUMPDEST SWAP3 SWAP2 POP POP JUMP JUMPDEST PUSH0 DUP2 SWAP1 POP SWAP2 SWAP1 POP JUMP JUMPDEST PUSH0 PUSH2 0x142A PUSH2 0x1425 PUSH2 0x1420 DUP5 PUSH2 0xDE7 JUMP JUMPDEST PUSH2 0x1407 JUMP JUMPDEST PUSH2 0xD31 JUMP JUMPDEST SWAP1 POP SWAP2 SWAP1 POP JUMP JUMPDEST PUSH2 0x143A DUP2 PUSH2 0x1410 JUMP JUMPDEST DUP3 MSTORE POP POP JUMP JUMPDEST PUSH0 PUSH1 0x80 DUP3 ADD SWAP1 POP PUSH2 0x1453 PUSH0 DUP4 ADD DUP8 PUSH2 0xF8C JUMP JUMPDEST PUSH2 0x1460 PUSH1 0x20 DUP4 ADD DUP7 PUSH2 0xF8C JUMP JUMPDEST PUSH2 0x146D PUSH1 0x40 DUP4 ADD DUP6 PUSH2 0xF8C JUMP JUMPDEST PUSH2 0x147A PUSH1 0x60 DUP4 ADD DUP5 PUSH2 0x1431 JUMP JUMPDEST SWAP6 SWAP5 POP POP POP POP POP JUMP JUMPDEST PUSH32 0x4E487B7100000000000000000000000000000000000000000000000000000000 PUSH0 MSTORE PUSH1 0x22 PUSH1 0x4 MSTORE PUSH1 0x24 PUSH0 REVERT JUMPDEST PUSH0 PUSH1 0x2 DUP3 DIV SWAP1 POP PUSH1 0x1 DUP3 AND DUP1 PUSH2 0x14C7 JUMPI PUSH1 0x7F DUP3 AND SWAP2 POP JUMPDEST PUSH1 0x20 DUP3 LT DUP2 SUB PUSH2 0x14DA JUMPI PUSH2 0x14D9 PUSH2 0x1483 JUMP JUMPDEST JUMPDEST POP SWAP2 SWAP1 POP JUMP JUMPDEST PUSH0 DUP2 SWAP1 POP DUP2 PUSH0 MSTORE PUSH1 0x20 PUSH0 KECCAK256 SWAP1 POP SWAP2 SWAP1 POP JUMP JUMPDEST PUSH0 PUSH1 0x20 PUSH1 0x1F DUP4 ADD DIV SWAP1 POP SWAP2 SWAP1 POP JUMP JUMPDEST PUSH0 DUP3 DUP3 SHL SWAP1 POP SWAP3 SWAP2 POP POP JUMP JUMPDEST PUSH0 PUSH1 0x8 DUP4 MUL PUSH2 0x153C PUSH32 0xFFFFFFFFFFFFFFFFFFFFFFFFFFFFFFFFFFFFFFFFFFFFFFFFFFFFFFFFFFFFFFFF DUP3 PUSH2 0x1501 JUMP JUMPDEST PUSH2 0x1546 DUP7 DUP4 PUSH2 0x1501 JUMP JUMPDEST SWAP6 POP DUP1 NOT DUP5 AND SWAP4 POP DUP1 DUP7 AND DUP5 OR SWAP3 POP POP POP SWAP4 SWAP3 POP POP POP JUMP JUMPDEST PUSH0 PUSH2 0x1578 PUSH2 0x1573 PUSH2 0x156E DUP5 PUSH2 0xD31 JUMP JUMPDEST PUSH2 0x1407 JUMP JUMPDEST PUSH2 0xD31 JUMP JUMPDEST SWAP1 POP SWAP2 SWAP1 POP JUMP JUMPDEST PUSH0 DUP2 SWAP1 POP SWAP2 SWAP1 POP JUMP JUMPDEST PUSH2 0x1591 DUP4 PUSH2 0x155E JUMP JUMPDEST PUSH2 0x15A5 PUSH2 0x159D DUP3 PUSH2 0x157F JUMP JUMPDEST DUP5 DUP5 SLOAD PUSH2 0x150D JUMP JUMPDEST DUP3 SSTORE POP POP POP POP JUMP JUMPDEST PUSH0 PUSH0 SWAP1 POP SWAP1 JUMP JUMPDEST PUSH2 0x15BC PUSH2 0x15AD JUMP JUMPDEST PUSH2 0x15C7 DUP2 DUP5 DUP5 PUSH2 0x1588 JUMP JUMPDEST POP POP POP JUMP JUMPDEST JUMPDEST DUP2 DUP2 LT ISZERO PUSH2 0x15EA JUMPI PUSH2 0x15DF PUSH0 DUP3 PUSH2 0x15B4 JUMP JUMPDEST PUSH1 0x1 DUP2 ADD SWAP1 POP PUSH2 0x15CD JUMP JUMPDEST POP POP JUMP JUMPDEST PUSH1 0x1F DUP3 GT ISZERO PUSH2 0x162F JUMPI PUSH2 0x1600 DUP2 PUSH2 0x14E0 JUMP JUMPDEST PUSH2 0x1609 DUP5 PUSH2 0x14F2 JUMP JUMPDEST DUP2 ADD PUSH1 0x20 DUP6 LT ISZERO PUSH2 0x1618 JUMPI DUP2 SWAP1 POP JUMPDEST PUSH2 0x162C PUSH2 0x1624 DUP6 PUSH2 0x14F2 JUMP JUMPDEST DUP4 ADD DUP3 PUSH2 0x15CC JUMP JUMPDEST POP POP JUMPDEST POP POP POP JUMP JUMPDEST PUSH0 DUP3 DUP3 SHR SWAP1 POP SWAP3 SWAP2 POP POP JUMP JUMPDEST PUSH0 PUSH2 0x164F PUSH0 NOT DUP5 PUSH1 0x8 MUL PUSH2 0x1634 JUMP JUMPDEST NOT DUP1 DUP4 AND SWAP2 POP POP SWAP3 SWAP2 POP POP JUMP JUMPDEST PUSH0 PUSH2 0x1667 DUP4 DUP4 PUSH2 0x1640 JUMP JUMPDEST SWAP2 POP DUP3 PUSH1 0x2 MUL DUP3 OR SWAP1 POP SWAP3 SWAP2 POP POP JUMP JUMPDEST PUSH2 0x1680 DUP3 PUSH2 0xE6D JUMP JUMPDEST PUSH8 0xFFFFFFFFFFFFFFFF DUP2 GT ISZERO PUSH2 0x1699 JUMPI PUSH2 0x1698 PUSH2 0xFD8 JUMP JUMPDEST JUMPDEST PUSH2 0x16A3 DUP3 SLOAD PUSH2 0x14B0 JUMP JUMPDEST PUSH2 0x16AE DUP3 DUP3 DUP6 PUSH2 0x15EE JUMP JUMPDEST PUSH0 PUSH1 0x20 SWAP1 POP PUSH1 0x1F DUP4 GT PUSH1 0x1 DUP2 EQ PUSH2 0x16DF JUMPI PUSH0 DUP5 ISZERO PUSH2 0x16CD JUMPI DUP3 DUP8 ADD MLOAD SWAP1 POP JUMPDEST PUSH2 0x16D7 DUP6 DUP3 PUSH2 0x165C JUMP JUMPDEST DUP7 SSTORE POP PUSH2 0x173E JUMP JUMPDEST PUSH1 0x1F NOT DUP5 AND PUSH2 0x16ED DUP7 PUSH2 0x14E0 JUMP JUMPDEST PUSH0 JUMPDEST DUP3 DUP2 LT ISZERO PUSH2 0x1714 JUMPI DUP5 DUP10 ADD MLOAD DUP3 SSTORE PUSH1 0x1 DUP3 ADD SWAP2 POP PUSH1 0x20 DUP6 ADD SWAP5 POP PUSH1 0x20 DUP2 ADD SWAP1 POP PUSH2 0x16EF JUMP JUMPDEST DUP7 DUP4 LT ISZERO PUSH2 0x1731 JUMPI DUP5 DUP10 ADD MLOAD PUSH2 0x172D PUSH1 0x1F DUP10 AND DUP3 PUSH2 0x1640 JUMP JUMPDEST DUP4 SSTORE POP JUMPDEST PUSH1 0x1 PUSH1 0x2 DUP9 MUL ADD DUP9 SSTORE POP POP POP JUMPDEST POP POP POP POP POP POP JUMP JUMPDEST PUSH0 PUSH1 0x40 DUP3 ADD SWAP1 POP PUSH2 0x1759 PUSH0 DUP4 ADD DUP6 PUSH2 0xF8C JUMP JUMPDEST DUP2 DUP2 SUB PUSH1 0x20 DUP4 ADD MSTORE PUSH2 0x176B DUP2 DUP5 PUSH2 0xEA5 JUMP JUMPDEST SWAP1 POP SWAP4 SWAP3 POP POP POP JUMP JUMPDEST PUSH32 0x6D6178696D756D2053636F726520697320313000000000000000000000000000 PUSH0 DUP3 ADD MSTORE POP JUMP JUMPDEST PUSH0 PUSH2 0x17A8 PUSH1 0x13 DUP4 PUSH2 0xE77 JUMP JUMPDEST SWAP2 POP PUSH2 0x17B3 DUP3 PUSH2 0x1774 JUMP JUMPDEST PUSH1 0x20 DUP3 ADD SWAP1 POP SWAP2 SWAP1 POP JUMP JUMPDEST PUSH0 PUSH1 0x20 DUP3 ADD SWAP1 POP DUP2 DUP2 SUB PUSH0 DUP4 ADD MSTORE PUSH2 0x17D5 DUP2 PUSH2 0x179C JUMP JUMPDEST SWAP1 POP SWAP2 SWAP1 POP JUMP JUMPDEST PUSH32 0x4E487B7100000000000000000000000000000000000000000000000000000000 PUSH0 MSTORE PUSH1 0x32 PUSH1 0x4 MSTORE PUSH1 0x24 PUSH0 REVERT JUMPDEST PUSH32 0x496E76616C696420526F756E6473000000000000000000000000000000000000 PUSH0 DUP3 ADD MSTORE POP JUMP JUMPDEST PUSH0 PUSH2 0x183D PUSH1 0xE DUP4 PUSH2 0xE77 JUMP JUMPDEST SWAP2 POP PUSH2 0x1848 DUP3 PUSH2 0x1809 JUMP JUMPDEST PUSH1 0x20 DUP3 ADD SWAP1 POP SWAP2 SWAP1 POP JUMP JUMPDEST PUSH0 PUSH1 0x20 DUP3 ADD SWAP1 POP DUP2 DUP2 SUB PUSH0 DUP4 ADD MSTORE PUSH2 0x186A DUP2 PUSH2 0x1831 JUMP JUMPDEST SWAP1 POP SWAP2 SWAP1 POP JUMP JUMPDEST PUSH0 PUSH1 0x80 DUP3 ADD SWAP1 POP PUSH2 0x1884 PUSH0 DUP4 ADD DUP8 PUSH2 0xF8C JUMP JUMPDEST PUSH2 0x1891 PUSH1 0x20 DUP4 ADD DUP7 PUSH2 0xF8C JUMP JUMPDEST PUSH2 0x189E PUSH1 0x40 DUP4 ADD DUP6 PUSH2 0xF17 JUMP JUMPDEST PUSH2 0x18AB PUSH1 0x60 DUP4 ADD DUP5 PUSH2 0xF17 JUMP JUMPDEST SWAP6 SWAP5 POP POP POP POP POP JUMP INVALID LOG2 PUSH5 0x6970667358 0x22 SLT KECCAK256 DUP10 0xD3 0x22 DUP8 0xBE 0x4F DUP16 0x28 XOR DELEGATECALL PUSH8 0x5B4EEF80CD560DC2 DUP4 PUSH24 0x1F4B357B41D5996889461364736F6C634300081E00330000 "
		},
		"gasEstimates": {
			"creation": {
				"codeDepositCost": "1275600",
				"executionCost": "infinite",
				"totalCost": "infinite"
			},
			"external": {
				"_registerJudge(string)": "infinite",
				"_registerMMAFighter(string,uint32,uint32,uint32,uint16,uint8)": "infinite",
				"fighterToOwner(uint256)": "2894",
				"fighters(uint256)": "infinite",
				"judgeScore(uint256,uint256,uint8,uint8)": "infinite",
				"judgeToOwner(uint256)": "2828",
				"judges(uint256)": "infinite",
				"matches(uint256)": "infinite",
				"owner()": "2536",
				"renounceOwnership()": "infinite",
				"setMatch(uint256,uint256,uint8)": "infinite",
				"transferOwnership(address)": "infinite"
			}
		},
		"methodIdentifiers": {
			"_registerJudge(string)": "5f6fdddf",
			"_registerMMAFighter(string,uint32,uint32,uint32,uint16,uint8)": "9f8e1766",
			"fighterToOwner(uint256)": "3824fbec",
			"fighters(uint256)": "2e6b221d",
			"judgeScore(uint256,uint256,uint8,uint8)": "e64491f5",
			"judgeToOwner(uint256)": "0d292732",
			"judges(uint256)": "b06b0368",
			"matches(uint256)": "4768d4ef",
			"owner()": "8da5cb5b",
			"renounceOwnership()": "715018a6",
			"setMatch(uint256,uint256,uint8)": "17961f11",
			"transferOwnership(address)": "f2fde38b"
		}
	},
	"abi": [
		{
			"inputs": [
				{
					"internalType": "address",
					"name": "owner",
					"type": "address"
				}
			],
			"name": "OwnableInvalidOwner",
			"type": "error"
		},
		{
			"inputs": [
				{
					"internalType": "address",
					"name": "account",
					"type": "address"
				}
			],
			"name": "OwnableUnauthorizedAccount",
			"type": "error"
		},
		{
			"anonymous": false,
			"inputs": [
				{
					"indexed": false,
					"internalType": "uint256",
					"name": "fightId",
					"type": "uint256"
				},
				{
					"indexed": false,
					"internalType": "uint256",
					"name": "roundId",
					"type": "uint256"
				},
				{
					"indexed": false,
					"internalType": "uint8",
					"name": "scoreA",
					"type": "uint8"
				},
				{
					"indexed": false,
					"internalType": "uint8",
					"name": "scoreB",
					"type": "uint8"
				}
			],
			"name": "FightScore",
			"type": "event"
		},
		{
			"anonymous": false,
			"inputs": [
				{
					"indexed": false,
					"internalType": "uint256",
					"name": "fighterId",
					"type": "uint256"
				},
				{
					"indexed": false,
					"internalType": "string",
					"name": "fighterName",
					"type": "string"
				}
			],
			"name": "NewFighter",
			"type": "event"
		},
		{
			"anonymous": false,
			"inputs": [
				{
					"indexed": false,
					"internalType": "uint256",
					"name": "judgeId",
					"type": "uint256"
				},
				{
					"indexed": false,
					"internalType": "string",
					"name": "judgeName",
					"type": "string"
				}
			],
			"name": "NewJudge",
			"type": "event"
		},
		{
			"anonymous": false,
			"inputs": [
				{
					"indexed": false,
					"internalType": "uint256",
					"name": "_matchId",
					"type": "uint256"
				},
				{
					"indexed": false,
					"internalType": "uint256",
					"name": "_fighterAId",
					"type": "uint256"
				},
				{
					"indexed": false,
					"internalType": "uint256",
					"name": "_fighterBId",
					"type": "uint256"
				},
				{
					"indexed": false,
					"internalType": "uint256",
					"name": "_rounds",
					"type": "uint256"
				}
			],
			"name": "NewMatch",
			"type": "event"
		},
		{
			"anonymous": false,
			"inputs": [
				{
					"indexed": true,
					"internalType": "address",
					"name": "previousOwner",
					"type": "address"
				},
				{
					"indexed": true,
					"internalType": "address",
					"name": "newOwner",
					"type": "address"
				}
			],
			"name": "OwnershipTransferred",
			"type": "event"
		},
		{
			"inputs": [
				{
					"internalType": "string",
					"name": "_name",
					"type": "string"
				}
			],
			"name": "_registerJudge",
			"outputs": [],
			"stateMutability": "nonpayable",
			"type": "function"
		},
		{
			"inputs": [
				{
					"internalType": "string",
					"name": "_name",
					"type": "string"
				},
				{
					"internalType": "uint32",
					"name": "_wins",
					"type": "uint32"
				},
				{
					"internalType": "uint32",
					"name": "_losses",
					"type": "uint32"
				},
				{
					"internalType": "uint32",
					"name": "_draws",
					"type": "uint32"
				},
				{
					"internalType": "uint16",
					"name": "_nc",
					"type": "uint16"
				},
				{
					"internalType": "uint8",
					"name": "_weight",
					"type": "uint8"
				}
			],
			"name": "_registerMMAFighter",
			"outputs": [],
			"stateMutability": "nonpayable",
			"type": "function"
		},
		{
			"inputs": [
				{
					"internalType": "uint256",
					"name": "",
					"type": "uint256"
				}
			],
			"name": "fighterToOwner",
			"outputs": [
				{
					"internalType": "address",
					"name": "",
					"type": "address"
				}
			],
			"stateMutability": "view",
			"type": "function"
		},
		{
			"inputs": [
				{
					"internalType": "uint256",
					"name": "",
					"type": "uint256"
				}
			],
			"name": "fighters",
			"outputs": [
				{
					"internalType": "string",
					"name": "name",
					"type": "string"
				},
				{
					"internalType": "uint32",
					"name": "win",
					"type": "uint32"
				},
				{
					"internalType": "uint32",
					"name": "loss",
					"type": "uint32"
				},
				{
					"internalType": "uint32",
					"name": "draw",
					"type": "uint32"
				},
				{
					"internalType": "uint16",
					"name": "noContest",
					"type": "uint16"
				},
				{
					"internalType": "uint8",
					"name": "weightCategoryLbs",
					"type": "uint8"
				}
			],
			"stateMutability": "view",
			"type": "function"
		},
		{
			"inputs": [
				{
					"internalType": "uint256",
					"name": "_fightId",
					"type": "uint256"
				},
				{
					"internalType": "uint256",
					"name": "_roundId",
					"type": "uint256"
				},
				{
					"internalType": "uint8",
					"name": "_scoreA",
					"type": "uint8"
				},
				{
					"internalType": "uint8",
					"name": "_scoreB",
					"type": "uint8"
				}
			],
			"name": "judgeScore",
			"outputs": [],
			"stateMutability": "nonpayable",
			"type": "function"
		},
		{
			"inputs": [
				{
					"internalType": "uint256",
					"name": "",
					"type": "uint256"
				}
			],
			"name": "judgeToOwner",
			"outputs": [
				{
					"internalType": "address",
					"name": "",
					"type": "address"
				}
			],
			"stateMutability": "view",
			"type": "function"
		},
		{
			"inputs": [
				{
					"internalType": "uint256",
					"name": "",
					"type": "uint256"
				}
			],
			"name": "judges",
			"outputs": [
				{
					"internalType": "string",
					"name": "name",
					"type": "string"
				},
				{
					"internalType": "uint16",
					"name": "rank",
					"type": "uint16"
				},
				{
					"internalType": "uint32",
					"name": "rightDecision",
					"type": "uint32"
				},
				{
					"internalType": "uint16",
					"name": "wrongDecision",
					"type": "uint16"
				}
			],
			"stateMutability": "view",
			"type": "function"
		},
		{
			"inputs": [
				{
					"internalType": "uint256",
					"name": "",
					"type": "uint256"
				}
			],
			"name": "matches",
			"outputs": [
				{
					"internalType": "uint256",
					"name": "fighterAId",
					"type": "uint256"
				},
				{
					"internalType": "uint256",
					"name": "fighterBId",
					"type": "uint256"
				},
				{
					"internalType": "uint8",
					"name": "rounds",
					"type": "uint8"
				}
			],
			"stateMutability": "view",
			"type": "function"
		},
		{
			"inputs": [],
			"name": "owner",
			"outputs": [
				{
					"internalType": "address",
					"name": "",
					"type": "address"
				}
			],
			"stateMutability": "view",
			"type": "function"
		},
		{
			"inputs": [],
			"name": "renounceOwnership",
			"outputs": [],
			"stateMutability": "nonpayable",
			"type": "function"
		},
		{
			"inputs": [
				{
					"internalType": "uint256",
					"name": "_fighterAId",
					"type": "uint256"
				},
				{
					"internalType": "uint256",
					"name": "_fighterBId",
					"type": "uint256"
				},
				{
					"internalType": "uint8",
					"name": "_rounds",
					"type": "uint8"
				}
			],
			"name": "setMatch",
			"outputs": [],
			"stateMutability": "nonpayable",
			"type": "function"
		},
		{
			"inputs": [
				{
					"internalType": "address",
					"name": "newOwner",
					"type": "address"
				}
			],
			"name": "transferOwnership",
			"outputs": [],
			"stateMutability": "nonpayable",
			"type": "function"
		}
	]
}